{
	"v2/contracts/SoulSocietySBT.sol": {
		"SoulSocietySBT": {
			"abi": [
				{
					"inputs": [
						{
							"internalType": "string",
							"name": "name_",
							"type": "string"
						},
						{
							"internalType": "string",
							"name": "symbol_",
							"type": "string"
						},
						{
							"internalType": "string",
							"name": "uri_",
							"type": "string"
						}
					],
					"stateMutability": "nonpayable",
					"type": "constructor"
				},
				{
					"inputs": [
						{
							"internalType": "uint256",
							"name": "tokenId",
							"type": "uint256"
						}
					],
					"name": "SoulSocietySBTExistToken",
					"type": "error"
				},
				{
					"inputs": [
						{
							"internalType": "address",
							"name": "sender",
							"type": "address"
						},
						{
							"internalType": "uint256",
							"name": "tokenId",
							"type": "uint256"
						},
						{
							"internalType": "address",
							"name": "owner",
							"type": "address"
						}
					],
					"name": "SoulSocietySBTIncorrectOwner",
					"type": "error"
				},
				{
					"inputs": [
						{
							"internalType": "address",
							"name": "to",
							"type": "address"
						}
					],
					"name": "SoulSocietySBTInvalidOwner",
					"type": "error"
				},
				{
					"inputs": [
						{
							"internalType": "address",
							"name": "receiver",
							"type": "address"
						}
					],
					"name": "SoulSocietySBTInvalidReceiver",
					"type": "error"
				},
				{
					"inputs": [
						{
							"internalType": "address",
							"name": "sender",
							"type": "address"
						}
					],
					"name": "SoulSocietySBTInvalidSender",
					"type": "error"
				},
				{
					"inputs": [
						{
							"internalType": "uint256",
							"name": "tokenId",
							"type": "uint256"
						}
					],
					"name": "SoulSocietySBTNonexistentToken",
					"type": "error"
				},
				{
					"inputs": [
						{
							"internalType": "address",
							"name": "owner",
							"type": "address"
						},
						{
							"internalType": "address",
							"name": "to",
							"type": "address"
						}
					],
					"name": "SoulSocietySBTNotOwner",
					"type": "error"
				},
				{
					"inputs": [
						{
							"internalType": "string",
							"name": "message",
							"type": "string"
						}
					],
					"name": "SoulSocietySBTNotSupported",
					"type": "error"
				},
				{
					"inputs": [
						{
							"internalType": "address",
							"name": "owner",
							"type": "address"
						}
					],
					"name": "SoulSocietySBTProtectedOwner",
					"type": "error"
				},
				{
					"anonymous": false,
					"inputs": [
						{
							"indexed": true,
							"internalType": "address",
							"name": "owner",
							"type": "address"
						},
						{
							"indexed": true,
							"internalType": "address",
							"name": "approved",
							"type": "address"
						},
						{
							"indexed": true,
							"internalType": "uint256",
							"name": "tokenId",
							"type": "uint256"
						}
					],
					"name": "Approval",
					"type": "event"
				},
				{
					"anonymous": false,
					"inputs": [
						{
							"indexed": true,
							"internalType": "address",
							"name": "owner",
							"type": "address"
						},
						{
							"indexed": true,
							"internalType": "address",
							"name": "operator",
							"type": "address"
						},
						{
							"indexed": false,
							"internalType": "bool",
							"name": "approved",
							"type": "bool"
						}
					],
					"name": "ApprovalForAll",
					"type": "event"
				},
				{
					"anonymous": false,
					"inputs": [
						{
							"indexed": true,
							"internalType": "address",
							"name": "to",
							"type": "address"
						},
						{
							"indexed": false,
							"internalType": "uint256",
							"name": "tokenId",
							"type": "uint256"
						},
						{
							"indexed": true,
							"internalType": "uint256",
							"name": "growth",
							"type": "uint256"
						}
					],
					"name": "GrowUp",
					"type": "event"
				},
				{
					"anonymous": false,
					"inputs": [
						{
							"indexed": false,
							"internalType": "address",
							"name": "from",
							"type": "address"
						},
						{
							"indexed": true,
							"internalType": "address",
							"name": "to",
							"type": "address"
						},
						{
							"indexed": true,
							"internalType": "uint256",
							"name": "tokenId",
							"type": "uint256"
						},
						{
							"indexed": true,
							"internalType": "uint256",
							"name": "tokenType",
							"type": "uint256"
						}
					],
					"name": "Mint",
					"type": "event"
				},
				{
					"anonymous": false,
					"inputs": [
						{
							"indexed": true,
							"internalType": "address",
							"name": "previousOwner",
							"type": "address"
						},
						{
							"indexed": true,
							"internalType": "address",
							"name": "newOwner",
							"type": "address"
						}
					],
					"name": "OwnershipTransferred",
					"type": "event"
				},
				{
					"anonymous": false,
					"inputs": [
						{
							"indexed": true,
							"internalType": "address",
							"name": "from",
							"type": "address"
						},
						{
							"indexed": true,
							"internalType": "address",
							"name": "to",
							"type": "address"
						},
						{
							"indexed": true,
							"internalType": "uint256",
							"name": "tokenId",
							"type": "uint256"
						}
					],
					"name": "Transfer",
					"type": "event"
				},
				{
					"inputs": [
						{
							"internalType": "address",
							"name": "",
							"type": "address"
						},
						{
							"internalType": "uint256",
							"name": "",
							"type": "uint256"
						}
					],
					"name": "approve",
					"outputs": [],
					"stateMutability": "pure",
					"type": "function"
				},
				{
					"inputs": [
						{
							"internalType": "address",
							"name": "owner_",
							"type": "address"
						}
					],
					"name": "balanceOf",
					"outputs": [
						{
							"internalType": "uint256",
							"name": "",
							"type": "uint256"
						}
					],
					"stateMutability": "view",
					"type": "function"
				},
				{
					"inputs": [
						{
							"internalType": "uint256",
							"name": "",
							"type": "uint256"
						}
					],
					"name": "getApproved",
					"outputs": [
						{
							"internalType": "address",
							"name": "",
							"type": "address"
						}
					],
					"stateMutability": "pure",
					"type": "function"
				},
				{
					"inputs": [
						{
							"internalType": "uint256",
							"name": "tokenId_",
							"type": "uint256"
						}
					],
					"name": "getGrowth",
					"outputs": [
						{
							"internalType": "uint256",
							"name": "",
							"type": "uint256"
						}
					],
					"stateMutability": "view",
					"type": "function"
				},
				{
					"inputs": [
						{
							"internalType": "address",
							"name": "to_",
							"type": "address"
						}
					],
					"name": "getProtected",
					"outputs": [
						{
							"internalType": "bool",
							"name": "",
							"type": "bool"
						}
					],
					"stateMutability": "view",
					"type": "function"
				},
				{
					"inputs": [
						{
							"internalType": "uint256",
							"name": "tokenId_",
							"type": "uint256"
						}
					],
					"name": "getTokenType",
					"outputs": [
						{
							"internalType": "uint256",
							"name": "",
							"type": "uint256"
						}
					],
					"stateMutability": "view",
					"type": "function"
				},
				{
					"inputs": [
						{
							"internalType": "address",
							"name": "to_",
							"type": "address"
						},
						{
							"internalType": "uint256",
							"name": "tokenId_",
							"type": "uint256"
						}
					],
					"name": "growUp",
					"outputs": [
						{
							"internalType": "uint256",
							"name": "",
							"type": "uint256"
						}
					],
					"stateMutability": "nonpayable",
					"type": "function"
				},
				{
					"inputs": [
						{
							"internalType": "address",
							"name": "",
							"type": "address"
						},
						{
							"internalType": "address",
							"name": "",
							"type": "address"
						}
					],
					"name": "isApprovedForAll",
					"outputs": [
						{
							"internalType": "bool",
							"name": "",
							"type": "bool"
						}
					],
					"stateMutability": "pure",
					"type": "function"
				},
				{
					"inputs": [
						{
							"internalType": "address",
							"name": "to_",
							"type": "address"
						}
					],
					"name": "isProtected",
					"outputs": [
						{
							"internalType": "bool",
							"name": "",
							"type": "bool"
						}
					],
					"stateMutability": "view",
					"type": "function"
				},
				{
					"inputs": [
						{
							"internalType": "address",
							"name": "to_",
							"type": "address"
						},
						{
							"internalType": "uint256",
							"name": "tokenType_",
							"type": "uint256"
						}
					],
					"name": "mint",
					"outputs": [
						{
							"internalType": "uint256",
							"name": "",
							"type": "uint256"
						}
					],
					"stateMutability": "nonpayable",
					"type": "function"
				},
				{
					"inputs": [],
					"name": "name",
					"outputs": [
						{
							"internalType": "string",
							"name": "",
							"type": "string"
						}
					],
					"stateMutability": "view",
					"type": "function"
				},
				{
					"inputs": [],
					"name": "owner",
					"outputs": [
						{
							"internalType": "address",
							"name": "",
							"type": "address"
						}
					],
					"stateMutability": "view",
					"type": "function"
				},
				{
					"inputs": [
						{
							"internalType": "uint256",
							"name": "tokenId_",
							"type": "uint256"
						}
					],
					"name": "ownerOf",
					"outputs": [
						{
							"internalType": "address",
							"name": "",
							"type": "address"
						}
					],
					"stateMutability": "view",
					"type": "function"
				},
				{
					"inputs": [],
					"name": "renounceOwnership",
					"outputs": [],
					"stateMutability": "nonpayable",
					"type": "function"
				},
				{
					"inputs": [
						{
							"internalType": "address",
							"name": "",
							"type": "address"
						},
						{
							"internalType": "address",
							"name": "",
							"type": "address"
						},
						{
							"internalType": "uint256",
							"name": "",
							"type": "uint256"
						}
					],
					"name": "safeTransferFrom",
					"outputs": [],
					"stateMutability": "pure",
					"type": "function"
				},
				{
					"inputs": [
						{
							"internalType": "address",
							"name": "",
							"type": "address"
						},
						{
							"internalType": "address",
							"name": "",
							"type": "address"
						},
						{
							"internalType": "uint256",
							"name": "",
							"type": "uint256"
						},
						{
							"internalType": "bytes",
							"name": "",
							"type": "bytes"
						}
					],
					"name": "safeTransferFrom",
					"outputs": [],
					"stateMutability": "pure",
					"type": "function"
				},
				{
					"inputs": [
						{
							"internalType": "address",
							"name": "",
							"type": "address"
						},
						{
							"internalType": "bool",
							"name": "",
							"type": "bool"
						}
					],
					"name": "setApprovalForAll",
					"outputs": [],
					"stateMutability": "pure",
					"type": "function"
				},
				{
					"inputs": [
						{
							"internalType": "address",
							"name": "to_",
							"type": "address"
						},
						{
							"internalType": "bool",
							"name": "isProtected_",
							"type": "bool"
						}
					],
					"name": "setProtected",
					"outputs": [
						{
							"internalType": "bool",
							"name": "",
							"type": "bool"
						}
					],
					"stateMutability": "nonpayable",
					"type": "function"
				},
				{
					"inputs": [
						{
							"internalType": "string",
							"name": "tokenURI_",
							"type": "string"
						}
					],
					"name": "setTokenURI",
					"outputs": [
						{
							"internalType": "string",
							"name": "",
							"type": "string"
						}
					],
					"stateMutability": "nonpayable",
					"type": "function"
				},
				{
					"inputs": [
						{
							"internalType": "bytes4",
							"name": "interfaceId",
							"type": "bytes4"
						}
					],
					"name": "supportsInterface",
					"outputs": [
						{
							"internalType": "bool",
							"name": "",
							"type": "bool"
						}
					],
					"stateMutability": "view",
					"type": "function"
				},
				{
					"inputs": [],
					"name": "symbol",
					"outputs": [
						{
							"internalType": "string",
							"name": "",
							"type": "string"
						}
					],
					"stateMutability": "view",
					"type": "function"
				},
				{
					"inputs": [
						{
							"internalType": "address",
							"name": "owner_",
							"type": "address"
						},
						{
							"internalType": "uint256",
							"name": "index_",
							"type": "uint256"
						}
					],
					"name": "tokenOfOwnerByIndex",
					"outputs": [
						{
							"internalType": "uint256",
							"name": "",
							"type": "uint256"
						}
					],
					"stateMutability": "view",
					"type": "function"
				},
				{
					"inputs": [
						{
							"internalType": "uint256",
							"name": "tokenId_",
							"type": "uint256"
						}
					],
					"name": "tokenURI",
					"outputs": [
						{
							"internalType": "string",
							"name": "",
							"type": "string"
						}
					],
					"stateMutability": "view",
					"type": "function"
				},
				{
					"inputs": [],
					"name": "totalSupply",
					"outputs": [
						{
							"internalType": "uint256",
							"name": "",
							"type": "uint256"
						}
					],
					"stateMutability": "view",
					"type": "function"
				},
				{
					"inputs": [],
					"name": "totalUser",
					"outputs": [
						{
							"internalType": "uint256",
							"name": "",
							"type": "uint256"
						}
					],
					"stateMutability": "view",
					"type": "function"
				},
				{
					"inputs": [
						{
							"internalType": "address",
							"name": "",
							"type": "address"
						},
						{
							"internalType": "address",
							"name": "",
							"type": "address"
						},
						{
							"internalType": "uint256",
							"name": "",
							"type": "uint256"
						}
					],
					"name": "transferFrom",
					"outputs": [],
					"stateMutability": "pure",
					"type": "function"
				},
				{
					"inputs": [
						{
							"internalType": "address",
							"name": "newOwner",
							"type": "address"
						}
					],
					"name": "transferOwnership",
					"outputs": [],
					"stateMutability": "nonpayable",
					"type": "function"
				}
			],
			"devdoc": {
				"errors": {
					"SoulSocietySBTIncorrectOwner(address,uint256,address)": [
						{
							"details": "Indicates an error related to the ownership over a particular token. Used in transfers.",
							"params": {
								"owner": "Address of the current owner of a token.",
								"sender": "Address whose tokens are being transferred.",
								"tokenId": "Identifier number of a token."
							}
						}
					],
					"SoulSocietySBTInvalidReceiver(address)": [
						{
							"details": "Indicates a failure with the token `receiver`. Used in transfers.",
							"params": {
								"receiver": "Address to which tokens are being transferred."
							}
						}
					],
					"SoulSocietySBTInvalidSender(address)": [
						{
							"details": "Indicates a failure with the token `sender`. Used in transfers.",
							"params": {
								"sender": "Address whose tokens are being transferred."
							}
						}
					],
					"SoulSocietySBTNonexistentToken(uint256)": [
						{
							"details": "Indicates a `tokenId` whose `owner` is the zero address.",
							"params": {
								"tokenId": "Identifier number of a token."
							}
						}
					],
					"SoulSocietySBTNotOwner(address,address)": [
						{
							"details": "Indicates an error related to the ownership over a particular token.",
							"params": {
								"owner": "Address of the current owner of a token.",
								"to": "Address whose SBT token are being used."
							}
						}
					],
					"SoulSocietySBTProtectedOwner(address)": [
						{
							"details": "Indicates protected status. Used in token.",
							"params": {
								"owner": "Address."
							}
						}
					]
				},
				"events": {
					"Approval(address,address,uint256)": {
						"details": "Emitted when `owner` enables `approved` to manage the `tokenId` token."
					},
					"ApprovalForAll(address,address,bool)": {
						"details": "Emitted when `owner` enables or disables (`approved`) `operator` to manage all of its assets."
					},
					"Mint(address,address,uint256,uint256)": {
						"details": "Emitted when `tokenId` token is minted from `from(Contract Owner)` to `to`."
					},
					"Transfer(address,address,uint256)": {
						"details": "Emitted when `tokenId` token is transferred from `from` to `to`."
					}
				},
				"kind": "dev",
				"methods": {
					"name()": {
						"details": "Returns the token collection name."
					},
					"owner()": {
						"details": "Returns the address of the current owner."
					},
					"ownerOf(uint256)": {
						"details": "Returns the owner of the `tokenId`. Does NOT revert if token doesn't exist"
					},
					"renounceOwnership()": {
						"details": "Leaves the contract without owner. It will not be possible to call `onlyOwner` functions. Can only be called by the current owner. NOTE: Renouncing ownership will leave the contract without an owner, thereby disabling any functionality that is only available to the owner."
					},
					"supportsInterface(bytes4)": {
						"details": "See {IERC165-supportsInterface}."
					},
					"symbol()": {
						"details": "Returns the token collection symbol."
					},
					"tokenOfOwnerByIndex(address,uint256)": {
						"details": "Returns a token ID owned by `owner` at a given `index` of its token list. Use along with {balanceOf} to enumerate all of ``owner``'s tokens."
					},
					"tokenURI(uint256)": {
						"details": "Returns the Uniform Resource Identifier (URI) for `tokenId` token."
					},
					"totalSupply()": {
						"details": "Returns the total amount of tokens stored by the contract."
					},
					"transferOwnership(address)": {
						"details": "Transfers ownership of the contract to a new account (`newOwner`). Can only be called by the current owner."
					}
				},
				"title": "Implementation contract of Lightweight growth type SBT developed by SoulSociety",
				"version": 1
			},
			"evm": {
				"assembly": "    /* \"v2/contracts/SoulSocietySBT.sol\":725:12138  contract SoulSocietySBT is ISoulSocietySBT, ISoulSocietySBTMetadata, ISoulSocietySBTErrors , IERC721, ERC165, Ownable {... */\n  mstore(0x40, 0x80)\n    /* \"v2/contracts/SoulSocietySBT.sol\":1088:1089  0 */\n  0x00\n    /* \"v2/contracts/SoulSocietySBT.sol\":1059:1089  uint256 private _totalUser = 0 */\n  0x04\n  sstore\n    /* \"v2/contracts/SoulSocietySBT.sol\":1158:1159  0 */\n  0x00\n    /* \"v2/contracts/SoulSocietySBT.sol\":1128:1159  uint256 private _totalCount = 0 */\n  0x05\n  sstore\n    /* \"v2/contracts/SoulSocietySBT.sol\":1945:2099  constructor(string memory name_, string memory symbol_, string memory uri_) {... */\n  callvalue\n  dup1\n  iszero\n  tag_1\n  jumpi\n  0x00\n  dup1\n  revert\ntag_1:\n  pop\n  mload(0x40)\n  sub(codesize, bytecodeSize)\n  dup1\n  bytecodeSize\n  dup4\n  codecopy\n  dup2\n  dup2\n  add\n  0x40\n  mstore\n  dup2\n  add\n  swap1\n  tag_2\n  swap2\n  swap1\n  tag_3\n  jump\t// in\ntag_2:\n    /* \"@openzeppelin/contracts/access/Ownable.sol\":936:968  _transferOwnership(_msgSender()) */\n  tag_7\n    /* \"@openzeppelin/contracts/access/Ownable.sol\":955:967  _msgSender() */\n  tag_8\n    /* \"@openzeppelin/contracts/access/Ownable.sol\":955:965  _msgSender */\n  shl(0x20, tag_9)\n    /* \"@openzeppelin/contracts/access/Ownable.sol\":955:967  _msgSender() */\n  0x20\n  shr\n  jump\t// in\ntag_8:\n    /* \"@openzeppelin/contracts/access/Ownable.sol\":936:954  _transferOwnership */\n  shl(0x20, tag_10)\n    /* \"@openzeppelin/contracts/access/Ownable.sol\":936:968  _transferOwnership(_msgSender()) */\n  0x20\n  shr\n  jump\t// in\ntag_7:\n    /* \"v2/contracts/SoulSocietySBT.sol\":2039:2044  name_ */\n  dup3\n    /* \"v2/contracts/SoulSocietySBT.sol\":2031:2036  _name */\n  0x01\n    /* \"v2/contracts/SoulSocietySBT.sol\":2031:2044  _name = name_ */\n  swap1\n  dup2\n  tag_12\n  swap2\n  swap1\n  tag_13\n  jump\t// in\ntag_12:\n  pop\n    /* \"v2/contracts/SoulSocietySBT.sol\":2064:2071  symbol_ */\n  dup2\n    /* \"v2/contracts/SoulSocietySBT.sol\":2054:2061  _symbol */\n  0x02\n    /* \"v2/contracts/SoulSocietySBT.sol\":2054:2071  _symbol = symbol_ */\n  swap1\n  dup2\n  tag_14\n  swap2\n  swap1\n  tag_13\n  jump\t// in\ntag_14:\n  pop\n    /* \"v2/contracts/SoulSocietySBT.sol\":2088:2092  uri_ */\n  dup1\n    /* \"v2/contracts/SoulSocietySBT.sol\":2081:2085  _uri */\n  0x03\n    /* \"v2/contracts/SoulSocietySBT.sol\":2081:2092  _uri = uri_ */\n  swap1\n  dup2\n  tag_15\n  swap2\n  swap1\n  tag_13\n  jump\t// in\ntag_15:\n  pop\n    /* \"v2/contracts/SoulSocietySBT.sol\":1945:2099  constructor(string memory name_, string memory symbol_, string memory uri_) {... */\n  pop\n  pop\n  pop\n    /* \"v2/contracts/SoulSocietySBT.sol\":725:12138  contract SoulSocietySBT is ISoulSocietySBT, ISoulSocietySBTMetadata, ISoulSocietySBTErrors , IERC721, ERC165, Ownable {... */\n  jump(tag_16)\n    /* \"@openzeppelin/contracts/utils/Context.sol\":640:736  function _msgSender() internal view virtual returns (address) {... */\ntag_9:\n    /* \"@openzeppelin/contracts/utils/Context.sol\":693:700  address */\n  0x00\n    /* \"@openzeppelin/contracts/utils/Context.sol\":719:729  msg.sender */\n  caller\n    /* \"@openzeppelin/contracts/utils/Context.sol\":712:729  return msg.sender */\n  swap1\n  pop\n    /* \"@openzeppelin/contracts/utils/Context.sol\":640:736  function _msgSender() internal view virtual returns (address) {... */\n  swap1\n  jump\t// out\n    /* \"@openzeppelin/contracts/access/Ownable.sol\":2426:2613  function _transferOwnership(address newOwner) internal virtual {... */\ntag_10:\n    /* \"@openzeppelin/contracts/access/Ownable.sol\":2499:2515  address oldOwner */\n  0x00\n    /* \"@openzeppelin/contracts/access/Ownable.sol\":2518:2524  _owner */\n  dup1\n  0x00\n  swap1\n  sload\n  swap1\n  0x0100\n  exp\n  swap1\n  div\n  0xffffffffffffffffffffffffffffffffffffffff\n  and\n    /* \"@openzeppelin/contracts/access/Ownable.sol\":2499:2524  address oldOwner = _owner */\n  swap1\n  pop\n    /* \"@openzeppelin/contracts/access/Ownable.sol\":2543:2551  newOwner */\n  dup2\n    /* \"@openzeppelin/contracts/access/Ownable.sol\":2534:2540  _owner */\n  0x00\n  dup1\n    /* \"@openzeppelin/contracts/access/Ownable.sol\":2534:2551  _owner = newOwner */\n  0x0100\n  exp\n  dup2\n  sload\n  dup2\n  0xffffffffffffffffffffffffffffffffffffffff\n  mul\n  not\n  and\n  swap1\n  dup4\n  0xffffffffffffffffffffffffffffffffffffffff\n  and\n  mul\n  or\n  swap1\n  sstore\n  pop\n    /* \"@openzeppelin/contracts/access/Ownable.sol\":2597:2605  newOwner */\n  dup2\n    /* \"@openzeppelin/contracts/access/Ownable.sol\":2566:2606  OwnershipTransferred(oldOwner, newOwner) */\n  0xffffffffffffffffffffffffffffffffffffffff\n  and\n    /* \"@openzeppelin/contracts/access/Ownable.sol\":2587:2595  oldOwner */\n  dup2\n    /* \"@openzeppelin/contracts/access/Ownable.sol\":2566:2606  OwnershipTransferred(oldOwner, newOwner) */\n  0xffffffffffffffffffffffffffffffffffffffff\n  and\n  0x8be0079c531659141344cd1fd0a4f28419497f9722a3daafe3b4186f6b6457e0\n  mload(0x40)\n  mload(0x40)\n  dup1\n  swap2\n  sub\n  swap1\n  log3\n    /* \"@openzeppelin/contracts/access/Ownable.sol\":2489:2613  {... */\n  pop\n    /* \"@openzeppelin/contracts/access/Ownable.sol\":2426:2613  function _transferOwnership(address newOwner) internal virtual {... */\n  pop\n  jump\t// out\n    /* \"#utility.yul\":7:82   */\ntag_19:\n    /* \"#utility.yul\":40:46   */\n  0x00\n    /* \"#utility.yul\":73:75   */\n  0x40\n    /* \"#utility.yul\":67:76   */\n  mload\n    /* \"#utility.yul\":57:76   */\n  swap1\n  pop\n    /* \"#utility.yul\":7:82   */\n  swap1\n  jump\t// out\n    /* \"#utility.yul\":88:205   */\ntag_20:\n    /* \"#utility.yul\":197:198   */\n  0x00\n    /* \"#utility.yul\":194:195   */\n  dup1\n    /* \"#utility.yul\":187:199   */\n  revert\n    /* \"#utility.yul\":211:328   */\ntag_21:\n    /* \"#utility.yul\":320:321   */\n  0x00\n    /* \"#utility.yul\":317:318   */\n  dup1\n    /* \"#utility.yul\":310:322   */\n  revert\n    /* \"#utility.yul\":334:451   */\ntag_22:\n    /* \"#utility.yul\":443:444   */\n  0x00\n    /* \"#utility.yul\":440:441   */\n  dup1\n    /* \"#utility.yul\":433:445   */\n  revert\n    /* \"#utility.yul\":457:574   */\ntag_23:\n    /* \"#utility.yul\":566:567   */\n  0x00\n    /* \"#utility.yul\":563:564   */\n  dup1\n    /* \"#utility.yul\":556:568   */\n  revert\n    /* \"#utility.yul\":580:682   */\ntag_24:\n    /* \"#utility.yul\":621:627   */\n  0x00\n    /* \"#utility.yul\":672:674   */\n  0x1f\n    /* \"#utility.yul\":668:675   */\n  not\n    /* \"#utility.yul\":663:665   */\n  0x1f\n    /* \"#utility.yul\":656:661   */\n  dup4\n    /* \"#utility.yul\":652:666   */\n  add\n    /* \"#utility.yul\":648:676   */\n  and\n    /* \"#utility.yul\":638:676   */\n  swap1\n  pop\n    /* \"#utility.yul\":580:682   */\n  swap2\n  swap1\n  pop\n  jump\t// out\n    /* \"#utility.yul\":688:868   */\ntag_25:\n    /* \"#utility.yul\":736:813   */\n  0x4e487b7100000000000000000000000000000000000000000000000000000000\n    /* \"#utility.yul\":733:734   */\n  0x00\n    /* \"#utility.yul\":726:814   */\n  mstore\n    /* \"#utility.yul\":833:837   */\n  0x41\n    /* \"#utility.yul\":830:831   */\n  0x04\n    /* \"#utility.yul\":823:838   */\n  mstore\n    /* \"#utility.yul\":857:861   */\n  0x24\n    /* \"#utility.yul\":854:855   */\n  0x00\n    /* \"#utility.yul\":847:862   */\n  revert\n    /* \"#utility.yul\":874:1155   */\ntag_26:\n    /* \"#utility.yul\":957:984   */\n  tag_60\n    /* \"#utility.yul\":979:983   */\n  dup3\n    /* \"#utility.yul\":957:984   */\n  tag_24\n  jump\t// in\ntag_60:\n    /* \"#utility.yul\":949:955   */\n  dup2\n    /* \"#utility.yul\":945:985   */\n  add\n    /* \"#utility.yul\":1087:1093   */\n  dup2\n    /* \"#utility.yul\":1075:1085   */\n  dup2\n    /* \"#utility.yul\":1072:1094   */\n  lt\n    /* \"#utility.yul\":1051:1069   */\n  0xffffffffffffffff\n    /* \"#utility.yul\":1039:1049   */\n  dup3\n    /* \"#utility.yul\":1036:1070   */\n  gt\n    /* \"#utility.yul\":1033:1095   */\n  or\n    /* \"#utility.yul\":1030:1118   */\n  iszero\n  tag_61\n  jumpi\n    /* \"#utility.yul\":1098:1116   */\n  tag_62\n  tag_25\n  jump\t// in\ntag_62:\n    /* \"#utility.yul\":1030:1118   */\ntag_61:\n    /* \"#utility.yul\":1138:1148   */\n  dup1\n    /* \"#utility.yul\":1134:1136   */\n  0x40\n    /* \"#utility.yul\":1127:1149   */\n  mstore\n    /* \"#utility.yul\":917:1155   */\n  pop\n    /* \"#utility.yul\":874:1155   */\n  pop\n  pop\n  jump\t// out\n    /* \"#utility.yul\":1161:1290   */\ntag_27:\n    /* \"#utility.yul\":1195:1201   */\n  0x00\n    /* \"#utility.yul\":1222:1242   */\n  tag_64\n  tag_19\n  jump\t// in\ntag_64:\n    /* \"#utility.yul\":1212:1242   */\n  swap1\n  pop\n    /* \"#utility.yul\":1251:1284   */\n  tag_65\n    /* \"#utility.yul\":1279:1283   */\n  dup3\n    /* \"#utility.yul\":1271:1277   */\n  dup3\n    /* \"#utility.yul\":1251:1284   */\n  tag_26\n  jump\t// in\ntag_65:\n    /* \"#utility.yul\":1161:1290   */\n  swap2\n  swap1\n  pop\n  jump\t// out\n    /* \"#utility.yul\":1296:1604   */\ntag_28:\n    /* \"#utility.yul\":1358:1362   */\n  0x00\n    /* \"#utility.yul\":1448:1466   */\n  0xffffffffffffffff\n    /* \"#utility.yul\":1440:1446   */\n  dup3\n    /* \"#utility.yul\":1437:1467   */\n  gt\n    /* \"#utility.yul\":1434:1490   */\n  iszero\n  tag_67\n  jumpi\n    /* \"#utility.yul\":1470:1488   */\n  tag_68\n  tag_25\n  jump\t// in\ntag_68:\n    /* \"#utility.yul\":1434:1490   */\ntag_67:\n    /* \"#utility.yul\":1508:1537   */\n  tag_69\n    /* \"#utility.yul\":1530:1536   */\n  dup3\n    /* \"#utility.yul\":1508:1537   */\n  tag_24\n  jump\t// in\ntag_69:\n    /* \"#utility.yul\":1500:1537   */\n  swap1\n  pop\n    /* \"#utility.yul\":1592:1596   */\n  0x20\n    /* \"#utility.yul\":1586:1590   */\n  dup2\n    /* \"#utility.yul\":1582:1597   */\n  add\n    /* \"#utility.yul\":1574:1597   */\n  swap1\n  pop\n    /* \"#utility.yul\":1296:1604   */\n  swap2\n  swap1\n  pop\n  jump\t// out\n    /* \"#utility.yul\":1610:1856   */\ntag_29:\n    /* \"#utility.yul\":1691:1692   */\n  0x00\n    /* \"#utility.yul\":1701:1814   */\ntag_71:\n    /* \"#utility.yul\":1715:1721   */\n  dup4\n    /* \"#utility.yul\":1712:1713   */\n  dup2\n    /* \"#utility.yul\":1709:1722   */\n  lt\n    /* \"#utility.yul\":1701:1814   */\n  iszero\n  tag_73\n  jumpi\n    /* \"#utility.yul\":1800:1801   */\n  dup1\n    /* \"#utility.yul\":1795:1798   */\n  dup3\n    /* \"#utility.yul\":1791:1802   */\n  add\n    /* \"#utility.yul\":1785:1803   */\n  mload\n    /* \"#utility.yul\":1781:1782   */\n  dup2\n    /* \"#utility.yul\":1776:1779   */\n  dup5\n    /* \"#utility.yul\":1772:1783   */\n  add\n    /* \"#utility.yul\":1765:1804   */\n  mstore\n    /* \"#utility.yul\":1737:1739   */\n  0x20\n    /* \"#utility.yul\":1734:1735   */\n  dup2\n    /* \"#utility.yul\":1730:1740   */\n  add\n    /* \"#utility.yul\":1725:1740   */\n  swap1\n  pop\n    /* \"#utility.yul\":1701:1814   */\n  jump(tag_71)\ntag_73:\n    /* \"#utility.yul\":1848:1849   */\n  0x00\n    /* \"#utility.yul\":1839:1845   */\n  dup5\n    /* \"#utility.yul\":1834:1837   */\n  dup5\n    /* \"#utility.yul\":1830:1846   */\n  add\n    /* \"#utility.yul\":1823:1850   */\n  mstore\n    /* \"#utility.yul\":1672:1856   */\n  pop\n    /* \"#utility.yul\":1610:1856   */\n  pop\n  pop\n  pop\n  jump\t// out\n    /* \"#utility.yul\":1862:2296   */\ntag_30:\n    /* \"#utility.yul\":1951:1956   */\n  0x00\n    /* \"#utility.yul\":1976:2042   */\n  tag_75\n    /* \"#utility.yul\":1992:2041   */\n  tag_76\n    /* \"#utility.yul\":2034:2040   */\n  dup5\n    /* \"#utility.yul\":1992:2041   */\n  tag_28\n  jump\t// in\ntag_76:\n    /* \"#utility.yul\":1976:2042   */\n  tag_27\n  jump\t// in\ntag_75:\n    /* \"#utility.yul\":1967:2042   */\n  swap1\n  pop\n    /* \"#utility.yul\":2065:2071   */\n  dup3\n    /* \"#utility.yul\":2058:2063   */\n  dup2\n    /* \"#utility.yul\":2051:2072   */\n  mstore\n    /* \"#utility.yul\":2103:2107   */\n  0x20\n    /* \"#utility.yul\":2096:2101   */\n  dup2\n    /* \"#utility.yul\":2092:2108   */\n  add\n    /* \"#utility.yul\":2141:2144   */\n  dup5\n    /* \"#utility.yul\":2132:2138   */\n  dup5\n    /* \"#utility.yul\":2127:2130   */\n  dup5\n    /* \"#utility.yul\":2123:2139   */\n  add\n    /* \"#utility.yul\":2120:2145   */\n  gt\n    /* \"#utility.yul\":2117:2229   */\n  iszero\n  tag_77\n  jumpi\n    /* \"#utility.yul\":2148:2227   */\n  tag_78\n  tag_23\n  jump\t// in\ntag_78:\n    /* \"#utility.yul\":2117:2229   */\ntag_77:\n    /* \"#utility.yul\":2238:2290   */\n  tag_79\n    /* \"#utility.yul\":2283:2289   */\n  dup5\n    /* \"#utility.yul\":2278:2281   */\n  dup3\n    /* \"#utility.yul\":2273:2276   */\n  dup6\n    /* \"#utility.yul\":2238:2290   */\n  tag_29\n  jump\t// in\ntag_79:\n    /* \"#utility.yul\":1957:2296   */\n  pop\n    /* \"#utility.yul\":1862:2296   */\n  swap4\n  swap3\n  pop\n  pop\n  pop\n  jump\t// out\n    /* \"#utility.yul\":2316:2671   */\ntag_31:\n    /* \"#utility.yul\":2383:2388   */\n  0x00\n    /* \"#utility.yul\":2432:2435   */\n  dup3\n    /* \"#utility.yul\":2425:2429   */\n  0x1f\n    /* \"#utility.yul\":2417:2423   */\n  dup4\n    /* \"#utility.yul\":2413:2430   */\n  add\n    /* \"#utility.yul\":2409:2436   */\n  slt\n    /* \"#utility.yul\":2399:2521   */\n  tag_81\n  jumpi\n    /* \"#utility.yul\":2440:2519   */\n  tag_82\n  tag_22\n  jump\t// in\ntag_82:\n    /* \"#utility.yul\":2399:2521   */\ntag_81:\n    /* \"#utility.yul\":2550:2556   */\n  dup2\n    /* \"#utility.yul\":2544:2557   */\n  mload\n    /* \"#utility.yul\":2575:2665   */\n  tag_83\n    /* \"#utility.yul\":2661:2664   */\n  dup5\n    /* \"#utility.yul\":2653:2659   */\n  dup3\n    /* \"#utility.yul\":2646:2650   */\n  0x20\n    /* \"#utility.yul\":2638:2644   */\n  dup7\n    /* \"#utility.yul\":2634:2651   */\n  add\n    /* \"#utility.yul\":2575:2665   */\n  tag_30\n  jump\t// in\ntag_83:\n    /* \"#utility.yul\":2566:2665   */\n  swap2\n  pop\n    /* \"#utility.yul\":2389:2671   */\n  pop\n    /* \"#utility.yul\":2316:2671   */\n  swap3\n  swap2\n  pop\n  pop\n  jump\t// out\n    /* \"#utility.yul\":2677:3859   */\ntag_3:\n    /* \"#utility.yul\":2795:2801   */\n  0x00\n    /* \"#utility.yul\":2803:2809   */\n  dup1\n    /* \"#utility.yul\":2811:2817   */\n  0x00\n    /* \"#utility.yul\":2860:2862   */\n  0x60\n    /* \"#utility.yul\":2848:2857   */\n  dup5\n    /* \"#utility.yul\":2839:2846   */\n  dup7\n    /* \"#utility.yul\":2835:2858   */\n  sub\n    /* \"#utility.yul\":2831:2863   */\n  slt\n    /* \"#utility.yul\":2828:2947   */\n  iszero\n  tag_85\n  jumpi\n    /* \"#utility.yul\":2866:2945   */\n  tag_86\n  tag_20\n  jump\t// in\ntag_86:\n    /* \"#utility.yul\":2828:2947   */\ntag_85:\n    /* \"#utility.yul\":3007:3008   */\n  0x00\n    /* \"#utility.yul\":2996:3005   */\n  dup5\n    /* \"#utility.yul\":2992:3009   */\n  add\n    /* \"#utility.yul\":2986:3010   */\n  mload\n    /* \"#utility.yul\":3037:3055   */\n  0xffffffffffffffff\n    /* \"#utility.yul\":3029:3035   */\n  dup2\n    /* \"#utility.yul\":3026:3056   */\n  gt\n    /* \"#utility.yul\":3023:3140   */\n  iszero\n  tag_87\n  jumpi\n    /* \"#utility.yul\":3059:3138   */\n  tag_88\n  tag_21\n  jump\t// in\ntag_88:\n    /* \"#utility.yul\":3023:3140   */\ntag_87:\n    /* \"#utility.yul\":3164:3238   */\n  tag_89\n    /* \"#utility.yul\":3230:3237   */\n  dup7\n    /* \"#utility.yul\":3221:3227   */\n  dup3\n    /* \"#utility.yul\":3210:3219   */\n  dup8\n    /* \"#utility.yul\":3206:3228   */\n  add\n    /* \"#utility.yul\":3164:3238   */\n  tag_31\n  jump\t// in\ntag_89:\n    /* \"#utility.yul\":3154:3238   */\n  swap4\n  pop\n    /* \"#utility.yul\":2957:3248   */\n  pop\n    /* \"#utility.yul\":3308:3310   */\n  0x20\n    /* \"#utility.yul\":3297:3306   */\n  dup5\n    /* \"#utility.yul\":3293:3311   */\n  add\n    /* \"#utility.yul\":3287:3312   */\n  mload\n    /* \"#utility.yul\":3339:3357   */\n  0xffffffffffffffff\n    /* \"#utility.yul\":3331:3337   */\n  dup2\n    /* \"#utility.yul\":3328:3358   */\n  gt\n    /* \"#utility.yul\":3325:3442   */\n  iszero\n  tag_90\n  jumpi\n    /* \"#utility.yul\":3361:3440   */\n  tag_91\n  tag_21\n  jump\t// in\ntag_91:\n    /* \"#utility.yul\":3325:3442   */\ntag_90:\n    /* \"#utility.yul\":3466:3540   */\n  tag_92\n    /* \"#utility.yul\":3532:3539   */\n  dup7\n    /* \"#utility.yul\":3523:3529   */\n  dup3\n    /* \"#utility.yul\":3512:3521   */\n  dup8\n    /* \"#utility.yul\":3508:3530   */\n  add\n    /* \"#utility.yul\":3466:3540   */\n  tag_31\n  jump\t// in\ntag_92:\n    /* \"#utility.yul\":3456:3540   */\n  swap3\n  pop\n    /* \"#utility.yul\":3258:3550   */\n  pop\n    /* \"#utility.yul\":3610:3612   */\n  0x40\n    /* \"#utility.yul\":3599:3608   */\n  dup5\n    /* \"#utility.yul\":3595:3613   */\n  add\n    /* \"#utility.yul\":3589:3614   */\n  mload\n    /* \"#utility.yul\":3641:3659   */\n  0xffffffffffffffff\n    /* \"#utility.yul\":3633:3639   */\n  dup2\n    /* \"#utility.yul\":3630:3660   */\n  gt\n    /* \"#utility.yul\":3627:3744   */\n  iszero\n  tag_93\n  jumpi\n    /* \"#utility.yul\":3663:3742   */\n  tag_94\n  tag_21\n  jump\t// in\ntag_94:\n    /* \"#utility.yul\":3627:3744   */\ntag_93:\n    /* \"#utility.yul\":3768:3842   */\n  tag_95\n    /* \"#utility.yul\":3834:3841   */\n  dup7\n    /* \"#utility.yul\":3825:3831   */\n  dup3\n    /* \"#utility.yul\":3814:3823   */\n  dup8\n    /* \"#utility.yul\":3810:3832   */\n  add\n    /* \"#utility.yul\":3768:3842   */\n  tag_31\n  jump\t// in\ntag_95:\n    /* \"#utility.yul\":3758:3842   */\n  swap2\n  pop\n    /* \"#utility.yul\":3560:3852   */\n  pop\n    /* \"#utility.yul\":2677:3859   */\n  swap3\n  pop\n  swap3\n  pop\n  swap3\n  jump\t// out\n    /* \"#utility.yul\":3865:3964   */\ntag_32:\n    /* \"#utility.yul\":3917:3923   */\n  0x00\n    /* \"#utility.yul\":3951:3956   */\n  dup2\n    /* \"#utility.yul\":3945:3957   */\n  mload\n    /* \"#utility.yul\":3935:3957   */\n  swap1\n  pop\n    /* \"#utility.yul\":3865:3964   */\n  swap2\n  swap1\n  pop\n  jump\t// out\n    /* \"#utility.yul\":3970:4150   */\ntag_33:\n    /* \"#utility.yul\":4018:4095   */\n  0x4e487b7100000000000000000000000000000000000000000000000000000000\n    /* \"#utility.yul\":4015:4016   */\n  0x00\n    /* \"#utility.yul\":4008:4096   */\n  mstore\n    /* \"#utility.yul\":4115:4119   */\n  0x22\n    /* \"#utility.yul\":4112:4113   */\n  0x04\n    /* \"#utility.yul\":4105:4120   */\n  mstore\n    /* \"#utility.yul\":4139:4143   */\n  0x24\n    /* \"#utility.yul\":4136:4137   */\n  0x00\n    /* \"#utility.yul\":4129:4144   */\n  revert\n    /* \"#utility.yul\":4156:4476   */\ntag_34:\n    /* \"#utility.yul\":4200:4206   */\n  0x00\n    /* \"#utility.yul\":4237:4238   */\n  0x02\n    /* \"#utility.yul\":4231:4235   */\n  dup3\n    /* \"#utility.yul\":4227:4239   */\n  div\n    /* \"#utility.yul\":4217:4239   */\n  swap1\n  pop\n    /* \"#utility.yul\":4284:4285   */\n  0x01\n    /* \"#utility.yul\":4278:4282   */\n  dup3\n    /* \"#utility.yul\":4274:4286   */\n  and\n    /* \"#utility.yul\":4305:4323   */\n  dup1\n    /* \"#utility.yul\":4295:4376   */\n  tag_99\n  jumpi\n    /* \"#utility.yul\":4361:4365   */\n  0x7f\n    /* \"#utility.yul\":4353:4359   */\n  dup3\n    /* \"#utility.yul\":4349:4366   */\n  and\n    /* \"#utility.yul\":4339:4366   */\n  swap2\n  pop\n    /* \"#utility.yul\":4295:4376   */\ntag_99:\n    /* \"#utility.yul\":4423:4425   */\n  0x20\n    /* \"#utility.yul\":4415:4421   */\n  dup3\n    /* \"#utility.yul\":4412:4426   */\n  lt\n    /* \"#utility.yul\":4392:4410   */\n  dup2\n    /* \"#utility.yul\":4389:4427   */\n  sub\n    /* \"#utility.yul\":4386:4470   */\n  tag_100\n  jumpi\n    /* \"#utility.yul\":4442:4460   */\n  tag_101\n  tag_33\n  jump\t// in\ntag_101:\n    /* \"#utility.yul\":4386:4470   */\ntag_100:\n    /* \"#utility.yul\":4207:4476   */\n  pop\n    /* \"#utility.yul\":4156:4476   */\n  swap2\n  swap1\n  pop\n  jump\t// out\n    /* \"#utility.yul\":4482:4623   */\ntag_35:\n    /* \"#utility.yul\":4531:4535   */\n  0x00\n    /* \"#utility.yul\":4554:4557   */\n  dup2\n    /* \"#utility.yul\":4546:4557   */\n  swap1\n  pop\n    /* \"#utility.yul\":4577:4580   */\n  dup2\n    /* \"#utility.yul\":4574:4575   */\n  0x00\n    /* \"#utility.yul\":4567:4581   */\n  mstore\n    /* \"#utility.yul\":4611:4615   */\n  0x20\n    /* \"#utility.yul\":4608:4609   */\n  0x00\n    /* \"#utility.yul\":4598:4616   */\n  keccak256\n    /* \"#utility.yul\":4590:4616   */\n  swap1\n  pop\n    /* \"#utility.yul\":4482:4623   */\n  swap2\n  swap1\n  pop\n  jump\t// out\n    /* \"#utility.yul\":4629:4722   */\ntag_36:\n    /* \"#utility.yul\":4666:4672   */\n  0x00\n    /* \"#utility.yul\":4713:4715   */\n  0x20\n    /* \"#utility.yul\":4708:4710   */\n  0x1f\n    /* \"#utility.yul\":4701:4706   */\n  dup4\n    /* \"#utility.yul\":4697:4711   */\n  add\n    /* \"#utility.yul\":4693:4716   */\n  div\n    /* \"#utility.yul\":4683:4716   */\n  swap1\n  pop\n    /* \"#utility.yul\":4629:4722   */\n  swap2\n  swap1\n  pop\n  jump\t// out\n    /* \"#utility.yul\":4728:4835   */\ntag_37:\n    /* \"#utility.yul\":4772:4780   */\n  0x00\n    /* \"#utility.yul\":4822:4827   */\n  dup3\n    /* \"#utility.yul\":4816:4820   */\n  dup3\n    /* \"#utility.yul\":4812:4828   */\n  shl\n    /* \"#utility.yul\":4791:4828   */\n  swap1\n  pop\n    /* \"#utility.yul\":4728:4835   */\n  swap3\n  swap2\n  pop\n  pop\n  jump\t// out\n    /* \"#utility.yul\":4841:5234   */\ntag_38:\n    /* \"#utility.yul\":4910:4916   */\n  0x00\n    /* \"#utility.yul\":4960:4961   */\n  0x08\n    /* \"#utility.yul\":4948:4958   */\n  dup4\n    /* \"#utility.yul\":4944:4962   */\n  mul\n    /* \"#utility.yul\":4983:5080   */\n  tag_106\n    /* \"#utility.yul\":5013:5079   */\n  0xffffffffffffffffffffffffffffffffffffffffffffffffffffffffffffffff\n    /* \"#utility.yul\":5002:5011   */\n  dup3\n    /* \"#utility.yul\":4983:5080   */\n  tag_37\n  jump\t// in\ntag_106:\n    /* \"#utility.yul\":5101:5140   */\n  tag_107\n    /* \"#utility.yul\":5131:5139   */\n  dup7\n    /* \"#utility.yul\":5120:5129   */\n  dup4\n    /* \"#utility.yul\":5101:5140   */\n  tag_37\n  jump\t// in\ntag_107:\n    /* \"#utility.yul\":5089:5140   */\n  swap6\n  pop\n    /* \"#utility.yul\":5173:5177   */\n  dup1\n    /* \"#utility.yul\":5169:5178   */\n  not\n    /* \"#utility.yul\":5162:5167   */\n  dup5\n    /* \"#utility.yul\":5158:5179   */\n  and\n    /* \"#utility.yul\":5149:5179   */\n  swap4\n  pop\n    /* \"#utility.yul\":5222:5226   */\n  dup1\n    /* \"#utility.yul\":5212:5220   */\n  dup7\n    /* \"#utility.yul\":5208:5227   */\n  and\n    /* \"#utility.yul\":5201:5206   */\n  dup5\n    /* \"#utility.yul\":5198:5228   */\n  or\n    /* \"#utility.yul\":5188:5228   */\n  swap3\n  pop\n    /* \"#utility.yul\":4917:5234   */\n  pop\n  pop\n    /* \"#utility.yul\":4841:5234   */\n  swap4\n  swap3\n  pop\n  pop\n  pop\n  jump\t// out\n    /* \"#utility.yul\":5240:5317   */\ntag_39:\n    /* \"#utility.yul\":5277:5284   */\n  0x00\n    /* \"#utility.yul\":5306:5311   */\n  dup2\n    /* \"#utility.yul\":5295:5311   */\n  swap1\n  pop\n    /* \"#utility.yul\":5240:5317   */\n  swap2\n  swap1\n  pop\n  jump\t// out\n    /* \"#utility.yul\":5323:5383   */\ntag_40:\n    /* \"#utility.yul\":5351:5354   */\n  0x00\n    /* \"#utility.yul\":5372:5377   */\n  dup2\n    /* \"#utility.yul\":5365:5377   */\n  swap1\n  pop\n    /* \"#utility.yul\":5323:5383   */\n  swap2\n  swap1\n  pop\n  jump\t// out\n    /* \"#utility.yul\":5389:5531   */\ntag_41:\n    /* \"#utility.yul\":5439:5448   */\n  0x00\n    /* \"#utility.yul\":5472:5525   */\n  tag_111\n    /* \"#utility.yul\":5490:5524   */\n  tag_112\n    /* \"#utility.yul\":5499:5523   */\n  tag_113\n    /* \"#utility.yul\":5517:5522   */\n  dup5\n    /* \"#utility.yul\":5499:5523   */\n  tag_39\n  jump\t// in\ntag_113:\n    /* \"#utility.yul\":5490:5524   */\n  tag_40\n  jump\t// in\ntag_112:\n    /* \"#utility.yul\":5472:5525   */\n  tag_39\n  jump\t// in\ntag_111:\n    /* \"#utility.yul\":5459:5525   */\n  swap1\n  pop\n    /* \"#utility.yul\":5389:5531   */\n  swap2\n  swap1\n  pop\n  jump\t// out\n    /* \"#utility.yul\":5537:5612   */\ntag_42:\n    /* \"#utility.yul\":5580:5583   */\n  0x00\n    /* \"#utility.yul\":5601:5606   */\n  dup2\n    /* \"#utility.yul\":5594:5606   */\n  swap1\n  pop\n    /* \"#utility.yul\":5537:5612   */\n  swap2\n  swap1\n  pop\n  jump\t// out\n    /* \"#utility.yul\":5618:5887   */\ntag_43:\n    /* \"#utility.yul\":5728:5767   */\n  tag_116\n    /* \"#utility.yul\":5759:5766   */\n  dup4\n    /* \"#utility.yul\":5728:5767   */\n  tag_41\n  jump\t// in\ntag_116:\n    /* \"#utility.yul\":5789:5880   */\n  tag_117\n    /* \"#utility.yul\":5838:5879   */\n  tag_118\n    /* \"#utility.yul\":5862:5878   */\n  dup3\n    /* \"#utility.yul\":5838:5879   */\n  tag_42\n  jump\t// in\ntag_118:\n    /* \"#utility.yul\":5830:5836   */\n  dup5\n    /* \"#utility.yul\":5823:5827   */\n  dup5\n    /* \"#utility.yul\":5817:5828   */\n  sload\n    /* \"#utility.yul\":5789:5880   */\n  tag_38\n  jump\t// in\ntag_117:\n    /* \"#utility.yul\":5783:5787   */\n  dup3\n    /* \"#utility.yul\":5776:5881   */\n  sstore\n    /* \"#utility.yul\":5694:5887   */\n  pop\n    /* \"#utility.yul\":5618:5887   */\n  pop\n  pop\n  pop\n  jump\t// out\n    /* \"#utility.yul\":5893:5966   */\ntag_44:\n    /* \"#utility.yul\":5938:5941   */\n  0x00\n    /* \"#utility.yul\":5893:5966   */\n  swap1\n  jump\t// out\n    /* \"#utility.yul\":5972:6161   */\ntag_45:\n    /* \"#utility.yul\":6049:6081   */\n  tag_121\n  tag_44\n  jump\t// in\ntag_121:\n    /* \"#utility.yul\":6090:6155   */\n  tag_122\n    /* \"#utility.yul\":6148:6154   */\n  dup2\n    /* \"#utility.yul\":6140:6146   */\n  dup5\n    /* \"#utility.yul\":6134:6138   */\n  dup5\n    /* \"#utility.yul\":6090:6155   */\n  tag_43\n  jump\t// in\ntag_122:\n    /* \"#utility.yul\":6025:6161   */\n  pop\n    /* \"#utility.yul\":5972:6161   */\n  pop\n  pop\n  jump\t// out\n    /* \"#utility.yul\":6167:6353   */\ntag_46:\n    /* \"#utility.yul\":6227:6347   */\ntag_124:\n    /* \"#utility.yul\":6244:6247   */\n  dup2\n    /* \"#utility.yul\":6237:6242   */\n  dup2\n    /* \"#utility.yul\":6234:6248   */\n  lt\n    /* \"#utility.yul\":6227:6347   */\n  iszero\n  tag_126\n  jumpi\n    /* \"#utility.yul\":6298:6337   */\n  tag_127\n    /* \"#utility.yul\":6335:6336   */\n  0x00\n    /* \"#utility.yul\":6328:6333   */\n  dup3\n    /* \"#utility.yul\":6298:6337   */\n  tag_45\n  jump\t// in\ntag_127:\n    /* \"#utility.yul\":6271:6272   */\n  0x01\n    /* \"#utility.yul\":6264:6269   */\n  dup2\n    /* \"#utility.yul\":6260:6273   */\n  add\n    /* \"#utility.yul\":6251:6273   */\n  swap1\n  pop\n    /* \"#utility.yul\":6227:6347   */\n  jump(tag_124)\ntag_126:\n    /* \"#utility.yul\":6167:6353   */\n  pop\n  pop\n  jump\t// out\n    /* \"#utility.yul\":6359:6902   */\ntag_47:\n    /* \"#utility.yul\":6460:6462   */\n  0x1f\n    /* \"#utility.yul\":6455:6458   */\n  dup3\n    /* \"#utility.yul\":6452:6463   */\n  gt\n    /* \"#utility.yul\":6449:6895   */\n  iszero\n  tag_129\n  jumpi\n    /* \"#utility.yul\":6494:6532   */\n  tag_130\n    /* \"#utility.yul\":6526:6531   */\n  dup2\n    /* \"#utility.yul\":6494:6532   */\n  tag_35\n  jump\t// in\ntag_130:\n    /* \"#utility.yul\":6578:6607   */\n  tag_131\n    /* \"#utility.yul\":6596:6606   */\n  dup5\n    /* \"#utility.yul\":6578:6607   */\n  tag_36\n  jump\t// in\ntag_131:\n    /* \"#utility.yul\":6568:6576   */\n  dup2\n    /* \"#utility.yul\":6564:6608   */\n  add\n    /* \"#utility.yul\":6761:6763   */\n  0x20\n    /* \"#utility.yul\":6749:6759   */\n  dup6\n    /* \"#utility.yul\":6746:6764   */\n  lt\n    /* \"#utility.yul\":6743:6792   */\n  iszero\n  tag_132\n  jumpi\n    /* \"#utility.yul\":6782:6790   */\n  dup2\n    /* \"#utility.yul\":6767:6790   */\n  swap1\n  pop\n    /* \"#utility.yul\":6743:6792   */\ntag_132:\n    /* \"#utility.yul\":6805:6885   */\n  tag_133\n    /* \"#utility.yul\":6861:6883   */\n  tag_134\n    /* \"#utility.yul\":6879:6882   */\n  dup6\n    /* \"#utility.yul\":6861:6883   */\n  tag_36\n  jump\t// in\ntag_134:\n    /* \"#utility.yul\":6851:6859   */\n  dup4\n    /* \"#utility.yul\":6847:6884   */\n  add\n    /* \"#utility.yul\":6834:6845   */\n  dup3\n    /* \"#utility.yul\":6805:6885   */\n  tag_46\n  jump\t// in\ntag_133:\n    /* \"#utility.yul\":6464:6895   */\n  pop\n  pop\n    /* \"#utility.yul\":6449:6895   */\ntag_129:\n    /* \"#utility.yul\":6359:6902   */\n  pop\n  pop\n  pop\n  jump\t// out\n    /* \"#utility.yul\":6908:7025   */\ntag_48:\n    /* \"#utility.yul\":6962:6970   */\n  0x00\n    /* \"#utility.yul\":7012:7017   */\n  dup3\n    /* \"#utility.yul\":7006:7010   */\n  dup3\n    /* \"#utility.yul\":7002:7018   */\n  shr\n    /* \"#utility.yul\":6981:7018   */\n  swap1\n  pop\n    /* \"#utility.yul\":6908:7025   */\n  swap3\n  swap2\n  pop\n  pop\n  jump\t// out\n    /* \"#utility.yul\":7031:7200   */\ntag_49:\n    /* \"#utility.yul\":7075:7081   */\n  0x00\n    /* \"#utility.yul\":7108:7159   */\n  tag_137\n    /* \"#utility.yul\":7156:7157   */\n  0x00\n    /* \"#utility.yul\":7152:7158   */\n  not\n    /* \"#utility.yul\":7144:7149   */\n  dup5\n    /* \"#utility.yul\":7141:7142   */\n  0x08\n    /* \"#utility.yul\":7137:7150   */\n  mul\n    /* \"#utility.yul\":7108:7159   */\n  tag_48\n  jump\t// in\ntag_137:\n    /* \"#utility.yul\":7104:7160   */\n  not\n    /* \"#utility.yul\":7189:7193   */\n  dup1\n    /* \"#utility.yul\":7183:7187   */\n  dup4\n    /* \"#utility.yul\":7179:7194   */\n  and\n    /* \"#utility.yul\":7169:7194   */\n  swap2\n  pop\n    /* \"#utility.yul\":7082:7200   */\n  pop\n    /* \"#utility.yul\":7031:7200   */\n  swap3\n  swap2\n  pop\n  pop\n  jump\t// out\n    /* \"#utility.yul\":7205:7500   */\ntag_50:\n    /* \"#utility.yul\":7281:7285   */\n  0x00\n    /* \"#utility.yul\":7427:7456   */\n  tag_139\n    /* \"#utility.yul\":7452:7455   */\n  dup4\n    /* \"#utility.yul\":7446:7450   */\n  dup4\n    /* \"#utility.yul\":7427:7456   */\n  tag_49\n  jump\t// in\ntag_139:\n    /* \"#utility.yul\":7419:7456   */\n  swap2\n  pop\n    /* \"#utility.yul\":7489:7492   */\n  dup3\n    /* \"#utility.yul\":7486:7487   */\n  0x02\n    /* \"#utility.yul\":7482:7493   */\n  mul\n    /* \"#utility.yul\":7476:7480   */\n  dup3\n    /* \"#utility.yul\":7473:7494   */\n  or\n    /* \"#utility.yul\":7465:7494   */\n  swap1\n  pop\n    /* \"#utility.yul\":7205:7500   */\n  swap3\n  swap2\n  pop\n  pop\n  jump\t// out\n    /* \"#utility.yul\":7505:8900   */\ntag_13:\n    /* \"#utility.yul\":7622:7659   */\n  tag_141\n    /* \"#utility.yul\":7655:7658   */\n  dup3\n    /* \"#utility.yul\":7622:7659   */\n  tag_32\n  jump\t// in\ntag_141:\n    /* \"#utility.yul\":7724:7742   */\n  0xffffffffffffffff\n    /* \"#utility.yul\":7716:7722   */\n  dup2\n    /* \"#utility.yul\":7713:7743   */\n  gt\n    /* \"#utility.yul\":7710:7766   */\n  iszero\n  tag_142\n  jumpi\n    /* \"#utility.yul\":7746:7764   */\n  tag_143\n  tag_25\n  jump\t// in\ntag_143:\n    /* \"#utility.yul\":7710:7766   */\ntag_142:\n    /* \"#utility.yul\":7790:7828   */\n  tag_144\n    /* \"#utility.yul\":7822:7826   */\n  dup3\n    /* \"#utility.yul\":7816:7827   */\n  sload\n    /* \"#utility.yul\":7790:7828   */\n  tag_34\n  jump\t// in\ntag_144:\n    /* \"#utility.yul\":7875:7942   */\n  tag_145\n    /* \"#utility.yul\":7935:7941   */\n  dup3\n    /* \"#utility.yul\":7927:7933   */\n  dup3\n    /* \"#utility.yul\":7921:7925   */\n  dup6\n    /* \"#utility.yul\":7875:7942   */\n  tag_47\n  jump\t// in\ntag_145:\n    /* \"#utility.yul\":7969:7970   */\n  0x00\n    /* \"#utility.yul\":7993:7997   */\n  0x20\n    /* \"#utility.yul\":7980:7997   */\n  swap1\n  pop\n    /* \"#utility.yul\":8025:8027   */\n  0x1f\n    /* \"#utility.yul\":8017:8023   */\n  dup4\n    /* \"#utility.yul\":8014:8028   */\n  gt\n    /* \"#utility.yul\":8042:8043   */\n  0x01\n    /* \"#utility.yul\":8037:8655   */\n  dup2\n  eq\n  tag_147\n  jumpi\n    /* \"#utility.yul\":8699:8700   */\n  0x00\n    /* \"#utility.yul\":8716:8722   */\n  dup5\n    /* \"#utility.yul\":8713:8790   */\n  iszero\n  tag_148\n  jumpi\n    /* \"#utility.yul\":8765:8774   */\n  dup3\n    /* \"#utility.yul\":8760:8763   */\n  dup8\n    /* \"#utility.yul\":8756:8775   */\n  add\n    /* \"#utility.yul\":8750:8776   */\n  mload\n    /* \"#utility.yul\":8741:8776   */\n  swap1\n  pop\n    /* \"#utility.yul\":8713:8790   */\ntag_148:\n    /* \"#utility.yul\":8816:8883   */\n  tag_149\n    /* \"#utility.yul\":8876:8882   */\n  dup6\n    /* \"#utility.yul\":8869:8874   */\n  dup3\n    /* \"#utility.yul\":8816:8883   */\n  tag_50\n  jump\t// in\ntag_149:\n    /* \"#utility.yul\":8810:8814   */\n  dup7\n    /* \"#utility.yul\":8803:8884   */\n  sstore\n    /* \"#utility.yul\":8672:8894   */\n  pop\n    /* \"#utility.yul\":8007:8894   */\n  jump(tag_146)\n    /* \"#utility.yul\":8037:8655   */\ntag_147:\n    /* \"#utility.yul\":8089:8093   */\n  0x1f\n    /* \"#utility.yul\":8085:8094   */\n  not\n    /* \"#utility.yul\":8077:8083   */\n  dup5\n    /* \"#utility.yul\":8073:8095   */\n  and\n    /* \"#utility.yul\":8123:8160   */\n  tag_150\n    /* \"#utility.yul\":8155:8159   */\n  dup7\n    /* \"#utility.yul\":8123:8160   */\n  tag_35\n  jump\t// in\ntag_150:\n    /* \"#utility.yul\":8182:8183   */\n  0x00\n    /* \"#utility.yul\":8196:8404   */\ntag_151:\n    /* \"#utility.yul\":8210:8217   */\n  dup3\n    /* \"#utility.yul\":8207:8208   */\n  dup2\n    /* \"#utility.yul\":8204:8218   */\n  lt\n    /* \"#utility.yul\":8196:8404   */\n  iszero\n  tag_153\n  jumpi\n    /* \"#utility.yul\":8289:8298   */\n  dup5\n    /* \"#utility.yul\":8284:8287   */\n  dup10\n    /* \"#utility.yul\":8280:8299   */\n  add\n    /* \"#utility.yul\":8274:8300   */\n  mload\n    /* \"#utility.yul\":8266:8272   */\n  dup3\n    /* \"#utility.yul\":8259:8301   */\n  sstore\n    /* \"#utility.yul\":8340:8341   */\n  0x01\n    /* \"#utility.yul\":8332:8338   */\n  dup3\n    /* \"#utility.yul\":8328:8342   */\n  add\n    /* \"#utility.yul\":8318:8342   */\n  swap2\n  pop\n    /* \"#utility.yul\":8387:8389   */\n  0x20\n    /* \"#utility.yul\":8376:8385   */\n  dup6\n    /* \"#utility.yul\":8372:8390   */\n  add\n    /* \"#utility.yul\":8359:8390   */\n  swap5\n  pop\n    /* \"#utility.yul\":8233:8237   */\n  0x20\n    /* \"#utility.yul\":8230:8231   */\n  dup2\n    /* \"#utility.yul\":8226:8238   */\n  add\n    /* \"#utility.yul\":8221:8238   */\n  swap1\n  pop\n    /* \"#utility.yul\":8196:8404   */\n  jump(tag_151)\ntag_153:\n    /* \"#utility.yul\":8432:8438   */\n  dup7\n    /* \"#utility.yul\":8423:8430   */\n  dup4\n    /* \"#utility.yul\":8420:8439   */\n  lt\n    /* \"#utility.yul\":8417:8596   */\n  iszero\n  tag_154\n  jumpi\n    /* \"#utility.yul\":8490:8499   */\n  dup5\n    /* \"#utility.yul\":8485:8488   */\n  dup10\n    /* \"#utility.yul\":8481:8500   */\n  add\n    /* \"#utility.yul\":8475:8501   */\n  mload\n    /* \"#utility.yul\":8533:8581   */\n  tag_155\n    /* \"#utility.yul\":8575:8579   */\n  0x1f\n    /* \"#utility.yul\":8567:8573   */\n  dup10\n    /* \"#utility.yul\":8563:8580   */\n  and\n    /* \"#utility.yul\":8552:8561   */\n  dup3\n    /* \"#utility.yul\":8533:8581   */\n  tag_49\n  jump\t// in\ntag_155:\n    /* \"#utility.yul\":8525:8531   */\n  dup4\n    /* \"#utility.yul\":8518:8582   */\n  sstore\n    /* \"#utility.yul\":8440:8596   */\n  pop\n    /* \"#utility.yul\":8417:8596   */\ntag_154:\n    /* \"#utility.yul\":8642:8643   */\n  0x01\n    /* \"#utility.yul\":8638:8639   */\n  0x02\n    /* \"#utility.yul\":8630:8636   */\n  dup9\n    /* \"#utility.yul\":8626:8640   */\n  mul\n    /* \"#utility.yul\":8622:8644   */\n  add\n    /* \"#utility.yul\":8616:8620   */\n  dup9\n    /* \"#utility.yul\":8609:8645   */\n  sstore\n    /* \"#utility.yul\":8044:8655   */\n  pop\n  pop\n  pop\n    /* \"#utility.yul\":8007:8894   */\ntag_146:\n  pop\n    /* \"#utility.yul\":7597:8900   */\n  pop\n  pop\n  pop\n    /* \"#utility.yul\":7505:8900   */\n  pop\n  pop\n  jump\t// out\n    /* \"v2/contracts/SoulSocietySBT.sol\":725:12138  contract SoulSocietySBT is ISoulSocietySBT, ISoulSocietySBTMetadata, ISoulSocietySBTErrors , IERC721, ERC165, Ownable {... */\ntag_16:\n  dataSize(sub_0)\n  dup1\n  dataOffset(sub_0)\n  0x00\n  codecopy\n  0x00\n  return\nstop\n\nsub_0: assembly {\n        /* \"v2/contracts/SoulSocietySBT.sol\":725:12138  contract SoulSocietySBT is ISoulSocietySBT, ISoulSocietySBTMetadata, ISoulSocietySBTErrors , IERC721, ERC165, Ownable {... */\n      mstore(0x40, 0x80)\n      callvalue\n      dup1\n      iszero\n      tag_1\n      jumpi\n      0x00\n      dup1\n      revert\n    tag_1:\n      pop\n      jumpi(tag_2, lt(calldatasize, 0x04))\n      shr(0xe0, calldataload(0x00))\n      dup1\n      0x715018a6\n      gt\n      tag_30\n      jumpi\n      dup1\n      0xbe37e907\n      gt\n      tag_31\n      jumpi\n      dup1\n      0xe0df5b6f\n      gt\n      tag_32\n      jumpi\n      dup1\n      0xe0df5b6f\n      eq\n      tag_26\n      jumpi\n      dup1\n      0xe1604b70\n      eq\n      tag_27\n      jumpi\n      dup1\n      0xe985e9c5\n      eq\n      tag_28\n      jumpi\n      dup1\n      0xf2fde38b\n      eq\n      tag_29\n      jumpi\n      jump(tag_2)\n    tag_32:\n      dup1\n      0xbe37e907\n      eq\n      tag_23\n      jumpi\n      dup1\n      0xc87b56dd\n      eq\n      tag_24\n      jumpi\n      dup1\n      0xce35de95\n      eq\n      tag_25\n      jumpi\n      jump(tag_2)\n    tag_31:\n      dup1\n      0x8da5cb5b\n      gt\n      tag_33\n      jumpi\n      dup1\n      0x8da5cb5b\n      eq\n      tag_19\n      jumpi\n      dup1\n      0x95d89b41\n      eq\n      tag_20\n      jumpi\n      dup1\n      0xa22cb465\n      eq\n      tag_21\n      jumpi\n      dup1\n      0xb88d4fde\n      eq\n      tag_22\n      jumpi\n      jump(tag_2)\n    tag_33:\n      dup1\n      0x715018a6\n      eq\n      tag_16\n      jumpi\n      dup1\n      0x76aed2e1\n      eq\n      tag_17\n      jumpi\n      dup1\n      0x8a7f997c\n      eq\n      tag_18\n      jumpi\n      jump(tag_2)\n    tag_30:\n      dup1\n      0x23b872dd\n      gt\n      tag_34\n      jumpi\n      dup1\n      0x42842e0e\n      gt\n      tag_35\n      jumpi\n      dup1\n      0x42842e0e\n      eq\n      tag_12\n      jumpi\n      dup1\n      0x51c18e0c\n      eq\n      tag_13\n      jumpi\n      dup1\n      0x6352211e\n      eq\n      tag_14\n      jumpi\n      dup1\n      0x70a08231\n      eq\n      tag_15\n      jumpi\n      jump(tag_2)\n    tag_35:\n      dup1\n      0x23b872dd\n      eq\n      tag_9\n      jumpi\n      dup1\n      0x2f745c59\n      eq\n      tag_10\n      jumpi\n      dup1\n      0x40c10f19\n      eq\n      tag_11\n      jumpi\n      jump(tag_2)\n    tag_34:\n      dup1\n      0x01ffc9a7\n      eq\n      tag_3\n      jumpi\n      dup1\n      0x06fdde03\n      eq\n      tag_4\n      jumpi\n      dup1\n      0x081812fc\n      eq\n      tag_5\n      jumpi\n      dup1\n      0x095ea7b3\n      eq\n      tag_6\n      jumpi\n      dup1\n      0x18160ddd\n      eq\n      tag_7\n      jumpi\n      dup1\n      0x1f8eb677\n      eq\n      tag_8\n      jumpi\n    tag_2:\n      0x00\n      dup1\n      revert\n        /* \"v2/contracts/SoulSocietySBT.sol\":2166:2403  function supportsInterface(bytes4 interfaceId) public view virtual override(ERC165, IERC165) returns (bool) {... */\n    tag_3:\n      tag_36\n      0x04\n      dup1\n      calldatasize\n      sub\n      dup2\n      add\n      swap1\n      tag_37\n      swap2\n      swap1\n      tag_38\n      jump\t// in\n    tag_37:\n      tag_39\n      jump\t// in\n    tag_36:\n      mload(0x40)\n      tag_40\n      swap2\n      swap1\n      tag_41\n      jump\t// in\n    tag_40:\n      mload(0x40)\n      dup1\n      swap2\n      sub\n      swap1\n      return\n        /* \"v2/contracts/SoulSocietySBT.sol\":2662:2753  function name() external view virtual returns (string memory) {... */\n    tag_4:\n      tag_42\n      tag_43\n      jump\t// in\n    tag_42:\n      mload(0x40)\n      tag_44\n      swap2\n      swap1\n      tag_45\n      jump\t// in\n    tag_44:\n      mload(0x40)\n      dup1\n      swap2\n      sub\n      swap1\n      return\n        /* \"v2/contracts/SoulSocietySBT.sol\":6739:6871  function getApproved(uint256 ) external pure returns (address )  {... */\n    tag_5:\n      tag_46\n      0x04\n      dup1\n      calldatasize\n      sub\n      dup2\n      add\n      swap1\n      tag_47\n      swap2\n      swap1\n      tag_48\n      jump\t// in\n    tag_47:\n      tag_49\n      jump\t// in\n    tag_46:\n      mload(0x40)\n      tag_50\n      swap2\n      swap1\n      tag_51\n      jump\t// in\n    tag_50:\n      mload(0x40)\n      dup1\n      swap2\n      sub\n      swap1\n      return\n        /* \"v2/contracts/SoulSocietySBT.sol\":6487:6598  function approve(address , uint256 ) external pure{... */\n    tag_6:\n      tag_52\n      0x04\n      dup1\n      calldatasize\n      sub\n      dup2\n      add\n      swap1\n      tag_53\n      swap2\n      swap1\n      tag_54\n      jump\t// in\n    tag_53:\n      tag_55\n      jump\t// in\n    tag_52:\n      stop\n        /* \"v2/contracts/SoulSocietySBT.sol\":3612:3701  function totalSupply() public view  returns (uint256) {... */\n    tag_7:\n      tag_56\n      tag_57\n      jump\t// in\n    tag_56:\n      mload(0x40)\n      tag_58\n      swap2\n      swap1\n      tag_59\n      jump\t// in\n    tag_58:\n      mload(0x40)\n      dup1\n      swap2\n      sub\n      swap1\n      return\n        /* \"v2/contracts/SoulSocietySBT.sol\":4362:4465  function getProtected(address to_) public view returns(bool) {... */\n    tag_8:\n      tag_60\n      0x04\n      dup1\n      calldatasize\n      sub\n      dup2\n      add\n      swap1\n      tag_61\n      swap2\n      swap1\n      tag_62\n      jump\t// in\n    tag_61:\n      tag_63\n      jump\t// in\n    tag_60:\n      mload(0x40)\n      tag_64\n      swap2\n      swap1\n      tag_41\n      jump\t// in\n    tag_64:\n      mload(0x40)\n      dup1\n      swap2\n      sub\n      swap1\n      return\n        /* \"v2/contracts/SoulSocietySBT.sol\":6349:6481  function transferFrom(address , address , uint256 ) external pure {... */\n    tag_9:\n      tag_65\n      0x04\n      dup1\n      calldatasize\n      sub\n      dup2\n      add\n      swap1\n      tag_66\n      swap2\n      swap1\n      tag_67\n      jump\t// in\n    tag_66:\n      tag_68\n      jump\t// in\n    tag_65:\n      stop\n        /* \"v2/contracts/SoulSocietySBT.sol\":10417:10883  function tokenOfOwnerByIndex(address owner_, uint256 index_) public view returns (uint256) {... */\n    tag_10:\n      tag_69\n      0x04\n      dup1\n      calldatasize\n      sub\n      dup2\n      add\n      swap1\n      tag_70\n      swap2\n      swap1\n      tag_54\n      jump\t// in\n    tag_70:\n      tag_71\n      jump\t// in\n    tag_69:\n      mload(0x40)\n      tag_72\n      swap2\n      swap1\n      tag_59\n      jump\t// in\n    tag_72:\n      mload(0x40)\n      dup1\n      swap2\n      sub\n      swap1\n      return\n        /* \"v2/contracts/SoulSocietySBT.sol\":7216:7355  function mint(address to_, uint256 tokenType_) public virtual onlyOwner returns(uint256) {... */\n    tag_11:\n      tag_73\n      0x04\n      dup1\n      calldatasize\n      sub\n      dup2\n      add\n      swap1\n      tag_74\n      swap2\n      swap1\n      tag_54\n      jump\t// in\n    tag_74:\n      tag_75\n      jump\t// in\n    tag_73:\n      mload(0x40)\n      tag_76\n      swap2\n      swap1\n      tag_59\n      jump\t// in\n    tag_76:\n      mload(0x40)\n      dup1\n      swap2\n      sub\n      swap1\n      return\n        /* \"v2/contracts/SoulSocietySBT.sol\":6203:6343  function safeTransferFrom(address , address , uint256 ) external pure {... */\n    tag_12:\n      tag_77\n      0x04\n      dup1\n      calldatasize\n      sub\n      dup2\n      add\n      swap1\n      tag_78\n      swap2\n      swap1\n      tag_67\n      jump\t// in\n    tag_78:\n      tag_79\n      jump\t// in\n    tag_77:\n      stop\n        /* \"v2/contracts/SoulSocietySBT.sol\":8755:8986  function getGrowth(uint256 tokenId_) public view  returns (uint256) {... */\n    tag_13:\n      tag_80\n      0x04\n      dup1\n      calldatasize\n      sub\n      dup2\n      add\n      swap1\n      tag_81\n      swap2\n      swap1\n      tag_48\n      jump\t// in\n    tag_81:\n      tag_82\n      jump\t// in\n    tag_80:\n      mload(0x40)\n      tag_83\n      swap2\n      swap1\n      tag_59\n      jump\t// in\n    tag_83:\n      mload(0x40)\n      dup1\n      swap2\n      sub\n      swap1\n      return\n        /* \"v2/contracts/SoulSocietySBT.sol\":5389:5509  function ownerOf(uint256 tokenId_) external  view  override  returns (address) {... */\n    tag_14:\n      tag_84\n      0x04\n      dup1\n      calldatasize\n      sub\n      dup2\n      add\n      swap1\n      tag_85\n      swap2\n      swap1\n      tag_48\n      jump\t// in\n    tag_85:\n      tag_86\n      jump\t// in\n    tag_84:\n      mload(0x40)\n      tag_87\n      swap2\n      swap1\n      tag_51\n      jump\t// in\n    tag_87:\n      mload(0x40)\n      dup1\n      swap2\n      sub\n      swap1\n      return\n        /* \"v2/contracts/SoulSocietySBT.sol\":5734:5845  function balanceOf(address owner_) external  view  returns (uint256) {... */\n    tag_15:\n      tag_88\n      0x04\n      dup1\n      calldatasize\n      sub\n      dup2\n      add\n      swap1\n      tag_89\n      swap2\n      swap1\n      tag_62\n      jump\t// in\n    tag_89:\n      tag_90\n      jump\t// in\n    tag_88:\n      mload(0x40)\n      tag_91\n      swap2\n      swap1\n      tag_59\n      jump\t// in\n    tag_91:\n      mload(0x40)\n      dup1\n      swap2\n      sub\n      swap1\n      return\n        /* \"@openzeppelin/contracts/access/Ownable.sol\":1824:1925  function renounceOwnership() public virtual onlyOwner {... */\n    tag_16:\n      tag_92\n      tag_93\n      jump\t// in\n    tag_92:\n      stop\n        /* \"v2/contracts/SoulSocietySBT.sol\":3708:3864  function getTokenType(uint256 tokenId_) public view returns (uint256) {... */\n    tag_17:\n      tag_94\n      0x04\n      dup1\n      calldatasize\n      sub\n      dup2\n      add\n      swap1\n      tag_95\n      swap2\n      swap1\n      tag_48\n      jump\t// in\n    tag_95:\n      tag_96\n      jump\t// in\n    tag_94:\n      mload(0x40)\n      tag_97\n      swap2\n      swap1\n      tag_59\n      jump\t// in\n    tag_97:\n      mload(0x40)\n      dup1\n      swap2\n      sub\n      swap1\n      return\n        /* \"v2/contracts/SoulSocietySBT.sol\":4098:4356  function setProtected(address to_, bool isProtected_) public  returns (bool) {... */\n    tag_18:\n      tag_98\n      0x04\n      dup1\n      calldatasize\n      sub\n      dup2\n      add\n      swap1\n      tag_99\n      swap2\n      swap1\n      tag_100\n      jump\t// in\n    tag_99:\n      tag_101\n      jump\t// in\n    tag_98:\n      mload(0x40)\n      tag_102\n      swap2\n      swap1\n      tag_41\n      jump\t// in\n    tag_102:\n      mload(0x40)\n      dup1\n      swap2\n      sub\n      swap1\n      return\n        /* \"@openzeppelin/contracts/access/Ownable.sol\":1201:1286  function owner() public view virtual returns (address) {... */\n    tag_19:\n      tag_103\n      tag_104\n      jump\t// in\n    tag_103:\n      mload(0x40)\n      tag_105\n      swap2\n      swap1\n      tag_51\n      jump\t// in\n    tag_105:\n      mload(0x40)\n      dup1\n      swap2\n      sub\n      swap1\n      return\n        /* \"v2/contracts/SoulSocietySBT.sol\":2779:2874  function symbol() external view virtual returns (string memory) {... */\n    tag_20:\n      tag_106\n      tag_107\n      jump\t// in\n    tag_106:\n      mload(0x40)\n      tag_108\n      swap2\n      swap1\n      tag_45\n      jump\t// in\n    tag_108:\n      mload(0x40)\n      dup1\n      swap2\n      sub\n      swap1\n      return\n        /* \"v2/contracts/SoulSocietySBT.sol\":6604:6733  function setApprovalForAll(address , bool ) external pure {... */\n    tag_21:\n      tag_109\n      0x04\n      dup1\n      calldatasize\n      sub\n      dup2\n      add\n      swap1\n      tag_110\n      swap2\n      swap1\n      tag_100\n      jump\t// in\n    tag_110:\n      tag_111\n      jump\t// in\n    tag_109:\n      stop\n        /* \"v2/contracts/SoulSocietySBT.sol\":6032:6197  function safeTransferFrom(address , address , uint256 , bytes calldata) external pure {... */\n    tag_22:\n      tag_112\n      0x04\n      dup1\n      calldatasize\n      sub\n      dup2\n      add\n      swap1\n      tag_113\n      swap2\n      swap1\n      tag_114\n      jump\t// in\n    tag_113:\n      tag_115\n      jump\t// in\n    tag_112:\n      stop\n        /* \"v2/contracts/SoulSocietySBT.sol\":9780:9908  function growUp(address to_, uint256 tokenId_) public  onlyOwner returns(uint256) {... */\n    tag_23:\n      tag_116\n      0x04\n      dup1\n      calldatasize\n      sub\n      dup2\n      add\n      swap1\n      tag_117\n      swap2\n      swap1\n      tag_54\n      jump\t// in\n    tag_117:\n      tag_118\n      jump\t// in\n    tag_116:\n      mload(0x40)\n      tag_119\n      swap2\n      swap1\n      tag_59\n      jump\t// in\n    tag_119:\n      mload(0x40)\n      dup1\n      swap2\n      sub\n      swap1\n      return\n        /* \"v2/contracts/SoulSocietySBT.sol\":2975:3364  function tokenURI(uint256 tokenId_) external view virtual  returns (string memory) {... */\n    tag_24:\n      tag_120\n      0x04\n      dup1\n      calldatasize\n      sub\n      dup2\n      add\n      swap1\n      tag_121\n      swap2\n      swap1\n      tag_48\n      jump\t// in\n    tag_121:\n      tag_122\n      jump\t// in\n    tag_120:\n      mload(0x40)\n      tag_123\n      swap2\n      swap1\n      tag_45\n      jump\t// in\n    tag_123:\n      mload(0x40)\n      dup1\n      swap2\n      sub\n      swap1\n      return\n        /* \"v2/contracts/SoulSocietySBT.sol\":4641:4745  function isProtected(address to_) external view returns (bool) {... */\n    tag_25:\n      tag_124\n      0x04\n      dup1\n      calldatasize\n      sub\n      dup2\n      add\n      swap1\n      tag_125\n      swap2\n      swap1\n      tag_62\n      jump\t// in\n    tag_125:\n      tag_126\n      jump\t// in\n    tag_124:\n      mload(0x40)\n      tag_127\n      swap2\n      swap1\n      tag_41\n      jump\t// in\n    tag_127:\n      mload(0x40)\n      dup1\n      swap2\n      sub\n      swap1\n      return\n        /* \"v2/contracts/SoulSocietySBT.sol\":3371:3514  function setTokenURI(string memory tokenURI_) external onlyOwner returns(string memory) {... */\n    tag_26:\n      tag_128\n      0x04\n      dup1\n      calldatasize\n      sub\n      dup2\n      add\n      swap1\n      tag_129\n      swap2\n      swap1\n      tag_130\n      jump\t// in\n    tag_129:\n      tag_131\n      jump\t// in\n    tag_128:\n      mload(0x40)\n      tag_132\n      swap2\n      swap1\n      tag_45\n      jump\t// in\n    tag_132:\n      mload(0x40)\n      dup1\n      swap2\n      sub\n      swap1\n      return\n        /* \"v2/contracts/SoulSocietySBT.sol\":3520:3606  function totalUser() public view  returns (uint256) {... */\n    tag_27:\n      tag_133\n      tag_134\n      jump\t// in\n    tag_133:\n      mload(0x40)\n      tag_135\n      swap2\n      swap1\n      tag_59\n      jump\t// in\n    tag_135:\n      mload(0x40)\n      dup1\n      swap2\n      sub\n      swap1\n      return\n        /* \"v2/contracts/SoulSocietySBT.sol\":6877:7020  function isApprovedForAll(address , address ) public pure returns (bool) {... */\n    tag_28:\n      tag_136\n      0x04\n      dup1\n      calldatasize\n      sub\n      dup2\n      add\n      swap1\n      tag_137\n      swap2\n      swap1\n      tag_138\n      jump\t// in\n    tag_137:\n      tag_139\n      jump\t// in\n    tag_136:\n      mload(0x40)\n      tag_140\n      swap2\n      swap1\n      tag_41\n      jump\t// in\n    tag_140:\n      mload(0x40)\n      dup1\n      swap2\n      sub\n      swap1\n      return\n        /* \"@openzeppelin/contracts/access/Ownable.sol\":2074:2272  function transferOwnership(address newOwner) public virtual onlyOwner {... */\n    tag_29:\n      tag_141\n      0x04\n      dup1\n      calldatasize\n      sub\n      dup2\n      add\n      swap1\n      tag_142\n      swap2\n      swap1\n      tag_62\n      jump\t// in\n    tag_142:\n      tag_143\n      jump\t// in\n    tag_141:\n      stop\n        /* \"v2/contracts/SoulSocietySBT.sol\":2166:2403  function supportsInterface(bytes4 interfaceId) public view virtual override(ERC165, IERC165) returns (bool) {... */\n    tag_39:\n        /* \"v2/contracts/SoulSocietySBT.sol\":2268:2272  bool */\n      0x00\n        /* \"v2/contracts/SoulSocietySBT.sol\":2319:2344  type(IERC721).interfaceId */\n      0x80ac58cd00000000000000000000000000000000000000000000000000000000\n        /* \"v2/contracts/SoulSocietySBT.sol\":2304:2344  interfaceId == type(IERC721).interfaceId */\n      not(0xffffffffffffffffffffffffffffffffffffffffffffffffffffffff)\n      and\n        /* \"v2/contracts/SoulSocietySBT.sol\":2304:2315  interfaceId */\n      dup3\n        /* \"v2/contracts/SoulSocietySBT.sol\":2304:2344  interfaceId == type(IERC721).interfaceId */\n      not(0xffffffffffffffffffffffffffffffffffffffffffffffffffffffff)\n      and\n      eq\n        /* \"v2/contracts/SoulSocietySBT.sol\":2304:2396  interfaceId == type(IERC721).interfaceId ||... */\n      dup1\n      tag_145\n      jumpi\n      pop\n        /* \"v2/contracts/SoulSocietySBT.sol\":2360:2396  super.supportsInterface(interfaceId) */\n      tag_146\n        /* \"v2/contracts/SoulSocietySBT.sol\":2384:2395  interfaceId */\n      dup3\n        /* \"v2/contracts/SoulSocietySBT.sol\":2360:2383  super.supportsInterface */\n      tag_147\n        /* \"v2/contracts/SoulSocietySBT.sol\":2360:2396  super.supportsInterface(interfaceId) */\n      jump\t// in\n    tag_146:\n        /* \"v2/contracts/SoulSocietySBT.sol\":2304:2396  interfaceId == type(IERC721).interfaceId ||... */\n    tag_145:\n        /* \"v2/contracts/SoulSocietySBT.sol\":2284:2396  return ... */\n      swap1\n      pop\n        /* \"v2/contracts/SoulSocietySBT.sol\":2166:2403  function supportsInterface(bytes4 interfaceId) public view virtual override(ERC165, IERC165) returns (bool) {... */\n      swap2\n      swap1\n      pop\n      jump\t// out\n        /* \"v2/contracts/SoulSocietySBT.sol\":2662:2753  function name() external view virtual returns (string memory) {... */\n    tag_43:\n        /* \"v2/contracts/SoulSocietySBT.sol\":2709:2722  string memory */\n      0x60\n        /* \"v2/contracts/SoulSocietySBT.sol\":2741:2746  _name */\n      0x01\n        /* \"v2/contracts/SoulSocietySBT.sol\":2734:2746  return _name */\n      dup1\n      sload\n      tag_149\n      swap1\n      tag_150\n      jump\t// in\n    tag_149:\n      dup1\n      0x1f\n      add\n      0x20\n      dup1\n      swap2\n      div\n      mul\n      0x20\n      add\n      mload(0x40)\n      swap1\n      dup2\n      add\n      0x40\n      mstore\n      dup1\n      swap3\n      swap2\n      swap1\n      dup2\n      dup2\n      mstore\n      0x20\n      add\n      dup3\n      dup1\n      sload\n      tag_151\n      swap1\n      tag_150\n      jump\t// in\n    tag_151:\n      dup1\n      iszero\n      tag_152\n      jumpi\n      dup1\n      0x1f\n      lt\n      tag_153\n      jumpi\n      0x0100\n      dup1\n      dup4\n      sload\n      div\n      mul\n      dup4\n      mstore\n      swap2\n      0x20\n      add\n      swap2\n      jump(tag_152)\n    tag_153:\n      dup3\n      add\n      swap2\n      swap1\n      0x00\n      mstore\n      keccak256(0x00, 0x20)\n      swap1\n    tag_154:\n      dup2\n      sload\n      dup2\n      mstore\n      swap1\n      0x01\n      add\n      swap1\n      0x20\n      add\n      dup1\n      dup4\n      gt\n      tag_154\n      jumpi\n      dup3\n      swap1\n      sub\n      0x1f\n      and\n      dup3\n      add\n      swap2\n    tag_152:\n      pop\n      pop\n      pop\n      pop\n      pop\n      swap1\n      pop\n        /* \"v2/contracts/SoulSocietySBT.sol\":2662:2753  function name() external view virtual returns (string memory) {... */\n      swap1\n      jump\t// out\n        /* \"v2/contracts/SoulSocietySBT.sol\":6739:6871  function getApproved(uint256 ) external pure returns (address )  {... */\n    tag_49:\n        /* \"v2/contracts/SoulSocietySBT.sol\":6793:6800  address */\n      0x00\n        /* \"v2/contracts/SoulSocietySBT.sol\":6821:6862  SoulSocietySBTNotSupported(\"getApproved\") */\n      mload(0x40)\n      0x9fc6e75800000000000000000000000000000000000000000000000000000000\n      dup2\n      mstore\n      0x04\n      add\n      tag_156\n      swap1\n      tag_157\n      jump\t// in\n    tag_156:\n      mload(0x40)\n      dup1\n      swap2\n      sub\n      swap1\n      revert\n        /* \"v2/contracts/SoulSocietySBT.sol\":6487:6598  function approve(address , uint256 ) external pure{... */\n    tag_55:\n        /* \"v2/contracts/SoulSocietySBT.sol\":6554:6591  SoulSocietySBTNotSupported(\"approve\") */\n      mload(0x40)\n      0x9fc6e75800000000000000000000000000000000000000000000000000000000\n      dup2\n      mstore\n      0x04\n      add\n      tag_159\n      swap1\n      tag_160\n      jump\t// in\n    tag_159:\n      mload(0x40)\n      dup1\n      swap2\n      sub\n      swap1\n      revert\n        /* \"v2/contracts/SoulSocietySBT.sol\":3612:3701  function totalSupply() public view  returns (uint256) {... */\n    tag_57:\n        /* \"v2/contracts/SoulSocietySBT.sol\":3657:3664  uint256 */\n      0x00\n        /* \"v2/contracts/SoulSocietySBT.sol\":3683:3694  _totalCount */\n      sload(0x05)\n        /* \"v2/contracts/SoulSocietySBT.sol\":3676:3694  return _totalCount */\n      swap1\n      pop\n        /* \"v2/contracts/SoulSocietySBT.sol\":3612:3701  function totalSupply() public view  returns (uint256) {... */\n      swap1\n      jump\t// out\n        /* \"v2/contracts/SoulSocietySBT.sol\":4362:4465  function getProtected(address to_) public view returns(bool) {... */\n    tag_63:\n        /* \"v2/contracts/SoulSocietySBT.sol\":4417:4421  bool */\n      0x00\n        /* \"v2/contracts/SoulSocietySBT.sol\":4440:4458  _getProtected(to_) */\n      tag_163\n        /* \"v2/contracts/SoulSocietySBT.sol\":4454:4457  to_ */\n      dup3\n        /* \"v2/contracts/SoulSocietySBT.sol\":4440:4453  _getProtected */\n      tag_164\n        /* \"v2/contracts/SoulSocietySBT.sol\":4440:4458  _getProtected(to_) */\n      jump\t// in\n    tag_163:\n        /* \"v2/contracts/SoulSocietySBT.sol\":4433:4458  return _getProtected(to_) */\n      swap1\n      pop\n        /* \"v2/contracts/SoulSocietySBT.sol\":4362:4465  function getProtected(address to_) public view returns(bool) {... */\n      swap2\n      swap1\n      pop\n      jump\t// out\n        /* \"v2/contracts/SoulSocietySBT.sol\":6349:6481  function transferFrom(address , address , uint256 ) external pure {... */\n    tag_68:\n        /* \"v2/contracts/SoulSocietySBT.sol\":6432:6474  SoulSocietySBTNotSupported(\"transferFrom\") */\n      mload(0x40)\n      0x9fc6e75800000000000000000000000000000000000000000000000000000000\n      dup2\n      mstore\n      0x04\n      add\n      tag_166\n      swap1\n      tag_167\n      jump\t// in\n    tag_166:\n      mload(0x40)\n      dup1\n      swap2\n      sub\n      swap1\n      revert\n        /* \"v2/contracts/SoulSocietySBT.sol\":10417:10883  function tokenOfOwnerByIndex(address owner_, uint256 index_) public view returns (uint256) {... */\n    tag_71:\n        /* \"v2/contracts/SoulSocietySBT.sol\":10499:10506  uint256 */\n      0x00\n        /* \"v2/contracts/SoulSocietySBT.sol\":10535:10553  _balanceOf(owner_) */\n      tag_169\n        /* \"v2/contracts/SoulSocietySBT.sol\":10546:10552  owner_ */\n      dup4\n        /* \"v2/contracts/SoulSocietySBT.sol\":10535:10545  _balanceOf */\n      tag_170\n        /* \"v2/contracts/SoulSocietySBT.sol\":10535:10553  _balanceOf(owner_) */\n      jump\t// in\n    tag_169:\n        /* \"v2/contracts/SoulSocietySBT.sol\":10526:10532  index_ */\n      dup3\n        /* \"v2/contracts/SoulSocietySBT.sol\":10526:10553  index_ < _balanceOf(owner_) */\n      lt\n        /* \"v2/contracts/SoulSocietySBT.sol\":10518:10570  require(index_ < _balanceOf(owner_), \"Out of Index\") */\n      tag_171\n      jumpi\n      mload(0x40)\n      0x08c379a000000000000000000000000000000000000000000000000000000000\n      dup2\n      mstore\n      0x04\n      add\n      tag_172\n      swap1\n      tag_173\n      jump\t// in\n    tag_172:\n      mload(0x40)\n      dup1\n      swap2\n      sub\n      swap1\n      revert\n    tag_171:\n        /* \"v2/contracts/SoulSocietySBT.sol\":10603:10604  0 */\n      0x00\n        /* \"v2/contracts/SoulSocietySBT.sol\":10585:10605  owner_ == address(0) */\n      0xffffffffffffffffffffffffffffffffffffffff\n      and\n        /* \"v2/contracts/SoulSocietySBT.sol\":10585:10591  owner_ */\n      dup4\n        /* \"v2/contracts/SoulSocietySBT.sol\":10585:10605  owner_ == address(0) */\n      0xffffffffffffffffffffffffffffffffffffffff\n      and\n      sub\n        /* \"v2/contracts/SoulSocietySBT.sol\":10581:10680  if (owner_ == address(0)) {... */\n      tag_174\n      jumpi\n        /* \"v2/contracts/SoulSocietySBT.sol\":10666:10667  0 */\n      0x00\n        /* \"v2/contracts/SoulSocietySBT.sol\":10628:10669  SoulSocietySBTInvalidReceiver(address(0)) */\n      mload(0x40)\n      0x74f5e87d00000000000000000000000000000000000000000000000000000000\n      dup2\n      mstore\n      0x04\n      add\n      tag_175\n      swap2\n      swap1\n      tag_51\n      jump\t// in\n    tag_175:\n      mload(0x40)\n      dup1\n      swap2\n      sub\n      swap1\n      revert\n        /* \"v2/contracts/SoulSocietySBT.sol\":10581:10680  if (owner_ == address(0)) {... */\n    tag_174:\n        /* \"v2/contracts/SoulSocietySBT.sol\":10690:10705  uint256 tokenId */\n      0x00\n        /* \"v2/contracts/SoulSocietySBT.sol\":10708:10720  _ownedTokens */\n      0x0b\n        /* \"v2/contracts/SoulSocietySBT.sol\":10708:10728  _ownedTokens[owner_] */\n      0x00\n        /* \"v2/contracts/SoulSocietySBT.sol\":10721:10727  owner_ */\n      dup6\n        /* \"v2/contracts/SoulSocietySBT.sol\":10708:10728  _ownedTokens[owner_] */\n      0xffffffffffffffffffffffffffffffffffffffff\n      and\n      0xffffffffffffffffffffffffffffffffffffffff\n      and\n      dup2\n      mstore\n      0x20\n      add\n      swap1\n      dup2\n      mstore\n      0x20\n      add\n      0x00\n      keccak256\n        /* \"v2/contracts/SoulSocietySBT.sol\":10708:10736  _ownedTokens[owner_][index_] */\n      0x00\n        /* \"v2/contracts/SoulSocietySBT.sol\":10729:10735  index_ */\n      dup5\n        /* \"v2/contracts/SoulSocietySBT.sol\":10708:10736  _ownedTokens[owner_][index_] */\n      dup2\n      mstore\n      0x20\n      add\n      swap1\n      dup2\n      mstore\n      0x20\n      add\n      0x00\n      keccak256\n      sload\n        /* \"v2/contracts/SoulSocietySBT.sol\":10690:10736  uint256 tokenId = _ownedTokens[owner_][index_] */\n      swap1\n      pop\n        /* \"v2/contracts/SoulSocietySBT.sol\":10822:10850  _isProtectedTokenId(tokenId) */\n      tag_176\n        /* \"v2/contracts/SoulSocietySBT.sol\":10842:10849  tokenId */\n      dup2\n        /* \"v2/contracts/SoulSocietySBT.sol\":10822:10841  _isProtectedTokenId */\n      tag_177\n        /* \"v2/contracts/SoulSocietySBT.sol\":10822:10850  _isProtectedTokenId(tokenId) */\n      jump\t// in\n    tag_176:\n        /* \"v2/contracts/SoulSocietySBT.sol\":10868:10875  tokenId */\n      dup1\n        /* \"v2/contracts/SoulSocietySBT.sol\":10861:10875  return tokenId */\n      swap2\n      pop\n      pop\n        /* \"v2/contracts/SoulSocietySBT.sol\":10417:10883  function tokenOfOwnerByIndex(address owner_, uint256 index_) public view returns (uint256) {... */\n      swap3\n      swap2\n      pop\n      pop\n      jump\t// out\n        /* \"v2/contracts/SoulSocietySBT.sol\":7216:7355  function mint(address to_, uint256 tokenType_) public virtual onlyOwner returns(uint256) {... */\n    tag_75:\n        /* \"v2/contracts/SoulSocietySBT.sol\":7296:7303  uint256 */\n      0x00\n        /* \"@openzeppelin/contracts/access/Ownable.sol\":1094:1107  _checkOwner() */\n      tag_179\n        /* \"@openzeppelin/contracts/access/Ownable.sol\":1094:1105  _checkOwner */\n      tag_180\n        /* \"@openzeppelin/contracts/access/Ownable.sol\":1094:1107  _checkOwner() */\n      jump\t// in\n    tag_179:\n        /* \"v2/contracts/SoulSocietySBT.sol\":7322:7348  _safeMint(to_, tokenType_) */\n      tag_182\n        /* \"v2/contracts/SoulSocietySBT.sol\":7332:7335  to_ */\n      dup4\n        /* \"v2/contracts/SoulSocietySBT.sol\":7337:7347  tokenType_ */\n      dup4\n        /* \"v2/contracts/SoulSocietySBT.sol\":7322:7331  _safeMint */\n      tag_183\n        /* \"v2/contracts/SoulSocietySBT.sol\":7322:7348  _safeMint(to_, tokenType_) */\n      jump\t// in\n    tag_182:\n        /* \"v2/contracts/SoulSocietySBT.sol\":7315:7348  return _safeMint(to_, tokenType_) */\n      swap1\n      pop\n        /* \"v2/contracts/SoulSocietySBT.sol\":7216:7355  function mint(address to_, uint256 tokenType_) public virtual onlyOwner returns(uint256) {... */\n      swap3\n      swap2\n      pop\n      pop\n      jump\t// out\n        /* \"v2/contracts/SoulSocietySBT.sol\":6203:6343  function safeTransferFrom(address , address , uint256 ) external pure {... */\n    tag_79:\n        /* \"v2/contracts/SoulSocietySBT.sol\":6290:6336  SoulSocietySBTNotSupported(\"safeTransferFrom\") */\n      mload(0x40)\n      0x9fc6e75800000000000000000000000000000000000000000000000000000000\n      dup2\n      mstore\n      0x04\n      add\n      tag_185\n      swap1\n      tag_186\n      jump\t// in\n    tag_185:\n      mload(0x40)\n      dup1\n      swap2\n      sub\n      swap1\n      revert\n        /* \"v2/contracts/SoulSocietySBT.sol\":8755:8986  function getGrowth(uint256 tokenId_) public view  returns (uint256) {... */\n    tag_82:\n        /* \"v2/contracts/SoulSocietySBT.sol\":8814:8821  uint256 */\n      0x00\n        /* \"v2/contracts/SoulSocietySBT.sol\":8909:8938  _isProtectedTokenId(tokenId_) */\n      tag_188\n        /* \"v2/contracts/SoulSocietySBT.sol\":8929:8937  tokenId_ */\n      dup3\n        /* \"v2/contracts/SoulSocietySBT.sol\":8909:8928  _isProtectedTokenId */\n      tag_177\n        /* \"v2/contracts/SoulSocietySBT.sol\":8909:8938  _isProtectedTokenId(tokenId_) */\n      jump\t// in\n    tag_188:\n        /* \"v2/contracts/SoulSocietySBT.sol\":8956:8969  _tokenGrowths */\n      0x08\n        /* \"v2/contracts/SoulSocietySBT.sol\":8956:8979  _tokenGrowths[tokenId_] */\n      0x00\n        /* \"v2/contracts/SoulSocietySBT.sol\":8970:8978  tokenId_ */\n      dup4\n        /* \"v2/contracts/SoulSocietySBT.sol\":8956:8979  _tokenGrowths[tokenId_] */\n      dup2\n      mstore\n      0x20\n      add\n      swap1\n      dup2\n      mstore\n      0x20\n      add\n      0x00\n      keccak256\n      sload\n        /* \"v2/contracts/SoulSocietySBT.sol\":8949:8979  return _tokenGrowths[tokenId_] */\n      swap1\n      pop\n        /* \"v2/contracts/SoulSocietySBT.sol\":8755:8986  function getGrowth(uint256 tokenId_) public view  returns (uint256) {... */\n      swap2\n      swap1\n      pop\n      jump\t// out\n        /* \"v2/contracts/SoulSocietySBT.sol\":5389:5509  function ownerOf(uint256 tokenId_) external  view  override  returns (address) {... */\n    tag_86:\n        /* \"v2/contracts/SoulSocietySBT.sol\":5459:5466  address */\n      0x00\n        /* \"v2/contracts/SoulSocietySBT.sol\":5485:5492  _owners */\n      0x06\n        /* \"v2/contracts/SoulSocietySBT.sol\":5485:5502  _owners[tokenId_] */\n      0x00\n        /* \"v2/contracts/SoulSocietySBT.sol\":5493:5501  tokenId_ */\n      dup4\n        /* \"v2/contracts/SoulSocietySBT.sol\":5485:5502  _owners[tokenId_] */\n      dup2\n      mstore\n      0x20\n      add\n      swap1\n      dup2\n      mstore\n      0x20\n      add\n      0x00\n      keccak256\n      0x00\n      swap1\n      sload\n      swap1\n      0x0100\n      exp\n      swap1\n      div\n      0xffffffffffffffffffffffffffffffffffffffff\n      and\n        /* \"v2/contracts/SoulSocietySBT.sol\":5478:5502  return _owners[tokenId_] */\n      swap1\n      pop\n        /* \"v2/contracts/SoulSocietySBT.sol\":5389:5509  function ownerOf(uint256 tokenId_) external  view  override  returns (address) {... */\n      swap2\n      swap1\n      pop\n      jump\t// out\n        /* \"v2/contracts/SoulSocietySBT.sol\":5734:5845  function balanceOf(address owner_) external  view  returns (uint256) {... */\n    tag_90:\n        /* \"v2/contracts/SoulSocietySBT.sol\":5794:5801  uint256 */\n      0x00\n        /* \"v2/contracts/SoulSocietySBT.sol\":5820:5838  _balanceOf(owner_) */\n      tag_191\n        /* \"v2/contracts/SoulSocietySBT.sol\":5831:5837  owner_ */\n      dup3\n        /* \"v2/contracts/SoulSocietySBT.sol\":5820:5830  _balanceOf */\n      tag_170\n        /* \"v2/contracts/SoulSocietySBT.sol\":5820:5838  _balanceOf(owner_) */\n      jump\t// in\n    tag_191:\n        /* \"v2/contracts/SoulSocietySBT.sol\":5813:5838  return _balanceOf(owner_) */\n      swap1\n      pop\n        /* \"v2/contracts/SoulSocietySBT.sol\":5734:5845  function balanceOf(address owner_) external  view  returns (uint256) {... */\n      swap2\n      swap1\n      pop\n      jump\t// out\n        /* \"@openzeppelin/contracts/access/Ownable.sol\":1824:1925  function renounceOwnership() public virtual onlyOwner {... */\n    tag_93:\n        /* \"@openzeppelin/contracts/access/Ownable.sol\":1094:1107  _checkOwner() */\n      tag_193\n        /* \"@openzeppelin/contracts/access/Ownable.sol\":1094:1105  _checkOwner */\n      tag_180\n        /* \"@openzeppelin/contracts/access/Ownable.sol\":1094:1107  _checkOwner() */\n      jump\t// in\n    tag_193:\n        /* \"@openzeppelin/contracts/access/Ownable.sol\":1888:1918  _transferOwnership(address(0)) */\n      tag_195\n        /* \"@openzeppelin/contracts/access/Ownable.sol\":1915:1916  0 */\n      0x00\n        /* \"@openzeppelin/contracts/access/Ownable.sol\":1888:1906  _transferOwnership */\n      tag_196\n        /* \"@openzeppelin/contracts/access/Ownable.sol\":1888:1918  _transferOwnership(address(0)) */\n      jump\t// in\n    tag_195:\n        /* \"@openzeppelin/contracts/access/Ownable.sol\":1824:1925  function renounceOwnership() public virtual onlyOwner {... */\n      jump\t// out\n        /* \"v2/contracts/SoulSocietySBT.sol\":3708:3864  function getTokenType(uint256 tokenId_) public view returns (uint256) {... */\n    tag_96:\n        /* \"v2/contracts/SoulSocietySBT.sol\":3769:3776  uint256 */\n      0x00\n        /* \"v2/contracts/SoulSocietySBT.sol\":3789:3818  _isProtectedTokenId(tokenId_) */\n      tag_198\n        /* \"v2/contracts/SoulSocietySBT.sol\":3809:3817  tokenId_ */\n      dup3\n        /* \"v2/contracts/SoulSocietySBT.sol\":3789:3808  _isProtectedTokenId */\n      tag_177\n        /* \"v2/contracts/SoulSocietySBT.sol\":3789:3818  _isProtectedTokenId(tokenId_) */\n      jump\t// in\n    tag_198:\n        /* \"v2/contracts/SoulSocietySBT.sol\":3836:3847  _tokenTypes */\n      0x07\n        /* \"v2/contracts/SoulSocietySBT.sol\":3836:3857  _tokenTypes[tokenId_] */\n      0x00\n        /* \"v2/contracts/SoulSocietySBT.sol\":3848:3856  tokenId_ */\n      dup4\n        /* \"v2/contracts/SoulSocietySBT.sol\":3836:3857  _tokenTypes[tokenId_] */\n      dup2\n      mstore\n      0x20\n      add\n      swap1\n      dup2\n      mstore\n      0x20\n      add\n      0x00\n      keccak256\n      sload\n        /* \"v2/contracts/SoulSocietySBT.sol\":3829:3857  return _tokenTypes[tokenId_] */\n      swap1\n      pop\n        /* \"v2/contracts/SoulSocietySBT.sol\":3708:3864  function getTokenType(uint256 tokenId_) public view returns (uint256) {... */\n      swap2\n      swap1\n      pop\n      jump\t// out\n        /* \"v2/contracts/SoulSocietySBT.sol\":4098:4356  function setProtected(address to_, bool isProtected_) public  returns (bool) {... */\n    tag_101:\n        /* \"v2/contracts/SoulSocietySBT.sol\":4169:4173  bool */\n      0x00\n        /* \"v2/contracts/SoulSocietySBT.sol\":4203:4206  to_ */\n      dup3\n        /* \"v2/contracts/SoulSocietySBT.sol\":4189:4206  msg.sender != to_ */\n      0xffffffffffffffffffffffffffffffffffffffff\n      and\n        /* \"v2/contracts/SoulSocietySBT.sol\":4189:4199  msg.sender */\n      caller\n        /* \"v2/contracts/SoulSocietySBT.sol\":4189:4206  msg.sender != to_ */\n      0xffffffffffffffffffffffffffffffffffffffff\n      and\n      eq\n        /* \"v2/contracts/SoulSocietySBT.sol\":4185:4271  if (msg.sender != to_) {... */\n      tag_200\n      jumpi\n        /* \"v2/contracts/SoulSocietySBT.sol\":4256:4259  to_ */\n      dup3\n        /* \"v2/contracts/SoulSocietySBT.sol\":4229:4260  SoulSocietySBTInvalidOwner(to_) */\n      mload(0x40)\n      0x5015929900000000000000000000000000000000000000000000000000000000\n      dup2\n      mstore\n      0x04\n      add\n      tag_201\n      swap2\n      swap1\n      tag_51\n      jump\t// in\n    tag_201:\n      mload(0x40)\n      dup1\n      swap2\n      sub\n      swap1\n      revert\n        /* \"v2/contracts/SoulSocietySBT.sol\":4185:4271  if (msg.sender != to_) {... */\n    tag_200:\n        /* \"v2/contracts/SoulSocietySBT.sol\":4302:4314  isProtected_ */\n      dup2\n        /* \"v2/contracts/SoulSocietySBT.sol\":4281:4294  _userProtects */\n      0x0a\n        /* \"v2/contracts/SoulSocietySBT.sol\":4281:4299  _userProtects[to_] */\n      0x00\n        /* \"v2/contracts/SoulSocietySBT.sol\":4295:4298  to_ */\n      dup6\n        /* \"v2/contracts/SoulSocietySBT.sol\":4281:4299  _userProtects[to_] */\n      0xffffffffffffffffffffffffffffffffffffffff\n      and\n      0xffffffffffffffffffffffffffffffffffffffff\n      and\n      dup2\n      mstore\n      0x20\n      add\n      swap1\n      dup2\n      mstore\n      0x20\n      add\n      0x00\n      keccak256\n      0x00\n        /* \"v2/contracts/SoulSocietySBT.sol\":4281:4314  _userProtects[to_] = isProtected_ */\n      0x0100\n      exp\n      dup2\n      sload\n      dup2\n      0xff\n      mul\n      not\n      and\n      swap1\n      dup4\n      iszero\n      iszero\n      mul\n      or\n      swap1\n      sstore\n      pop\n        /* \"v2/contracts/SoulSocietySBT.sol\":4332:4349  getProtected(to_) */\n      tag_202\n        /* \"v2/contracts/SoulSocietySBT.sol\":4345:4348  to_ */\n      dup4\n        /* \"v2/contracts/SoulSocietySBT.sol\":4332:4344  getProtected */\n      tag_63\n        /* \"v2/contracts/SoulSocietySBT.sol\":4332:4349  getProtected(to_) */\n      jump\t// in\n    tag_202:\n        /* \"v2/contracts/SoulSocietySBT.sol\":4325:4349  return getProtected(to_) */\n      swap1\n      pop\n        /* \"v2/contracts/SoulSocietySBT.sol\":4098:4356  function setProtected(address to_, bool isProtected_) public  returns (bool) {... */\n      swap3\n      swap2\n      pop\n      pop\n      jump\t// out\n        /* \"@openzeppelin/contracts/access/Ownable.sol\":1201:1286  function owner() public view virtual returns (address) {... */\n    tag_104:\n        /* \"@openzeppelin/contracts/access/Ownable.sol\":1247:1254  address */\n      0x00\n        /* \"@openzeppelin/contracts/access/Ownable.sol\":1273:1279  _owner */\n      dup1\n      0x00\n      swap1\n      sload\n      swap1\n      0x0100\n      exp\n      swap1\n      div\n      0xffffffffffffffffffffffffffffffffffffffff\n      and\n        /* \"@openzeppelin/contracts/access/Ownable.sol\":1266:1279  return _owner */\n      swap1\n      pop\n        /* \"@openzeppelin/contracts/access/Ownable.sol\":1201:1286  function owner() public view virtual returns (address) {... */\n      swap1\n      jump\t// out\n        /* \"v2/contracts/SoulSocietySBT.sol\":2779:2874  function symbol() external view virtual returns (string memory) {... */\n    tag_107:\n        /* \"v2/contracts/SoulSocietySBT.sol\":2828:2841  string memory */\n      0x60\n        /* \"v2/contracts/SoulSocietySBT.sol\":2860:2867  _symbol */\n      0x02\n        /* \"v2/contracts/SoulSocietySBT.sol\":2853:2867  return _symbol */\n      dup1\n      sload\n      tag_205\n      swap1\n      tag_150\n      jump\t// in\n    tag_205:\n      dup1\n      0x1f\n      add\n      0x20\n      dup1\n      swap2\n      div\n      mul\n      0x20\n      add\n      mload(0x40)\n      swap1\n      dup2\n      add\n      0x40\n      mstore\n      dup1\n      swap3\n      swap2\n      swap1\n      dup2\n      dup2\n      mstore\n      0x20\n      add\n      dup3\n      dup1\n      sload\n      tag_206\n      swap1\n      tag_150\n      jump\t// in\n    tag_206:\n      dup1\n      iszero\n      tag_207\n      jumpi\n      dup1\n      0x1f\n      lt\n      tag_208\n      jumpi\n      0x0100\n      dup1\n      dup4\n      sload\n      div\n      mul\n      dup4\n      mstore\n      swap2\n      0x20\n      add\n      swap2\n      jump(tag_207)\n    tag_208:\n      dup3\n      add\n      swap2\n      swap1\n      0x00\n      mstore\n      keccak256(0x00, 0x20)\n      swap1\n    tag_209:\n      dup2\n      sload\n      dup2\n      mstore\n      swap1\n      0x01\n      add\n      swap1\n      0x20\n      add\n      dup1\n      dup4\n      gt\n      tag_209\n      jumpi\n      dup3\n      swap1\n      sub\n      0x1f\n      and\n      dup3\n      add\n      swap2\n    tag_207:\n      pop\n      pop\n      pop\n      pop\n      pop\n      swap1\n      pop\n        /* \"v2/contracts/SoulSocietySBT.sol\":2779:2874  function symbol() external view virtual returns (string memory) {... */\n      swap1\n      jump\t// out\n        /* \"v2/contracts/SoulSocietySBT.sol\":6604:6733  function setApprovalForAll(address , bool ) external pure {... */\n    tag_111:\n        /* \"v2/contracts/SoulSocietySBT.sol\":6679:6726  SoulSocietySBTNotSupported(\"setApprovalForAll\") */\n      mload(0x40)\n      0x9fc6e75800000000000000000000000000000000000000000000000000000000\n      dup2\n      mstore\n      0x04\n      add\n      tag_211\n      swap1\n      tag_212\n      jump\t// in\n    tag_211:\n      mload(0x40)\n      dup1\n      swap2\n      sub\n      swap1\n      revert\n        /* \"v2/contracts/SoulSocietySBT.sol\":6032:6197  function safeTransferFrom(address , address , uint256 , bytes calldata) external pure {... */\n    tag_115:\n        /* \"v2/contracts/SoulSocietySBT.sol\":6144:6190  SoulSocietySBTNotSupported(\"safeTransferFrom\") */\n      mload(0x40)\n      0x9fc6e75800000000000000000000000000000000000000000000000000000000\n      dup2\n      mstore\n      0x04\n      add\n      tag_214\n      swap1\n      tag_186\n      jump\t// in\n    tag_214:\n      mload(0x40)\n      dup1\n      swap2\n      sub\n      swap1\n      revert\n        /* \"v2/contracts/SoulSocietySBT.sol\":9780:9908  function growUp(address to_, uint256 tokenId_) public  onlyOwner returns(uint256) {... */\n    tag_118:\n        /* \"v2/contracts/SoulSocietySBT.sol\":9853:9860  uint256 */\n      0x00\n        /* \"@openzeppelin/contracts/access/Ownable.sol\":1094:1107  _checkOwner() */\n      tag_216\n        /* \"@openzeppelin/contracts/access/Ownable.sol\":1094:1105  _checkOwner */\n      tag_180\n        /* \"@openzeppelin/contracts/access/Ownable.sol\":1094:1107  _checkOwner() */\n      jump\t// in\n    tag_216:\n        /* \"v2/contracts/SoulSocietySBT.sol\":9879:9901  _growUp(to_, tokenId_) */\n      tag_218\n        /* \"v2/contracts/SoulSocietySBT.sol\":9887:9890  to_ */\n      dup4\n        /* \"v2/contracts/SoulSocietySBT.sol\":9892:9900  tokenId_ */\n      dup4\n        /* \"v2/contracts/SoulSocietySBT.sol\":9879:9886  _growUp */\n      tag_219\n        /* \"v2/contracts/SoulSocietySBT.sol\":9879:9901  _growUp(to_, tokenId_) */\n      jump\t// in\n    tag_218:\n        /* \"v2/contracts/SoulSocietySBT.sol\":9872:9901  return _growUp(to_, tokenId_) */\n      swap1\n      pop\n        /* \"v2/contracts/SoulSocietySBT.sol\":9780:9908  function growUp(address to_, uint256 tokenId_) public  onlyOwner returns(uint256) {... */\n      swap3\n      swap2\n      pop\n      pop\n      jump\t// out\n        /* \"v2/contracts/SoulSocietySBT.sol\":2975:3364  function tokenURI(uint256 tokenId_) external view virtual  returns (string memory) {... */\n    tag_122:\n        /* \"v2/contracts/SoulSocietySBT.sol\":3043:3056  string memory */\n      0x60\n        /* \"v2/contracts/SoulSocietySBT.sol\":3069:3093  _requireMinted(tokenId_) */\n      tag_221\n        /* \"v2/contracts/SoulSocietySBT.sol\":3084:3092  tokenId_ */\n      dup3\n        /* \"v2/contracts/SoulSocietySBT.sol\":3069:3083  _requireMinted */\n      tag_222\n        /* \"v2/contracts/SoulSocietySBT.sol\":3069:3093  _requireMinted(tokenId_) */\n      jump\t// in\n    tag_221:\n        /* \"v2/contracts/SoulSocietySBT.sol\":3112:3141  _isProtectedTokenId(tokenId_) */\n      tag_223\n        /* \"v2/contracts/SoulSocietySBT.sol\":3132:3140  tokenId_ */\n      dup3\n        /* \"v2/contracts/SoulSocietySBT.sol\":3112:3131  _isProtectedTokenId */\n      tag_177\n        /* \"v2/contracts/SoulSocietySBT.sol\":3112:3141  _isProtectedTokenId(tokenId_) */\n      jump\t// in\n    tag_223:\n        /* \"v2/contracts/SoulSocietySBT.sol\":3152:3169  uint256 tokenType */\n      0x00\n        /* \"v2/contracts/SoulSocietySBT.sol\":3172:3183  _tokenTypes */\n      0x07\n        /* \"v2/contracts/SoulSocietySBT.sol\":3172:3193  _tokenTypes[tokenId_] */\n      0x00\n        /* \"v2/contracts/SoulSocietySBT.sol\":3184:3192  tokenId_ */\n      dup5\n        /* \"v2/contracts/SoulSocietySBT.sol\":3172:3193  _tokenTypes[tokenId_] */\n      dup2\n      mstore\n      0x20\n      add\n      swap1\n      dup2\n      mstore\n      0x20\n      add\n      0x00\n      keccak256\n      sload\n        /* \"v2/contracts/SoulSocietySBT.sol\":3152:3193  uint256 tokenType = _tokenTypes[tokenId_] */\n      swap1\n      pop\n        /* \"v2/contracts/SoulSocietySBT.sol\":3235:3239  _uri */\n      0x03\n        /* \"v2/contracts/SoulSocietySBT.sol\":3240:3259  tokenId_.toString() */\n      tag_224\n        /* \"v2/contracts/SoulSocietySBT.sol\":3240:3248  tokenId_ */\n      dup5\n        /* \"v2/contracts/SoulSocietySBT.sol\":3240:3257  tokenId_.toString */\n      tag_225\n        /* \"v2/contracts/SoulSocietySBT.sol\":3240:3259  tokenId_.toString() */\n      jump\t// in\n    tag_224:\n        /* \"v2/contracts/SoulSocietySBT.sol\":3275:3295  tokenType.toString() */\n      tag_226\n        /* \"v2/contracts/SoulSocietySBT.sol\":3275:3284  tokenType */\n      dup4\n        /* \"v2/contracts/SoulSocietySBT.sol\":3275:3293  tokenType.toString */\n      tag_225\n        /* \"v2/contracts/SoulSocietySBT.sol\":3275:3295  tokenType.toString() */\n      jump\t// in\n    tag_226:\n        /* \"v2/contracts/SoulSocietySBT.sol\":3218:3296  abi.encodePacked(_uri,tokenId_.toString(),\"?tokenType=\", tokenType.toString()) */\n      add(0x20, mload(0x40))\n      tag_227\n      swap4\n      swap3\n      swap2\n      swap1\n      tag_228\n      jump\t// in\n    tag_227:\n      mload(0x40)\n      0x20\n      dup2\n      dup4\n      sub\n      sub\n      dup2\n      mstore\n      swap1\n      0x40\n      mstore\n        /* \"v2/contracts/SoulSocietySBT.sol\":3204:3297  return string(abi.encodePacked(_uri,tokenId_.toString(),\"?tokenType=\", tokenType.toString())) */\n      swap2\n      pop\n      pop\n        /* \"v2/contracts/SoulSocietySBT.sol\":2975:3364  function tokenURI(uint256 tokenId_) external view virtual  returns (string memory) {... */\n      swap2\n      swap1\n      pop\n      jump\t// out\n        /* \"v2/contracts/SoulSocietySBT.sol\":4641:4745  function isProtected(address to_) external view returns (bool) {... */\n    tag_126:\n        /* \"v2/contracts/SoulSocietySBT.sol\":4698:4702  bool */\n      0x00\n        /* \"v2/contracts/SoulSocietySBT.sol\":4721:4738  _isProtected(to_) */\n      tag_230\n        /* \"v2/contracts/SoulSocietySBT.sol\":4734:4737  to_ */\n      dup3\n        /* \"v2/contracts/SoulSocietySBT.sol\":4721:4733  _isProtected */\n      tag_231\n        /* \"v2/contracts/SoulSocietySBT.sol\":4721:4738  _isProtected(to_) */\n      jump\t// in\n    tag_230:\n        /* \"v2/contracts/SoulSocietySBT.sol\":4714:4738  return _isProtected(to_) */\n      swap1\n      pop\n        /* \"v2/contracts/SoulSocietySBT.sol\":4641:4745  function isProtected(address to_) external view returns (bool) {... */\n      swap2\n      swap1\n      pop\n      jump\t// out\n        /* \"v2/contracts/SoulSocietySBT.sol\":3371:3514  function setTokenURI(string memory tokenURI_) external onlyOwner returns(string memory) {... */\n    tag_131:\n        /* \"v2/contracts/SoulSocietySBT.sol\":3444:3457  string memory */\n      0x60\n        /* \"@openzeppelin/contracts/access/Ownable.sol\":1094:1107  _checkOwner() */\n      tag_233\n        /* \"@openzeppelin/contracts/access/Ownable.sol\":1094:1105  _checkOwner */\n      tag_180\n        /* \"@openzeppelin/contracts/access/Ownable.sol\":1094:1107  _checkOwner() */\n      jump\t// in\n    tag_233:\n        /* \"v2/contracts/SoulSocietySBT.sol\":3476:3485  tokenURI_ */\n      dup2\n        /* \"v2/contracts/SoulSocietySBT.sol\":3469:3473  _uri */\n      0x03\n        /* \"v2/contracts/SoulSocietySBT.sol\":3469:3485  _uri = tokenURI_ */\n      swap1\n      dup2\n      tag_235\n      swap2\n      swap1\n      tag_236\n      jump\t// in\n    tag_235:\n      pop\n        /* \"v2/contracts/SoulSocietySBT.sol\":3502:3506  _uri */\n      0x03\n        /* \"v2/contracts/SoulSocietySBT.sol\":3495:3506  return _uri */\n      dup1\n      sload\n      tag_237\n      swap1\n      tag_150\n      jump\t// in\n    tag_237:\n      dup1\n      0x1f\n      add\n      0x20\n      dup1\n      swap2\n      div\n      mul\n      0x20\n      add\n      mload(0x40)\n      swap1\n      dup2\n      add\n      0x40\n      mstore\n      dup1\n      swap3\n      swap2\n      swap1\n      dup2\n      dup2\n      mstore\n      0x20\n      add\n      dup3\n      dup1\n      sload\n      tag_238\n      swap1\n      tag_150\n      jump\t// in\n    tag_238:\n      dup1\n      iszero\n      tag_239\n      jumpi\n      dup1\n      0x1f\n      lt\n      tag_240\n      jumpi\n      0x0100\n      dup1\n      dup4\n      sload\n      div\n      mul\n      dup4\n      mstore\n      swap2\n      0x20\n      add\n      swap2\n      jump(tag_239)\n    tag_240:\n      dup3\n      add\n      swap2\n      swap1\n      0x00\n      mstore\n      keccak256(0x00, 0x20)\n      swap1\n    tag_241:\n      dup2\n      sload\n      dup2\n      mstore\n      swap1\n      0x01\n      add\n      swap1\n      0x20\n      add\n      dup1\n      dup4\n      gt\n      tag_241\n      jumpi\n      dup3\n      swap1\n      sub\n      0x1f\n      and\n      dup3\n      add\n      swap2\n    tag_239:\n      pop\n      pop\n      pop\n      pop\n      pop\n      swap1\n      pop\n        /* \"v2/contracts/SoulSocietySBT.sol\":3371:3514  function setTokenURI(string memory tokenURI_) external onlyOwner returns(string memory) {... */\n      swap2\n      swap1\n      pop\n      jump\t// out\n        /* \"v2/contracts/SoulSocietySBT.sol\":3520:3606  function totalUser() public view  returns (uint256) {... */\n    tag_134:\n        /* \"v2/contracts/SoulSocietySBT.sol\":3563:3570  uint256 */\n      0x00\n        /* \"v2/contracts/SoulSocietySBT.sol\":3589:3599  _totalUser */\n      sload(0x04)\n        /* \"v2/contracts/SoulSocietySBT.sol\":3582:3599  return _totalUser */\n      swap1\n      pop\n        /* \"v2/contracts/SoulSocietySBT.sol\":3520:3606  function totalUser() public view  returns (uint256) {... */\n      swap1\n      jump\t// out\n        /* \"v2/contracts/SoulSocietySBT.sol\":6877:7020  function isApprovedForAll(address , address ) public pure returns (bool) {... */\n    tag_139:\n        /* \"v2/contracts/SoulSocietySBT.sol\":6944:6948  bool */\n      0x00\n        /* \"v2/contracts/SoulSocietySBT.sol\":6967:7013  SoulSocietySBTNotSupported(\"isApprovedForAll\") */\n      mload(0x40)\n      0x9fc6e75800000000000000000000000000000000000000000000000000000000\n      dup2\n      mstore\n      0x04\n      add\n      tag_244\n      swap1\n      tag_245\n      jump\t// in\n    tag_244:\n      mload(0x40)\n      dup1\n      swap2\n      sub\n      swap1\n      revert\n        /* \"@openzeppelin/contracts/access/Ownable.sol\":2074:2272  function transferOwnership(address newOwner) public virtual onlyOwner {... */\n    tag_143:\n        /* \"@openzeppelin/contracts/access/Ownable.sol\":1094:1107  _checkOwner() */\n      tag_247\n        /* \"@openzeppelin/contracts/access/Ownable.sol\":1094:1105  _checkOwner */\n      tag_180\n        /* \"@openzeppelin/contracts/access/Ownable.sol\":1094:1107  _checkOwner() */\n      jump\t// in\n    tag_247:\n        /* \"@openzeppelin/contracts/access/Ownable.sol\":2182:2183  0 */\n      0x00\n        /* \"@openzeppelin/contracts/access/Ownable.sol\":2162:2184  newOwner != address(0) */\n      0xffffffffffffffffffffffffffffffffffffffff\n      and\n        /* \"@openzeppelin/contracts/access/Ownable.sol\":2162:2170  newOwner */\n      dup2\n        /* \"@openzeppelin/contracts/access/Ownable.sol\":2162:2184  newOwner != address(0) */\n      0xffffffffffffffffffffffffffffffffffffffff\n      and\n      sub\n        /* \"@openzeppelin/contracts/access/Ownable.sol\":2154:2227  require(newOwner != address(0), \"Ownable: new owner is the zero address\") */\n      tag_249\n      jumpi\n      mload(0x40)\n      0x08c379a000000000000000000000000000000000000000000000000000000000\n      dup2\n      mstore\n      0x04\n      add\n      tag_250\n      swap1\n      tag_251\n      jump\t// in\n    tag_250:\n      mload(0x40)\n      dup1\n      swap2\n      sub\n      swap1\n      revert\n    tag_249:\n        /* \"@openzeppelin/contracts/access/Ownable.sol\":2237:2265  _transferOwnership(newOwner) */\n      tag_252\n        /* \"@openzeppelin/contracts/access/Ownable.sol\":2256:2264  newOwner */\n      dup2\n        /* \"@openzeppelin/contracts/access/Ownable.sol\":2237:2255  _transferOwnership */\n      tag_196\n        /* \"@openzeppelin/contracts/access/Ownable.sol\":2237:2265  _transferOwnership(newOwner) */\n      jump\t// in\n    tag_252:\n        /* \"@openzeppelin/contracts/access/Ownable.sol\":2074:2272  function transferOwnership(address newOwner) public virtual onlyOwner {... */\n      pop\n      jump\t// out\n        /* \"@openzeppelin/contracts/utils/introspection/ERC165.sol\":829:984  function supportsInterface(bytes4 interfaceId) public view virtual override returns (bool) {... */\n    tag_147:\n        /* \"@openzeppelin/contracts/utils/introspection/ERC165.sol\":914:918  bool */\n      0x00\n        /* \"@openzeppelin/contracts/utils/introspection/ERC165.sol\":952:977  type(IERC165).interfaceId */\n      0x01ffc9a700000000000000000000000000000000000000000000000000000000\n        /* \"@openzeppelin/contracts/utils/introspection/ERC165.sol\":937:977  interfaceId == type(IERC165).interfaceId */\n      not(0xffffffffffffffffffffffffffffffffffffffffffffffffffffffff)\n      and\n        /* \"@openzeppelin/contracts/utils/introspection/ERC165.sol\":937:948  interfaceId */\n      dup3\n        /* \"@openzeppelin/contracts/utils/introspection/ERC165.sol\":937:977  interfaceId == type(IERC165).interfaceId */\n      not(0xffffffffffffffffffffffffffffffffffffffffffffffffffffffff)\n      and\n      eq\n        /* \"@openzeppelin/contracts/utils/introspection/ERC165.sol\":930:977  return interfaceId == type(IERC165).interfaceId */\n      swap1\n      pop\n        /* \"@openzeppelin/contracts/utils/introspection/ERC165.sol\":829:984  function supportsInterface(bytes4 interfaceId) public view virtual override returns (bool) {... */\n      swap2\n      swap1\n      pop\n      jump\t// out\n        /* \"v2/contracts/SoulSocietySBT.sol\":4471:4635  function _getProtected(address to_) internal  view returns(bool) {... */\n    tag_164:\n        /* \"v2/contracts/SoulSocietySBT.sol\":4530:4534  bool */\n      0x00\n        /* \"v2/contracts/SoulSocietySBT.sol\":4610:4623  _userProtects */\n      0x0a\n        /* \"v2/contracts/SoulSocietySBT.sol\":4610:4628  _userProtects[to_] */\n      0x00\n        /* \"v2/contracts/SoulSocietySBT.sol\":4624:4627  to_ */\n      dup4\n        /* \"v2/contracts/SoulSocietySBT.sol\":4610:4628  _userProtects[to_] */\n      0xffffffffffffffffffffffffffffffffffffffff\n      and\n      0xffffffffffffffffffffffffffffffffffffffff\n      and\n      dup2\n      mstore\n      0x20\n      add\n      swap1\n      dup2\n      mstore\n      0x20\n      add\n      0x00\n      keccak256\n      0x00\n      swap1\n      sload\n      swap1\n      0x0100\n      exp\n      swap1\n      div\n      0xff\n      and\n        /* \"v2/contracts/SoulSocietySBT.sol\":4603:4628  return _userProtects[to_] */\n      swap1\n      pop\n        /* \"v2/contracts/SoulSocietySBT.sol\":4471:4635  function _getProtected(address to_) internal  view returns(bool) {... */\n      swap2\n      swap1\n      pop\n      jump\t// out\n        /* \"v2/contracts/SoulSocietySBT.sol\":5851:5964  function _balanceOf(address owner_) internal view returns (uint256) {... */\n    tag_170:\n        /* \"v2/contracts/SoulSocietySBT.sol\":5910:5917  uint256 */\n      0x00\n        /* \"v2/contracts/SoulSocietySBT.sol\":5940:5949  _balances */\n      0x09\n        /* \"v2/contracts/SoulSocietySBT.sol\":5940:5957  _balances[owner_] */\n      0x00\n        /* \"v2/contracts/SoulSocietySBT.sol\":5950:5956  owner_ */\n      dup4\n        /* \"v2/contracts/SoulSocietySBT.sol\":5940:5957  _balances[owner_] */\n      0xffffffffffffffffffffffffffffffffffffffff\n      and\n      0xffffffffffffffffffffffffffffffffffffffff\n      and\n      dup2\n      mstore\n      0x20\n      add\n      swap1\n      dup2\n      mstore\n      0x20\n      add\n      0x00\n      keccak256\n      sload\n        /* \"v2/contracts/SoulSocietySBT.sol\":5933:5957  return _balances[owner_] */\n      swap1\n      pop\n        /* \"v2/contracts/SoulSocietySBT.sol\":5851:5964  function _balanceOf(address owner_) internal view returns (uint256) {... */\n      swap2\n      swap1\n      pop\n      jump\t// out\n        /* \"v2/contracts/SoulSocietySBT.sol\":4962:5254  function _isProtectedTokenId(uint256 tokenId_) internal view {... */\n    tag_177:\n        /* \"v2/contracts/SoulSocietySBT.sol\":5115:5132  _exists(tokenId_) */\n      tag_257\n        /* \"v2/contracts/SoulSocietySBT.sol\":5123:5131  tokenId_ */\n      dup2\n        /* \"v2/contracts/SoulSocietySBT.sol\":5115:5122  _exists */\n      tag_258\n        /* \"v2/contracts/SoulSocietySBT.sol\":5115:5132  _exists(tokenId_) */\n      jump\t// in\n    tag_257:\n        /* \"v2/contracts/SoulSocietySBT.sol\":5110:5206  if (!_exists(tokenId_)) {... */\n      tag_259\n      jumpi\n        /* \"v2/contracts/SoulSocietySBT.sol\":5186:5194  tokenId_ */\n      dup1\n        /* \"v2/contracts/SoulSocietySBT.sol\":5155:5195  SoulSocietySBTNonexistentToken(tokenId_) */\n      mload(0x40)\n      0x24476a3f00000000000000000000000000000000000000000000000000000000\n      dup2\n      mstore\n      0x04\n      add\n      tag_260\n      swap2\n      swap1\n      tag_59\n      jump\t// in\n    tag_260:\n      mload(0x40)\n      dup1\n      swap2\n      sub\n      swap1\n      revert\n        /* \"v2/contracts/SoulSocietySBT.sol\":5110:5206  if (!_exists(tokenId_)) {... */\n    tag_259:\n        /* \"v2/contracts/SoulSocietySBT.sol\":5216:5247  _isProtected(_owners[tokenId_]) */\n      tag_261\n        /* \"v2/contracts/SoulSocietySBT.sol\":5229:5236  _owners */\n      0x06\n        /* \"v2/contracts/SoulSocietySBT.sol\":5229:5246  _owners[tokenId_] */\n      0x00\n        /* \"v2/contracts/SoulSocietySBT.sol\":5237:5245  tokenId_ */\n      dup4\n        /* \"v2/contracts/SoulSocietySBT.sol\":5229:5246  _owners[tokenId_] */\n      dup2\n      mstore\n      0x20\n      add\n      swap1\n      dup2\n      mstore\n      0x20\n      add\n      0x00\n      keccak256\n      0x00\n      swap1\n      sload\n      swap1\n      0x0100\n      exp\n      swap1\n      div\n      0xffffffffffffffffffffffffffffffffffffffff\n      and\n        /* \"v2/contracts/SoulSocietySBT.sol\":5216:5228  _isProtected */\n      tag_231\n        /* \"v2/contracts/SoulSocietySBT.sol\":5216:5247  _isProtected(_owners[tokenId_]) */\n      jump\t// in\n    tag_261:\n      pop\n        /* \"v2/contracts/SoulSocietySBT.sol\":4962:5254  function _isProtectedTokenId(uint256 tokenId_) internal view {... */\n      pop\n      jump\t// out\n        /* \"@openzeppelin/contracts/access/Ownable.sol\":1359:1489  function _checkOwner() internal view virtual {... */\n    tag_180:\n        /* \"@openzeppelin/contracts/access/Ownable.sol\":1433:1445  _msgSender() */\n      tag_263\n        /* \"@openzeppelin/contracts/access/Ownable.sol\":1433:1443  _msgSender */\n      tag_264\n        /* \"@openzeppelin/contracts/access/Ownable.sol\":1433:1445  _msgSender() */\n      jump\t// in\n    tag_263:\n        /* \"@openzeppelin/contracts/access/Ownable.sol\":1422:1445  owner() == _msgSender() */\n      0xffffffffffffffffffffffffffffffffffffffff\n      and\n        /* \"@openzeppelin/contracts/access/Ownable.sol\":1422:1429  owner() */\n      tag_265\n        /* \"@openzeppelin/contracts/access/Ownable.sol\":1422:1427  owner */\n      tag_104\n        /* \"@openzeppelin/contracts/access/Ownable.sol\":1422:1429  owner() */\n      jump\t// in\n    tag_265:\n        /* \"@openzeppelin/contracts/access/Ownable.sol\":1422:1445  owner() == _msgSender() */\n      0xffffffffffffffffffffffffffffffffffffffff\n      and\n      eq\n        /* \"@openzeppelin/contracts/access/Ownable.sol\":1414:1482  require(owner() == _msgSender(), \"Ownable: caller is not the owner\") */\n      tag_266\n      jumpi\n      mload(0x40)\n      0x08c379a000000000000000000000000000000000000000000000000000000000\n      dup2\n      mstore\n      0x04\n      add\n      tag_267\n      swap1\n      tag_268\n      jump\t// in\n    tag_267:\n      mload(0x40)\n      dup1\n      swap2\n      sub\n      swap1\n      revert\n    tag_266:\n        /* \"@openzeppelin/contracts/access/Ownable.sol\":1359:1489  function _checkOwner() internal view virtual {... */\n      jump\t// out\n        /* \"v2/contracts/SoulSocietySBT.sol\":7361:8540  function _safeMint(address to_, uint256 tokenType_) internal virtual onlyOwner returns(uint256) {... */\n    tag_183:\n        /* \"v2/contracts/SoulSocietySBT.sol\":7448:7455  uint256 */\n      0x00\n        /* \"@openzeppelin/contracts/access/Ownable.sol\":1094:1107  _checkOwner() */\n      tag_270\n        /* \"@openzeppelin/contracts/access/Ownable.sol\":1094:1105  _checkOwner */\n      tag_180\n        /* \"@openzeppelin/contracts/access/Ownable.sol\":1094:1107  _checkOwner() */\n      jump\t// in\n    tag_270:\n        /* \"v2/contracts/SoulSocietySBT.sol\":7468:7483  uint256 tokenId */\n      0x00\n        /* \"v2/contracts/SoulSocietySBT.sol\":7500:7501  1 */\n      0x01\n        /* \"v2/contracts/SoulSocietySBT.sol\":7486:7497  _totalCount */\n      sload(0x05)\n        /* \"v2/contracts/SoulSocietySBT.sol\":7486:7501  _totalCount + 1 */\n      tag_272\n      swap2\n      swap1\n      tag_273\n      jump\t// in\n    tag_272:\n        /* \"v2/contracts/SoulSocietySBT.sol\":7468:7501  uint256 tokenId = _totalCount + 1 */\n      swap1\n      pop\n        /* \"v2/contracts/SoulSocietySBT.sol\":7536:7537  0 */\n      0x00\n        /* \"v2/contracts/SoulSocietySBT.sol\":7521:7538  to_ == address(0) */\n      0xffffffffffffffffffffffffffffffffffffffff\n      and\n        /* \"v2/contracts/SoulSocietySBT.sol\":7521:7524  to_ */\n      dup5\n        /* \"v2/contracts/SoulSocietySBT.sol\":7521:7538  to_ == address(0) */\n      0xffffffffffffffffffffffffffffffffffffffff\n      and\n      sub\n        /* \"v2/contracts/SoulSocietySBT.sol\":7517:7613  if (to_ == address(0)) {... */\n      tag_274\n      jumpi\n        /* \"v2/contracts/SoulSocietySBT.sol\":7599:7600  0 */\n      0x00\n        /* \"v2/contracts/SoulSocietySBT.sol\":7561:7602  SoulSocietySBTInvalidReceiver(address(0)) */\n      mload(0x40)\n      0x74f5e87d00000000000000000000000000000000000000000000000000000000\n      dup2\n      mstore\n      0x04\n      add\n      tag_275\n      swap2\n      swap1\n      tag_51\n      jump\t// in\n    tag_275:\n      mload(0x40)\n      dup1\n      swap2\n      sub\n      swap1\n      revert\n        /* \"v2/contracts/SoulSocietySBT.sol\":7517:7613  if (to_ == address(0)) {... */\n    tag_274:\n        /* \"v2/contracts/SoulSocietySBT.sol\":7627:7643  _exists(tokenId) */\n      tag_276\n        /* \"v2/contracts/SoulSocietySBT.sol\":7635:7642  tokenId */\n      dup2\n        /* \"v2/contracts/SoulSocietySBT.sol\":7627:7634  _exists */\n      tag_258\n        /* \"v2/contracts/SoulSocietySBT.sol\":7627:7643  _exists(tokenId) */\n      jump\t// in\n    tag_276:\n        /* \"v2/contracts/SoulSocietySBT.sol\":7623:7710  if (_exists(tokenId)) {... */\n      iszero\n      tag_277\n      jumpi\n        /* \"v2/contracts/SoulSocietySBT.sol\":7691:7698  tokenId */\n      dup1\n        /* \"v2/contracts/SoulSocietySBT.sol\":7666:7699  SoulSocietySBTExistToken(tokenId) */\n      mload(0x40)\n      0xf342bdc200000000000000000000000000000000000000000000000000000000\n      dup2\n      mstore\n      0x04\n      add\n      tag_278\n      swap2\n      swap1\n      tag_59\n      jump\t// in\n    tag_278:\n      mload(0x40)\n      dup1\n      swap2\n      sub\n      swap1\n      revert\n        /* \"v2/contracts/SoulSocietySBT.sol\":7623:7710  if (_exists(tokenId)) {... */\n    tag_277:\n        /* \"v2/contracts/SoulSocietySBT.sol\":7775:7792  _existsOwner(to_) */\n      tag_279\n        /* \"v2/contracts/SoulSocietySBT.sol\":7788:7791  to_ */\n      dup5\n        /* \"v2/contracts/SoulSocietySBT.sol\":7775:7787  _existsOwner */\n      tag_280\n        /* \"v2/contracts/SoulSocietySBT.sol\":7775:7792  _existsOwner(to_) */\n      jump\t// in\n    tag_279:\n        /* \"v2/contracts/SoulSocietySBT.sol\":7771:7834  if(!_existsOwner(to_)) {... */\n      tag_281\n      jumpi\n        /* \"v2/contracts/SoulSocietySBT.sol\":7822:7823  1 */\n      0x01\n        /* \"v2/contracts/SoulSocietySBT.sol\":7808:7818  _totalUser */\n      0x04\n      0x00\n        /* \"v2/contracts/SoulSocietySBT.sol\":7808:7823  _totalUser += 1 */\n      dup3\n      dup3\n      sload\n      tag_282\n      swap2\n      swap1\n      tag_273\n      jump\t// in\n    tag_282:\n      swap3\n      pop\n      pop\n      dup2\n      swap1\n      sstore\n      pop\n        /* \"v2/contracts/SoulSocietySBT.sol\":7771:7834  if(!_existsOwner(to_)) {... */\n    tag_281:\n        /* \"v2/contracts/SoulSocietySBT.sol\":8177:8178  1 */\n      0x01\n        /* \"v2/contracts/SoulSocietySBT.sol\":8159:8168  _balances */\n      0x09\n        /* \"v2/contracts/SoulSocietySBT.sol\":8159:8173  _balances[to_] */\n      0x00\n        /* \"v2/contracts/SoulSocietySBT.sol\":8169:8172  to_ */\n      dup7\n        /* \"v2/contracts/SoulSocietySBT.sol\":8159:8173  _balances[to_] */\n      0xffffffffffffffffffffffffffffffffffffffff\n      and\n      0xffffffffffffffffffffffffffffffffffffffff\n      and\n      dup2\n      mstore\n      0x20\n      add\n      swap1\n      dup2\n      mstore\n      0x20\n      add\n      0x00\n      keccak256\n      0x00\n        /* \"v2/contracts/SoulSocietySBT.sol\":8159:8178  _balances[to_] += 1 */\n      dup3\n      dup3\n      sload\n      add\n      swap3\n      pop\n      pop\n      dup2\n      swap1\n      sstore\n      pop\n        /* \"v2/contracts/SoulSocietySBT.sol\":8207:8208  1 */\n      0x01\n        /* \"v2/contracts/SoulSocietySBT.sol\":8192:8203  _totalCount */\n      0x05\n      0x00\n        /* \"v2/contracts/SoulSocietySBT.sol\":8192:8208  _totalCount += 1 */\n      dup3\n      dup3\n      sload\n      add\n      swap3\n      pop\n      pop\n      dup2\n      swap1\n      sstore\n      pop\n        /* \"v2/contracts/SoulSocietySBT.sol\":8261:8264  to_ */\n      dup4\n        /* \"v2/contracts/SoulSocietySBT.sol\":8242:8249  _owners */\n      0x06\n        /* \"v2/contracts/SoulSocietySBT.sol\":8242:8258  _owners[tokenId] */\n      0x00\n        /* \"v2/contracts/SoulSocietySBT.sol\":8250:8257  tokenId */\n      dup4\n        /* \"v2/contracts/SoulSocietySBT.sol\":8242:8258  _owners[tokenId] */\n      dup2\n      mstore\n      0x20\n      add\n      swap1\n      dup2\n      mstore\n      0x20\n      add\n      0x00\n      keccak256\n      0x00\n        /* \"v2/contracts/SoulSocietySBT.sol\":8242:8264  _owners[tokenId] = to_ */\n      0x0100\n      exp\n      dup2\n      sload\n      dup2\n      0xffffffffffffffffffffffffffffffffffffffff\n      mul\n      not\n      and\n      swap1\n      dup4\n      0xffffffffffffffffffffffffffffffffffffffff\n      and\n      mul\n      or\n      swap1\n      sstore\n      pop\n        /* \"v2/contracts/SoulSocietySBT.sol\":8297:8307  tokenType_ */\n      dup3\n        /* \"v2/contracts/SoulSocietySBT.sol\":8274:8285  _tokenTypes */\n      0x07\n        /* \"v2/contracts/SoulSocietySBT.sol\":8274:8294  _tokenTypes[tokenId] */\n      0x00\n        /* \"v2/contracts/SoulSocietySBT.sol\":8286:8293  tokenId */\n      dup4\n        /* \"v2/contracts/SoulSocietySBT.sol\":8274:8294  _tokenTypes[tokenId] */\n      dup2\n      mstore\n      0x20\n      add\n      swap1\n      dup2\n      mstore\n      0x20\n      add\n      0x00\n      keccak256\n        /* \"v2/contracts/SoulSocietySBT.sol\":8274:8307  _tokenTypes[tokenId] = tokenType_ */\n      dup2\n      swap1\n      sstore\n      pop\n        /* \"v2/contracts/SoulSocietySBT.sol\":8342:8343  1 */\n      0x01\n        /* \"v2/contracts/SoulSocietySBT.sol\":8317:8330  _tokenGrowths */\n      0x08\n        /* \"v2/contracts/SoulSocietySBT.sol\":8317:8339  _tokenGrowths[tokenId] */\n      0x00\n        /* \"v2/contracts/SoulSocietySBT.sol\":8331:8338  tokenId */\n      dup4\n        /* \"v2/contracts/SoulSocietySBT.sol\":8317:8339  _tokenGrowths[tokenId] */\n      dup2\n      mstore\n      0x20\n      add\n      swap1\n      dup2\n      mstore\n      0x20\n      add\n      0x00\n      keccak256\n        /* \"v2/contracts/SoulSocietySBT.sol\":8317:8343  _tokenGrowths[tokenId] = 1 */\n      dup2\n      swap1\n      sstore\n      pop\n        /* \"v2/contracts/SoulSocietySBT.sol\":8374:8379  false */\n      0x00\n        /* \"v2/contracts/SoulSocietySBT.sol\":8353:8366  _userProtects */\n      0x0a\n        /* \"v2/contracts/SoulSocietySBT.sol\":8353:8371  _userProtects[to_] */\n      0x00\n        /* \"v2/contracts/SoulSocietySBT.sol\":8367:8370  to_ */\n      dup7\n        /* \"v2/contracts/SoulSocietySBT.sol\":8353:8371  _userProtects[to_] */\n      0xffffffffffffffffffffffffffffffffffffffff\n      and\n      0xffffffffffffffffffffffffffffffffffffffff\n      and\n      dup2\n      mstore\n      0x20\n      add\n      swap1\n      dup2\n      mstore\n      0x20\n      add\n      0x00\n      keccak256\n      0x00\n        /* \"v2/contracts/SoulSocietySBT.sol\":8353:8379  _userProtects[to_] = false */\n      0x0100\n      exp\n      dup2\n      sload\n      dup2\n      0xff\n      mul\n      not\n      and\n      swap1\n      dup4\n      iszero\n      iszero\n      mul\n      or\n      swap1\n      sstore\n      pop\n        /* \"v2/contracts/SoulSocietySBT.sol\":8427:8434  tokenId */\n      dup1\n        /* \"v2/contracts/SoulSocietySBT.sol\":8389:8401  _ownedTokens */\n      0x0b\n        /* \"v2/contracts/SoulSocietySBT.sol\":8389:8406  _ownedTokens[to_] */\n      0x00\n        /* \"v2/contracts/SoulSocietySBT.sol\":8402:8405  to_ */\n      dup7\n        /* \"v2/contracts/SoulSocietySBT.sol\":8389:8406  _ownedTokens[to_] */\n      0xffffffffffffffffffffffffffffffffffffffff\n      and\n      0xffffffffffffffffffffffffffffffffffffffff\n      and\n      dup2\n      mstore\n      0x20\n      add\n      swap1\n      dup2\n      mstore\n      0x20\n      add\n      0x00\n      keccak256\n        /* \"v2/contracts/SoulSocietySBT.sol\":8389:8424  _ownedTokens[to_][_balances[to_]-1] */\n      0x00\n        /* \"v2/contracts/SoulSocietySBT.sol\":8422:8423  1 */\n      0x01\n        /* \"v2/contracts/SoulSocietySBT.sol\":8407:8416  _balances */\n      0x09\n        /* \"v2/contracts/SoulSocietySBT.sol\":8407:8421  _balances[to_] */\n      0x00\n        /* \"v2/contracts/SoulSocietySBT.sol\":8417:8420  to_ */\n      dup10\n        /* \"v2/contracts/SoulSocietySBT.sol\":8407:8421  _balances[to_] */\n      0xffffffffffffffffffffffffffffffffffffffff\n      and\n      0xffffffffffffffffffffffffffffffffffffffff\n      and\n      dup2\n      mstore\n      0x20\n      add\n      swap1\n      dup2\n      mstore\n      0x20\n      add\n      0x00\n      keccak256\n      sload\n        /* \"v2/contracts/SoulSocietySBT.sol\":8407:8423  _balances[to_]-1 */\n      tag_283\n      swap2\n      swap1\n      tag_284\n      jump\t// in\n    tag_283:\n        /* \"v2/contracts/SoulSocietySBT.sol\":8389:8424  _ownedTokens[to_][_balances[to_]-1] */\n      dup2\n      mstore\n      0x20\n      add\n      swap1\n      dup2\n      mstore\n      0x20\n      add\n      0x00\n      keccak256\n        /* \"v2/contracts/SoulSocietySBT.sol\":8389:8434  _ownedTokens[to_][_balances[to_]-1] = tokenId */\n      dup2\n      swap1\n      sstore\n      pop\n        /* \"v2/contracts/SoulSocietySBT.sol\":8497:8507  tokenType_ */\n      dup3\n        /* \"v2/contracts/SoulSocietySBT.sol\":8488:8495  tokenId */\n      dup2\n        /* \"v2/contracts/SoulSocietySBT.sol\":8483:8486  to_ */\n      dup6\n        /* \"v2/contracts/SoulSocietySBT.sol\":8466:8508  Mint(address(0), to_, tokenId, tokenType_) */\n      0xffffffffffffffffffffffffffffffffffffffff\n      and\n      0x2f00e3cdd69a77be7ed215ec7b2a36784dd158f921fca79ac29deffa353fe6ee\n        /* \"v2/contracts/SoulSocietySBT.sol\":8479:8480  0 */\n      0x00\n        /* \"v2/contracts/SoulSocietySBT.sol\":8466:8508  Mint(address(0), to_, tokenId, tokenType_) */\n      mload(0x40)\n      tag_285\n      swap2\n      swap1\n      tag_51\n      jump\t// in\n    tag_285:\n      mload(0x40)\n      dup1\n      swap2\n      sub\n      swap1\n      log4\n        /* \"v2/contracts/SoulSocietySBT.sol\":8526:8533  tokenId */\n      dup1\n        /* \"v2/contracts/SoulSocietySBT.sol\":8519:8533  return tokenId */\n      swap2\n      pop\n      pop\n        /* \"v2/contracts/SoulSocietySBT.sol\":7361:8540  function _safeMint(address to_, uint256 tokenType_) internal virtual onlyOwner returns(uint256) {... */\n      swap3\n      swap2\n      pop\n      pop\n      jump\t// out\n        /* \"@openzeppelin/contracts/access/Ownable.sol\":2426:2613  function _transferOwnership(address newOwner) internal virtual {... */\n    tag_196:\n        /* \"@openzeppelin/contracts/access/Ownable.sol\":2499:2515  address oldOwner */\n      0x00\n        /* \"@openzeppelin/contracts/access/Ownable.sol\":2518:2524  _owner */\n      dup1\n      0x00\n      swap1\n      sload\n      swap1\n      0x0100\n      exp\n      swap1\n      div\n      0xffffffffffffffffffffffffffffffffffffffff\n      and\n        /* \"@openzeppelin/contracts/access/Ownable.sol\":2499:2524  address oldOwner = _owner */\n      swap1\n      pop\n        /* \"@openzeppelin/contracts/access/Ownable.sol\":2543:2551  newOwner */\n      dup2\n        /* \"@openzeppelin/contracts/access/Ownable.sol\":2534:2540  _owner */\n      0x00\n      dup1\n        /* \"@openzeppelin/contracts/access/Ownable.sol\":2534:2551  _owner = newOwner */\n      0x0100\n      exp\n      dup2\n      sload\n      dup2\n      0xffffffffffffffffffffffffffffffffffffffff\n      mul\n      not\n      and\n      swap1\n      dup4\n      0xffffffffffffffffffffffffffffffffffffffff\n      and\n      mul\n      or\n      swap1\n      sstore\n      pop\n        /* \"@openzeppelin/contracts/access/Ownable.sol\":2597:2605  newOwner */\n      dup2\n        /* \"@openzeppelin/contracts/access/Ownable.sol\":2566:2606  OwnershipTransferred(oldOwner, newOwner) */\n      0xffffffffffffffffffffffffffffffffffffffff\n      and\n        /* \"@openzeppelin/contracts/access/Ownable.sol\":2587:2595  oldOwner */\n      dup2\n        /* \"@openzeppelin/contracts/access/Ownable.sol\":2566:2606  OwnershipTransferred(oldOwner, newOwner) */\n      0xffffffffffffffffffffffffffffffffffffffff\n      and\n      0x8be0079c531659141344cd1fd0a4f28419497f9722a3daafe3b4186f6b6457e0\n      mload(0x40)\n      mload(0x40)\n      dup1\n      swap2\n      sub\n      swap1\n      log3\n        /* \"@openzeppelin/contracts/access/Ownable.sol\":2489:2613  {... */\n      pop\n        /* \"@openzeppelin/contracts/access/Ownable.sol\":2426:2613  function _transferOwnership(address newOwner) internal virtual {... */\n      pop\n      jump\t// out\n        /* \"v2/contracts/SoulSocietySBT.sol\":9918:10235  function _growUp(address to_, uint256 tokenId_) internal onlyOwner returns(uint256) {... */\n    tag_219:\n        /* \"v2/contracts/SoulSocietySBT.sol\":9993:10000  uint256 */\n      0x00\n        /* \"@openzeppelin/contracts/access/Ownable.sol\":1094:1107  _checkOwner() */\n      tag_288\n        /* \"@openzeppelin/contracts/access/Ownable.sol\":1094:1105  _checkOwner */\n      tag_180\n        /* \"@openzeppelin/contracts/access/Ownable.sol\":1094:1107  _checkOwner() */\n      jump\t// in\n    tag_288:\n        /* \"v2/contracts/SoulSocietySBT.sol\":10057:10088  _requireMintedOf(to_, tokenId_) */\n      tag_290\n        /* \"v2/contracts/SoulSocietySBT.sol\":10074:10077  to_ */\n      dup4\n        /* \"v2/contracts/SoulSocietySBT.sol\":10079:10087  tokenId_ */\n      dup4\n        /* \"v2/contracts/SoulSocietySBT.sol\":10057:10073  _requireMintedOf */\n      tag_291\n        /* \"v2/contracts/SoulSocietySBT.sol\":10057:10088  _requireMintedOf(to_, tokenId_) */\n      jump\t// in\n    tag_290:\n        /* \"v2/contracts/SoulSocietySBT.sol\":10099:10118  uint256 tokenGrowth */\n      0x00\n        /* \"v2/contracts/SoulSocietySBT.sol\":10148:10149  1 */\n      0x01\n        /* \"v2/contracts/SoulSocietySBT.sol\":10121:10134  _tokenGrowths */\n      0x08\n        /* \"v2/contracts/SoulSocietySBT.sol\":10121:10144  _tokenGrowths[tokenId_] */\n      0x00\n        /* \"v2/contracts/SoulSocietySBT.sol\":10135:10143  tokenId_ */\n      dup6\n        /* \"v2/contracts/SoulSocietySBT.sol\":10121:10144  _tokenGrowths[tokenId_] */\n      dup2\n      mstore\n      0x20\n      add\n      swap1\n      dup2\n      mstore\n      0x20\n      add\n      0x00\n      keccak256\n      0x00\n        /* \"v2/contracts/SoulSocietySBT.sol\":10121:10149  _tokenGrowths[tokenId_] += 1 */\n      dup3\n      dup3\n      sload\n      tag_292\n      swap2\n      swap1\n      tag_273\n      jump\t// in\n    tag_292:\n      swap3\n      pop\n      pop\n      dup2\n      swap1\n      sstore\n        /* \"v2/contracts/SoulSocietySBT.sol\":10099:10149  uint256 tokenGrowth = _tokenGrowths[tokenId_] += 1 */\n      swap1\n      pop\n        /* \"v2/contracts/SoulSocietySBT.sol\":10187:10198  tokenGrowth */\n      dup1\n        /* \"v2/contracts/SoulSocietySBT.sol\":10172:10175  to_ */\n      dup5\n        /* \"v2/contracts/SoulSocietySBT.sol\":10165:10199  GrowUp(to_, tokenId_, tokenGrowth) */\n      0xffffffffffffffffffffffffffffffffffffffff\n      and\n      0x48ffd7fdb1c1a0561a2d410317f6bb839aab64898de6fc73ee703a9c0dc0a36c\n        /* \"v2/contracts/SoulSocietySBT.sol\":10177:10185  tokenId_ */\n      dup6\n        /* \"v2/contracts/SoulSocietySBT.sol\":10165:10199  GrowUp(to_, tokenId_, tokenGrowth) */\n      mload(0x40)\n      tag_293\n      swap2\n      swap1\n      tag_59\n      jump\t// in\n    tag_293:\n      mload(0x40)\n      dup1\n      swap2\n      sub\n      swap1\n      log3\n        /* \"v2/contracts/SoulSocietySBT.sol\":10217:10228  tokenGrowth */\n      dup1\n        /* \"v2/contracts/SoulSocietySBT.sol\":10210:10228  return tokenGrowth */\n      swap2\n      pop\n      pop\n        /* \"v2/contracts/SoulSocietySBT.sol\":9918:10235  function _growUp(address to_, uint256 tokenId_) internal onlyOwner returns(uint256) {... */\n      swap3\n      swap2\n      pop\n      pop\n      jump\t// out\n        /* \"v2/contracts/SoulSocietySBT.sol\":11653:11826  function _requireMinted(uint256 tokenId) internal view virtual {... */\n    tag_222:\n        /* \"v2/contracts/SoulSocietySBT.sol\":11731:11747  _exists(tokenId) */\n      tag_295\n        /* \"v2/contracts/SoulSocietySBT.sol\":11739:11746  tokenId */\n      dup2\n        /* \"v2/contracts/SoulSocietySBT.sol\":11731:11738  _exists */\n      tag_258\n        /* \"v2/contracts/SoulSocietySBT.sol\":11731:11747  _exists(tokenId) */\n      jump\t// in\n    tag_295:\n        /* \"v2/contracts/SoulSocietySBT.sol\":11726:11820  if (!_exists(tokenId)) {... */\n      tag_296\n      jumpi\n        /* \"v2/contracts/SoulSocietySBT.sol\":11801:11808  tokenId */\n      dup1\n        /* \"v2/contracts/SoulSocietySBT.sol\":11770:11809  SoulSocietySBTNonexistentToken(tokenId) */\n      mload(0x40)\n      0x24476a3f00000000000000000000000000000000000000000000000000000000\n      dup2\n      mstore\n      0x04\n      add\n      tag_297\n      swap2\n      swap1\n      tag_59\n      jump\t// in\n    tag_297:\n      mload(0x40)\n      dup1\n      swap2\n      sub\n      swap1\n      revert\n        /* \"v2/contracts/SoulSocietySBT.sol\":11726:11820  if (!_exists(tokenId)) {... */\n    tag_296:\n        /* \"v2/contracts/SoulSocietySBT.sol\":11653:11826  function _requireMinted(uint256 tokenId) internal view virtual {... */\n      pop\n      jump\t// out\n        /* \"@openzeppelin/contracts/utils/Strings.sol\":447:1143  function toString(uint256 value) internal pure returns (string memory) {... */\n    tag_225:\n        /* \"@openzeppelin/contracts/utils/Strings.sol\":503:516  string memory */\n      0x60\n        /* \"@openzeppelin/contracts/utils/Strings.sol\":552:566  uint256 length */\n      0x00\n        /* \"@openzeppelin/contracts/utils/Strings.sol\":589:590  1 */\n      0x01\n        /* \"@openzeppelin/contracts/utils/Strings.sol\":569:586  Math.log10(value) */\n      tag_299\n        /* \"@openzeppelin/contracts/utils/Strings.sol\":580:585  value */\n      dup5\n        /* \"@openzeppelin/contracts/utils/Strings.sol\":569:579  Math.log10 */\n      tag_300\n        /* \"@openzeppelin/contracts/utils/Strings.sol\":569:586  Math.log10(value) */\n      jump\t// in\n    tag_299:\n        /* \"@openzeppelin/contracts/utils/Strings.sol\":569:590  Math.log10(value) + 1 */\n      add\n        /* \"@openzeppelin/contracts/utils/Strings.sol\":552:590  uint256 length = Math.log10(value) + 1 */\n      swap1\n      pop\n        /* \"@openzeppelin/contracts/utils/Strings.sol\":604:624  string memory buffer */\n      0x00\n        /* \"@openzeppelin/contracts/utils/Strings.sol\":638:644  length */\n      dup2\n        /* \"@openzeppelin/contracts/utils/Strings.sol\":627:645  new string(length) */\n      0xffffffffffffffff\n      dup2\n      gt\n      iszero\n      tag_301\n      jumpi\n      tag_302\n      tag_303\n      jump\t// in\n    tag_302:\n    tag_301:\n      mload(0x40)\n      swap1\n      dup1\n      dup3\n      mstore\n      dup1\n      0x1f\n      add\n      not(0x1f)\n      and\n      0x20\n      add\n      dup3\n      add\n      0x40\n      mstore\n      dup1\n      iszero\n      tag_304\n      jumpi\n      dup2\n      0x20\n      add\n      0x01\n      dup3\n      mul\n      dup1\n      calldatasize\n      dup4\n      calldatacopy\n      dup1\n      dup3\n      add\n      swap2\n      pop\n      pop\n      swap1\n      pop\n    tag_304:\n      pop\n        /* \"@openzeppelin/contracts/utils/Strings.sol\":604:645  string memory buffer = new string(length) */\n      swap1\n      pop\n        /* \"@openzeppelin/contracts/utils/Strings.sol\":659:670  uint256 ptr */\n      0x00\n        /* \"@openzeppelin/contracts/utils/Strings.sol\":785:791  length */\n      dup3\n        /* \"@openzeppelin/contracts/utils/Strings.sol\":781:783  32 */\n      0x20\n        /* \"@openzeppelin/contracts/utils/Strings.sol\":777:792  add(32, length) */\n      add\n        /* \"@openzeppelin/contracts/utils/Strings.sol\":769:775  buffer */\n      dup3\n        /* \"@openzeppelin/contracts/utils/Strings.sol\":765:793  add(buffer, add(32, length)) */\n      add\n        /* \"@openzeppelin/contracts/utils/Strings.sol\":758:793  ptr := add(buffer, add(32, length)) */\n      swap1\n      pop\n        /* \"@openzeppelin/contracts/utils/Strings.sol\":820:1100  while (true) {... */\n    tag_305:\n        /* \"@openzeppelin/contracts/utils/Strings.sol\":827:831  true */\n      0x01\n        /* \"@openzeppelin/contracts/utils/Strings.sol\":820:1100  while (true) {... */\n      iszero\n      tag_306\n      jumpi\n        /* \"@openzeppelin/contracts/utils/Strings.sol\":851:856  ptr-- */\n      dup1\n      dup1\n      0x01\n      swap1\n      sub\n      swap2\n      pop\n      pop\n        /* \"@openzeppelin/contracts/utils/Strings.sol\":990:998  _SYMBOLS */\n      0x3031323334353637383961626364656600000000000000000000000000000000\n        /* \"@openzeppelin/contracts/utils/Strings.sol\":985:987  10 */\n      0x0a\n        /* \"@openzeppelin/contracts/utils/Strings.sol\":978:983  value */\n      dup7\n        /* \"@openzeppelin/contracts/utils/Strings.sol\":974:988  mod(value, 10) */\n      mod\n        /* \"@openzeppelin/contracts/utils/Strings.sol\":969:999  byte(mod(value, 10), _SYMBOLS) */\n      byte\n        /* \"@openzeppelin/contracts/utils/Strings.sol\":964:967  ptr */\n      dup2\n        /* \"@openzeppelin/contracts/utils/Strings.sol\":956:1000  mstore8(ptr, byte(mod(value, 10), _SYMBOLS)) */\n      mstore8\n        /* \"@openzeppelin/contracts/utils/Strings.sol\":1044:1046  10 */\n      0x0a\n        /* \"@openzeppelin/contracts/utils/Strings.sol\":1035:1046  value /= 10 */\n      dup6\n      dup2\n      tag_307\n      jumpi\n      tag_308\n      tag_309\n      jump\t// in\n    tag_308:\n    tag_307:\n      div\n      swap5\n      pop\n        /* \"@openzeppelin/contracts/utils/Strings.sol\":1077:1078  0 */\n      0x00\n        /* \"@openzeppelin/contracts/utils/Strings.sol\":1068:1073  value */\n      dup6\n        /* \"@openzeppelin/contracts/utils/Strings.sol\":1068:1078  value == 0 */\n      sub\n        /* \"@openzeppelin/contracts/utils/Strings.sol\":820:1100  while (true) {... */\n      tag_305\n        /* \"@openzeppelin/contracts/utils/Strings.sol\":1064:1085  if (value == 0) break */\n      jumpi\n        /* \"@openzeppelin/contracts/utils/Strings.sol\":820:1100  while (true) {... */\n    tag_306:\n        /* \"@openzeppelin/contracts/utils/Strings.sol\":1120:1126  buffer */\n      dup2\n        /* \"@openzeppelin/contracts/utils/Strings.sol\":1113:1126  return buffer */\n      swap4\n      pop\n      pop\n      pop\n      pop\n        /* \"@openzeppelin/contracts/utils/Strings.sol\":447:1143  function toString(uint256 value) internal pure returns (string memory) {... */\n      swap2\n      swap1\n      pop\n      jump\t// out\n        /* \"v2/contracts/SoulSocietySBT.sol\":4751:4956  function _isProtected(address to_) internal view returns (bool) {        ... */\n    tag_231:\n        /* \"v2/contracts/SoulSocietySBT.sol\":4809:4813  bool */\n      0x00\n        /* \"v2/contracts/SoulSocietySBT.sol\":4859:4863  true */\n      0x01\n        /* \"v2/contracts/SoulSocietySBT.sol\":4837:4863  _userProtects[to_] == true */\n      iszero\n      iszero\n        /* \"v2/contracts/SoulSocietySBT.sol\":4837:4850  _userProtects */\n      0x0a\n        /* \"v2/contracts/SoulSocietySBT.sol\":4837:4855  _userProtects[to_] */\n      0x00\n        /* \"v2/contracts/SoulSocietySBT.sol\":4851:4854  to_ */\n      dup5\n        /* \"v2/contracts/SoulSocietySBT.sol\":4837:4855  _userProtects[to_] */\n      0xffffffffffffffffffffffffffffffffffffffff\n      and\n      0xffffffffffffffffffffffffffffffffffffffff\n      and\n      dup2\n      mstore\n      0x20\n      add\n      swap1\n      dup2\n      mstore\n      0x20\n      add\n      0x00\n      keccak256\n      0x00\n      swap1\n      sload\n      swap1\n      0x0100\n      exp\n      swap1\n      div\n      0xff\n      and\n        /* \"v2/contracts/SoulSocietySBT.sol\":4837:4863  _userProtects[to_] == true */\n      iszero\n      iszero\n      sub\n        /* \"v2/contracts/SoulSocietySBT.sol\":4833:4917  if (_userProtects[to_] == true)... */\n      tag_312\n      jumpi\n        /* \"v2/contracts/SoulSocietySBT.sol\":4913:4916  to_ */\n      dup2\n        /* \"v2/contracts/SoulSocietySBT.sol\":4884:4917  SoulSocietySBTProtectedOwner(to_) */\n      mload(0x40)\n      0x904e928b00000000000000000000000000000000000000000000000000000000\n      dup2\n      mstore\n      0x04\n      add\n      tag_313\n      swap2\n      swap1\n      tag_51\n      jump\t// in\n    tag_313:\n      mload(0x40)\n      dup1\n      swap2\n      sub\n      swap1\n      revert\n        /* \"v2/contracts/SoulSocietySBT.sol\":4833:4917  if (_userProtects[to_] == true)... */\n    tag_312:\n        /* \"v2/contracts/SoulSocietySBT.sol\":4943:4948  false */\n      0x00\n        /* \"v2/contracts/SoulSocietySBT.sol\":4936:4948  return false */\n      swap1\n      pop\n        /* \"v2/contracts/SoulSocietySBT.sol\":4751:4956  function _isProtected(address to_) internal view returns (bool) {        ... */\n      swap2\n      swap1\n      pop\n      jump\t// out\n        /* \"v2/contracts/SoulSocietySBT.sol\":9290:9416  function _exists(uint256 tokenId) internal view virtual returns (bool) {... */\n    tag_258:\n        /* \"v2/contracts/SoulSocietySBT.sol\":9355:9359  bool */\n      0x00\n        /* \"v2/contracts/SoulSocietySBT.sol\":9407:9408  0 */\n      dup1\n        /* \"v2/contracts/SoulSocietySBT.sol\":9378:9409  _ownerOf(tokenId) != address(0) */\n      0xffffffffffffffffffffffffffffffffffffffff\n      and\n        /* \"v2/contracts/SoulSocietySBT.sol\":9378:9395  _ownerOf(tokenId) */\n      tag_315\n        /* \"v2/contracts/SoulSocietySBT.sol\":9387:9394  tokenId */\n      dup4\n        /* \"v2/contracts/SoulSocietySBT.sol\":9378:9386  _ownerOf */\n      tag_316\n        /* \"v2/contracts/SoulSocietySBT.sol\":9378:9395  _ownerOf(tokenId) */\n      jump\t// in\n    tag_315:\n        /* \"v2/contracts/SoulSocietySBT.sol\":9378:9409  _ownerOf(tokenId) != address(0) */\n      0xffffffffffffffffffffffffffffffffffffffff\n      and\n      eq\n      iszero\n        /* \"v2/contracts/SoulSocietySBT.sol\":9371:9409  return _ownerOf(tokenId) != address(0) */\n      swap1\n      pop\n        /* \"v2/contracts/SoulSocietySBT.sol\":9290:9416  function _exists(uint256 tokenId) internal view virtual returns (bool) {... */\n      swap2\n      swap1\n      pop\n      jump\t// out\n        /* \"@openzeppelin/contracts/utils/Context.sol\":640:736  function _msgSender() internal view virtual returns (address) {... */\n    tag_264:\n        /* \"@openzeppelin/contracts/utils/Context.sol\":693:700  address */\n      0x00\n        /* \"@openzeppelin/contracts/utils/Context.sol\":719:729  msg.sender */\n      caller\n        /* \"@openzeppelin/contracts/utils/Context.sol\":712:729  return msg.sender */\n      swap1\n      pop\n        /* \"@openzeppelin/contracts/utils/Context.sol\":640:736  function _msgSender() internal view virtual returns (address) {... */\n      swap1\n      jump\t// out\n        /* \"v2/contracts/SoulSocietySBT.sol\":9422:9535  function _existsOwner(address to) internal view virtual returns (bool) {... */\n    tag_280:\n        /* \"v2/contracts/SoulSocietySBT.sol\":9487:9491  bool */\n      0x00\n        /* \"v2/contracts/SoulSocietySBT.sol\":9527:9528  0 */\n      dup1\n        /* \"v2/contracts/SoulSocietySBT.sol\":9510:9519  _balances */\n      0x09\n        /* \"v2/contracts/SoulSocietySBT.sol\":9510:9523  _balances[to] */\n      0x00\n        /* \"v2/contracts/SoulSocietySBT.sol\":9520:9522  to */\n      dup5\n        /* \"v2/contracts/SoulSocietySBT.sol\":9510:9523  _balances[to] */\n      0xffffffffffffffffffffffffffffffffffffffff\n      and\n      0xffffffffffffffffffffffffffffffffffffffff\n      and\n      dup2\n      mstore\n      0x20\n      add\n      swap1\n      dup2\n      mstore\n      0x20\n      add\n      0x00\n      keccak256\n      sload\n        /* \"v2/contracts/SoulSocietySBT.sol\":9510:9528  _balances[to] != 0 */\n      eq\n      iszero\n        /* \"v2/contracts/SoulSocietySBT.sol\":9503:9528  return _balances[to] != 0 */\n      swap1\n      pop\n        /* \"v2/contracts/SoulSocietySBT.sol\":9422:9535  function _existsOwner(address to) internal view virtual returns (bool) {... */\n      swap2\n      swap1\n      pop\n      jump\t// out\n        /* \"v2/contracts/SoulSocietySBT.sol\":11953:12136  function _requireMintedOf(address to, uint256 tokenId) internal view virtual {... */\n    tag_291:\n        /* \"v2/contracts/SoulSocietySBT.sol\":12064:12066  to */\n      dup2\n        /* \"v2/contracts/SoulSocietySBT.sol\":12043:12066  _ownerOf(tokenId) != to */\n      0xffffffffffffffffffffffffffffffffffffffff\n      and\n        /* \"v2/contracts/SoulSocietySBT.sol\":12043:12060  _ownerOf(tokenId) */\n      tag_320\n        /* \"v2/contracts/SoulSocietySBT.sol\":12052:12059  tokenId */\n      dup3\n        /* \"v2/contracts/SoulSocietySBT.sol\":12043:12051  _ownerOf */\n      tag_316\n        /* \"v2/contracts/SoulSocietySBT.sol\":12043:12060  _ownerOf(tokenId) */\n      jump\t// in\n    tag_320:\n        /* \"v2/contracts/SoulSocietySBT.sol\":12043:12066  _ownerOf(tokenId) != to */\n      0xffffffffffffffffffffffffffffffffffffffff\n      and\n      eq\n        /* \"v2/contracts/SoulSocietySBT.sol\":12040:12130  if(_ownerOf(tokenId) != to) {... */\n      tag_321\n      jumpi\n        /* \"v2/contracts/SoulSocietySBT.sol\":12116:12118  to */\n      dup2\n        /* \"v2/contracts/SoulSocietySBT.sol\":12089:12119  SoulSocietySBTInvalidOwner(to) */\n      mload(0x40)\n      0x5015929900000000000000000000000000000000000000000000000000000000\n      dup2\n      mstore\n      0x04\n      add\n      tag_322\n      swap2\n      swap1\n      tag_51\n      jump\t// in\n    tag_322:\n      mload(0x40)\n      dup1\n      swap2\n      sub\n      swap1\n      revert\n        /* \"v2/contracts/SoulSocietySBT.sol\":12040:12130  if(_ownerOf(tokenId) != to) {... */\n    tag_321:\n        /* \"v2/contracts/SoulSocietySBT.sol\":11953:12136  function _requireMintedOf(address to, uint256 tokenId) internal view virtual {... */\n      pop\n      pop\n      jump\t// out\n        /* \"@openzeppelin/contracts/utils/math/Math.sol\":10139:11055  function log10(uint256 value) internal pure returns (uint256) {... */\n    tag_300:\n        /* \"@openzeppelin/contracts/utils/math/Math.sol\":10192:10199  uint256 */\n      0x00\n        /* \"@openzeppelin/contracts/utils/math/Math.sol\":10211:10225  uint256 result */\n      dup1\n        /* \"@openzeppelin/contracts/utils/math/Math.sol\":10228:10229  0 */\n      0x00\n        /* \"@openzeppelin/contracts/utils/math/Math.sol\":10211:10229  uint256 result = 0 */\n      swap1\n      pop\n        /* \"@openzeppelin/contracts/utils/math/Math.sol\":10276:10284  10 ** 64 */\n      0x184f03e93ff9f4daa797ed6e38ed64bf6a1f010000000000000000\n        /* \"@openzeppelin/contracts/utils/math/Math.sol\":10267:10272  value */\n      dup4\n        /* \"@openzeppelin/contracts/utils/math/Math.sol\":10267:10284  value >= 10 ** 64 */\n      lt\n        /* \"@openzeppelin/contracts/utils/math/Math.sol\":10263:10366  if (value >= 10 ** 64) {... */\n      tag_324\n      jumpi\n        /* \"@openzeppelin/contracts/utils/math/Math.sol\":10313:10321  10 ** 64 */\n      0x184f03e93ff9f4daa797ed6e38ed64bf6a1f010000000000000000\n        /* \"@openzeppelin/contracts/utils/math/Math.sol\":10304:10321  value /= 10 ** 64 */\n      dup4\n      dup2\n      tag_325\n      jumpi\n      tag_326\n      tag_309\n      jump\t// in\n    tag_326:\n    tag_325:\n      div\n      swap3\n      pop\n        /* \"@openzeppelin/contracts/utils/math/Math.sol\":10349:10351  64 */\n      0x40\n        /* \"@openzeppelin/contracts/utils/math/Math.sol\":10339:10351  result += 64 */\n      dup2\n      add\n      swap1\n      pop\n        /* \"@openzeppelin/contracts/utils/math/Math.sol\":10263:10366  if (value >= 10 ** 64) {... */\n    tag_324:\n        /* \"@openzeppelin/contracts/utils/math/Math.sol\":10392:10400  10 ** 32 */\n      0x04ee2d6d415b85acef8100000000\n        /* \"@openzeppelin/contracts/utils/math/Math.sol\":10383:10388  value */\n      dup4\n        /* \"@openzeppelin/contracts/utils/math/Math.sol\":10383:10400  value >= 10 ** 32 */\n      lt\n        /* \"@openzeppelin/contracts/utils/math/Math.sol\":10379:10482  if (value >= 10 ** 32) {... */\n      tag_327\n      jumpi\n        /* \"@openzeppelin/contracts/utils/math/Math.sol\":10429:10437  10 ** 32 */\n      0x04ee2d6d415b85acef8100000000\n        /* \"@openzeppelin/contracts/utils/math/Math.sol\":10420:10437  value /= 10 ** 32 */\n      dup4\n      dup2\n      tag_328\n      jumpi\n      tag_329\n      tag_309\n      jump\t// in\n    tag_329:\n    tag_328:\n      div\n      swap3\n      pop\n        /* \"@openzeppelin/contracts/utils/math/Math.sol\":10465:10467  32 */\n      0x20\n        /* \"@openzeppelin/contracts/utils/math/Math.sol\":10455:10467  result += 32 */\n      dup2\n      add\n      swap1\n      pop\n        /* \"@openzeppelin/contracts/utils/math/Math.sol\":10379:10482  if (value >= 10 ** 32) {... */\n    tag_327:\n        /* \"@openzeppelin/contracts/utils/math/Math.sol\":10508:10516  10 ** 16 */\n      0x2386f26fc10000\n        /* \"@openzeppelin/contracts/utils/math/Math.sol\":10499:10504  value */\n      dup4\n        /* \"@openzeppelin/contracts/utils/math/Math.sol\":10499:10516  value >= 10 ** 16 */\n      lt\n        /* \"@openzeppelin/contracts/utils/math/Math.sol\":10495:10598  if (value >= 10 ** 16) {... */\n      tag_330\n      jumpi\n        /* \"@openzeppelin/contracts/utils/math/Math.sol\":10545:10553  10 ** 16 */\n      0x2386f26fc10000\n        /* \"@openzeppelin/contracts/utils/math/Math.sol\":10536:10553  value /= 10 ** 16 */\n      dup4\n      dup2\n      tag_331\n      jumpi\n      tag_332\n      tag_309\n      jump\t// in\n    tag_332:\n    tag_331:\n      div\n      swap3\n      pop\n        /* \"@openzeppelin/contracts/utils/math/Math.sol\":10581:10583  16 */\n      0x10\n        /* \"@openzeppelin/contracts/utils/math/Math.sol\":10571:10583  result += 16 */\n      dup2\n      add\n      swap1\n      pop\n        /* \"@openzeppelin/contracts/utils/math/Math.sol\":10495:10598  if (value >= 10 ** 16) {... */\n    tag_330:\n        /* \"@openzeppelin/contracts/utils/math/Math.sol\":10624:10631  10 ** 8 */\n      0x05f5e100\n        /* \"@openzeppelin/contracts/utils/math/Math.sol\":10615:10620  value */\n      dup4\n        /* \"@openzeppelin/contracts/utils/math/Math.sol\":10615:10631  value >= 10 ** 8 */\n      lt\n        /* \"@openzeppelin/contracts/utils/math/Math.sol\":10611:10711  if (value >= 10 ** 8) {... */\n      tag_333\n      jumpi\n        /* \"@openzeppelin/contracts/utils/math/Math.sol\":10660:10667  10 ** 8 */\n      0x05f5e100\n        /* \"@openzeppelin/contracts/utils/math/Math.sol\":10651:10667  value /= 10 ** 8 */\n      dup4\n      dup2\n      tag_334\n      jumpi\n      tag_335\n      tag_309\n      jump\t// in\n    tag_335:\n    tag_334:\n      div\n      swap3\n      pop\n        /* \"@openzeppelin/contracts/utils/math/Math.sol\":10695:10696  8 */\n      0x08\n        /* \"@openzeppelin/contracts/utils/math/Math.sol\":10685:10696  result += 8 */\n      dup2\n      add\n      swap1\n      pop\n        /* \"@openzeppelin/contracts/utils/math/Math.sol\":10611:10711  if (value >= 10 ** 8) {... */\n    tag_333:\n        /* \"@openzeppelin/contracts/utils/math/Math.sol\":10737:10744  10 ** 4 */\n      0x2710\n        /* \"@openzeppelin/contracts/utils/math/Math.sol\":10728:10733  value */\n      dup4\n        /* \"@openzeppelin/contracts/utils/math/Math.sol\":10728:10744  value >= 10 ** 4 */\n      lt\n        /* \"@openzeppelin/contracts/utils/math/Math.sol\":10724:10824  if (value >= 10 ** 4) {... */\n      tag_336\n      jumpi\n        /* \"@openzeppelin/contracts/utils/math/Math.sol\":10773:10780  10 ** 4 */\n      0x2710\n        /* \"@openzeppelin/contracts/utils/math/Math.sol\":10764:10780  value /= 10 ** 4 */\n      dup4\n      dup2\n      tag_337\n      jumpi\n      tag_338\n      tag_309\n      jump\t// in\n    tag_338:\n    tag_337:\n      div\n      swap3\n      pop\n        /* \"@openzeppelin/contracts/utils/math/Math.sol\":10808:10809  4 */\n      0x04\n        /* \"@openzeppelin/contracts/utils/math/Math.sol\":10798:10809  result += 4 */\n      dup2\n      add\n      swap1\n      pop\n        /* \"@openzeppelin/contracts/utils/math/Math.sol\":10724:10824  if (value >= 10 ** 4) {... */\n    tag_336:\n        /* \"@openzeppelin/contracts/utils/math/Math.sol\":10850:10857  10 ** 2 */\n      0x64\n        /* \"@openzeppelin/contracts/utils/math/Math.sol\":10841:10846  value */\n      dup4\n        /* \"@openzeppelin/contracts/utils/math/Math.sol\":10841:10857  value >= 10 ** 2 */\n      lt\n        /* \"@openzeppelin/contracts/utils/math/Math.sol\":10837:10937  if (value >= 10 ** 2) {... */\n      tag_339\n      jumpi\n        /* \"@openzeppelin/contracts/utils/math/Math.sol\":10886:10893  10 ** 2 */\n      0x64\n        /* \"@openzeppelin/contracts/utils/math/Math.sol\":10877:10893  value /= 10 ** 2 */\n      dup4\n      dup2\n      tag_340\n      jumpi\n      tag_341\n      tag_309\n      jump\t// in\n    tag_341:\n    tag_340:\n      div\n      swap3\n      pop\n        /* \"@openzeppelin/contracts/utils/math/Math.sol\":10921:10922  2 */\n      0x02\n        /* \"@openzeppelin/contracts/utils/math/Math.sol\":10911:10922  result += 2 */\n      dup2\n      add\n      swap1\n      pop\n        /* \"@openzeppelin/contracts/utils/math/Math.sol\":10837:10937  if (value >= 10 ** 2) {... */\n    tag_339:\n        /* \"@openzeppelin/contracts/utils/math/Math.sol\":10963:10970  10 ** 1 */\n      0x0a\n        /* \"@openzeppelin/contracts/utils/math/Math.sol\":10954:10959  value */\n      dup4\n        /* \"@openzeppelin/contracts/utils/math/Math.sol\":10954:10970  value >= 10 ** 1 */\n      lt\n        /* \"@openzeppelin/contracts/utils/math/Math.sol\":10950:11016  if (value >= 10 ** 1) {... */\n      tag_342\n      jumpi\n        /* \"@openzeppelin/contracts/utils/math/Math.sol\":11000:11001  1 */\n      0x01\n        /* \"@openzeppelin/contracts/utils/math/Math.sol\":10990:11001  result += 1 */\n      dup2\n      add\n      swap1\n      pop\n        /* \"@openzeppelin/contracts/utils/math/Math.sol\":10950:11016  if (value >= 10 ** 1) {... */\n    tag_342:\n        /* \"@openzeppelin/contracts/utils/math/Math.sol\":11042:11048  result */\n      dup1\n        /* \"@openzeppelin/contracts/utils/math/Math.sol\":11035:11048  return result */\n      swap2\n      pop\n      pop\n        /* \"@openzeppelin/contracts/utils/math/Math.sol\":10139:11055  function log10(uint256 value) internal pure returns (uint256) {... */\n      swap2\n      swap1\n      pop\n      jump\t// out\n        /* \"v2/contracts/SoulSocietySBT.sol\":5618:5728  function _ownerOf(uint256 tokenId_) internal view  returns (address) {... */\n    tag_316:\n        /* \"v2/contracts/SoulSocietySBT.sol\":5678:5685  address */\n      0x00\n        /* \"v2/contracts/SoulSocietySBT.sol\":5704:5711  _owners */\n      0x06\n        /* \"v2/contracts/SoulSocietySBT.sol\":5704:5721  _owners[tokenId_] */\n      0x00\n        /* \"v2/contracts/SoulSocietySBT.sol\":5712:5720  tokenId_ */\n      dup4\n        /* \"v2/contracts/SoulSocietySBT.sol\":5704:5721  _owners[tokenId_] */\n      dup2\n      mstore\n      0x20\n      add\n      swap1\n      dup2\n      mstore\n      0x20\n      add\n      0x00\n      keccak256\n      0x00\n      swap1\n      sload\n      swap1\n      0x0100\n      exp\n      swap1\n      div\n      0xffffffffffffffffffffffffffffffffffffffff\n      and\n        /* \"v2/contracts/SoulSocietySBT.sol\":5697:5721  return _owners[tokenId_] */\n      swap1\n      pop\n        /* \"v2/contracts/SoulSocietySBT.sol\":5618:5728  function _ownerOf(uint256 tokenId_) internal view  returns (address) {... */\n      swap2\n      swap1\n      pop\n      jump\t// out\n        /* \"#utility.yul\":7:82   */\n    tag_344:\n        /* \"#utility.yul\":40:46   */\n      0x00\n        /* \"#utility.yul\":73:75   */\n      0x40\n        /* \"#utility.yul\":67:76   */\n      mload\n        /* \"#utility.yul\":57:76   */\n      swap1\n      pop\n        /* \"#utility.yul\":7:82   */\n      swap1\n      jump\t// out\n        /* \"#utility.yul\":88:205   */\n    tag_345:\n        /* \"#utility.yul\":197:198   */\n      0x00\n        /* \"#utility.yul\":194:195   */\n      dup1\n        /* \"#utility.yul\":187:199   */\n      revert\n        /* \"#utility.yul\":211:328   */\n    tag_346:\n        /* \"#utility.yul\":320:321   */\n      0x00\n        /* \"#utility.yul\":317:318   */\n      dup1\n        /* \"#utility.yul\":310:322   */\n      revert\n        /* \"#utility.yul\":334:483   */\n    tag_347:\n        /* \"#utility.yul\":370:377   */\n      0x00\n        /* \"#utility.yul\":410:476   */\n      0xffffffff00000000000000000000000000000000000000000000000000000000\n        /* \"#utility.yul\":403:408   */\n      dup3\n        /* \"#utility.yul\":399:477   */\n      and\n        /* \"#utility.yul\":388:477   */\n      swap1\n      pop\n        /* \"#utility.yul\":334:483   */\n      swap2\n      swap1\n      pop\n      jump\t// out\n        /* \"#utility.yul\":489:609   */\n    tag_348:\n        /* \"#utility.yul\":561:584   */\n      tag_425\n        /* \"#utility.yul\":578:583   */\n      dup2\n        /* \"#utility.yul\":561:584   */\n      tag_347\n      jump\t// in\n    tag_425:\n        /* \"#utility.yul\":554:559   */\n      dup2\n        /* \"#utility.yul\":551:585   */\n      eq\n        /* \"#utility.yul\":541:603   */\n      tag_426\n      jumpi\n        /* \"#utility.yul\":599:600   */\n      0x00\n        /* \"#utility.yul\":596:597   */\n      dup1\n        /* \"#utility.yul\":589:601   */\n      revert\n        /* \"#utility.yul\":541:603   */\n    tag_426:\n        /* \"#utility.yul\":489:609   */\n      pop\n      jump\t// out\n        /* \"#utility.yul\":615:752   */\n    tag_349:\n        /* \"#utility.yul\":660:665   */\n      0x00\n        /* \"#utility.yul\":698:704   */\n      dup2\n        /* \"#utility.yul\":685:705   */\n      calldataload\n        /* \"#utility.yul\":676:705   */\n      swap1\n      pop\n        /* \"#utility.yul\":714:746   */\n      tag_428\n        /* \"#utility.yul\":740:745   */\n      dup2\n        /* \"#utility.yul\":714:746   */\n      tag_348\n      jump\t// in\n    tag_428:\n        /* \"#utility.yul\":615:752   */\n      swap3\n      swap2\n      pop\n      pop\n      jump\t// out\n        /* \"#utility.yul\":758:1085   */\n    tag_38:\n        /* \"#utility.yul\":816:822   */\n      0x00\n        /* \"#utility.yul\":865:867   */\n      0x20\n        /* \"#utility.yul\":853:862   */\n      dup3\n        /* \"#utility.yul\":844:851   */\n      dup5\n        /* \"#utility.yul\":840:863   */\n      sub\n        /* \"#utility.yul\":836:868   */\n      slt\n        /* \"#utility.yul\":833:952   */\n      iszero\n      tag_430\n      jumpi\n        /* \"#utility.yul\":871:950   */\n      tag_431\n      tag_345\n      jump\t// in\n    tag_431:\n        /* \"#utility.yul\":833:952   */\n    tag_430:\n        /* \"#utility.yul\":991:992   */\n      0x00\n        /* \"#utility.yul\":1016:1068   */\n      tag_432\n        /* \"#utility.yul\":1060:1067   */\n      dup5\n        /* \"#utility.yul\":1051:1057   */\n      dup3\n        /* \"#utility.yul\":1040:1049   */\n      dup6\n        /* \"#utility.yul\":1036:1058   */\n      add\n        /* \"#utility.yul\":1016:1068   */\n      tag_349\n      jump\t// in\n    tag_432:\n        /* \"#utility.yul\":1006:1068   */\n      swap2\n      pop\n        /* \"#utility.yul\":962:1078   */\n      pop\n        /* \"#utility.yul\":758:1085   */\n      swap3\n      swap2\n      pop\n      pop\n      jump\t// out\n        /* \"#utility.yul\":1091:1181   */\n    tag_350:\n        /* \"#utility.yul\":1125:1132   */\n      0x00\n        /* \"#utility.yul\":1168:1173   */\n      dup2\n        /* \"#utility.yul\":1161:1174   */\n      iszero\n        /* \"#utility.yul\":1154:1175   */\n      iszero\n        /* \"#utility.yul\":1143:1175   */\n      swap1\n      pop\n        /* \"#utility.yul\":1091:1181   */\n      swap2\n      swap1\n      pop\n      jump\t// out\n        /* \"#utility.yul\":1187:1296   */\n    tag_351:\n        /* \"#utility.yul\":1268:1289   */\n      tag_435\n        /* \"#utility.yul\":1283:1288   */\n      dup2\n        /* \"#utility.yul\":1268:1289   */\n      tag_350\n      jump\t// in\n    tag_435:\n        /* \"#utility.yul\":1263:1266   */\n      dup3\n        /* \"#utility.yul\":1256:1290   */\n      mstore\n        /* \"#utility.yul\":1187:1296   */\n      pop\n      pop\n      jump\t// out\n        /* \"#utility.yul\":1302:1512   */\n    tag_41:\n        /* \"#utility.yul\":1389:1393   */\n      0x00\n        /* \"#utility.yul\":1427:1429   */\n      0x20\n        /* \"#utility.yul\":1416:1425   */\n      dup3\n        /* \"#utility.yul\":1412:1430   */\n      add\n        /* \"#utility.yul\":1404:1430   */\n      swap1\n      pop\n        /* \"#utility.yul\":1440:1505   */\n      tag_437\n        /* \"#utility.yul\":1502:1503   */\n      0x00\n        /* \"#utility.yul\":1491:1500   */\n      dup4\n        /* \"#utility.yul\":1487:1504   */\n      add\n        /* \"#utility.yul\":1478:1484   */\n      dup5\n        /* \"#utility.yul\":1440:1505   */\n      tag_351\n      jump\t// in\n    tag_437:\n        /* \"#utility.yul\":1302:1512   */\n      swap3\n      swap2\n      pop\n      pop\n      jump\t// out\n        /* \"#utility.yul\":1518:1617   */\n    tag_352:\n        /* \"#utility.yul\":1570:1576   */\n      0x00\n        /* \"#utility.yul\":1604:1609   */\n      dup2\n        /* \"#utility.yul\":1598:1610   */\n      mload\n        /* \"#utility.yul\":1588:1610   */\n      swap1\n      pop\n        /* \"#utility.yul\":1518:1617   */\n      swap2\n      swap1\n      pop\n      jump\t// out\n        /* \"#utility.yul\":1623:1792   */\n    tag_353:\n        /* \"#utility.yul\":1707:1718   */\n      0x00\n        /* \"#utility.yul\":1741:1747   */\n      dup3\n        /* \"#utility.yul\":1736:1739   */\n      dup3\n        /* \"#utility.yul\":1729:1748   */\n      mstore\n        /* \"#utility.yul\":1781:1785   */\n      0x20\n        /* \"#utility.yul\":1776:1779   */\n      dup3\n        /* \"#utility.yul\":1772:1786   */\n      add\n        /* \"#utility.yul\":1757:1786   */\n      swap1\n      pop\n        /* \"#utility.yul\":1623:1792   */\n      swap3\n      swap2\n      pop\n      pop\n      jump\t// out\n        /* \"#utility.yul\":1798:2044   */\n    tag_354:\n        /* \"#utility.yul\":1879:1880   */\n      0x00\n        /* \"#utility.yul\":1889:2002   */\n    tag_441:\n        /* \"#utility.yul\":1903:1909   */\n      dup4\n        /* \"#utility.yul\":1900:1901   */\n      dup2\n        /* \"#utility.yul\":1897:1910   */\n      lt\n        /* \"#utility.yul\":1889:2002   */\n      iszero\n      tag_443\n      jumpi\n        /* \"#utility.yul\":1988:1989   */\n      dup1\n        /* \"#utility.yul\":1983:1986   */\n      dup3\n        /* \"#utility.yul\":1979:1990   */\n      add\n        /* \"#utility.yul\":1973:1991   */\n      mload\n        /* \"#utility.yul\":1969:1970   */\n      dup2\n        /* \"#utility.yul\":1964:1967   */\n      dup5\n        /* \"#utility.yul\":1960:1971   */\n      add\n        /* \"#utility.yul\":1953:1992   */\n      mstore\n        /* \"#utility.yul\":1925:1927   */\n      0x20\n        /* \"#utility.yul\":1922:1923   */\n      dup2\n        /* \"#utility.yul\":1918:1928   */\n      add\n        /* \"#utility.yul\":1913:1928   */\n      swap1\n      pop\n        /* \"#utility.yul\":1889:2002   */\n      jump(tag_441)\n    tag_443:\n        /* \"#utility.yul\":2036:2037   */\n      0x00\n        /* \"#utility.yul\":2027:2033   */\n      dup5\n        /* \"#utility.yul\":2022:2025   */\n      dup5\n        /* \"#utility.yul\":2018:2034   */\n      add\n        /* \"#utility.yul\":2011:2038   */\n      mstore\n        /* \"#utility.yul\":1860:2044   */\n      pop\n        /* \"#utility.yul\":1798:2044   */\n      pop\n      pop\n      pop\n      jump\t// out\n        /* \"#utility.yul\":2050:2152   */\n    tag_355:\n        /* \"#utility.yul\":2091:2097   */\n      0x00\n        /* \"#utility.yul\":2142:2144   */\n      0x1f\n        /* \"#utility.yul\":2138:2145   */\n      not\n        /* \"#utility.yul\":2133:2135   */\n      0x1f\n        /* \"#utility.yul\":2126:2131   */\n      dup4\n        /* \"#utility.yul\":2122:2136   */\n      add\n        /* \"#utility.yul\":2118:2146   */\n      and\n        /* \"#utility.yul\":2108:2146   */\n      swap1\n      pop\n        /* \"#utility.yul\":2050:2152   */\n      swap2\n      swap1\n      pop\n      jump\t// out\n        /* \"#utility.yul\":2158:2535   */\n    tag_356:\n        /* \"#utility.yul\":2246:2249   */\n      0x00\n        /* \"#utility.yul\":2274:2313   */\n      tag_446\n        /* \"#utility.yul\":2307:2312   */\n      dup3\n        /* \"#utility.yul\":2274:2313   */\n      tag_352\n      jump\t// in\n    tag_446:\n        /* \"#utility.yul\":2329:2400   */\n      tag_447\n        /* \"#utility.yul\":2393:2399   */\n      dup2\n        /* \"#utility.yul\":2388:2391   */\n      dup6\n        /* \"#utility.yul\":2329:2400   */\n      tag_353\n      jump\t// in\n    tag_447:\n        /* \"#utility.yul\":2322:2400   */\n      swap4\n      pop\n        /* \"#utility.yul\":2409:2474   */\n      tag_448\n        /* \"#utility.yul\":2467:2473   */\n      dup2\n        /* \"#utility.yul\":2462:2465   */\n      dup6\n        /* \"#utility.yul\":2455:2459   */\n      0x20\n        /* \"#utility.yul\":2448:2453   */\n      dup7\n        /* \"#utility.yul\":2444:2460   */\n      add\n        /* \"#utility.yul\":2409:2474   */\n      tag_354\n      jump\t// in\n    tag_448:\n        /* \"#utility.yul\":2499:2528   */\n      tag_449\n        /* \"#utility.yul\":2521:2527   */\n      dup2\n        /* \"#utility.yul\":2499:2528   */\n      tag_355\n      jump\t// in\n    tag_449:\n        /* \"#utility.yul\":2494:2497   */\n      dup5\n        /* \"#utility.yul\":2490:2529   */\n      add\n        /* \"#utility.yul\":2483:2529   */\n      swap2\n      pop\n        /* \"#utility.yul\":2250:2535   */\n      pop\n        /* \"#utility.yul\":2158:2535   */\n      swap3\n      swap2\n      pop\n      pop\n      jump\t// out\n        /* \"#utility.yul\":2541:2854   */\n    tag_45:\n        /* \"#utility.yul\":2654:2658   */\n      0x00\n        /* \"#utility.yul\":2692:2694   */\n      0x20\n        /* \"#utility.yul\":2681:2690   */\n      dup3\n        /* \"#utility.yul\":2677:2695   */\n      add\n        /* \"#utility.yul\":2669:2695   */\n      swap1\n      pop\n        /* \"#utility.yul\":2741:2750   */\n      dup2\n        /* \"#utility.yul\":2735:2739   */\n      dup2\n        /* \"#utility.yul\":2731:2751   */\n      sub\n        /* \"#utility.yul\":2727:2728   */\n      0x00\n        /* \"#utility.yul\":2716:2725   */\n      dup4\n        /* \"#utility.yul\":2712:2729   */\n      add\n        /* \"#utility.yul\":2705:2752   */\n      mstore\n        /* \"#utility.yul\":2769:2847   */\n      tag_451\n        /* \"#utility.yul\":2842:2846   */\n      dup2\n        /* \"#utility.yul\":2833:2839   */\n      dup5\n        /* \"#utility.yul\":2769:2847   */\n      tag_356\n      jump\t// in\n    tag_451:\n        /* \"#utility.yul\":2761:2847   */\n      swap1\n      pop\n        /* \"#utility.yul\":2541:2854   */\n      swap3\n      swap2\n      pop\n      pop\n      jump\t// out\n        /* \"#utility.yul\":2860:2937   */\n    tag_357:\n        /* \"#utility.yul\":2897:2904   */\n      0x00\n        /* \"#utility.yul\":2926:2931   */\n      dup2\n        /* \"#utility.yul\":2915:2931   */\n      swap1\n      pop\n        /* \"#utility.yul\":2860:2937   */\n      swap2\n      swap1\n      pop\n      jump\t// out\n        /* \"#utility.yul\":2943:3065   */\n    tag_358:\n        /* \"#utility.yul\":3016:3040   */\n      tag_454\n        /* \"#utility.yul\":3034:3039   */\n      dup2\n        /* \"#utility.yul\":3016:3040   */\n      tag_357\n      jump\t// in\n    tag_454:\n        /* \"#utility.yul\":3009:3014   */\n      dup2\n        /* \"#utility.yul\":3006:3041   */\n      eq\n        /* \"#utility.yul\":2996:3059   */\n      tag_455\n      jumpi\n        /* \"#utility.yul\":3055:3056   */\n      0x00\n        /* \"#utility.yul\":3052:3053   */\n      dup1\n        /* \"#utility.yul\":3045:3057   */\n      revert\n        /* \"#utility.yul\":2996:3059   */\n    tag_455:\n        /* \"#utility.yul\":2943:3065   */\n      pop\n      jump\t// out\n        /* \"#utility.yul\":3071:3210   */\n    tag_359:\n        /* \"#utility.yul\":3117:3122   */\n      0x00\n        /* \"#utility.yul\":3155:3161   */\n      dup2\n        /* \"#utility.yul\":3142:3162   */\n      calldataload\n        /* \"#utility.yul\":3133:3162   */\n      swap1\n      pop\n        /* \"#utility.yul\":3171:3204   */\n      tag_457\n        /* \"#utility.yul\":3198:3203   */\n      dup2\n        /* \"#utility.yul\":3171:3204   */\n      tag_358\n      jump\t// in\n    tag_457:\n        /* \"#utility.yul\":3071:3210   */\n      swap3\n      swap2\n      pop\n      pop\n      jump\t// out\n        /* \"#utility.yul\":3216:3545   */\n    tag_48:\n        /* \"#utility.yul\":3275:3281   */\n      0x00\n        /* \"#utility.yul\":3324:3326   */\n      0x20\n        /* \"#utility.yul\":3312:3321   */\n      dup3\n        /* \"#utility.yul\":3303:3310   */\n      dup5\n        /* \"#utility.yul\":3299:3322   */\n      sub\n        /* \"#utility.yul\":3295:3327   */\n      slt\n        /* \"#utility.yul\":3292:3411   */\n      iszero\n      tag_459\n      jumpi\n        /* \"#utility.yul\":3330:3409   */\n      tag_460\n      tag_345\n      jump\t// in\n    tag_460:\n        /* \"#utility.yul\":3292:3411   */\n    tag_459:\n        /* \"#utility.yul\":3450:3451   */\n      0x00\n        /* \"#utility.yul\":3475:3528   */\n      tag_461\n        /* \"#utility.yul\":3520:3527   */\n      dup5\n        /* \"#utility.yul\":3511:3517   */\n      dup3\n        /* \"#utility.yul\":3500:3509   */\n      dup6\n        /* \"#utility.yul\":3496:3518   */\n      add\n        /* \"#utility.yul\":3475:3528   */\n      tag_359\n      jump\t// in\n    tag_461:\n        /* \"#utility.yul\":3465:3528   */\n      swap2\n      pop\n        /* \"#utility.yul\":3421:3538   */\n      pop\n        /* \"#utility.yul\":3216:3545   */\n      swap3\n      swap2\n      pop\n      pop\n      jump\t// out\n        /* \"#utility.yul\":3551:3677   */\n    tag_360:\n        /* \"#utility.yul\":3588:3595   */\n      0x00\n        /* \"#utility.yul\":3628:3670   */\n      0xffffffffffffffffffffffffffffffffffffffff\n        /* \"#utility.yul\":3621:3626   */\n      dup3\n        /* \"#utility.yul\":3617:3671   */\n      and\n        /* \"#utility.yul\":3606:3671   */\n      swap1\n      pop\n        /* \"#utility.yul\":3551:3677   */\n      swap2\n      swap1\n      pop\n      jump\t// out\n        /* \"#utility.yul\":3683:3779   */\n    tag_361:\n        /* \"#utility.yul\":3720:3727   */\n      0x00\n        /* \"#utility.yul\":3749:3773   */\n      tag_464\n        /* \"#utility.yul\":3767:3772   */\n      dup3\n        /* \"#utility.yul\":3749:3773   */\n      tag_360\n      jump\t// in\n    tag_464:\n        /* \"#utility.yul\":3738:3773   */\n      swap1\n      pop\n        /* \"#utility.yul\":3683:3779   */\n      swap2\n      swap1\n      pop\n      jump\t// out\n        /* \"#utility.yul\":3785:3903   */\n    tag_362:\n        /* \"#utility.yul\":3872:3896   */\n      tag_466\n        /* \"#utility.yul\":3890:3895   */\n      dup2\n        /* \"#utility.yul\":3872:3896   */\n      tag_361\n      jump\t// in\n    tag_466:\n        /* \"#utility.yul\":3867:3870   */\n      dup3\n        /* \"#utility.yul\":3860:3897   */\n      mstore\n        /* \"#utility.yul\":3785:3903   */\n      pop\n      pop\n      jump\t// out\n        /* \"#utility.yul\":3909:4131   */\n    tag_51:\n        /* \"#utility.yul\":4002:4006   */\n      0x00\n        /* \"#utility.yul\":4040:4042   */\n      0x20\n        /* \"#utility.yul\":4029:4038   */\n      dup3\n        /* \"#utility.yul\":4025:4043   */\n      add\n        /* \"#utility.yul\":4017:4043   */\n      swap1\n      pop\n        /* \"#utility.yul\":4053:4124   */\n      tag_468\n        /* \"#utility.yul\":4121:4122   */\n      0x00\n        /* \"#utility.yul\":4110:4119   */\n      dup4\n        /* \"#utility.yul\":4106:4123   */\n      add\n        /* \"#utility.yul\":4097:4103   */\n      dup5\n        /* \"#utility.yul\":4053:4124   */\n      tag_362\n      jump\t// in\n    tag_468:\n        /* \"#utility.yul\":3909:4131   */\n      swap3\n      swap2\n      pop\n      pop\n      jump\t// out\n        /* \"#utility.yul\":4137:4259   */\n    tag_363:\n        /* \"#utility.yul\":4210:4234   */\n      tag_470\n        /* \"#utility.yul\":4228:4233   */\n      dup2\n        /* \"#utility.yul\":4210:4234   */\n      tag_361\n      jump\t// in\n    tag_470:\n        /* \"#utility.yul\":4203:4208   */\n      dup2\n        /* \"#utility.yul\":4200:4235   */\n      eq\n        /* \"#utility.yul\":4190:4253   */\n      tag_471\n      jumpi\n        /* \"#utility.yul\":4249:4250   */\n      0x00\n        /* \"#utility.yul\":4246:4247   */\n      dup1\n        /* \"#utility.yul\":4239:4251   */\n      revert\n        /* \"#utility.yul\":4190:4253   */\n    tag_471:\n        /* \"#utility.yul\":4137:4259   */\n      pop\n      jump\t// out\n        /* \"#utility.yul\":4265:4404   */\n    tag_364:\n        /* \"#utility.yul\":4311:4316   */\n      0x00\n        /* \"#utility.yul\":4349:4355   */\n      dup2\n        /* \"#utility.yul\":4336:4356   */\n      calldataload\n        /* \"#utility.yul\":4327:4356   */\n      swap1\n      pop\n        /* \"#utility.yul\":4365:4398   */\n      tag_473\n        /* \"#utility.yul\":4392:4397   */\n      dup2\n        /* \"#utility.yul\":4365:4398   */\n      tag_363\n      jump\t// in\n    tag_473:\n        /* \"#utility.yul\":4265:4404   */\n      swap3\n      swap2\n      pop\n      pop\n      jump\t// out\n        /* \"#utility.yul\":4410:4884   */\n    tag_54:\n        /* \"#utility.yul\":4478:4484   */\n      0x00\n        /* \"#utility.yul\":4486:4492   */\n      dup1\n        /* \"#utility.yul\":4535:4537   */\n      0x40\n        /* \"#utility.yul\":4523:4532   */\n      dup4\n        /* \"#utility.yul\":4514:4521   */\n      dup6\n        /* \"#utility.yul\":4510:4533   */\n      sub\n        /* \"#utility.yul\":4506:4538   */\n      slt\n        /* \"#utility.yul\":4503:4622   */\n      iszero\n      tag_475\n      jumpi\n        /* \"#utility.yul\":4541:4620   */\n      tag_476\n      tag_345\n      jump\t// in\n    tag_476:\n        /* \"#utility.yul\":4503:4622   */\n    tag_475:\n        /* \"#utility.yul\":4661:4662   */\n      0x00\n        /* \"#utility.yul\":4686:4739   */\n      tag_477\n        /* \"#utility.yul\":4731:4738   */\n      dup6\n        /* \"#utility.yul\":4722:4728   */\n      dup3\n        /* \"#utility.yul\":4711:4720   */\n      dup7\n        /* \"#utility.yul\":4707:4729   */\n      add\n        /* \"#utility.yul\":4686:4739   */\n      tag_364\n      jump\t// in\n    tag_477:\n        /* \"#utility.yul\":4676:4739   */\n      swap3\n      pop\n        /* \"#utility.yul\":4632:4749   */\n      pop\n        /* \"#utility.yul\":4788:4790   */\n      0x20\n        /* \"#utility.yul\":4814:4867   */\n      tag_478\n        /* \"#utility.yul\":4859:4866   */\n      dup6\n        /* \"#utility.yul\":4850:4856   */\n      dup3\n        /* \"#utility.yul\":4839:4848   */\n      dup7\n        /* \"#utility.yul\":4835:4857   */\n      add\n        /* \"#utility.yul\":4814:4867   */\n      tag_359\n      jump\t// in\n    tag_478:\n        /* \"#utility.yul\":4804:4867   */\n      swap2\n      pop\n        /* \"#utility.yul\":4759:4877   */\n      pop\n        /* \"#utility.yul\":4410:4884   */\n      swap3\n      pop\n      swap3\n      swap1\n      pop\n      jump\t// out\n        /* \"#utility.yul\":4890:5008   */\n    tag_365:\n        /* \"#utility.yul\":4977:5001   */\n      tag_480\n        /* \"#utility.yul\":4995:5000   */\n      dup2\n        /* \"#utility.yul\":4977:5001   */\n      tag_357\n      jump\t// in\n    tag_480:\n        /* \"#utility.yul\":4972:4975   */\n      dup3\n        /* \"#utility.yul\":4965:5002   */\n      mstore\n        /* \"#utility.yul\":4890:5008   */\n      pop\n      pop\n      jump\t// out\n        /* \"#utility.yul\":5014:5236   */\n    tag_59:\n        /* \"#utility.yul\":5107:5111   */\n      0x00\n        /* \"#utility.yul\":5145:5147   */\n      0x20\n        /* \"#utility.yul\":5134:5143   */\n      dup3\n        /* \"#utility.yul\":5130:5148   */\n      add\n        /* \"#utility.yul\":5122:5148   */\n      swap1\n      pop\n        /* \"#utility.yul\":5158:5229   */\n      tag_482\n        /* \"#utility.yul\":5226:5227   */\n      0x00\n        /* \"#utility.yul\":5215:5224   */\n      dup4\n        /* \"#utility.yul\":5211:5228   */\n      add\n        /* \"#utility.yul\":5202:5208   */\n      dup5\n        /* \"#utility.yul\":5158:5229   */\n      tag_365\n      jump\t// in\n    tag_482:\n        /* \"#utility.yul\":5014:5236   */\n      swap3\n      swap2\n      pop\n      pop\n      jump\t// out\n        /* \"#utility.yul\":5242:5571   */\n    tag_62:\n        /* \"#utility.yul\":5301:5307   */\n      0x00\n        /* \"#utility.yul\":5350:5352   */\n      0x20\n        /* \"#utility.yul\":5338:5347   */\n      dup3\n        /* \"#utility.yul\":5329:5336   */\n      dup5\n        /* \"#utility.yul\":5325:5348   */\n      sub\n        /* \"#utility.yul\":5321:5353   */\n      slt\n        /* \"#utility.yul\":5318:5437   */\n      iszero\n      tag_484\n      jumpi\n        /* \"#utility.yul\":5356:5435   */\n      tag_485\n      tag_345\n      jump\t// in\n    tag_485:\n        /* \"#utility.yul\":5318:5437   */\n    tag_484:\n        /* \"#utility.yul\":5476:5477   */\n      0x00\n        /* \"#utility.yul\":5501:5554   */\n      tag_486\n        /* \"#utility.yul\":5546:5553   */\n      dup5\n        /* \"#utility.yul\":5537:5543   */\n      dup3\n        /* \"#utility.yul\":5526:5535   */\n      dup6\n        /* \"#utility.yul\":5522:5544   */\n      add\n        /* \"#utility.yul\":5501:5554   */\n      tag_364\n      jump\t// in\n    tag_486:\n        /* \"#utility.yul\":5491:5554   */\n      swap2\n      pop\n        /* \"#utility.yul\":5447:5564   */\n      pop\n        /* \"#utility.yul\":5242:5571   */\n      swap3\n      swap2\n      pop\n      pop\n      jump\t// out\n        /* \"#utility.yul\":5577:6196   */\n    tag_67:\n        /* \"#utility.yul\":5654:5660   */\n      0x00\n        /* \"#utility.yul\":5662:5668   */\n      dup1\n        /* \"#utility.yul\":5670:5676   */\n      0x00\n        /* \"#utility.yul\":5719:5721   */\n      0x60\n        /* \"#utility.yul\":5707:5716   */\n      dup5\n        /* \"#utility.yul\":5698:5705   */\n      dup7\n        /* \"#utility.yul\":5694:5717   */\n      sub\n        /* \"#utility.yul\":5690:5722   */\n      slt\n        /* \"#utility.yul\":5687:5806   */\n      iszero\n      tag_488\n      jumpi\n        /* \"#utility.yul\":5725:5804   */\n      tag_489\n      tag_345\n      jump\t// in\n    tag_489:\n        /* \"#utility.yul\":5687:5806   */\n    tag_488:\n        /* \"#utility.yul\":5845:5846   */\n      0x00\n        /* \"#utility.yul\":5870:5923   */\n      tag_490\n        /* \"#utility.yul\":5915:5922   */\n      dup7\n        /* \"#utility.yul\":5906:5912   */\n      dup3\n        /* \"#utility.yul\":5895:5904   */\n      dup8\n        /* \"#utility.yul\":5891:5913   */\n      add\n        /* \"#utility.yul\":5870:5923   */\n      tag_364\n      jump\t// in\n    tag_490:\n        /* \"#utility.yul\":5860:5923   */\n      swap4\n      pop\n        /* \"#utility.yul\":5816:5933   */\n      pop\n        /* \"#utility.yul\":5972:5974   */\n      0x20\n        /* \"#utility.yul\":5998:6051   */\n      tag_491\n        /* \"#utility.yul\":6043:6050   */\n      dup7\n        /* \"#utility.yul\":6034:6040   */\n      dup3\n        /* \"#utility.yul\":6023:6032   */\n      dup8\n        /* \"#utility.yul\":6019:6041   */\n      add\n        /* \"#utility.yul\":5998:6051   */\n      tag_364\n      jump\t// in\n    tag_491:\n        /* \"#utility.yul\":5988:6051   */\n      swap3\n      pop\n        /* \"#utility.yul\":5943:6061   */\n      pop\n        /* \"#utility.yul\":6100:6102   */\n      0x40\n        /* \"#utility.yul\":6126:6179   */\n      tag_492\n        /* \"#utility.yul\":6171:6178   */\n      dup7\n        /* \"#utility.yul\":6162:6168   */\n      dup3\n        /* \"#utility.yul\":6151:6160   */\n      dup8\n        /* \"#utility.yul\":6147:6169   */\n      add\n        /* \"#utility.yul\":6126:6179   */\n      tag_359\n      jump\t// in\n    tag_492:\n        /* \"#utility.yul\":6116:6179   */\n      swap2\n      pop\n        /* \"#utility.yul\":6071:6189   */\n      pop\n        /* \"#utility.yul\":5577:6196   */\n      swap3\n      pop\n      swap3\n      pop\n      swap3\n      jump\t// out\n        /* \"#utility.yul\":6202:6318   */\n    tag_366:\n        /* \"#utility.yul\":6272:6293   */\n      tag_494\n        /* \"#utility.yul\":6287:6292   */\n      dup2\n        /* \"#utility.yul\":6272:6293   */\n      tag_350\n      jump\t// in\n    tag_494:\n        /* \"#utility.yul\":6265:6270   */\n      dup2\n        /* \"#utility.yul\":6262:6294   */\n      eq\n        /* \"#utility.yul\":6252:6312   */\n      tag_495\n      jumpi\n        /* \"#utility.yul\":6308:6309   */\n      0x00\n        /* \"#utility.yul\":6305:6306   */\n      dup1\n        /* \"#utility.yul\":6298:6310   */\n      revert\n        /* \"#utility.yul\":6252:6312   */\n    tag_495:\n        /* \"#utility.yul\":6202:6318   */\n      pop\n      jump\t// out\n        /* \"#utility.yul\":6324:6457   */\n    tag_367:\n        /* \"#utility.yul\":6367:6372   */\n      0x00\n        /* \"#utility.yul\":6405:6411   */\n      dup2\n        /* \"#utility.yul\":6392:6412   */\n      calldataload\n        /* \"#utility.yul\":6383:6412   */\n      swap1\n      pop\n        /* \"#utility.yul\":6421:6451   */\n      tag_497\n        /* \"#utility.yul\":6445:6450   */\n      dup2\n        /* \"#utility.yul\":6421:6451   */\n      tag_366\n      jump\t// in\n    tag_497:\n        /* \"#utility.yul\":6324:6457   */\n      swap3\n      swap2\n      pop\n      pop\n      jump\t// out\n        /* \"#utility.yul\":6463:6931   */\n    tag_100:\n        /* \"#utility.yul\":6528:6534   */\n      0x00\n        /* \"#utility.yul\":6536:6542   */\n      dup1\n        /* \"#utility.yul\":6585:6587   */\n      0x40\n        /* \"#utility.yul\":6573:6582   */\n      dup4\n        /* \"#utility.yul\":6564:6571   */\n      dup6\n        /* \"#utility.yul\":6560:6583   */\n      sub\n        /* \"#utility.yul\":6556:6588   */\n      slt\n        /* \"#utility.yul\":6553:6672   */\n      iszero\n      tag_499\n      jumpi\n        /* \"#utility.yul\":6591:6670   */\n      tag_500\n      tag_345\n      jump\t// in\n    tag_500:\n        /* \"#utility.yul\":6553:6672   */\n    tag_499:\n        /* \"#utility.yul\":6711:6712   */\n      0x00\n        /* \"#utility.yul\":6736:6789   */\n      tag_501\n        /* \"#utility.yul\":6781:6788   */\n      dup6\n        /* \"#utility.yul\":6772:6778   */\n      dup3\n        /* \"#utility.yul\":6761:6770   */\n      dup7\n        /* \"#utility.yul\":6757:6779   */\n      add\n        /* \"#utility.yul\":6736:6789   */\n      tag_364\n      jump\t// in\n    tag_501:\n        /* \"#utility.yul\":6726:6789   */\n      swap3\n      pop\n        /* \"#utility.yul\":6682:6799   */\n      pop\n        /* \"#utility.yul\":6838:6840   */\n      0x20\n        /* \"#utility.yul\":6864:6914   */\n      tag_502\n        /* \"#utility.yul\":6906:6913   */\n      dup6\n        /* \"#utility.yul\":6897:6903   */\n      dup3\n        /* \"#utility.yul\":6886:6895   */\n      dup7\n        /* \"#utility.yul\":6882:6904   */\n      add\n        /* \"#utility.yul\":6864:6914   */\n      tag_367\n      jump\t// in\n    tag_502:\n        /* \"#utility.yul\":6854:6914   */\n      swap2\n      pop\n        /* \"#utility.yul\":6809:6924   */\n      pop\n        /* \"#utility.yul\":6463:6931   */\n      swap3\n      pop\n      swap3\n      swap1\n      pop\n      jump\t// out\n        /* \"#utility.yul\":6937:7054   */\n    tag_368:\n        /* \"#utility.yul\":7046:7047   */\n      0x00\n        /* \"#utility.yul\":7043:7044   */\n      dup1\n        /* \"#utility.yul\":7036:7048   */\n      revert\n        /* \"#utility.yul\":7060:7177   */\n    tag_369:\n        /* \"#utility.yul\":7169:7170   */\n      0x00\n        /* \"#utility.yul\":7166:7167   */\n      dup1\n        /* \"#utility.yul\":7159:7171   */\n      revert\n        /* \"#utility.yul\":7183:7300   */\n    tag_370:\n        /* \"#utility.yul\":7292:7293   */\n      0x00\n        /* \"#utility.yul\":7289:7290   */\n      dup1\n        /* \"#utility.yul\":7282:7294   */\n      revert\n        /* \"#utility.yul\":7319:7871   */\n    tag_371:\n        /* \"#utility.yul\":7376:7384   */\n      0x00\n        /* \"#utility.yul\":7386:7392   */\n      dup1\n        /* \"#utility.yul\":7436:7439   */\n      dup4\n        /* \"#utility.yul\":7429:7433   */\n      0x1f\n        /* \"#utility.yul\":7421:7427   */\n      dup5\n        /* \"#utility.yul\":7417:7434   */\n      add\n        /* \"#utility.yul\":7413:7440   */\n      slt\n        /* \"#utility.yul\":7403:7525   */\n      tag_507\n      jumpi\n        /* \"#utility.yul\":7444:7523   */\n      tag_508\n      tag_368\n      jump\t// in\n    tag_508:\n        /* \"#utility.yul\":7403:7525   */\n    tag_507:\n        /* \"#utility.yul\":7557:7563   */\n      dup3\n        /* \"#utility.yul\":7544:7564   */\n      calldataload\n        /* \"#utility.yul\":7534:7564   */\n      swap1\n      pop\n        /* \"#utility.yul\":7587:7605   */\n      0xffffffffffffffff\n        /* \"#utility.yul\":7579:7585   */\n      dup2\n        /* \"#utility.yul\":7576:7606   */\n      gt\n        /* \"#utility.yul\":7573:7690   */\n      iszero\n      tag_509\n      jumpi\n        /* \"#utility.yul\":7609:7688   */\n      tag_510\n      tag_369\n      jump\t// in\n    tag_510:\n        /* \"#utility.yul\":7573:7690   */\n    tag_509:\n        /* \"#utility.yul\":7723:7727   */\n      0x20\n        /* \"#utility.yul\":7715:7721   */\n      dup4\n        /* \"#utility.yul\":7711:7728   */\n      add\n        /* \"#utility.yul\":7699:7728   */\n      swap2\n      pop\n        /* \"#utility.yul\":7777:7780   */\n      dup4\n        /* \"#utility.yul\":7769:7773   */\n      0x01\n        /* \"#utility.yul\":7761:7767   */\n      dup3\n        /* \"#utility.yul\":7757:7774   */\n      mul\n        /* \"#utility.yul\":7747:7755   */\n      dup4\n        /* \"#utility.yul\":7743:7775   */\n      add\n        /* \"#utility.yul\":7740:7781   */\n      gt\n        /* \"#utility.yul\":7737:7865   */\n      iszero\n      tag_511\n      jumpi\n        /* \"#utility.yul\":7784:7863   */\n      tag_512\n      tag_370\n      jump\t// in\n    tag_512:\n        /* \"#utility.yul\":7737:7865   */\n    tag_511:\n        /* \"#utility.yul\":7319:7871   */\n      swap3\n      pop\n      swap3\n      swap1\n      pop\n      jump\t// out\n        /* \"#utility.yul\":7877:8840   */\n    tag_114:\n        /* \"#utility.yul\":7974:7980   */\n      0x00\n        /* \"#utility.yul\":7982:7988   */\n      dup1\n        /* \"#utility.yul\":7990:7996   */\n      0x00\n        /* \"#utility.yul\":7998:8004   */\n      dup1\n        /* \"#utility.yul\":8006:8012   */\n      0x00\n        /* \"#utility.yul\":8055:8058   */\n      0x80\n        /* \"#utility.yul\":8043:8052   */\n      dup7\n        /* \"#utility.yul\":8034:8041   */\n      dup9\n        /* \"#utility.yul\":8030:8053   */\n      sub\n        /* \"#utility.yul\":8026:8059   */\n      slt\n        /* \"#utility.yul\":8023:8143   */\n      iszero\n      tag_514\n      jumpi\n        /* \"#utility.yul\":8062:8141   */\n      tag_515\n      tag_345\n      jump\t// in\n    tag_515:\n        /* \"#utility.yul\":8023:8143   */\n    tag_514:\n        /* \"#utility.yul\":8182:8183   */\n      0x00\n        /* \"#utility.yul\":8207:8260   */\n      tag_516\n        /* \"#utility.yul\":8252:8259   */\n      dup9\n        /* \"#utility.yul\":8243:8249   */\n      dup3\n        /* \"#utility.yul\":8232:8241   */\n      dup10\n        /* \"#utility.yul\":8228:8250   */\n      add\n        /* \"#utility.yul\":8207:8260   */\n      tag_364\n      jump\t// in\n    tag_516:\n        /* \"#utility.yul\":8197:8260   */\n      swap6\n      pop\n        /* \"#utility.yul\":8153:8270   */\n      pop\n        /* \"#utility.yul\":8309:8311   */\n      0x20\n        /* \"#utility.yul\":8335:8388   */\n      tag_517\n        /* \"#utility.yul\":8380:8387   */\n      dup9\n        /* \"#utility.yul\":8371:8377   */\n      dup3\n        /* \"#utility.yul\":8360:8369   */\n      dup10\n        /* \"#utility.yul\":8356:8378   */\n      add\n        /* \"#utility.yul\":8335:8388   */\n      tag_364\n      jump\t// in\n    tag_517:\n        /* \"#utility.yul\":8325:8388   */\n      swap5\n      pop\n        /* \"#utility.yul\":8280:8398   */\n      pop\n        /* \"#utility.yul\":8437:8439   */\n      0x40\n        /* \"#utility.yul\":8463:8516   */\n      tag_518\n        /* \"#utility.yul\":8508:8515   */\n      dup9\n        /* \"#utility.yul\":8499:8505   */\n      dup3\n        /* \"#utility.yul\":8488:8497   */\n      dup10\n        /* \"#utility.yul\":8484:8506   */\n      add\n        /* \"#utility.yul\":8463:8516   */\n      tag_359\n      jump\t// in\n    tag_518:\n        /* \"#utility.yul\":8453:8516   */\n      swap4\n      pop\n        /* \"#utility.yul\":8408:8526   */\n      pop\n        /* \"#utility.yul\":8593:8595   */\n      0x60\n        /* \"#utility.yul\":8582:8591   */\n      dup7\n        /* \"#utility.yul\":8578:8596   */\n      add\n        /* \"#utility.yul\":8565:8597   */\n      calldataload\n        /* \"#utility.yul\":8624:8642   */\n      0xffffffffffffffff\n        /* \"#utility.yul\":8616:8622   */\n      dup2\n        /* \"#utility.yul\":8613:8643   */\n      gt\n        /* \"#utility.yul\":8610:8727   */\n      iszero\n      tag_519\n      jumpi\n        /* \"#utility.yul\":8646:8725   */\n      tag_520\n      tag_346\n      jump\t// in\n    tag_520:\n        /* \"#utility.yul\":8610:8727   */\n    tag_519:\n        /* \"#utility.yul\":8759:8823   */\n      tag_521\n        /* \"#utility.yul\":8815:8822   */\n      dup9\n        /* \"#utility.yul\":8806:8812   */\n      dup3\n        /* \"#utility.yul\":8795:8804   */\n      dup10\n        /* \"#utility.yul\":8791:8813   */\n      add\n        /* \"#utility.yul\":8759:8823   */\n      tag_371\n      jump\t// in\n    tag_521:\n        /* \"#utility.yul\":8741:8823   */\n      swap3\n      pop\n      swap3\n      pop\n        /* \"#utility.yul\":8536:8833   */\n      pop\n        /* \"#utility.yul\":7877:8840   */\n      swap3\n      swap6\n      pop\n      swap3\n      swap6\n      swap1\n      swap4\n      pop\n      jump\t// out\n        /* \"#utility.yul\":8846:8963   */\n    tag_372:\n        /* \"#utility.yul\":8955:8956   */\n      0x00\n        /* \"#utility.yul\":8952:8953   */\n      dup1\n        /* \"#utility.yul\":8945:8957   */\n      revert\n        /* \"#utility.yul\":8969:9149   */\n    tag_303:\n        /* \"#utility.yul\":9017:9094   */\n      0x4e487b7100000000000000000000000000000000000000000000000000000000\n        /* \"#utility.yul\":9014:9015   */\n      0x00\n        /* \"#utility.yul\":9007:9095   */\n      mstore\n        /* \"#utility.yul\":9114:9118   */\n      0x41\n        /* \"#utility.yul\":9111:9112   */\n      0x04\n        /* \"#utility.yul\":9104:9119   */\n      mstore\n        /* \"#utility.yul\":9138:9142   */\n      0x24\n        /* \"#utility.yul\":9135:9136   */\n      0x00\n        /* \"#utility.yul\":9128:9143   */\n      revert\n        /* \"#utility.yul\":9155:9436   */\n    tag_373:\n        /* \"#utility.yul\":9238:9265   */\n      tag_525\n        /* \"#utility.yul\":9260:9264   */\n      dup3\n        /* \"#utility.yul\":9238:9265   */\n      tag_355\n      jump\t// in\n    tag_525:\n        /* \"#utility.yul\":9230:9236   */\n      dup2\n        /* \"#utility.yul\":9226:9266   */\n      add\n        /* \"#utility.yul\":9368:9374   */\n      dup2\n        /* \"#utility.yul\":9356:9366   */\n      dup2\n        /* \"#utility.yul\":9353:9375   */\n      lt\n        /* \"#utility.yul\":9332:9350   */\n      0xffffffffffffffff\n        /* \"#utility.yul\":9320:9330   */\n      dup3\n        /* \"#utility.yul\":9317:9351   */\n      gt\n        /* \"#utility.yul\":9314:9376   */\n      or\n        /* \"#utility.yul\":9311:9399   */\n      iszero\n      tag_526\n      jumpi\n        /* \"#utility.yul\":9379:9397   */\n      tag_527\n      tag_303\n      jump\t// in\n    tag_527:\n        /* \"#utility.yul\":9311:9399   */\n    tag_526:\n        /* \"#utility.yul\":9419:9429   */\n      dup1\n        /* \"#utility.yul\":9415:9417   */\n      0x40\n        /* \"#utility.yul\":9408:9430   */\n      mstore\n        /* \"#utility.yul\":9198:9436   */\n      pop\n        /* \"#utility.yul\":9155:9436   */\n      pop\n      pop\n      jump\t// out\n        /* \"#utility.yul\":9442:9571   */\n    tag_374:\n        /* \"#utility.yul\":9476:9482   */\n      0x00\n        /* \"#utility.yul\":9503:9523   */\n      tag_529\n      tag_344\n      jump\t// in\n    tag_529:\n        /* \"#utility.yul\":9493:9523   */\n      swap1\n      pop\n        /* \"#utility.yul\":9532:9565   */\n      tag_530\n        /* \"#utility.yul\":9560:9564   */\n      dup3\n        /* \"#utility.yul\":9552:9558   */\n      dup3\n        /* \"#utility.yul\":9532:9565   */\n      tag_373\n      jump\t// in\n    tag_530:\n        /* \"#utility.yul\":9442:9571   */\n      swap2\n      swap1\n      pop\n      jump\t// out\n        /* \"#utility.yul\":9577:9885   */\n    tag_375:\n        /* \"#utility.yul\":9639:9643   */\n      0x00\n        /* \"#utility.yul\":9729:9747   */\n      0xffffffffffffffff\n        /* \"#utility.yul\":9721:9727   */\n      dup3\n        /* \"#utility.yul\":9718:9748   */\n      gt\n        /* \"#utility.yul\":9715:9771   */\n      iszero\n      tag_532\n      jumpi\n        /* \"#utility.yul\":9751:9769   */\n      tag_533\n      tag_303\n      jump\t// in\n    tag_533:\n        /* \"#utility.yul\":9715:9771   */\n    tag_532:\n        /* \"#utility.yul\":9789:9818   */\n      tag_534\n        /* \"#utility.yul\":9811:9817   */\n      dup3\n        /* \"#utility.yul\":9789:9818   */\n      tag_355\n      jump\t// in\n    tag_534:\n        /* \"#utility.yul\":9781:9818   */\n      swap1\n      pop\n        /* \"#utility.yul\":9873:9877   */\n      0x20\n        /* \"#utility.yul\":9867:9871   */\n      dup2\n        /* \"#utility.yul\":9863:9878   */\n      add\n        /* \"#utility.yul\":9855:9878   */\n      swap1\n      pop\n        /* \"#utility.yul\":9577:9885   */\n      swap2\n      swap1\n      pop\n      jump\t// out\n        /* \"#utility.yul\":9891:10037   */\n    tag_376:\n        /* \"#utility.yul\":9988:9994   */\n      dup3\n        /* \"#utility.yul\":9983:9986   */\n      dup2\n        /* \"#utility.yul\":9978:9981   */\n      dup4\n        /* \"#utility.yul\":9965:9995   */\n      calldatacopy\n        /* \"#utility.yul\":10029:10030   */\n      0x00\n        /* \"#utility.yul\":10020:10026   */\n      dup4\n        /* \"#utility.yul\":10015:10018   */\n      dup4\n        /* \"#utility.yul\":10011:10027   */\n      add\n        /* \"#utility.yul\":10004:10031   */\n      mstore\n        /* \"#utility.yul\":9891:10037   */\n      pop\n      pop\n      pop\n      jump\t// out\n        /* \"#utility.yul\":10043:10468   */\n    tag_377:\n        /* \"#utility.yul\":10121:10126   */\n      0x00\n        /* \"#utility.yul\":10146:10212   */\n      tag_537\n        /* \"#utility.yul\":10162:10211   */\n      tag_538\n        /* \"#utility.yul\":10204:10210   */\n      dup5\n        /* \"#utility.yul\":10162:10211   */\n      tag_375\n      jump\t// in\n    tag_538:\n        /* \"#utility.yul\":10146:10212   */\n      tag_374\n      jump\t// in\n    tag_537:\n        /* \"#utility.yul\":10137:10212   */\n      swap1\n      pop\n        /* \"#utility.yul\":10235:10241   */\n      dup3\n        /* \"#utility.yul\":10228:10233   */\n      dup2\n        /* \"#utility.yul\":10221:10242   */\n      mstore\n        /* \"#utility.yul\":10273:10277   */\n      0x20\n        /* \"#utility.yul\":10266:10271   */\n      dup2\n        /* \"#utility.yul\":10262:10278   */\n      add\n        /* \"#utility.yul\":10311:10314   */\n      dup5\n        /* \"#utility.yul\":10302:10308   */\n      dup5\n        /* \"#utility.yul\":10297:10300   */\n      dup5\n        /* \"#utility.yul\":10293:10309   */\n      add\n        /* \"#utility.yul\":10290:10315   */\n      gt\n        /* \"#utility.yul\":10287:10399   */\n      iszero\n      tag_539\n      jumpi\n        /* \"#utility.yul\":10318:10397   */\n      tag_540\n      tag_372\n      jump\t// in\n    tag_540:\n        /* \"#utility.yul\":10287:10399   */\n    tag_539:\n        /* \"#utility.yul\":10408:10462   */\n      tag_541\n        /* \"#utility.yul\":10455:10461   */\n      dup5\n        /* \"#utility.yul\":10450:10453   */\n      dup3\n        /* \"#utility.yul\":10445:10448   */\n      dup6\n        /* \"#utility.yul\":10408:10462   */\n      tag_376\n      jump\t// in\n    tag_541:\n        /* \"#utility.yul\":10127:10468   */\n      pop\n        /* \"#utility.yul\":10043:10468   */\n      swap4\n      swap3\n      pop\n      pop\n      pop\n      jump\t// out\n        /* \"#utility.yul\":10488:10828   */\n    tag_378:\n        /* \"#utility.yul\":10544:10549   */\n      0x00\n        /* \"#utility.yul\":10593:10596   */\n      dup3\n        /* \"#utility.yul\":10586:10590   */\n      0x1f\n        /* \"#utility.yul\":10578:10584   */\n      dup4\n        /* \"#utility.yul\":10574:10591   */\n      add\n        /* \"#utility.yul\":10570:10597   */\n      slt\n        /* \"#utility.yul\":10560:10682   */\n      tag_543\n      jumpi\n        /* \"#utility.yul\":10601:10680   */\n      tag_544\n      tag_368\n      jump\t// in\n    tag_544:\n        /* \"#utility.yul\":10560:10682   */\n    tag_543:\n        /* \"#utility.yul\":10718:10724   */\n      dup2\n        /* \"#utility.yul\":10705:10725   */\n      calldataload\n        /* \"#utility.yul\":10743:10822   */\n      tag_545\n        /* \"#utility.yul\":10818:10821   */\n      dup5\n        /* \"#utility.yul\":10810:10816   */\n      dup3\n        /* \"#utility.yul\":10803:10807   */\n      0x20\n        /* \"#utility.yul\":10795:10801   */\n      dup7\n        /* \"#utility.yul\":10791:10808   */\n      add\n        /* \"#utility.yul\":10743:10822   */\n      tag_377\n      jump\t// in\n    tag_545:\n        /* \"#utility.yul\":10734:10822   */\n      swap2\n      pop\n        /* \"#utility.yul\":10550:10828   */\n      pop\n        /* \"#utility.yul\":10488:10828   */\n      swap3\n      swap2\n      pop\n      pop\n      jump\t// out\n        /* \"#utility.yul\":10834:11343   */\n    tag_130:\n        /* \"#utility.yul\":10903:10909   */\n      0x00\n        /* \"#utility.yul\":10952:10954   */\n      0x20\n        /* \"#utility.yul\":10940:10949   */\n      dup3\n        /* \"#utility.yul\":10931:10938   */\n      dup5\n        /* \"#utility.yul\":10927:10950   */\n      sub\n        /* \"#utility.yul\":10923:10955   */\n      slt\n        /* \"#utility.yul\":10920:11039   */\n      iszero\n      tag_547\n      jumpi\n        /* \"#utility.yul\":10958:11037   */\n      tag_548\n      tag_345\n      jump\t// in\n    tag_548:\n        /* \"#utility.yul\":10920:11039   */\n    tag_547:\n        /* \"#utility.yul\":11106:11107   */\n      0x00\n        /* \"#utility.yul\":11095:11104   */\n      dup3\n        /* \"#utility.yul\":11091:11108   */\n      add\n        /* \"#utility.yul\":11078:11109   */\n      calldataload\n        /* \"#utility.yul\":11136:11154   */\n      0xffffffffffffffff\n        /* \"#utility.yul\":11128:11134   */\n      dup2\n        /* \"#utility.yul\":11125:11155   */\n      gt\n        /* \"#utility.yul\":11122:11239   */\n      iszero\n      tag_549\n      jumpi\n        /* \"#utility.yul\":11158:11237   */\n      tag_550\n      tag_346\n      jump\t// in\n    tag_550:\n        /* \"#utility.yul\":11122:11239   */\n    tag_549:\n        /* \"#utility.yul\":11263:11326   */\n      tag_551\n        /* \"#utility.yul\":11318:11325   */\n      dup5\n        /* \"#utility.yul\":11309:11315   */\n      dup3\n        /* \"#utility.yul\":11298:11307   */\n      dup6\n        /* \"#utility.yul\":11294:11316   */\n      add\n        /* \"#utility.yul\":11263:11326   */\n      tag_378\n      jump\t// in\n    tag_551:\n        /* \"#utility.yul\":11253:11326   */\n      swap2\n      pop\n        /* \"#utility.yul\":11049:11336   */\n      pop\n        /* \"#utility.yul\":10834:11343   */\n      swap3\n      swap2\n      pop\n      pop\n      jump\t// out\n        /* \"#utility.yul\":11349:11823   */\n    tag_138:\n        /* \"#utility.yul\":11417:11423   */\n      0x00\n        /* \"#utility.yul\":11425:11431   */\n      dup1\n        /* \"#utility.yul\":11474:11476   */\n      0x40\n        /* \"#utility.yul\":11462:11471   */\n      dup4\n        /* \"#utility.yul\":11453:11460   */\n      dup6\n        /* \"#utility.yul\":11449:11472   */\n      sub\n        /* \"#utility.yul\":11445:11477   */\n      slt\n        /* \"#utility.yul\":11442:11561   */\n      iszero\n      tag_553\n      jumpi\n        /* \"#utility.yul\":11480:11559   */\n      tag_554\n      tag_345\n      jump\t// in\n    tag_554:\n        /* \"#utility.yul\":11442:11561   */\n    tag_553:\n        /* \"#utility.yul\":11600:11601   */\n      0x00\n        /* \"#utility.yul\":11625:11678   */\n      tag_555\n        /* \"#utility.yul\":11670:11677   */\n      dup6\n        /* \"#utility.yul\":11661:11667   */\n      dup3\n        /* \"#utility.yul\":11650:11659   */\n      dup7\n        /* \"#utility.yul\":11646:11668   */\n      add\n        /* \"#utility.yul\":11625:11678   */\n      tag_364\n      jump\t// in\n    tag_555:\n        /* \"#utility.yul\":11615:11678   */\n      swap3\n      pop\n        /* \"#utility.yul\":11571:11688   */\n      pop\n        /* \"#utility.yul\":11727:11729   */\n      0x20\n        /* \"#utility.yul\":11753:11806   */\n      tag_556\n        /* \"#utility.yul\":11798:11805   */\n      dup6\n        /* \"#utility.yul\":11789:11795   */\n      dup3\n        /* \"#utility.yul\":11778:11787   */\n      dup7\n        /* \"#utility.yul\":11774:11796   */\n      add\n        /* \"#utility.yul\":11753:11806   */\n      tag_364\n      jump\t// in\n    tag_556:\n        /* \"#utility.yul\":11743:11806   */\n      swap2\n      pop\n        /* \"#utility.yul\":11698:11816   */\n      pop\n        /* \"#utility.yul\":11349:11823   */\n      swap3\n      pop\n      swap3\n      swap1\n      pop\n      jump\t// out\n        /* \"#utility.yul\":11829:12009   */\n    tag_379:\n        /* \"#utility.yul\":11877:11954   */\n      0x4e487b7100000000000000000000000000000000000000000000000000000000\n        /* \"#utility.yul\":11874:11875   */\n      0x00\n        /* \"#utility.yul\":11867:11955   */\n      mstore\n        /* \"#utility.yul\":11974:11978   */\n      0x22\n        /* \"#utility.yul\":11971:11972   */\n      0x04\n        /* \"#utility.yul\":11964:11979   */\n      mstore\n        /* \"#utility.yul\":11998:12002   */\n      0x24\n        /* \"#utility.yul\":11995:11996   */\n      0x00\n        /* \"#utility.yul\":11988:12003   */\n      revert\n        /* \"#utility.yul\":12015:12335   */\n    tag_150:\n        /* \"#utility.yul\":12059:12065   */\n      0x00\n        /* \"#utility.yul\":12096:12097   */\n      0x02\n        /* \"#utility.yul\":12090:12094   */\n      dup3\n        /* \"#utility.yul\":12086:12098   */\n      div\n        /* \"#utility.yul\":12076:12098   */\n      swap1\n      pop\n        /* \"#utility.yul\":12143:12144   */\n      0x01\n        /* \"#utility.yul\":12137:12141   */\n      dup3\n        /* \"#utility.yul\":12133:12145   */\n      and\n        /* \"#utility.yul\":12164:12182   */\n      dup1\n        /* \"#utility.yul\":12154:12235   */\n      tag_559\n      jumpi\n        /* \"#utility.yul\":12220:12224   */\n      0x7f\n        /* \"#utility.yul\":12212:12218   */\n      dup3\n        /* \"#utility.yul\":12208:12225   */\n      and\n        /* \"#utility.yul\":12198:12225   */\n      swap2\n      pop\n        /* \"#utility.yul\":12154:12235   */\n    tag_559:\n        /* \"#utility.yul\":12282:12284   */\n      0x20\n        /* \"#utility.yul\":12274:12280   */\n      dup3\n        /* \"#utility.yul\":12271:12285   */\n      lt\n        /* \"#utility.yul\":12251:12269   */\n      dup2\n        /* \"#utility.yul\":12248:12286   */\n      sub\n        /* \"#utility.yul\":12245:12329   */\n      tag_560\n      jumpi\n        /* \"#utility.yul\":12301:12319   */\n      tag_561\n      tag_379\n      jump\t// in\n    tag_561:\n        /* \"#utility.yul\":12245:12329   */\n    tag_560:\n        /* \"#utility.yul\":12066:12335   */\n      pop\n        /* \"#utility.yul\":12015:12335   */\n      swap2\n      swap1\n      pop\n      jump\t// out\n        /* \"#utility.yul\":12341:12502   */\n    tag_380:\n        /* \"#utility.yul\":12481:12494   */\n      0x676574417070726f766564000000000000000000000000000000000000000000\n        /* \"#utility.yul\":12477:12478   */\n      0x00\n        /* \"#utility.yul\":12469:12475   */\n      dup3\n        /* \"#utility.yul\":12465:12479   */\n      add\n        /* \"#utility.yul\":12458:12495   */\n      mstore\n        /* \"#utility.yul\":12341:12502   */\n      pop\n      jump\t// out\n        /* \"#utility.yul\":12508:12874   */\n    tag_381:\n        /* \"#utility.yul\":12650:12653   */\n      0x00\n        /* \"#utility.yul\":12671:12738   */\n      tag_564\n        /* \"#utility.yul\":12735:12737   */\n      0x0b\n        /* \"#utility.yul\":12730:12733   */\n      dup4\n        /* \"#utility.yul\":12671:12738   */\n      tag_353\n      jump\t// in\n    tag_564:\n        /* \"#utility.yul\":12664:12738   */\n      swap2\n      pop\n        /* \"#utility.yul\":12747:12840   */\n      tag_565\n        /* \"#utility.yul\":12836:12839   */\n      dup3\n        /* \"#utility.yul\":12747:12840   */\n      tag_380\n      jump\t// in\n    tag_565:\n        /* \"#utility.yul\":12865:12867   */\n      0x20\n        /* \"#utility.yul\":12860:12863   */\n      dup3\n        /* \"#utility.yul\":12856:12868   */\n      add\n        /* \"#utility.yul\":12849:12868   */\n      swap1\n      pop\n        /* \"#utility.yul\":12508:12874   */\n      swap2\n      swap1\n      pop\n      jump\t// out\n        /* \"#utility.yul\":12880:13299   */\n    tag_157:\n        /* \"#utility.yul\":13046:13050   */\n      0x00\n        /* \"#utility.yul\":13084:13086   */\n      0x20\n        /* \"#utility.yul\":13073:13082   */\n      dup3\n        /* \"#utility.yul\":13069:13087   */\n      add\n        /* \"#utility.yul\":13061:13087   */\n      swap1\n      pop\n        /* \"#utility.yul\":13133:13142   */\n      dup2\n        /* \"#utility.yul\":13127:13131   */\n      dup2\n        /* \"#utility.yul\":13123:13143   */\n      sub\n        /* \"#utility.yul\":13119:13120   */\n      0x00\n        /* \"#utility.yul\":13108:13117   */\n      dup4\n        /* \"#utility.yul\":13104:13121   */\n      add\n        /* \"#utility.yul\":13097:13144   */\n      mstore\n        /* \"#utility.yul\":13161:13292   */\n      tag_567\n        /* \"#utility.yul\":13287:13291   */\n      dup2\n        /* \"#utility.yul\":13161:13292   */\n      tag_381\n      jump\t// in\n    tag_567:\n        /* \"#utility.yul\":13153:13292   */\n      swap1\n      pop\n        /* \"#utility.yul\":12880:13299   */\n      swap2\n      swap1\n      pop\n      jump\t// out\n        /* \"#utility.yul\":13305:13462   */\n    tag_382:\n        /* \"#utility.yul\":13445:13454   */\n      0x617070726f766500000000000000000000000000000000000000000000000000\n        /* \"#utility.yul\":13441:13442   */\n      0x00\n        /* \"#utility.yul\":13433:13439   */\n      dup3\n        /* \"#utility.yul\":13429:13443   */\n      add\n        /* \"#utility.yul\":13422:13455   */\n      mstore\n        /* \"#utility.yul\":13305:13462   */\n      pop\n      jump\t// out\n        /* \"#utility.yul\":13468:13833   */\n    tag_383:\n        /* \"#utility.yul\":13610:13613   */\n      0x00\n        /* \"#utility.yul\":13631:13697   */\n      tag_570\n        /* \"#utility.yul\":13695:13696   */\n      0x07\n        /* \"#utility.yul\":13690:13693   */\n      dup4\n        /* \"#utility.yul\":13631:13697   */\n      tag_353\n      jump\t// in\n    tag_570:\n        /* \"#utility.yul\":13624:13697   */\n      swap2\n      pop\n        /* \"#utility.yul\":13706:13799   */\n      tag_571\n        /* \"#utility.yul\":13795:13798   */\n      dup3\n        /* \"#utility.yul\":13706:13799   */\n      tag_382\n      jump\t// in\n    tag_571:\n        /* \"#utility.yul\":13824:13826   */\n      0x20\n        /* \"#utility.yul\":13819:13822   */\n      dup3\n        /* \"#utility.yul\":13815:13827   */\n      add\n        /* \"#utility.yul\":13808:13827   */\n      swap1\n      pop\n        /* \"#utility.yul\":13468:13833   */\n      swap2\n      swap1\n      pop\n      jump\t// out\n        /* \"#utility.yul\":13839:14258   */\n    tag_160:\n        /* \"#utility.yul\":14005:14009   */\n      0x00\n        /* \"#utility.yul\":14043:14045   */\n      0x20\n        /* \"#utility.yul\":14032:14041   */\n      dup3\n        /* \"#utility.yul\":14028:14046   */\n      add\n        /* \"#utility.yul\":14020:14046   */\n      swap1\n      pop\n        /* \"#utility.yul\":14092:14101   */\n      dup2\n        /* \"#utility.yul\":14086:14090   */\n      dup2\n        /* \"#utility.yul\":14082:14102   */\n      sub\n        /* \"#utility.yul\":14078:14079   */\n      0x00\n        /* \"#utility.yul\":14067:14076   */\n      dup4\n        /* \"#utility.yul\":14063:14080   */\n      add\n        /* \"#utility.yul\":14056:14103   */\n      mstore\n        /* \"#utility.yul\":14120:14251   */\n      tag_573\n        /* \"#utility.yul\":14246:14250   */\n      dup2\n        /* \"#utility.yul\":14120:14251   */\n      tag_383\n      jump\t// in\n    tag_573:\n        /* \"#utility.yul\":14112:14251   */\n      swap1\n      pop\n        /* \"#utility.yul\":13839:14258   */\n      swap2\n      swap1\n      pop\n      jump\t// out\n        /* \"#utility.yul\":14264:14426   */\n    tag_384:\n        /* \"#utility.yul\":14404:14418   */\n      0x7472616e7366657246726f6d0000000000000000000000000000000000000000\n        /* \"#utility.yul\":14400:14401   */\n      0x00\n        /* \"#utility.yul\":14392:14398   */\n      dup3\n        /* \"#utility.yul\":14388:14402   */\n      add\n        /* \"#utility.yul\":14381:14419   */\n      mstore\n        /* \"#utility.yul\":14264:14426   */\n      pop\n      jump\t// out\n        /* \"#utility.yul\":14432:14798   */\n    tag_385:\n        /* \"#utility.yul\":14574:14577   */\n      0x00\n        /* \"#utility.yul\":14595:14662   */\n      tag_576\n        /* \"#utility.yul\":14659:14661   */\n      0x0c\n        /* \"#utility.yul\":14654:14657   */\n      dup4\n        /* \"#utility.yul\":14595:14662   */\n      tag_353\n      jump\t// in\n    tag_576:\n        /* \"#utility.yul\":14588:14662   */\n      swap2\n      pop\n        /* \"#utility.yul\":14671:14764   */\n      tag_577\n        /* \"#utility.yul\":14760:14763   */\n      dup3\n        /* \"#utility.yul\":14671:14764   */\n      tag_384\n      jump\t// in\n    tag_577:\n        /* \"#utility.yul\":14789:14791   */\n      0x20\n        /* \"#utility.yul\":14784:14787   */\n      dup3\n        /* \"#utility.yul\":14780:14792   */\n      add\n        /* \"#utility.yul\":14773:14792   */\n      swap1\n      pop\n        /* \"#utility.yul\":14432:14798   */\n      swap2\n      swap1\n      pop\n      jump\t// out\n        /* \"#utility.yul\":14804:15223   */\n    tag_167:\n        /* \"#utility.yul\":14970:14974   */\n      0x00\n        /* \"#utility.yul\":15008:15010   */\n      0x20\n        /* \"#utility.yul\":14997:15006   */\n      dup3\n        /* \"#utility.yul\":14993:15011   */\n      add\n        /* \"#utility.yul\":14985:15011   */\n      swap1\n      pop\n        /* \"#utility.yul\":15057:15066   */\n      dup2\n        /* \"#utility.yul\":15051:15055   */\n      dup2\n        /* \"#utility.yul\":15047:15067   */\n      sub\n        /* \"#utility.yul\":15043:15044   */\n      0x00\n        /* \"#utility.yul\":15032:15041   */\n      dup4\n        /* \"#utility.yul\":15028:15045   */\n      add\n        /* \"#utility.yul\":15021:15068   */\n      mstore\n        /* \"#utility.yul\":15085:15216   */\n      tag_579\n        /* \"#utility.yul\":15211:15215   */\n      dup2\n        /* \"#utility.yul\":15085:15216   */\n      tag_385\n      jump\t// in\n    tag_579:\n        /* \"#utility.yul\":15077:15216   */\n      swap1\n      pop\n        /* \"#utility.yul\":14804:15223   */\n      swap2\n      swap1\n      pop\n      jump\t// out\n        /* \"#utility.yul\":15229:15391   */\n    tag_386:\n        /* \"#utility.yul\":15369:15383   */\n      0x4f7574206f6620496e6465780000000000000000000000000000000000000000\n        /* \"#utility.yul\":15365:15366   */\n      0x00\n        /* \"#utility.yul\":15357:15363   */\n      dup3\n        /* \"#utility.yul\":15353:15367   */\n      add\n        /* \"#utility.yul\":15346:15384   */\n      mstore\n        /* \"#utility.yul\":15229:15391   */\n      pop\n      jump\t// out\n        /* \"#utility.yul\":15397:15763   */\n    tag_387:\n        /* \"#utility.yul\":15539:15542   */\n      0x00\n        /* \"#utility.yul\":15560:15627   */\n      tag_582\n        /* \"#utility.yul\":15624:15626   */\n      0x0c\n        /* \"#utility.yul\":15619:15622   */\n      dup4\n        /* \"#utility.yul\":15560:15627   */\n      tag_353\n      jump\t// in\n    tag_582:\n        /* \"#utility.yul\":15553:15627   */\n      swap2\n      pop\n        /* \"#utility.yul\":15636:15729   */\n      tag_583\n        /* \"#utility.yul\":15725:15728   */\n      dup3\n        /* \"#utility.yul\":15636:15729   */\n      tag_386\n      jump\t// in\n    tag_583:\n        /* \"#utility.yul\":15754:15756   */\n      0x20\n        /* \"#utility.yul\":15749:15752   */\n      dup3\n        /* \"#utility.yul\":15745:15757   */\n      add\n        /* \"#utility.yul\":15738:15757   */\n      swap1\n      pop\n        /* \"#utility.yul\":15397:15763   */\n      swap2\n      swap1\n      pop\n      jump\t// out\n        /* \"#utility.yul\":15769:16188   */\n    tag_173:\n        /* \"#utility.yul\":15935:15939   */\n      0x00\n        /* \"#utility.yul\":15973:15975   */\n      0x20\n        /* \"#utility.yul\":15962:15971   */\n      dup3\n        /* \"#utility.yul\":15958:15976   */\n      add\n        /* \"#utility.yul\":15950:15976   */\n      swap1\n      pop\n        /* \"#utility.yul\":16022:16031   */\n      dup2\n        /* \"#utility.yul\":16016:16020   */\n      dup2\n        /* \"#utility.yul\":16012:16032   */\n      sub\n        /* \"#utility.yul\":16008:16009   */\n      0x00\n        /* \"#utility.yul\":15997:16006   */\n      dup4\n        /* \"#utility.yul\":15993:16010   */\n      add\n        /* \"#utility.yul\":15986:16033   */\n      mstore\n        /* \"#utility.yul\":16050:16181   */\n      tag_585\n        /* \"#utility.yul\":16176:16180   */\n      dup2\n        /* \"#utility.yul\":16050:16181   */\n      tag_387\n      jump\t// in\n    tag_585:\n        /* \"#utility.yul\":16042:16181   */\n      swap1\n      pop\n        /* \"#utility.yul\":15769:16188   */\n      swap2\n      swap1\n      pop\n      jump\t// out\n        /* \"#utility.yul\":16194:16360   */\n    tag_388:\n        /* \"#utility.yul\":16334:16352   */\n      0x736166655472616e7366657246726f6d00000000000000000000000000000000\n        /* \"#utility.yul\":16330:16331   */\n      0x00\n        /* \"#utility.yul\":16322:16328   */\n      dup3\n        /* \"#utility.yul\":16318:16332   */\n      add\n        /* \"#utility.yul\":16311:16353   */\n      mstore\n        /* \"#utility.yul\":16194:16360   */\n      pop\n      jump\t// out\n        /* \"#utility.yul\":16366:16732   */\n    tag_389:\n        /* \"#utility.yul\":16508:16511   */\n      0x00\n        /* \"#utility.yul\":16529:16596   */\n      tag_588\n        /* \"#utility.yul\":16593:16595   */\n      0x10\n        /* \"#utility.yul\":16588:16591   */\n      dup4\n        /* \"#utility.yul\":16529:16596   */\n      tag_353\n      jump\t// in\n    tag_588:\n        /* \"#utility.yul\":16522:16596   */\n      swap2\n      pop\n        /* \"#utility.yul\":16605:16698   */\n      tag_589\n        /* \"#utility.yul\":16694:16697   */\n      dup3\n        /* \"#utility.yul\":16605:16698   */\n      tag_388\n      jump\t// in\n    tag_589:\n        /* \"#utility.yul\":16723:16725   */\n      0x20\n        /* \"#utility.yul\":16718:16721   */\n      dup3\n        /* \"#utility.yul\":16714:16726   */\n      add\n        /* \"#utility.yul\":16707:16726   */\n      swap1\n      pop\n        /* \"#utility.yul\":16366:16732   */\n      swap2\n      swap1\n      pop\n      jump\t// out\n        /* \"#utility.yul\":16738:17157   */\n    tag_186:\n        /* \"#utility.yul\":16904:16908   */\n      0x00\n        /* \"#utility.yul\":16942:16944   */\n      0x20\n        /* \"#utility.yul\":16931:16940   */\n      dup3\n        /* \"#utility.yul\":16927:16945   */\n      add\n        /* \"#utility.yul\":16919:16945   */\n      swap1\n      pop\n        /* \"#utility.yul\":16991:17000   */\n      dup2\n        /* \"#utility.yul\":16985:16989   */\n      dup2\n        /* \"#utility.yul\":16981:17001   */\n      sub\n        /* \"#utility.yul\":16977:16978   */\n      0x00\n        /* \"#utility.yul\":16966:16975   */\n      dup4\n        /* \"#utility.yul\":16962:16979   */\n      add\n        /* \"#utility.yul\":16955:17002   */\n      mstore\n        /* \"#utility.yul\":17019:17150   */\n      tag_591\n        /* \"#utility.yul\":17145:17149   */\n      dup2\n        /* \"#utility.yul\":17019:17150   */\n      tag_389\n      jump\t// in\n    tag_591:\n        /* \"#utility.yul\":17011:17150   */\n      swap1\n      pop\n        /* \"#utility.yul\":16738:17157   */\n      swap2\n      swap1\n      pop\n      jump\t// out\n        /* \"#utility.yul\":17163:17330   */\n    tag_390:\n        /* \"#utility.yul\":17303:17322   */\n      0x736574417070726f76616c466f72416c6c000000000000000000000000000000\n        /* \"#utility.yul\":17299:17300   */\n      0x00\n        /* \"#utility.yul\":17291:17297   */\n      dup3\n        /* \"#utility.yul\":17287:17301   */\n      add\n        /* \"#utility.yul\":17280:17323   */\n      mstore\n        /* \"#utility.yul\":17163:17330   */\n      pop\n      jump\t// out\n        /* \"#utility.yul\":17336:17702   */\n    tag_391:\n        /* \"#utility.yul\":17478:17481   */\n      0x00\n        /* \"#utility.yul\":17499:17566   */\n      tag_594\n        /* \"#utility.yul\":17563:17565   */\n      0x11\n        /* \"#utility.yul\":17558:17561   */\n      dup4\n        /* \"#utility.yul\":17499:17566   */\n      tag_353\n      jump\t// in\n    tag_594:\n        /* \"#utility.yul\":17492:17566   */\n      swap2\n      pop\n        /* \"#utility.yul\":17575:17668   */\n      tag_595\n        /* \"#utility.yul\":17664:17667   */\n      dup3\n        /* \"#utility.yul\":17575:17668   */\n      tag_390\n      jump\t// in\n    tag_595:\n        /* \"#utility.yul\":17693:17695   */\n      0x20\n        /* \"#utility.yul\":17688:17691   */\n      dup3\n        /* \"#utility.yul\":17684:17696   */\n      add\n        /* \"#utility.yul\":17677:17696   */\n      swap1\n      pop\n        /* \"#utility.yul\":17336:17702   */\n      swap2\n      swap1\n      pop\n      jump\t// out\n        /* \"#utility.yul\":17708:18127   */\n    tag_212:\n        /* \"#utility.yul\":17874:17878   */\n      0x00\n        /* \"#utility.yul\":17912:17914   */\n      0x20\n        /* \"#utility.yul\":17901:17910   */\n      dup3\n        /* \"#utility.yul\":17897:17915   */\n      add\n        /* \"#utility.yul\":17889:17915   */\n      swap1\n      pop\n        /* \"#utility.yul\":17961:17970   */\n      dup2\n        /* \"#utility.yul\":17955:17959   */\n      dup2\n        /* \"#utility.yul\":17951:17971   */\n      sub\n        /* \"#utility.yul\":17947:17948   */\n      0x00\n        /* \"#utility.yul\":17936:17945   */\n      dup4\n        /* \"#utility.yul\":17932:17949   */\n      add\n        /* \"#utility.yul\":17925:17972   */\n      mstore\n        /* \"#utility.yul\":17989:18120   */\n      tag_597\n        /* \"#utility.yul\":18115:18119   */\n      dup2\n        /* \"#utility.yul\":17989:18120   */\n      tag_391\n      jump\t// in\n    tag_597:\n        /* \"#utility.yul\":17981:18120   */\n      swap1\n      pop\n        /* \"#utility.yul\":17708:18127   */\n      swap2\n      swap1\n      pop\n      jump\t// out\n        /* \"#utility.yul\":18133:18281   */\n    tag_392:\n        /* \"#utility.yul\":18235:18246   */\n      0x00\n        /* \"#utility.yul\":18272:18275   */\n      dup2\n        /* \"#utility.yul\":18257:18275   */\n      swap1\n      pop\n        /* \"#utility.yul\":18133:18281   */\n      swap3\n      swap2\n      pop\n      pop\n      jump\t// out\n        /* \"#utility.yul\":18287:18428   */\n    tag_393:\n        /* \"#utility.yul\":18336:18340   */\n      0x00\n        /* \"#utility.yul\":18359:18362   */\n      dup2\n        /* \"#utility.yul\":18351:18362   */\n      swap1\n      pop\n        /* \"#utility.yul\":18382:18385   */\n      dup2\n        /* \"#utility.yul\":18379:18380   */\n      0x00\n        /* \"#utility.yul\":18372:18386   */\n      mstore\n        /* \"#utility.yul\":18416:18420   */\n      0x20\n        /* \"#utility.yul\":18413:18414   */\n      0x00\n        /* \"#utility.yul\":18403:18421   */\n      keccak256\n        /* \"#utility.yul\":18395:18421   */\n      swap1\n      pop\n        /* \"#utility.yul\":18287:18428   */\n      swap2\n      swap1\n      pop\n      jump\t// out\n        /* \"#utility.yul\":18458:19332   */\n    tag_394:\n        /* \"#utility.yul\":18561:18564   */\n      0x00\n        /* \"#utility.yul\":18598:18603   */\n      dup2\n        /* \"#utility.yul\":18592:18604   */\n      sload\n        /* \"#utility.yul\":18627:18663   */\n      tag_601\n        /* \"#utility.yul\":18653:18662   */\n      dup2\n        /* \"#utility.yul\":18627:18663   */\n      tag_150\n      jump\t// in\n    tag_601:\n        /* \"#utility.yul\":18679:18768   */\n      tag_602\n        /* \"#utility.yul\":18761:18767   */\n      dup2\n        /* \"#utility.yul\":18756:18759   */\n      dup7\n        /* \"#utility.yul\":18679:18768   */\n      tag_392\n      jump\t// in\n    tag_602:\n        /* \"#utility.yul\":18672:18768   */\n      swap5\n      pop\n        /* \"#utility.yul\":18799:18800   */\n      0x01\n        /* \"#utility.yul\":18788:18797   */\n      dup3\n        /* \"#utility.yul\":18784:18801   */\n      and\n        /* \"#utility.yul\":18815:18816   */\n      0x00\n        /* \"#utility.yul\":18810:18976   */\n      dup2\n      eq\n      tag_604\n      jumpi\n        /* \"#utility.yul\":18990:18991   */\n      0x01\n        /* \"#utility.yul\":18985:19326   */\n      dup2\n      eq\n      tag_605\n      jumpi\n        /* \"#utility.yul\":18777:19326   */\n      jump(tag_603)\n        /* \"#utility.yul\":18810:18976   */\n    tag_604:\n        /* \"#utility.yul\":18894:18898   */\n      0xff\n        /* \"#utility.yul\":18890:18899   */\n      not\n        /* \"#utility.yul\":18879:18888   */\n      dup4\n        /* \"#utility.yul\":18875:18900   */\n      and\n        /* \"#utility.yul\":18870:18873   */\n      dup7\n        /* \"#utility.yul\":18863:18901   */\n      mstore\n        /* \"#utility.yul\":18956:18962   */\n      dup2\n        /* \"#utility.yul\":18949:18963   */\n      iszero\n        /* \"#utility.yul\":18942:18964   */\n      iszero\n        /* \"#utility.yul\":18934:18940   */\n      dup3\n        /* \"#utility.yul\":18930:18965   */\n      mul\n        /* \"#utility.yul\":18925:18928   */\n      dup7\n        /* \"#utility.yul\":18921:18966   */\n      add\n        /* \"#utility.yul\":18914:18966   */\n      swap4\n      pop\n        /* \"#utility.yul\":18810:18976   */\n      jump(tag_603)\n        /* \"#utility.yul\":18985:19326   */\n    tag_605:\n        /* \"#utility.yul\":19052:19090   */\n      tag_606\n        /* \"#utility.yul\":19084:19089   */\n      dup6\n        /* \"#utility.yul\":19052:19090   */\n      tag_393\n      jump\t// in\n    tag_606:\n        /* \"#utility.yul\":19112:19113   */\n      0x00\n        /* \"#utility.yul\":19126:19280   */\n    tag_607:\n        /* \"#utility.yul\":19140:19146   */\n      dup4\n        /* \"#utility.yul\":19137:19138   */\n      dup2\n        /* \"#utility.yul\":19134:19147   */\n      lt\n        /* \"#utility.yul\":19126:19280   */\n      iszero\n      tag_609\n      jumpi\n        /* \"#utility.yul\":19214:19221   */\n      dup2\n        /* \"#utility.yul\":19208:19222   */\n      sload\n        /* \"#utility.yul\":19204:19205   */\n      dup2\n        /* \"#utility.yul\":19199:19202   */\n      dup10\n        /* \"#utility.yul\":19195:19206   */\n      add\n        /* \"#utility.yul\":19188:19223   */\n      mstore\n        /* \"#utility.yul\":19264:19265   */\n      0x01\n        /* \"#utility.yul\":19255:19262   */\n      dup3\n        /* \"#utility.yul\":19251:19266   */\n      add\n        /* \"#utility.yul\":19240:19266   */\n      swap2\n      pop\n        /* \"#utility.yul\":19162:19166   */\n      0x20\n        /* \"#utility.yul\":19159:19160   */\n      dup2\n        /* \"#utility.yul\":19155:19167   */\n      add\n        /* \"#utility.yul\":19150:19167   */\n      swap1\n      pop\n        /* \"#utility.yul\":19126:19280   */\n      jump(tag_607)\n    tag_609:\n        /* \"#utility.yul\":19309:19315   */\n      dup4\n        /* \"#utility.yul\":19304:19307   */\n      dup9\n        /* \"#utility.yul\":19300:19316   */\n      add\n        /* \"#utility.yul\":19293:19316   */\n      swap6\n      pop\n        /* \"#utility.yul\":18992:19326   */\n      pop\n      pop\n        /* \"#utility.yul\":18777:19326   */\n    tag_603:\n      pop\n        /* \"#utility.yul\":18565:19332   */\n      pop\n      pop\n        /* \"#utility.yul\":18458:19332   */\n      swap3\n      swap2\n      pop\n      pop\n      jump\t// out\n        /* \"#utility.yul\":19338:19728   */\n    tag_395:\n        /* \"#utility.yul\":19444:19447   */\n      0x00\n        /* \"#utility.yul\":19472:19511   */\n      tag_611\n        /* \"#utility.yul\":19505:19510   */\n      dup3\n        /* \"#utility.yul\":19472:19511   */\n      tag_352\n      jump\t// in\n    tag_611:\n        /* \"#utility.yul\":19527:19616   */\n      tag_612\n        /* \"#utility.yul\":19609:19615   */\n      dup2\n        /* \"#utility.yul\":19604:19607   */\n      dup6\n        /* \"#utility.yul\":19527:19616   */\n      tag_392\n      jump\t// in\n    tag_612:\n        /* \"#utility.yul\":19520:19616   */\n      swap4\n      pop\n        /* \"#utility.yul\":19625:19690   */\n      tag_613\n        /* \"#utility.yul\":19683:19689   */\n      dup2\n        /* \"#utility.yul\":19678:19681   */\n      dup6\n        /* \"#utility.yul\":19671:19675   */\n      0x20\n        /* \"#utility.yul\":19664:19669   */\n      dup7\n        /* \"#utility.yul\":19660:19676   */\n      add\n        /* \"#utility.yul\":19625:19690   */\n      tag_354\n      jump\t// in\n    tag_613:\n        /* \"#utility.yul\":19715:19721   */\n      dup1\n        /* \"#utility.yul\":19710:19713   */\n      dup5\n        /* \"#utility.yul\":19706:19722   */\n      add\n        /* \"#utility.yul\":19699:19722   */\n      swap2\n      pop\n        /* \"#utility.yul\":19448:19728   */\n      pop\n        /* \"#utility.yul\":19338:19728   */\n      swap3\n      swap2\n      pop\n      pop\n      jump\t// out\n        /* \"#utility.yul\":19734:19895   */\n    tag_396:\n        /* \"#utility.yul\":19874:19887   */\n      0x3f746f6b656e547970653d000000000000000000000000000000000000000000\n        /* \"#utility.yul\":19870:19871   */\n      0x00\n        /* \"#utility.yul\":19862:19868   */\n      dup3\n        /* \"#utility.yul\":19858:19872   */\n      add\n        /* \"#utility.yul\":19851:19888   */\n      mstore\n        /* \"#utility.yul\":19734:19895   */\n      pop\n      jump\t// out\n        /* \"#utility.yul\":19901:20303   */\n    tag_397:\n        /* \"#utility.yul\":20061:20064   */\n      0x00\n        /* \"#utility.yul\":20082:20167   */\n      tag_616\n        /* \"#utility.yul\":20164:20166   */\n      0x0b\n        /* \"#utility.yul\":20159:20162   */\n      dup4\n        /* \"#utility.yul\":20082:20167   */\n      tag_392\n      jump\t// in\n    tag_616:\n        /* \"#utility.yul\":20075:20167   */\n      swap2\n      pop\n        /* \"#utility.yul\":20176:20269   */\n      tag_617\n        /* \"#utility.yul\":20265:20268   */\n      dup3\n        /* \"#utility.yul\":20176:20269   */\n      tag_396\n      jump\t// in\n    tag_617:\n        /* \"#utility.yul\":20294:20296   */\n      0x0b\n        /* \"#utility.yul\":20289:20292   */\n      dup3\n        /* \"#utility.yul\":20285:20297   */\n      add\n        /* \"#utility.yul\":20278:20297   */\n      swap1\n      pop\n        /* \"#utility.yul\":19901:20303   */\n      swap2\n      swap1\n      pop\n      jump\t// out\n        /* \"#utility.yul\":20309:21164   */\n    tag_228:\n        /* \"#utility.yul\":20635:20638   */\n      0x00\n        /* \"#utility.yul\":20657:20749   */\n      tag_619\n        /* \"#utility.yul\":20745:20748   */\n      dup3\n        /* \"#utility.yul\":20736:20742   */\n      dup7\n        /* \"#utility.yul\":20657:20749   */\n      tag_394\n      jump\t// in\n    tag_619:\n        /* \"#utility.yul\":20650:20749   */\n      swap2\n      pop\n        /* \"#utility.yul\":20766:20861   */\n      tag_620\n        /* \"#utility.yul\":20857:20860   */\n      dup3\n        /* \"#utility.yul\":20848:20854   */\n      dup6\n        /* \"#utility.yul\":20766:20861   */\n      tag_395\n      jump\t// in\n    tag_620:\n        /* \"#utility.yul\":20759:20861   */\n      swap2\n      pop\n        /* \"#utility.yul\":20878:21026   */\n      tag_621\n        /* \"#utility.yul\":21022:21025   */\n      dup3\n        /* \"#utility.yul\":20878:21026   */\n      tag_397\n      jump\t// in\n    tag_621:\n        /* \"#utility.yul\":20871:21026   */\n      swap2\n      pop\n        /* \"#utility.yul\":21043:21138   */\n      tag_622\n        /* \"#utility.yul\":21134:21137   */\n      dup3\n        /* \"#utility.yul\":21125:21131   */\n      dup5\n        /* \"#utility.yul\":21043:21138   */\n      tag_395\n      jump\t// in\n    tag_622:\n        /* \"#utility.yul\":21036:21138   */\n      swap2\n      pop\n        /* \"#utility.yul\":21155:21158   */\n      dup2\n        /* \"#utility.yul\":21148:21158   */\n      swap1\n      pop\n        /* \"#utility.yul\":20309:21164   */\n      swap5\n      swap4\n      pop\n      pop\n      pop\n      pop\n      jump\t// out\n        /* \"#utility.yul\":21170:21263   */\n    tag_398:\n        /* \"#utility.yul\":21207:21213   */\n      0x00\n        /* \"#utility.yul\":21254:21256   */\n      0x20\n        /* \"#utility.yul\":21249:21251   */\n      0x1f\n        /* \"#utility.yul\":21242:21247   */\n      dup4\n        /* \"#utility.yul\":21238:21252   */\n      add\n        /* \"#utility.yul\":21234:21257   */\n      div\n        /* \"#utility.yul\":21224:21257   */\n      swap1\n      pop\n        /* \"#utility.yul\":21170:21263   */\n      swap2\n      swap1\n      pop\n      jump\t// out\n        /* \"#utility.yul\":21269:21376   */\n    tag_399:\n        /* \"#utility.yul\":21313:21321   */\n      0x00\n        /* \"#utility.yul\":21363:21368   */\n      dup3\n        /* \"#utility.yul\":21357:21361   */\n      dup3\n        /* \"#utility.yul\":21353:21369   */\n      shl\n        /* \"#utility.yul\":21332:21369   */\n      swap1\n      pop\n        /* \"#utility.yul\":21269:21376   */\n      swap3\n      swap2\n      pop\n      pop\n      jump\t// out\n        /* \"#utility.yul\":21382:21775   */\n    tag_400:\n        /* \"#utility.yul\":21451:21457   */\n      0x00\n        /* \"#utility.yul\":21501:21502   */\n      0x08\n        /* \"#utility.yul\":21489:21499   */\n      dup4\n        /* \"#utility.yul\":21485:21503   */\n      mul\n        /* \"#utility.yul\":21524:21621   */\n      tag_626\n        /* \"#utility.yul\":21554:21620   */\n      0xffffffffffffffffffffffffffffffffffffffffffffffffffffffffffffffff\n        /* \"#utility.yul\":21543:21552   */\n      dup3\n        /* \"#utility.yul\":21524:21621   */\n      tag_399\n      jump\t// in\n    tag_626:\n        /* \"#utility.yul\":21642:21681   */\n      tag_627\n        /* \"#utility.yul\":21672:21680   */\n      dup7\n        /* \"#utility.yul\":21661:21670   */\n      dup4\n        /* \"#utility.yul\":21642:21681   */\n      tag_399\n      jump\t// in\n    tag_627:\n        /* \"#utility.yul\":21630:21681   */\n      swap6\n      pop\n        /* \"#utility.yul\":21714:21718   */\n      dup1\n        /* \"#utility.yul\":21710:21719   */\n      not\n        /* \"#utility.yul\":21703:21708   */\n      dup5\n        /* \"#utility.yul\":21699:21720   */\n      and\n        /* \"#utility.yul\":21690:21720   */\n      swap4\n      pop\n        /* \"#utility.yul\":21763:21767   */\n      dup1\n        /* \"#utility.yul\":21753:21761   */\n      dup7\n        /* \"#utility.yul\":21749:21768   */\n      and\n        /* \"#utility.yul\":21742:21747   */\n      dup5\n        /* \"#utility.yul\":21739:21769   */\n      or\n        /* \"#utility.yul\":21729:21769   */\n      swap3\n      pop\n        /* \"#utility.yul\":21458:21775   */\n      pop\n      pop\n        /* \"#utility.yul\":21382:21775   */\n      swap4\n      swap3\n      pop\n      pop\n      pop\n      jump\t// out\n        /* \"#utility.yul\":21781:21841   */\n    tag_401:\n        /* \"#utility.yul\":21809:21812   */\n      0x00\n        /* \"#utility.yul\":21830:21835   */\n      dup2\n        /* \"#utility.yul\":21823:21835   */\n      swap1\n      pop\n        /* \"#utility.yul\":21781:21841   */\n      swap2\n      swap1\n      pop\n      jump\t// out\n        /* \"#utility.yul\":21847:21989   */\n    tag_402:\n        /* \"#utility.yul\":21897:21906   */\n      0x00\n        /* \"#utility.yul\":21930:21983   */\n      tag_630\n        /* \"#utility.yul\":21948:21982   */\n      tag_631\n        /* \"#utility.yul\":21957:21981   */\n      tag_632\n        /* \"#utility.yul\":21975:21980   */\n      dup5\n        /* \"#utility.yul\":21957:21981   */\n      tag_357\n      jump\t// in\n    tag_632:\n        /* \"#utility.yul\":21948:21982   */\n      tag_401\n      jump\t// in\n    tag_631:\n        /* \"#utility.yul\":21930:21983   */\n      tag_357\n      jump\t// in\n    tag_630:\n        /* \"#utility.yul\":21917:21983   */\n      swap1\n      pop\n        /* \"#utility.yul\":21847:21989   */\n      swap2\n      swap1\n      pop\n      jump\t// out\n        /* \"#utility.yul\":21995:22070   */\n    tag_403:\n        /* \"#utility.yul\":22038:22041   */\n      0x00\n        /* \"#utility.yul\":22059:22064   */\n      dup2\n        /* \"#utility.yul\":22052:22064   */\n      swap1\n      pop\n        /* \"#utility.yul\":21995:22070   */\n      swap2\n      swap1\n      pop\n      jump\t// out\n        /* \"#utility.yul\":22076:22345   */\n    tag_404:\n        /* \"#utility.yul\":22186:22225   */\n      tag_635\n        /* \"#utility.yul\":22217:22224   */\n      dup4\n        /* \"#utility.yul\":22186:22225   */\n      tag_402\n      jump\t// in\n    tag_635:\n        /* \"#utility.yul\":22247:22338   */\n      tag_636\n        /* \"#utility.yul\":22296:22337   */\n      tag_637\n        /* \"#utility.yul\":22320:22336   */\n      dup3\n        /* \"#utility.yul\":22296:22337   */\n      tag_403\n      jump\t// in\n    tag_637:\n        /* \"#utility.yul\":22288:22294   */\n      dup5\n        /* \"#utility.yul\":22281:22285   */\n      dup5\n        /* \"#utility.yul\":22275:22286   */\n      sload\n        /* \"#utility.yul\":22247:22338   */\n      tag_400\n      jump\t// in\n    tag_636:\n        /* \"#utility.yul\":22241:22245   */\n      dup3\n        /* \"#utility.yul\":22234:22339   */\n      sstore\n        /* \"#utility.yul\":22152:22345   */\n      pop\n        /* \"#utility.yul\":22076:22345   */\n      pop\n      pop\n      pop\n      jump\t// out\n        /* \"#utility.yul\":22351:22424   */\n    tag_405:\n        /* \"#utility.yul\":22396:22399   */\n      0x00\n        /* \"#utility.yul\":22351:22424   */\n      swap1\n      jump\t// out\n        /* \"#utility.yul\":22430:22619   */\n    tag_406:\n        /* \"#utility.yul\":22507:22539   */\n      tag_640\n      tag_405\n      jump\t// in\n    tag_640:\n        /* \"#utility.yul\":22548:22613   */\n      tag_641\n        /* \"#utility.yul\":22606:22612   */\n      dup2\n        /* \"#utility.yul\":22598:22604   */\n      dup5\n        /* \"#utility.yul\":22592:22596   */\n      dup5\n        /* \"#utility.yul\":22548:22613   */\n      tag_404\n      jump\t// in\n    tag_641:\n        /* \"#utility.yul\":22483:22619   */\n      pop\n        /* \"#utility.yul\":22430:22619   */\n      pop\n      pop\n      jump\t// out\n        /* \"#utility.yul\":22625:22811   */\n    tag_407:\n        /* \"#utility.yul\":22685:22805   */\n    tag_643:\n        /* \"#utility.yul\":22702:22705   */\n      dup2\n        /* \"#utility.yul\":22695:22700   */\n      dup2\n        /* \"#utility.yul\":22692:22706   */\n      lt\n        /* \"#utility.yul\":22685:22805   */\n      iszero\n      tag_645\n      jumpi\n        /* \"#utility.yul\":22756:22795   */\n      tag_646\n        /* \"#utility.yul\":22793:22794   */\n      0x00\n        /* \"#utility.yul\":22786:22791   */\n      dup3\n        /* \"#utility.yul\":22756:22795   */\n      tag_406\n      jump\t// in\n    tag_646:\n        /* \"#utility.yul\":22729:22730   */\n      0x01\n        /* \"#utility.yul\":22722:22727   */\n      dup2\n        /* \"#utility.yul\":22718:22731   */\n      add\n        /* \"#utility.yul\":22709:22731   */\n      swap1\n      pop\n        /* \"#utility.yul\":22685:22805   */\n      jump(tag_643)\n    tag_645:\n        /* \"#utility.yul\":22625:22811   */\n      pop\n      pop\n      jump\t// out\n        /* \"#utility.yul\":22817:23360   */\n    tag_408:\n        /* \"#utility.yul\":22918:22920   */\n      0x1f\n        /* \"#utility.yul\":22913:22916   */\n      dup3\n        /* \"#utility.yul\":22910:22921   */\n      gt\n        /* \"#utility.yul\":22907:23353   */\n      iszero\n      tag_648\n      jumpi\n        /* \"#utility.yul\":22952:22990   */\n      tag_649\n        /* \"#utility.yul\":22984:22989   */\n      dup2\n        /* \"#utility.yul\":22952:22990   */\n      tag_393\n      jump\t// in\n    tag_649:\n        /* \"#utility.yul\":23036:23065   */\n      tag_650\n        /* \"#utility.yul\":23054:23064   */\n      dup5\n        /* \"#utility.yul\":23036:23065   */\n      tag_398\n      jump\t// in\n    tag_650:\n        /* \"#utility.yul\":23026:23034   */\n      dup2\n        /* \"#utility.yul\":23022:23066   */\n      add\n        /* \"#utility.yul\":23219:23221   */\n      0x20\n        /* \"#utility.yul\":23207:23217   */\n      dup6\n        /* \"#utility.yul\":23204:23222   */\n      lt\n        /* \"#utility.yul\":23201:23250   */\n      iszero\n      tag_651\n      jumpi\n        /* \"#utility.yul\":23240:23248   */\n      dup2\n        /* \"#utility.yul\":23225:23248   */\n      swap1\n      pop\n        /* \"#utility.yul\":23201:23250   */\n    tag_651:\n        /* \"#utility.yul\":23263:23343   */\n      tag_652\n        /* \"#utility.yul\":23319:23341   */\n      tag_653\n        /* \"#utility.yul\":23337:23340   */\n      dup6\n        /* \"#utility.yul\":23319:23341   */\n      tag_398\n      jump\t// in\n    tag_653:\n        /* \"#utility.yul\":23309:23317   */\n      dup4\n        /* \"#utility.yul\":23305:23342   */\n      add\n        /* \"#utility.yul\":23292:23303   */\n      dup3\n        /* \"#utility.yul\":23263:23343   */\n      tag_407\n      jump\t// in\n    tag_652:\n        /* \"#utility.yul\":22922:23353   */\n      pop\n      pop\n        /* \"#utility.yul\":22907:23353   */\n    tag_648:\n        /* \"#utility.yul\":22817:23360   */\n      pop\n      pop\n      pop\n      jump\t// out\n        /* \"#utility.yul\":23366:23483   */\n    tag_409:\n        /* \"#utility.yul\":23420:23428   */\n      0x00\n        /* \"#utility.yul\":23470:23475   */\n      dup3\n        /* \"#utility.yul\":23464:23468   */\n      dup3\n        /* \"#utility.yul\":23460:23476   */\n      shr\n        /* \"#utility.yul\":23439:23476   */\n      swap1\n      pop\n        /* \"#utility.yul\":23366:23483   */\n      swap3\n      swap2\n      pop\n      pop\n      jump\t// out\n        /* \"#utility.yul\":23489:23658   */\n    tag_410:\n        /* \"#utility.yul\":23533:23539   */\n      0x00\n        /* \"#utility.yul\":23566:23617   */\n      tag_656\n        /* \"#utility.yul\":23614:23615   */\n      0x00\n        /* \"#utility.yul\":23610:23616   */\n      not\n        /* \"#utility.yul\":23602:23607   */\n      dup5\n        /* \"#utility.yul\":23599:23600   */\n      0x08\n        /* \"#utility.yul\":23595:23608   */\n      mul\n        /* \"#utility.yul\":23566:23617   */\n      tag_409\n      jump\t// in\n    tag_656:\n        /* \"#utility.yul\":23562:23618   */\n      not\n        /* \"#utility.yul\":23647:23651   */\n      dup1\n        /* \"#utility.yul\":23641:23645   */\n      dup4\n        /* \"#utility.yul\":23637:23652   */\n      and\n        /* \"#utility.yul\":23627:23652   */\n      swap2\n      pop\n        /* \"#utility.yul\":23540:23658   */\n      pop\n        /* \"#utility.yul\":23489:23658   */\n      swap3\n      swap2\n      pop\n      pop\n      jump\t// out\n        /* \"#utility.yul\":23663:23958   */\n    tag_411:\n        /* \"#utility.yul\":23739:23743   */\n      0x00\n        /* \"#utility.yul\":23885:23914   */\n      tag_658\n        /* \"#utility.yul\":23910:23913   */\n      dup4\n        /* \"#utility.yul\":23904:23908   */\n      dup4\n        /* \"#utility.yul\":23885:23914   */\n      tag_410\n      jump\t// in\n    tag_658:\n        /* \"#utility.yul\":23877:23914   */\n      swap2\n      pop\n        /* \"#utility.yul\":23947:23950   */\n      dup3\n        /* \"#utility.yul\":23944:23945   */\n      0x02\n        /* \"#utility.yul\":23940:23951   */\n      mul\n        /* \"#utility.yul\":23934:23938   */\n      dup3\n        /* \"#utility.yul\":23931:23952   */\n      or\n        /* \"#utility.yul\":23923:23952   */\n      swap1\n      pop\n        /* \"#utility.yul\":23663:23958   */\n      swap3\n      swap2\n      pop\n      pop\n      jump\t// out\n        /* \"#utility.yul\":23963:25358   */\n    tag_236:\n        /* \"#utility.yul\":24080:24117   */\n      tag_660\n        /* \"#utility.yul\":24113:24116   */\n      dup3\n        /* \"#utility.yul\":24080:24117   */\n      tag_352\n      jump\t// in\n    tag_660:\n        /* \"#utility.yul\":24182:24200   */\n      0xffffffffffffffff\n        /* \"#utility.yul\":24174:24180   */\n      dup2\n        /* \"#utility.yul\":24171:24201   */\n      gt\n        /* \"#utility.yul\":24168:24224   */\n      iszero\n      tag_661\n      jumpi\n        /* \"#utility.yul\":24204:24222   */\n      tag_662\n      tag_303\n      jump\t// in\n    tag_662:\n        /* \"#utility.yul\":24168:24224   */\n    tag_661:\n        /* \"#utility.yul\":24248:24286   */\n      tag_663\n        /* \"#utility.yul\":24280:24284   */\n      dup3\n        /* \"#utility.yul\":24274:24285   */\n      sload\n        /* \"#utility.yul\":24248:24286   */\n      tag_150\n      jump\t// in\n    tag_663:\n        /* \"#utility.yul\":24333:24400   */\n      tag_664\n        /* \"#utility.yul\":24393:24399   */\n      dup3\n        /* \"#utility.yul\":24385:24391   */\n      dup3\n        /* \"#utility.yul\":24379:24383   */\n      dup6\n        /* \"#utility.yul\":24333:24400   */\n      tag_408\n      jump\t// in\n    tag_664:\n        /* \"#utility.yul\":24427:24428   */\n      0x00\n        /* \"#utility.yul\":24451:24455   */\n      0x20\n        /* \"#utility.yul\":24438:24455   */\n      swap1\n      pop\n        /* \"#utility.yul\":24483:24485   */\n      0x1f\n        /* \"#utility.yul\":24475:24481   */\n      dup4\n        /* \"#utility.yul\":24472:24486   */\n      gt\n        /* \"#utility.yul\":24500:24501   */\n      0x01\n        /* \"#utility.yul\":24495:25113   */\n      dup2\n      eq\n      tag_666\n      jumpi\n        /* \"#utility.yul\":25157:25158   */\n      0x00\n        /* \"#utility.yul\":25174:25180   */\n      dup5\n        /* \"#utility.yul\":25171:25248   */\n      iszero\n      tag_667\n      jumpi\n        /* \"#utility.yul\":25223:25232   */\n      dup3\n        /* \"#utility.yul\":25218:25221   */\n      dup8\n        /* \"#utility.yul\":25214:25233   */\n      add\n        /* \"#utility.yul\":25208:25234   */\n      mload\n        /* \"#utility.yul\":25199:25234   */\n      swap1\n      pop\n        /* \"#utility.yul\":25171:25248   */\n    tag_667:\n        /* \"#utility.yul\":25274:25341   */\n      tag_668\n        /* \"#utility.yul\":25334:25340   */\n      dup6\n        /* \"#utility.yul\":25327:25332   */\n      dup3\n        /* \"#utility.yul\":25274:25341   */\n      tag_411\n      jump\t// in\n    tag_668:\n        /* \"#utility.yul\":25268:25272   */\n      dup7\n        /* \"#utility.yul\":25261:25342   */\n      sstore\n        /* \"#utility.yul\":25130:25352   */\n      pop\n        /* \"#utility.yul\":24465:25352   */\n      jump(tag_665)\n        /* \"#utility.yul\":24495:25113   */\n    tag_666:\n        /* \"#utility.yul\":24547:24551   */\n      0x1f\n        /* \"#utility.yul\":24543:24552   */\n      not\n        /* \"#utility.yul\":24535:24541   */\n      dup5\n        /* \"#utility.yul\":24531:24553   */\n      and\n        /* \"#utility.yul\":24581:24618   */\n      tag_669\n        /* \"#utility.yul\":24613:24617   */\n      dup7\n        /* \"#utility.yul\":24581:24618   */\n      tag_393\n      jump\t// in\n    tag_669:\n        /* \"#utility.yul\":24640:24641   */\n      0x00\n        /* \"#utility.yul\":24654:24862   */\n    tag_670:\n        /* \"#utility.yul\":24668:24675   */\n      dup3\n        /* \"#utility.yul\":24665:24666   */\n      dup2\n        /* \"#utility.yul\":24662:24676   */\n      lt\n        /* \"#utility.yul\":24654:24862   */\n      iszero\n      tag_672\n      jumpi\n        /* \"#utility.yul\":24747:24756   */\n      dup5\n        /* \"#utility.yul\":24742:24745   */\n      dup10\n        /* \"#utility.yul\":24738:24757   */\n      add\n        /* \"#utility.yul\":24732:24758   */\n      mload\n        /* \"#utility.yul\":24724:24730   */\n      dup3\n        /* \"#utility.yul\":24717:24759   */\n      sstore\n        /* \"#utility.yul\":24798:24799   */\n      0x01\n        /* \"#utility.yul\":24790:24796   */\n      dup3\n        /* \"#utility.yul\":24786:24800   */\n      add\n        /* \"#utility.yul\":24776:24800   */\n      swap2\n      pop\n        /* \"#utility.yul\":24845:24847   */\n      0x20\n        /* \"#utility.yul\":24834:24843   */\n      dup6\n        /* \"#utility.yul\":24830:24848   */\n      add\n        /* \"#utility.yul\":24817:24848   */\n      swap5\n      pop\n        /* \"#utility.yul\":24691:24695   */\n      0x20\n        /* \"#utility.yul\":24688:24689   */\n      dup2\n        /* \"#utility.yul\":24684:24696   */\n      add\n        /* \"#utility.yul\":24679:24696   */\n      swap1\n      pop\n        /* \"#utility.yul\":24654:24862   */\n      jump(tag_670)\n    tag_672:\n        /* \"#utility.yul\":24890:24896   */\n      dup7\n        /* \"#utility.yul\":24881:24888   */\n      dup4\n        /* \"#utility.yul\":24878:24897   */\n      lt\n        /* \"#utility.yul\":24875:25054   */\n      iszero\n      tag_673\n      jumpi\n        /* \"#utility.yul\":24948:24957   */\n      dup5\n        /* \"#utility.yul\":24943:24946   */\n      dup10\n        /* \"#utility.yul\":24939:24958   */\n      add\n        /* \"#utility.yul\":24933:24959   */\n      mload\n        /* \"#utility.yul\":24991:25039   */\n      tag_674\n        /* \"#utility.yul\":25033:25037   */\n      0x1f\n        /* \"#utility.yul\":25025:25031   */\n      dup10\n        /* \"#utility.yul\":25021:25038   */\n      and\n        /* \"#utility.yul\":25010:25019   */\n      dup3\n        /* \"#utility.yul\":24991:25039   */\n      tag_410\n      jump\t// in\n    tag_674:\n        /* \"#utility.yul\":24983:24989   */\n      dup4\n        /* \"#utility.yul\":24976:25040   */\n      sstore\n        /* \"#utility.yul\":24898:25054   */\n      pop\n        /* \"#utility.yul\":24875:25054   */\n    tag_673:\n        /* \"#utility.yul\":25100:25101   */\n      0x01\n        /* \"#utility.yul\":25096:25097   */\n      0x02\n        /* \"#utility.yul\":25088:25094   */\n      dup9\n        /* \"#utility.yul\":25084:25098   */\n      mul\n        /* \"#utility.yul\":25080:25102   */\n      add\n        /* \"#utility.yul\":25074:25078   */\n      dup9\n        /* \"#utility.yul\":25067:25103   */\n      sstore\n        /* \"#utility.yul\":24502:25113   */\n      pop\n      pop\n      pop\n        /* \"#utility.yul\":24465:25352   */\n    tag_665:\n      pop\n        /* \"#utility.yul\":24055:25358   */\n      pop\n      pop\n      pop\n        /* \"#utility.yul\":23963:25358   */\n      pop\n      pop\n      jump\t// out\n        /* \"#utility.yul\":25364:25530   */\n    tag_412:\n        /* \"#utility.yul\":25504:25522   */\n      0x6973417070726f766564466f72416c6c00000000000000000000000000000000\n        /* \"#utility.yul\":25500:25501   */\n      0x00\n        /* \"#utility.yul\":25492:25498   */\n      dup3\n        /* \"#utility.yul\":25488:25502   */\n      add\n        /* \"#utility.yul\":25481:25523   */\n      mstore\n        /* \"#utility.yul\":25364:25530   */\n      pop\n      jump\t// out\n        /* \"#utility.yul\":25536:25902   */\n    tag_413:\n        /* \"#utility.yul\":25678:25681   */\n      0x00\n        /* \"#utility.yul\":25699:25766   */\n      tag_677\n        /* \"#utility.yul\":25763:25765   */\n      0x10\n        /* \"#utility.yul\":25758:25761   */\n      dup4\n        /* \"#utility.yul\":25699:25766   */\n      tag_353\n      jump\t// in\n    tag_677:\n        /* \"#utility.yul\":25692:25766   */\n      swap2\n      pop\n        /* \"#utility.yul\":25775:25868   */\n      tag_678\n        /* \"#utility.yul\":25864:25867   */\n      dup3\n        /* \"#utility.yul\":25775:25868   */\n      tag_412\n      jump\t// in\n    tag_678:\n        /* \"#utility.yul\":25893:25895   */\n      0x20\n        /* \"#utility.yul\":25888:25891   */\n      dup3\n        /* \"#utility.yul\":25884:25896   */\n      add\n        /* \"#utility.yul\":25877:25896   */\n      swap1\n      pop\n        /* \"#utility.yul\":25536:25902   */\n      swap2\n      swap1\n      pop\n      jump\t// out\n        /* \"#utility.yul\":25908:26327   */\n    tag_245:\n        /* \"#utility.yul\":26074:26078   */\n      0x00\n        /* \"#utility.yul\":26112:26114   */\n      0x20\n        /* \"#utility.yul\":26101:26110   */\n      dup3\n        /* \"#utility.yul\":26097:26115   */\n      add\n        /* \"#utility.yul\":26089:26115   */\n      swap1\n      pop\n        /* \"#utility.yul\":26161:26170   */\n      dup2\n        /* \"#utility.yul\":26155:26159   */\n      dup2\n        /* \"#utility.yul\":26151:26171   */\n      sub\n        /* \"#utility.yul\":26147:26148   */\n      0x00\n        /* \"#utility.yul\":26136:26145   */\n      dup4\n        /* \"#utility.yul\":26132:26149   */\n      add\n        /* \"#utility.yul\":26125:26172   */\n      mstore\n        /* \"#utility.yul\":26189:26320   */\n      tag_680\n        /* \"#utility.yul\":26315:26319   */\n      dup2\n        /* \"#utility.yul\":26189:26320   */\n      tag_413\n      jump\t// in\n    tag_680:\n        /* \"#utility.yul\":26181:26320   */\n      swap1\n      pop\n        /* \"#utility.yul\":25908:26327   */\n      swap2\n      swap1\n      pop\n      jump\t// out\n        /* \"#utility.yul\":26333:26558   */\n    tag_414:\n        /* \"#utility.yul\":26473:26507   */\n      0x4f776e61626c653a206e6577206f776e657220697320746865207a65726f2061\n        /* \"#utility.yul\":26469:26470   */\n      0x00\n        /* \"#utility.yul\":26461:26467   */\n      dup3\n        /* \"#utility.yul\":26457:26471   */\n      add\n        /* \"#utility.yul\":26450:26508   */\n      mstore\n        /* \"#utility.yul\":26542:26550   */\n      0x6464726573730000000000000000000000000000000000000000000000000000\n        /* \"#utility.yul\":26537:26539   */\n      0x20\n        /* \"#utility.yul\":26529:26535   */\n      dup3\n        /* \"#utility.yul\":26525:26540   */\n      add\n        /* \"#utility.yul\":26518:26551   */\n      mstore\n        /* \"#utility.yul\":26333:26558   */\n      pop\n      jump\t// out\n        /* \"#utility.yul\":26564:26930   */\n    tag_415:\n        /* \"#utility.yul\":26706:26709   */\n      0x00\n        /* \"#utility.yul\":26727:26794   */\n      tag_683\n        /* \"#utility.yul\":26791:26793   */\n      0x26\n        /* \"#utility.yul\":26786:26789   */\n      dup4\n        /* \"#utility.yul\":26727:26794   */\n      tag_353\n      jump\t// in\n    tag_683:\n        /* \"#utility.yul\":26720:26794   */\n      swap2\n      pop\n        /* \"#utility.yul\":26803:26896   */\n      tag_684\n        /* \"#utility.yul\":26892:26895   */\n      dup3\n        /* \"#utility.yul\":26803:26896   */\n      tag_414\n      jump\t// in\n    tag_684:\n        /* \"#utility.yul\":26921:26923   */\n      0x40\n        /* \"#utility.yul\":26916:26919   */\n      dup3\n        /* \"#utility.yul\":26912:26924   */\n      add\n        /* \"#utility.yul\":26905:26924   */\n      swap1\n      pop\n        /* \"#utility.yul\":26564:26930   */\n      swap2\n      swap1\n      pop\n      jump\t// out\n        /* \"#utility.yul\":26936:27355   */\n    tag_251:\n        /* \"#utility.yul\":27102:27106   */\n      0x00\n        /* \"#utility.yul\":27140:27142   */\n      0x20\n        /* \"#utility.yul\":27129:27138   */\n      dup3\n        /* \"#utility.yul\":27125:27143   */\n      add\n        /* \"#utility.yul\":27117:27143   */\n      swap1\n      pop\n        /* \"#utility.yul\":27189:27198   */\n      dup2\n        /* \"#utility.yul\":27183:27187   */\n      dup2\n        /* \"#utility.yul\":27179:27199   */\n      sub\n        /* \"#utility.yul\":27175:27176   */\n      0x00\n        /* \"#utility.yul\":27164:27173   */\n      dup4\n        /* \"#utility.yul\":27160:27177   */\n      add\n        /* \"#utility.yul\":27153:27200   */\n      mstore\n        /* \"#utility.yul\":27217:27348   */\n      tag_686\n        /* \"#utility.yul\":27343:27347   */\n      dup2\n        /* \"#utility.yul\":27217:27348   */\n      tag_415\n      jump\t// in\n    tag_686:\n        /* \"#utility.yul\":27209:27348   */\n      swap1\n      pop\n        /* \"#utility.yul\":26936:27355   */\n      swap2\n      swap1\n      pop\n      jump\t// out\n        /* \"#utility.yul\":27361:27543   */\n    tag_416:\n        /* \"#utility.yul\":27501:27535   */\n      0x4f776e61626c653a2063616c6c6572206973206e6f7420746865206f776e6572\n        /* \"#utility.yul\":27497:27498   */\n      0x00\n        /* \"#utility.yul\":27489:27495   */\n      dup3\n        /* \"#utility.yul\":27485:27499   */\n      add\n        /* \"#utility.yul\":27478:27536   */\n      mstore\n        /* \"#utility.yul\":27361:27543   */\n      pop\n      jump\t// out\n        /* \"#utility.yul\":27549:27915   */\n    tag_417:\n        /* \"#utility.yul\":27691:27694   */\n      0x00\n        /* \"#utility.yul\":27712:27779   */\n      tag_689\n        /* \"#utility.yul\":27776:27778   */\n      0x20\n        /* \"#utility.yul\":27771:27774   */\n      dup4\n        /* \"#utility.yul\":27712:27779   */\n      tag_353\n      jump\t// in\n    tag_689:\n        /* \"#utility.yul\":27705:27779   */\n      swap2\n      pop\n        /* \"#utility.yul\":27788:27881   */\n      tag_690\n        /* \"#utility.yul\":27877:27880   */\n      dup3\n        /* \"#utility.yul\":27788:27881   */\n      tag_416\n      jump\t// in\n    tag_690:\n        /* \"#utility.yul\":27906:27908   */\n      0x20\n        /* \"#utility.yul\":27901:27904   */\n      dup3\n        /* \"#utility.yul\":27897:27909   */\n      add\n        /* \"#utility.yul\":27890:27909   */\n      swap1\n      pop\n        /* \"#utility.yul\":27549:27915   */\n      swap2\n      swap1\n      pop\n      jump\t// out\n        /* \"#utility.yul\":27921:28340   */\n    tag_268:\n        /* \"#utility.yul\":28087:28091   */\n      0x00\n        /* \"#utility.yul\":28125:28127   */\n      0x20\n        /* \"#utility.yul\":28114:28123   */\n      dup3\n        /* \"#utility.yul\":28110:28128   */\n      add\n        /* \"#utility.yul\":28102:28128   */\n      swap1\n      pop\n        /* \"#utility.yul\":28174:28183   */\n      dup2\n        /* \"#utility.yul\":28168:28172   */\n      dup2\n        /* \"#utility.yul\":28164:28184   */\n      sub\n        /* \"#utility.yul\":28160:28161   */\n      0x00\n        /* \"#utility.yul\":28149:28158   */\n      dup4\n        /* \"#utility.yul\":28145:28162   */\n      add\n        /* \"#utility.yul\":28138:28185   */\n      mstore\n        /* \"#utility.yul\":28202:28333   */\n      tag_692\n        /* \"#utility.yul\":28328:28332   */\n      dup2\n        /* \"#utility.yul\":28202:28333   */\n      tag_417\n      jump\t// in\n    tag_692:\n        /* \"#utility.yul\":28194:28333   */\n      swap1\n      pop\n        /* \"#utility.yul\":27921:28340   */\n      swap2\n      swap1\n      pop\n      jump\t// out\n        /* \"#utility.yul\":28346:28526   */\n    tag_418:\n        /* \"#utility.yul\":28394:28471   */\n      0x4e487b7100000000000000000000000000000000000000000000000000000000\n        /* \"#utility.yul\":28391:28392   */\n      0x00\n        /* \"#utility.yul\":28384:28472   */\n      mstore\n        /* \"#utility.yul\":28491:28495   */\n      0x11\n        /* \"#utility.yul\":28488:28489   */\n      0x04\n        /* \"#utility.yul\":28481:28496   */\n      mstore\n        /* \"#utility.yul\":28515:28519   */\n      0x24\n        /* \"#utility.yul\":28512:28513   */\n      0x00\n        /* \"#utility.yul\":28505:28520   */\n      revert\n        /* \"#utility.yul\":28532:28723   */\n    tag_273:\n        /* \"#utility.yul\":28572:28575   */\n      0x00\n        /* \"#utility.yul\":28591:28611   */\n      tag_695\n        /* \"#utility.yul\":28609:28610   */\n      dup3\n        /* \"#utility.yul\":28591:28611   */\n      tag_357\n      jump\t// in\n    tag_695:\n        /* \"#utility.yul\":28586:28611   */\n      swap2\n      pop\n        /* \"#utility.yul\":28625:28645   */\n      tag_696\n        /* \"#utility.yul\":28643:28644   */\n      dup4\n        /* \"#utility.yul\":28625:28645   */\n      tag_357\n      jump\t// in\n    tag_696:\n        /* \"#utility.yul\":28620:28645   */\n      swap3\n      pop\n        /* \"#utility.yul\":28668:28669   */\n      dup3\n        /* \"#utility.yul\":28665:28666   */\n      dup3\n        /* \"#utility.yul\":28661:28670   */\n      add\n        /* \"#utility.yul\":28654:28670   */\n      swap1\n      pop\n        /* \"#utility.yul\":28689:28692   */\n      dup1\n        /* \"#utility.yul\":28686:28687   */\n      dup3\n        /* \"#utility.yul\":28683:28693   */\n      gt\n        /* \"#utility.yul\":28680:28716   */\n      iszero\n      tag_697\n      jumpi\n        /* \"#utility.yul\":28696:28714   */\n      tag_698\n      tag_418\n      jump\t// in\n    tag_698:\n        /* \"#utility.yul\":28680:28716   */\n    tag_697:\n        /* \"#utility.yul\":28532:28723   */\n      swap3\n      swap2\n      pop\n      pop\n      jump\t// out\n        /* \"#utility.yul\":28729:28923   */\n    tag_284:\n        /* \"#utility.yul\":28769:28773   */\n      0x00\n        /* \"#utility.yul\":28789:28809   */\n      tag_700\n        /* \"#utility.yul\":28807:28808   */\n      dup3\n        /* \"#utility.yul\":28789:28809   */\n      tag_357\n      jump\t// in\n    tag_700:\n        /* \"#utility.yul\":28784:28809   */\n      swap2\n      pop\n        /* \"#utility.yul\":28823:28843   */\n      tag_701\n        /* \"#utility.yul\":28841:28842   */\n      dup4\n        /* \"#utility.yul\":28823:28843   */\n      tag_357\n      jump\t// in\n    tag_701:\n        /* \"#utility.yul\":28818:28843   */\n      swap3\n      pop\n        /* \"#utility.yul\":28867:28868   */\n      dup3\n        /* \"#utility.yul\":28864:28865   */\n      dup3\n        /* \"#utility.yul\":28860:28869   */\n      sub\n        /* \"#utility.yul\":28852:28869   */\n      swap1\n      pop\n        /* \"#utility.yul\":28891:28892   */\n      dup2\n        /* \"#utility.yul\":28885:28889   */\n      dup2\n        /* \"#utility.yul\":28882:28893   */\n      gt\n        /* \"#utility.yul\":28879:28916   */\n      iszero\n      tag_702\n      jumpi\n        /* \"#utility.yul\":28896:28914   */\n      tag_703\n      tag_418\n      jump\t// in\n    tag_703:\n        /* \"#utility.yul\":28879:28916   */\n    tag_702:\n        /* \"#utility.yul\":28729:28923   */\n      swap3\n      swap2\n      pop\n      pop\n      jump\t// out\n        /* \"#utility.yul\":28929:29109   */\n    tag_309:\n        /* \"#utility.yul\":28977:29054   */\n      0x4e487b7100000000000000000000000000000000000000000000000000000000\n        /* \"#utility.yul\":28974:28975   */\n      0x00\n        /* \"#utility.yul\":28967:29055   */\n      mstore\n        /* \"#utility.yul\":29074:29078   */\n      0x12\n        /* \"#utility.yul\":29071:29072   */\n      0x04\n        /* \"#utility.yul\":29064:29079   */\n      mstore\n        /* \"#utility.yul\":29098:29102   */\n      0x24\n        /* \"#utility.yul\":29095:29096   */\n      0x00\n        /* \"#utility.yul\":29088:29103   */\n      revert\n\n    auxdata: 0xa26469706673582212201105b8d9051498e5caedc1562914ccaced44980f340eaa2d5952bb04d269632a64736f6c63430008150033\n}\n",
				"bytecode": {
					"linkReferences": {},
					"object": "60806040525f6004555f60055534801562000018575f80fd5b5060405162002e3438038062002e3483398181016040528101906200003e9190620002ea565b6200005e620000526200009d60201b60201c565b620000a460201b60201c565b82600190816200006f9190620005d7565b508160029081620000819190620005d7565b508060039081620000939190620005d7565b50505050620006bb565b5f33905090565b5f805f9054906101000a900473ffffffffffffffffffffffffffffffffffffffff169050815f806101000a81548173ffffffffffffffffffffffffffffffffffffffff021916908373ffffffffffffffffffffffffffffffffffffffff1602179055508173ffffffffffffffffffffffffffffffffffffffff168173ffffffffffffffffffffffffffffffffffffffff167f8be0079c531659141344cd1fd0a4f28419497f9722a3daafe3b4186f6b6457e060405160405180910390a35050565b5f604051905090565b5f80fd5b5f80fd5b5f80fd5b5f80fd5b5f601f19601f8301169050919050565b7f4e487b71000000000000000000000000000000000000000000000000000000005f52604160045260245ffd5b620001c6826200017e565b810181811067ffffffffffffffff82111715620001e857620001e76200018e565b5b80604052505050565b5f620001fc62000165565b90506200020a8282620001bb565b919050565b5f67ffffffffffffffff8211156200022c576200022b6200018e565b5b62000237826200017e565b9050602081019050919050565b5f5b838110156200026357808201518184015260208101905062000246565b5f8484015250505050565b5f620002846200027e846200020f565b620001f1565b905082815260208101848484011115620002a357620002a26200017a565b5b620002b084828562000244565b509392505050565b5f82601f830112620002cf57620002ce62000176565b5b8151620002e18482602086016200026e565b91505092915050565b5f805f606084860312156200030457620003036200016e565b5b5f84015167ffffffffffffffff81111562000324576200032362000172565b5b6200033286828701620002b8565b935050602084015167ffffffffffffffff81111562000356576200035562000172565b5b6200036486828701620002b8565b925050604084015167ffffffffffffffff81111562000388576200038762000172565b5b6200039686828701620002b8565b9150509250925092565b5f81519050919050565b7f4e487b71000000000000000000000000000000000000000000000000000000005f52602260045260245ffd5b5f6002820490506001821680620003ef57607f821691505b602082108103620004055762000404620003aa565b5b50919050565b5f819050815f5260205f209050919050565b5f6020601f8301049050919050565b5f82821b905092915050565b5f60088302620004697fffffffffffffffffffffffffffffffffffffffffffffffffffffffffffffffff826200042c565b6200047586836200042c565b95508019841693508086168417925050509392505050565b5f819050919050565b5f819050919050565b5f620004bf620004b9620004b3846200048d565b62000496565b6200048d565b9050919050565b5f819050919050565b620004da836200049f565b620004f2620004e982620004c6565b84845462000438565b825550505050565b5f90565b62000508620004fa565b62000515818484620004cf565b505050565b5b818110156200053c57620005305f82620004fe565b6001810190506200051b565b5050565b601f8211156200058b5762000555816200040b565b62000560846200041d565b8101602085101562000570578190505b620005886200057f856200041d565b8301826200051a565b50505b505050565b5f82821c905092915050565b5f620005ad5f198460080262000590565b1980831691505092915050565b5f620005c783836200059c565b9150826002028217905092915050565b620005e282620003a0565b67ffffffffffffffff811115620005fe57620005fd6200018e565b5b6200060a8254620003d7565b6200061782828562000540565b5f60209050601f8311600181146200064d575f841562000638578287015190505b620006448582620005ba565b865550620006b3565b601f1984166200065d866200040b565b5f5b8281101562000686578489015182556001820191506020850194506020810190506200065f565b86831015620006a65784890151620006a2601f8916826200059c565b8355505b6001600288020188555050505b505050505050565b61276b80620006c95f395ff3fe608060405234801561000f575f80fd5b50600436106101a7575f3560e01c8063715018a6116100f7578063be37e90711610095578063e0df5b6f1161006f578063e0df5b6f14610529578063e1604b7014610559578063e985e9c514610577578063f2fde38b146105a7576101a7565b8063be37e90714610499578063c87b56dd146104c9578063ce35de95146104f9576101a7565b80638da5cb5b116100d15780638da5cb5b1461042557806395d89b4114610443578063a22cb46514610461578063b88d4fde1461047d576101a7565b8063715018a6146103bb57806376aed2e1146103c55780638a7f997c146103f5576101a7565b806323b872dd1161016457806342842e0e1161013e57806342842e0e1461030f57806351c18e0c1461032b5780636352211e1461035b57806370a082311461038b576101a7565b806323b872dd146102935780632f745c59146102af57806340c10f19146102df576101a7565b806301ffc9a7146101ab57806306fdde03146101db578063081812fc146101f9578063095ea7b31461022957806318160ddd146102455780631f8eb67714610263575b5f80fd5b6101c560048036038101906101c091906118dc565b6105c3565b6040516101d29190611921565b60405180910390f35b6101e361063c565b6040516101f091906119c4565b60405180910390f35b610213600480360381019061020e9190611a17565b6106cc565b6040516102209190611a81565b60405180910390f35b610243600480360381019061023e9190611ac4565b610708565b005b61024d610743565b60405161025a9190611b11565b60405180910390f35b61027d60048036038101906102789190611b2a565b61074c565b60405161028a9190611921565b60405180910390f35b6102ad60048036038101906102a89190611b55565b61075d565b005b6102c960048036038101906102c49190611ac4565b610798565b6040516102d69190611b11565b60405180910390f35b6102f960048036038101906102f49190611ac4565b6108b6565b6040516103069190611b11565b60405180910390f35b61032960048036038101906103249190611b55565b6108d1565b005b61034560048036038101906103409190611a17565b61090c565b6040516103529190611b11565b60405180910390f35b61037560048036038101906103709190611a17565b61092f565b6040516103829190611a81565b60405180910390f35b6103a560048036038101906103a09190611b2a565b610968565b6040516103b29190611b11565b60405180910390f35b6103c3610979565b005b6103df60048036038101906103da9190611a17565b61098c565b6040516103ec9190611b11565b60405180910390f35b61040f600480360381019061040a9190611bcf565b6109af565b60405161041c9190611921565b60405180910390f35b61042d610a85565b60405161043a9190611a81565b60405180910390f35b61044b610aac565b60405161045891906119c4565b60405180910390f35b61047b60048036038101906104769190611bcf565b610b3c565b005b61049760048036038101906104929190611c6e565b610b77565b005b6104b360048036038101906104ae9190611ac4565b610bb2565b6040516104c09190611b11565b60405180910390f35b6104e360048036038101906104de9190611a17565b610bcd565b6040516104f091906119c4565b60405180910390f35b610513600480360381019061050e9190611b2a565b610c33565b6040516105209190611921565b60405180910390f35b610543600480360381019061053e9190611e1a565b610c44565b60405161055091906119c4565b60405180910390f35b610561610cee565b60405161056e9190611b11565b60405180910390f35b610591600480360381019061058c9190611e61565b610cf7565b60405161059e9190611921565b60405180910390f35b6105c160048036038101906105bc9190611b2a565b610d33565b005b5f7f80ac58cd000000000000000000000000000000000000000000000000000000007bffffffffffffffffffffffffffffffffffffffffffffffffffffffff1916827bffffffffffffffffffffffffffffffffffffffffffffffffffffffff19161480610635575061063482610db5565b5b9050919050565b60606001805461064b90611ecc565b80601f016020809104026020016040519081016040528092919081815260200182805461067790611ecc565b80156106c25780601f10610699576101008083540402835291602001916106c2565b820191905f5260205f20905b8154815290600101906020018083116106a557829003601f168201915b5050505050905090565b5f6040517f9fc6e7580000000000000000000000000000000000000000000000000000000081526004016106ff90611f46565b60405180910390fd5b6040517f9fc6e75800000000000000000000000000000000000000000000000000000000815260040161073a90611fae565b60405180910390fd5b5f600554905090565b5f61075682610e1e565b9050919050565b6040517f9fc6e75800000000000000000000000000000000000000000000000000000000815260040161078f90612016565b60405180910390fd5b5f6107a283610e70565b82106107e3576040517f08c379a00000000000000000000000000000000000000000000000000000000081526004016107da9061207e565b60405180910390fd5b5f73ffffffffffffffffffffffffffffffffffffffff168373ffffffffffffffffffffffffffffffffffffffff1603610853575f6040517f74f5e87d00000000000000000000000000000000000000000000000000000000815260040161084a9190611a81565b60405180910390fd5b5f600b5f8573ffffffffffffffffffffffffffffffffffffffff1673ffffffffffffffffffffffffffffffffffffffff1681526020019081526020015f205f8481526020019081526020015f205490506108ac81610eb6565b8091505092915050565b5f6108bf610f3d565b6108c98383610fbb565b905092915050565b6040517f9fc6e758000000000000000000000000000000000000000000000000000000008152600401610903906120e6565b60405180910390fd5b5f61091682610eb6565b60085f8381526020019081526020015f20549050919050565b5f60065f8381526020019081526020015f205f9054906101000a900473ffffffffffffffffffffffffffffffffffffffff169050919050565b5f61097282610e70565b9050919050565b610981610f3d565b61098a5f6112d7565b565b5f61099682610eb6565b60075f8381526020019081526020015f20549050919050565b5f8273ffffffffffffffffffffffffffffffffffffffff163373ffffffffffffffffffffffffffffffffffffffff1614610a2057826040517f50159299000000000000000000000000000000000000000000000000000000008152600401610a179190611a81565b60405180910390fd5b81600a5f8573ffffffffffffffffffffffffffffffffffffffff1673ffffffffffffffffffffffffffffffffffffffff1681526020019081526020015f205f6101000a81548160ff021916908315150217905550610a7d8361074c565b905092915050565b5f805f9054906101000a900473ffffffffffffffffffffffffffffffffffffffff16905090565b606060028054610abb90611ecc565b80601f0160208091040260200160405190810160405280929190818152602001828054610ae790611ecc565b8015610b325780601f10610b0957610100808354040283529160200191610b32565b820191905f5260205f20905b815481529060010190602001808311610b1557829003601f168201915b5050505050905090565b6040517f9fc6e758000000000000000000000000000000000000000000000000000000008152600401610b6e9061214e565b60405180910390fd5b6040517f9fc6e758000000000000000000000000000000000000000000000000000000008152600401610ba9906120e6565b60405180910390fd5b5f610bbb610f3d565b610bc58383611398565b905092915050565b6060610bd88261142e565b610be182610eb6565b5f60075f8481526020019081526020015f205490506003610c018461147b565b610c0a8361147b565b604051602001610c1c93929190612282565b604051602081830303815290604052915050919050565b5f610c3d82611545565b9050919050565b6060610c4e610f3d565b8160039081610c5d9190612448565b5060038054610c6b90611ecc565b80601f0160208091040260200160405190810160405280929190818152602001828054610c9790611ecc565b8015610ce25780601f10610cb957610100808354040283529160200191610ce2565b820191905f5260205f20905b815481529060010190602001808311610cc557829003601f168201915b50505050509050919050565b5f600454905090565b5f6040517f9fc6e758000000000000000000000000000000000000000000000000000000008152600401610d2a90612561565b60405180910390fd5b610d3b610f3d565b5f73ffffffffffffffffffffffffffffffffffffffff168173ffffffffffffffffffffffffffffffffffffffff1603610da9576040517f08c379a0000000000000000000000000000000000000000000000000000000008152600401610da0906125ef565b60405180910390fd5b610db2816112d7565b50565b5f7f01ffc9a7000000000000000000000000000000000000000000000000000000007bffffffffffffffffffffffffffffffffffffffffffffffffffffffff1916827bffffffffffffffffffffffffffffffffffffffffffffffffffffffff1916149050919050565b5f600a5f8373ffffffffffffffffffffffffffffffffffffffff1673ffffffffffffffffffffffffffffffffffffffff1681526020019081526020015f205f9054906101000a900460ff169050919050565b5f60095f8373ffffffffffffffffffffffffffffffffffffffff1673ffffffffffffffffffffffffffffffffffffffff1681526020019081526020015f20549050919050565b610ebf816115e0565b610f0057806040517f24476a3f000000000000000000000000000000000000000000000000000000008152600401610ef79190611b11565b60405180910390fd5b610f3960065f8381526020019081526020015f205f9054906101000a900473ffffffffffffffffffffffffffffffffffffffff16611545565b5050565b610f45611620565b73ffffffffffffffffffffffffffffffffffffffff16610f63610a85565b73ffffffffffffffffffffffffffffffffffffffff1614610fb9576040517f08c379a0000000000000000000000000000000000000000000000000000000008152600401610fb090612657565b60405180910390fd5b565b5f610fc4610f3d565b5f6001600554610fd491906126a2565b90505f73ffffffffffffffffffffffffffffffffffffffff168473ffffffffffffffffffffffffffffffffffffffff1603611046575f6040517f74f5e87d00000000000000000000000000000000000000000000000000000000815260040161103d9190611a81565b60405180910390fd5b61104f816115e0565b1561109157806040517ff342bdc20000000000000000000000000000000000000000000000000000000081526004016110889190611b11565b60405180910390fd5b61109a84611627565b6110b857600160045f8282546110b091906126a2565b925050819055505b600160095f8673ffffffffffffffffffffffffffffffffffffffff1673ffffffffffffffffffffffffffffffffffffffff1681526020019081526020015f205f8282540192505081905550600160055f82825401925050819055508360065f8381526020019081526020015f205f6101000a81548173ffffffffffffffffffffffffffffffffffffffff021916908373ffffffffffffffffffffffffffffffffffffffff1602179055508260075f8381526020019081526020015f2081905550600160085f8381526020019081526020015f20819055505f600a5f8673ffffffffffffffffffffffffffffffffffffffff1673ffffffffffffffffffffffffffffffffffffffff1681526020019081526020015f205f6101000a81548160ff02191690831515021790555080600b5f8673ffffffffffffffffffffffffffffffffffffffff1673ffffffffffffffffffffffffffffffffffffffff1681526020019081526020015f205f600160095f8973ffffffffffffffffffffffffffffffffffffffff1673ffffffffffffffffffffffffffffffffffffffff1681526020019081526020015f205461126c91906126d5565b81526020019081526020015f208190555082818573ffffffffffffffffffffffffffffffffffffffff167f2f00e3cdd69a77be7ed215ec7b2a36784dd158f921fca79ac29deffa353fe6ee5f6040516112c59190611a81565b60405180910390a48091505092915050565b5f805f9054906101000a900473ffffffffffffffffffffffffffffffffffffffff169050815f806101000a81548173ffffffffffffffffffffffffffffffffffffffff021916908373ffffffffffffffffffffffffffffffffffffffff1602179055508173ffffffffffffffffffffffffffffffffffffffff168173ffffffffffffffffffffffffffffffffffffffff167f8be0079c531659141344cd1fd0a4f28419497f9722a3daafe3b4186f6b6457e060405160405180910390a35050565b5f6113a1610f3d565b6113ab8383611670565b5f600160085f8581526020019081526020015f205f8282546113cd91906126a2565b9250508190559050808473ffffffffffffffffffffffffffffffffffffffff167f48ffd7fdb1c1a0561a2d410317f6bb839aab64898de6fc73ee703a9c0dc0a36c8560405161141c9190611b11565b60405180910390a38091505092915050565b611437816115e0565b61147857806040517f24476a3f00000000000000000000000000000000000000000000000000000000815260040161146f9190611b11565b60405180910390fd5b50565b60605f6001611489846116ec565b0190505f8167ffffffffffffffff8111156114a7576114a6611cf6565b5b6040519080825280601f01601f1916602001820160405280156114d95781602001600182028036833780820191505090505b5090505f82602001820190505b60011561153a578080600190039150507f3031323334353637383961626364656600000000000000000000000000000000600a86061a8153600a858161152f5761152e612708565b5b0494505f85036114e6575b819350505050919050565b5f60011515600a5f8473ffffffffffffffffffffffffffffffffffffffff1673ffffffffffffffffffffffffffffffffffffffff1681526020019081526020015f205f9054906101000a900460ff161515036115d857816040517f904e928b0000000000000000000000000000000000000000000000000000000081526004016115cf9190611a81565b60405180910390fd5b5f9050919050565b5f8073ffffffffffffffffffffffffffffffffffffffff166116018361183d565b73ffffffffffffffffffffffffffffffffffffffff1614159050919050565b5f33905090565b5f8060095f8473ffffffffffffffffffffffffffffffffffffffff1673ffffffffffffffffffffffffffffffffffffffff1681526020019081526020015f205414159050919050565b8173ffffffffffffffffffffffffffffffffffffffff166116908261183d565b73ffffffffffffffffffffffffffffffffffffffff16146116e857816040517f501592990000000000000000000000000000000000000000000000000000000081526004016116df9190611a81565b60405180910390fd5b5050565b5f805f90507a184f03e93ff9f4daa797ed6e38ed64bf6a1f0100000000000000008310611748577a184f03e93ff9f4daa797ed6e38ed64bf6a1f010000000000000000838161173e5761173d612708565b5b0492506040810190505b6d04ee2d6d415b85acef81000000008310611785576d04ee2d6d415b85acef8100000000838161177b5761177a612708565b5b0492506020810190505b662386f26fc1000083106117b457662386f26fc1000083816117aa576117a9612708565b5b0492506010810190505b6305f5e10083106117dd576305f5e10083816117d3576117d2612708565b5b0492506008810190505b61271083106118025761271083816117f8576117f7612708565b5b0492506004810190505b60648310611825576064838161181b5761181a612708565b5b0492506002810190505b600a8310611834576001810190505b80915050919050565b5f60065f8381526020019081526020015f205f9054906101000a900473ffffffffffffffffffffffffffffffffffffffff169050919050565b5f604051905090565b5f80fd5b5f80fd5b5f7fffffffff0000000000000000000000000000000000000000000000000000000082169050919050565b6118bb81611887565b81146118c5575f80fd5b50565b5f813590506118d6816118b2565b92915050565b5f602082840312156118f1576118f061187f565b5b5f6118fe848285016118c8565b91505092915050565b5f8115159050919050565b61191b81611907565b82525050565b5f6020820190506119345f830184611912565b92915050565b5f81519050919050565b5f82825260208201905092915050565b5f5b83811015611971578082015181840152602081019050611956565b5f8484015250505050565b5f601f19601f8301169050919050565b5f6119968261193a565b6119a08185611944565b93506119b0818560208601611954565b6119b98161197c565b840191505092915050565b5f6020820190508181035f8301526119dc818461198c565b905092915050565b5f819050919050565b6119f6816119e4565b8114611a00575f80fd5b50565b5f81359050611a11816119ed565b92915050565b5f60208284031215611a2c57611a2b61187f565b5b5f611a3984828501611a03565b91505092915050565b5f73ffffffffffffffffffffffffffffffffffffffff82169050919050565b5f611a6b82611a42565b9050919050565b611a7b81611a61565b82525050565b5f602082019050611a945f830184611a72565b92915050565b611aa381611a61565b8114611aad575f80fd5b50565b5f81359050611abe81611a9a565b92915050565b5f8060408385031215611ada57611ad961187f565b5b5f611ae785828601611ab0565b9250506020611af885828601611a03565b9150509250929050565b611b0b816119e4565b82525050565b5f602082019050611b245f830184611b02565b92915050565b5f60208284031215611b3f57611b3e61187f565b5b5f611b4c84828501611ab0565b91505092915050565b5f805f60608486031215611b6c57611b6b61187f565b5b5f611b7986828701611ab0565b9350506020611b8a86828701611ab0565b9250506040611b9b86828701611a03565b9150509250925092565b611bae81611907565b8114611bb8575f80fd5b50565b5f81359050611bc981611ba5565b92915050565b5f8060408385031215611be557611be461187f565b5b5f611bf285828601611ab0565b9250506020611c0385828601611bbb565b9150509250929050565b5f80fd5b5f80fd5b5f80fd5b5f8083601f840112611c2e57611c2d611c0d565b5b8235905067ffffffffffffffff811115611c4b57611c4a611c11565b5b602083019150836001820283011115611c6757611c66611c15565b5b9250929050565b5f805f805f60808688031215611c8757611c8661187f565b5b5f611c9488828901611ab0565b9550506020611ca588828901611ab0565b9450506040611cb688828901611a03565b935050606086013567ffffffffffffffff811115611cd757611cd6611883565b5b611ce388828901611c19565b92509250509295509295909350565b5f80fd5b7f4e487b71000000000000000000000000000000000000000000000000000000005f52604160045260245ffd5b611d2c8261197c565b810181811067ffffffffffffffff82111715611d4b57611d4a611cf6565b5b80604052505050565b5f611d5d611876565b9050611d698282611d23565b919050565b5f67ffffffffffffffff821115611d8857611d87611cf6565b5b611d918261197c565b9050602081019050919050565b828183375f83830152505050565b5f611dbe611db984611d6e565b611d54565b905082815260208101848484011115611dda57611dd9611cf2565b5b611de5848285611d9e565b509392505050565b5f82601f830112611e0157611e00611c0d565b5b8135611e11848260208601611dac565b91505092915050565b5f60208284031215611e2f57611e2e61187f565b5b5f82013567ffffffffffffffff811115611e4c57611e4b611883565b5b611e5884828501611ded565b91505092915050565b5f8060408385031215611e7757611e7661187f565b5b5f611e8485828601611ab0565b9250506020611e9585828601611ab0565b9150509250929050565b7f4e487b71000000000000000000000000000000000000000000000000000000005f52602260045260245ffd5b5f6002820490506001821680611ee357607f821691505b602082108103611ef657611ef5611e9f565b5b50919050565b7f676574417070726f7665640000000000000000000000000000000000000000005f82015250565b5f611f30600b83611944565b9150611f3b82611efc565b602082019050919050565b5f6020820190508181035f830152611f5d81611f24565b9050919050565b7f617070726f7665000000000000000000000000000000000000000000000000005f82015250565b5f611f98600783611944565b9150611fa382611f64565b602082019050919050565b5f6020820190508181035f830152611fc581611f8c565b9050919050565b7f7472616e7366657246726f6d00000000000000000000000000000000000000005f82015250565b5f612000600c83611944565b915061200b82611fcc565b602082019050919050565b5f6020820190508181035f83015261202d81611ff4565b9050919050565b7f4f7574206f6620496e64657800000000000000000000000000000000000000005f82015250565b5f612068600c83611944565b915061207382612034565b602082019050919050565b5f6020820190508181035f8301526120958161205c565b9050919050565b7f736166655472616e7366657246726f6d000000000000000000000000000000005f82015250565b5f6120d0601083611944565b91506120db8261209c565b602082019050919050565b5f6020820190508181035f8301526120fd816120c4565b9050919050565b7f736574417070726f76616c466f72416c6c0000000000000000000000000000005f82015250565b5f612138601183611944565b915061214382612104565b602082019050919050565b5f6020820190508181035f8301526121658161212c565b9050919050565b5f81905092915050565b5f819050815f5260205f209050919050565b5f815461219481611ecc565b61219e818661216c565b9450600182165f81146121b857600181146121cd576121ff565b60ff19831686528115158202860193506121ff565b6121d685612176565b5f5b838110156121f7578154818901526001820191506020810190506121d8565b838801955050505b50505092915050565b5f6122128261193a565b61221c818561216c565b935061222c818560208601611954565b80840191505092915050565b7f3f746f6b656e547970653d0000000000000000000000000000000000000000005f82015250565b5f61226c600b8361216c565b915061227782612238565b600b82019050919050565b5f61228d8286612188565b91506122998285612208565b91506122a482612260565b91506122b08284612208565b9150819050949350505050565b5f6020601f8301049050919050565b5f82821b905092915050565b5f600883026123077fffffffffffffffffffffffffffffffffffffffffffffffffffffffffffffffff826122cc565b61231186836122cc565b95508019841693508086168417925050509392505050565b5f819050919050565b5f61234c612347612342846119e4565b612329565b6119e4565b9050919050565b5f819050919050565b61236583612332565b61237961237182612353565b8484546122d8565b825550505050565b5f90565b61238d612381565b61239881848461235c565b505050565b5b818110156123bb576123b05f82612385565b60018101905061239e565b5050565b601f821115612400576123d181612176565b6123da846122bd565b810160208510156123e9578190505b6123fd6123f5856122bd565b83018261239d565b50505b505050565b5f82821c905092915050565b5f6124205f1984600802612405565b1980831691505092915050565b5f6124388383612411565b9150826002028217905092915050565b6124518261193a565b67ffffffffffffffff81111561246a57612469611cf6565b5b6124748254611ecc565b61247f8282856123bf565b5f60209050601f8311600181146124b0575f841561249e578287015190505b6124a8858261242d565b86555061250f565b601f1984166124be86612176565b5f5b828110156124e5578489015182556001820191506020850194506020810190506124c0565b8683101561250257848901516124fe601f891682612411565b8355505b6001600288020188555050505b505050505050565b7f6973417070726f766564466f72416c6c000000000000000000000000000000005f82015250565b5f61254b601083611944565b915061255682612517565b602082019050919050565b5f6020820190508181035f8301526125788161253f565b9050919050565b7f4f776e61626c653a206e6577206f776e657220697320746865207a65726f20615f8201527f6464726573730000000000000000000000000000000000000000000000000000602082015250565b5f6125d9602683611944565b91506125e48261257f565b604082019050919050565b5f6020820190508181035f830152612606816125cd565b9050919050565b7f4f776e61626c653a2063616c6c6572206973206e6f7420746865206f776e65725f82015250565b5f612641602083611944565b915061264c8261260d565b602082019050919050565b5f6020820190508181035f83015261266e81612635565b9050919050565b7f4e487b71000000000000000000000000000000000000000000000000000000005f52601160045260245ffd5b5f6126ac826119e4565b91506126b7836119e4565b92508282019050808211156126cf576126ce612675565b5b92915050565b5f6126df826119e4565b91506126ea836119e4565b925082820390508181111561270257612701612675565b5b92915050565b7f4e487b71000000000000000000000000000000000000000000000000000000005f52601260045260245ffdfea26469706673582212201105b8d9051498e5caedc1562914ccaced44980f340eaa2d5952bb04d269632a64736f6c63430008150033",
					"opcodes": "PUSH1 0x80 PUSH1 0x40 MSTORE PUSH0 PUSH1 0x4 SSTORE PUSH0 PUSH1 0x5 SSTORE CALLVALUE DUP1 ISZERO PUSH3 0x18 JUMPI PUSH0 DUP1 REVERT JUMPDEST POP PUSH1 0x40 MLOAD PUSH3 0x2E34 CODESIZE SUB DUP1 PUSH3 0x2E34 DUP4 CODECOPY DUP2 DUP2 ADD PUSH1 0x40 MSTORE DUP2 ADD SWAP1 PUSH3 0x3E SWAP2 SWAP1 PUSH3 0x2EA JUMP JUMPDEST PUSH3 0x5E PUSH3 0x52 PUSH3 0x9D PUSH1 0x20 SHL PUSH1 0x20 SHR JUMP JUMPDEST PUSH3 0xA4 PUSH1 0x20 SHL PUSH1 0x20 SHR JUMP JUMPDEST DUP3 PUSH1 0x1 SWAP1 DUP2 PUSH3 0x6F SWAP2 SWAP1 PUSH3 0x5D7 JUMP JUMPDEST POP DUP2 PUSH1 0x2 SWAP1 DUP2 PUSH3 0x81 SWAP2 SWAP1 PUSH3 0x5D7 JUMP JUMPDEST POP DUP1 PUSH1 0x3 SWAP1 DUP2 PUSH3 0x93 SWAP2 SWAP1 PUSH3 0x5D7 JUMP JUMPDEST POP POP POP POP PUSH3 0x6BB JUMP JUMPDEST PUSH0 CALLER SWAP1 POP SWAP1 JUMP JUMPDEST PUSH0 DUP1 PUSH0 SWAP1 SLOAD SWAP1 PUSH2 0x100 EXP SWAP1 DIV PUSH20 0xFFFFFFFFFFFFFFFFFFFFFFFFFFFFFFFFFFFFFFFF AND SWAP1 POP DUP2 PUSH0 DUP1 PUSH2 0x100 EXP DUP2 SLOAD DUP2 PUSH20 0xFFFFFFFFFFFFFFFFFFFFFFFFFFFFFFFFFFFFFFFF MUL NOT AND SWAP1 DUP4 PUSH20 0xFFFFFFFFFFFFFFFFFFFFFFFFFFFFFFFFFFFFFFFF AND MUL OR SWAP1 SSTORE POP DUP2 PUSH20 0xFFFFFFFFFFFFFFFFFFFFFFFFFFFFFFFFFFFFFFFF AND DUP2 PUSH20 0xFFFFFFFFFFFFFFFFFFFFFFFFFFFFFFFFFFFFFFFF AND PUSH32 0x8BE0079C531659141344CD1FD0A4F28419497F9722A3DAAFE3B4186F6B6457E0 PUSH1 0x40 MLOAD PUSH1 0x40 MLOAD DUP1 SWAP2 SUB SWAP1 LOG3 POP POP JUMP JUMPDEST PUSH0 PUSH1 0x40 MLOAD SWAP1 POP SWAP1 JUMP JUMPDEST PUSH0 DUP1 REVERT JUMPDEST PUSH0 DUP1 REVERT JUMPDEST PUSH0 DUP1 REVERT JUMPDEST PUSH0 DUP1 REVERT JUMPDEST PUSH0 PUSH1 0x1F NOT PUSH1 0x1F DUP4 ADD AND SWAP1 POP SWAP2 SWAP1 POP JUMP JUMPDEST PUSH32 0x4E487B7100000000000000000000000000000000000000000000000000000000 PUSH0 MSTORE PUSH1 0x41 PUSH1 0x4 MSTORE PUSH1 0x24 PUSH0 REVERT JUMPDEST PUSH3 0x1C6 DUP3 PUSH3 0x17E JUMP JUMPDEST DUP2 ADD DUP2 DUP2 LT PUSH8 0xFFFFFFFFFFFFFFFF DUP3 GT OR ISZERO PUSH3 0x1E8 JUMPI PUSH3 0x1E7 PUSH3 0x18E JUMP JUMPDEST JUMPDEST DUP1 PUSH1 0x40 MSTORE POP POP POP JUMP JUMPDEST PUSH0 PUSH3 0x1FC PUSH3 0x165 JUMP JUMPDEST SWAP1 POP PUSH3 0x20A DUP3 DUP3 PUSH3 0x1BB JUMP JUMPDEST SWAP2 SWAP1 POP JUMP JUMPDEST PUSH0 PUSH8 0xFFFFFFFFFFFFFFFF DUP3 GT ISZERO PUSH3 0x22C JUMPI PUSH3 0x22B PUSH3 0x18E JUMP JUMPDEST JUMPDEST PUSH3 0x237 DUP3 PUSH3 0x17E JUMP JUMPDEST SWAP1 POP PUSH1 0x20 DUP2 ADD SWAP1 POP SWAP2 SWAP1 POP JUMP JUMPDEST PUSH0 JUMPDEST DUP4 DUP2 LT ISZERO PUSH3 0x263 JUMPI DUP1 DUP3 ADD MLOAD DUP2 DUP5 ADD MSTORE PUSH1 0x20 DUP2 ADD SWAP1 POP PUSH3 0x246 JUMP JUMPDEST PUSH0 DUP5 DUP5 ADD MSTORE POP POP POP POP JUMP JUMPDEST PUSH0 PUSH3 0x284 PUSH3 0x27E DUP5 PUSH3 0x20F JUMP JUMPDEST PUSH3 0x1F1 JUMP JUMPDEST SWAP1 POP DUP3 DUP2 MSTORE PUSH1 0x20 DUP2 ADD DUP5 DUP5 DUP5 ADD GT ISZERO PUSH3 0x2A3 JUMPI PUSH3 0x2A2 PUSH3 0x17A JUMP JUMPDEST JUMPDEST PUSH3 0x2B0 DUP5 DUP3 DUP6 PUSH3 0x244 JUMP JUMPDEST POP SWAP4 SWAP3 POP POP POP JUMP JUMPDEST PUSH0 DUP3 PUSH1 0x1F DUP4 ADD SLT PUSH3 0x2CF JUMPI PUSH3 0x2CE PUSH3 0x176 JUMP JUMPDEST JUMPDEST DUP2 MLOAD PUSH3 0x2E1 DUP5 DUP3 PUSH1 0x20 DUP7 ADD PUSH3 0x26E JUMP JUMPDEST SWAP2 POP POP SWAP3 SWAP2 POP POP JUMP JUMPDEST PUSH0 DUP1 PUSH0 PUSH1 0x60 DUP5 DUP7 SUB SLT ISZERO PUSH3 0x304 JUMPI PUSH3 0x303 PUSH3 0x16E JUMP JUMPDEST JUMPDEST PUSH0 DUP5 ADD MLOAD PUSH8 0xFFFFFFFFFFFFFFFF DUP2 GT ISZERO PUSH3 0x324 JUMPI PUSH3 0x323 PUSH3 0x172 JUMP JUMPDEST JUMPDEST PUSH3 0x332 DUP7 DUP3 DUP8 ADD PUSH3 0x2B8 JUMP JUMPDEST SWAP4 POP POP PUSH1 0x20 DUP5 ADD MLOAD PUSH8 0xFFFFFFFFFFFFFFFF DUP2 GT ISZERO PUSH3 0x356 JUMPI PUSH3 0x355 PUSH3 0x172 JUMP JUMPDEST JUMPDEST PUSH3 0x364 DUP7 DUP3 DUP8 ADD PUSH3 0x2B8 JUMP JUMPDEST SWAP3 POP POP PUSH1 0x40 DUP5 ADD MLOAD PUSH8 0xFFFFFFFFFFFFFFFF DUP2 GT ISZERO PUSH3 0x388 JUMPI PUSH3 0x387 PUSH3 0x172 JUMP JUMPDEST JUMPDEST PUSH3 0x396 DUP7 DUP3 DUP8 ADD PUSH3 0x2B8 JUMP JUMPDEST SWAP2 POP POP SWAP3 POP SWAP3 POP SWAP3 JUMP JUMPDEST PUSH0 DUP2 MLOAD SWAP1 POP SWAP2 SWAP1 POP JUMP JUMPDEST PUSH32 0x4E487B7100000000000000000000000000000000000000000000000000000000 PUSH0 MSTORE PUSH1 0x22 PUSH1 0x4 MSTORE PUSH1 0x24 PUSH0 REVERT JUMPDEST PUSH0 PUSH1 0x2 DUP3 DIV SWAP1 POP PUSH1 0x1 DUP3 AND DUP1 PUSH3 0x3EF JUMPI PUSH1 0x7F DUP3 AND SWAP2 POP JUMPDEST PUSH1 0x20 DUP3 LT DUP2 SUB PUSH3 0x405 JUMPI PUSH3 0x404 PUSH3 0x3AA JUMP JUMPDEST JUMPDEST POP SWAP2 SWAP1 POP JUMP JUMPDEST PUSH0 DUP2 SWAP1 POP DUP2 PUSH0 MSTORE PUSH1 0x20 PUSH0 KECCAK256 SWAP1 POP SWAP2 SWAP1 POP JUMP JUMPDEST PUSH0 PUSH1 0x20 PUSH1 0x1F DUP4 ADD DIV SWAP1 POP SWAP2 SWAP1 POP JUMP JUMPDEST PUSH0 DUP3 DUP3 SHL SWAP1 POP SWAP3 SWAP2 POP POP JUMP JUMPDEST PUSH0 PUSH1 0x8 DUP4 MUL PUSH3 0x469 PUSH32 0xFFFFFFFFFFFFFFFFFFFFFFFFFFFFFFFFFFFFFFFFFFFFFFFFFFFFFFFFFFFFFFFF DUP3 PUSH3 0x42C JUMP JUMPDEST PUSH3 0x475 DUP7 DUP4 PUSH3 0x42C JUMP JUMPDEST SWAP6 POP DUP1 NOT DUP5 AND SWAP4 POP DUP1 DUP7 AND DUP5 OR SWAP3 POP POP POP SWAP4 SWAP3 POP POP POP JUMP JUMPDEST PUSH0 DUP2 SWAP1 POP SWAP2 SWAP1 POP JUMP JUMPDEST PUSH0 DUP2 SWAP1 POP SWAP2 SWAP1 POP JUMP JUMPDEST PUSH0 PUSH3 0x4BF PUSH3 0x4B9 PUSH3 0x4B3 DUP5 PUSH3 0x48D JUMP JUMPDEST PUSH3 0x496 JUMP JUMPDEST PUSH3 0x48D JUMP JUMPDEST SWAP1 POP SWAP2 SWAP1 POP JUMP JUMPDEST PUSH0 DUP2 SWAP1 POP SWAP2 SWAP1 POP JUMP JUMPDEST PUSH3 0x4DA DUP4 PUSH3 0x49F JUMP JUMPDEST PUSH3 0x4F2 PUSH3 0x4E9 DUP3 PUSH3 0x4C6 JUMP JUMPDEST DUP5 DUP5 SLOAD PUSH3 0x438 JUMP JUMPDEST DUP3 SSTORE POP POP POP POP JUMP JUMPDEST PUSH0 SWAP1 JUMP JUMPDEST PUSH3 0x508 PUSH3 0x4FA JUMP JUMPDEST PUSH3 0x515 DUP2 DUP5 DUP5 PUSH3 0x4CF JUMP JUMPDEST POP POP POP JUMP JUMPDEST JUMPDEST DUP2 DUP2 LT ISZERO PUSH3 0x53C JUMPI PUSH3 0x530 PUSH0 DUP3 PUSH3 0x4FE JUMP JUMPDEST PUSH1 0x1 DUP2 ADD SWAP1 POP PUSH3 0x51B JUMP JUMPDEST POP POP JUMP JUMPDEST PUSH1 0x1F DUP3 GT ISZERO PUSH3 0x58B JUMPI PUSH3 0x555 DUP2 PUSH3 0x40B JUMP JUMPDEST PUSH3 0x560 DUP5 PUSH3 0x41D JUMP JUMPDEST DUP2 ADD PUSH1 0x20 DUP6 LT ISZERO PUSH3 0x570 JUMPI DUP2 SWAP1 POP JUMPDEST PUSH3 0x588 PUSH3 0x57F DUP6 PUSH3 0x41D JUMP JUMPDEST DUP4 ADD DUP3 PUSH3 0x51A JUMP JUMPDEST POP POP JUMPDEST POP POP POP JUMP JUMPDEST PUSH0 DUP3 DUP3 SHR SWAP1 POP SWAP3 SWAP2 POP POP JUMP JUMPDEST PUSH0 PUSH3 0x5AD PUSH0 NOT DUP5 PUSH1 0x8 MUL PUSH3 0x590 JUMP JUMPDEST NOT DUP1 DUP4 AND SWAP2 POP POP SWAP3 SWAP2 POP POP JUMP JUMPDEST PUSH0 PUSH3 0x5C7 DUP4 DUP4 PUSH3 0x59C JUMP JUMPDEST SWAP2 POP DUP3 PUSH1 0x2 MUL DUP3 OR SWAP1 POP SWAP3 SWAP2 POP POP JUMP JUMPDEST PUSH3 0x5E2 DUP3 PUSH3 0x3A0 JUMP JUMPDEST PUSH8 0xFFFFFFFFFFFFFFFF DUP2 GT ISZERO PUSH3 0x5FE JUMPI PUSH3 0x5FD PUSH3 0x18E JUMP JUMPDEST JUMPDEST PUSH3 0x60A DUP3 SLOAD PUSH3 0x3D7 JUMP JUMPDEST PUSH3 0x617 DUP3 DUP3 DUP6 PUSH3 0x540 JUMP JUMPDEST PUSH0 PUSH1 0x20 SWAP1 POP PUSH1 0x1F DUP4 GT PUSH1 0x1 DUP2 EQ PUSH3 0x64D JUMPI PUSH0 DUP5 ISZERO PUSH3 0x638 JUMPI DUP3 DUP8 ADD MLOAD SWAP1 POP JUMPDEST PUSH3 0x644 DUP6 DUP3 PUSH3 0x5BA JUMP JUMPDEST DUP7 SSTORE POP PUSH3 0x6B3 JUMP JUMPDEST PUSH1 0x1F NOT DUP5 AND PUSH3 0x65D DUP7 PUSH3 0x40B JUMP JUMPDEST PUSH0 JUMPDEST DUP3 DUP2 LT ISZERO PUSH3 0x686 JUMPI DUP5 DUP10 ADD MLOAD DUP3 SSTORE PUSH1 0x1 DUP3 ADD SWAP2 POP PUSH1 0x20 DUP6 ADD SWAP5 POP PUSH1 0x20 DUP2 ADD SWAP1 POP PUSH3 0x65F JUMP JUMPDEST DUP7 DUP4 LT ISZERO PUSH3 0x6A6 JUMPI DUP5 DUP10 ADD MLOAD PUSH3 0x6A2 PUSH1 0x1F DUP10 AND DUP3 PUSH3 0x59C JUMP JUMPDEST DUP4 SSTORE POP JUMPDEST PUSH1 0x1 PUSH1 0x2 DUP9 MUL ADD DUP9 SSTORE POP POP POP JUMPDEST POP POP POP POP POP POP JUMP JUMPDEST PUSH2 0x276B DUP1 PUSH3 0x6C9 PUSH0 CODECOPY PUSH0 RETURN INVALID PUSH1 0x80 PUSH1 0x40 MSTORE CALLVALUE DUP1 ISZERO PUSH2 0xF JUMPI PUSH0 DUP1 REVERT JUMPDEST POP PUSH1 0x4 CALLDATASIZE LT PUSH2 0x1A7 JUMPI PUSH0 CALLDATALOAD PUSH1 0xE0 SHR DUP1 PUSH4 0x715018A6 GT PUSH2 0xF7 JUMPI DUP1 PUSH4 0xBE37E907 GT PUSH2 0x95 JUMPI DUP1 PUSH4 0xE0DF5B6F GT PUSH2 0x6F JUMPI DUP1 PUSH4 0xE0DF5B6F EQ PUSH2 0x529 JUMPI DUP1 PUSH4 0xE1604B70 EQ PUSH2 0x559 JUMPI DUP1 PUSH4 0xE985E9C5 EQ PUSH2 0x577 JUMPI DUP1 PUSH4 0xF2FDE38B EQ PUSH2 0x5A7 JUMPI PUSH2 0x1A7 JUMP JUMPDEST DUP1 PUSH4 0xBE37E907 EQ PUSH2 0x499 JUMPI DUP1 PUSH4 0xC87B56DD EQ PUSH2 0x4C9 JUMPI DUP1 PUSH4 0xCE35DE95 EQ PUSH2 0x4F9 JUMPI PUSH2 0x1A7 JUMP JUMPDEST DUP1 PUSH4 0x8DA5CB5B GT PUSH2 0xD1 JUMPI DUP1 PUSH4 0x8DA5CB5B EQ PUSH2 0x425 JUMPI DUP1 PUSH4 0x95D89B41 EQ PUSH2 0x443 JUMPI DUP1 PUSH4 0xA22CB465 EQ PUSH2 0x461 JUMPI DUP1 PUSH4 0xB88D4FDE EQ PUSH2 0x47D JUMPI PUSH2 0x1A7 JUMP JUMPDEST DUP1 PUSH4 0x715018A6 EQ PUSH2 0x3BB JUMPI DUP1 PUSH4 0x76AED2E1 EQ PUSH2 0x3C5 JUMPI DUP1 PUSH4 0x8A7F997C EQ PUSH2 0x3F5 JUMPI PUSH2 0x1A7 JUMP JUMPDEST DUP1 PUSH4 0x23B872DD GT PUSH2 0x164 JUMPI DUP1 PUSH4 0x42842E0E GT PUSH2 0x13E JUMPI DUP1 PUSH4 0x42842E0E EQ PUSH2 0x30F JUMPI DUP1 PUSH4 0x51C18E0C EQ PUSH2 0x32B JUMPI DUP1 PUSH4 0x6352211E EQ PUSH2 0x35B JUMPI DUP1 PUSH4 0x70A08231 EQ PUSH2 0x38B JUMPI PUSH2 0x1A7 JUMP JUMPDEST DUP1 PUSH4 0x23B872DD EQ PUSH2 0x293 JUMPI DUP1 PUSH4 0x2F745C59 EQ PUSH2 0x2AF JUMPI DUP1 PUSH4 0x40C10F19 EQ PUSH2 0x2DF JUMPI PUSH2 0x1A7 JUMP JUMPDEST DUP1 PUSH4 0x1FFC9A7 EQ PUSH2 0x1AB JUMPI DUP1 PUSH4 0x6FDDE03 EQ PUSH2 0x1DB JUMPI DUP1 PUSH4 0x81812FC EQ PUSH2 0x1F9 JUMPI DUP1 PUSH4 0x95EA7B3 EQ PUSH2 0x229 JUMPI DUP1 PUSH4 0x18160DDD EQ PUSH2 0x245 JUMPI DUP1 PUSH4 0x1F8EB677 EQ PUSH2 0x263 JUMPI JUMPDEST PUSH0 DUP1 REVERT JUMPDEST PUSH2 0x1C5 PUSH1 0x4 DUP1 CALLDATASIZE SUB DUP2 ADD SWAP1 PUSH2 0x1C0 SWAP2 SWAP1 PUSH2 0x18DC JUMP JUMPDEST PUSH2 0x5C3 JUMP JUMPDEST PUSH1 0x40 MLOAD PUSH2 0x1D2 SWAP2 SWAP1 PUSH2 0x1921 JUMP JUMPDEST PUSH1 0x40 MLOAD DUP1 SWAP2 SUB SWAP1 RETURN JUMPDEST PUSH2 0x1E3 PUSH2 0x63C JUMP JUMPDEST PUSH1 0x40 MLOAD PUSH2 0x1F0 SWAP2 SWAP1 PUSH2 0x19C4 JUMP JUMPDEST PUSH1 0x40 MLOAD DUP1 SWAP2 SUB SWAP1 RETURN JUMPDEST PUSH2 0x213 PUSH1 0x4 DUP1 CALLDATASIZE SUB DUP2 ADD SWAP1 PUSH2 0x20E SWAP2 SWAP1 PUSH2 0x1A17 JUMP JUMPDEST PUSH2 0x6CC JUMP JUMPDEST PUSH1 0x40 MLOAD PUSH2 0x220 SWAP2 SWAP1 PUSH2 0x1A81 JUMP JUMPDEST PUSH1 0x40 MLOAD DUP1 SWAP2 SUB SWAP1 RETURN JUMPDEST PUSH2 0x243 PUSH1 0x4 DUP1 CALLDATASIZE SUB DUP2 ADD SWAP1 PUSH2 0x23E SWAP2 SWAP1 PUSH2 0x1AC4 JUMP JUMPDEST PUSH2 0x708 JUMP JUMPDEST STOP JUMPDEST PUSH2 0x24D PUSH2 0x743 JUMP JUMPDEST PUSH1 0x40 MLOAD PUSH2 0x25A SWAP2 SWAP1 PUSH2 0x1B11 JUMP JUMPDEST PUSH1 0x40 MLOAD DUP1 SWAP2 SUB SWAP1 RETURN JUMPDEST PUSH2 0x27D PUSH1 0x4 DUP1 CALLDATASIZE SUB DUP2 ADD SWAP1 PUSH2 0x278 SWAP2 SWAP1 PUSH2 0x1B2A JUMP JUMPDEST PUSH2 0x74C JUMP JUMPDEST PUSH1 0x40 MLOAD PUSH2 0x28A SWAP2 SWAP1 PUSH2 0x1921 JUMP JUMPDEST PUSH1 0x40 MLOAD DUP1 SWAP2 SUB SWAP1 RETURN JUMPDEST PUSH2 0x2AD PUSH1 0x4 DUP1 CALLDATASIZE SUB DUP2 ADD SWAP1 PUSH2 0x2A8 SWAP2 SWAP1 PUSH2 0x1B55 JUMP JUMPDEST PUSH2 0x75D JUMP JUMPDEST STOP JUMPDEST PUSH2 0x2C9 PUSH1 0x4 DUP1 CALLDATASIZE SUB DUP2 ADD SWAP1 PUSH2 0x2C4 SWAP2 SWAP1 PUSH2 0x1AC4 JUMP JUMPDEST PUSH2 0x798 JUMP JUMPDEST PUSH1 0x40 MLOAD PUSH2 0x2D6 SWAP2 SWAP1 PUSH2 0x1B11 JUMP JUMPDEST PUSH1 0x40 MLOAD DUP1 SWAP2 SUB SWAP1 RETURN JUMPDEST PUSH2 0x2F9 PUSH1 0x4 DUP1 CALLDATASIZE SUB DUP2 ADD SWAP1 PUSH2 0x2F4 SWAP2 SWAP1 PUSH2 0x1AC4 JUMP JUMPDEST PUSH2 0x8B6 JUMP JUMPDEST PUSH1 0x40 MLOAD PUSH2 0x306 SWAP2 SWAP1 PUSH2 0x1B11 JUMP JUMPDEST PUSH1 0x40 MLOAD DUP1 SWAP2 SUB SWAP1 RETURN JUMPDEST PUSH2 0x329 PUSH1 0x4 DUP1 CALLDATASIZE SUB DUP2 ADD SWAP1 PUSH2 0x324 SWAP2 SWAP1 PUSH2 0x1B55 JUMP JUMPDEST PUSH2 0x8D1 JUMP JUMPDEST STOP JUMPDEST PUSH2 0x345 PUSH1 0x4 DUP1 CALLDATASIZE SUB DUP2 ADD SWAP1 PUSH2 0x340 SWAP2 SWAP1 PUSH2 0x1A17 JUMP JUMPDEST PUSH2 0x90C JUMP JUMPDEST PUSH1 0x40 MLOAD PUSH2 0x352 SWAP2 SWAP1 PUSH2 0x1B11 JUMP JUMPDEST PUSH1 0x40 MLOAD DUP1 SWAP2 SUB SWAP1 RETURN JUMPDEST PUSH2 0x375 PUSH1 0x4 DUP1 CALLDATASIZE SUB DUP2 ADD SWAP1 PUSH2 0x370 SWAP2 SWAP1 PUSH2 0x1A17 JUMP JUMPDEST PUSH2 0x92F JUMP JUMPDEST PUSH1 0x40 MLOAD PUSH2 0x382 SWAP2 SWAP1 PUSH2 0x1A81 JUMP JUMPDEST PUSH1 0x40 MLOAD DUP1 SWAP2 SUB SWAP1 RETURN JUMPDEST PUSH2 0x3A5 PUSH1 0x4 DUP1 CALLDATASIZE SUB DUP2 ADD SWAP1 PUSH2 0x3A0 SWAP2 SWAP1 PUSH2 0x1B2A JUMP JUMPDEST PUSH2 0x968 JUMP JUMPDEST PUSH1 0x40 MLOAD PUSH2 0x3B2 SWAP2 SWAP1 PUSH2 0x1B11 JUMP JUMPDEST PUSH1 0x40 MLOAD DUP1 SWAP2 SUB SWAP1 RETURN JUMPDEST PUSH2 0x3C3 PUSH2 0x979 JUMP JUMPDEST STOP JUMPDEST PUSH2 0x3DF PUSH1 0x4 DUP1 CALLDATASIZE SUB DUP2 ADD SWAP1 PUSH2 0x3DA SWAP2 SWAP1 PUSH2 0x1A17 JUMP JUMPDEST PUSH2 0x98C JUMP JUMPDEST PUSH1 0x40 MLOAD PUSH2 0x3EC SWAP2 SWAP1 PUSH2 0x1B11 JUMP JUMPDEST PUSH1 0x40 MLOAD DUP1 SWAP2 SUB SWAP1 RETURN JUMPDEST PUSH2 0x40F PUSH1 0x4 DUP1 CALLDATASIZE SUB DUP2 ADD SWAP1 PUSH2 0x40A SWAP2 SWAP1 PUSH2 0x1BCF JUMP JUMPDEST PUSH2 0x9AF JUMP JUMPDEST PUSH1 0x40 MLOAD PUSH2 0x41C SWAP2 SWAP1 PUSH2 0x1921 JUMP JUMPDEST PUSH1 0x40 MLOAD DUP1 SWAP2 SUB SWAP1 RETURN JUMPDEST PUSH2 0x42D PUSH2 0xA85 JUMP JUMPDEST PUSH1 0x40 MLOAD PUSH2 0x43A SWAP2 SWAP1 PUSH2 0x1A81 JUMP JUMPDEST PUSH1 0x40 MLOAD DUP1 SWAP2 SUB SWAP1 RETURN JUMPDEST PUSH2 0x44B PUSH2 0xAAC JUMP JUMPDEST PUSH1 0x40 MLOAD PUSH2 0x458 SWAP2 SWAP1 PUSH2 0x19C4 JUMP JUMPDEST PUSH1 0x40 MLOAD DUP1 SWAP2 SUB SWAP1 RETURN JUMPDEST PUSH2 0x47B PUSH1 0x4 DUP1 CALLDATASIZE SUB DUP2 ADD SWAP1 PUSH2 0x476 SWAP2 SWAP1 PUSH2 0x1BCF JUMP JUMPDEST PUSH2 0xB3C JUMP JUMPDEST STOP JUMPDEST PUSH2 0x497 PUSH1 0x4 DUP1 CALLDATASIZE SUB DUP2 ADD SWAP1 PUSH2 0x492 SWAP2 SWAP1 PUSH2 0x1C6E JUMP JUMPDEST PUSH2 0xB77 JUMP JUMPDEST STOP JUMPDEST PUSH2 0x4B3 PUSH1 0x4 DUP1 CALLDATASIZE SUB DUP2 ADD SWAP1 PUSH2 0x4AE SWAP2 SWAP1 PUSH2 0x1AC4 JUMP JUMPDEST PUSH2 0xBB2 JUMP JUMPDEST PUSH1 0x40 MLOAD PUSH2 0x4C0 SWAP2 SWAP1 PUSH2 0x1B11 JUMP JUMPDEST PUSH1 0x40 MLOAD DUP1 SWAP2 SUB SWAP1 RETURN JUMPDEST PUSH2 0x4E3 PUSH1 0x4 DUP1 CALLDATASIZE SUB DUP2 ADD SWAP1 PUSH2 0x4DE SWAP2 SWAP1 PUSH2 0x1A17 JUMP JUMPDEST PUSH2 0xBCD JUMP JUMPDEST PUSH1 0x40 MLOAD PUSH2 0x4F0 SWAP2 SWAP1 PUSH2 0x19C4 JUMP JUMPDEST PUSH1 0x40 MLOAD DUP1 SWAP2 SUB SWAP1 RETURN JUMPDEST PUSH2 0x513 PUSH1 0x4 DUP1 CALLDATASIZE SUB DUP2 ADD SWAP1 PUSH2 0x50E SWAP2 SWAP1 PUSH2 0x1B2A JUMP JUMPDEST PUSH2 0xC33 JUMP JUMPDEST PUSH1 0x40 MLOAD PUSH2 0x520 SWAP2 SWAP1 PUSH2 0x1921 JUMP JUMPDEST PUSH1 0x40 MLOAD DUP1 SWAP2 SUB SWAP1 RETURN JUMPDEST PUSH2 0x543 PUSH1 0x4 DUP1 CALLDATASIZE SUB DUP2 ADD SWAP1 PUSH2 0x53E SWAP2 SWAP1 PUSH2 0x1E1A JUMP JUMPDEST PUSH2 0xC44 JUMP JUMPDEST PUSH1 0x40 MLOAD PUSH2 0x550 SWAP2 SWAP1 PUSH2 0x19C4 JUMP JUMPDEST PUSH1 0x40 MLOAD DUP1 SWAP2 SUB SWAP1 RETURN JUMPDEST PUSH2 0x561 PUSH2 0xCEE JUMP JUMPDEST PUSH1 0x40 MLOAD PUSH2 0x56E SWAP2 SWAP1 PUSH2 0x1B11 JUMP JUMPDEST PUSH1 0x40 MLOAD DUP1 SWAP2 SUB SWAP1 RETURN JUMPDEST PUSH2 0x591 PUSH1 0x4 DUP1 CALLDATASIZE SUB DUP2 ADD SWAP1 PUSH2 0x58C SWAP2 SWAP1 PUSH2 0x1E61 JUMP JUMPDEST PUSH2 0xCF7 JUMP JUMPDEST PUSH1 0x40 MLOAD PUSH2 0x59E SWAP2 SWAP1 PUSH2 0x1921 JUMP JUMPDEST PUSH1 0x40 MLOAD DUP1 SWAP2 SUB SWAP1 RETURN JUMPDEST PUSH2 0x5C1 PUSH1 0x4 DUP1 CALLDATASIZE SUB DUP2 ADD SWAP1 PUSH2 0x5BC SWAP2 SWAP1 PUSH2 0x1B2A JUMP JUMPDEST PUSH2 0xD33 JUMP JUMPDEST STOP JUMPDEST PUSH0 PUSH32 0x80AC58CD00000000000000000000000000000000000000000000000000000000 PUSH28 0xFFFFFFFFFFFFFFFFFFFFFFFFFFFFFFFFFFFFFFFFFFFFFFFFFFFFFFFF NOT AND DUP3 PUSH28 0xFFFFFFFFFFFFFFFFFFFFFFFFFFFFFFFFFFFFFFFFFFFFFFFFFFFFFFFF NOT AND EQ DUP1 PUSH2 0x635 JUMPI POP PUSH2 0x634 DUP3 PUSH2 0xDB5 JUMP JUMPDEST JUMPDEST SWAP1 POP SWAP2 SWAP1 POP JUMP JUMPDEST PUSH1 0x60 PUSH1 0x1 DUP1 SLOAD PUSH2 0x64B SWAP1 PUSH2 0x1ECC JUMP JUMPDEST DUP1 PUSH1 0x1F ADD PUSH1 0x20 DUP1 SWAP2 DIV MUL PUSH1 0x20 ADD PUSH1 0x40 MLOAD SWAP1 DUP2 ADD PUSH1 0x40 MSTORE DUP1 SWAP3 SWAP2 SWAP1 DUP2 DUP2 MSTORE PUSH1 0x20 ADD DUP3 DUP1 SLOAD PUSH2 0x677 SWAP1 PUSH2 0x1ECC JUMP JUMPDEST DUP1 ISZERO PUSH2 0x6C2 JUMPI DUP1 PUSH1 0x1F LT PUSH2 0x699 JUMPI PUSH2 0x100 DUP1 DUP4 SLOAD DIV MUL DUP4 MSTORE SWAP2 PUSH1 0x20 ADD SWAP2 PUSH2 0x6C2 JUMP JUMPDEST DUP3 ADD SWAP2 SWAP1 PUSH0 MSTORE PUSH1 0x20 PUSH0 KECCAK256 SWAP1 JUMPDEST DUP2 SLOAD DUP2 MSTORE SWAP1 PUSH1 0x1 ADD SWAP1 PUSH1 0x20 ADD DUP1 DUP4 GT PUSH2 0x6A5 JUMPI DUP3 SWAP1 SUB PUSH1 0x1F AND DUP3 ADD SWAP2 JUMPDEST POP POP POP POP POP SWAP1 POP SWAP1 JUMP JUMPDEST PUSH0 PUSH1 0x40 MLOAD PUSH32 0x9FC6E75800000000000000000000000000000000000000000000000000000000 DUP2 MSTORE PUSH1 0x4 ADD PUSH2 0x6FF SWAP1 PUSH2 0x1F46 JUMP JUMPDEST PUSH1 0x40 MLOAD DUP1 SWAP2 SUB SWAP1 REVERT JUMPDEST PUSH1 0x40 MLOAD PUSH32 0x9FC6E75800000000000000000000000000000000000000000000000000000000 DUP2 MSTORE PUSH1 0x4 ADD PUSH2 0x73A SWAP1 PUSH2 0x1FAE JUMP JUMPDEST PUSH1 0x40 MLOAD DUP1 SWAP2 SUB SWAP1 REVERT JUMPDEST PUSH0 PUSH1 0x5 SLOAD SWAP1 POP SWAP1 JUMP JUMPDEST PUSH0 PUSH2 0x756 DUP3 PUSH2 0xE1E JUMP JUMPDEST SWAP1 POP SWAP2 SWAP1 POP JUMP JUMPDEST PUSH1 0x40 MLOAD PUSH32 0x9FC6E75800000000000000000000000000000000000000000000000000000000 DUP2 MSTORE PUSH1 0x4 ADD PUSH2 0x78F SWAP1 PUSH2 0x2016 JUMP JUMPDEST PUSH1 0x40 MLOAD DUP1 SWAP2 SUB SWAP1 REVERT JUMPDEST PUSH0 PUSH2 0x7A2 DUP4 PUSH2 0xE70 JUMP JUMPDEST DUP3 LT PUSH2 0x7E3 JUMPI PUSH1 0x40 MLOAD PUSH32 0x8C379A000000000000000000000000000000000000000000000000000000000 DUP2 MSTORE PUSH1 0x4 ADD PUSH2 0x7DA SWAP1 PUSH2 0x207E JUMP JUMPDEST PUSH1 0x40 MLOAD DUP1 SWAP2 SUB SWAP1 REVERT JUMPDEST PUSH0 PUSH20 0xFFFFFFFFFFFFFFFFFFFFFFFFFFFFFFFFFFFFFFFF AND DUP4 PUSH20 0xFFFFFFFFFFFFFFFFFFFFFFFFFFFFFFFFFFFFFFFF AND SUB PUSH2 0x853 JUMPI PUSH0 PUSH1 0x40 MLOAD PUSH32 0x74F5E87D00000000000000000000000000000000000000000000000000000000 DUP2 MSTORE PUSH1 0x4 ADD PUSH2 0x84A SWAP2 SWAP1 PUSH2 0x1A81 JUMP JUMPDEST PUSH1 0x40 MLOAD DUP1 SWAP2 SUB SWAP1 REVERT JUMPDEST PUSH0 PUSH1 0xB PUSH0 DUP6 PUSH20 0xFFFFFFFFFFFFFFFFFFFFFFFFFFFFFFFFFFFFFFFF AND PUSH20 0xFFFFFFFFFFFFFFFFFFFFFFFFFFFFFFFFFFFFFFFF AND DUP2 MSTORE PUSH1 0x20 ADD SWAP1 DUP2 MSTORE PUSH1 0x20 ADD PUSH0 KECCAK256 PUSH0 DUP5 DUP2 MSTORE PUSH1 0x20 ADD SWAP1 DUP2 MSTORE PUSH1 0x20 ADD PUSH0 KECCAK256 SLOAD SWAP1 POP PUSH2 0x8AC DUP2 PUSH2 0xEB6 JUMP JUMPDEST DUP1 SWAP2 POP POP SWAP3 SWAP2 POP POP JUMP JUMPDEST PUSH0 PUSH2 0x8BF PUSH2 0xF3D JUMP JUMPDEST PUSH2 0x8C9 DUP4 DUP4 PUSH2 0xFBB JUMP JUMPDEST SWAP1 POP SWAP3 SWAP2 POP POP JUMP JUMPDEST PUSH1 0x40 MLOAD PUSH32 0x9FC6E75800000000000000000000000000000000000000000000000000000000 DUP2 MSTORE PUSH1 0x4 ADD PUSH2 0x903 SWAP1 PUSH2 0x20E6 JUMP JUMPDEST PUSH1 0x40 MLOAD DUP1 SWAP2 SUB SWAP1 REVERT JUMPDEST PUSH0 PUSH2 0x916 DUP3 PUSH2 0xEB6 JUMP JUMPDEST PUSH1 0x8 PUSH0 DUP4 DUP2 MSTORE PUSH1 0x20 ADD SWAP1 DUP2 MSTORE PUSH1 0x20 ADD PUSH0 KECCAK256 SLOAD SWAP1 POP SWAP2 SWAP1 POP JUMP JUMPDEST PUSH0 PUSH1 0x6 PUSH0 DUP4 DUP2 MSTORE PUSH1 0x20 ADD SWAP1 DUP2 MSTORE PUSH1 0x20 ADD PUSH0 KECCAK256 PUSH0 SWAP1 SLOAD SWAP1 PUSH2 0x100 EXP SWAP1 DIV PUSH20 0xFFFFFFFFFFFFFFFFFFFFFFFFFFFFFFFFFFFFFFFF AND SWAP1 POP SWAP2 SWAP1 POP JUMP JUMPDEST PUSH0 PUSH2 0x972 DUP3 PUSH2 0xE70 JUMP JUMPDEST SWAP1 POP SWAP2 SWAP1 POP JUMP JUMPDEST PUSH2 0x981 PUSH2 0xF3D JUMP JUMPDEST PUSH2 0x98A PUSH0 PUSH2 0x12D7 JUMP JUMPDEST JUMP JUMPDEST PUSH0 PUSH2 0x996 DUP3 PUSH2 0xEB6 JUMP JUMPDEST PUSH1 0x7 PUSH0 DUP4 DUP2 MSTORE PUSH1 0x20 ADD SWAP1 DUP2 MSTORE PUSH1 0x20 ADD PUSH0 KECCAK256 SLOAD SWAP1 POP SWAP2 SWAP1 POP JUMP JUMPDEST PUSH0 DUP3 PUSH20 0xFFFFFFFFFFFFFFFFFFFFFFFFFFFFFFFFFFFFFFFF AND CALLER PUSH20 0xFFFFFFFFFFFFFFFFFFFFFFFFFFFFFFFFFFFFFFFF AND EQ PUSH2 0xA20 JUMPI DUP3 PUSH1 0x40 MLOAD PUSH32 0x5015929900000000000000000000000000000000000000000000000000000000 DUP2 MSTORE PUSH1 0x4 ADD PUSH2 0xA17 SWAP2 SWAP1 PUSH2 0x1A81 JUMP JUMPDEST PUSH1 0x40 MLOAD DUP1 SWAP2 SUB SWAP1 REVERT JUMPDEST DUP2 PUSH1 0xA PUSH0 DUP6 PUSH20 0xFFFFFFFFFFFFFFFFFFFFFFFFFFFFFFFFFFFFFFFF AND PUSH20 0xFFFFFFFFFFFFFFFFFFFFFFFFFFFFFFFFFFFFFFFF AND DUP2 MSTORE PUSH1 0x20 ADD SWAP1 DUP2 MSTORE PUSH1 0x20 ADD PUSH0 KECCAK256 PUSH0 PUSH2 0x100 EXP DUP2 SLOAD DUP2 PUSH1 0xFF MUL NOT AND SWAP1 DUP4 ISZERO ISZERO MUL OR SWAP1 SSTORE POP PUSH2 0xA7D DUP4 PUSH2 0x74C JUMP JUMPDEST SWAP1 POP SWAP3 SWAP2 POP POP JUMP JUMPDEST PUSH0 DUP1 PUSH0 SWAP1 SLOAD SWAP1 PUSH2 0x100 EXP SWAP1 DIV PUSH20 0xFFFFFFFFFFFFFFFFFFFFFFFFFFFFFFFFFFFFFFFF AND SWAP1 POP SWAP1 JUMP JUMPDEST PUSH1 0x60 PUSH1 0x2 DUP1 SLOAD PUSH2 0xABB SWAP1 PUSH2 0x1ECC JUMP JUMPDEST DUP1 PUSH1 0x1F ADD PUSH1 0x20 DUP1 SWAP2 DIV MUL PUSH1 0x20 ADD PUSH1 0x40 MLOAD SWAP1 DUP2 ADD PUSH1 0x40 MSTORE DUP1 SWAP3 SWAP2 SWAP1 DUP2 DUP2 MSTORE PUSH1 0x20 ADD DUP3 DUP1 SLOAD PUSH2 0xAE7 SWAP1 PUSH2 0x1ECC JUMP JUMPDEST DUP1 ISZERO PUSH2 0xB32 JUMPI DUP1 PUSH1 0x1F LT PUSH2 0xB09 JUMPI PUSH2 0x100 DUP1 DUP4 SLOAD DIV MUL DUP4 MSTORE SWAP2 PUSH1 0x20 ADD SWAP2 PUSH2 0xB32 JUMP JUMPDEST DUP3 ADD SWAP2 SWAP1 PUSH0 MSTORE PUSH1 0x20 PUSH0 KECCAK256 SWAP1 JUMPDEST DUP2 SLOAD DUP2 MSTORE SWAP1 PUSH1 0x1 ADD SWAP1 PUSH1 0x20 ADD DUP1 DUP4 GT PUSH2 0xB15 JUMPI DUP3 SWAP1 SUB PUSH1 0x1F AND DUP3 ADD SWAP2 JUMPDEST POP POP POP POP POP SWAP1 POP SWAP1 JUMP JUMPDEST PUSH1 0x40 MLOAD PUSH32 0x9FC6E75800000000000000000000000000000000000000000000000000000000 DUP2 MSTORE PUSH1 0x4 ADD PUSH2 0xB6E SWAP1 PUSH2 0x214E JUMP JUMPDEST PUSH1 0x40 MLOAD DUP1 SWAP2 SUB SWAP1 REVERT JUMPDEST PUSH1 0x40 MLOAD PUSH32 0x9FC6E75800000000000000000000000000000000000000000000000000000000 DUP2 MSTORE PUSH1 0x4 ADD PUSH2 0xBA9 SWAP1 PUSH2 0x20E6 JUMP JUMPDEST PUSH1 0x40 MLOAD DUP1 SWAP2 SUB SWAP1 REVERT JUMPDEST PUSH0 PUSH2 0xBBB PUSH2 0xF3D JUMP JUMPDEST PUSH2 0xBC5 DUP4 DUP4 PUSH2 0x1398 JUMP JUMPDEST SWAP1 POP SWAP3 SWAP2 POP POP JUMP JUMPDEST PUSH1 0x60 PUSH2 0xBD8 DUP3 PUSH2 0x142E JUMP JUMPDEST PUSH2 0xBE1 DUP3 PUSH2 0xEB6 JUMP JUMPDEST PUSH0 PUSH1 0x7 PUSH0 DUP5 DUP2 MSTORE PUSH1 0x20 ADD SWAP1 DUP2 MSTORE PUSH1 0x20 ADD PUSH0 KECCAK256 SLOAD SWAP1 POP PUSH1 0x3 PUSH2 0xC01 DUP5 PUSH2 0x147B JUMP JUMPDEST PUSH2 0xC0A DUP4 PUSH2 0x147B JUMP JUMPDEST PUSH1 0x40 MLOAD PUSH1 0x20 ADD PUSH2 0xC1C SWAP4 SWAP3 SWAP2 SWAP1 PUSH2 0x2282 JUMP JUMPDEST PUSH1 0x40 MLOAD PUSH1 0x20 DUP2 DUP4 SUB SUB DUP2 MSTORE SWAP1 PUSH1 0x40 MSTORE SWAP2 POP POP SWAP2 SWAP1 POP JUMP JUMPDEST PUSH0 PUSH2 0xC3D DUP3 PUSH2 0x1545 JUMP JUMPDEST SWAP1 POP SWAP2 SWAP1 POP JUMP JUMPDEST PUSH1 0x60 PUSH2 0xC4E PUSH2 0xF3D JUMP JUMPDEST DUP2 PUSH1 0x3 SWAP1 DUP2 PUSH2 0xC5D SWAP2 SWAP1 PUSH2 0x2448 JUMP JUMPDEST POP PUSH1 0x3 DUP1 SLOAD PUSH2 0xC6B SWAP1 PUSH2 0x1ECC JUMP JUMPDEST DUP1 PUSH1 0x1F ADD PUSH1 0x20 DUP1 SWAP2 DIV MUL PUSH1 0x20 ADD PUSH1 0x40 MLOAD SWAP1 DUP2 ADD PUSH1 0x40 MSTORE DUP1 SWAP3 SWAP2 SWAP1 DUP2 DUP2 MSTORE PUSH1 0x20 ADD DUP3 DUP1 SLOAD PUSH2 0xC97 SWAP1 PUSH2 0x1ECC JUMP JUMPDEST DUP1 ISZERO PUSH2 0xCE2 JUMPI DUP1 PUSH1 0x1F LT PUSH2 0xCB9 JUMPI PUSH2 0x100 DUP1 DUP4 SLOAD DIV MUL DUP4 MSTORE SWAP2 PUSH1 0x20 ADD SWAP2 PUSH2 0xCE2 JUMP JUMPDEST DUP3 ADD SWAP2 SWAP1 PUSH0 MSTORE PUSH1 0x20 PUSH0 KECCAK256 SWAP1 JUMPDEST DUP2 SLOAD DUP2 MSTORE SWAP1 PUSH1 0x1 ADD SWAP1 PUSH1 0x20 ADD DUP1 DUP4 GT PUSH2 0xCC5 JUMPI DUP3 SWAP1 SUB PUSH1 0x1F AND DUP3 ADD SWAP2 JUMPDEST POP POP POP POP POP SWAP1 POP SWAP2 SWAP1 POP JUMP JUMPDEST PUSH0 PUSH1 0x4 SLOAD SWAP1 POP SWAP1 JUMP JUMPDEST PUSH0 PUSH1 0x40 MLOAD PUSH32 0x9FC6E75800000000000000000000000000000000000000000000000000000000 DUP2 MSTORE PUSH1 0x4 ADD PUSH2 0xD2A SWAP1 PUSH2 0x2561 JUMP JUMPDEST PUSH1 0x40 MLOAD DUP1 SWAP2 SUB SWAP1 REVERT JUMPDEST PUSH2 0xD3B PUSH2 0xF3D JUMP JUMPDEST PUSH0 PUSH20 0xFFFFFFFFFFFFFFFFFFFFFFFFFFFFFFFFFFFFFFFF AND DUP2 PUSH20 0xFFFFFFFFFFFFFFFFFFFFFFFFFFFFFFFFFFFFFFFF AND SUB PUSH2 0xDA9 JUMPI PUSH1 0x40 MLOAD PUSH32 0x8C379A000000000000000000000000000000000000000000000000000000000 DUP2 MSTORE PUSH1 0x4 ADD PUSH2 0xDA0 SWAP1 PUSH2 0x25EF JUMP JUMPDEST PUSH1 0x40 MLOAD DUP1 SWAP2 SUB SWAP1 REVERT JUMPDEST PUSH2 0xDB2 DUP2 PUSH2 0x12D7 JUMP JUMPDEST POP JUMP JUMPDEST PUSH0 PUSH32 0x1FFC9A700000000000000000000000000000000000000000000000000000000 PUSH28 0xFFFFFFFFFFFFFFFFFFFFFFFFFFFFFFFFFFFFFFFFFFFFFFFFFFFFFFFF NOT AND DUP3 PUSH28 0xFFFFFFFFFFFFFFFFFFFFFFFFFFFFFFFFFFFFFFFFFFFFFFFFFFFFFFFF NOT AND EQ SWAP1 POP SWAP2 SWAP1 POP JUMP JUMPDEST PUSH0 PUSH1 0xA PUSH0 DUP4 PUSH20 0xFFFFFFFFFFFFFFFFFFFFFFFFFFFFFFFFFFFFFFFF AND PUSH20 0xFFFFFFFFFFFFFFFFFFFFFFFFFFFFFFFFFFFFFFFF AND DUP2 MSTORE PUSH1 0x20 ADD SWAP1 DUP2 MSTORE PUSH1 0x20 ADD PUSH0 KECCAK256 PUSH0 SWAP1 SLOAD SWAP1 PUSH2 0x100 EXP SWAP1 DIV PUSH1 0xFF AND SWAP1 POP SWAP2 SWAP1 POP JUMP JUMPDEST PUSH0 PUSH1 0x9 PUSH0 DUP4 PUSH20 0xFFFFFFFFFFFFFFFFFFFFFFFFFFFFFFFFFFFFFFFF AND PUSH20 0xFFFFFFFFFFFFFFFFFFFFFFFFFFFFFFFFFFFFFFFF AND DUP2 MSTORE PUSH1 0x20 ADD SWAP1 DUP2 MSTORE PUSH1 0x20 ADD PUSH0 KECCAK256 SLOAD SWAP1 POP SWAP2 SWAP1 POP JUMP JUMPDEST PUSH2 0xEBF DUP2 PUSH2 0x15E0 JUMP JUMPDEST PUSH2 0xF00 JUMPI DUP1 PUSH1 0x40 MLOAD PUSH32 0x24476A3F00000000000000000000000000000000000000000000000000000000 DUP2 MSTORE PUSH1 0x4 ADD PUSH2 0xEF7 SWAP2 SWAP1 PUSH2 0x1B11 JUMP JUMPDEST PUSH1 0x40 MLOAD DUP1 SWAP2 SUB SWAP1 REVERT JUMPDEST PUSH2 0xF39 PUSH1 0x6 PUSH0 DUP4 DUP2 MSTORE PUSH1 0x20 ADD SWAP1 DUP2 MSTORE PUSH1 0x20 ADD PUSH0 KECCAK256 PUSH0 SWAP1 SLOAD SWAP1 PUSH2 0x100 EXP SWAP1 DIV PUSH20 0xFFFFFFFFFFFFFFFFFFFFFFFFFFFFFFFFFFFFFFFF AND PUSH2 0x1545 JUMP JUMPDEST POP POP JUMP JUMPDEST PUSH2 0xF45 PUSH2 0x1620 JUMP JUMPDEST PUSH20 0xFFFFFFFFFFFFFFFFFFFFFFFFFFFFFFFFFFFFFFFF AND PUSH2 0xF63 PUSH2 0xA85 JUMP JUMPDEST PUSH20 0xFFFFFFFFFFFFFFFFFFFFFFFFFFFFFFFFFFFFFFFF AND EQ PUSH2 0xFB9 JUMPI PUSH1 0x40 MLOAD PUSH32 0x8C379A000000000000000000000000000000000000000000000000000000000 DUP2 MSTORE PUSH1 0x4 ADD PUSH2 0xFB0 SWAP1 PUSH2 0x2657 JUMP JUMPDEST PUSH1 0x40 MLOAD DUP1 SWAP2 SUB SWAP1 REVERT JUMPDEST JUMP JUMPDEST PUSH0 PUSH2 0xFC4 PUSH2 0xF3D JUMP JUMPDEST PUSH0 PUSH1 0x1 PUSH1 0x5 SLOAD PUSH2 0xFD4 SWAP2 SWAP1 PUSH2 0x26A2 JUMP JUMPDEST SWAP1 POP PUSH0 PUSH20 0xFFFFFFFFFFFFFFFFFFFFFFFFFFFFFFFFFFFFFFFF AND DUP5 PUSH20 0xFFFFFFFFFFFFFFFFFFFFFFFFFFFFFFFFFFFFFFFF AND SUB PUSH2 0x1046 JUMPI PUSH0 PUSH1 0x40 MLOAD PUSH32 0x74F5E87D00000000000000000000000000000000000000000000000000000000 DUP2 MSTORE PUSH1 0x4 ADD PUSH2 0x103D SWAP2 SWAP1 PUSH2 0x1A81 JUMP JUMPDEST PUSH1 0x40 MLOAD DUP1 SWAP2 SUB SWAP1 REVERT JUMPDEST PUSH2 0x104F DUP2 PUSH2 0x15E0 JUMP JUMPDEST ISZERO PUSH2 0x1091 JUMPI DUP1 PUSH1 0x40 MLOAD PUSH32 0xF342BDC200000000000000000000000000000000000000000000000000000000 DUP2 MSTORE PUSH1 0x4 ADD PUSH2 0x1088 SWAP2 SWAP1 PUSH2 0x1B11 JUMP JUMPDEST PUSH1 0x40 MLOAD DUP1 SWAP2 SUB SWAP1 REVERT JUMPDEST PUSH2 0x109A DUP5 PUSH2 0x1627 JUMP JUMPDEST PUSH2 0x10B8 JUMPI PUSH1 0x1 PUSH1 0x4 PUSH0 DUP3 DUP3 SLOAD PUSH2 0x10B0 SWAP2 SWAP1 PUSH2 0x26A2 JUMP JUMPDEST SWAP3 POP POP DUP2 SWAP1 SSTORE POP JUMPDEST PUSH1 0x1 PUSH1 0x9 PUSH0 DUP7 PUSH20 0xFFFFFFFFFFFFFFFFFFFFFFFFFFFFFFFFFFFFFFFF AND PUSH20 0xFFFFFFFFFFFFFFFFFFFFFFFFFFFFFFFFFFFFFFFF AND DUP2 MSTORE PUSH1 0x20 ADD SWAP1 DUP2 MSTORE PUSH1 0x20 ADD PUSH0 KECCAK256 PUSH0 DUP3 DUP3 SLOAD ADD SWAP3 POP POP DUP2 SWAP1 SSTORE POP PUSH1 0x1 PUSH1 0x5 PUSH0 DUP3 DUP3 SLOAD ADD SWAP3 POP POP DUP2 SWAP1 SSTORE POP DUP4 PUSH1 0x6 PUSH0 DUP4 DUP2 MSTORE PUSH1 0x20 ADD SWAP1 DUP2 MSTORE PUSH1 0x20 ADD PUSH0 KECCAK256 PUSH0 PUSH2 0x100 EXP DUP2 SLOAD DUP2 PUSH20 0xFFFFFFFFFFFFFFFFFFFFFFFFFFFFFFFFFFFFFFFF MUL NOT AND SWAP1 DUP4 PUSH20 0xFFFFFFFFFFFFFFFFFFFFFFFFFFFFFFFFFFFFFFFF AND MUL OR SWAP1 SSTORE POP DUP3 PUSH1 0x7 PUSH0 DUP4 DUP2 MSTORE PUSH1 0x20 ADD SWAP1 DUP2 MSTORE PUSH1 0x20 ADD PUSH0 KECCAK256 DUP2 SWAP1 SSTORE POP PUSH1 0x1 PUSH1 0x8 PUSH0 DUP4 DUP2 MSTORE PUSH1 0x20 ADD SWAP1 DUP2 MSTORE PUSH1 0x20 ADD PUSH0 KECCAK256 DUP2 SWAP1 SSTORE POP PUSH0 PUSH1 0xA PUSH0 DUP7 PUSH20 0xFFFFFFFFFFFFFFFFFFFFFFFFFFFFFFFFFFFFFFFF AND PUSH20 0xFFFFFFFFFFFFFFFFFFFFFFFFFFFFFFFFFFFFFFFF AND DUP2 MSTORE PUSH1 0x20 ADD SWAP1 DUP2 MSTORE PUSH1 0x20 ADD PUSH0 KECCAK256 PUSH0 PUSH2 0x100 EXP DUP2 SLOAD DUP2 PUSH1 0xFF MUL NOT AND SWAP1 DUP4 ISZERO ISZERO MUL OR SWAP1 SSTORE POP DUP1 PUSH1 0xB PUSH0 DUP7 PUSH20 0xFFFFFFFFFFFFFFFFFFFFFFFFFFFFFFFFFFFFFFFF AND PUSH20 0xFFFFFFFFFFFFFFFFFFFFFFFFFFFFFFFFFFFFFFFF AND DUP2 MSTORE PUSH1 0x20 ADD SWAP1 DUP2 MSTORE PUSH1 0x20 ADD PUSH0 KECCAK256 PUSH0 PUSH1 0x1 PUSH1 0x9 PUSH0 DUP10 PUSH20 0xFFFFFFFFFFFFFFFFFFFFFFFFFFFFFFFFFFFFFFFF AND PUSH20 0xFFFFFFFFFFFFFFFFFFFFFFFFFFFFFFFFFFFFFFFF AND DUP2 MSTORE PUSH1 0x20 ADD SWAP1 DUP2 MSTORE PUSH1 0x20 ADD PUSH0 KECCAK256 SLOAD PUSH2 0x126C SWAP2 SWAP1 PUSH2 0x26D5 JUMP JUMPDEST DUP2 MSTORE PUSH1 0x20 ADD SWAP1 DUP2 MSTORE PUSH1 0x20 ADD PUSH0 KECCAK256 DUP2 SWAP1 SSTORE POP DUP3 DUP2 DUP6 PUSH20 0xFFFFFFFFFFFFFFFFFFFFFFFFFFFFFFFFFFFFFFFF AND PUSH32 0x2F00E3CDD69A77BE7ED215EC7B2A36784DD158F921FCA79AC29DEFFA353FE6EE PUSH0 PUSH1 0x40 MLOAD PUSH2 0x12C5 SWAP2 SWAP1 PUSH2 0x1A81 JUMP JUMPDEST PUSH1 0x40 MLOAD DUP1 SWAP2 SUB SWAP1 LOG4 DUP1 SWAP2 POP POP SWAP3 SWAP2 POP POP JUMP JUMPDEST PUSH0 DUP1 PUSH0 SWAP1 SLOAD SWAP1 PUSH2 0x100 EXP SWAP1 DIV PUSH20 0xFFFFFFFFFFFFFFFFFFFFFFFFFFFFFFFFFFFFFFFF AND SWAP1 POP DUP2 PUSH0 DUP1 PUSH2 0x100 EXP DUP2 SLOAD DUP2 PUSH20 0xFFFFFFFFFFFFFFFFFFFFFFFFFFFFFFFFFFFFFFFF MUL NOT AND SWAP1 DUP4 PUSH20 0xFFFFFFFFFFFFFFFFFFFFFFFFFFFFFFFFFFFFFFFF AND MUL OR SWAP1 SSTORE POP DUP2 PUSH20 0xFFFFFFFFFFFFFFFFFFFFFFFFFFFFFFFFFFFFFFFF AND DUP2 PUSH20 0xFFFFFFFFFFFFFFFFFFFFFFFFFFFFFFFFFFFFFFFF AND PUSH32 0x8BE0079C531659141344CD1FD0A4F28419497F9722A3DAAFE3B4186F6B6457E0 PUSH1 0x40 MLOAD PUSH1 0x40 MLOAD DUP1 SWAP2 SUB SWAP1 LOG3 POP POP JUMP JUMPDEST PUSH0 PUSH2 0x13A1 PUSH2 0xF3D JUMP JUMPDEST PUSH2 0x13AB DUP4 DUP4 PUSH2 0x1670 JUMP JUMPDEST PUSH0 PUSH1 0x1 PUSH1 0x8 PUSH0 DUP6 DUP2 MSTORE PUSH1 0x20 ADD SWAP1 DUP2 MSTORE PUSH1 0x20 ADD PUSH0 KECCAK256 PUSH0 DUP3 DUP3 SLOAD PUSH2 0x13CD SWAP2 SWAP1 PUSH2 0x26A2 JUMP JUMPDEST SWAP3 POP POP DUP2 SWAP1 SSTORE SWAP1 POP DUP1 DUP5 PUSH20 0xFFFFFFFFFFFFFFFFFFFFFFFFFFFFFFFFFFFFFFFF AND PUSH32 0x48FFD7FDB1C1A0561A2D410317F6BB839AAB64898DE6FC73EE703A9C0DC0A36C DUP6 PUSH1 0x40 MLOAD PUSH2 0x141C SWAP2 SWAP1 PUSH2 0x1B11 JUMP JUMPDEST PUSH1 0x40 MLOAD DUP1 SWAP2 SUB SWAP1 LOG3 DUP1 SWAP2 POP POP SWAP3 SWAP2 POP POP JUMP JUMPDEST PUSH2 0x1437 DUP2 PUSH2 0x15E0 JUMP JUMPDEST PUSH2 0x1478 JUMPI DUP1 PUSH1 0x40 MLOAD PUSH32 0x24476A3F00000000000000000000000000000000000000000000000000000000 DUP2 MSTORE PUSH1 0x4 ADD PUSH2 0x146F SWAP2 SWAP1 PUSH2 0x1B11 JUMP JUMPDEST PUSH1 0x40 MLOAD DUP1 SWAP2 SUB SWAP1 REVERT JUMPDEST POP JUMP JUMPDEST PUSH1 0x60 PUSH0 PUSH1 0x1 PUSH2 0x1489 DUP5 PUSH2 0x16EC JUMP JUMPDEST ADD SWAP1 POP PUSH0 DUP2 PUSH8 0xFFFFFFFFFFFFFFFF DUP2 GT ISZERO PUSH2 0x14A7 JUMPI PUSH2 0x14A6 PUSH2 0x1CF6 JUMP JUMPDEST JUMPDEST PUSH1 0x40 MLOAD SWAP1 DUP1 DUP3 MSTORE DUP1 PUSH1 0x1F ADD PUSH1 0x1F NOT AND PUSH1 0x20 ADD DUP3 ADD PUSH1 0x40 MSTORE DUP1 ISZERO PUSH2 0x14D9 JUMPI DUP2 PUSH1 0x20 ADD PUSH1 0x1 DUP3 MUL DUP1 CALLDATASIZE DUP4 CALLDATACOPY DUP1 DUP3 ADD SWAP2 POP POP SWAP1 POP JUMPDEST POP SWAP1 POP PUSH0 DUP3 PUSH1 0x20 ADD DUP3 ADD SWAP1 POP JUMPDEST PUSH1 0x1 ISZERO PUSH2 0x153A JUMPI DUP1 DUP1 PUSH1 0x1 SWAP1 SUB SWAP2 POP POP PUSH32 0x3031323334353637383961626364656600000000000000000000000000000000 PUSH1 0xA DUP7 MOD BYTE DUP2 MSTORE8 PUSH1 0xA DUP6 DUP2 PUSH2 0x152F JUMPI PUSH2 0x152E PUSH2 0x2708 JUMP JUMPDEST JUMPDEST DIV SWAP5 POP PUSH0 DUP6 SUB PUSH2 0x14E6 JUMPI JUMPDEST DUP2 SWAP4 POP POP POP POP SWAP2 SWAP1 POP JUMP JUMPDEST PUSH0 PUSH1 0x1 ISZERO ISZERO PUSH1 0xA PUSH0 DUP5 PUSH20 0xFFFFFFFFFFFFFFFFFFFFFFFFFFFFFFFFFFFFFFFF AND PUSH20 0xFFFFFFFFFFFFFFFFFFFFFFFFFFFFFFFFFFFFFFFF AND DUP2 MSTORE PUSH1 0x20 ADD SWAP1 DUP2 MSTORE PUSH1 0x20 ADD PUSH0 KECCAK256 PUSH0 SWAP1 SLOAD SWAP1 PUSH2 0x100 EXP SWAP1 DIV PUSH1 0xFF AND ISZERO ISZERO SUB PUSH2 0x15D8 JUMPI DUP2 PUSH1 0x40 MLOAD PUSH32 0x904E928B00000000000000000000000000000000000000000000000000000000 DUP2 MSTORE PUSH1 0x4 ADD PUSH2 0x15CF SWAP2 SWAP1 PUSH2 0x1A81 JUMP JUMPDEST PUSH1 0x40 MLOAD DUP1 SWAP2 SUB SWAP1 REVERT JUMPDEST PUSH0 SWAP1 POP SWAP2 SWAP1 POP JUMP JUMPDEST PUSH0 DUP1 PUSH20 0xFFFFFFFFFFFFFFFFFFFFFFFFFFFFFFFFFFFFFFFF AND PUSH2 0x1601 DUP4 PUSH2 0x183D JUMP JUMPDEST PUSH20 0xFFFFFFFFFFFFFFFFFFFFFFFFFFFFFFFFFFFFFFFF AND EQ ISZERO SWAP1 POP SWAP2 SWAP1 POP JUMP JUMPDEST PUSH0 CALLER SWAP1 POP SWAP1 JUMP JUMPDEST PUSH0 DUP1 PUSH1 0x9 PUSH0 DUP5 PUSH20 0xFFFFFFFFFFFFFFFFFFFFFFFFFFFFFFFFFFFFFFFF AND PUSH20 0xFFFFFFFFFFFFFFFFFFFFFFFFFFFFFFFFFFFFFFFF AND DUP2 MSTORE PUSH1 0x20 ADD SWAP1 DUP2 MSTORE PUSH1 0x20 ADD PUSH0 KECCAK256 SLOAD EQ ISZERO SWAP1 POP SWAP2 SWAP1 POP JUMP JUMPDEST DUP2 PUSH20 0xFFFFFFFFFFFFFFFFFFFFFFFFFFFFFFFFFFFFFFFF AND PUSH2 0x1690 DUP3 PUSH2 0x183D JUMP JUMPDEST PUSH20 0xFFFFFFFFFFFFFFFFFFFFFFFFFFFFFFFFFFFFFFFF AND EQ PUSH2 0x16E8 JUMPI DUP2 PUSH1 0x40 MLOAD PUSH32 0x5015929900000000000000000000000000000000000000000000000000000000 DUP2 MSTORE PUSH1 0x4 ADD PUSH2 0x16DF SWAP2 SWAP1 PUSH2 0x1A81 JUMP JUMPDEST PUSH1 0x40 MLOAD DUP1 SWAP2 SUB SWAP1 REVERT JUMPDEST POP POP JUMP JUMPDEST PUSH0 DUP1 PUSH0 SWAP1 POP PUSH27 0x184F03E93FF9F4DAA797ED6E38ED64BF6A1F010000000000000000 DUP4 LT PUSH2 0x1748 JUMPI PUSH27 0x184F03E93FF9F4DAA797ED6E38ED64BF6A1F010000000000000000 DUP4 DUP2 PUSH2 0x173E JUMPI PUSH2 0x173D PUSH2 0x2708 JUMP JUMPDEST JUMPDEST DIV SWAP3 POP PUSH1 0x40 DUP2 ADD SWAP1 POP JUMPDEST PUSH14 0x4EE2D6D415B85ACEF8100000000 DUP4 LT PUSH2 0x1785 JUMPI PUSH14 0x4EE2D6D415B85ACEF8100000000 DUP4 DUP2 PUSH2 0x177B JUMPI PUSH2 0x177A PUSH2 0x2708 JUMP JUMPDEST JUMPDEST DIV SWAP3 POP PUSH1 0x20 DUP2 ADD SWAP1 POP JUMPDEST PUSH7 0x2386F26FC10000 DUP4 LT PUSH2 0x17B4 JUMPI PUSH7 0x2386F26FC10000 DUP4 DUP2 PUSH2 0x17AA JUMPI PUSH2 0x17A9 PUSH2 0x2708 JUMP JUMPDEST JUMPDEST DIV SWAP3 POP PUSH1 0x10 DUP2 ADD SWAP1 POP JUMPDEST PUSH4 0x5F5E100 DUP4 LT PUSH2 0x17DD JUMPI PUSH4 0x5F5E100 DUP4 DUP2 PUSH2 0x17D3 JUMPI PUSH2 0x17D2 PUSH2 0x2708 JUMP JUMPDEST JUMPDEST DIV SWAP3 POP PUSH1 0x8 DUP2 ADD SWAP1 POP JUMPDEST PUSH2 0x2710 DUP4 LT PUSH2 0x1802 JUMPI PUSH2 0x2710 DUP4 DUP2 PUSH2 0x17F8 JUMPI PUSH2 0x17F7 PUSH2 0x2708 JUMP JUMPDEST JUMPDEST DIV SWAP3 POP PUSH1 0x4 DUP2 ADD SWAP1 POP JUMPDEST PUSH1 0x64 DUP4 LT PUSH2 0x1825 JUMPI PUSH1 0x64 DUP4 DUP2 PUSH2 0x181B JUMPI PUSH2 0x181A PUSH2 0x2708 JUMP JUMPDEST JUMPDEST DIV SWAP3 POP PUSH1 0x2 DUP2 ADD SWAP1 POP JUMPDEST PUSH1 0xA DUP4 LT PUSH2 0x1834 JUMPI PUSH1 0x1 DUP2 ADD SWAP1 POP JUMPDEST DUP1 SWAP2 POP POP SWAP2 SWAP1 POP JUMP JUMPDEST PUSH0 PUSH1 0x6 PUSH0 DUP4 DUP2 MSTORE PUSH1 0x20 ADD SWAP1 DUP2 MSTORE PUSH1 0x20 ADD PUSH0 KECCAK256 PUSH0 SWAP1 SLOAD SWAP1 PUSH2 0x100 EXP SWAP1 DIV PUSH20 0xFFFFFFFFFFFFFFFFFFFFFFFFFFFFFFFFFFFFFFFF AND SWAP1 POP SWAP2 SWAP1 POP JUMP JUMPDEST PUSH0 PUSH1 0x40 MLOAD SWAP1 POP SWAP1 JUMP JUMPDEST PUSH0 DUP1 REVERT JUMPDEST PUSH0 DUP1 REVERT JUMPDEST PUSH0 PUSH32 0xFFFFFFFF00000000000000000000000000000000000000000000000000000000 DUP3 AND SWAP1 POP SWAP2 SWAP1 POP JUMP JUMPDEST PUSH2 0x18BB DUP2 PUSH2 0x1887 JUMP JUMPDEST DUP2 EQ PUSH2 0x18C5 JUMPI PUSH0 DUP1 REVERT JUMPDEST POP JUMP JUMPDEST PUSH0 DUP2 CALLDATALOAD SWAP1 POP PUSH2 0x18D6 DUP2 PUSH2 0x18B2 JUMP JUMPDEST SWAP3 SWAP2 POP POP JUMP JUMPDEST PUSH0 PUSH1 0x20 DUP3 DUP5 SUB SLT ISZERO PUSH2 0x18F1 JUMPI PUSH2 0x18F0 PUSH2 0x187F JUMP JUMPDEST JUMPDEST PUSH0 PUSH2 0x18FE DUP5 DUP3 DUP6 ADD PUSH2 0x18C8 JUMP JUMPDEST SWAP2 POP POP SWAP3 SWAP2 POP POP JUMP JUMPDEST PUSH0 DUP2 ISZERO ISZERO SWAP1 POP SWAP2 SWAP1 POP JUMP JUMPDEST PUSH2 0x191B DUP2 PUSH2 0x1907 JUMP JUMPDEST DUP3 MSTORE POP POP JUMP JUMPDEST PUSH0 PUSH1 0x20 DUP3 ADD SWAP1 POP PUSH2 0x1934 PUSH0 DUP4 ADD DUP5 PUSH2 0x1912 JUMP JUMPDEST SWAP3 SWAP2 POP POP JUMP JUMPDEST PUSH0 DUP2 MLOAD SWAP1 POP SWAP2 SWAP1 POP JUMP JUMPDEST PUSH0 DUP3 DUP3 MSTORE PUSH1 0x20 DUP3 ADD SWAP1 POP SWAP3 SWAP2 POP POP JUMP JUMPDEST PUSH0 JUMPDEST DUP4 DUP2 LT ISZERO PUSH2 0x1971 JUMPI DUP1 DUP3 ADD MLOAD DUP2 DUP5 ADD MSTORE PUSH1 0x20 DUP2 ADD SWAP1 POP PUSH2 0x1956 JUMP JUMPDEST PUSH0 DUP5 DUP5 ADD MSTORE POP POP POP POP JUMP JUMPDEST PUSH0 PUSH1 0x1F NOT PUSH1 0x1F DUP4 ADD AND SWAP1 POP SWAP2 SWAP1 POP JUMP JUMPDEST PUSH0 PUSH2 0x1996 DUP3 PUSH2 0x193A JUMP JUMPDEST PUSH2 0x19A0 DUP2 DUP6 PUSH2 0x1944 JUMP JUMPDEST SWAP4 POP PUSH2 0x19B0 DUP2 DUP6 PUSH1 0x20 DUP7 ADD PUSH2 0x1954 JUMP JUMPDEST PUSH2 0x19B9 DUP2 PUSH2 0x197C JUMP JUMPDEST DUP5 ADD SWAP2 POP POP SWAP3 SWAP2 POP POP JUMP JUMPDEST PUSH0 PUSH1 0x20 DUP3 ADD SWAP1 POP DUP2 DUP2 SUB PUSH0 DUP4 ADD MSTORE PUSH2 0x19DC DUP2 DUP5 PUSH2 0x198C JUMP JUMPDEST SWAP1 POP SWAP3 SWAP2 POP POP JUMP JUMPDEST PUSH0 DUP2 SWAP1 POP SWAP2 SWAP1 POP JUMP JUMPDEST PUSH2 0x19F6 DUP2 PUSH2 0x19E4 JUMP JUMPDEST DUP2 EQ PUSH2 0x1A00 JUMPI PUSH0 DUP1 REVERT JUMPDEST POP JUMP JUMPDEST PUSH0 DUP2 CALLDATALOAD SWAP1 POP PUSH2 0x1A11 DUP2 PUSH2 0x19ED JUMP JUMPDEST SWAP3 SWAP2 POP POP JUMP JUMPDEST PUSH0 PUSH1 0x20 DUP3 DUP5 SUB SLT ISZERO PUSH2 0x1A2C JUMPI PUSH2 0x1A2B PUSH2 0x187F JUMP JUMPDEST JUMPDEST PUSH0 PUSH2 0x1A39 DUP5 DUP3 DUP6 ADD PUSH2 0x1A03 JUMP JUMPDEST SWAP2 POP POP SWAP3 SWAP2 POP POP JUMP JUMPDEST PUSH0 PUSH20 0xFFFFFFFFFFFFFFFFFFFFFFFFFFFFFFFFFFFFFFFF DUP3 AND SWAP1 POP SWAP2 SWAP1 POP JUMP JUMPDEST PUSH0 PUSH2 0x1A6B DUP3 PUSH2 0x1A42 JUMP JUMPDEST SWAP1 POP SWAP2 SWAP1 POP JUMP JUMPDEST PUSH2 0x1A7B DUP2 PUSH2 0x1A61 JUMP JUMPDEST DUP3 MSTORE POP POP JUMP JUMPDEST PUSH0 PUSH1 0x20 DUP3 ADD SWAP1 POP PUSH2 0x1A94 PUSH0 DUP4 ADD DUP5 PUSH2 0x1A72 JUMP JUMPDEST SWAP3 SWAP2 POP POP JUMP JUMPDEST PUSH2 0x1AA3 DUP2 PUSH2 0x1A61 JUMP JUMPDEST DUP2 EQ PUSH2 0x1AAD JUMPI PUSH0 DUP1 REVERT JUMPDEST POP JUMP JUMPDEST PUSH0 DUP2 CALLDATALOAD SWAP1 POP PUSH2 0x1ABE DUP2 PUSH2 0x1A9A JUMP JUMPDEST SWAP3 SWAP2 POP POP JUMP JUMPDEST PUSH0 DUP1 PUSH1 0x40 DUP4 DUP6 SUB SLT ISZERO PUSH2 0x1ADA JUMPI PUSH2 0x1AD9 PUSH2 0x187F JUMP JUMPDEST JUMPDEST PUSH0 PUSH2 0x1AE7 DUP6 DUP3 DUP7 ADD PUSH2 0x1AB0 JUMP JUMPDEST SWAP3 POP POP PUSH1 0x20 PUSH2 0x1AF8 DUP6 DUP3 DUP7 ADD PUSH2 0x1A03 JUMP JUMPDEST SWAP2 POP POP SWAP3 POP SWAP3 SWAP1 POP JUMP JUMPDEST PUSH2 0x1B0B DUP2 PUSH2 0x19E4 JUMP JUMPDEST DUP3 MSTORE POP POP JUMP JUMPDEST PUSH0 PUSH1 0x20 DUP3 ADD SWAP1 POP PUSH2 0x1B24 PUSH0 DUP4 ADD DUP5 PUSH2 0x1B02 JUMP JUMPDEST SWAP3 SWAP2 POP POP JUMP JUMPDEST PUSH0 PUSH1 0x20 DUP3 DUP5 SUB SLT ISZERO PUSH2 0x1B3F JUMPI PUSH2 0x1B3E PUSH2 0x187F JUMP JUMPDEST JUMPDEST PUSH0 PUSH2 0x1B4C DUP5 DUP3 DUP6 ADD PUSH2 0x1AB0 JUMP JUMPDEST SWAP2 POP POP SWAP3 SWAP2 POP POP JUMP JUMPDEST PUSH0 DUP1 PUSH0 PUSH1 0x60 DUP5 DUP7 SUB SLT ISZERO PUSH2 0x1B6C JUMPI PUSH2 0x1B6B PUSH2 0x187F JUMP JUMPDEST JUMPDEST PUSH0 PUSH2 0x1B79 DUP7 DUP3 DUP8 ADD PUSH2 0x1AB0 JUMP JUMPDEST SWAP4 POP POP PUSH1 0x20 PUSH2 0x1B8A DUP7 DUP3 DUP8 ADD PUSH2 0x1AB0 JUMP JUMPDEST SWAP3 POP POP PUSH1 0x40 PUSH2 0x1B9B DUP7 DUP3 DUP8 ADD PUSH2 0x1A03 JUMP JUMPDEST SWAP2 POP POP SWAP3 POP SWAP3 POP SWAP3 JUMP JUMPDEST PUSH2 0x1BAE DUP2 PUSH2 0x1907 JUMP JUMPDEST DUP2 EQ PUSH2 0x1BB8 JUMPI PUSH0 DUP1 REVERT JUMPDEST POP JUMP JUMPDEST PUSH0 DUP2 CALLDATALOAD SWAP1 POP PUSH2 0x1BC9 DUP2 PUSH2 0x1BA5 JUMP JUMPDEST SWAP3 SWAP2 POP POP JUMP JUMPDEST PUSH0 DUP1 PUSH1 0x40 DUP4 DUP6 SUB SLT ISZERO PUSH2 0x1BE5 JUMPI PUSH2 0x1BE4 PUSH2 0x187F JUMP JUMPDEST JUMPDEST PUSH0 PUSH2 0x1BF2 DUP6 DUP3 DUP7 ADD PUSH2 0x1AB0 JUMP JUMPDEST SWAP3 POP POP PUSH1 0x20 PUSH2 0x1C03 DUP6 DUP3 DUP7 ADD PUSH2 0x1BBB JUMP JUMPDEST SWAP2 POP POP SWAP3 POP SWAP3 SWAP1 POP JUMP JUMPDEST PUSH0 DUP1 REVERT JUMPDEST PUSH0 DUP1 REVERT JUMPDEST PUSH0 DUP1 REVERT JUMPDEST PUSH0 DUP1 DUP4 PUSH1 0x1F DUP5 ADD SLT PUSH2 0x1C2E JUMPI PUSH2 0x1C2D PUSH2 0x1C0D JUMP JUMPDEST JUMPDEST DUP3 CALLDATALOAD SWAP1 POP PUSH8 0xFFFFFFFFFFFFFFFF DUP2 GT ISZERO PUSH2 0x1C4B JUMPI PUSH2 0x1C4A PUSH2 0x1C11 JUMP JUMPDEST JUMPDEST PUSH1 0x20 DUP4 ADD SWAP2 POP DUP4 PUSH1 0x1 DUP3 MUL DUP4 ADD GT ISZERO PUSH2 0x1C67 JUMPI PUSH2 0x1C66 PUSH2 0x1C15 JUMP JUMPDEST JUMPDEST SWAP3 POP SWAP3 SWAP1 POP JUMP JUMPDEST PUSH0 DUP1 PUSH0 DUP1 PUSH0 PUSH1 0x80 DUP7 DUP9 SUB SLT ISZERO PUSH2 0x1C87 JUMPI PUSH2 0x1C86 PUSH2 0x187F JUMP JUMPDEST JUMPDEST PUSH0 PUSH2 0x1C94 DUP9 DUP3 DUP10 ADD PUSH2 0x1AB0 JUMP JUMPDEST SWAP6 POP POP PUSH1 0x20 PUSH2 0x1CA5 DUP9 DUP3 DUP10 ADD PUSH2 0x1AB0 JUMP JUMPDEST SWAP5 POP POP PUSH1 0x40 PUSH2 0x1CB6 DUP9 DUP3 DUP10 ADD PUSH2 0x1A03 JUMP JUMPDEST SWAP4 POP POP PUSH1 0x60 DUP7 ADD CALLDATALOAD PUSH8 0xFFFFFFFFFFFFFFFF DUP2 GT ISZERO PUSH2 0x1CD7 JUMPI PUSH2 0x1CD6 PUSH2 0x1883 JUMP JUMPDEST JUMPDEST PUSH2 0x1CE3 DUP9 DUP3 DUP10 ADD PUSH2 0x1C19 JUMP JUMPDEST SWAP3 POP SWAP3 POP POP SWAP3 SWAP6 POP SWAP3 SWAP6 SWAP1 SWAP4 POP JUMP JUMPDEST PUSH0 DUP1 REVERT JUMPDEST PUSH32 0x4E487B7100000000000000000000000000000000000000000000000000000000 PUSH0 MSTORE PUSH1 0x41 PUSH1 0x4 MSTORE PUSH1 0x24 PUSH0 REVERT JUMPDEST PUSH2 0x1D2C DUP3 PUSH2 0x197C JUMP JUMPDEST DUP2 ADD DUP2 DUP2 LT PUSH8 0xFFFFFFFFFFFFFFFF DUP3 GT OR ISZERO PUSH2 0x1D4B JUMPI PUSH2 0x1D4A PUSH2 0x1CF6 JUMP JUMPDEST JUMPDEST DUP1 PUSH1 0x40 MSTORE POP POP POP JUMP JUMPDEST PUSH0 PUSH2 0x1D5D PUSH2 0x1876 JUMP JUMPDEST SWAP1 POP PUSH2 0x1D69 DUP3 DUP3 PUSH2 0x1D23 JUMP JUMPDEST SWAP2 SWAP1 POP JUMP JUMPDEST PUSH0 PUSH8 0xFFFFFFFFFFFFFFFF DUP3 GT ISZERO PUSH2 0x1D88 JUMPI PUSH2 0x1D87 PUSH2 0x1CF6 JUMP JUMPDEST JUMPDEST PUSH2 0x1D91 DUP3 PUSH2 0x197C JUMP JUMPDEST SWAP1 POP PUSH1 0x20 DUP2 ADD SWAP1 POP SWAP2 SWAP1 POP JUMP JUMPDEST DUP3 DUP2 DUP4 CALLDATACOPY PUSH0 DUP4 DUP4 ADD MSTORE POP POP POP JUMP JUMPDEST PUSH0 PUSH2 0x1DBE PUSH2 0x1DB9 DUP5 PUSH2 0x1D6E JUMP JUMPDEST PUSH2 0x1D54 JUMP JUMPDEST SWAP1 POP DUP3 DUP2 MSTORE PUSH1 0x20 DUP2 ADD DUP5 DUP5 DUP5 ADD GT ISZERO PUSH2 0x1DDA JUMPI PUSH2 0x1DD9 PUSH2 0x1CF2 JUMP JUMPDEST JUMPDEST PUSH2 0x1DE5 DUP5 DUP3 DUP6 PUSH2 0x1D9E JUMP JUMPDEST POP SWAP4 SWAP3 POP POP POP JUMP JUMPDEST PUSH0 DUP3 PUSH1 0x1F DUP4 ADD SLT PUSH2 0x1E01 JUMPI PUSH2 0x1E00 PUSH2 0x1C0D JUMP JUMPDEST JUMPDEST DUP2 CALLDATALOAD PUSH2 0x1E11 DUP5 DUP3 PUSH1 0x20 DUP7 ADD PUSH2 0x1DAC JUMP JUMPDEST SWAP2 POP POP SWAP3 SWAP2 POP POP JUMP JUMPDEST PUSH0 PUSH1 0x20 DUP3 DUP5 SUB SLT ISZERO PUSH2 0x1E2F JUMPI PUSH2 0x1E2E PUSH2 0x187F JUMP JUMPDEST JUMPDEST PUSH0 DUP3 ADD CALLDATALOAD PUSH8 0xFFFFFFFFFFFFFFFF DUP2 GT ISZERO PUSH2 0x1E4C JUMPI PUSH2 0x1E4B PUSH2 0x1883 JUMP JUMPDEST JUMPDEST PUSH2 0x1E58 DUP5 DUP3 DUP6 ADD PUSH2 0x1DED JUMP JUMPDEST SWAP2 POP POP SWAP3 SWAP2 POP POP JUMP JUMPDEST PUSH0 DUP1 PUSH1 0x40 DUP4 DUP6 SUB SLT ISZERO PUSH2 0x1E77 JUMPI PUSH2 0x1E76 PUSH2 0x187F JUMP JUMPDEST JUMPDEST PUSH0 PUSH2 0x1E84 DUP6 DUP3 DUP7 ADD PUSH2 0x1AB0 JUMP JUMPDEST SWAP3 POP POP PUSH1 0x20 PUSH2 0x1E95 DUP6 DUP3 DUP7 ADD PUSH2 0x1AB0 JUMP JUMPDEST SWAP2 POP POP SWAP3 POP SWAP3 SWAP1 POP JUMP JUMPDEST PUSH32 0x4E487B7100000000000000000000000000000000000000000000000000000000 PUSH0 MSTORE PUSH1 0x22 PUSH1 0x4 MSTORE PUSH1 0x24 PUSH0 REVERT JUMPDEST PUSH0 PUSH1 0x2 DUP3 DIV SWAP1 POP PUSH1 0x1 DUP3 AND DUP1 PUSH2 0x1EE3 JUMPI PUSH1 0x7F DUP3 AND SWAP2 POP JUMPDEST PUSH1 0x20 DUP3 LT DUP2 SUB PUSH2 0x1EF6 JUMPI PUSH2 0x1EF5 PUSH2 0x1E9F JUMP JUMPDEST JUMPDEST POP SWAP2 SWAP1 POP JUMP JUMPDEST PUSH32 0x676574417070726F766564000000000000000000000000000000000000000000 PUSH0 DUP3 ADD MSTORE POP JUMP JUMPDEST PUSH0 PUSH2 0x1F30 PUSH1 0xB DUP4 PUSH2 0x1944 JUMP JUMPDEST SWAP2 POP PUSH2 0x1F3B DUP3 PUSH2 0x1EFC JUMP JUMPDEST PUSH1 0x20 DUP3 ADD SWAP1 POP SWAP2 SWAP1 POP JUMP JUMPDEST PUSH0 PUSH1 0x20 DUP3 ADD SWAP1 POP DUP2 DUP2 SUB PUSH0 DUP4 ADD MSTORE PUSH2 0x1F5D DUP2 PUSH2 0x1F24 JUMP JUMPDEST SWAP1 POP SWAP2 SWAP1 POP JUMP JUMPDEST PUSH32 0x617070726F766500000000000000000000000000000000000000000000000000 PUSH0 DUP3 ADD MSTORE POP JUMP JUMPDEST PUSH0 PUSH2 0x1F98 PUSH1 0x7 DUP4 PUSH2 0x1944 JUMP JUMPDEST SWAP2 POP PUSH2 0x1FA3 DUP3 PUSH2 0x1F64 JUMP JUMPDEST PUSH1 0x20 DUP3 ADD SWAP1 POP SWAP2 SWAP1 POP JUMP JUMPDEST PUSH0 PUSH1 0x20 DUP3 ADD SWAP1 POP DUP2 DUP2 SUB PUSH0 DUP4 ADD MSTORE PUSH2 0x1FC5 DUP2 PUSH2 0x1F8C JUMP JUMPDEST SWAP1 POP SWAP2 SWAP1 POP JUMP JUMPDEST PUSH32 0x7472616E7366657246726F6D0000000000000000000000000000000000000000 PUSH0 DUP3 ADD MSTORE POP JUMP JUMPDEST PUSH0 PUSH2 0x2000 PUSH1 0xC DUP4 PUSH2 0x1944 JUMP JUMPDEST SWAP2 POP PUSH2 0x200B DUP3 PUSH2 0x1FCC JUMP JUMPDEST PUSH1 0x20 DUP3 ADD SWAP1 POP SWAP2 SWAP1 POP JUMP JUMPDEST PUSH0 PUSH1 0x20 DUP3 ADD SWAP1 POP DUP2 DUP2 SUB PUSH0 DUP4 ADD MSTORE PUSH2 0x202D DUP2 PUSH2 0x1FF4 JUMP JUMPDEST SWAP1 POP SWAP2 SWAP1 POP JUMP JUMPDEST PUSH32 0x4F7574206F6620496E6465780000000000000000000000000000000000000000 PUSH0 DUP3 ADD MSTORE POP JUMP JUMPDEST PUSH0 PUSH2 0x2068 PUSH1 0xC DUP4 PUSH2 0x1944 JUMP JUMPDEST SWAP2 POP PUSH2 0x2073 DUP3 PUSH2 0x2034 JUMP JUMPDEST PUSH1 0x20 DUP3 ADD SWAP1 POP SWAP2 SWAP1 POP JUMP JUMPDEST PUSH0 PUSH1 0x20 DUP3 ADD SWAP1 POP DUP2 DUP2 SUB PUSH0 DUP4 ADD MSTORE PUSH2 0x2095 DUP2 PUSH2 0x205C JUMP JUMPDEST SWAP1 POP SWAP2 SWAP1 POP JUMP JUMPDEST PUSH32 0x736166655472616E7366657246726F6D00000000000000000000000000000000 PUSH0 DUP3 ADD MSTORE POP JUMP JUMPDEST PUSH0 PUSH2 0x20D0 PUSH1 0x10 DUP4 PUSH2 0x1944 JUMP JUMPDEST SWAP2 POP PUSH2 0x20DB DUP3 PUSH2 0x209C JUMP JUMPDEST PUSH1 0x20 DUP3 ADD SWAP1 POP SWAP2 SWAP1 POP JUMP JUMPDEST PUSH0 PUSH1 0x20 DUP3 ADD SWAP1 POP DUP2 DUP2 SUB PUSH0 DUP4 ADD MSTORE PUSH2 0x20FD DUP2 PUSH2 0x20C4 JUMP JUMPDEST SWAP1 POP SWAP2 SWAP1 POP JUMP JUMPDEST PUSH32 0x736574417070726F76616C466F72416C6C000000000000000000000000000000 PUSH0 DUP3 ADD MSTORE POP JUMP JUMPDEST PUSH0 PUSH2 0x2138 PUSH1 0x11 DUP4 PUSH2 0x1944 JUMP JUMPDEST SWAP2 POP PUSH2 0x2143 DUP3 PUSH2 0x2104 JUMP JUMPDEST PUSH1 0x20 DUP3 ADD SWAP1 POP SWAP2 SWAP1 POP JUMP JUMPDEST PUSH0 PUSH1 0x20 DUP3 ADD SWAP1 POP DUP2 DUP2 SUB PUSH0 DUP4 ADD MSTORE PUSH2 0x2165 DUP2 PUSH2 0x212C JUMP JUMPDEST SWAP1 POP SWAP2 SWAP1 POP JUMP JUMPDEST PUSH0 DUP2 SWAP1 POP SWAP3 SWAP2 POP POP JUMP JUMPDEST PUSH0 DUP2 SWAP1 POP DUP2 PUSH0 MSTORE PUSH1 0x20 PUSH0 KECCAK256 SWAP1 POP SWAP2 SWAP1 POP JUMP JUMPDEST PUSH0 DUP2 SLOAD PUSH2 0x2194 DUP2 PUSH2 0x1ECC JUMP JUMPDEST PUSH2 0x219E DUP2 DUP7 PUSH2 0x216C JUMP JUMPDEST SWAP5 POP PUSH1 0x1 DUP3 AND PUSH0 DUP2 EQ PUSH2 0x21B8 JUMPI PUSH1 0x1 DUP2 EQ PUSH2 0x21CD JUMPI PUSH2 0x21FF JUMP JUMPDEST PUSH1 0xFF NOT DUP4 AND DUP7 MSTORE DUP2 ISZERO ISZERO DUP3 MUL DUP7 ADD SWAP4 POP PUSH2 0x21FF JUMP JUMPDEST PUSH2 0x21D6 DUP6 PUSH2 0x2176 JUMP JUMPDEST PUSH0 JUMPDEST DUP4 DUP2 LT ISZERO PUSH2 0x21F7 JUMPI DUP2 SLOAD DUP2 DUP10 ADD MSTORE PUSH1 0x1 DUP3 ADD SWAP2 POP PUSH1 0x20 DUP2 ADD SWAP1 POP PUSH2 0x21D8 JUMP JUMPDEST DUP4 DUP9 ADD SWAP6 POP POP POP JUMPDEST POP POP POP SWAP3 SWAP2 POP POP JUMP JUMPDEST PUSH0 PUSH2 0x2212 DUP3 PUSH2 0x193A JUMP JUMPDEST PUSH2 0x221C DUP2 DUP6 PUSH2 0x216C JUMP JUMPDEST SWAP4 POP PUSH2 0x222C DUP2 DUP6 PUSH1 0x20 DUP7 ADD PUSH2 0x1954 JUMP JUMPDEST DUP1 DUP5 ADD SWAP2 POP POP SWAP3 SWAP2 POP POP JUMP JUMPDEST PUSH32 0x3F746F6B656E547970653D000000000000000000000000000000000000000000 PUSH0 DUP3 ADD MSTORE POP JUMP JUMPDEST PUSH0 PUSH2 0x226C PUSH1 0xB DUP4 PUSH2 0x216C JUMP JUMPDEST SWAP2 POP PUSH2 0x2277 DUP3 PUSH2 0x2238 JUMP JUMPDEST PUSH1 0xB DUP3 ADD SWAP1 POP SWAP2 SWAP1 POP JUMP JUMPDEST PUSH0 PUSH2 0x228D DUP3 DUP7 PUSH2 0x2188 JUMP JUMPDEST SWAP2 POP PUSH2 0x2299 DUP3 DUP6 PUSH2 0x2208 JUMP JUMPDEST SWAP2 POP PUSH2 0x22A4 DUP3 PUSH2 0x2260 JUMP JUMPDEST SWAP2 POP PUSH2 0x22B0 DUP3 DUP5 PUSH2 0x2208 JUMP JUMPDEST SWAP2 POP DUP2 SWAP1 POP SWAP5 SWAP4 POP POP POP POP JUMP JUMPDEST PUSH0 PUSH1 0x20 PUSH1 0x1F DUP4 ADD DIV SWAP1 POP SWAP2 SWAP1 POP JUMP JUMPDEST PUSH0 DUP3 DUP3 SHL SWAP1 POP SWAP3 SWAP2 POP POP JUMP JUMPDEST PUSH0 PUSH1 0x8 DUP4 MUL PUSH2 0x2307 PUSH32 0xFFFFFFFFFFFFFFFFFFFFFFFFFFFFFFFFFFFFFFFFFFFFFFFFFFFFFFFFFFFFFFFF DUP3 PUSH2 0x22CC JUMP JUMPDEST PUSH2 0x2311 DUP7 DUP4 PUSH2 0x22CC JUMP JUMPDEST SWAP6 POP DUP1 NOT DUP5 AND SWAP4 POP DUP1 DUP7 AND DUP5 OR SWAP3 POP POP POP SWAP4 SWAP3 POP POP POP JUMP JUMPDEST PUSH0 DUP2 SWAP1 POP SWAP2 SWAP1 POP JUMP JUMPDEST PUSH0 PUSH2 0x234C PUSH2 0x2347 PUSH2 0x2342 DUP5 PUSH2 0x19E4 JUMP JUMPDEST PUSH2 0x2329 JUMP JUMPDEST PUSH2 0x19E4 JUMP JUMPDEST SWAP1 POP SWAP2 SWAP1 POP JUMP JUMPDEST PUSH0 DUP2 SWAP1 POP SWAP2 SWAP1 POP JUMP JUMPDEST PUSH2 0x2365 DUP4 PUSH2 0x2332 JUMP JUMPDEST PUSH2 0x2379 PUSH2 0x2371 DUP3 PUSH2 0x2353 JUMP JUMPDEST DUP5 DUP5 SLOAD PUSH2 0x22D8 JUMP JUMPDEST DUP3 SSTORE POP POP POP POP JUMP JUMPDEST PUSH0 SWAP1 JUMP JUMPDEST PUSH2 0x238D PUSH2 0x2381 JUMP JUMPDEST PUSH2 0x2398 DUP2 DUP5 DUP5 PUSH2 0x235C JUMP JUMPDEST POP POP POP JUMP JUMPDEST JUMPDEST DUP2 DUP2 LT ISZERO PUSH2 0x23BB JUMPI PUSH2 0x23B0 PUSH0 DUP3 PUSH2 0x2385 JUMP JUMPDEST PUSH1 0x1 DUP2 ADD SWAP1 POP PUSH2 0x239E JUMP JUMPDEST POP POP JUMP JUMPDEST PUSH1 0x1F DUP3 GT ISZERO PUSH2 0x2400 JUMPI PUSH2 0x23D1 DUP2 PUSH2 0x2176 JUMP JUMPDEST PUSH2 0x23DA DUP5 PUSH2 0x22BD JUMP JUMPDEST DUP2 ADD PUSH1 0x20 DUP6 LT ISZERO PUSH2 0x23E9 JUMPI DUP2 SWAP1 POP JUMPDEST PUSH2 0x23FD PUSH2 0x23F5 DUP6 PUSH2 0x22BD JUMP JUMPDEST DUP4 ADD DUP3 PUSH2 0x239D JUMP JUMPDEST POP POP JUMPDEST POP POP POP JUMP JUMPDEST PUSH0 DUP3 DUP3 SHR SWAP1 POP SWAP3 SWAP2 POP POP JUMP JUMPDEST PUSH0 PUSH2 0x2420 PUSH0 NOT DUP5 PUSH1 0x8 MUL PUSH2 0x2405 JUMP JUMPDEST NOT DUP1 DUP4 AND SWAP2 POP POP SWAP3 SWAP2 POP POP JUMP JUMPDEST PUSH0 PUSH2 0x2438 DUP4 DUP4 PUSH2 0x2411 JUMP JUMPDEST SWAP2 POP DUP3 PUSH1 0x2 MUL DUP3 OR SWAP1 POP SWAP3 SWAP2 POP POP JUMP JUMPDEST PUSH2 0x2451 DUP3 PUSH2 0x193A JUMP JUMPDEST PUSH8 0xFFFFFFFFFFFFFFFF DUP2 GT ISZERO PUSH2 0x246A JUMPI PUSH2 0x2469 PUSH2 0x1CF6 JUMP JUMPDEST JUMPDEST PUSH2 0x2474 DUP3 SLOAD PUSH2 0x1ECC JUMP JUMPDEST PUSH2 0x247F DUP3 DUP3 DUP6 PUSH2 0x23BF JUMP JUMPDEST PUSH0 PUSH1 0x20 SWAP1 POP PUSH1 0x1F DUP4 GT PUSH1 0x1 DUP2 EQ PUSH2 0x24B0 JUMPI PUSH0 DUP5 ISZERO PUSH2 0x249E JUMPI DUP3 DUP8 ADD MLOAD SWAP1 POP JUMPDEST PUSH2 0x24A8 DUP6 DUP3 PUSH2 0x242D JUMP JUMPDEST DUP7 SSTORE POP PUSH2 0x250F JUMP JUMPDEST PUSH1 0x1F NOT DUP5 AND PUSH2 0x24BE DUP7 PUSH2 0x2176 JUMP JUMPDEST PUSH0 JUMPDEST DUP3 DUP2 LT ISZERO PUSH2 0x24E5 JUMPI DUP5 DUP10 ADD MLOAD DUP3 SSTORE PUSH1 0x1 DUP3 ADD SWAP2 POP PUSH1 0x20 DUP6 ADD SWAP5 POP PUSH1 0x20 DUP2 ADD SWAP1 POP PUSH2 0x24C0 JUMP JUMPDEST DUP7 DUP4 LT ISZERO PUSH2 0x2502 JUMPI DUP5 DUP10 ADD MLOAD PUSH2 0x24FE PUSH1 0x1F DUP10 AND DUP3 PUSH2 0x2411 JUMP JUMPDEST DUP4 SSTORE POP JUMPDEST PUSH1 0x1 PUSH1 0x2 DUP9 MUL ADD DUP9 SSTORE POP POP POP JUMPDEST POP POP POP POP POP POP JUMP JUMPDEST PUSH32 0x6973417070726F766564466F72416C6C00000000000000000000000000000000 PUSH0 DUP3 ADD MSTORE POP JUMP JUMPDEST PUSH0 PUSH2 0x254B PUSH1 0x10 DUP4 PUSH2 0x1944 JUMP JUMPDEST SWAP2 POP PUSH2 0x2556 DUP3 PUSH2 0x2517 JUMP JUMPDEST PUSH1 0x20 DUP3 ADD SWAP1 POP SWAP2 SWAP1 POP JUMP JUMPDEST PUSH0 PUSH1 0x20 DUP3 ADD SWAP1 POP DUP2 DUP2 SUB PUSH0 DUP4 ADD MSTORE PUSH2 0x2578 DUP2 PUSH2 0x253F JUMP JUMPDEST SWAP1 POP SWAP2 SWAP1 POP JUMP JUMPDEST PUSH32 0x4F776E61626C653A206E6577206F776E657220697320746865207A65726F2061 PUSH0 DUP3 ADD MSTORE PUSH32 0x6464726573730000000000000000000000000000000000000000000000000000 PUSH1 0x20 DUP3 ADD MSTORE POP JUMP JUMPDEST PUSH0 PUSH2 0x25D9 PUSH1 0x26 DUP4 PUSH2 0x1944 JUMP JUMPDEST SWAP2 POP PUSH2 0x25E4 DUP3 PUSH2 0x257F JUMP JUMPDEST PUSH1 0x40 DUP3 ADD SWAP1 POP SWAP2 SWAP1 POP JUMP JUMPDEST PUSH0 PUSH1 0x20 DUP3 ADD SWAP1 POP DUP2 DUP2 SUB PUSH0 DUP4 ADD MSTORE PUSH2 0x2606 DUP2 PUSH2 0x25CD JUMP JUMPDEST SWAP1 POP SWAP2 SWAP1 POP JUMP JUMPDEST PUSH32 0x4F776E61626C653A2063616C6C6572206973206E6F7420746865206F776E6572 PUSH0 DUP3 ADD MSTORE POP JUMP JUMPDEST PUSH0 PUSH2 0x2641 PUSH1 0x20 DUP4 PUSH2 0x1944 JUMP JUMPDEST SWAP2 POP PUSH2 0x264C DUP3 PUSH2 0x260D JUMP JUMPDEST PUSH1 0x20 DUP3 ADD SWAP1 POP SWAP2 SWAP1 POP JUMP JUMPDEST PUSH0 PUSH1 0x20 DUP3 ADD SWAP1 POP DUP2 DUP2 SUB PUSH0 DUP4 ADD MSTORE PUSH2 0x266E DUP2 PUSH2 0x2635 JUMP JUMPDEST SWAP1 POP SWAP2 SWAP1 POP JUMP JUMPDEST PUSH32 0x4E487B7100000000000000000000000000000000000000000000000000000000 PUSH0 MSTORE PUSH1 0x11 PUSH1 0x4 MSTORE PUSH1 0x24 PUSH0 REVERT JUMPDEST PUSH0 PUSH2 0x26AC DUP3 PUSH2 0x19E4 JUMP JUMPDEST SWAP2 POP PUSH2 0x26B7 DUP4 PUSH2 0x19E4 JUMP JUMPDEST SWAP3 POP DUP3 DUP3 ADD SWAP1 POP DUP1 DUP3 GT ISZERO PUSH2 0x26CF JUMPI PUSH2 0x26CE PUSH2 0x2675 JUMP JUMPDEST JUMPDEST SWAP3 SWAP2 POP POP JUMP JUMPDEST PUSH0 PUSH2 0x26DF DUP3 PUSH2 0x19E4 JUMP JUMPDEST SWAP2 POP PUSH2 0x26EA DUP4 PUSH2 0x19E4 JUMP JUMPDEST SWAP3 POP DUP3 DUP3 SUB SWAP1 POP DUP2 DUP2 GT ISZERO PUSH2 0x2702 JUMPI PUSH2 0x2701 PUSH2 0x2675 JUMP JUMPDEST JUMPDEST SWAP3 SWAP2 POP POP JUMP JUMPDEST PUSH32 0x4E487B7100000000000000000000000000000000000000000000000000000000 PUSH0 MSTORE PUSH1 0x12 PUSH1 0x4 MSTORE PUSH1 0x24 PUSH0 REVERT INVALID LOG2 PUSH5 0x6970667358 0x22 SLT KECCAK256 GT SDIV 0xB8 0xD9 SDIV EQ SWAP9 0xE5 0xCA 0xED 0xC1 JUMP 0x29 EQ 0xCC 0xAC 0xED PREVRANDAO SWAP9 0xF CALLVALUE 0xE 0xAA 0x2D MSIZE MSTORE 0xBB DIV 0xD2 PUSH10 0x632A64736F6C63430008 ISZERO STOP CALLER "
				},
				"gasEstimates": {
					"creation": {
						"codeDepositCost": "2018200",
						"executionCost": "infinite",
						"totalCost": "infinite"
					},
					"external": {
						"approve(address,uint256)": "991",
						"balanceOf(address)": "2982",
						"getApproved(uint256)": "754",
						"getGrowth(uint256)": "infinite",
						"getProtected(address)": "3046",
						"getTokenType(uint256)": "infinite",
						"growUp(address,uint256)": "infinite",
						"isApprovedForAll(address,address)": "infinite",
						"isProtected(address)": "infinite",
						"mint(address,uint256)": "infinite",
						"name()": "infinite",
						"owner()": "2560",
						"ownerOf(uint256)": "2941",
						"renounceOwnership()": "30436",
						"safeTransferFrom(address,address,uint256)": "infinite",
						"safeTransferFrom(address,address,uint256,bytes)": "infinite",
						"setApprovalForAll(address,bool)": "996",
						"setProtected(address,bool)": "infinite",
						"setTokenURI(string)": "infinite",
						"supportsInterface(bytes4)": "741",
						"symbol()": "infinite",
						"tokenOfOwnerByIndex(address,uint256)": "infinite",
						"tokenURI(uint256)": "infinite",
						"totalSupply()": "2544",
						"totalUser()": "2498",
						"transferFrom(address,address,uint256)": "infinite",
						"transferOwnership(address)": "30841"
					},
					"internal": {
						"_balanceOf(address)": "2221",
						"_exists(uint256)": "2307",
						"_existsOwner(address)": "2230",
						"_getProtected(address)": "2256",
						"_growUp(address,uint256)": "infinite",
						"_isProtected(address)": "infinite",
						"_isProtectedTokenId(uint256)": "infinite",
						"_ownerOf(uint256)": "2244",
						"_requireMinted(uint256)": "infinite",
						"_requireMintedOf(address,uint256)": "infinite",
						"_safeMint(address,uint256)": "infinite"
					}
				},
				"methodIdentifiers": {
					"approve(address,uint256)": "095ea7b3",
					"balanceOf(address)": "70a08231",
					"getApproved(uint256)": "081812fc",
					"getGrowth(uint256)": "51c18e0c",
					"getProtected(address)": "1f8eb677",
					"getTokenType(uint256)": "76aed2e1",
					"growUp(address,uint256)": "be37e907",
					"isApprovedForAll(address,address)": "e985e9c5",
					"isProtected(address)": "ce35de95",
					"mint(address,uint256)": "40c10f19",
					"name()": "06fdde03",
					"owner()": "8da5cb5b",
					"ownerOf(uint256)": "6352211e",
					"renounceOwnership()": "715018a6",
					"safeTransferFrom(address,address,uint256)": "42842e0e",
					"safeTransferFrom(address,address,uint256,bytes)": "b88d4fde",
					"setApprovalForAll(address,bool)": "a22cb465",
					"setProtected(address,bool)": "8a7f997c",
					"setTokenURI(string)": "e0df5b6f",
					"supportsInterface(bytes4)": "01ffc9a7",
					"symbol()": "95d89b41",
					"tokenOfOwnerByIndex(address,uint256)": "2f745c59",
					"tokenURI(uint256)": "c87b56dd",
					"totalSupply()": "18160ddd",
					"totalUser()": "e1604b70",
					"transferFrom(address,address,uint256)": "23b872dd",
					"transferOwnership(address)": "f2fde38b"
				}
			},
			"storageLayout": {
				"storage": [
					{
						"astId": 7,
						"contract": "v2/contracts/SoulSocietySBT.sol:SoulSocietySBT",
						"label": "_owner",
						"offset": 0,
						"slot": "0",
						"type": "t_address"
					},
					{
						"astId": 1517,
						"contract": "v2/contracts/SoulSocietySBT.sol:SoulSocietySBT",
						"label": "_name",
						"offset": 0,
						"slot": "1",
						"type": "t_string_storage"
					},
					{
						"astId": 1519,
						"contract": "v2/contracts/SoulSocietySBT.sol:SoulSocietySBT",
						"label": "_symbol",
						"offset": 0,
						"slot": "2",
						"type": "t_string_storage"
					},
					{
						"astId": 1521,
						"contract": "v2/contracts/SoulSocietySBT.sol:SoulSocietySBT",
						"label": "_uri",
						"offset": 0,
						"slot": "3",
						"type": "t_string_storage"
					},
					{
						"astId": 1524,
						"contract": "v2/contracts/SoulSocietySBT.sol:SoulSocietySBT",
						"label": "_totalUser",
						"offset": 0,
						"slot": "4",
						"type": "t_uint256"
					},
					{
						"astId": 1527,
						"contract": "v2/contracts/SoulSocietySBT.sol:SoulSocietySBT",
						"label": "_totalCount",
						"offset": 0,
						"slot": "5",
						"type": "t_uint256"
					},
					{
						"astId": 1531,
						"contract": "v2/contracts/SoulSocietySBT.sol:SoulSocietySBT",
						"label": "_owners",
						"offset": 0,
						"slot": "6",
						"type": "t_mapping(t_uint256,t_address)"
					},
					{
						"astId": 1535,
						"contract": "v2/contracts/SoulSocietySBT.sol:SoulSocietySBT",
						"label": "_tokenTypes",
						"offset": 0,
						"slot": "7",
						"type": "t_mapping(t_uint256,t_uint256)"
					},
					{
						"astId": 1539,
						"contract": "v2/contracts/SoulSocietySBT.sol:SoulSocietySBT",
						"label": "_tokenGrowths",
						"offset": 0,
						"slot": "8",
						"type": "t_mapping(t_uint256,t_uint256)"
					},
					{
						"astId": 1543,
						"contract": "v2/contracts/SoulSocietySBT.sol:SoulSocietySBT",
						"label": "_balances",
						"offset": 0,
						"slot": "9",
						"type": "t_mapping(t_address,t_uint256)"
					},
					{
						"astId": 1547,
						"contract": "v2/contracts/SoulSocietySBT.sol:SoulSocietySBT",
						"label": "_userProtects",
						"offset": 0,
						"slot": "10",
						"type": "t_mapping(t_address,t_bool)"
					},
					{
						"astId": 1553,
						"contract": "v2/contracts/SoulSocietySBT.sol:SoulSocietySBT",
						"label": "_ownedTokens",
						"offset": 0,
						"slot": "11",
						"type": "t_mapping(t_address,t_mapping(t_uint256,t_uint256))"
					},
					{
						"astId": 1559,
						"contract": "v2/contracts/SoulSocietySBT.sol:SoulSocietySBT",
						"label": "_ownedTokenTypes",
						"offset": 0,
						"slot": "12",
						"type": "t_mapping(t_address,t_mapping(t_uint256,t_uint256))"
					}
				],
				"types": {
					"t_address": {
						"encoding": "inplace",
						"label": "address",
						"numberOfBytes": "20"
					},
					"t_bool": {
						"encoding": "inplace",
						"label": "bool",
						"numberOfBytes": "1"
					},
					"t_mapping(t_address,t_bool)": {
						"encoding": "mapping",
						"key": "t_address",
						"label": "mapping(address => bool)",
						"numberOfBytes": "32",
						"value": "t_bool"
					},
					"t_mapping(t_address,t_mapping(t_uint256,t_uint256))": {
						"encoding": "mapping",
						"key": "t_address",
						"label": "mapping(address => mapping(uint256 => uint256))",
						"numberOfBytes": "32",
						"value": "t_mapping(t_uint256,t_uint256)"
					},
					"t_mapping(t_address,t_uint256)": {
						"encoding": "mapping",
						"key": "t_address",
						"label": "mapping(address => uint256)",
						"numberOfBytes": "32",
						"value": "t_uint256"
					},
					"t_mapping(t_uint256,t_address)": {
						"encoding": "mapping",
						"key": "t_uint256",
						"label": "mapping(uint256 => address)",
						"numberOfBytes": "32",
						"value": "t_address"
					},
					"t_mapping(t_uint256,t_uint256)": {
						"encoding": "mapping",
						"key": "t_uint256",
						"label": "mapping(uint256 => uint256)",
						"numberOfBytes": "32",
						"value": "t_uint256"
					},
					"t_string_storage": {
						"encoding": "bytes",
						"label": "string",
						"numberOfBytes": "32"
					},
					"t_uint256": {
						"encoding": "inplace",
						"label": "uint256",
						"numberOfBytes": "32"
					}
				}
			},
			"userdoc": {
				"kind": "user",
				"methods": {
					"safeTransferFrom(address,address,uint256,bytes)": {
						"notice": "Does not provide a transfer feature."
					}
				},
				"notice": "As an implementation of ISoulSocietyLightweightEnumableSTB, only the owner can modify growth.",
				"version": 1
			}
		}
	}
}