{
	"v2/contracts/SoulSocietySBT.sol": {
		"SoulSocietySBT": {
			"abi": [
				{
					"inputs": [
						{
							"internalType": "string",
							"name": "uri_",
							"type": "string"
						}
					],
					"stateMutability": "nonpayable",
					"type": "constructor"
				},
				{
					"inputs": [
						{
							"internalType": "uint256",
							"name": "tokenId",
							"type": "uint256"
						}
					],
					"name": "SoulSocietySBTExistToken",
					"type": "error"
				},
				{
					"inputs": [
						{
							"internalType": "address",
							"name": "sender",
							"type": "address"
						},
						{
							"internalType": "uint256",
							"name": "tokenId",
							"type": "uint256"
						},
						{
							"internalType": "address",
							"name": "owner",
							"type": "address"
						}
					],
					"name": "SoulSocietySBTIncorrectOwner",
					"type": "error"
				},
				{
					"inputs": [
						{
							"internalType": "address",
							"name": "to",
							"type": "address"
						}
					],
					"name": "SoulSocietySBTInvalidOwner",
					"type": "error"
				},
				{
					"inputs": [
						{
							"internalType": "address",
							"name": "receiver",
							"type": "address"
						}
					],
					"name": "SoulSocietySBTInvalidReceiver",
					"type": "error"
				},
				{
					"inputs": [
						{
							"internalType": "address",
							"name": "sender",
							"type": "address"
						}
					],
					"name": "SoulSocietySBTInvalidSender",
					"type": "error"
				},
				{
					"inputs": [
						{
							"internalType": "uint256",
							"name": "tokenId",
							"type": "uint256"
						}
					],
					"name": "SoulSocietySBTNonexistentToken",
					"type": "error"
				},
				{
					"inputs": [
						{
							"internalType": "address",
							"name": "owner",
							"type": "address"
						},
						{
							"internalType": "address",
							"name": "to",
							"type": "address"
						}
					],
					"name": "SoulSocietySBTNotOwner",
					"type": "error"
				},
				{
					"inputs": [
						{
							"internalType": "string",
							"name": "message",
							"type": "string"
						}
					],
					"name": "SoulSocietySBTNotSupported",
					"type": "error"
				},
				{
					"inputs": [
						{
							"internalType": "address",
							"name": "owner",
							"type": "address"
						}
					],
					"name": "SoulSocietySBTProtectedOwner",
					"type": "error"
				},
				{
					"anonymous": false,
					"inputs": [
						{
							"indexed": true,
							"internalType": "address",
							"name": "owner",
							"type": "address"
						},
						{
							"indexed": true,
							"internalType": "address",
							"name": "approved",
							"type": "address"
						},
						{
							"indexed": true,
							"internalType": "uint256",
							"name": "tokenId",
							"type": "uint256"
						}
					],
					"name": "Approval",
					"type": "event"
				},
				{
					"anonymous": false,
					"inputs": [
						{
							"indexed": true,
							"internalType": "address",
							"name": "owner",
							"type": "address"
						},
						{
							"indexed": true,
							"internalType": "address",
							"name": "operator",
							"type": "address"
						},
						{
							"indexed": false,
							"internalType": "bool",
							"name": "approved",
							"type": "bool"
						}
					],
					"name": "ApprovalForAll",
					"type": "event"
				},
				{
					"anonymous": false,
					"inputs": [
						{
							"indexed": true,
							"internalType": "address",
							"name": "creator",
							"type": "address"
						},
						{
							"indexed": false,
							"internalType": "uint256",
							"name": "creationTime",
							"type": "uint256"
						},
						{
							"indexed": false,
							"internalType": "string",
							"name": "name",
							"type": "string"
						},
						{
							"indexed": false,
							"internalType": "string",
							"name": "symbol",
							"type": "string"
						},
						{
							"indexed": false,
							"internalType": "string",
							"name": "uri",
							"type": "string"
						}
					],
					"name": "ContractCreated",
					"type": "event"
				},
				{
					"anonymous": false,
					"inputs": [
						{
							"indexed": true,
							"internalType": "address",
							"name": "to",
							"type": "address"
						},
						{
							"indexed": false,
							"internalType": "uint256",
							"name": "tokenId",
							"type": "uint256"
						},
						{
							"indexed": true,
							"internalType": "uint256",
							"name": "growth",
							"type": "uint256"
						}
					],
					"name": "GrowUp",
					"type": "event"
				},
				{
					"anonymous": false,
					"inputs": [
						{
							"indexed": false,
							"internalType": "address",
							"name": "from",
							"type": "address"
						},
						{
							"indexed": true,
							"internalType": "address",
							"name": "to",
							"type": "address"
						},
						{
							"indexed": true,
							"internalType": "uint256",
							"name": "tokenId",
							"type": "uint256"
						},
						{
							"indexed": true,
							"internalType": "uint256",
							"name": "tokenType",
							"type": "uint256"
						}
					],
					"name": "Mint",
					"type": "event"
				},
				{
					"anonymous": false,
					"inputs": [
						{
							"indexed": true,
							"internalType": "address",
							"name": "previousOwner",
							"type": "address"
						},
						{
							"indexed": true,
							"internalType": "address",
							"name": "newOwner",
							"type": "address"
						}
					],
					"name": "OwnershipTransferred",
					"type": "event"
				},
				{
					"anonymous": false,
					"inputs": [
						{
							"indexed": true,
							"internalType": "address",
							"name": "to",
							"type": "address"
						},
						{
							"indexed": true,
							"internalType": "uint256",
							"name": "tokenId",
							"type": "uint256"
						}
					],
					"name": "Reset",
					"type": "event"
				},
				{
					"anonymous": false,
					"inputs": [
						{
							"indexed": true,
							"internalType": "address",
							"name": "sender",
							"type": "address"
						},
						{
							"indexed": false,
							"internalType": "string",
							"name": "uri",
							"type": "string"
						}
					],
					"name": "SetTokenURI",
					"type": "event"
				},
				{
					"anonymous": false,
					"inputs": [
						{
							"indexed": true,
							"internalType": "address",
							"name": "from",
							"type": "address"
						},
						{
							"indexed": true,
							"internalType": "address",
							"name": "to",
							"type": "address"
						},
						{
							"indexed": true,
							"internalType": "uint256",
							"name": "tokenId",
							"type": "uint256"
						}
					],
					"name": "Transfer",
					"type": "event"
				},
				{
					"inputs": [
						{
							"internalType": "address",
							"name": "",
							"type": "address"
						},
						{
							"internalType": "uint256",
							"name": "",
							"type": "uint256"
						}
					],
					"name": "approve",
					"outputs": [],
					"stateMutability": "pure",
					"type": "function"
				},
				{
					"inputs": [
						{
							"internalType": "address",
							"name": "owner_",
							"type": "address"
						}
					],
					"name": "balanceOf",
					"outputs": [
						{
							"internalType": "uint256",
							"name": "",
							"type": "uint256"
						}
					],
					"stateMutability": "view",
					"type": "function"
				},
				{
					"inputs": [
						{
							"internalType": "uint256",
							"name": "",
							"type": "uint256"
						}
					],
					"name": "getApproved",
					"outputs": [
						{
							"internalType": "address",
							"name": "",
							"type": "address"
						}
					],
					"stateMutability": "pure",
					"type": "function"
				},
				{
					"inputs": [
						{
							"internalType": "uint256",
							"name": "tokenId_",
							"type": "uint256"
						}
					],
					"name": "getGrowth",
					"outputs": [
						{
							"internalType": "uint256",
							"name": "",
							"type": "uint256"
						}
					],
					"stateMutability": "view",
					"type": "function"
				},
				{
					"inputs": [
						{
							"internalType": "address",
							"name": "to_",
							"type": "address"
						}
					],
					"name": "getProtected",
					"outputs": [
						{
							"internalType": "bool",
							"name": "",
							"type": "bool"
						}
					],
					"stateMutability": "view",
					"type": "function"
				},
				{
					"inputs": [
						{
							"internalType": "uint256",
							"name": "tokenId_",
							"type": "uint256"
						}
					],
					"name": "getTokenType",
					"outputs": [
						{
							"internalType": "uint256",
							"name": "",
							"type": "uint256"
						}
					],
					"stateMutability": "view",
					"type": "function"
				},
				{
					"inputs": [
						{
							"internalType": "address",
							"name": "to_",
							"type": "address"
						},
						{
							"internalType": "uint256",
							"name": "tokenId_",
							"type": "uint256"
						}
					],
					"name": "growUp",
					"outputs": [
						{
							"internalType": "uint256",
							"name": "",
							"type": "uint256"
						}
					],
					"stateMutability": "nonpayable",
					"type": "function"
				},
				{
					"inputs": [
						{
							"internalType": "address",
							"name": "",
							"type": "address"
						},
						{
							"internalType": "address",
							"name": "",
							"type": "address"
						}
					],
					"name": "isApprovedForAll",
					"outputs": [
						{
							"internalType": "bool",
							"name": "",
							"type": "bool"
						}
					],
					"stateMutability": "pure",
					"type": "function"
				},
				{
					"inputs": [
						{
							"internalType": "address",
							"name": "to_",
							"type": "address"
						}
					],
					"name": "isProtected",
					"outputs": [
						{
							"internalType": "bool",
							"name": "",
							"type": "bool"
						}
					],
					"stateMutability": "view",
					"type": "function"
				},
				{
					"inputs": [
						{
							"internalType": "address",
							"name": "to_",
							"type": "address"
						},
						{
							"internalType": "uint256",
							"name": "tokenType_",
							"type": "uint256"
						}
					],
					"name": "mint",
					"outputs": [
						{
							"internalType": "uint256",
							"name": "",
							"type": "uint256"
						}
					],
					"stateMutability": "nonpayable",
					"type": "function"
				},
				{
					"inputs": [],
					"name": "name",
					"outputs": [
						{
							"internalType": "string",
							"name": "",
							"type": "string"
						}
					],
					"stateMutability": "view",
					"type": "function"
				},
				{
					"inputs": [],
					"name": "owner",
					"outputs": [
						{
							"internalType": "address",
							"name": "",
							"type": "address"
						}
					],
					"stateMutability": "view",
					"type": "function"
				},
				{
					"inputs": [
						{
							"internalType": "uint256",
							"name": "tokenId_",
							"type": "uint256"
						}
					],
					"name": "ownerOf",
					"outputs": [
						{
							"internalType": "address",
							"name": "",
							"type": "address"
						}
					],
					"stateMutability": "view",
					"type": "function"
				},
				{
					"inputs": [],
					"name": "renounceOwnership",
					"outputs": [],
					"stateMutability": "nonpayable",
					"type": "function"
				},
				{
					"inputs": [
						{
							"internalType": "address",
							"name": "to_",
							"type": "address"
						},
						{
							"internalType": "uint256",
							"name": "tokenId_",
							"type": "uint256"
						}
					],
					"name": "reset",
					"outputs": [],
					"stateMutability": "nonpayable",
					"type": "function"
				},
				{
					"inputs": [
						{
							"internalType": "address",
							"name": "",
							"type": "address"
						},
						{
							"internalType": "address",
							"name": "",
							"type": "address"
						},
						{
							"internalType": "uint256",
							"name": "",
							"type": "uint256"
						}
					],
					"name": "safeTransferFrom",
					"outputs": [],
					"stateMutability": "pure",
					"type": "function"
				},
				{
					"inputs": [
						{
							"internalType": "address",
							"name": "",
							"type": "address"
						},
						{
							"internalType": "address",
							"name": "",
							"type": "address"
						},
						{
							"internalType": "uint256",
							"name": "",
							"type": "uint256"
						},
						{
							"internalType": "bytes",
							"name": "",
							"type": "bytes"
						}
					],
					"name": "safeTransferFrom",
					"outputs": [],
					"stateMutability": "pure",
					"type": "function"
				},
				{
					"inputs": [
						{
							"internalType": "address",
							"name": "",
							"type": "address"
						},
						{
							"internalType": "bool",
							"name": "",
							"type": "bool"
						}
					],
					"name": "setApprovalForAll",
					"outputs": [],
					"stateMutability": "pure",
					"type": "function"
				},
				{
					"inputs": [
						{
							"internalType": "bool",
							"name": "isProtected_",
							"type": "bool"
						}
					],
					"name": "setProtected",
					"outputs": [
						{
							"internalType": "bool",
							"name": "",
							"type": "bool"
						}
					],
					"stateMutability": "nonpayable",
					"type": "function"
				},
				{
					"inputs": [
						{
							"internalType": "string",
							"name": "tokenURI_",
							"type": "string"
						}
					],
					"name": "setTokenURI",
					"outputs": [
						{
							"internalType": "string",
							"name": "",
							"type": "string"
						}
					],
					"stateMutability": "nonpayable",
					"type": "function"
				},
				{
					"inputs": [
						{
							"internalType": "bytes4",
							"name": "interfaceId",
							"type": "bytes4"
						}
					],
					"name": "supportsInterface",
					"outputs": [
						{
							"internalType": "bool",
							"name": "",
							"type": "bool"
						}
					],
					"stateMutability": "view",
					"type": "function"
				},
				{
					"inputs": [],
					"name": "symbol",
					"outputs": [
						{
							"internalType": "string",
							"name": "",
							"type": "string"
						}
					],
					"stateMutability": "view",
					"type": "function"
				},
				{
					"inputs": [
						{
							"internalType": "address",
							"name": "owner_",
							"type": "address"
						},
						{
							"internalType": "uint256",
							"name": "index_",
							"type": "uint256"
						}
					],
					"name": "tokenOfOwnerByIndex",
					"outputs": [
						{
							"internalType": "uint256",
							"name": "",
							"type": "uint256"
						}
					],
					"stateMutability": "view",
					"type": "function"
				},
				{
					"inputs": [
						{
							"internalType": "uint256",
							"name": "tokenId_",
							"type": "uint256"
						}
					],
					"name": "tokenURI",
					"outputs": [
						{
							"internalType": "string",
							"name": "",
							"type": "string"
						}
					],
					"stateMutability": "view",
					"type": "function"
				},
				{
					"inputs": [],
					"name": "totalSupply",
					"outputs": [
						{
							"internalType": "uint256",
							"name": "",
							"type": "uint256"
						}
					],
					"stateMutability": "view",
					"type": "function"
				},
				{
					"inputs": [],
					"name": "totalUser",
					"outputs": [
						{
							"internalType": "uint256",
							"name": "",
							"type": "uint256"
						}
					],
					"stateMutability": "view",
					"type": "function"
				},
				{
					"inputs": [
						{
							"internalType": "address",
							"name": "",
							"type": "address"
						},
						{
							"internalType": "address",
							"name": "",
							"type": "address"
						},
						{
							"internalType": "uint256",
							"name": "",
							"type": "uint256"
						}
					],
					"name": "transferFrom",
					"outputs": [],
					"stateMutability": "pure",
					"type": "function"
				},
				{
					"inputs": [
						{
							"internalType": "address",
							"name": "newOwner",
							"type": "address"
						}
					],
					"name": "transferOwnership",
					"outputs": [],
					"stateMutability": "nonpayable",
					"type": "function"
				}
			],
			"devdoc": {
				"errors": {
					"SoulSocietySBTIncorrectOwner(address,uint256,address)": [
						{
							"details": "Indicates an error related to the ownership over a particular token. Used in transfers.",
							"params": {
								"owner": "Address of the current owner of a token.",
								"sender": "Address whose tokens are being transferred.",
								"tokenId": "Identifier number of a token."
							}
						}
					],
					"SoulSocietySBTInvalidReceiver(address)": [
						{
							"details": "Indicates a failure with the token `receiver`. Used in transfers.",
							"params": {
								"receiver": "Address to which tokens are being transferred."
							}
						}
					],
					"SoulSocietySBTInvalidSender(address)": [
						{
							"details": "Indicates a failure with the token `sender`. Used in transfers.",
							"params": {
								"sender": "Address whose tokens are being transferred."
							}
						}
					],
					"SoulSocietySBTNonexistentToken(uint256)": [
						{
							"details": "Indicates a `tokenId` whose `owner` is the zero address.",
							"params": {
								"tokenId": "Identifier number of a token."
							}
						}
					],
					"SoulSocietySBTNotOwner(address,address)": [
						{
							"details": "Indicates an error related to the ownership over a particular token.",
							"params": {
								"owner": "Address of the current owner of a token.",
								"to": "Address whose SBT token are being used."
							}
						}
					],
					"SoulSocietySBTProtectedOwner(address)": [
						{
							"details": "Indicates protected status. Used in token.",
							"params": {
								"owner": "Address."
							}
						}
					]
				},
				"events": {
					"Approval(address,address,uint256)": {
						"details": "Emitted when `owner` enables `approved` to manage the `tokenId` token."
					},
					"ApprovalForAll(address,address,bool)": {
						"details": "Emitted when `owner` enables or disables (`approved`) `operator` to manage all of its assets."
					},
					"Mint(address,address,uint256,uint256)": {
						"details": "Emitted when `tokenId` token is minted from `from(Contract Owner)` to `to`."
					},
					"Transfer(address,address,uint256)": {
						"details": "Emitted when `tokenId` token is transferred from `from` to `to`."
					}
				},
				"kind": "dev",
				"methods": {
					"name()": {
						"details": "Returns the token collection name."
					},
					"owner()": {
						"details": "Returns the address of the current owner."
					},
					"ownerOf(uint256)": {
						"details": "Returns the owner of the `tokenId`. Does NOT revert if token doesn't exist"
					},
					"renounceOwnership()": {
						"details": "Leaves the contract without owner. It will not be possible to call `onlyOwner` functions. Can only be called by the current owner. NOTE: Renouncing ownership will leave the contract without an owner, thereby disabling any functionality that is only available to the owner."
					},
					"supportsInterface(bytes4)": {
						"details": "See {IERC165-supportsInterface}."
					},
					"symbol()": {
						"details": "Returns the token collection symbol."
					},
					"tokenOfOwnerByIndex(address,uint256)": {
						"details": "Returns a token ID owned by `owner` at a given `index` of its token list. Use along with {balanceOf} to enumerate all of ``owner``'s tokens."
					},
					"tokenURI(uint256)": {
						"details": "Returns the Uniform Resource Identifier (URI) for `tokenId` token."
					},
					"totalSupply()": {
						"details": "Returns the total amount of tokens stored by the contract."
					},
					"transferOwnership(address)": {
						"details": "Transfers ownership of the contract to a new account (`newOwner`). Can only be called by the current owner."
					}
				},
				"title": "Implementation contract of Lightweight growth type SBT developed by SoulSociety",
				"version": 1
			},
			"evm": {
				"assembly": "    /* \"v2/contracts/SoulSocietySBT.sol\":791:12604  contract SoulSocietySBT is ISoulSocietySBT, ISoulSocietySBTMetadata, ISoulSocietySBTErrors , IERC721, ERC165, Ownable {... */\n  mstore(0x40, 0x80)\n    /* \"v2/contracts/SoulSocietySBT.sol\":2027:2169  constructor(string memory uri_) {... */\n  callvalue\n  dup1\n  iszero\n  tag_1\n  jumpi\n  0x00\n  dup1\n  revert\ntag_1:\n  pop\n  mload(0x40)\n  sub(codesize, bytecodeSize)\n  dup1\n  bytecodeSize\n  dup4\n  codecopy\n  dup2\n  add\n  0x40\n  dup2\n  swap1\n  mstore\n  tag_2\n  swap2\n  tag_3\n  jump\t// in\ntag_2:\n    /* \"@openzeppelin/contracts/access/Ownable.sol\":936:968  _transferOwnership(_msgSender()) */\n  tag_7\n    /* \"@openzeppelin/contracts/utils/Context.sol\":719:729  msg.sender */\n  caller\n    /* \"@openzeppelin/contracts/access/Ownable.sol\":936:954  _transferOwnership */\n  tag_10\n    /* \"@openzeppelin/contracts/access/Ownable.sol\":936:968  _transferOwnership(_msgSender()) */\n  jump\t// in\ntag_7:\n    /* \"v2/contracts/SoulSocietySBT.sol\":2069:2073  _uri */\n  0x01\n    /* \"v2/contracts/SoulSocietySBT.sol\":2069:2080  _uri = uri_ */\n  tag_12\n    /* \"v2/contracts/SoulSocietySBT.sol\":2076:2080  uri_ */\n  dup3\n    /* \"v2/contracts/SoulSocietySBT.sol\":2069:2073  _uri */\n  dup3\n    /* \"v2/contracts/SoulSocietySBT.sol\":2069:2080  _uri = uri_ */\n  tag_13\n  jump\t// in\ntag_12:\n  pop\n    /* \"v2/contracts/SoulSocietySBT.sol\":2141:2146  _name */\n  0x40\n  dup1\n  mload\n  dup1\n  dup3\n  add\n  dup3\n  mstore\n  0x06\n  dup1\n  dup3\n  mstore\n  shl(0xd2, 0x1213d394d095)\n  0x20\n  dup1\n  dup5\n  add\n  dup3\n  swap1\n  mstore\n    /* \"v2/contracts/SoulSocietySBT.sol\":2148:2155  _symbol */\n  dup5\n  mload\n  dup1\n  dup7\n  add\n  dup7\n  mstore\n  swap3\n  dup4\n  mstore\n  dup3\n  add\n  mstore\n    /* \"v2/contracts/SoulSocietySBT.sol\":2096:2162  ContractCreated(msg.sender, block.timestamp, _name, _symbol, _uri) */\n  swap2\n  mload\n    /* \"v2/contracts/SoulSocietySBT.sol\":2112:2122  msg.sender */\n  caller\n  swap3\n    /* \"v2/contracts/SoulSocietySBT.sol\":2096:2162  ContractCreated(msg.sender, block.timestamp, _name, _symbol, _uri) */\n  0xddb33c9627985605622b2c4e8b308152b557aeae8ba59e2f05038c9d8ed6ae84\n  swap3\n  tag_14\n  swap3\n    /* \"v2/contracts/SoulSocietySBT.sol\":2124:2139  block.timestamp */\n  timestamp\n  swap3\n    /* \"v2/contracts/SoulSocietySBT.sol\":2148:2155  _symbol */\n  swap1\n    /* \"v2/contracts/SoulSocietySBT.sol\":2157:2161  _uri */\n  0x01\n  swap1\n    /* \"v2/contracts/SoulSocietySBT.sol\":2096:2162  ContractCreated(msg.sender, block.timestamp, _name, _symbol, _uri) */\n  tag_15\n  jump\t// in\ntag_14:\n  mload(0x40)\n  dup1\n  swap2\n  sub\n  swap1\n  log2\n    /* \"v2/contracts/SoulSocietySBT.sol\":2027:2169  constructor(string memory uri_) {... */\n  pop\n    /* \"v2/contracts/SoulSocietySBT.sol\":791:12604  contract SoulSocietySBT is ISoulSocietySBT, ISoulSocietySBTMetadata, ISoulSocietySBTErrors , IERC721, ERC165, Ownable {... */\n  jump(tag_26)\n    /* \"@openzeppelin/contracts/access/Ownable.sol\":2426:2613  function _transferOwnership(address newOwner) internal virtual {... */\ntag_10:\n    /* \"@openzeppelin/contracts/access/Ownable.sol\":2499:2515  address oldOwner */\n  0x00\n    /* \"@openzeppelin/contracts/access/Ownable.sol\":2518:2524  _owner */\n  dup1\n  sload\n  sub(shl(0xa0, 0x01), 0x01)\n    /* \"@openzeppelin/contracts/access/Ownable.sol\":2534:2551  _owner = newOwner */\n  dup4\n  dup2\n  and\n  not(sub(shl(0xa0, 0x01), 0x01))\n  dup4\n  and\n  dup2\n  or\n  dup5\n  sstore\n    /* \"@openzeppelin/contracts/access/Ownable.sol\":2566:2606  OwnershipTransferred(oldOwner, newOwner) */\n  mload(0x40)\n    /* \"@openzeppelin/contracts/access/Ownable.sol\":2518:2524  _owner */\n  swap2\n  swap1\n  swap3\n  and\n  swap3\n  dup4\n  swap2\n    /* \"@openzeppelin/contracts/access/Ownable.sol\":2566:2606  OwnershipTransferred(oldOwner, newOwner) */\n  0x8be0079c531659141344cd1fd0a4f28419497f9722a3daafe3b4186f6b6457e0\n  swap2\n    /* \"@openzeppelin/contracts/access/Ownable.sol\":2499:2515  address oldOwner */\n  swap1\n    /* \"@openzeppelin/contracts/access/Ownable.sol\":2566:2606  OwnershipTransferred(oldOwner, newOwner) */\n  log3\n    /* \"@openzeppelin/contracts/access/Ownable.sol\":2489:2613  {... */\n  pop\n    /* \"@openzeppelin/contracts/access/Ownable.sol\":2426:2613  function _transferOwnership(address newOwner) internal virtual {... */\n  pop\n  jump\t// out\n    /* \"#utility.yul\":14:141   */\ntag_19:\n    /* \"#utility.yul\":75:85   */\n  0x4e487b71\n    /* \"#utility.yul\":70:73   */\n  0xe0\n    /* \"#utility.yul\":66:86   */\n  shl\n    /* \"#utility.yul\":63:64   */\n  0x00\n    /* \"#utility.yul\":56:87   */\n  mstore\n    /* \"#utility.yul\":106:110   */\n  0x41\n    /* \"#utility.yul\":103:104   */\n  0x04\n    /* \"#utility.yul\":96:111   */\n  mstore\n    /* \"#utility.yul\":130:134   */\n  0x24\n    /* \"#utility.yul\":127:128   */\n  0x00\n    /* \"#utility.yul\":120:135   */\n  revert\n    /* \"#utility.yul\":146:396   */\ntag_20:\n    /* \"#utility.yul\":231:232   */\n  0x00\n    /* \"#utility.yul\":241:354   */\ntag_29:\n    /* \"#utility.yul\":255:261   */\n  dup4\n    /* \"#utility.yul\":252:253   */\n  dup2\n    /* \"#utility.yul\":249:262   */\n  lt\n    /* \"#utility.yul\":241:354   */\n  iszero\n  tag_31\n  jumpi\n    /* \"#utility.yul\":331:342   */\n  dup2\n  dup2\n  add\n    /* \"#utility.yul\":325:343   */\n  mload\n    /* \"#utility.yul\":312:323   */\n  dup4\n  dup3\n  add\n    /* \"#utility.yul\":305:344   */\n  mstore\n    /* \"#utility.yul\":277:279   */\n  0x20\n    /* \"#utility.yul\":270:280   */\n  add\n    /* \"#utility.yul\":241:354   */\n  jump(tag_29)\ntag_31:\n  pop\n  pop\n    /* \"#utility.yul\":388:389   */\n  0x00\n    /* \"#utility.yul\":370:386   */\n  swap2\n  add\n    /* \"#utility.yul\":363:390   */\n  mstore\n    /* \"#utility.yul\":146:396   */\n  jump\t// out\n    /* \"#utility.yul\":401:1298   */\ntag_3:\n    /* \"#utility.yul\":481:487   */\n  0x00\n    /* \"#utility.yul\":534:536   */\n  0x20\n    /* \"#utility.yul\":522:531   */\n  dup3\n    /* \"#utility.yul\":513:520   */\n  dup5\n    /* \"#utility.yul\":509:532   */\n  sub\n    /* \"#utility.yul\":505:537   */\n  slt\n    /* \"#utility.yul\":502:554   */\n  iszero\n  tag_33\n  jumpi\n    /* \"#utility.yul\":550:551   */\n  0x00\n    /* \"#utility.yul\":547:548   */\n  dup1\n    /* \"#utility.yul\":540:552   */\n  revert\n    /* \"#utility.yul\":502:554   */\ntag_33:\n    /* \"#utility.yul\":577:593   */\n  dup2\n  mload\n  sub(shl(0x40, 0x01), 0x01)\n    /* \"#utility.yul\":642:656   */\n  dup1\n  dup3\n  gt\n    /* \"#utility.yul\":639:673   */\n  iszero\n  tag_34\n  jumpi\n    /* \"#utility.yul\":669:670   */\n  0x00\n    /* \"#utility.yul\":666:667   */\n  dup1\n    /* \"#utility.yul\":659:671   */\n  revert\n    /* \"#utility.yul\":639:673   */\ntag_34:\n    /* \"#utility.yul\":707:713   */\n  dup2\n    /* \"#utility.yul\":696:705   */\n  dup5\n    /* \"#utility.yul\":692:714   */\n  add\n    /* \"#utility.yul\":682:714   */\n  swap2\n  pop\n    /* \"#utility.yul\":752:759   */\n  dup5\n    /* \"#utility.yul\":745:749   */\n  0x1f\n    /* \"#utility.yul\":741:743   */\n  dup4\n    /* \"#utility.yul\":737:750   */\n  add\n    /* \"#utility.yul\":733:760   */\n  slt\n    /* \"#utility.yul\":723:778   */\n  tag_35\n  jumpi\n    /* \"#utility.yul\":774:775   */\n  0x00\n    /* \"#utility.yul\":771:772   */\n  dup1\n    /* \"#utility.yul\":764:776   */\n  revert\n    /* \"#utility.yul\":723:778   */\ntag_35:\n    /* \"#utility.yul\":803:805   */\n  dup2\n    /* \"#utility.yul\":797:806   */\n  mload\n    /* \"#utility.yul\":825:827   */\n  dup2\n    /* \"#utility.yul\":821:823   */\n  dup2\n    /* \"#utility.yul\":818:828   */\n  gt\n    /* \"#utility.yul\":815:851   */\n  iszero\n  tag_37\n  jumpi\n    /* \"#utility.yul\":831:849   */\n  tag_37\n  tag_19\n  jump\t// in\ntag_37:\n    /* \"#utility.yul\":906:908   */\n  0x40\n    /* \"#utility.yul\":900:909   */\n  mload\n    /* \"#utility.yul\":874:876   */\n  0x1f\n    /* \"#utility.yul\":960:973   */\n  dup3\n  add\n  not(0x1f)\n    /* \"#utility.yul\":956:978   */\n  swap1\n  dup2\n  and\n    /* \"#utility.yul\":980:982   */\n  0x3f\n    /* \"#utility.yul\":952:983   */\n  add\n    /* \"#utility.yul\":948:988   */\n  and\n    /* \"#utility.yul\":936:989   */\n  dup2\n  add\n  swap1\n    /* \"#utility.yul\":1004:1022   */\n  dup4\n  dup3\n  gt\n    /* \"#utility.yul\":1024:1046   */\n  dup2\n  dup4\n  lt\n    /* \"#utility.yul\":1001:1047   */\n  or\n    /* \"#utility.yul\":998:1070   */\n  iszero\n  tag_39\n  jumpi\n    /* \"#utility.yul\":1050:1068   */\n  tag_39\n  tag_19\n  jump\t// in\ntag_39:\n    /* \"#utility.yul\":1090:1100   */\n  dup2\n    /* \"#utility.yul\":1086:1088   */\n  0x40\n    /* \"#utility.yul\":1079:1101   */\n  mstore\n    /* \"#utility.yul\":1125:1127   */\n  dup3\n    /* \"#utility.yul\":1117:1123   */\n  dup2\n    /* \"#utility.yul\":1110:1128   */\n  mstore\n    /* \"#utility.yul\":1165:1172   */\n  dup8\n    /* \"#utility.yul\":1160:1162   */\n  0x20\n    /* \"#utility.yul\":1155:1157   */\n  dup5\n    /* \"#utility.yul\":1151:1153   */\n  dup8\n    /* \"#utility.yul\":1147:1158   */\n  add\n    /* \"#utility.yul\":1143:1163   */\n  add\n    /* \"#utility.yul\":1140:1173   */\n  gt\n    /* \"#utility.yul\":1137:1190   */\n  iszero\n  tag_40\n  jumpi\n    /* \"#utility.yul\":1186:1187   */\n  0x00\n    /* \"#utility.yul\":1183:1184   */\n  dup1\n    /* \"#utility.yul\":1176:1188   */\n  revert\n    /* \"#utility.yul\":1137:1190   */\ntag_40:\n    /* \"#utility.yul\":1199:1267   */\n  tag_41\n    /* \"#utility.yul\":1264:1266   */\n  dup4\n    /* \"#utility.yul\":1259:1261   */\n  0x20\n    /* \"#utility.yul\":1251:1257   */\n  dup4\n    /* \"#utility.yul\":1247:1262   */\n  add\n    /* \"#utility.yul\":1242:1244   */\n  0x20\n    /* \"#utility.yul\":1238:1240   */\n  dup9\n    /* \"#utility.yul\":1234:1245   */\n  add\n    /* \"#utility.yul\":1199:1267   */\n  tag_20\n  jump\t// in\ntag_41:\n    /* \"#utility.yul\":1286:1292   */\n  swap8\n    /* \"#utility.yul\":401:1298   */\n  swap7\n  pop\n  pop\n  pop\n  pop\n  pop\n  pop\n  pop\n  jump\t// out\n    /* \"#utility.yul\":1303:1683   */\ntag_21:\n    /* \"#utility.yul\":1382:1383   */\n  0x01\n    /* \"#utility.yul\":1378:1390   */\n  dup2\n  dup2\n  shr\n  swap1\n    /* \"#utility.yul\":1425:1437   */\n  dup3\n  and\n  dup1\n    /* \"#utility.yul\":1446:1507   */\n  tag_43\n  jumpi\n    /* \"#utility.yul\":1500:1504   */\n  0x7f\n    /* \"#utility.yul\":1492:1498   */\n  dup3\n    /* \"#utility.yul\":1488:1505   */\n  and\n    /* \"#utility.yul\":1478:1505   */\n  swap2\n  pop\n    /* \"#utility.yul\":1446:1507   */\ntag_43:\n    /* \"#utility.yul\":1553:1555   */\n  0x20\n    /* \"#utility.yul\":1545:1551   */\n  dup3\n    /* \"#utility.yul\":1542:1556   */\n  lt\n    /* \"#utility.yul\":1522:1540   */\n  dup2\n    /* \"#utility.yul\":1519:1557   */\n  sub\n    /* \"#utility.yul\":1516:1677   */\n  tag_44\n  jumpi\n    /* \"#utility.yul\":1599:1609   */\n  0x4e487b71\n    /* \"#utility.yul\":1594:1597   */\n  0xe0\n    /* \"#utility.yul\":1590:1610   */\n  shl\n    /* \"#utility.yul\":1587:1588   */\n  0x00\n    /* \"#utility.yul\":1580:1611   */\n  mstore\n    /* \"#utility.yul\":1634:1638   */\n  0x22\n    /* \"#utility.yul\":1631:1632   */\n  0x04\n    /* \"#utility.yul\":1624:1639   */\n  mstore\n    /* \"#utility.yul\":1662:1666   */\n  0x24\n    /* \"#utility.yul\":1659:1660   */\n  0x00\n    /* \"#utility.yul\":1652:1667   */\n  revert\n    /* \"#utility.yul\":1516:1677   */\ntag_44:\n  pop\n    /* \"#utility.yul\":1303:1683   */\n  swap2\n  swap1\n  pop\n  jump\t// out\n    /* \"#utility.yul\":1814:2359   */\ntag_23:\n    /* \"#utility.yul\":1916:1918   */\n  0x1f\n    /* \"#utility.yul\":1911:1914   */\n  dup3\n    /* \"#utility.yul\":1908:1919   */\n  gt\n    /* \"#utility.yul\":1905:2353   */\n  iszero\n  tag_47\n  jumpi\n    /* \"#utility.yul\":1952:1953   */\n  0x00\n    /* \"#utility.yul\":1977:1982   */\n  dup2\n    /* \"#utility.yul\":1973:1975   */\n  dup2\n    /* \"#utility.yul\":1966:1983   */\n  mstore\n    /* \"#utility.yul\":2022:2026   */\n  0x20\n    /* \"#utility.yul\":2018:2020   */\n  dup2\n    /* \"#utility.yul\":2008:2027   */\n  keccak256\n    /* \"#utility.yul\":2092:2094   */\n  0x1f\n    /* \"#utility.yul\":2080:2090   */\n  dup6\n    /* \"#utility.yul\":2076:2095   */\n  add\n    /* \"#utility.yul\":2073:2074   */\n  0x05\n    /* \"#utility.yul\":2069:2096   */\n  shr\n    /* \"#utility.yul\":2063:2067   */\n  dup2\n    /* \"#utility.yul\":2059:2097   */\n  add\n    /* \"#utility.yul\":2128:2132   */\n  0x20\n    /* \"#utility.yul\":2116:2126   */\n  dup7\n    /* \"#utility.yul\":2113:2133   */\n  lt\n    /* \"#utility.yul\":2110:2157   */\n  iszero\n  tag_48\n  jumpi\n  pop\n    /* \"#utility.yul\":2151:2155   */\n  dup1\n    /* \"#utility.yul\":2110:2157   */\ntag_48:\n    /* \"#utility.yul\":2206:2208   */\n  0x1f\n    /* \"#utility.yul\":2201:2204   */\n  dup6\n    /* \"#utility.yul\":2197:2209   */\n  add\n    /* \"#utility.yul\":2194:2195   */\n  0x05\n    /* \"#utility.yul\":2190:2210   */\n  shr\n    /* \"#utility.yul\":2184:2188   */\n  dup3\n    /* \"#utility.yul\":2180:2211   */\n  add\n    /* \"#utility.yul\":2170:2211   */\n  swap2\n  pop\n    /* \"#utility.yul\":2261:2343   */\ntag_49:\n    /* \"#utility.yul\":2279:2281   */\n  dup2\n    /* \"#utility.yul\":2272:2277   */\n  dup2\n    /* \"#utility.yul\":2269:2282   */\n  lt\n    /* \"#utility.yul\":2261:2343   */\n  iszero\n  tag_51\n  jumpi\n    /* \"#utility.yul\":2324:2341   */\n  dup3\n  dup2\n  sstore\n    /* \"#utility.yul\":2305:2306   */\n  0x01\n    /* \"#utility.yul\":2294:2307   */\n  add\n    /* \"#utility.yul\":2261:2343   */\n  jump(tag_49)\ntag_51:\n    /* \"#utility.yul\":2265:2268   */\n  pop\n  pop\n  pop\n    /* \"#utility.yul\":1905:2353   */\ntag_47:\n    /* \"#utility.yul\":1814:2359   */\n  pop\n  pop\n  pop\n  jump\t// out\n    /* \"#utility.yul\":2535:3887   */\ntag_13:\n    /* \"#utility.yul\":2655:2665   */\n  dup2\n  mload\n  sub(shl(0x40, 0x01), 0x01)\n    /* \"#utility.yul\":2677:2707   */\n  dup2\n  gt\n    /* \"#utility.yul\":2674:2730   */\n  iszero\n  tag_55\n  jumpi\n    /* \"#utility.yul\":2710:2728   */\n  tag_55\n  tag_19\n  jump\t// in\ntag_55:\n    /* \"#utility.yul\":2739:2836   */\n  tag_56\n    /* \"#utility.yul\":2829:2835   */\n  dup2\n    /* \"#utility.yul\":2789:2827   */\n  tag_57\n    /* \"#utility.yul\":2821:2825   */\n  dup5\n    /* \"#utility.yul\":2815:2826   */\n  sload\n    /* \"#utility.yul\":2789:2827   */\n  tag_21\n  jump\t// in\ntag_57:\n    /* \"#utility.yul\":2783:2787   */\n  dup5\n    /* \"#utility.yul\":2739:2836   */\n  tag_23\n  jump\t// in\ntag_56:\n    /* \"#utility.yul\":2891:2895   */\n  0x20\n  dup1\n    /* \"#utility.yul\":2955:2957   */\n  0x1f\n    /* \"#utility.yul\":2944:2958   */\n  dup4\n  gt\n    /* \"#utility.yul\":2972:2973   */\n  0x01\n    /* \"#utility.yul\":2967:3630   */\n  dup2\n  eq\n  tag_59\n  jumpi\n    /* \"#utility.yul\":3674:3675   */\n  0x00\n    /* \"#utility.yul\":3691:3697   */\n  dup5\n    /* \"#utility.yul\":3688:3777   */\n  iszero\n  tag_60\n  jumpi\n  pop\n    /* \"#utility.yul\":3743:3762   */\n  dup6\n  dup4\n  add\n    /* \"#utility.yul\":3737:3763   */\n  mload\n    /* \"#utility.yul\":3688:3777   */\ntag_60:\n  not(0x00)\n    /* \"#utility.yul\":2492:2493   */\n  0x03\n    /* \"#utility.yul\":2488:2499   */\n  dup7\n  swap1\n  shl\n    /* \"#utility.yul\":2484:2508   */\n  shr\n    /* \"#utility.yul\":2480:2509   */\n  not\n    /* \"#utility.yul\":2470:2510   */\n  and\n    /* \"#utility.yul\":2516:2517   */\n  0x01\n    /* \"#utility.yul\":2512:2523   */\n  dup6\n  swap1\n  shl\n    /* \"#utility.yul\":2467:2524   */\n  or\n    /* \"#utility.yul\":3790:3871   */\n  dup6\n  sstore\n    /* \"#utility.yul\":2937:3881   */\n  jump(tag_51)\n    /* \"#utility.yul\":2967:3630   */\ntag_59:\n    /* \"#utility.yul\":1761:1762   */\n  0x00\n    /* \"#utility.yul\":1754:1768   */\n  dup6\n  dup2\n  mstore\n    /* \"#utility.yul\":1798:1802   */\n  0x20\n    /* \"#utility.yul\":1785:1803   */\n  dup2\n  keccak256\n  not(0x1f)\n    /* \"#utility.yul\":3003:3023   */\n  dup7\n  and\n  swap2\n    /* \"#utility.yul\":3121:3357   */\ntag_63:\n    /* \"#utility.yul\":3135:3142   */\n  dup3\n    /* \"#utility.yul\":3132:3133   */\n  dup2\n    /* \"#utility.yul\":3129:3143   */\n  lt\n    /* \"#utility.yul\":3121:3357   */\n  iszero\n  tag_65\n  jumpi\n    /* \"#utility.yul\":3224:3243   */\n  dup9\n  dup7\n  add\n    /* \"#utility.yul\":3218:3244   */\n  mload\n    /* \"#utility.yul\":3203:3245   */\n  dup3\n  sstore\n    /* \"#utility.yul\":3316:3343   */\n  swap5\n  dup5\n  add\n  swap5\n    /* \"#utility.yul\":3284:3285   */\n  0x01\n    /* \"#utility.yul\":3272:3286   */\n  swap1\n  swap2\n  add\n  swap1\n    /* \"#utility.yul\":3151:3170   */\n  dup5\n  add\n    /* \"#utility.yul\":3121:3357   */\n  jump(tag_63)\ntag_65:\n    /* \"#utility.yul\":3125:3128   */\n  pop\n    /* \"#utility.yul\":3385:3391   */\n  dup6\n    /* \"#utility.yul\":3376:3383   */\n  dup3\n    /* \"#utility.yul\":3373:3392   */\n  lt\n    /* \"#utility.yul\":3370:3571   */\n  iszero\n  tag_66\n  jumpi\n    /* \"#utility.yul\":3446:3465   */\n  dup8\n  dup6\n  add\n    /* \"#utility.yul\":3440:3466   */\n  mload\n  not(0x00)\n    /* \"#utility.yul\":3529:3530   */\n  0x03\n    /* \"#utility.yul\":3525:3539   */\n  dup9\n  swap1\n  shl\n    /* \"#utility.yul\":3541:3544   */\n  0xf8\n    /* \"#utility.yul\":3521:3545   */\n  and\n    /* \"#utility.yul\":3517:3554   */\n  shr\n    /* \"#utility.yul\":3513:3555   */\n  not\n    /* \"#utility.yul\":3498:3556   */\n  and\n    /* \"#utility.yul\":3483:3557   */\n  dup2\n  sstore\n    /* \"#utility.yul\":3370:3571   */\ntag_66:\n  pop\n  pop\n  pop\n  pop\n  pop\n    /* \"#utility.yul\":3617:3618   */\n  0x01\n    /* \"#utility.yul\":3601:3615   */\n  swap1\n  dup2\n  shl\n    /* \"#utility.yul\":3597:3619   */\n  add\n    /* \"#utility.yul\":3584:3620   */\n  swap1\n  sstore\n  pop\n    /* \"#utility.yul\":2535:3887   */\n  jump\t// out\n    /* \"#utility.yul\":3892:4163   */\ntag_25:\n    /* \"#utility.yul\":3934:3937   */\n  0x00\n    /* \"#utility.yul\":3972:3977   */\n  dup2\n    /* \"#utility.yul\":3966:3978   */\n  mload\n    /* \"#utility.yul\":3999:4005   */\n  dup1\n    /* \"#utility.yul\":3994:3997   */\n  dup5\n    /* \"#utility.yul\":3987:4006   */\n  mstore\n    /* \"#utility.yul\":4015:4091   */\n  tag_68\n    /* \"#utility.yul\":4084:4090   */\n  dup2\n    /* \"#utility.yul\":4077:4081   */\n  0x20\n    /* \"#utility.yul\":4072:4075   */\n  dup7\n    /* \"#utility.yul\":4068:4082   */\n  add\n    /* \"#utility.yul\":4061:4065   */\n  0x20\n    /* \"#utility.yul\":4054:4059   */\n  dup7\n    /* \"#utility.yul\":4050:4066   */\n  add\n    /* \"#utility.yul\":4015:4091   */\n  tag_20\n  jump\t// in\ntag_68:\n    /* \"#utility.yul\":4145:4147   */\n  0x1f\n    /* \"#utility.yul\":4124:4139   */\n  add\n  not(0x1f)\n    /* \"#utility.yul\":4120:4149   */\n  and\n    /* \"#utility.yul\":4111:4150   */\n  swap3\n  swap1\n  swap3\n  add\n    /* \"#utility.yul\":4152:4156   */\n  0x20\n    /* \"#utility.yul\":4107:4157   */\n  add\n  swap3\n    /* \"#utility.yul\":3892:4163   */\n  swap2\n  pop\n  pop\n  jump\t// out\n    /* \"#utility.yul\":4168:5497   */\ntag_15:\n    /* \"#utility.yul\":4438:4444   */\n  dup5\n    /* \"#utility.yul\":4427:4436   */\n  dup2\n    /* \"#utility.yul\":4420:4445   */\n  mstore\n    /* \"#utility.yul\":4401:4405   */\n  0x00\n    /* \"#utility.yul\":4464:4466   */\n  0x20\n    /* \"#utility.yul\":4502:4505   */\n  0x80\n    /* \"#utility.yul\":4497:4499   */\n  dup2\n    /* \"#utility.yul\":4486:4495   */\n  dup5\n    /* \"#utility.yul\":4482:4500   */\n  add\n    /* \"#utility.yul\":4475:4506   */\n  mstore\n    /* \"#utility.yul\":4529:4575   */\n  tag_70\n    /* \"#utility.yul\":4570:4573   */\n  0x80\n    /* \"#utility.yul\":4559:4568   */\n  dup5\n    /* \"#utility.yul\":4555:4574   */\n  add\n    /* \"#utility.yul\":4547:4553   */\n  dup8\n    /* \"#utility.yul\":4529:4575   */\n  tag_25\n  jump\t// in\ntag_70:\n    /* \"#utility.yul\":4623:4632   */\n  dup4\n    /* \"#utility.yul\":4615:4621   */\n  dup2\n    /* \"#utility.yul\":4611:4633   */\n  sub\n    /* \"#utility.yul\":4606:4608   */\n  0x40\n    /* \"#utility.yul\":4595:4604   */\n  dup6\n    /* \"#utility.yul\":4591:4609   */\n  add\n    /* \"#utility.yul\":4584:4634   */\n  mstore\n    /* \"#utility.yul\":4657:4690   */\n  tag_71\n    /* \"#utility.yul\":4683:4689   */\n  dup2\n    /* \"#utility.yul\":4675:4681   */\n  dup8\n    /* \"#utility.yul\":4657:4690   */\n  tag_25\n  jump\t// in\ntag_71:\n    /* \"#utility.yul\":4643:4690   */\n  swap1\n  pop\n    /* \"#utility.yul\":4738:4747   */\n  dup4\n    /* \"#utility.yul\":4730:4736   */\n  dup2\n    /* \"#utility.yul\":4726:4748   */\n  sub\n    /* \"#utility.yul\":4721:4723   */\n  0x60\n    /* \"#utility.yul\":4710:4719   */\n  dup6\n    /* \"#utility.yul\":4706:4724   */\n  add\n    /* \"#utility.yul\":4699:4749   */\n  mstore\n    /* \"#utility.yul\":4769:4770   */\n  0x00\n    /* \"#utility.yul\":4802:4808   */\n  dup6\n    /* \"#utility.yul\":4796:4809   */\n  sload\n    /* \"#utility.yul\":4832:4868   */\n  tag_72\n    /* \"#utility.yul\":4858:4867   */\n  dup2\n    /* \"#utility.yul\":4832:4868   */\n  tag_21\n  jump\t// in\ntag_72:\n    /* \"#utility.yul\":4877:4899   */\n  dup1\n  dup5\n  mstore\n    /* \"#utility.yul\":4918:4919   */\n  0x01\n    /* \"#utility.yul\":4935:4953   */\n  dup3\n  dup2\n  and\n    /* \"#utility.yul\":4962:5114   */\n  dup1\n  iszero\n  tag_74\n  jumpi\n    /* \"#utility.yul\":5128:5129   */\n  0x01\n    /* \"#utility.yul\":5123:5471   */\n  dup2\n  eq\n  tag_75\n  jumpi\n    /* \"#utility.yul\":4928:5471   */\n  jump(tag_73)\n    /* \"#utility.yul\":4962:5114   */\ntag_74:\n  not(0xff)\n    /* \"#utility.yul\":5007:5031   */\n  dup5\n  and\n    /* \"#utility.yul\":4990:5005   */\n  dup7\n  dup9\n  add\n    /* \"#utility.yul\":4983:5032   */\n  mstore\n    /* \"#utility.yul\":5082:5096   */\n  dup3\n  iszero\n    /* \"#utility.yul\":5075:5097   */\n  iszero\n    /* \"#utility.yul\":5072:5073   */\n  0x05\n    /* \"#utility.yul\":5068:5098   */\n  shl\n    /* \"#utility.yul\":5056:5099   */\n  dup7\n  add\n    /* \"#utility.yul\":5052:5104   */\n  dup8\n  add\n  swap5\n  pop\n    /* \"#utility.yul\":4962:5114   */\n  jump(tag_73)\n    /* \"#utility.yul\":5123:5471   */\ntag_75:\n    /* \"#utility.yul\":5154:5160   */\n  dup10\n    /* \"#utility.yul\":5151:5152   */\n  0x00\n    /* \"#utility.yul\":5144:5161   */\n  mstore\n    /* \"#utility.yul\":5202:5204   */\n  dup7\n    /* \"#utility.yul\":5199:5200   */\n  0x00\n    /* \"#utility.yul\":5189:5205   */\n  keccak256\n    /* \"#utility.yul\":5227:5228   */\n  0x00\n    /* \"#utility.yul\":5241:5418   */\ntag_76:\n    /* \"#utility.yul\":5255:5261   */\n  dup5\n    /* \"#utility.yul\":5252:5253   */\n  dup2\n    /* \"#utility.yul\":5249:5262   */\n  lt\n    /* \"#utility.yul\":5241:5418   */\n  iszero\n  tag_78\n  jumpi\n    /* \"#utility.yul\":5345:5359   */\n  dup2\n  sload\n    /* \"#utility.yul\":5324:5338   */\n  dup9\n  dup3\n  add\n    /* \"#utility.yul\":5320:5343   */\n  dup11\n  add\n    /* \"#utility.yul\":5313:5360   */\n  mstore\n    /* \"#utility.yul\":5388:5404   */\n  swap1\n  dup4\n  add\n  swap1\n    /* \"#utility.yul\":5270:5280   */\n  dup9\n  add\n    /* \"#utility.yul\":5241:5418   */\n  jump(tag_76)\ntag_78:\n    /* \"#utility.yul\":5442:5456   */\n  dup8\n  add\n    /* \"#utility.yul\":5438:5461   */\n  dup9\n  add\n  swap6\n  pop\n  pop\n    /* \"#utility.yul\":4928:5471   */\ntag_73:\n  pop\n    /* \"#utility.yul\":5488:5491   */\n  swap3\n  swap12\n    /* \"#utility.yul\":4168:5497   */\n  swap11\n  pop\n  pop\n  pop\n  pop\n  pop\n  pop\n  pop\n  pop\n  pop\n  pop\n  pop\n  jump\t// out\ntag_26:\n    /* \"v2/contracts/SoulSocietySBT.sol\":791:12604  contract SoulSocietySBT is ISoulSocietySBT, ISoulSocietySBTMetadata, ISoulSocietySBTErrors , IERC721, ERC165, Ownable {... */\n  dataSize(sub_0)\n  dup1\n  dataOffset(sub_0)\n  0x00\n  codecopy\n  0x00\n  return\nstop\n\nsub_0: assembly {\n        /* \"v2/contracts/SoulSocietySBT.sol\":791:12604  contract SoulSocietySBT is ISoulSocietySBT, ISoulSocietySBTMetadata, ISoulSocietySBTErrors , IERC721, ERC165, Ownable {... */\n      mstore(0x40, 0x80)\n      callvalue\n      dup1\n      iszero\n      tag_1\n      jumpi\n      0x00\n      dup1\n      revert\n    tag_1:\n      pop\n      jumpi(tag_2, lt(calldatasize, 0x04))\n      shr(0xe0, calldataload(0x00))\n      dup1\n      0x715018a6\n      gt\n      tag_31\n      jumpi\n      dup1\n      0xbe37e907\n      gt\n      tag_32\n      jumpi\n      dup1\n      0xe0df5b6f\n      gt\n      tag_33\n      jumpi\n      dup1\n      0xe0df5b6f\n      eq\n      tag_27\n      jumpi\n      dup1\n      0xe1604b70\n      eq\n      tag_28\n      jumpi\n      dup1\n      0xe985e9c5\n      eq\n      tag_29\n      jumpi\n      dup1\n      0xf2fde38b\n      eq\n      tag_30\n      jumpi\n      0x00\n      dup1\n      revert\n    tag_33:\n      dup1\n      0xbe37e907\n      eq\n      tag_24\n      jumpi\n      dup1\n      0xc87b56dd\n      eq\n      tag_25\n      jumpi\n      dup1\n      0xce35de95\n      eq\n      tag_26\n      jumpi\n      0x00\n      dup1\n      revert\n    tag_32:\n      dup1\n      0x95d89b41\n      gt\n      tag_34\n      jumpi\n      dup1\n      0x95d89b41\n      eq\n      tag_4\n      jumpi\n      dup1\n      0x9b252852\n      eq\n      tag_21\n      jumpi\n      dup1\n      0xa22cb465\n      eq\n      tag_22\n      jumpi\n      dup1\n      0xb88d4fde\n      eq\n      tag_23\n      jumpi\n      0x00\n      dup1\n      revert\n    tag_34:\n      dup1\n      0x715018a6\n      eq\n      tag_17\n      jumpi\n      dup1\n      0x76aed2e1\n      eq\n      tag_18\n      jumpi\n      dup1\n      0x8da5cb5b\n      eq\n      tag_19\n      jumpi\n      0x00\n      dup1\n      revert\n    tag_31:\n      dup1\n      0x23b872dd\n      gt\n      tag_35\n      jumpi\n      dup1\n      0x42842e0e\n      gt\n      tag_36\n      jumpi\n      dup1\n      0x42842e0e\n      eq\n      tag_13\n      jumpi\n      dup1\n      0x51c18e0c\n      eq\n      tag_14\n      jumpi\n      dup1\n      0x6352211e\n      eq\n      tag_15\n      jumpi\n      dup1\n      0x70a08231\n      eq\n      tag_16\n      jumpi\n      0x00\n      dup1\n      revert\n    tag_36:\n      dup1\n      0x23b872dd\n      eq\n      tag_10\n      jumpi\n      dup1\n      0x2f745c59\n      eq\n      tag_11\n      jumpi\n      dup1\n      0x40c10f19\n      eq\n      tag_12\n      jumpi\n      0x00\n      dup1\n      revert\n    tag_35:\n      dup1\n      0x095ea7b3\n      gt\n      tag_37\n      jumpi\n      dup1\n      0x095ea7b3\n      eq\n      tag_6\n      jumpi\n      dup1\n      0x18160ddd\n      eq\n      tag_7\n      jumpi\n      dup1\n      0x1c02bc31\n      eq\n      tag_8\n      jumpi\n      dup1\n      0x1f8eb677\n      eq\n      tag_9\n      jumpi\n      0x00\n      dup1\n      revert\n    tag_37:\n      dup1\n      0x01ffc9a7\n      eq\n      tag_3\n      jumpi\n      dup1\n      0x06fdde03\n      eq\n      tag_4\n      jumpi\n      dup1\n      0x081812fc\n      eq\n      tag_5\n      jumpi\n    tag_2:\n      0x00\n      dup1\n      revert\n        /* \"v2/contracts/SoulSocietySBT.sol\":2236:2473  function supportsInterface(bytes4 interfaceId) public view virtual override(ERC165, IERC165) returns (bool) {... */\n    tag_3:\n      tag_38\n      tag_39\n      calldatasize\n      0x04\n      tag_40\n      jump\t// in\n    tag_39:\n      tag_41\n      jump\t// in\n    tag_38:\n      mload(0x40)\n        /* \"#utility.yul\":565:579   */\n      swap1\n      iszero\n        /* \"#utility.yul\":558:580   */\n      iszero\n        /* \"#utility.yul\":540:581   */\n      dup2\n      mstore\n        /* \"#utility.yul\":528:530   */\n      0x20\n        /* \"#utility.yul\":513:531   */\n      add\n        /* \"v2/contracts/SoulSocietySBT.sol\":2236:2473  function supportsInterface(bytes4 interfaceId) public view virtual override(ERC165, IERC165) returns (bool) {... */\n    tag_42:\n      mload(0x40)\n      dup1\n      swap2\n      sub\n      swap1\n      return\n        /* \"v2/contracts/SoulSocietySBT.sol\":2732:2823  function name() external view virtual returns (string memory) {... */\n    tag_4:\n        /* \"v2/contracts/SoulSocietySBT.sol\":2811:2816  _name */\n      0x40\n      dup1\n      mload\n      dup1\n      dup3\n      add\n      swap1\n      swap2\n      mstore\n      0x06\n      dup2\n      mstore\n      shl(0xd2, 0x1213d394d095)\n      0x20\n      dup3\n      add\n      mstore\n        /* \"v2/contracts/SoulSocietySBT.sol\":2732:2823  function name() external view virtual returns (string memory) {... */\n    tag_44:\n      mload(0x40)\n      tag_42\n      swap2\n      swap1\n      tag_47\n      jump\t// in\n        /* \"v2/contracts/SoulSocietySBT.sol\":7048:7180  function getApproved(uint256 ) external pure returns (address )  {... */\n    tag_5:\n      tag_48\n      tag_49\n      calldatasize\n      0x04\n      tag_50\n      jump\t// in\n    tag_49:\n      tag_51\n      jump\t// in\n    tag_48:\n      mload(0x40)\n      sub(shl(0xa0, 0x01), 0x01)\n        /* \"#utility.yul\":1697:1729   */\n      swap1\n      swap2\n      and\n        /* \"#utility.yul\":1679:1730   */\n      dup2\n      mstore\n        /* \"#utility.yul\":1667:1669   */\n      0x20\n        /* \"#utility.yul\":1652:1670   */\n      add\n        /* \"v2/contracts/SoulSocietySBT.sol\":7048:7180  function getApproved(uint256 ) external pure returns (address )  {... */\n      tag_42\n        /* \"#utility.yul\":1533:1736   */\n      jump\n        /* \"v2/contracts/SoulSocietySBT.sol\":6796:6907  function approve(address , uint256 ) external pure{... */\n    tag_6:\n      tag_54\n      tag_55\n      calldatasize\n      0x04\n      tag_56\n      jump\t// in\n    tag_55:\n      tag_57\n      jump\t// in\n    tag_54:\n      stop\n        /* \"v2/contracts/SoulSocietySBT.sol\":3664:3753  function totalSupply() public view  returns (uint256) {... */\n    tag_7:\n        /* \"v2/contracts/SoulSocietySBT.sol\":3735:3746  _totalCount */\n      sload(0x03)\n        /* \"v2/contracts/SoulSocietySBT.sol\":3664:3753  function totalSupply() public view  returns (uint256) {... */\n    tag_58:\n      mload(0x40)\n        /* \"#utility.yul\":2324:2349   */\n      swap1\n      dup2\n      mstore\n        /* \"#utility.yul\":2312:2314   */\n      0x20\n        /* \"#utility.yul\":2297:2315   */\n      add\n        /* \"v2/contracts/SoulSocietySBT.sol\":3664:3753  function totalSupply() public view  returns (uint256) {... */\n      tag_42\n        /* \"#utility.yul\":2178:2355   */\n      jump\n        /* \"v2/contracts/SoulSocietySBT.sol\":4150:4428  function setProtected(bool isProtected_) public  returns (bool) {... */\n    tag_8:\n      tag_38\n      tag_63\n      calldatasize\n      0x04\n      tag_64\n      jump\t// in\n    tag_63:\n      tag_65\n      jump\t// in\n        /* \"v2/contracts/SoulSocietySBT.sol\":4434:4537  function getProtected(address to_) public view returns(bool) {... */\n    tag_9:\n      tag_38\n      tag_68\n      calldatasize\n      0x04\n      tag_69\n      jump\t// in\n    tag_68:\n      tag_70\n      jump\t// in\n        /* \"v2/contracts/SoulSocietySBT.sol\":6658:6790  function transferFrom(address , address , uint256 ) external pure {... */\n    tag_10:\n      tag_54\n      tag_73\n      calldatasize\n      0x04\n      tag_74\n      jump\t// in\n    tag_73:\n      tag_75\n      jump\t// in\n        /* \"v2/contracts/SoulSocietySBT.sol\":11044:11502  function tokenOfOwnerByIndex(address owner_, uint256 index_) public view returns (uint256) {... */\n    tag_11:\n      tag_58\n      tag_77\n      calldatasize\n      0x04\n      tag_56\n      jump\t// in\n    tag_77:\n      tag_78\n      jump\t// in\n        /* \"v2/contracts/SoulSocietySBT.sol\":7524:7663  function mint(address to_, uint256 tokenType_) public virtual onlyOwner returns(uint256) {... */\n    tag_12:\n      tag_58\n      tag_81\n      calldatasize\n      0x04\n      tag_56\n      jump\t// in\n    tag_81:\n      tag_82\n      jump\t// in\n        /* \"v2/contracts/SoulSocietySBT.sol\":6512:6652  function safeTransferFrom(address , address , uint256 ) external pure {... */\n    tag_13:\n      tag_54\n      tag_85\n      calldatasize\n      0x04\n      tag_74\n      jump\t// in\n    tag_85:\n      tag_86\n      jump\t// in\n        /* \"v2/contracts/SoulSocietySBT.sol\":9353:9584  function getGrowth(uint256 tokenId_) public view  returns (uint256) {... */\n    tag_14:\n      tag_58\n      tag_88\n      calldatasize\n      0x04\n      tag_50\n      jump\t// in\n    tag_88:\n      tag_89\n      jump\t// in\n        /* \"v2/contracts/SoulSocietySBT.sol\":5470:5707  function ownerOf(uint256 tokenId_) external  view  override  returns (address) {... */\n    tag_15:\n      tag_48\n      tag_92\n      calldatasize\n      0x04\n      tag_50\n      jump\t// in\n    tag_92:\n      tag_93\n      jump\t// in\n        /* \"v2/contracts/SoulSocietySBT.sol\":5932:6159  function balanceOf(address owner_) external  view  returns (uint256) {... */\n    tag_16:\n      tag_58\n      tag_96\n      calldatasize\n      0x04\n      tag_69\n      jump\t// in\n    tag_96:\n      tag_97\n      jump\t// in\n        /* \"@openzeppelin/contracts/access/Ownable.sol\":1824:1925  function renounceOwnership() public virtual onlyOwner {... */\n    tag_17:\n      tag_54\n      tag_100\n      jump\t// in\n        /* \"v2/contracts/SoulSocietySBT.sol\":3760:3916  function getTokenType(uint256 tokenId_) public view returns (uint256) {... */\n    tag_18:\n      tag_58\n      tag_102\n      calldatasize\n      0x04\n      tag_50\n      jump\t// in\n    tag_102:\n      tag_103\n      jump\t// in\n        /* \"@openzeppelin/contracts/access/Ownable.sol\":1201:1286  function owner() public view virtual returns (address) {... */\n    tag_19:\n        /* \"@openzeppelin/contracts/access/Ownable.sol\":1247:1254  address */\n      0x00\n        /* \"@openzeppelin/contracts/access/Ownable.sol\":1273:1279  _owner */\n      sload\n      sub(shl(0xa0, 0x01), 0x01)\n      and\n        /* \"@openzeppelin/contracts/access/Ownable.sol\":1201:1286  function owner() public view virtual returns (address) {... */\n      jump(tag_48)\n        /* \"v2/contracts/SoulSocietySBT.sol\":8706:8903  function reset(address to_, uint256 tokenId_) public  {... */\n    tag_21:\n      tag_54\n      tag_112\n      calldatasize\n      0x04\n      tag_56\n      jump\t// in\n    tag_112:\n      tag_113\n      jump\t// in\n        /* \"v2/contracts/SoulSocietySBT.sol\":6913:7042  function setApprovalForAll(address , bool ) external pure {... */\n    tag_22:\n      tag_54\n      tag_115\n      calldatasize\n      0x04\n      tag_116\n      jump\t// in\n    tag_115:\n      tag_117\n      jump\t// in\n        /* \"v2/contracts/SoulSocietySBT.sol\":6341:6506  function safeTransferFrom(address , address , uint256 , bytes calldata) external pure {... */\n    tag_23:\n      tag_54\n      tag_85\n      calldatasize\n      0x04\n      tag_120\n      jump\t// in\n        /* \"v2/contracts/SoulSocietySBT.sol\":10380:10508  function growUp(address to_, uint256 tokenId_) public  onlyOwner returns(uint256) {... */\n    tag_24:\n      tag_58\n      tag_123\n      calldatasize\n      0x04\n      tag_56\n      jump\t// in\n    tag_123:\n      tag_124\n      jump\t// in\n        /* \"v2/contracts/SoulSocietySBT.sol\":3045:3366  function tokenURI(uint256 tokenId_) external view virtual  returns (string memory) {       ... */\n    tag_25:\n      tag_44\n      tag_127\n      calldatasize\n      0x04\n      tag_50\n      jump\t// in\n    tag_127:\n      tag_128\n      jump\t// in\n        /* \"v2/contracts/SoulSocietySBT.sol\":4713:4817  function isProtected(address to_) external view returns (bool) {... */\n    tag_26:\n      tag_38\n      tag_131\n      calldatasize\n      0x04\n      tag_69\n      jump\t// in\n    tag_131:\n      tag_132\n      jump\t// in\n        /* \"v2/contracts/SoulSocietySBT.sol\":3373:3566  function setTokenURI(string memory tokenURI_) external onlyOwner returns(string memory) {... */\n    tag_27:\n      tag_44\n      tag_135\n      calldatasize\n      0x04\n      tag_136\n      jump\t// in\n    tag_135:\n      tag_137\n      jump\t// in\n        /* \"v2/contracts/SoulSocietySBT.sol\":3572:3658  function totalUser() public view  returns (uint256) {... */\n    tag_28:\n        /* \"v2/contracts/SoulSocietySBT.sol\":3641:3651  _totalUser */\n      sload(0x02)\n        /* \"v2/contracts/SoulSocietySBT.sol\":3572:3658  function totalUser() public view  returns (uint256) {... */\n      jump(tag_58)\n        /* \"v2/contracts/SoulSocietySBT.sol\":7186:7329  function isApprovedForAll(address , address ) public pure returns (bool) {... */\n    tag_29:\n      tag_38\n      tag_143\n      calldatasize\n      0x04\n      tag_144\n      jump\t// in\n    tag_143:\n      tag_145\n      jump\t// in\n        /* \"@openzeppelin/contracts/access/Ownable.sol\":2074:2272  function transferOwnership(address newOwner) public virtual onlyOwner {... */\n    tag_30:\n      tag_54\n      tag_148\n      calldatasize\n      0x04\n      tag_69\n      jump\t// in\n    tag_148:\n      tag_149\n      jump\t// in\n        /* \"v2/contracts/SoulSocietySBT.sol\":2236:2473  function supportsInterface(bytes4 interfaceId) public view virtual override(ERC165, IERC165) returns (bool) {... */\n    tag_41:\n        /* \"v2/contracts/SoulSocietySBT.sol\":2338:2342  bool */\n      0x00\n      not(sub(shl(0xe0, 0x01), 0x01))\n        /* \"v2/contracts/SoulSocietySBT.sol\":2374:2414  interfaceId == type(IERC721).interfaceId */\n      dup3\n      and\n      shl(0xe0, 0x80ac58cd)\n      eq\n      dup1\n        /* \"v2/contracts/SoulSocietySBT.sol\":2374:2466  interfaceId == type(IERC721).interfaceId ||... */\n      tag_152\n      jumpi\n      pop\n      shl(0xe0, 0x01ffc9a7)\n      not(sub(shl(0xe0, 0x01), 0x01))\n        /* \"@openzeppelin/contracts/utils/introspection/ERC165.sol\":937:977  interfaceId == type(IERC165).interfaceId */\n      dup4\n      and\n      eq\n        /* \"v2/contracts/SoulSocietySBT.sol\":2430:2466  super.supportsInterface(interfaceId) */\n    tag_152:\n        /* \"v2/contracts/SoulSocietySBT.sol\":2354:2466  return ... */\n      swap3\n        /* \"v2/contracts/SoulSocietySBT.sol\":2236:2473  function supportsInterface(bytes4 interfaceId) public view virtual override(ERC165, IERC165) returns (bool) {... */\n      swap2\n      pop\n      pop\n      jump\t// out\n        /* \"v2/contracts/SoulSocietySBT.sol\":7048:7180  function getApproved(uint256 ) external pure returns (address )  {... */\n    tag_51:\n        /* \"v2/contracts/SoulSocietySBT.sol\":7130:7171  SoulSocietySBTNotSupported(\"getApproved\") */\n      mload(0x40)\n      shl(0xe3, 0x13f8dceb)\n      dup2\n      mstore\n        /* \"#utility.yul\":5832:5834   */\n      0x20\n        /* \"v2/contracts/SoulSocietySBT.sol\":7130:7171  SoulSocietySBTNotSupported(\"getApproved\") */\n      0x04\n      dup3\n      add\n        /* \"#utility.yul\":5814:5835   */\n      mstore\n        /* \"#utility.yul\":5871:5873   */\n      0x0b\n        /* \"#utility.yul\":5851:5869   */\n      0x24\n      dup3\n      add\n        /* \"#utility.yul\":5844:5874   */\n      mstore\n      shl(0xaa, 0x19d95d105c1c1c9bdd9959)\n        /* \"#utility.yul\":5890:5908   */\n      0x44\n      dup3\n      add\n        /* \"#utility.yul\":5883:5924   */\n      mstore\n        /* \"v2/contracts/SoulSocietySBT.sol\":7102:7109  address */\n      0x00\n      swap1\n        /* \"#utility.yul\":5941:5959   */\n      0x64\n      add\n        /* \"v2/contracts/SoulSocietySBT.sol\":7130:7171  SoulSocietySBTNotSupported(\"getApproved\") */\n    tag_156:\n      mload(0x40)\n      dup1\n      swap2\n      sub\n      swap1\n      revert\n        /* \"v2/contracts/SoulSocietySBT.sol\":6796:6907  function approve(address , uint256 ) external pure{... */\n    tag_57:\n        /* \"v2/contracts/SoulSocietySBT.sol\":6863:6900  SoulSocietySBTNotSupported(\"approve\") */\n      mload(0x40)\n      shl(0xe3, 0x13f8dceb)\n      dup2\n      mstore\n        /* \"#utility.yul\":6172:6174   */\n      0x20\n        /* \"v2/contracts/SoulSocietySBT.sol\":6863:6900  SoulSocietySBTNotSupported(\"approve\") */\n      0x04\n      dup3\n      add\n        /* \"#utility.yul\":6154:6175   */\n      mstore\n        /* \"#utility.yul\":6211:6212   */\n      0x07\n        /* \"#utility.yul\":6191:6209   */\n      0x24\n      dup3\n      add\n        /* \"#utility.yul\":6184:6213   */\n      mstore\n      shl(0xc8, 0x617070726f7665)\n        /* \"#utility.yul\":6229:6247   */\n      0x44\n      dup3\n      add\n        /* \"#utility.yul\":6222:6259   */\n      mstore\n        /* \"#utility.yul\":6276:6294   */\n      0x64\n      add\n        /* \"v2/contracts/SoulSocietySBT.sol\":6863:6900  SoulSocietySBTNotSupported(\"approve\") */\n      tag_156\n        /* \"#utility.yul\":5970:6300   */\n      jump\n        /* \"v2/contracts/SoulSocietySBT.sol\":4150:4428  function setProtected(bool isProtected_) public  returns (bool) {... */\n    tag_65:\n        /* \"v2/contracts/SoulSocietySBT.sol\":4241:4251  msg.sender */\n      caller\n        /* \"v2/contracts/SoulSocietySBT.sol\":4208:4212  bool */\n      0x00\n        /* \"v2/contracts/SoulSocietySBT.sol\":6250:6267  _balances[owner_] */\n      swap1\n      dup2\n      mstore\n        /* \"v2/contracts/SoulSocietySBT.sol\":6250:6259  _balances */\n      0x07\n        /* \"v2/contracts/SoulSocietySBT.sol\":6250:6267  _balances[owner_] */\n      0x20\n      mstore\n      0x40\n      dup2\n      keccak256\n      sload\n        /* \"v2/contracts/SoulSocietySBT.sol\":4208:4212  bool */\n      dup2\n      lt\n        /* \"v2/contracts/SoulSocietySBT.sol\":4224:4329  if (!(_balanceOf(msg.sender) > 0)) {... */\n      tag_165\n      jumpi\n        /* \"v2/contracts/SoulSocietySBT.sol\":4280:4318  SoulSocietySBTInvalidOwner(msg.sender) */\n      mload(0x40)\n      shl(0xe0, 0x50159299)\n      dup2\n      mstore\n        /* \"v2/contracts/SoulSocietySBT.sol\":4307:4317  msg.sender */\n      caller\n        /* \"v2/contracts/SoulSocietySBT.sol\":4280:4318  SoulSocietySBTInvalidOwner(msg.sender) */\n      0x04\n      dup3\n      add\n        /* \"#utility.yul\":1679:1730   */\n      mstore\n        /* \"#utility.yul\":1652:1670   */\n      0x24\n      add\n        /* \"v2/contracts/SoulSocietySBT.sol\":4280:4318  SoulSocietySBTInvalidOwner(msg.sender) */\n      tag_156\n        /* \"#utility.yul\":1533:1736   */\n      jump\n        /* \"v2/contracts/SoulSocietySBT.sol\":4224:4329  if (!(_balanceOf(msg.sender) > 0)) {... */\n    tag_165:\n        /* \"v2/contracts/SoulSocietySBT.sol\":4353:4363  msg.sender */\n      caller\n        /* \"v2/contracts/SoulSocietySBT.sol\":4339:4364  _userProtects[msg.sender] */\n      0x00\n      dup2\n      dup2\n      mstore\n        /* \"v2/contracts/SoulSocietySBT.sol\":4339:4352  _userProtects */\n      0x08\n        /* \"v2/contracts/SoulSocietySBT.sol\":4339:4364  _userProtects[msg.sender] */\n      0x20\n      mstore\n      0x40\n      swap1\n      keccak256\n        /* \"v2/contracts/SoulSocietySBT.sol\":4339:4379  _userProtects[msg.sender] = isProtected_ */\n      dup1\n      sload\n      not(0xff)\n      and\n      dup5\n      iszero\n      iszero\n      or\n      swap1\n      sstore\n        /* \"v2/contracts/SoulSocietySBT.sol\":4397:4421  getProtected(msg.sender) */\n      tag_152\n      swap1\n        /* \"v2/contracts/SoulSocietySBT.sol\":4434:4537  function getProtected(address to_) public view returns(bool) {... */\n    tag_70:\n      sub(shl(0xa0, 0x01), 0x01)\n        /* \"v2/contracts/SoulSocietySBT.sol\":4682:4700  _userProtects[to_] */\n      dup2\n      and\n        /* \"v2/contracts/SoulSocietySBT.sol\":4489:4493  bool */\n      0x00\n        /* \"v2/contracts/SoulSocietySBT.sol\":4682:4700  _userProtects[to_] */\n      swap1\n      dup2\n      mstore\n        /* \"v2/contracts/SoulSocietySBT.sol\":4682:4695  _userProtects */\n      0x08\n        /* \"v2/contracts/SoulSocietySBT.sol\":4682:4700  _userProtects[to_] */\n      0x20\n      mstore\n      0x40\n      dup2\n      keccak256\n      sload\n      0xff\n      and\n        /* \"v2/contracts/SoulSocietySBT.sol\":4512:4530  _getProtected(to_) */\n      tag_152\n        /* \"v2/contracts/SoulSocietySBT.sol\":4543:4707  function _getProtected(address to_) internal  view returns(bool) {... */\n      jump\n        /* \"v2/contracts/SoulSocietySBT.sol\":6658:6790  function transferFrom(address , address , uint256 ) external pure {... */\n    tag_75:\n        /* \"v2/contracts/SoulSocietySBT.sol\":6741:6783  SoulSocietySBTNotSupported(\"transferFrom\") */\n      mload(0x40)\n      shl(0xe3, 0x13f8dceb)\n      dup2\n      mstore\n        /* \"#utility.yul\":6507:6509   */\n      0x20\n        /* \"v2/contracts/SoulSocietySBT.sol\":6741:6783  SoulSocietySBTNotSupported(\"transferFrom\") */\n      0x04\n      dup3\n      add\n        /* \"#utility.yul\":6489:6510   */\n      mstore\n        /* \"#utility.yul\":6546:6548   */\n      0x0c\n        /* \"#utility.yul\":6526:6544   */\n      0x24\n      dup3\n      add\n        /* \"#utility.yul\":6519:6549   */\n      mstore\n      shl(0xa0, 0x7472616e7366657246726f6d)\n        /* \"#utility.yul\":6565:6583   */\n      0x44\n      dup3\n      add\n        /* \"#utility.yul\":6558:6600   */\n      mstore\n        /* \"#utility.yul\":6617:6635   */\n      0x64\n      add\n        /* \"v2/contracts/SoulSocietySBT.sol\":6741:6783  SoulSocietySBTNotSupported(\"transferFrom\") */\n      tag_156\n        /* \"#utility.yul\":6305:6641   */\n      jump\n        /* \"v2/contracts/SoulSocietySBT.sol\":11044:11502  function tokenOfOwnerByIndex(address owner_, uint256 index_) public view returns (uint256) {... */\n    tag_78:\n        /* \"v2/contracts/SoulSocietySBT.sol\":11126:11133  uint256 */\n      0x00\n        /* \"v2/contracts/SoulSocietySBT.sol\":11220:11240  _isProtected(owner_) */\n      tag_175\n        /* \"v2/contracts/SoulSocietySBT.sol\":11233:11239  owner_ */\n      dup4\n        /* \"v2/contracts/SoulSocietySBT.sol\":11220:11232  _isProtected */\n      tag_176\n        /* \"v2/contracts/SoulSocietySBT.sol\":11220:11240  _isProtected(owner_) */\n      jump\t// in\n    tag_175:\n      pop\n      sub(shl(0xa0, 0x01), 0x01)\n        /* \"v2/contracts/SoulSocietySBT.sol\":6250:6267  _balances[owner_] */\n      dup4\n      and\n        /* \"v2/contracts/SoulSocietySBT.sol\":6224:6231  uint256 */\n      0x00\n        /* \"v2/contracts/SoulSocietySBT.sol\":6250:6267  _balances[owner_] */\n      swap1\n      dup2\n      mstore\n        /* \"v2/contracts/SoulSocietySBT.sol\":6250:6259  _balances */\n      0x07\n        /* \"v2/contracts/SoulSocietySBT.sol\":6250:6267  _balances[owner_] */\n      0x20\n      mstore\n      0x40\n      swap1\n      keccak256\n      sload\n        /* \"v2/contracts/SoulSocietySBT.sol\":11259:11265  index_ */\n      dup3\n        /* \"v2/contracts/SoulSocietySBT.sol\":11259:11286  index_ < _balanceOf(owner_) */\n      lt\n        /* \"v2/contracts/SoulSocietySBT.sol\":11251:11303  require(index_ < _balanceOf(owner_), \"Out of Index\") */\n      tag_178\n      jumpi\n      mload(0x40)\n      shl(0xe5, 0x461bcd)\n      dup2\n      mstore\n        /* \"#utility.yul\":6848:6850   */\n      0x20\n        /* \"v2/contracts/SoulSocietySBT.sol\":11251:11303  require(index_ < _balanceOf(owner_), \"Out of Index\") */\n      0x04\n      dup3\n      add\n        /* \"#utility.yul\":6830:6851   */\n      mstore\n        /* \"#utility.yul\":6887:6889   */\n      0x0c\n        /* \"#utility.yul\":6867:6885   */\n      0x24\n      dup3\n      add\n        /* \"#utility.yul\":6860:6890   */\n      mstore\n      shl(0xa3, 0x09eeae840decc4092dcc8caf)\n        /* \"#utility.yul\":6906:6924   */\n      0x44\n      dup3\n      add\n        /* \"#utility.yul\":6899:6941   */\n      mstore\n        /* \"#utility.yul\":6958:6976   */\n      0x64\n      add\n        /* \"v2/contracts/SoulSocietySBT.sol\":11251:11303  require(index_ < _balanceOf(owner_), \"Out of Index\") */\n      tag_156\n        /* \"#utility.yul\":6646:6982   */\n      jump\n        /* \"v2/contracts/SoulSocietySBT.sol\":11251:11303  require(index_ < _balanceOf(owner_), \"Out of Index\") */\n    tag_178:\n      sub(shl(0xa0, 0x01), 0x01)\n        /* \"v2/contracts/SoulSocietySBT.sol\":11318:11338  owner_ == address(0) */\n      dup4\n      and\n        /* \"v2/contracts/SoulSocietySBT.sol\":11314:11413  if (owner_ == address(0)) {... */\n      tag_181\n      jumpi\n        /* \"v2/contracts/SoulSocietySBT.sol\":11361:11402  SoulSocietySBTInvalidReceiver(address(0)) */\n      mload(0x40)\n      shl(0xe0, 0x74f5e87d)\n      dup2\n      mstore\n        /* \"v2/contracts/SoulSocietySBT.sol\":11399:11400  0 */\n      0x00\n        /* \"v2/contracts/SoulSocietySBT.sol\":11361:11402  SoulSocietySBTInvalidReceiver(address(0)) */\n      0x04\n      dup3\n      add\n        /* \"#utility.yul\":1679:1730   */\n      mstore\n        /* \"#utility.yul\":1652:1670   */\n      0x24\n      add\n        /* \"v2/contracts/SoulSocietySBT.sol\":11361:11402  SoulSocietySBTInvalidReceiver(address(0)) */\n      tag_156\n        /* \"#utility.yul\":1533:1736   */\n      jump\n        /* \"v2/contracts/SoulSocietySBT.sol\":11314:11413  if (owner_ == address(0)) {... */\n    tag_181:\n      pop\n      sub(shl(0xa0, 0x01), 0x01)\n        /* \"v2/contracts/SoulSocietySBT.sol\":11441:11461  _ownedTokens[owner_] */\n      swap2\n      swap1\n      swap2\n      and\n        /* \"v2/contracts/SoulSocietySBT.sol\":11423:11438  uint256 tokenId */\n      0x00\n        /* \"v2/contracts/SoulSocietySBT.sol\":11441:11461  _ownedTokens[owner_] */\n      swap1\n      dup2\n      mstore\n        /* \"v2/contracts/SoulSocietySBT.sol\":11441:11453  _ownedTokens */\n      0x09\n        /* \"v2/contracts/SoulSocietySBT.sol\":11441:11461  _ownedTokens[owner_] */\n      0x20\n      swap1\n      dup2\n      mstore\n      0x40\n      dup1\n      dup4\n      keccak256\n        /* \"v2/contracts/SoulSocietySBT.sol\":11441:11469  _ownedTokens[owner_][index_] */\n      swap4\n      dup4\n      mstore\n      swap3\n      swap1\n      mstore\n      keccak256\n      sload\n      swap1\n        /* \"v2/contracts/SoulSocietySBT.sol\":11044:11502  function tokenOfOwnerByIndex(address owner_, uint256 index_) public view returns (uint256) {... */\n      jump\t// out\n        /* \"v2/contracts/SoulSocietySBT.sol\":7524:7663  function mint(address to_, uint256 tokenType_) public virtual onlyOwner returns(uint256) {... */\n    tag_82:\n        /* \"v2/contracts/SoulSocietySBT.sol\":7604:7611  uint256 */\n      0x00\n        /* \"@openzeppelin/contracts/access/Ownable.sol\":1094:1107  _checkOwner() */\n      tag_184\n        /* \"@openzeppelin/contracts/access/Ownable.sol\":1094:1105  _checkOwner */\n      tag_185\n        /* \"@openzeppelin/contracts/access/Ownable.sol\":1094:1107  _checkOwner() */\n      jump\t// in\n    tag_184:\n        /* \"v2/contracts/SoulSocietySBT.sol\":7630:7656  _safeMint(to_, tokenType_) */\n      tag_187\n        /* \"v2/contracts/SoulSocietySBT.sol\":7640:7643  to_ */\n      dup4\n        /* \"v2/contracts/SoulSocietySBT.sol\":7645:7655  tokenType_ */\n      dup4\n        /* \"v2/contracts/SoulSocietySBT.sol\":7630:7639  _safeMint */\n      tag_188\n        /* \"v2/contracts/SoulSocietySBT.sol\":7630:7656  _safeMint(to_, tokenType_) */\n      jump\t// in\n    tag_187:\n        /* \"v2/contracts/SoulSocietySBT.sol\":7623:7656  return _safeMint(to_, tokenType_) */\n      swap4\n        /* \"v2/contracts/SoulSocietySBT.sol\":7524:7663  function mint(address to_, uint256 tokenType_) public virtual onlyOwner returns(uint256) {... */\n      swap3\n      pop\n      pop\n      pop\n      jump\t// out\n        /* \"v2/contracts/SoulSocietySBT.sol\":6512:6652  function safeTransferFrom(address , address , uint256 ) external pure {... */\n    tag_86:\n        /* \"v2/contracts/SoulSocietySBT.sol\":6599:6645  SoulSocietySBTNotSupported(\"safeTransferFrom\") */\n      mload(0x40)\n      shl(0xe3, 0x13f8dceb)\n      dup2\n      mstore\n        /* \"#utility.yul\":7189:7191   */\n      0x20\n        /* \"v2/contracts/SoulSocietySBT.sol\":6599:6645  SoulSocietySBTNotSupported(\"safeTransferFrom\") */\n      0x04\n      dup3\n      add\n        /* \"#utility.yul\":7171:7192   */\n      mstore\n        /* \"#utility.yul\":7228:7230   */\n      0x10\n        /* \"#utility.yul\":7208:7226   */\n      0x24\n      dup3\n      add\n        /* \"#utility.yul\":7201:7231   */\n      mstore\n      shl(0x80, 0x736166655472616e7366657246726f6d)\n        /* \"#utility.yul\":7247:7265   */\n      0x44\n      dup3\n      add\n        /* \"#utility.yul\":7240:7286   */\n      mstore\n        /* \"#utility.yul\":7303:7321   */\n      0x64\n      add\n        /* \"v2/contracts/SoulSocietySBT.sol\":6599:6645  SoulSocietySBTNotSupported(\"safeTransferFrom\") */\n      tag_156\n        /* \"#utility.yul\":6987:7327   */\n      jump\n        /* \"v2/contracts/SoulSocietySBT.sol\":9353:9584  function getGrowth(uint256 tokenId_) public view  returns (uint256) {... */\n    tag_89:\n        /* \"v2/contracts/SoulSocietySBT.sol\":9412:9419  uint256 */\n      0x00\n        /* \"v2/contracts/SoulSocietySBT.sol\":9507:9536  _isProtectedTokenId(tokenId_) */\n      tag_193\n        /* \"v2/contracts/SoulSocietySBT.sol\":9527:9535  tokenId_ */\n      dup3\n        /* \"v2/contracts/SoulSocietySBT.sol\":9507:9526  _isProtectedTokenId */\n      tag_194\n        /* \"v2/contracts/SoulSocietySBT.sol\":9507:9536  _isProtectedTokenId(tokenId_) */\n      jump\t// in\n    tag_193:\n      pop\n        /* \"v2/contracts/SoulSocietySBT.sol\":9554:9577  _tokenGrowths[tokenId_] */\n      0x00\n      swap1\n      dup2\n      mstore\n        /* \"v2/contracts/SoulSocietySBT.sol\":9554:9567  _tokenGrowths */\n      0x06\n        /* \"v2/contracts/SoulSocietySBT.sol\":9554:9577  _tokenGrowths[tokenId_] */\n      0x20\n      mstore\n      0x40\n      swap1\n      keccak256\n      sload\n      swap1\n        /* \"v2/contracts/SoulSocietySBT.sol\":9353:9584  function getGrowth(uint256 tokenId_) public view  returns (uint256) {... */\n      jump\t// out\n        /* \"v2/contracts/SoulSocietySBT.sol\":5470:5707  function ownerOf(uint256 tokenId_) external  view  override  returns (address) {... */\n    tag_93:\n        /* \"v2/contracts/SoulSocietySBT.sol\":5540:5547  address */\n      0x00\n        /* \"v2/contracts/SoulSocietySBT.sol\":5636:5665  _isProtectedTokenId(tokenId_) */\n      tag_196\n        /* \"v2/contracts/SoulSocietySBT.sol\":5656:5664  tokenId_ */\n      dup3\n        /* \"v2/contracts/SoulSocietySBT.sol\":5636:5655  _isProtectedTokenId */\n      tag_194\n        /* \"v2/contracts/SoulSocietySBT.sol\":5636:5665  _isProtectedTokenId(tokenId_) */\n      jump\t// in\n    tag_196:\n      pop\n        /* \"v2/contracts/SoulSocietySBT.sol\":5683:5700  _owners[tokenId_] */\n      0x00\n      swap1\n      dup2\n      mstore\n        /* \"v2/contracts/SoulSocietySBT.sol\":5683:5690  _owners */\n      0x04\n        /* \"v2/contracts/SoulSocietySBT.sol\":5683:5700  _owners[tokenId_] */\n      0x20\n      mstore\n      0x40\n      swap1\n      keccak256\n      sload\n      sub(shl(0xa0, 0x01), 0x01)\n      and\n      swap1\n        /* \"v2/contracts/SoulSocietySBT.sol\":5470:5707  function ownerOf(uint256 tokenId_) external  view  override  returns (address) {... */\n      jump\t// out\n        /* \"v2/contracts/SoulSocietySBT.sol\":5932:6159  function balanceOf(address owner_) external  view  returns (uint256) {... */\n    tag_97:\n        /* \"v2/contracts/SoulSocietySBT.sol\":5992:5999  uint256 */\n      0x00\n        /* \"v2/contracts/SoulSocietySBT.sol\":6088:6108  _isProtected(owner_) */\n      tag_198\n        /* \"v2/contracts/SoulSocietySBT.sol\":6101:6107  owner_ */\n      dup3\n        /* \"v2/contracts/SoulSocietySBT.sol\":6088:6100  _isProtected */\n      tag_176\n        /* \"v2/contracts/SoulSocietySBT.sol\":6088:6108  _isProtected(owner_) */\n      jump\t// in\n    tag_198:\n      pop\n      sub(shl(0xa0, 0x01), 0x01)\n        /* \"v2/contracts/SoulSocietySBT.sol\":6250:6267  _balances[owner_] */\n      dup3\n      and\n        /* \"v2/contracts/SoulSocietySBT.sol\":6224:6231  uint256 */\n      0x00\n        /* \"v2/contracts/SoulSocietySBT.sol\":6250:6267  _balances[owner_] */\n      swap1\n      dup2\n      mstore\n        /* \"v2/contracts/SoulSocietySBT.sol\":6250:6259  _balances */\n      0x07\n        /* \"v2/contracts/SoulSocietySBT.sol\":6250:6267  _balances[owner_] */\n      0x20\n      mstore\n      0x40\n      swap1\n      keccak256\n      sload\n        /* \"v2/contracts/SoulSocietySBT.sol\":6134:6152  _balanceOf(owner_) */\n      tag_152\n        /* \"v2/contracts/SoulSocietySBT.sol\":6165:6274  function _balanceOf(address owner_) internal view returns (uint256) {... */\n      jump\n        /* \"@openzeppelin/contracts/access/Ownable.sol\":1824:1925  function renounceOwnership() public virtual onlyOwner {... */\n    tag_100:\n        /* \"@openzeppelin/contracts/access/Ownable.sol\":1094:1107  _checkOwner() */\n      tag_201\n        /* \"@openzeppelin/contracts/access/Ownable.sol\":1094:1105  _checkOwner */\n      tag_185\n        /* \"@openzeppelin/contracts/access/Ownable.sol\":1094:1107  _checkOwner() */\n      jump\t// in\n    tag_201:\n        /* \"@openzeppelin/contracts/access/Ownable.sol\":1888:1918  _transferOwnership(address(0)) */\n      tag_203\n        /* \"@openzeppelin/contracts/access/Ownable.sol\":1915:1916  0 */\n      0x00\n        /* \"@openzeppelin/contracts/access/Ownable.sol\":1888:1906  _transferOwnership */\n      tag_204\n        /* \"@openzeppelin/contracts/access/Ownable.sol\":1888:1918  _transferOwnership(address(0)) */\n      jump\t// in\n    tag_203:\n        /* \"@openzeppelin/contracts/access/Ownable.sol\":1824:1925  function renounceOwnership() public virtual onlyOwner {... */\n      jump\t// out\n        /* \"v2/contracts/SoulSocietySBT.sol\":3760:3916  function getTokenType(uint256 tokenId_) public view returns (uint256) {... */\n    tag_103:\n        /* \"v2/contracts/SoulSocietySBT.sol\":3821:3828  uint256 */\n      0x00\n        /* \"v2/contracts/SoulSocietySBT.sol\":3841:3870  _isProtectedTokenId(tokenId_) */\n      tag_206\n        /* \"v2/contracts/SoulSocietySBT.sol\":3861:3869  tokenId_ */\n      dup3\n        /* \"v2/contracts/SoulSocietySBT.sol\":3841:3860  _isProtectedTokenId */\n      tag_194\n        /* \"v2/contracts/SoulSocietySBT.sol\":3841:3870  _isProtectedTokenId(tokenId_) */\n      jump\t// in\n    tag_206:\n      pop\n        /* \"v2/contracts/SoulSocietySBT.sol\":3888:3909  _tokenTypes[tokenId_] */\n      0x00\n      swap1\n      dup2\n      mstore\n        /* \"v2/contracts/SoulSocietySBT.sol\":3888:3899  _tokenTypes */\n      0x05\n        /* \"v2/contracts/SoulSocietySBT.sol\":3888:3909  _tokenTypes[tokenId_] */\n      0x20\n      mstore\n      0x40\n      swap1\n      keccak256\n      sload\n      swap1\n        /* \"v2/contracts/SoulSocietySBT.sol\":3760:3916  function getTokenType(uint256 tokenId_) public view returns (uint256) {... */\n      jump\t// out\n        /* \"v2/contracts/SoulSocietySBT.sol\":8706:8903  function reset(address to_, uint256 tokenId_) public  {... */\n    tag_113:\n        /* \"v2/contracts/SoulSocietySBT.sol\":8774:8784  msg.sender */\n      caller\n      sub(shl(0xa0, 0x01), 0x01)\n        /* \"v2/contracts/SoulSocietySBT.sol\":8774:8791  msg.sender != to_ */\n      dup4\n      and\n      eq\n        /* \"v2/contracts/SoulSocietySBT.sol\":8770:8856  if (msg.sender != to_) {... */\n      tag_210\n      jumpi\n        /* \"v2/contracts/SoulSocietySBT.sol\":8814:8845  SoulSocietySBTInvalidOwner(to_) */\n      mload(0x40)\n      shl(0xe0, 0x50159299)\n      dup2\n      mstore\n      sub(shl(0xa0, 0x01), 0x01)\n        /* \"#utility.yul\":1697:1729   */\n      dup4\n      and\n        /* \"v2/contracts/SoulSocietySBT.sol\":8814:8845  SoulSocietySBTInvalidOwner(to_) */\n      0x04\n      dup3\n      add\n        /* \"#utility.yul\":1679:1730   */\n      mstore\n        /* \"#utility.yul\":1652:1670   */\n      0x24\n      add\n        /* \"v2/contracts/SoulSocietySBT.sol\":8814:8845  SoulSocietySBTInvalidOwner(to_) */\n      tag_156\n        /* \"#utility.yul\":1533:1736   */\n      jump\n        /* \"v2/contracts/SoulSocietySBT.sol\":8770:8856  if (msg.sender != to_) {... */\n    tag_210:\n        /* \"v2/contracts/SoulSocietySBT.sol\":8865:8896  _setGrowthToZero(to_, tokenId_) */\n      tag_212\n        /* \"v2/contracts/SoulSocietySBT.sol\":8882:8885  to_ */\n      dup3\n        /* \"v2/contracts/SoulSocietySBT.sol\":8887:8895  tokenId_ */\n      dup3\n        /* \"v2/contracts/SoulSocietySBT.sol\":8865:8881  _setGrowthToZero */\n      tag_213\n        /* \"v2/contracts/SoulSocietySBT.sol\":8865:8896  _setGrowthToZero(to_, tokenId_) */\n      jump\t// in\n    tag_212:\n        /* \"v2/contracts/SoulSocietySBT.sol\":8706:8903  function reset(address to_, uint256 tokenId_) public  {... */\n      pop\n      pop\n      jump\t// out\n        /* \"v2/contracts/SoulSocietySBT.sol\":6913:7042  function setApprovalForAll(address , bool ) external pure {... */\n    tag_117:\n        /* \"v2/contracts/SoulSocietySBT.sol\":6988:7035  SoulSocietySBTNotSupported(\"setApprovalForAll\") */\n      mload(0x40)\n      shl(0xe3, 0x13f8dceb)\n      dup2\n      mstore\n        /* \"#utility.yul\":7534:7536   */\n      0x20\n        /* \"v2/contracts/SoulSocietySBT.sol\":6988:7035  SoulSocietySBTNotSupported(\"setApprovalForAll\") */\n      0x04\n      dup3\n      add\n        /* \"#utility.yul\":7516:7537   */\n      mstore\n        /* \"#utility.yul\":7573:7575   */\n      0x11\n        /* \"#utility.yul\":7553:7571   */\n      0x24\n      dup3\n      add\n        /* \"#utility.yul\":7546:7576   */\n      mstore\n      shl(0x7a, 0x1cd95d105c1c1c9bdd985b119bdc905b1b)\n        /* \"#utility.yul\":7592:7610   */\n      0x44\n      dup3\n      add\n        /* \"#utility.yul\":7585:7632   */\n      mstore\n        /* \"#utility.yul\":7649:7667   */\n      0x64\n      add\n        /* \"v2/contracts/SoulSocietySBT.sol\":6988:7035  SoulSocietySBTNotSupported(\"setApprovalForAll\") */\n      tag_156\n        /* \"#utility.yul\":7332:7673   */\n      jump\n        /* \"v2/contracts/SoulSocietySBT.sol\":10380:10508  function growUp(address to_, uint256 tokenId_) public  onlyOwner returns(uint256) {... */\n    tag_124:\n        /* \"v2/contracts/SoulSocietySBT.sol\":10453:10460  uint256 */\n      0x00\n        /* \"@openzeppelin/contracts/access/Ownable.sol\":1094:1107  _checkOwner() */\n      tag_220\n        /* \"@openzeppelin/contracts/access/Ownable.sol\":1094:1105  _checkOwner */\n      tag_185\n        /* \"@openzeppelin/contracts/access/Ownable.sol\":1094:1107  _checkOwner() */\n      jump\t// in\n    tag_220:\n        /* \"v2/contracts/SoulSocietySBT.sol\":10479:10501  _growUp(to_, tokenId_) */\n      tag_187\n        /* \"v2/contracts/SoulSocietySBT.sol\":10487:10490  to_ */\n      dup4\n        /* \"v2/contracts/SoulSocietySBT.sol\":10492:10500  tokenId_ */\n      dup4\n        /* \"v2/contracts/SoulSocietySBT.sol\":10479:10486  _growUp */\n      tag_223\n        /* \"v2/contracts/SoulSocietySBT.sol\":10479:10501  _growUp(to_, tokenId_) */\n      jump\t// in\n        /* \"v2/contracts/SoulSocietySBT.sol\":3045:3366  function tokenURI(uint256 tokenId_) external view virtual  returns (string memory) {       ... */\n    tag_128:\n        /* \"v2/contracts/SoulSocietySBT.sol\":3113:3126  string memory */\n      0x60\n        /* \"v2/contracts/SoulSocietySBT.sol\":3180:3209  _isProtectedTokenId(tokenId_) */\n      tag_225\n        /* \"v2/contracts/SoulSocietySBT.sol\":3200:3208  tokenId_ */\n      dup3\n        /* \"v2/contracts/SoulSocietySBT.sol\":3180:3199  _isProtectedTokenId */\n      tag_194\n        /* \"v2/contracts/SoulSocietySBT.sol\":3180:3209  _isProtectedTokenId(tokenId_) */\n      jump\t// in\n    tag_225:\n        /* \"v2/contracts/SoulSocietySBT.sol\":3252:3253  0 */\n      0x00\n        /* \"v2/contracts/SoulSocietySBT.sol\":3237:3241  _uri */\n      0x01\n        /* \"v2/contracts/SoulSocietySBT.sol\":3231:3249  bytes(_uri).length */\n      dup1\n      sload\n      tag_226\n      swap1\n      tag_227\n      jump\t// in\n    tag_226:\n      swap1\n      pop\n        /* \"v2/contracts/SoulSocietySBT.sol\":3231:3253  bytes(_uri).length > 0 */\n      gt\n        /* \"v2/contracts/SoulSocietySBT.sol\":3231:3359  bytes(_uri).length > 0 ? string(abi.encodePacked(_uri,tokenId_.toString(),\"?tokenType=\", _tokenTypes[tokenId_].toString())) : \"\" */\n      tag_228\n      jumpi\n      mload(0x40)\n      dup1\n      0x20\n      add\n      0x40\n      mstore\n      dup1\n      0x00\n      dup2\n      mstore\n      pop\n      jump(tag_152)\n    tag_228:\n        /* \"v2/contracts/SoulSocietySBT.sol\":3280:3284  _uri */\n      0x01\n        /* \"v2/contracts/SoulSocietySBT.sol\":3285:3304  tokenId_.toString() */\n      tag_230\n        /* \"v2/contracts/SoulSocietySBT.sol\":3285:3293  tokenId_ */\n      dup4\n        /* \"v2/contracts/SoulSocietySBT.sol\":3285:3302  tokenId_.toString */\n      tag_231\n        /* \"v2/contracts/SoulSocietySBT.sol\":3285:3304  tokenId_.toString() */\n      jump\t// in\n    tag_230:\n        /* \"v2/contracts/SoulSocietySBT.sol\":3320:3341  _tokenTypes[tokenId_] */\n      0x00\n      dup5\n      dup2\n      mstore\n        /* \"v2/contracts/SoulSocietySBT.sol\":3320:3331  _tokenTypes */\n      0x05\n        /* \"v2/contracts/SoulSocietySBT.sol\":3320:3341  _tokenTypes[tokenId_] */\n      0x20\n      mstore\n      0x40\n      swap1\n      keccak256\n      sload\n        /* \"v2/contracts/SoulSocietySBT.sol\":3320:3352  _tokenTypes[tokenId_].toString() */\n      tag_232\n      swap1\n        /* \"v2/contracts/SoulSocietySBT.sol\":3320:3350  _tokenTypes[tokenId_].toString */\n      tag_231\n        /* \"v2/contracts/SoulSocietySBT.sol\":3320:3352  _tokenTypes[tokenId_].toString() */\n      jump\t// in\n    tag_232:\n        /* \"v2/contracts/SoulSocietySBT.sol\":3263:3353  abi.encodePacked(_uri,tokenId_.toString(),\"?tokenType=\", _tokenTypes[tokenId_].toString()) */\n      add(0x20, mload(0x40))\n      tag_233\n      swap4\n      swap3\n      swap2\n      swap1\n      tag_234\n      jump\t// in\n    tag_233:\n      mload(0x40)\n      0x20\n      dup2\n      dup4\n      sub\n      sub\n      dup2\n      mstore\n      swap1\n      0x40\n      mstore\n        /* \"v2/contracts/SoulSocietySBT.sol\":3224:3359  return bytes(_uri).length > 0 ? string(abi.encodePacked(_uri,tokenId_.toString(),\"?tokenType=\", _tokenTypes[tokenId_].toString())) : \"\" */\n      swap3\n        /* \"v2/contracts/SoulSocietySBT.sol\":3045:3366  function tokenURI(uint256 tokenId_) external view virtual  returns (string memory) {       ... */\n      swap2\n      pop\n      pop\n      jump\t// out\n        /* \"v2/contracts/SoulSocietySBT.sol\":4713:4817  function isProtected(address to_) external view returns (bool) {... */\n    tag_132:\n        /* \"v2/contracts/SoulSocietySBT.sol\":4770:4774  bool */\n      0x00\n        /* \"v2/contracts/SoulSocietySBT.sol\":4793:4810  _isProtected(to_) */\n      tag_152\n        /* \"v2/contracts/SoulSocietySBT.sol\":4806:4809  to_ */\n      dup3\n        /* \"v2/contracts/SoulSocietySBT.sol\":4793:4805  _isProtected */\n      tag_176\n        /* \"v2/contracts/SoulSocietySBT.sol\":4793:4810  _isProtected(to_) */\n      jump\t// in\n        /* \"v2/contracts/SoulSocietySBT.sol\":3373:3566  function setTokenURI(string memory tokenURI_) external onlyOwner returns(string memory) {... */\n    tag_137:\n        /* \"v2/contracts/SoulSocietySBT.sol\":3446:3459  string memory */\n      0x60\n        /* \"@openzeppelin/contracts/access/Ownable.sol\":1094:1107  _checkOwner() */\n      tag_238\n        /* \"@openzeppelin/contracts/access/Ownable.sol\":1094:1105  _checkOwner */\n      tag_185\n        /* \"@openzeppelin/contracts/access/Ownable.sol\":1094:1107  _checkOwner() */\n      jump\t// in\n    tag_238:\n        /* \"v2/contracts/SoulSocietySBT.sol\":3471:3475  _uri */\n      0x01\n        /* \"v2/contracts/SoulSocietySBT.sol\":3471:3487  _uri = tokenURI_ */\n      tag_240\n        /* \"v2/contracts/SoulSocietySBT.sol\":3478:3487  tokenURI_ */\n      dup4\n        /* \"v2/contracts/SoulSocietySBT.sol\":3471:3475  _uri */\n      dup3\n        /* \"v2/contracts/SoulSocietySBT.sol\":3471:3487  _uri = tokenURI_ */\n      tag_241\n      jump\t// in\n    tag_240:\n      pop\n        /* \"v2/contracts/SoulSocietySBT.sol\":3515:3525  msg.sender */\n      caller\n      sub(shl(0xa0, 0x01), 0x01)\n        /* \"v2/contracts/SoulSocietySBT.sol\":3503:3537  SetTokenURI(msg.sender, tokenURI_) */\n      and\n      0x70e6a9dc20d331ce8e747d7de8444f26f544d9003beb11d8c46e802ab8d36fc9\n        /* \"v2/contracts/SoulSocietySBT.sol\":3527:3536  tokenURI_ */\n      dup4\n        /* \"v2/contracts/SoulSocietySBT.sol\":3503:3537  SetTokenURI(msg.sender, tokenURI_) */\n      mload(0x40)\n      tag_242\n      swap2\n      swap1\n      tag_47\n      jump\t// in\n    tag_242:\n      mload(0x40)\n      dup1\n      swap2\n      sub\n      swap1\n      log2\n        /* \"v2/contracts/SoulSocietySBT.sol\":3555:3559  _uri */\n      0x01\n        /* \"v2/contracts/SoulSocietySBT.sol\":3548:3559  return _uri */\n      dup1\n      sload\n      tag_243\n      swap1\n      tag_227\n      jump\t// in\n    tag_243:\n      dup1\n      0x1f\n      add\n      0x20\n      dup1\n      swap2\n      div\n      mul\n      0x20\n      add\n      mload(0x40)\n      swap1\n      dup2\n      add\n      0x40\n      mstore\n      dup1\n      swap3\n      swap2\n      swap1\n      dup2\n      dup2\n      mstore\n      0x20\n      add\n      dup3\n      dup1\n      sload\n      tag_244\n      swap1\n      tag_227\n      jump\t// in\n    tag_244:\n      dup1\n      iszero\n      tag_245\n      jumpi\n      dup1\n      0x1f\n      lt\n      tag_246\n      jumpi\n      0x0100\n      dup1\n      dup4\n      sload\n      div\n      mul\n      dup4\n      mstore\n      swap2\n      0x20\n      add\n      swap2\n      jump(tag_245)\n    tag_246:\n      dup3\n      add\n      swap2\n      swap1\n      0x00\n      mstore\n      keccak256(0x00, 0x20)\n      swap1\n    tag_247:\n      dup2\n      sload\n      dup2\n      mstore\n      swap1\n      0x01\n      add\n      swap1\n      0x20\n      add\n      dup1\n      dup4\n      gt\n      tag_247\n      jumpi\n      dup3\n      swap1\n      sub\n      0x1f\n      and\n      dup3\n      add\n      swap2\n    tag_245:\n      pop\n      pop\n      pop\n      pop\n      pop\n      swap1\n      pop\n        /* \"@openzeppelin/contracts/access/Ownable.sol\":1117:1118  _ */\n    tag_239:\n        /* \"v2/contracts/SoulSocietySBT.sol\":3373:3566  function setTokenURI(string memory tokenURI_) external onlyOwner returns(string memory) {... */\n      swap2\n      swap1\n      pop\n      jump\t// out\n        /* \"v2/contracts/SoulSocietySBT.sol\":7186:7329  function isApprovedForAll(address , address ) public pure returns (bool) {... */\n    tag_145:\n        /* \"v2/contracts/SoulSocietySBT.sol\":7276:7322  SoulSocietySBTNotSupported(\"isApprovedForAll\") */\n      mload(0x40)\n      shl(0xe3, 0x13f8dceb)\n      dup2\n      mstore\n        /* \"#utility.yul\":11857:11859   */\n      0x20\n        /* \"v2/contracts/SoulSocietySBT.sol\":7276:7322  SoulSocietySBTNotSupported(\"isApprovedForAll\") */\n      0x04\n      dup3\n      add\n        /* \"#utility.yul\":11839:11860   */\n      mstore\n        /* \"#utility.yul\":11896:11898   */\n      0x10\n        /* \"#utility.yul\":11876:11894   */\n      0x24\n      dup3\n      add\n        /* \"#utility.yul\":11869:11899   */\n      mstore\n      shl(0x82, 0x1a5cd05c1c1c9bdd9959119bdc905b1b)\n        /* \"#utility.yul\":11915:11933   */\n      0x44\n      dup3\n      add\n        /* \"#utility.yul\":11908:11954   */\n      mstore\n        /* \"v2/contracts/SoulSocietySBT.sol\":7253:7257  bool */\n      0x00\n      swap1\n        /* \"#utility.yul\":11971:11989   */\n      0x64\n      add\n        /* \"v2/contracts/SoulSocietySBT.sol\":7276:7322  SoulSocietySBTNotSupported(\"isApprovedForAll\") */\n      tag_156\n        /* \"#utility.yul\":11655:11995   */\n      jump\n        /* \"@openzeppelin/contracts/access/Ownable.sol\":2074:2272  function transferOwnership(address newOwner) public virtual onlyOwner {... */\n    tag_149:\n        /* \"@openzeppelin/contracts/access/Ownable.sol\":1094:1107  _checkOwner() */\n      tag_253\n        /* \"@openzeppelin/contracts/access/Ownable.sol\":1094:1105  _checkOwner */\n      tag_185\n        /* \"@openzeppelin/contracts/access/Ownable.sol\":1094:1107  _checkOwner() */\n      jump\t// in\n    tag_253:\n      sub(shl(0xa0, 0x01), 0x01)\n        /* \"@openzeppelin/contracts/access/Ownable.sol\":2162:2184  newOwner != address(0) */\n      dup2\n      and\n        /* \"@openzeppelin/contracts/access/Ownable.sol\":2154:2227  require(newOwner != address(0), \"Ownable: new owner is the zero address\") */\n      tag_255\n      jumpi\n      mload(0x40)\n      shl(0xe5, 0x461bcd)\n      dup2\n      mstore\n        /* \"#utility.yul\":12202:12204   */\n      0x20\n        /* \"@openzeppelin/contracts/access/Ownable.sol\":2154:2227  require(newOwner != address(0), \"Ownable: new owner is the zero address\") */\n      0x04\n      dup3\n      add\n        /* \"#utility.yul\":12184:12205   */\n      mstore\n        /* \"#utility.yul\":12241:12243   */\n      0x26\n        /* \"#utility.yul\":12221:12239   */\n      0x24\n      dup3\n      add\n        /* \"#utility.yul\":12214:12244   */\n      mstore\n        /* \"#utility.yul\":12280:12314   */\n      0x4f776e61626c653a206e6577206f776e657220697320746865207a65726f2061\n        /* \"#utility.yul\":12260:12278   */\n      0x44\n      dup3\n      add\n        /* \"#utility.yul\":12253:12315   */\n      mstore\n      shl(0xd0, 0x646472657373)\n        /* \"#utility.yul\":12331:12349   */\n      0x64\n      dup3\n      add\n        /* \"#utility.yul\":12324:12360   */\n      mstore\n        /* \"#utility.yul\":12377:12396   */\n      0x84\n      add\n        /* \"@openzeppelin/contracts/access/Ownable.sol\":2154:2227  require(newOwner != address(0), \"Ownable: new owner is the zero address\") */\n      tag_156\n        /* \"#utility.yul\":12000:12402   */\n      jump\n        /* \"@openzeppelin/contracts/access/Ownable.sol\":2154:2227  require(newOwner != address(0), \"Ownable: new owner is the zero address\") */\n    tag_255:\n        /* \"@openzeppelin/contracts/access/Ownable.sol\":2237:2265  _transferOwnership(newOwner) */\n      tag_258\n        /* \"@openzeppelin/contracts/access/Ownable.sol\":2256:2264  newOwner */\n      dup2\n        /* \"@openzeppelin/contracts/access/Ownable.sol\":2237:2255  _transferOwnership */\n      tag_204\n        /* \"@openzeppelin/contracts/access/Ownable.sol\":2237:2265  _transferOwnership(newOwner) */\n      jump\t// in\n    tag_258:\n        /* \"@openzeppelin/contracts/access/Ownable.sol\":2074:2272  function transferOwnership(address newOwner) public virtual onlyOwner {... */\n      pop\n      jump\t// out\n        /* \"v2/contracts/SoulSocietySBT.sol\":4823:5027  function _isProtected(address to_) internal view returns (bool) {        ... */\n    tag_176:\n      sub(shl(0xa0, 0x01), 0x01)\n        /* \"v2/contracts/SoulSocietySBT.sol\":4909:4927  _userProtects[to_] */\n      dup2\n      and\n        /* \"v2/contracts/SoulSocietySBT.sol\":4881:4885  bool */\n      0x00\n        /* \"v2/contracts/SoulSocietySBT.sol\":4909:4927  _userProtects[to_] */\n      swap1\n      dup2\n      mstore\n        /* \"v2/contracts/SoulSocietySBT.sol\":4909:4922  _userProtects */\n      0x08\n        /* \"v2/contracts/SoulSocietySBT.sol\":4909:4927  _userProtects[to_] */\n      0x20\n      mstore\n      0x40\n      dup2\n      keccak256\n      sload\n      0xff\n      and\n        /* \"v2/contracts/SoulSocietySBT.sol\":4909:4935  _userProtects[to_] == true */\n      iszero\n      iszero\n        /* \"v2/contracts/SoulSocietySBT.sol\":4909:4927  _userProtects[to_] */\n      0x01\n        /* \"v2/contracts/SoulSocietySBT.sol\":4909:4935  _userProtects[to_] == true */\n      sub\n        /* \"v2/contracts/SoulSocietySBT.sol\":4905:4989  if (_userProtects[to_] == true)... */\n      tag_263\n      jumpi\n        /* \"v2/contracts/SoulSocietySBT.sol\":4956:4989  SoulSocietySBTProtectedOwner(to_) */\n      mload(0x40)\n      shl(0xe0, 0x904e928b)\n      dup2\n      mstore\n      sub(shl(0xa0, 0x01), 0x01)\n        /* \"#utility.yul\":1697:1729   */\n      dup4\n      and\n        /* \"v2/contracts/SoulSocietySBT.sol\":4956:4989  SoulSocietySBTProtectedOwner(to_) */\n      0x04\n      dup3\n      add\n        /* \"#utility.yul\":1679:1730   */\n      mstore\n        /* \"#utility.yul\":1652:1670   */\n      0x24\n      add\n        /* \"v2/contracts/SoulSocietySBT.sol\":4956:4989  SoulSocietySBTProtectedOwner(to_) */\n      tag_156\n        /* \"#utility.yul\":1533:1736   */\n      jump\n        /* \"v2/contracts/SoulSocietySBT.sol\":4905:4989  if (_userProtects[to_] == true)... */\n    tag_263:\n      pop\n        /* \"v2/contracts/SoulSocietySBT.sol\":5015:5020  false */\n      0x00\n      swap2\n        /* \"v2/contracts/SoulSocietySBT.sol\":4823:5027  function _isProtected(address to_) internal view returns (bool) {        ... */\n      swap1\n      pop\n      jump\t// out\n        /* \"@openzeppelin/contracts/access/Ownable.sol\":1359:1489  function _checkOwner() internal view virtual {... */\n    tag_185:\n        /* \"@openzeppelin/contracts/access/Ownable.sol\":1247:1254  address */\n      0x00\n        /* \"@openzeppelin/contracts/access/Ownable.sol\":1273:1279  _owner */\n      sload\n      sub(shl(0xa0, 0x01), 0x01)\n      and\n        /* \"@openzeppelin/contracts/utils/Context.sol\":719:729  msg.sender */\n      caller\n        /* \"@openzeppelin/contracts/access/Ownable.sol\":1422:1445  owner() == _msgSender() */\n      eq\n        /* \"@openzeppelin/contracts/access/Ownable.sol\":1414:1482  require(owner() == _msgSender(), \"Ownable: caller is not the owner\") */\n      tag_203\n      jumpi\n      mload(0x40)\n      shl(0xe5, 0x461bcd)\n      dup2\n      mstore\n        /* \"#utility.yul\":12609:12611   */\n      0x20\n        /* \"@openzeppelin/contracts/access/Ownable.sol\":1414:1482  require(owner() == _msgSender(), \"Ownable: caller is not the owner\") */\n      0x04\n      dup3\n      add\n        /* \"#utility.yul\":12591:12612   */\n      dup2\n      swap1\n      mstore\n        /* \"#utility.yul\":12628:12646   */\n      0x24\n      dup3\n      add\n        /* \"#utility.yul\":12621:12651   */\n      mstore\n        /* \"#utility.yul\":12687:12721   */\n      0x4f776e61626c653a2063616c6c6572206973206e6f7420746865206f776e6572\n        /* \"#utility.yul\":12667:12685   */\n      0x44\n      dup3\n      add\n        /* \"#utility.yul\":12660:12722   */\n      mstore\n        /* \"#utility.yul\":12739:12757   */\n      0x64\n      add\n        /* \"@openzeppelin/contracts/access/Ownable.sol\":1414:1482  require(owner() == _msgSender(), \"Ownable: caller is not the owner\") */\n      tag_156\n        /* \"#utility.yul\":12407:12763   */\n      jump\n        /* \"v2/contracts/SoulSocietySBT.sol\":7669:8700  function _safeMint(address to_, uint256 tokenType_) internal virtual returns(uint256) {... */\n    tag_188:\n        /* \"v2/contracts/SoulSocietySBT.sol\":7746:7753  uint256 */\n      0x00\n        /* \"v2/contracts/SoulSocietySBT.sol\":7766:7781  uint256 tokenId */\n      dup1\n        /* \"v2/contracts/SoulSocietySBT.sol\":7784:7795  _totalCount */\n      sload(0x03)\n        /* \"v2/contracts/SoulSocietySBT.sol\":7798:7799  1 */\n      0x01\n        /* \"v2/contracts/SoulSocietySBT.sol\":7784:7799  _totalCount + 1 */\n      tag_273\n      swap2\n      swap1\n      tag_274\n      jump\t// in\n    tag_273:\n        /* \"v2/contracts/SoulSocietySBT.sol\":7766:7799  uint256 tokenId = _totalCount + 1 */\n      swap1\n      pop\n      sub(shl(0xa0, 0x01), 0x01)\n        /* \"v2/contracts/SoulSocietySBT.sol\":7819:7836  to_ == address(0) */\n      dup5\n      and\n        /* \"v2/contracts/SoulSocietySBT.sol\":7815:7911  if (to_ == address(0)) {... */\n      tag_275\n      jumpi\n        /* \"v2/contracts/SoulSocietySBT.sol\":7859:7900  SoulSocietySBTInvalidReceiver(address(0)) */\n      mload(0x40)\n      shl(0xe0, 0x74f5e87d)\n      dup2\n      mstore\n        /* \"v2/contracts/SoulSocietySBT.sol\":7897:7898  0 */\n      0x00\n        /* \"v2/contracts/SoulSocietySBT.sol\":7859:7900  SoulSocietySBTInvalidReceiver(address(0)) */\n      0x04\n      dup3\n      add\n        /* \"#utility.yul\":1679:1730   */\n      mstore\n        /* \"#utility.yul\":1652:1670   */\n      0x24\n      add\n        /* \"v2/contracts/SoulSocietySBT.sol\":7859:7900  SoulSocietySBTInvalidReceiver(address(0)) */\n      tag_156\n        /* \"#utility.yul\":1533:1736   */\n      jump\n        /* \"v2/contracts/SoulSocietySBT.sol\":7815:7911  if (to_ == address(0)) {... */\n    tag_275:\n        /* \"v2/contracts/SoulSocietySBT.sol\":9953:9957  bool */\n      0x00\n        /* \"v2/contracts/SoulSocietySBT.sol\":5902:5919  _owners[tokenId_] */\n      dup2\n      dup2\n      mstore\n        /* \"v2/contracts/SoulSocietySBT.sol\":5902:5909  _owners */\n      0x04\n        /* \"v2/contracts/SoulSocietySBT.sol\":5902:5919  _owners[tokenId_] */\n      0x20\n      mstore\n      0x40\n      swap1\n      keccak256\n      sload\n      sub(shl(0xa0, 0x01), 0x01)\n      and\n        /* \"v2/contracts/SoulSocietySBT.sol\":9976:10007  _ownerOf(tokenId) != address(0) */\n      iszero\n        /* \"v2/contracts/SoulSocietySBT.sol\":7921:8008  if (_exists(tokenId)) {... */\n      tag_279\n      jumpi\n        /* \"v2/contracts/SoulSocietySBT.sol\":7964:7997  SoulSocietySBTExistToken(tokenId) */\n      mload(0x40)\n      shl(0xe1, 0x79a15ee1)\n      dup2\n      mstore\n      0x04\n      dup2\n      add\n        /* \"#utility.yul\":2324:2349   */\n      dup3\n      swap1\n      mstore\n        /* \"#utility.yul\":2297:2315   */\n      0x24\n      add\n        /* \"v2/contracts/SoulSocietySBT.sol\":7964:7997  SoulSocietySBTExistToken(tokenId) */\n      tag_156\n        /* \"#utility.yul\":2178:2355   */\n      jump\n        /* \"v2/contracts/SoulSocietySBT.sol\":7921:8008  if (_exists(tokenId)) {... */\n    tag_279:\n      sub(shl(0xa0, 0x01), 0x01)\n        /* \"v2/contracts/SoulSocietySBT.sol\":10108:10121  _balances[to] */\n      dup5\n      and\n        /* \"v2/contracts/SoulSocietySBT.sol\":10085:10089  bool */\n      0x00\n        /* \"v2/contracts/SoulSocietySBT.sol\":10108:10121  _balances[to] */\n      swap1\n      dup2\n      mstore\n        /* \"v2/contracts/SoulSocietySBT.sol\":10108:10117  _balances */\n      0x07\n        /* \"v2/contracts/SoulSocietySBT.sol\":10108:10121  _balances[to] */\n      0x20\n      mstore\n      0x40\n      swap1\n      keccak256\n      sload\n        /* \"v2/contracts/SoulSocietySBT.sol\":8069:8132  if(!_existsOwner(to_)) {... */\n      tag_283\n      jumpi\n        /* \"v2/contracts/SoulSocietySBT.sol\":8120:8121  1 */\n      0x01\n        /* \"v2/contracts/SoulSocietySBT.sol\":8106:8116  _totalUser */\n      0x02\n      0x00\n        /* \"v2/contracts/SoulSocietySBT.sol\":8106:8121  _totalUser += 1 */\n      dup3\n      dup3\n      sload\n      tag_284\n      swap2\n      swap1\n      tag_274\n      jump\t// in\n    tag_284:\n      swap1\n      swap2\n      sstore\n      pop\n      pop\n        /* \"v2/contracts/SoulSocietySBT.sol\":8069:8132  if(!_existsOwner(to_)) {... */\n    tag_283:\n      sub(shl(0xa0, 0x01), 0x01)\n        /* \"v2/contracts/SoulSocietySBT.sol\":8166:8180  _balances[to_] */\n      dup5\n      and\n      0x00\n      dup2\n      dup2\n      mstore\n        /* \"v2/contracts/SoulSocietySBT.sol\":8166:8175  _balances */\n      0x07\n        /* \"v2/contracts/SoulSocietySBT.sol\":8166:8180  _balances[to_] */\n      0x20\n      dup2\n      dup2\n      mstore\n      0x40\n      dup1\n      dup5\n      keccak256\n        /* \"v2/contracts/SoulSocietySBT.sol\":8166:8185  _balances[to_] += 1 */\n      dup1\n      sload\n        /* \"v2/contracts/SoulSocietySBT.sol\":8184:8185  1 */\n      0x01\n        /* \"v2/contracts/SoulSocietySBT.sol\":8166:8185  _balances[to_] += 1 */\n      swap1\n      dup2\n      add\n      dup3\n      sstore\n        /* \"v2/contracts/SoulSocietySBT.sol\":8199:8210  _totalCount */\n      0x03\n        /* \"v2/contracts/SoulSocietySBT.sol\":8199:8215  _totalCount += 1 */\n      dup1\n      sload\n      dup3\n      add\n      swap1\n      sstore\n        /* \"v2/contracts/SoulSocietySBT.sol\":8239:8255  _owners[tokenId] */\n      dup8\n      dup7\n      mstore\n        /* \"v2/contracts/SoulSocietySBT.sol\":8239:8246  _owners */\n      0x04\n        /* \"v2/contracts/SoulSocietySBT.sol\":8239:8255  _owners[tokenId] */\n      dup5\n      mstore\n      dup3\n      dup7\n      keccak256\n        /* \"v2/contracts/SoulSocietySBT.sol\":8239:8261  _owners[tokenId] = to_ */\n      dup1\n      sload\n      not(sub(shl(0xa0, 0x01), 0x01))\n      and\n      dup9\n      or\n      swap1\n      sstore\n        /* \"v2/contracts/SoulSocietySBT.sol\":8271:8282  _tokenTypes */\n      0x05\n        /* \"v2/contracts/SoulSocietySBT.sol\":8271:8291  _tokenTypes[tokenId] */\n      dup5\n      mstore\n      dup3\n      dup7\n      keccak256\n        /* \"v2/contracts/SoulSocietySBT.sol\":8271:8304  _tokenTypes[tokenId] = tokenType_ */\n      dup11\n      swap1\n      sstore\n        /* \"v2/contracts/SoulSocietySBT.sol\":8314:8327  _tokenGrowths */\n      0x06\n        /* \"v2/contracts/SoulSocietySBT.sol\":8314:8336  _tokenGrowths[tokenId] */\n      dup5\n      mstore\n      dup3\n      dup7\n      keccak256\n        /* \"v2/contracts/SoulSocietySBT.sol\":8314:8340  _tokenGrowths[tokenId] = 1 */\n      dup2\n      swap1\n      sstore\n        /* \"v2/contracts/SoulSocietySBT.sol\":8389:8406  _ownedTokens[to_] */\n      swap6\n      dup6\n      mstore\n        /* \"v2/contracts/SoulSocietySBT.sol\":8389:8401  _ownedTokens */\n      0x09\n        /* \"v2/contracts/SoulSocietySBT.sol\":8389:8406  _ownedTokens[to_] */\n      dup4\n      mstore\n      swap1\n      dup5\n      keccak256\n        /* \"v2/contracts/SoulSocietySBT.sol\":8407:8421  _balances[to_] */\n      swap3\n      swap1\n      swap2\n      mstore\n      sload\n        /* \"v2/contracts/SoulSocietySBT.sol\":8247:8254  tokenId */\n      dup5\n      swap4\n        /* \"v2/contracts/SoulSocietySBT.sol\":8389:8406  _ownedTokens[to_] */\n      swap2\n      swap3\n        /* \"v2/contracts/SoulSocietySBT.sol\":8166:8180  _balances[to_] */\n      swap2\n        /* \"v2/contracts/SoulSocietySBT.sol\":8407:8423  _balances[to_]-1 */\n      tag_285\n      swap2\n      tag_286\n      jump\t// in\n    tag_285:\n        /* \"v2/contracts/SoulSocietySBT.sol\":8389:8424  _ownedTokens[to_][_balances[to_]-1] */\n      dup2\n      mstore\n      0x20\n      add\n      swap1\n      dup2\n      mstore\n      0x20\n      add\n      0x00\n      keccak256\n        /* \"v2/contracts/SoulSocietySBT.sol\":8389:8434  _ownedTokens[to_][_balances[to_]-1] = tokenId */\n      dup2\n      swap1\n      sstore\n      pop\n        /* \"v2/contracts/SoulSocietySBT.sol\":8497:8507  tokenType_ */\n      dup3\n        /* \"v2/contracts/SoulSocietySBT.sol\":8488:8495  tokenId */\n      dup2\n        /* \"v2/contracts/SoulSocietySBT.sol\":8483:8486  to_ */\n      dup6\n      sub(shl(0xa0, 0x01), 0x01)\n        /* \"v2/contracts/SoulSocietySBT.sol\":8466:8508  Mint(address(0), to_, tokenId, tokenType_) */\n      and\n      0x2f00e3cdd69a77be7ed215ec7b2a36784dd158f921fca79ac29deffa353fe6ee\n        /* \"v2/contracts/SoulSocietySBT.sol\":8479:8480  0 */\n      0x00\n        /* \"v2/contracts/SoulSocietySBT.sol\":8466:8508  Mint(address(0), to_, tokenId, tokenType_) */\n      mload(0x40)\n      tag_287\n      swap2\n      swap1\n      sub(shl(0xa0, 0x01), 0x01)\n        /* \"#utility.yul\":1697:1729   */\n      swap2\n      swap1\n      swap2\n      and\n        /* \"#utility.yul\":1679:1730   */\n      dup2\n      mstore\n        /* \"#utility.yul\":1667:1669   */\n      0x20\n        /* \"#utility.yul\":1652:1670   */\n      add\n      swap1\n        /* \"#utility.yul\":1533:1736   */\n      jump\n        /* \"v2/contracts/SoulSocietySBT.sol\":8466:8508  Mint(address(0), to_, tokenId, tokenType_) */\n    tag_287:\n      mload(0x40)\n      dup1\n      swap2\n      sub\n      swap1\n      log4\n        /* \"v2/contracts/SoulSocietySBT.sol\":8540:8592  _checkOnERC721Received(address(0), to_, tokenId, \"\") */\n      tag_288\n        /* \"v2/contracts/SoulSocietySBT.sol\":8571:8572  0 */\n      0x00\n        /* \"v2/contracts/SoulSocietySBT.sol\":8575:8578  to_ */\n      dup6\n        /* \"v2/contracts/SoulSocietySBT.sol\":8580:8587  tokenId */\n      dup4\n        /* \"v2/contracts/SoulSocietySBT.sol\":8540:8592  _checkOnERC721Received(address(0), to_, tokenId, \"\") */\n      mload(0x40)\n      dup1\n      0x20\n      add\n      0x40\n      mstore\n      dup1\n      0x00\n      dup2\n      mstore\n      pop\n        /* \"v2/contracts/SoulSocietySBT.sol\":8540:8562  _checkOnERC721Received */\n      tag_289\n        /* \"v2/contracts/SoulSocietySBT.sol\":8540:8592  _checkOnERC721Received(address(0), to_, tokenId, \"\") */\n      jump\t// in\n    tag_288:\n        /* \"v2/contracts/SoulSocietySBT.sol\":8519:8668  require(... */\n      tag_187\n      jumpi\n      mload(0x40)\n      shl(0xe5, 0x461bcd)\n      dup2\n      mstore\n        /* \"#utility.yul\":13365:13367   */\n      0x20\n        /* \"v2/contracts/SoulSocietySBT.sol\":8519:8668  require(... */\n      0x04\n      dup3\n      add\n        /* \"#utility.yul\":13347:13368   */\n      mstore\n        /* \"#utility.yul\":13404:13406   */\n      0x32\n        /* \"#utility.yul\":13384:13402   */\n      0x24\n      dup3\n      add\n        /* \"#utility.yul\":13377:13407   */\n      mstore\n        /* \"#utility.yul\":13443:13477   */\n      0x4552433732313a207472616e7366657220746f206e6f6e204552433732315265\n        /* \"#utility.yul\":13423:13441   */\n      0x44\n      dup3\n      add\n        /* \"#utility.yul\":13416:13478   */\n      mstore\n      shl(0x71, 0x31b2b4bb32b91034b6b83632b6b2b73a32b9)\n        /* \"#utility.yul\":13494:13512   */\n      0x64\n      dup3\n      add\n        /* \"#utility.yul\":13487:13535   */\n      mstore\n        /* \"#utility.yul\":13552:13571   */\n      0x84\n      add\n        /* \"v2/contracts/SoulSocietySBT.sol\":8519:8668  require(... */\n      tag_156\n        /* \"#utility.yul\":13163:13577   */\n      jump\n        /* \"v2/contracts/SoulSocietySBT.sol\":5033:5335  function _isProtectedTokenId(uint256 tokenId_) internal view {... */\n    tag_194:\n        /* \"v2/contracts/SoulSocietySBT.sol\":9953:9957  bool */\n      0x00\n        /* \"v2/contracts/SoulSocietySBT.sol\":5902:5919  _owners[tokenId_] */\n      dup2\n      dup2\n      mstore\n        /* \"v2/contracts/SoulSocietySBT.sol\":5902:5909  _owners */\n      0x04\n        /* \"v2/contracts/SoulSocietySBT.sol\":5902:5919  _owners[tokenId_] */\n      0x20\n      mstore\n      0x40\n      swap1\n      keccak256\n      sload\n      sub(shl(0xa0, 0x01), 0x01)\n      and\n        /* \"v2/contracts/SoulSocietySBT.sol\":5191:5287  if (!_exists(tokenId_)) {... */\n      tag_295\n      jumpi\n        /* \"v2/contracts/SoulSocietySBT.sol\":5236:5276  SoulSocietySBTNonexistentToken(tokenId_) */\n      mload(0x40)\n      shl(0xe0, 0x24476a3f)\n      dup2\n      mstore\n      0x04\n      dup2\n      add\n        /* \"#utility.yul\":2324:2349   */\n      dup3\n      swap1\n      mstore\n        /* \"#utility.yul\":2297:2315   */\n      0x24\n      add\n        /* \"v2/contracts/SoulSocietySBT.sol\":5236:5276  SoulSocietySBTNonexistentToken(tokenId_) */\n      tag_156\n        /* \"#utility.yul\":2178:2355   */\n      jump\n        /* \"v2/contracts/SoulSocietySBT.sol\":5191:5287  if (!_exists(tokenId_)) {... */\n    tag_295:\n        /* \"v2/contracts/SoulSocietySBT.sol\":5310:5327  _owners[tokenId_] */\n      0x00\n      dup2\n      dup2\n      mstore\n        /* \"v2/contracts/SoulSocietySBT.sol\":5310:5317  _owners */\n      0x04\n        /* \"v2/contracts/SoulSocietySBT.sol\":5310:5327  _owners[tokenId_] */\n      0x20\n      mstore\n      0x40\n      swap1\n      keccak256\n      sload\n        /* \"v2/contracts/SoulSocietySBT.sol\":5297:5328  _isProtected(_owners[tokenId_]) */\n      tag_212\n      swap1\n      sub(shl(0xa0, 0x01), 0x01)\n        /* \"v2/contracts/SoulSocietySBT.sol\":5310:5327  _owners[tokenId_] */\n      and\n        /* \"v2/contracts/SoulSocietySBT.sol\":5297:5309  _isProtected */\n      tag_176\n        /* \"v2/contracts/SoulSocietySBT.sol\":5297:5328  _isProtected(_owners[tokenId_]) */\n      jump\t// in\n        /* \"@openzeppelin/contracts/access/Ownable.sol\":2426:2613  function _transferOwnership(address newOwner) internal virtual {... */\n    tag_204:\n        /* \"@openzeppelin/contracts/access/Ownable.sol\":2499:2515  address oldOwner */\n      0x00\n        /* \"@openzeppelin/contracts/access/Ownable.sol\":2518:2524  _owner */\n      dup1\n      sload\n      sub(shl(0xa0, 0x01), 0x01)\n        /* \"@openzeppelin/contracts/access/Ownable.sol\":2534:2551  _owner = newOwner */\n      dup4\n      dup2\n      and\n      not(sub(shl(0xa0, 0x01), 0x01))\n      dup4\n      and\n      dup2\n      or\n      dup5\n      sstore\n        /* \"@openzeppelin/contracts/access/Ownable.sol\":2566:2606  OwnershipTransferred(oldOwner, newOwner) */\n      mload(0x40)\n        /* \"@openzeppelin/contracts/access/Ownable.sol\":2518:2524  _owner */\n      swap2\n      swap1\n      swap3\n      and\n      swap3\n      dup4\n      swap2\n        /* \"@openzeppelin/contracts/access/Ownable.sol\":2566:2606  OwnershipTransferred(oldOwner, newOwner) */\n      0x8be0079c531659141344cd1fd0a4f28419497f9722a3daafe3b4186f6b6457e0\n      swap2\n        /* \"@openzeppelin/contracts/access/Ownable.sol\":2499:2515  address oldOwner */\n      swap1\n        /* \"@openzeppelin/contracts/access/Ownable.sol\":2566:2606  OwnershipTransferred(oldOwner, newOwner) */\n      log3\n        /* \"@openzeppelin/contracts/access/Ownable.sol\":2489:2613  {... */\n      pop\n        /* \"@openzeppelin/contracts/access/Ownable.sol\":2426:2613  function _transferOwnership(address newOwner) internal virtual {... */\n      pop\n      jump\t// out\n        /* \"v2/contracts/SoulSocietySBT.sol\":8909:9138  function _setGrowthToZero(address to_, uint tokenId_) internal {... */\n    tag_213:\n        /* \"v2/contracts/SoulSocietySBT.sol\":9026:9057  _requireMintedOf(to_, tokenId_) */\n      tag_300\n        /* \"v2/contracts/SoulSocietySBT.sol\":9043:9046  to_ */\n      dup3\n        /* \"v2/contracts/SoulSocietySBT.sol\":9048:9056  tokenId_ */\n      dup3\n        /* \"v2/contracts/SoulSocietySBT.sol\":9026:9042  _requireMintedOf */\n      tag_301\n        /* \"v2/contracts/SoulSocietySBT.sol\":9026:9057  _requireMintedOf(to_, tokenId_) */\n      jump\t// in\n    tag_300:\n        /* \"v2/contracts/SoulSocietySBT.sol\":9094:9095  0 */\n      0x00\n        /* \"v2/contracts/SoulSocietySBT.sol\":9068:9091  _tokenGrowths[tokenId_] */\n      dup2\n      dup2\n      mstore\n        /* \"v2/contracts/SoulSocietySBT.sol\":9068:9081  _tokenGrowths */\n      0x06\n        /* \"v2/contracts/SoulSocietySBT.sol\":9068:9091  _tokenGrowths[tokenId_] */\n      0x20\n      mstore\n      0x40\n      dup1\n      dup3\n      keccak256\n        /* \"v2/contracts/SoulSocietySBT.sol\":9068:9095  _tokenGrowths[tokenId_] = 0 */\n      dup3\n      swap1\n      sstore\n        /* \"v2/contracts/SoulSocietySBT.sol\":9111:9131  Reset(to_, tokenId_) */\n      mload\n        /* \"v2/contracts/SoulSocietySBT.sol\":9082:9090  tokenId_ */\n      dup3\n      swap2\n      sub(shl(0xa0, 0x01), 0x01)\n        /* \"v2/contracts/SoulSocietySBT.sol\":9111:9131  Reset(to_, tokenId_) */\n      dup6\n      and\n      swap2\n      0x154fa90f2d3692df165afacdcd7755b2e9d98a892a80cc1dda63f3a9cc1e64a4\n      swap2\n        /* \"v2/contracts/SoulSocietySBT.sol\":9094:9095  0 */\n      swap1\n        /* \"v2/contracts/SoulSocietySBT.sol\":9111:9131  Reset(to_, tokenId_) */\n      log3\n        /* \"v2/contracts/SoulSocietySBT.sol\":8909:9138  function _setGrowthToZero(address to_, uint tokenId_) internal {... */\n      pop\n      pop\n      jump\t// out\n        /* \"v2/contracts/SoulSocietySBT.sol\":10518:10860  function _growUp(address to_, uint256 tokenId_) internal returns(uint256) {... */\n    tag_223:\n        /* \"v2/contracts/SoulSocietySBT.sol\":10583:10590  uint256 */\n      0x00\n        /* \"v2/contracts/SoulSocietySBT.sol\":10647:10678  _requireMintedOf(to_, tokenId_) */\n      tag_303\n        /* \"v2/contracts/SoulSocietySBT.sol\":10664:10667  to_ */\n      dup4\n        /* \"v2/contracts/SoulSocietySBT.sol\":10669:10677  tokenId_ */\n      dup4\n        /* \"v2/contracts/SoulSocietySBT.sol\":10647:10663  _requireMintedOf */\n      tag_301\n        /* \"v2/contracts/SoulSocietySBT.sol\":10647:10678  _requireMintedOf(to_, tokenId_) */\n      jump\t// in\n    tag_303:\n        /* \"v2/contracts/SoulSocietySBT.sol\":10689:10712  _tokenGrowths[tokenId_] */\n      0x00\n      dup3\n      dup2\n      mstore\n        /* \"v2/contracts/SoulSocietySBT.sol\":10689:10702  _tokenGrowths */\n      0x06\n        /* \"v2/contracts/SoulSocietySBT.sol\":10689:10712  _tokenGrowths[tokenId_] */\n      0x20\n      mstore\n      0x40\n      dup2\n      keccak256\n        /* \"v2/contracts/SoulSocietySBT.sol\":10689:10717  _tokenGrowths[tokenId_] += 1 */\n      dup1\n      sload\n        /* \"v2/contracts/SoulSocietySBT.sol\":10716:10717  1 */\n      0x01\n      swap3\n        /* \"v2/contracts/SoulSocietySBT.sol\":10689:10712  _tokenGrowths[tokenId_] */\n      swap1\n        /* \"v2/contracts/SoulSocietySBT.sol\":10689:10717  _tokenGrowths[tokenId_] += 1 */\n      tag_304\n      swap1\n        /* \"v2/contracts/SoulSocietySBT.sol\":10716:10717  1 */\n      dup5\n      swap1\n        /* \"v2/contracts/SoulSocietySBT.sol\":10689:10717  _tokenGrowths[tokenId_] += 1 */\n      tag_274\n      jump\t// in\n    tag_304:\n      swap1\n      swap2\n      sstore\n      pop\n      pop\n        /* \"v2/contracts/SoulSocietySBT.sol\":10728:10747  uint256 tokenGrowth */\n      0x00\n        /* \"v2/contracts/SoulSocietySBT.sol\":10751:10774  _tokenGrowths[tokenId_] */\n      dup3\n      dup2\n      mstore\n        /* \"v2/contracts/SoulSocietySBT.sol\":10751:10764  _tokenGrowths */\n      0x06\n        /* \"v2/contracts/SoulSocietySBT.sol\":10751:10774  _tokenGrowths[tokenId_] */\n      0x20\n      swap1\n      dup2\n      mstore\n      0x40\n      swap2\n      dup3\n      swap1\n      keccak256\n      sload\n        /* \"v2/contracts/SoulSocietySBT.sol\":10790:10824  GrowUp(to_, tokenId_, tokenGrowth) */\n      swap2\n      mload\n        /* \"#utility.yul\":2324:2349   */\n      dup5\n      dup2\n      mstore\n        /* \"v2/contracts/SoulSocietySBT.sol\":10751:10774  _tokenGrowths[tokenId_] */\n      dup3\n      swap2\n      sub(shl(0xa0, 0x01), 0x01)\n        /* \"v2/contracts/SoulSocietySBT.sol\":10790:10824  GrowUp(to_, tokenId_, tokenGrowth) */\n      dup8\n      and\n      swap2\n      0x48ffd7fdb1c1a0561a2d410317f6bb839aab64898de6fc73ee703a9c0dc0a36c\n      swap2\n        /* \"#utility.yul\":2297:2315   */\n      add\n        /* \"v2/contracts/SoulSocietySBT.sol\":10790:10824  GrowUp(to_, tokenId_, tokenGrowth) */\n      mload(0x40)\n      dup1\n      swap2\n      sub\n      swap1\n      log3\n        /* \"v2/contracts/SoulSocietySBT.sol\":10842:10853  tokenGrowth */\n      swap4\n        /* \"v2/contracts/SoulSocietySBT.sol\":10518:10860  function _growUp(address to_, uint256 tokenId_) internal returns(uint256) {... */\n      swap3\n      pop\n      pop\n      pop\n      jump\t// out\n        /* \"@openzeppelin/contracts/utils/Strings.sol\":447:1143  function toString(uint256 value) internal pure returns (string memory) {... */\n    tag_231:\n        /* \"@openzeppelin/contracts/utils/Strings.sol\":503:516  string memory */\n      0x60\n        /* \"@openzeppelin/contracts/utils/Strings.sol\":552:566  uint256 length */\n      0x00\n        /* \"@openzeppelin/contracts/utils/Strings.sol\":569:586  Math.log10(value) */\n      tag_307\n        /* \"@openzeppelin/contracts/utils/Strings.sol\":580:585  value */\n      dup4\n        /* \"@openzeppelin/contracts/utils/Strings.sol\":569:579  Math.log10 */\n      tag_308\n        /* \"@openzeppelin/contracts/utils/Strings.sol\":569:586  Math.log10(value) */\n      jump\t// in\n    tag_307:\n        /* \"@openzeppelin/contracts/utils/Strings.sol\":589:590  1 */\n      0x01\n        /* \"@openzeppelin/contracts/utils/Strings.sol\":569:590  Math.log10(value) + 1 */\n      add\n        /* \"@openzeppelin/contracts/utils/Strings.sol\":552:590  uint256 length = Math.log10(value) + 1 */\n      swap1\n      pop\n        /* \"@openzeppelin/contracts/utils/Strings.sol\":604:624  string memory buffer */\n      0x00\n        /* \"@openzeppelin/contracts/utils/Strings.sol\":638:644  length */\n      dup2\n        /* \"@openzeppelin/contracts/utils/Strings.sol\":627:645  new string(length) */\n      0xffffffffffffffff\n      dup2\n      gt\n      iszero\n      tag_310\n      jumpi\n      tag_310\n      tag_311\n      jump\t// in\n    tag_310:\n      mload(0x40)\n      swap1\n      dup1\n      dup3\n      mstore\n      dup1\n      0x1f\n      add\n      not(0x1f)\n      and\n      0x20\n      add\n      dup3\n      add\n      0x40\n      mstore\n      dup1\n      iszero\n      tag_312\n      jumpi\n      0x20\n      dup3\n      add\n      dup2\n      dup1\n      calldatasize\n      dup4\n      calldatacopy\n      add\n      swap1\n      pop\n    tag_312:\n      pop\n        /* \"@openzeppelin/contracts/utils/Strings.sol\":604:645  string memory buffer = new string(length) */\n      swap1\n      pop\n        /* \"@openzeppelin/contracts/utils/Strings.sol\":765:793  add(buffer, add(32, length)) */\n      dup2\n      dup2\n      add\n        /* \"@openzeppelin/contracts/utils/Strings.sol\":781:783  32 */\n      0x20\n        /* \"@openzeppelin/contracts/utils/Strings.sol\":765:793  add(buffer, add(32, length)) */\n      add\n        /* \"@openzeppelin/contracts/utils/Strings.sol\":820:1100  while (true) {... */\n    tag_313:\n      not(0x00)\n        /* \"@openzeppelin/contracts/utils/Strings.sol\":851:856  ptr-- */\n      add\n      shl(0x81, 0x181899199a1a9b1b9c1cb0b131b232b3)\n        /* \"@openzeppelin/contracts/utils/Strings.sol\":985:987  10 */\n      0x0a\n        /* \"@openzeppelin/contracts/utils/Strings.sol\":974:988  mod(value, 10) */\n      dup7\n      mod\n        /* \"@openzeppelin/contracts/utils/Strings.sol\":969:999  byte(mod(value, 10), _SYMBOLS) */\n      byte\n        /* \"@openzeppelin/contracts/utils/Strings.sol\":851:856  ptr-- */\n      dup2\n        /* \"@openzeppelin/contracts/utils/Strings.sol\":956:1000  mstore8(ptr, byte(mod(value, 10), _SYMBOLS)) */\n      mstore8\n        /* \"@openzeppelin/contracts/utils/Strings.sol\":1044:1046  10 */\n      0x0a\n        /* \"@openzeppelin/contracts/utils/Strings.sol\":1035:1046  value /= 10 */\n      dup6\n      div\n      swap5\n      pop\n        /* \"@openzeppelin/contracts/utils/Strings.sol\":1064:1085  if (value == 0) break */\n      dup5\n        /* \"@openzeppelin/contracts/utils/Strings.sol\":820:1100  while (true) {... */\n      tag_313\n        /* \"@openzeppelin/contracts/utils/Strings.sol\":1064:1085  if (value == 0) break */\n      jumpi\n      pop\n        /* \"@openzeppelin/contracts/utils/Strings.sol\":1120:1126  buffer */\n      swap4\n        /* \"@openzeppelin/contracts/utils/Strings.sol\":447:1143  function toString(uint256 value) internal pure returns (string memory) {... */\n      swap3\n      pop\n      pop\n      pop\n      jump\t// out\n        /* \"v2/contracts/SoulSocietySBT.sol\":12090:12426  function _checkOnERC721Received(address from, address to, uint256 tokenId, bytes memory _data) internal returns (bool) {... */\n    tag_289:\n        /* \"v2/contracts/SoulSocietySBT.sol\":12203:12207  bool */\n      0x00\n        /* \"v2/contracts/SoulSocietySBT.sol\":12549:12569  extcodesize(account) */\n      dup4\n      extcodesize\n        /* \"v2/contracts/SoulSocietySBT.sol\":12219:12276  if (!isContract(to)) {... */\n      tag_327\n      jumpi\n      pop\n        /* \"v2/contracts/SoulSocietySBT.sol\":12261:12265  true */\n      0x01\n        /* \"v2/contracts/SoulSocietySBT.sol\":12254:12265  return true */\n      jump(tag_324)\n        /* \"v2/contracts/SoulSocietySBT.sol\":12219:12276  if (!isContract(to)) {... */\n    tag_327:\n        /* \"v2/contracts/SoulSocietySBT.sol\":12302:12374  IERC721Receiver(to).onERC721Received(_msgSender(), from, tokenId, _data) */\n      mload(0x40)\n      shl(0xe1, 0x0a85bd01)\n      dup2\n      mstore\n        /* \"v2/contracts/SoulSocietySBT.sol\":12286:12299  bytes4 retval */\n      0x00\n      swap1\n      sub(shl(0xa0, 0x01), 0x01)\n        /* \"v2/contracts/SoulSocietySBT.sol\":12302:12338  IERC721Receiver(to).onERC721Received */\n      dup7\n      and\n      swap1\n      0x150b7a02\n      swap1\n        /* \"v2/contracts/SoulSocietySBT.sol\":12302:12374  IERC721Receiver(to).onERC721Received(_msgSender(), from, tokenId, _data) */\n      tag_329\n      swap1\n        /* \"@openzeppelin/contracts/utils/Context.sol\":719:729  msg.sender */\n      caller\n      swap1\n        /* \"v2/contracts/SoulSocietySBT.sol\":12353:12357  from */\n      dup11\n      swap1\n        /* \"v2/contracts/SoulSocietySBT.sol\":12359:12366  tokenId */\n      dup10\n      swap1\n        /* \"v2/contracts/SoulSocietySBT.sol\":12368:12373  _data */\n      dup10\n      swap1\n        /* \"v2/contracts/SoulSocietySBT.sol\":12302:12374  IERC721Receiver(to).onERC721Received(_msgSender(), from, tokenId, _data) */\n      0x04\n      add\n      tag_330\n      jump\t// in\n    tag_329:\n      0x20\n      mload(0x40)\n      dup1\n      dup4\n      sub\n      dup2\n      0x00\n      dup8\n      gas\n      call\n      iszero\n      dup1\n      iszero\n      tag_332\n      jumpi\n      returndatasize\n      0x00\n      dup1\n      returndatacopy\n      revert(0x00, returndatasize)\n    tag_332:\n      pop\n      pop\n      pop\n      pop\n      mload(0x40)\n      returndatasize\n      not(0x1f)\n      0x1f\n      dup3\n      add\n      and\n      dup3\n      add\n      dup1\n      0x40\n      mstore\n      pop\n      dup2\n      add\n      swap1\n      tag_333\n      swap2\n      swap1\n      tag_334\n      jump\t// in\n    tag_333:\n      not(sub(shl(0xe0, 0x01), 0x01))\n        /* \"v2/contracts/SoulSocietySBT.sol\":12392:12418  retval == _ERC721_RECEIVED */\n      and\n      shl(0xe1, 0x0a85bd01)\n      eq\n      swap2\n      pop\n      pop\n        /* \"v2/contracts/SoulSocietySBT.sol\":12090:12426  function _checkOnERC721Received(address from, address to, uint256 tokenId, bytes memory _data) internal returns (bool) {... */\n    tag_324:\n      swap5\n      swap4\n      pop\n      pop\n      pop\n      pop\n      jump\t// out\n        /* \"v2/contracts/SoulSocietySBT.sol\":11901:12084  function _requireMintedOf(address to, uint256 tokenId) internal view virtual {... */\n    tag_301:\n        /* \"v2/contracts/SoulSocietySBT.sol\":5876:5883  address */\n      0x00\n        /* \"v2/contracts/SoulSocietySBT.sol\":5902:5919  _owners[tokenId_] */\n      dup2\n      dup2\n      mstore\n        /* \"v2/contracts/SoulSocietySBT.sol\":5902:5909  _owners */\n      0x04\n        /* \"v2/contracts/SoulSocietySBT.sol\":5902:5919  _owners[tokenId_] */\n      0x20\n      mstore\n      0x40\n      swap1\n      keccak256\n      sload\n      sub(shl(0xa0, 0x01), 0x01)\n        /* \"v2/contracts/SoulSocietySBT.sol\":11991:12014  _ownerOf(tokenId) != to */\n      dup4\n      dup2\n      and\n        /* \"v2/contracts/SoulSocietySBT.sol\":5902:5919  _owners[tokenId_] */\n      swap2\n      and\n        /* \"v2/contracts/SoulSocietySBT.sol\":11991:12014  _ownerOf(tokenId) != to */\n      eq\n        /* \"v2/contracts/SoulSocietySBT.sol\":11988:12078  if(_ownerOf(tokenId) != to) {... */\n      tag_212\n      jumpi\n        /* \"v2/contracts/SoulSocietySBT.sol\":12037:12067  SoulSocietySBTInvalidOwner(to) */\n      mload(0x40)\n      shl(0xe0, 0x50159299)\n      dup2\n      mstore\n      sub(shl(0xa0, 0x01), 0x01)\n        /* \"#utility.yul\":1697:1729   */\n      dup4\n      and\n        /* \"v2/contracts/SoulSocietySBT.sol\":12037:12067  SoulSocietySBTInvalidOwner(to) */\n      0x04\n      dup3\n      add\n        /* \"#utility.yul\":1679:1730   */\n      mstore\n        /* \"#utility.yul\":1652:1670   */\n      0x24\n      add\n        /* \"v2/contracts/SoulSocietySBT.sol\":12037:12067  SoulSocietySBTInvalidOwner(to) */\n      tag_156\n        /* \"#utility.yul\":1533:1736   */\n      jump\n        /* \"@openzeppelin/contracts/utils/math/Math.sol\":10139:11055  function log10(uint256 value) internal pure returns (uint256) {... */\n    tag_308:\n        /* \"@openzeppelin/contracts/utils/math/Math.sol\":10192:10199  uint256 */\n      0x00\n      dup1\n      shl(0x40, 0x184f03e93ff9f4daa797ed6e38ed64bf6a1f01)\n        /* \"@openzeppelin/contracts/utils/math/Math.sol\":10267:10284  value >= 10 ** 64 */\n      dup4\n      lt\n        /* \"@openzeppelin/contracts/utils/math/Math.sol\":10263:10366  if (value >= 10 ** 64) {... */\n      tag_340\n      jumpi\n      shl(0x40, 0x184f03e93ff9f4daa797ed6e38ed64bf6a1f01)\n        /* \"@openzeppelin/contracts/utils/math/Math.sol\":10304:10321  value /= 10 ** 64 */\n      dup4\n      div\n      swap3\n      pop\n        /* \"@openzeppelin/contracts/utils/math/Math.sol\":10349:10351  64 */\n      0x40\n        /* \"@openzeppelin/contracts/utils/math/Math.sol\":10339:10351  result += 64 */\n      add\n        /* \"@openzeppelin/contracts/utils/math/Math.sol\":10263:10366  if (value >= 10 ** 64) {... */\n    tag_340:\n        /* \"@openzeppelin/contracts/utils/math/Math.sol\":10392:10400  10 ** 32 */\n      0x04ee2d6d415b85acef8100000000\n        /* \"@openzeppelin/contracts/utils/math/Math.sol\":10383:10388  value */\n      dup4\n        /* \"@openzeppelin/contracts/utils/math/Math.sol\":10383:10400  value >= 10 ** 32 */\n      lt\n        /* \"@openzeppelin/contracts/utils/math/Math.sol\":10379:10482  if (value >= 10 ** 32) {... */\n      tag_343\n      jumpi\n        /* \"@openzeppelin/contracts/utils/math/Math.sol\":10429:10437  10 ** 32 */\n      0x04ee2d6d415b85acef8100000000\n        /* \"@openzeppelin/contracts/utils/math/Math.sol\":10420:10437  value /= 10 ** 32 */\n      dup4\n      div\n      swap3\n      pop\n        /* \"@openzeppelin/contracts/utils/math/Math.sol\":10465:10467  32 */\n      0x20\n        /* \"@openzeppelin/contracts/utils/math/Math.sol\":10455:10467  result += 32 */\n      add\n        /* \"@openzeppelin/contracts/utils/math/Math.sol\":10379:10482  if (value >= 10 ** 32) {... */\n    tag_343:\n        /* \"@openzeppelin/contracts/utils/math/Math.sol\":10508:10516  10 ** 16 */\n      0x2386f26fc10000\n        /* \"@openzeppelin/contracts/utils/math/Math.sol\":10499:10504  value */\n      dup4\n        /* \"@openzeppelin/contracts/utils/math/Math.sol\":10499:10516  value >= 10 ** 16 */\n      lt\n        /* \"@openzeppelin/contracts/utils/math/Math.sol\":10495:10598  if (value >= 10 ** 16) {... */\n      tag_346\n      jumpi\n        /* \"@openzeppelin/contracts/utils/math/Math.sol\":10545:10553  10 ** 16 */\n      0x2386f26fc10000\n        /* \"@openzeppelin/contracts/utils/math/Math.sol\":10536:10553  value /= 10 ** 16 */\n      dup4\n      div\n      swap3\n      pop\n        /* \"@openzeppelin/contracts/utils/math/Math.sol\":10581:10583  16 */\n      0x10\n        /* \"@openzeppelin/contracts/utils/math/Math.sol\":10571:10583  result += 16 */\n      add\n        /* \"@openzeppelin/contracts/utils/math/Math.sol\":10495:10598  if (value >= 10 ** 16) {... */\n    tag_346:\n        /* \"@openzeppelin/contracts/utils/math/Math.sol\":10624:10631  10 ** 8 */\n      0x05f5e100\n        /* \"@openzeppelin/contracts/utils/math/Math.sol\":10615:10620  value */\n      dup4\n        /* \"@openzeppelin/contracts/utils/math/Math.sol\":10615:10631  value >= 10 ** 8 */\n      lt\n        /* \"@openzeppelin/contracts/utils/math/Math.sol\":10611:10711  if (value >= 10 ** 8) {... */\n      tag_349\n      jumpi\n        /* \"@openzeppelin/contracts/utils/math/Math.sol\":10660:10667  10 ** 8 */\n      0x05f5e100\n        /* \"@openzeppelin/contracts/utils/math/Math.sol\":10651:10667  value /= 10 ** 8 */\n      dup4\n      div\n      swap3\n      pop\n        /* \"@openzeppelin/contracts/utils/math/Math.sol\":10695:10696  8 */\n      0x08\n        /* \"@openzeppelin/contracts/utils/math/Math.sol\":10685:10696  result += 8 */\n      add\n        /* \"@openzeppelin/contracts/utils/math/Math.sol\":10611:10711  if (value >= 10 ** 8) {... */\n    tag_349:\n        /* \"@openzeppelin/contracts/utils/math/Math.sol\":10737:10744  10 ** 4 */\n      0x2710\n        /* \"@openzeppelin/contracts/utils/math/Math.sol\":10728:10733  value */\n      dup4\n        /* \"@openzeppelin/contracts/utils/math/Math.sol\":10728:10744  value >= 10 ** 4 */\n      lt\n        /* \"@openzeppelin/contracts/utils/math/Math.sol\":10724:10824  if (value >= 10 ** 4) {... */\n      tag_352\n      jumpi\n        /* \"@openzeppelin/contracts/utils/math/Math.sol\":10773:10780  10 ** 4 */\n      0x2710\n        /* \"@openzeppelin/contracts/utils/math/Math.sol\":10764:10780  value /= 10 ** 4 */\n      dup4\n      div\n      swap3\n      pop\n        /* \"@openzeppelin/contracts/utils/math/Math.sol\":10808:10809  4 */\n      0x04\n        /* \"@openzeppelin/contracts/utils/math/Math.sol\":10798:10809  result += 4 */\n      add\n        /* \"@openzeppelin/contracts/utils/math/Math.sol\":10724:10824  if (value >= 10 ** 4) {... */\n    tag_352:\n        /* \"@openzeppelin/contracts/utils/math/Math.sol\":10850:10857  10 ** 2 */\n      0x64\n        /* \"@openzeppelin/contracts/utils/math/Math.sol\":10841:10846  value */\n      dup4\n        /* \"@openzeppelin/contracts/utils/math/Math.sol\":10841:10857  value >= 10 ** 2 */\n      lt\n        /* \"@openzeppelin/contracts/utils/math/Math.sol\":10837:10937  if (value >= 10 ** 2) {... */\n      tag_355\n      jumpi\n        /* \"@openzeppelin/contracts/utils/math/Math.sol\":10886:10893  10 ** 2 */\n      0x64\n        /* \"@openzeppelin/contracts/utils/math/Math.sol\":10877:10893  value /= 10 ** 2 */\n      dup4\n      div\n      swap3\n      pop\n        /* \"@openzeppelin/contracts/utils/math/Math.sol\":10921:10922  2 */\n      0x02\n        /* \"@openzeppelin/contracts/utils/math/Math.sol\":10911:10922  result += 2 */\n      add\n        /* \"@openzeppelin/contracts/utils/math/Math.sol\":10837:10937  if (value >= 10 ** 2) {... */\n    tag_355:\n        /* \"@openzeppelin/contracts/utils/math/Math.sol\":10963:10970  10 ** 1 */\n      0x0a\n        /* \"@openzeppelin/contracts/utils/math/Math.sol\":10954:10959  value */\n      dup4\n        /* \"@openzeppelin/contracts/utils/math/Math.sol\":10954:10970  value >= 10 ** 1 */\n      lt\n        /* \"@openzeppelin/contracts/utils/math/Math.sol\":10950:11016  if (value >= 10 ** 1) {... */\n      tag_152\n      jumpi\n        /* \"@openzeppelin/contracts/utils/math/Math.sol\":11000:11001  1 */\n      0x01\n        /* \"@openzeppelin/contracts/utils/math/Math.sol\":10990:11001  result += 1 */\n      add\n        /* \"@openzeppelin/contracts/utils/math/Math.sol\":11042:11048  result */\n      swap3\n        /* \"@openzeppelin/contracts/utils/math/Math.sol\":10139:11055  function log10(uint256 value) internal pure returns (uint256) {... */\n      swap2\n      pop\n      pop\n      jump\t// out\n        /* \"#utility.yul\":14:145   */\n    tag_361:\n      not(sub(shl(0xe0, 0x01), 0x01))\n        /* \"#utility.yul\":88:120   */\n      dup2\n      and\n        /* \"#utility.yul\":78:121   */\n      dup2\n      eq\n        /* \"#utility.yul\":68:139   */\n      tag_258\n      jumpi\n        /* \"#utility.yul\":135:136   */\n      0x00\n        /* \"#utility.yul\":132:133   */\n      dup1\n        /* \"#utility.yul\":125:137   */\n      revert\n        /* \"#utility.yul\":150:395   */\n    tag_40:\n        /* \"#utility.yul\":208:214   */\n      0x00\n        /* \"#utility.yul\":261:263   */\n      0x20\n        /* \"#utility.yul\":249:258   */\n      dup3\n        /* \"#utility.yul\":240:247   */\n      dup5\n        /* \"#utility.yul\":236:259   */\n      sub\n        /* \"#utility.yul\":232:264   */\n      slt\n        /* \"#utility.yul\":229:281   */\n      iszero\n      tag_374\n      jumpi\n        /* \"#utility.yul\":277:278   */\n      0x00\n        /* \"#utility.yul\":274:275   */\n      dup1\n        /* \"#utility.yul\":267:279   */\n      revert\n        /* \"#utility.yul\":229:281   */\n    tag_374:\n        /* \"#utility.yul\":316:325   */\n      dup2\n        /* \"#utility.yul\":303:326   */\n      calldataload\n        /* \"#utility.yul\":335:365   */\n      tag_187\n        /* \"#utility.yul\":359:364   */\n      dup2\n        /* \"#utility.yul\":335:365   */\n      tag_361\n      jump\t// in\n        /* \"#utility.yul\":592:842   */\n    tag_362:\n        /* \"#utility.yul\":677:678   */\n      0x00\n        /* \"#utility.yul\":687:800   */\n    tag_378:\n        /* \"#utility.yul\":701:707   */\n      dup4\n        /* \"#utility.yul\":698:699   */\n      dup2\n        /* \"#utility.yul\":695:708   */\n      lt\n        /* \"#utility.yul\":687:800   */\n      iszero\n      tag_380\n      jumpi\n        /* \"#utility.yul\":777:788   */\n      dup2\n      dup2\n      add\n        /* \"#utility.yul\":771:789   */\n      mload\n        /* \"#utility.yul\":758:769   */\n      dup4\n      dup3\n      add\n        /* \"#utility.yul\":751:790   */\n      mstore\n        /* \"#utility.yul\":723:725   */\n      0x20\n        /* \"#utility.yul\":716:726   */\n      add\n        /* \"#utility.yul\":687:800   */\n      jump(tag_378)\n    tag_380:\n      pop\n      pop\n        /* \"#utility.yul\":834:835   */\n      0x00\n        /* \"#utility.yul\":816:832   */\n      swap2\n      add\n        /* \"#utility.yul\":809:836   */\n      mstore\n        /* \"#utility.yul\":592:842   */\n      jump\t// out\n        /* \"#utility.yul\":847:1118   */\n    tag_363:\n        /* \"#utility.yul\":889:892   */\n      0x00\n        /* \"#utility.yul\":927:932   */\n      dup2\n        /* \"#utility.yul\":921:933   */\n      mload\n        /* \"#utility.yul\":954:960   */\n      dup1\n        /* \"#utility.yul\":949:952   */\n      dup5\n        /* \"#utility.yul\":942:961   */\n      mstore\n        /* \"#utility.yul\":970:1046   */\n      tag_382\n        /* \"#utility.yul\":1039:1045   */\n      dup2\n        /* \"#utility.yul\":1032:1036   */\n      0x20\n        /* \"#utility.yul\":1027:1030   */\n      dup7\n        /* \"#utility.yul\":1023:1037   */\n      add\n        /* \"#utility.yul\":1016:1020   */\n      0x20\n        /* \"#utility.yul\":1009:1014   */\n      dup7\n        /* \"#utility.yul\":1005:1021   */\n      add\n        /* \"#utility.yul\":970:1046   */\n      tag_362\n      jump\t// in\n    tag_382:\n        /* \"#utility.yul\":1100:1102   */\n      0x1f\n        /* \"#utility.yul\":1079:1094   */\n      add\n      not(0x1f)\n        /* \"#utility.yul\":1075:1104   */\n      and\n        /* \"#utility.yul\":1066:1105   */\n      swap3\n      swap1\n      swap3\n      add\n        /* \"#utility.yul\":1107:1111   */\n      0x20\n        /* \"#utility.yul\":1062:1112   */\n      add\n      swap3\n        /* \"#utility.yul\":847:1118   */\n      swap2\n      pop\n      pop\n      jump\t// out\n        /* \"#utility.yul\":1123:1343   */\n    tag_47:\n        /* \"#utility.yul\":1272:1274   */\n      0x20\n        /* \"#utility.yul\":1261:1270   */\n      dup2\n        /* \"#utility.yul\":1254:1275   */\n      mstore\n        /* \"#utility.yul\":1235:1239   */\n      0x00\n        /* \"#utility.yul\":1292:1337   */\n      tag_187\n        /* \"#utility.yul\":1333:1335   */\n      0x20\n        /* \"#utility.yul\":1322:1331   */\n      dup4\n        /* \"#utility.yul\":1318:1336   */\n      add\n        /* \"#utility.yul\":1310:1316   */\n      dup5\n        /* \"#utility.yul\":1292:1337   */\n      tag_363\n      jump\t// in\n        /* \"#utility.yul\":1348:1528   */\n    tag_50:\n        /* \"#utility.yul\":1407:1413   */\n      0x00\n        /* \"#utility.yul\":1460:1462   */\n      0x20\n        /* \"#utility.yul\":1448:1457   */\n      dup3\n        /* \"#utility.yul\":1439:1446   */\n      dup5\n        /* \"#utility.yul\":1435:1458   */\n      sub\n        /* \"#utility.yul\":1431:1463   */\n      slt\n        /* \"#utility.yul\":1428:1480   */\n      iszero\n      tag_386\n      jumpi\n        /* \"#utility.yul\":1476:1477   */\n      0x00\n        /* \"#utility.yul\":1473:1474   */\n      dup1\n        /* \"#utility.yul\":1466:1478   */\n      revert\n        /* \"#utility.yul\":1428:1480   */\n    tag_386:\n      pop\n        /* \"#utility.yul\":1499:1522   */\n      calldataload\n      swap2\n        /* \"#utility.yul\":1348:1528   */\n      swap1\n      pop\n      jump\t// out\n        /* \"#utility.yul\":1741:1914   */\n    tag_364:\n        /* \"#utility.yul\":1809:1829   */\n      dup1\n      calldataload\n      sub(shl(0xa0, 0x01), 0x01)\n        /* \"#utility.yul\":1858:1889   */\n      dup2\n      and\n        /* \"#utility.yul\":1848:1890   */\n      dup2\n      eq\n        /* \"#utility.yul\":1838:1908   */\n      tag_239\n      jumpi\n        /* \"#utility.yul\":1904:1905   */\n      0x00\n        /* \"#utility.yul\":1901:1902   */\n      dup1\n        /* \"#utility.yul\":1894:1906   */\n      revert\n        /* \"#utility.yul\":1919:2173   */\n    tag_56:\n        /* \"#utility.yul\":1987:1993   */\n      0x00\n        /* \"#utility.yul\":1995:2001   */\n      dup1\n        /* \"#utility.yul\":2048:2050   */\n      0x40\n        /* \"#utility.yul\":2036:2045   */\n      dup4\n        /* \"#utility.yul\":2027:2034   */\n      dup6\n        /* \"#utility.yul\":2023:2046   */\n      sub\n        /* \"#utility.yul\":2019:2051   */\n      slt\n        /* \"#utility.yul\":2016:2068   */\n      iszero\n      tag_391\n      jumpi\n        /* \"#utility.yul\":2064:2065   */\n      0x00\n        /* \"#utility.yul\":2061:2062   */\n      dup1\n        /* \"#utility.yul\":2054:2066   */\n      revert\n        /* \"#utility.yul\":2016:2068   */\n    tag_391:\n        /* \"#utility.yul\":2087:2116   */\n      tag_392\n        /* \"#utility.yul\":2106:2115   */\n      dup4\n        /* \"#utility.yul\":2087:2116   */\n      tag_364\n      jump\t// in\n    tag_392:\n        /* \"#utility.yul\":2077:2116   */\n      swap5\n        /* \"#utility.yul\":2163:2165   */\n      0x20\n        /* \"#utility.yul\":2148:2166   */\n      swap4\n      swap1\n      swap4\n      add\n        /* \"#utility.yul\":2135:2167   */\n      calldataload\n      swap4\n      pop\n      pop\n      pop\n        /* \"#utility.yul\":1919:2173   */\n      jump\t// out\n        /* \"#utility.yul\":2360:2520   */\n    tag_365:\n        /* \"#utility.yul\":2425:2445   */\n      dup1\n      calldataload\n        /* \"#utility.yul\":2481:2494   */\n      dup1\n      iszero\n        /* \"#utility.yul\":2474:2495   */\n      iszero\n        /* \"#utility.yul\":2464:2496   */\n      dup2\n      eq\n        /* \"#utility.yul\":2454:2514   */\n      tag_239\n      jumpi\n        /* \"#utility.yul\":2510:2511   */\n      0x00\n        /* \"#utility.yul\":2507:2508   */\n      dup1\n        /* \"#utility.yul\":2500:2512   */\n      revert\n        /* \"#utility.yul\":2525:2705   */\n    tag_64:\n        /* \"#utility.yul\":2581:2587   */\n      0x00\n        /* \"#utility.yul\":2634:2636   */\n      0x20\n        /* \"#utility.yul\":2622:2631   */\n      dup3\n        /* \"#utility.yul\":2613:2620   */\n      dup5\n        /* \"#utility.yul\":2609:2632   */\n      sub\n        /* \"#utility.yul\":2605:2637   */\n      slt\n        /* \"#utility.yul\":2602:2654   */\n      iszero\n      tag_397\n      jumpi\n        /* \"#utility.yul\":2650:2651   */\n      0x00\n        /* \"#utility.yul\":2647:2648   */\n      dup1\n        /* \"#utility.yul\":2640:2652   */\n      revert\n        /* \"#utility.yul\":2602:2654   */\n    tag_397:\n        /* \"#utility.yul\":2673:2699   */\n      tag_187\n        /* \"#utility.yul\":2689:2698   */\n      dup3\n        /* \"#utility.yul\":2673:2699   */\n      tag_365\n      jump\t// in\n        /* \"#utility.yul\":2710:2896   */\n    tag_69:\n        /* \"#utility.yul\":2769:2775   */\n      0x00\n        /* \"#utility.yul\":2822:2824   */\n      0x20\n        /* \"#utility.yul\":2810:2819   */\n      dup3\n        /* \"#utility.yul\":2801:2808   */\n      dup5\n        /* \"#utility.yul\":2797:2820   */\n      sub\n        /* \"#utility.yul\":2793:2825   */\n      slt\n        /* \"#utility.yul\":2790:2842   */\n      iszero\n      tag_400\n      jumpi\n        /* \"#utility.yul\":2838:2839   */\n      0x00\n        /* \"#utility.yul\":2835:2836   */\n      dup1\n        /* \"#utility.yul\":2828:2840   */\n      revert\n        /* \"#utility.yul\":2790:2842   */\n    tag_400:\n        /* \"#utility.yul\":2861:2890   */\n      tag_187\n        /* \"#utility.yul\":2880:2889   */\n      dup3\n        /* \"#utility.yul\":2861:2890   */\n      tag_364\n      jump\t// in\n        /* \"#utility.yul\":2901:3229   */\n    tag_74:\n        /* \"#utility.yul\":2978:2984   */\n      0x00\n        /* \"#utility.yul\":2986:2992   */\n      dup1\n        /* \"#utility.yul\":2994:3000   */\n      0x00\n        /* \"#utility.yul\":3047:3049   */\n      0x60\n        /* \"#utility.yul\":3035:3044   */\n      dup5\n        /* \"#utility.yul\":3026:3033   */\n      dup7\n        /* \"#utility.yul\":3022:3045   */\n      sub\n        /* \"#utility.yul\":3018:3050   */\n      slt\n        /* \"#utility.yul\":3015:3067   */\n      iszero\n      tag_403\n      jumpi\n        /* \"#utility.yul\":3063:3064   */\n      0x00\n        /* \"#utility.yul\":3060:3061   */\n      dup1\n        /* \"#utility.yul\":3053:3065   */\n      revert\n        /* \"#utility.yul\":3015:3067   */\n    tag_403:\n        /* \"#utility.yul\":3086:3115   */\n      tag_404\n        /* \"#utility.yul\":3105:3114   */\n      dup5\n        /* \"#utility.yul\":3086:3115   */\n      tag_364\n      jump\t// in\n    tag_404:\n        /* \"#utility.yul\":3076:3115   */\n      swap3\n      pop\n        /* \"#utility.yul\":3134:3172   */\n      tag_405\n        /* \"#utility.yul\":3168:3170   */\n      0x20\n        /* \"#utility.yul\":3157:3166   */\n      dup6\n        /* \"#utility.yul\":3153:3171   */\n      add\n        /* \"#utility.yul\":3134:3172   */\n      tag_364\n      jump\t// in\n    tag_405:\n        /* \"#utility.yul\":3124:3172   */\n      swap2\n      pop\n        /* \"#utility.yul\":3219:3221   */\n      0x40\n        /* \"#utility.yul\":3208:3217   */\n      dup5\n        /* \"#utility.yul\":3204:3222   */\n      add\n        /* \"#utility.yul\":3191:3223   */\n      calldataload\n        /* \"#utility.yul\":3181:3223   */\n      swap1\n      pop\n        /* \"#utility.yul\":2901:3229   */\n      swap3\n      pop\n      swap3\n      pop\n      swap3\n      jump\t// out\n        /* \"#utility.yul\":3234:3488   */\n    tag_116:\n        /* \"#utility.yul\":3299:3305   */\n      0x00\n        /* \"#utility.yul\":3307:3313   */\n      dup1\n        /* \"#utility.yul\":3360:3362   */\n      0x40\n        /* \"#utility.yul\":3348:3357   */\n      dup4\n        /* \"#utility.yul\":3339:3346   */\n      dup6\n        /* \"#utility.yul\":3335:3358   */\n      sub\n        /* \"#utility.yul\":3331:3363   */\n      slt\n        /* \"#utility.yul\":3328:3380   */\n      iszero\n      tag_407\n      jumpi\n        /* \"#utility.yul\":3376:3377   */\n      0x00\n        /* \"#utility.yul\":3373:3374   */\n      dup1\n        /* \"#utility.yul\":3366:3378   */\n      revert\n        /* \"#utility.yul\":3328:3380   */\n    tag_407:\n        /* \"#utility.yul\":3399:3428   */\n      tag_408\n        /* \"#utility.yul\":3418:3427   */\n      dup4\n        /* \"#utility.yul\":3399:3428   */\n      tag_364\n      jump\t// in\n    tag_408:\n        /* \"#utility.yul\":3389:3428   */\n      swap2\n      pop\n        /* \"#utility.yul\":3447:3482   */\n      tag_409\n        /* \"#utility.yul\":3478:3480   */\n      0x20\n        /* \"#utility.yul\":3467:3476   */\n      dup5\n        /* \"#utility.yul\":3463:3481   */\n      add\n        /* \"#utility.yul\":3447:3482   */\n      tag_365\n      jump\t// in\n    tag_409:\n        /* \"#utility.yul\":3437:3482   */\n      swap1\n      pop\n        /* \"#utility.yul\":3234:3488   */\n      swap3\n      pop\n      swap3\n      swap1\n      pop\n      jump\t// out\n        /* \"#utility.yul\":3493:4301   */\n    tag_120:\n        /* \"#utility.yul\":3590:3596   */\n      0x00\n        /* \"#utility.yul\":3598:3604   */\n      dup1\n        /* \"#utility.yul\":3606:3612   */\n      0x00\n        /* \"#utility.yul\":3614:3620   */\n      dup1\n        /* \"#utility.yul\":3622:3628   */\n      0x00\n        /* \"#utility.yul\":3675:3678   */\n      0x80\n        /* \"#utility.yul\":3663:3672   */\n      dup7\n        /* \"#utility.yul\":3654:3661   */\n      dup9\n        /* \"#utility.yul\":3650:3673   */\n      sub\n        /* \"#utility.yul\":3646:3679   */\n      slt\n        /* \"#utility.yul\":3643:3696   */\n      iszero\n      tag_411\n      jumpi\n        /* \"#utility.yul\":3692:3693   */\n      0x00\n        /* \"#utility.yul\":3689:3690   */\n      dup1\n        /* \"#utility.yul\":3682:3694   */\n      revert\n        /* \"#utility.yul\":3643:3696   */\n    tag_411:\n        /* \"#utility.yul\":3715:3744   */\n      tag_412\n        /* \"#utility.yul\":3734:3743   */\n      dup7\n        /* \"#utility.yul\":3715:3744   */\n      tag_364\n      jump\t// in\n    tag_412:\n        /* \"#utility.yul\":3705:3744   */\n      swap5\n      pop\n        /* \"#utility.yul\":3763:3801   */\n      tag_413\n        /* \"#utility.yul\":3797:3799   */\n      0x20\n        /* \"#utility.yul\":3786:3795   */\n      dup8\n        /* \"#utility.yul\":3782:3800   */\n      add\n        /* \"#utility.yul\":3763:3801   */\n      tag_364\n      jump\t// in\n    tag_413:\n        /* \"#utility.yul\":3753:3801   */\n      swap4\n      pop\n        /* \"#utility.yul\":3848:3850   */\n      0x40\n        /* \"#utility.yul\":3837:3846   */\n      dup7\n        /* \"#utility.yul\":3833:3851   */\n      add\n        /* \"#utility.yul\":3820:3852   */\n      calldataload\n        /* \"#utility.yul\":3810:3852   */\n      swap3\n      pop\n        /* \"#utility.yul\":3903:3905   */\n      0x60\n        /* \"#utility.yul\":3892:3901   */\n      dup7\n        /* \"#utility.yul\":3888:3906   */\n      add\n        /* \"#utility.yul\":3875:3907   */\n      calldataload\n        /* \"#utility.yul\":3926:3944   */\n      0xffffffffffffffff\n        /* \"#utility.yul\":3967:3969   */\n      dup1\n        /* \"#utility.yul\":3959:3965   */\n      dup3\n        /* \"#utility.yul\":3956:3970   */\n      gt\n        /* \"#utility.yul\":3953:3987   */\n      iszero\n      tag_414\n      jumpi\n        /* \"#utility.yul\":3983:3984   */\n      0x00\n        /* \"#utility.yul\":3980:3981   */\n      dup1\n        /* \"#utility.yul\":3973:3985   */\n      revert\n        /* \"#utility.yul\":3953:3987   */\n    tag_414:\n        /* \"#utility.yul\":4021:4027   */\n      dup2\n        /* \"#utility.yul\":4010:4019   */\n      dup9\n        /* \"#utility.yul\":4006:4028   */\n      add\n        /* \"#utility.yul\":3996:4028   */\n      swap2\n      pop\n        /* \"#utility.yul\":4066:4073   */\n      dup9\n        /* \"#utility.yul\":4059:4063   */\n      0x1f\n        /* \"#utility.yul\":4055:4057   */\n      dup4\n        /* \"#utility.yul\":4051:4064   */\n      add\n        /* \"#utility.yul\":4047:4074   */\n      slt\n        /* \"#utility.yul\":4037:4092   */\n      tag_415\n      jumpi\n        /* \"#utility.yul\":4088:4089   */\n      0x00\n        /* \"#utility.yul\":4085:4086   */\n      dup1\n        /* \"#utility.yul\":4078:4090   */\n      revert\n        /* \"#utility.yul\":4037:4092   */\n    tag_415:\n        /* \"#utility.yul\":4128:4130   */\n      dup2\n        /* \"#utility.yul\":4115:4131   */\n      calldataload\n        /* \"#utility.yul\":4154:4156   */\n      dup2\n        /* \"#utility.yul\":4146:4152   */\n      dup2\n        /* \"#utility.yul\":4143:4157   */\n      gt\n        /* \"#utility.yul\":4140:4174   */\n      iszero\n      tag_416\n      jumpi\n        /* \"#utility.yul\":4170:4171   */\n      0x00\n        /* \"#utility.yul\":4167:4168   */\n      dup1\n        /* \"#utility.yul\":4160:4172   */\n      revert\n        /* \"#utility.yul\":4140:4174   */\n    tag_416:\n        /* \"#utility.yul\":4215:4222   */\n      dup10\n        /* \"#utility.yul\":4210:4212   */\n      0x20\n        /* \"#utility.yul\":4201:4207   */\n      dup3\n        /* \"#utility.yul\":4197:4199   */\n      dup6\n        /* \"#utility.yul\":4193:4208   */\n      add\n        /* \"#utility.yul\":4189:4213   */\n      add\n        /* \"#utility.yul\":4186:4223   */\n      gt\n        /* \"#utility.yul\":4183:4240   */\n      iszero\n      tag_417\n      jumpi\n        /* \"#utility.yul\":4236:4237   */\n      0x00\n        /* \"#utility.yul\":4233:4234   */\n      dup1\n        /* \"#utility.yul\":4226:4238   */\n      revert\n        /* \"#utility.yul\":4183:4240   */\n    tag_417:\n        /* \"#utility.yul\":3493:4301   */\n      swap7\n      swap10\n      swap6\n      swap9\n      pop\n      swap4\n      swap7\n      pop\n        /* \"#utility.yul\":4267:4269   */\n      0x20\n        /* \"#utility.yul\":4259:4270   */\n      add\n      swap5\n        /* \"#utility.yul\":4289:4295   */\n      swap4\n        /* \"#utility.yul\":3493:4301   */\n      swap3\n      pop\n      pop\n      pop\n      jump\t// out\n        /* \"#utility.yul\":4306:4433   */\n    tag_311:\n        /* \"#utility.yul\":4367:4377   */\n      0x4e487b71\n        /* \"#utility.yul\":4362:4365   */\n      0xe0\n        /* \"#utility.yul\":4358:4378   */\n      shl\n        /* \"#utility.yul\":4355:4356   */\n      0x00\n        /* \"#utility.yul\":4348:4379   */\n      mstore\n        /* \"#utility.yul\":4398:4402   */\n      0x41\n        /* \"#utility.yul\":4395:4396   */\n      0x04\n        /* \"#utility.yul\":4388:4403   */\n      mstore\n        /* \"#utility.yul\":4422:4426   */\n      0x24\n        /* \"#utility.yul\":4419:4420   */\n      0x00\n        /* \"#utility.yul\":4412:4427   */\n      revert\n        /* \"#utility.yul\":4438:5360   */\n    tag_136:\n        /* \"#utility.yul\":4507:4513   */\n      0x00\n        /* \"#utility.yul\":4560:4562   */\n      0x20\n        /* \"#utility.yul\":4548:4557   */\n      dup3\n        /* \"#utility.yul\":4539:4546   */\n      dup5\n        /* \"#utility.yul\":4535:4558   */\n      sub\n        /* \"#utility.yul\":4531:4563   */\n      slt\n        /* \"#utility.yul\":4528:4580   */\n      iszero\n      tag_420\n      jumpi\n        /* \"#utility.yul\":4576:4577   */\n      0x00\n        /* \"#utility.yul\":4573:4574   */\n      dup1\n        /* \"#utility.yul\":4566:4578   */\n      revert\n        /* \"#utility.yul\":4528:4580   */\n    tag_420:\n        /* \"#utility.yul\":4616:4625   */\n      dup2\n        /* \"#utility.yul\":4603:4626   */\n      calldataload\n        /* \"#utility.yul\":4645:4663   */\n      0xffffffffffffffff\n        /* \"#utility.yul\":4686:4688   */\n      dup1\n        /* \"#utility.yul\":4678:4684   */\n      dup3\n        /* \"#utility.yul\":4675:4689   */\n      gt\n        /* \"#utility.yul\":4672:4706   */\n      iszero\n      tag_421\n      jumpi\n        /* \"#utility.yul\":4702:4703   */\n      0x00\n        /* \"#utility.yul\":4699:4700   */\n      dup1\n        /* \"#utility.yul\":4692:4704   */\n      revert\n        /* \"#utility.yul\":4672:4706   */\n    tag_421:\n        /* \"#utility.yul\":4740:4746   */\n      dup2\n        /* \"#utility.yul\":4729:4738   */\n      dup5\n        /* \"#utility.yul\":4725:4747   */\n      add\n        /* \"#utility.yul\":4715:4747   */\n      swap2\n      pop\n        /* \"#utility.yul\":4785:4792   */\n      dup5\n        /* \"#utility.yul\":4778:4782   */\n      0x1f\n        /* \"#utility.yul\":4774:4776   */\n      dup4\n        /* \"#utility.yul\":4770:4783   */\n      add\n        /* \"#utility.yul\":4766:4793   */\n      slt\n        /* \"#utility.yul\":4756:4811   */\n      tag_422\n      jumpi\n        /* \"#utility.yul\":4807:4808   */\n      0x00\n        /* \"#utility.yul\":4804:4805   */\n      dup1\n        /* \"#utility.yul\":4797:4809   */\n      revert\n        /* \"#utility.yul\":4756:4811   */\n    tag_422:\n        /* \"#utility.yul\":4843:4845   */\n      dup2\n        /* \"#utility.yul\":4830:4846   */\n      calldataload\n        /* \"#utility.yul\":4865:4867   */\n      dup2\n        /* \"#utility.yul\":4861:4863   */\n      dup2\n        /* \"#utility.yul\":4858:4868   */\n      gt\n        /* \"#utility.yul\":4855:4891   */\n      iszero\n      tag_424\n      jumpi\n        /* \"#utility.yul\":4871:4889   */\n      tag_424\n      tag_311\n      jump\t// in\n    tag_424:\n        /* \"#utility.yul\":4946:4948   */\n      0x40\n        /* \"#utility.yul\":4940:4949   */\n      mload\n        /* \"#utility.yul\":4914:4916   */\n      0x1f\n        /* \"#utility.yul\":5000:5013   */\n      dup3\n      add\n      not(0x1f)\n        /* \"#utility.yul\":4996:5018   */\n      swap1\n      dup2\n      and\n        /* \"#utility.yul\":5020:5022   */\n      0x3f\n        /* \"#utility.yul\":4992:5023   */\n      add\n        /* \"#utility.yul\":4988:5028   */\n      and\n        /* \"#utility.yul\":4976:5029   */\n      dup2\n      add\n      swap1\n        /* \"#utility.yul\":5044:5062   */\n      dup4\n      dup3\n      gt\n        /* \"#utility.yul\":5064:5086   */\n      dup2\n      dup4\n      lt\n        /* \"#utility.yul\":5041:5087   */\n      or\n        /* \"#utility.yul\":5038:5110   */\n      iszero\n      tag_426\n      jumpi\n        /* \"#utility.yul\":5090:5108   */\n      tag_426\n      tag_311\n      jump\t// in\n    tag_426:\n        /* \"#utility.yul\":5130:5140   */\n      dup2\n        /* \"#utility.yul\":5126:5128   */\n      0x40\n        /* \"#utility.yul\":5119:5141   */\n      mstore\n        /* \"#utility.yul\":5165:5167   */\n      dup3\n        /* \"#utility.yul\":5157:5163   */\n      dup2\n        /* \"#utility.yul\":5150:5168   */\n      mstore\n        /* \"#utility.yul\":5205:5212   */\n      dup8\n        /* \"#utility.yul\":5200:5202   */\n      0x20\n        /* \"#utility.yul\":5195:5197   */\n      dup5\n        /* \"#utility.yul\":5191:5193   */\n      dup8\n        /* \"#utility.yul\":5187:5198   */\n      add\n        /* \"#utility.yul\":5183:5203   */\n      add\n        /* \"#utility.yul\":5180:5213   */\n      gt\n        /* \"#utility.yul\":5177:5230   */\n      iszero\n      tag_427\n      jumpi\n        /* \"#utility.yul\":5226:5227   */\n      0x00\n        /* \"#utility.yul\":5223:5224   */\n      dup1\n        /* \"#utility.yul\":5216:5228   */\n      revert\n        /* \"#utility.yul\":5177:5230   */\n    tag_427:\n        /* \"#utility.yul\":5282:5284   */\n      dup3\n        /* \"#utility.yul\":5277:5279   */\n      0x20\n        /* \"#utility.yul\":5273:5275   */\n      dup7\n        /* \"#utility.yul\":5269:5280   */\n      add\n        /* \"#utility.yul\":5264:5266   */\n      0x20\n        /* \"#utility.yul\":5256:5262   */\n      dup4\n        /* \"#utility.yul\":5252:5267   */\n      add\n        /* \"#utility.yul\":5239:5285   */\n      calldatacopy\n        /* \"#utility.yul\":5327:5328   */\n      0x00\n        /* \"#utility.yul\":5305:5320   */\n      swap3\n      dup2\n      add\n        /* \"#utility.yul\":5322:5324   */\n      0x20\n        /* \"#utility.yul\":5301:5325   */\n      add\n        /* \"#utility.yul\":5294:5329   */\n      swap3\n      swap1\n      swap3\n      mstore\n      pop\n        /* \"#utility.yul\":5309:5315   */\n      swap6\n        /* \"#utility.yul\":4438:5360   */\n      swap5\n      pop\n      pop\n      pop\n      pop\n      pop\n      jump\t// out\n        /* \"#utility.yul\":5365:5625   */\n    tag_144:\n        /* \"#utility.yul\":5433:5439   */\n      0x00\n        /* \"#utility.yul\":5441:5447   */\n      dup1\n        /* \"#utility.yul\":5494:5496   */\n      0x40\n        /* \"#utility.yul\":5482:5491   */\n      dup4\n        /* \"#utility.yul\":5473:5480   */\n      dup6\n        /* \"#utility.yul\":5469:5492   */\n      sub\n        /* \"#utility.yul\":5465:5497   */\n      slt\n        /* \"#utility.yul\":5462:5514   */\n      iszero\n      tag_429\n      jumpi\n        /* \"#utility.yul\":5510:5511   */\n      0x00\n        /* \"#utility.yul\":5507:5508   */\n      dup1\n        /* \"#utility.yul\":5500:5512   */\n      revert\n        /* \"#utility.yul\":5462:5514   */\n    tag_429:\n        /* \"#utility.yul\":5533:5562   */\n      tag_430\n        /* \"#utility.yul\":5552:5561   */\n      dup4\n        /* \"#utility.yul\":5533:5562   */\n      tag_364\n      jump\t// in\n    tag_430:\n        /* \"#utility.yul\":5523:5562   */\n      swap2\n      pop\n        /* \"#utility.yul\":5581:5619   */\n      tag_409\n        /* \"#utility.yul\":5615:5617   */\n      0x20\n        /* \"#utility.yul\":5604:5613   */\n      dup5\n        /* \"#utility.yul\":5600:5618   */\n      add\n        /* \"#utility.yul\":5581:5619   */\n      tag_364\n      jump\t// in\n        /* \"#utility.yul\":7678:8058   */\n    tag_227:\n        /* \"#utility.yul\":7757:7758   */\n      0x01\n        /* \"#utility.yul\":7753:7765   */\n      dup2\n      dup2\n      shr\n      swap1\n        /* \"#utility.yul\":7800:7812   */\n      dup3\n      and\n      dup1\n        /* \"#utility.yul\":7821:7882   */\n      tag_439\n      jumpi\n        /* \"#utility.yul\":7875:7879   */\n      0x7f\n        /* \"#utility.yul\":7867:7873   */\n      dup3\n        /* \"#utility.yul\":7863:7880   */\n      and\n        /* \"#utility.yul\":7853:7880   */\n      swap2\n      pop\n        /* \"#utility.yul\":7821:7882   */\n    tag_439:\n        /* \"#utility.yul\":7928:7930   */\n      0x20\n        /* \"#utility.yul\":7920:7926   */\n      dup3\n        /* \"#utility.yul\":7917:7931   */\n      lt\n        /* \"#utility.yul\":7897:7915   */\n      dup2\n        /* \"#utility.yul\":7894:7932   */\n      sub\n        /* \"#utility.yul\":7891:8052   */\n      tag_440\n      jumpi\n        /* \"#utility.yul\":7974:7984   */\n      0x4e487b71\n        /* \"#utility.yul\":7969:7972   */\n      0xe0\n        /* \"#utility.yul\":7965:7985   */\n      shl\n        /* \"#utility.yul\":7962:7963   */\n      0x00\n        /* \"#utility.yul\":7955:7986   */\n      mstore\n        /* \"#utility.yul\":8009:8013   */\n      0x22\n        /* \"#utility.yul\":8006:8007   */\n      0x04\n        /* \"#utility.yul\":7999:8014   */\n      mstore\n        /* \"#utility.yul\":8037:8041   */\n      0x24\n        /* \"#utility.yul\":8034:8035   */\n      0x00\n        /* \"#utility.yul\":8027:8042   */\n      revert\n        /* \"#utility.yul\":7891:8052   */\n    tag_440:\n      pop\n        /* \"#utility.yul\":7678:8058   */\n      swap2\n      swap1\n      pop\n      jump\t// out\n        /* \"#utility.yul\":8189:9572   */\n    tag_234:\n        /* \"#utility.yul\":8514:8517   */\n      0x00\n        /* \"#utility.yul\":8543:8544   */\n      dup1\n        /* \"#utility.yul\":8576:8582   */\n      dup6\n        /* \"#utility.yul\":8570:8583   */\n      sload\n        /* \"#utility.yul\":8606:8642   */\n      tag_443\n        /* \"#utility.yul\":8632:8641   */\n      dup2\n        /* \"#utility.yul\":8606:8642   */\n      tag_227\n      jump\t// in\n    tag_443:\n        /* \"#utility.yul\":8661:8662   */\n      0x01\n        /* \"#utility.yul\":8678:8696   */\n      dup3\n      dup2\n      and\n        /* \"#utility.yul\":8705:8838   */\n      dup1\n      iszero\n      tag_445\n      jumpi\n        /* \"#utility.yul\":8852:8853   */\n      0x01\n        /* \"#utility.yul\":8847:9203   */\n      dup2\n      eq\n      tag_446\n      jumpi\n        /* \"#utility.yul\":8671:9203   */\n      jump(tag_444)\n        /* \"#utility.yul\":8705:8838   */\n    tag_445:\n      not(0xff)\n        /* \"#utility.yul\":8738:8762   */\n      dup5\n      and\n        /* \"#utility.yul\":8726:8763   */\n      dup8\n      mstore\n        /* \"#utility.yul\":8811:8825   */\n      dup3\n      iszero\n        /* \"#utility.yul\":8804:8826   */\n      iszero\n        /* \"#utility.yul\":8792:8827   */\n      dup4\n      mul\n        /* \"#utility.yul\":8783:8828   */\n      dup8\n      add\n      swap5\n      pop\n        /* \"#utility.yul\":8705:8838   */\n      jump(tag_444)\n        /* \"#utility.yul\":8847:9203   */\n    tag_446:\n        /* \"#utility.yul\":8878:8884   */\n      dup10\n        /* \"#utility.yul\":8875:8876   */\n      0x00\n        /* \"#utility.yul\":8868:8885   */\n      mstore\n        /* \"#utility.yul\":8908:8912   */\n      0x20\n        /* \"#utility.yul\":8953:8955   */\n      dup1\n        /* \"#utility.yul\":8950:8951   */\n      0x00\n        /* \"#utility.yul\":8940:8956   */\n      keccak256\n        /* \"#utility.yul\":8978:8979   */\n      0x00\n        /* \"#utility.yul\":8992:9157   */\n    tag_447:\n        /* \"#utility.yul\":9006:9012   */\n      dup6\n        /* \"#utility.yul\":9003:9004   */\n      dup2\n        /* \"#utility.yul\":9000:9013   */\n      lt\n        /* \"#utility.yul\":8992:9157   */\n      iszero\n      tag_449\n      jumpi\n        /* \"#utility.yul\":9084:9098   */\n      dup2\n      sload\n        /* \"#utility.yul\":9071:9082   */\n      dup11\n      dup3\n      add\n        /* \"#utility.yul\":9064:9099   */\n      mstore\n        /* \"#utility.yul\":9127:9143   */\n      swap1\n      dup5\n      add\n      swap1\n        /* \"#utility.yul\":9021:9031   */\n      dup3\n      add\n        /* \"#utility.yul\":8992:9157   */\n      jump(tag_447)\n    tag_449:\n        /* \"#utility.yul\":8996:8999   */\n      pop\n      pop\n      pop\n        /* \"#utility.yul\":9186:9192   */\n      dup3\n        /* \"#utility.yul\":9181:9184   */\n      dup8\n        /* \"#utility.yul\":9177:9193   */\n      add\n        /* \"#utility.yul\":9170:9193   */\n      swap5\n      pop\n        /* \"#utility.yul\":8671:9203   */\n    tag_444:\n      pop\n      pop\n      pop\n      pop\n        /* \"#utility.yul\":9234:9240   */\n      dup5\n        /* \"#utility.yul\":9228:9241   */\n      mload\n        /* \"#utility.yul\":9250:9318   */\n      tag_450\n        /* \"#utility.yul\":9309:9317   */\n      dup2\n        /* \"#utility.yul\":9304:9307   */\n      dup4\n        /* \"#utility.yul\":9297:9301   */\n      0x20\n        /* \"#utility.yul\":9289:9295   */\n      dup10\n        /* \"#utility.yul\":9285:9302   */\n      add\n        /* \"#utility.yul\":9250:9318   */\n      tag_362\n      jump\t// in\n    tag_450:\n      shl(0xa8, 0x3f746f6b656e547970653d)\n        /* \"#utility.yul\":9340:9358   */\n      swap2\n      add\n        /* \"#utility.yul\":9367:9395   */\n      swap1\n      dup2\n      mstore\n        /* \"#utility.yul\":9420:9433   */\n      dup4\n      mload\n        /* \"#utility.yul\":9442:9521   */\n      tag_451\n        /* \"#utility.yul\":9420:9433   */\n      dup2\n        /* \"#utility.yul\":9507:9509   */\n      0x0b\n        /* \"#utility.yul\":9496:9510   */\n      dup5\n      add\n        /* \"#utility.yul\":9489:9493   */\n      0x20\n        /* \"#utility.yul\":9477:9494   */\n      dup9\n      add\n        /* \"#utility.yul\":9442:9521   */\n      tag_362\n      jump\t// in\n    tag_451:\n        /* \"#utility.yul\":9541:9561   */\n      add\n        /* \"#utility.yul\":9563:9565   */\n      0x0b\n        /* \"#utility.yul\":9537:9566   */\n      add\n      swap6\n        /* \"#utility.yul\":8189:9572   */\n      swap5\n      pop\n      pop\n      pop\n      pop\n      pop\n      jump\t// out\n        /* \"#utility.yul\":9577:10122   */\n    tag_367:\n        /* \"#utility.yul\":9679:9681   */\n      0x1f\n        /* \"#utility.yul\":9674:9677   */\n      dup3\n        /* \"#utility.yul\":9671:9682   */\n      gt\n        /* \"#utility.yul\":9668:10116   */\n      iszero\n      tag_453\n      jumpi\n        /* \"#utility.yul\":9715:9716   */\n      0x00\n        /* \"#utility.yul\":9740:9745   */\n      dup2\n        /* \"#utility.yul\":9736:9738   */\n      dup2\n        /* \"#utility.yul\":9729:9746   */\n      mstore\n        /* \"#utility.yul\":9785:9789   */\n      0x20\n        /* \"#utility.yul\":9781:9783   */\n      dup2\n        /* \"#utility.yul\":9771:9790   */\n      keccak256\n        /* \"#utility.yul\":9855:9857   */\n      0x1f\n        /* \"#utility.yul\":9843:9853   */\n      dup6\n        /* \"#utility.yul\":9839:9858   */\n      add\n        /* \"#utility.yul\":9836:9837   */\n      0x05\n        /* \"#utility.yul\":9832:9859   */\n      shr\n        /* \"#utility.yul\":9826:9830   */\n      dup2\n        /* \"#utility.yul\":9822:9860   */\n      add\n        /* \"#utility.yul\":9891:9895   */\n      0x20\n        /* \"#utility.yul\":9879:9889   */\n      dup7\n        /* \"#utility.yul\":9876:9896   */\n      lt\n        /* \"#utility.yul\":9873:9920   */\n      iszero\n      tag_454\n      jumpi\n      pop\n        /* \"#utility.yul\":9914:9918   */\n      dup1\n        /* \"#utility.yul\":9873:9920   */\n    tag_454:\n        /* \"#utility.yul\":9969:9971   */\n      0x1f\n        /* \"#utility.yul\":9964:9967   */\n      dup6\n        /* \"#utility.yul\":9960:9972   */\n      add\n        /* \"#utility.yul\":9957:9958   */\n      0x05\n        /* \"#utility.yul\":9953:9973   */\n      shr\n        /* \"#utility.yul\":9947:9951   */\n      dup3\n        /* \"#utility.yul\":9943:9974   */\n      add\n        /* \"#utility.yul\":9933:9974   */\n      swap2\n      pop\n        /* \"#utility.yul\":10024:10106   */\n    tag_455:\n        /* \"#utility.yul\":10042:10044   */\n      dup2\n        /* \"#utility.yul\":10035:10040   */\n      dup2\n        /* \"#utility.yul\":10032:10045   */\n      lt\n        /* \"#utility.yul\":10024:10106   */\n      iszero\n      tag_457\n      jumpi\n        /* \"#utility.yul\":10087:10104   */\n      dup3\n      dup2\n      sstore\n        /* \"#utility.yul\":10068:10069   */\n      0x01\n        /* \"#utility.yul\":10057:10070   */\n      add\n        /* \"#utility.yul\":10024:10106   */\n      jump(tag_455)\n    tag_457:\n        /* \"#utility.yul\":10028:10031   */\n      pop\n      pop\n      pop\n        /* \"#utility.yul\":9668:10116   */\n    tag_453:\n        /* \"#utility.yul\":9577:10122   */\n      pop\n      pop\n      pop\n      jump\t// out\n        /* \"#utility.yul\":10298:11650   */\n    tag_241:\n        /* \"#utility.yul\":10424:10427   */\n      dup2\n        /* \"#utility.yul\":10418:10428   */\n      mload\n        /* \"#utility.yul\":10451:10469   */\n      0xffffffffffffffff\n        /* \"#utility.yul\":10443:10449   */\n      dup2\n        /* \"#utility.yul\":10440:10470   */\n      gt\n        /* \"#utility.yul\":10437:10493   */\n      iszero\n      tag_461\n      jumpi\n        /* \"#utility.yul\":10473:10491   */\n      tag_461\n      tag_311\n      jump\t// in\n    tag_461:\n        /* \"#utility.yul\":10502:10599   */\n      tag_462\n        /* \"#utility.yul\":10592:10598   */\n      dup2\n        /* \"#utility.yul\":10552:10590   */\n      tag_463\n        /* \"#utility.yul\":10584:10588   */\n      dup5\n        /* \"#utility.yul\":10578:10589   */\n      sload\n        /* \"#utility.yul\":10552:10590   */\n      tag_227\n      jump\t// in\n    tag_463:\n        /* \"#utility.yul\":10546:10550   */\n      dup5\n        /* \"#utility.yul\":10502:10599   */\n      tag_367\n      jump\t// in\n    tag_462:\n        /* \"#utility.yul\":10654:10658   */\n      0x20\n      dup1\n        /* \"#utility.yul\":10718:10720   */\n      0x1f\n        /* \"#utility.yul\":10707:10721   */\n      dup4\n      gt\n        /* \"#utility.yul\":10735:10736   */\n      0x01\n        /* \"#utility.yul\":10730:11393   */\n      dup2\n      eq\n      tag_465\n      jumpi\n        /* \"#utility.yul\":11437:11438   */\n      0x00\n        /* \"#utility.yul\":11454:11460   */\n      dup5\n        /* \"#utility.yul\":11451:11540   */\n      iszero\n      tag_466\n      jumpi\n      pop\n        /* \"#utility.yul\":11506:11525   */\n      dup6\n      dup4\n      add\n        /* \"#utility.yul\":11500:11526   */\n      mload\n        /* \"#utility.yul\":11451:11540   */\n    tag_466:\n      not(0x00)\n        /* \"#utility.yul\":10255:10256   */\n      0x03\n        /* \"#utility.yul\":10251:10262   */\n      dup7\n      swap1\n      shl\n        /* \"#utility.yul\":10247:10271   */\n      shr\n        /* \"#utility.yul\":10243:10272   */\n      not\n        /* \"#utility.yul\":10233:10273   */\n      and\n        /* \"#utility.yul\":10279:10280   */\n      0x01\n        /* \"#utility.yul\":10275:10286   */\n      dup6\n      swap1\n      shl\n        /* \"#utility.yul\":10230:10287   */\n      or\n        /* \"#utility.yul\":11553:11634   */\n      dup6\n      sstore\n        /* \"#utility.yul\":10700:11644   */\n      jump(tag_457)\n        /* \"#utility.yul\":10730:11393   */\n    tag_465:\n        /* \"#utility.yul\":8136:8137   */\n      0x00\n        /* \"#utility.yul\":8129:8143   */\n      dup6\n      dup2\n      mstore\n        /* \"#utility.yul\":8173:8177   */\n      0x20\n        /* \"#utility.yul\":8160:8178   */\n      dup2\n      keccak256\n      not(0x1f)\n        /* \"#utility.yul\":10766:10786   */\n      dup7\n      and\n      swap2\n        /* \"#utility.yul\":10884:11120   */\n    tag_469:\n        /* \"#utility.yul\":10898:10905   */\n      dup3\n        /* \"#utility.yul\":10895:10896   */\n      dup2\n        /* \"#utility.yul\":10892:10906   */\n      lt\n        /* \"#utility.yul\":10884:11120   */\n      iszero\n      tag_471\n      jumpi\n        /* \"#utility.yul\":10987:11006   */\n      dup9\n      dup7\n      add\n        /* \"#utility.yul\":10981:11007   */\n      mload\n        /* \"#utility.yul\":10966:11008   */\n      dup3\n      sstore\n        /* \"#utility.yul\":11079:11106   */\n      swap5\n      dup5\n      add\n      swap5\n        /* \"#utility.yul\":11047:11048   */\n      0x01\n        /* \"#utility.yul\":11035:11049   */\n      swap1\n      swap2\n      add\n      swap1\n        /* \"#utility.yul\":10914:10933   */\n      dup5\n      add\n        /* \"#utility.yul\":10884:11120   */\n      jump(tag_469)\n    tag_471:\n        /* \"#utility.yul\":10888:10891   */\n      pop\n        /* \"#utility.yul\":11148:11154   */\n      dup6\n        /* \"#utility.yul\":11139:11146   */\n      dup3\n        /* \"#utility.yul\":11136:11155   */\n      lt\n        /* \"#utility.yul\":11133:11334   */\n      iszero\n      tag_472\n      jumpi\n        /* \"#utility.yul\":11209:11228   */\n      dup8\n      dup6\n      add\n        /* \"#utility.yul\":11203:11229   */\n      mload\n      not(0x00)\n        /* \"#utility.yul\":11292:11293   */\n      0x03\n        /* \"#utility.yul\":11288:11302   */\n      dup9\n      swap1\n      shl\n        /* \"#utility.yul\":11304:11307   */\n      0xf8\n        /* \"#utility.yul\":11284:11308   */\n      and\n        /* \"#utility.yul\":11280:11317   */\n      shr\n        /* \"#utility.yul\":11276:11318   */\n      not\n        /* \"#utility.yul\":11261:11319   */\n      and\n        /* \"#utility.yul\":11246:11320   */\n      dup2\n      sstore\n        /* \"#utility.yul\":11133:11334   */\n    tag_472:\n      pop\n      pop\n      pop\n      pop\n      pop\n        /* \"#utility.yul\":11380:11381   */\n      0x01\n        /* \"#utility.yul\":11364:11378   */\n      swap1\n      dup2\n      shl\n        /* \"#utility.yul\":11360:11382   */\n      add\n        /* \"#utility.yul\":11347:11383   */\n      swap1\n      sstore\n      pop\n        /* \"#utility.yul\":10298:11650   */\n      jump\t// out\n        /* \"#utility.yul\":12768:12895   */\n    tag_369:\n        /* \"#utility.yul\":12829:12839   */\n      0x4e487b71\n        /* \"#utility.yul\":12824:12827   */\n      0xe0\n        /* \"#utility.yul\":12820:12840   */\n      shl\n        /* \"#utility.yul\":12817:12818   */\n      0x00\n        /* \"#utility.yul\":12810:12841   */\n      mstore\n        /* \"#utility.yul\":12860:12864   */\n      0x11\n        /* \"#utility.yul\":12857:12858   */\n      0x04\n        /* \"#utility.yul\":12850:12865   */\n      mstore\n        /* \"#utility.yul\":12884:12888   */\n      0x24\n        /* \"#utility.yul\":12881:12882   */\n      0x00\n        /* \"#utility.yul\":12874:12889   */\n      revert\n        /* \"#utility.yul\":12900:13025   */\n    tag_274:\n        /* \"#utility.yul\":12965:12974   */\n      dup1\n      dup3\n      add\n        /* \"#utility.yul\":12986:12996   */\n      dup1\n      dup3\n      gt\n        /* \"#utility.yul\":12983:13019   */\n      iszero\n      tag_152\n      jumpi\n        /* \"#utility.yul\":12999:13017   */\n      tag_152\n      tag_369\n      jump\t// in\n        /* \"#utility.yul\":13030:13158   */\n    tag_286:\n        /* \"#utility.yul\":13097:13106   */\n      dup2\n      dup2\n      sub\n        /* \"#utility.yul\":13118:13129   */\n      dup2\n      dup2\n      gt\n        /* \"#utility.yul\":13115:13152   */\n      iszero\n      tag_152\n      jumpi\n        /* \"#utility.yul\":13132:13150   */\n      tag_152\n      tag_369\n      jump\t// in\n        /* \"#utility.yul\":13714:14203   */\n    tag_330:\n      sub(shl(0xa0, 0x01), 0x01)\n        /* \"#utility.yul\":13983:13998   */\n      dup6\n      dup2\n      and\n        /* \"#utility.yul\":13965:13999   */\n      dup3\n      mstore\n        /* \"#utility.yul\":14035:14050   */\n      dup5\n      and\n        /* \"#utility.yul\":14030:14032   */\n      0x20\n        /* \"#utility.yul\":14015:14033   */\n      dup3\n      add\n        /* \"#utility.yul\":14008:14051   */\n      mstore\n        /* \"#utility.yul\":14082:14084   */\n      0x40\n        /* \"#utility.yul\":14067:14085   */\n      dup2\n      add\n        /* \"#utility.yul\":14060:14094   */\n      dup4\n      swap1\n      mstore\n        /* \"#utility.yul\":14130:14133   */\n      0x80\n        /* \"#utility.yul\":14125:14127   */\n      0x60\n        /* \"#utility.yul\":14110:14128   */\n      dup3\n      add\n        /* \"#utility.yul\":14103:14134   */\n      dup2\n      swap1\n      mstore\n        /* \"#utility.yul\":13908:13912   */\n      0x00\n      swap1\n        /* \"#utility.yul\":14151:14197   */\n      tag_486\n      swap1\n        /* \"#utility.yul\":14177:14196   */\n      dup4\n      add\n        /* \"#utility.yul\":14169:14175   */\n      dup5\n        /* \"#utility.yul\":14151:14197   */\n      tag_363\n      jump\t// in\n    tag_486:\n        /* \"#utility.yul\":14143:14197   */\n      swap7\n        /* \"#utility.yul\":13714:14203   */\n      swap6\n      pop\n      pop\n      pop\n      pop\n      pop\n      pop\n      jump\t// out\n        /* \"#utility.yul\":14208:14457   */\n    tag_334:\n        /* \"#utility.yul\":14277:14283   */\n      0x00\n        /* \"#utility.yul\":14330:14332   */\n      0x20\n        /* \"#utility.yul\":14318:14327   */\n      dup3\n        /* \"#utility.yul\":14309:14316   */\n      dup5\n        /* \"#utility.yul\":14305:14328   */\n      sub\n        /* \"#utility.yul\":14301:14333   */\n      slt\n        /* \"#utility.yul\":14298:14350   */\n      iszero\n      tag_488\n      jumpi\n        /* \"#utility.yul\":14346:14347   */\n      0x00\n        /* \"#utility.yul\":14343:14344   */\n      dup1\n        /* \"#utility.yul\":14336:14348   */\n      revert\n        /* \"#utility.yul\":14298:14350   */\n    tag_488:\n        /* \"#utility.yul\":14378:14387   */\n      dup2\n        /* \"#utility.yul\":14372:14388   */\n      mload\n        /* \"#utility.yul\":14397:14427   */\n      tag_187\n        /* \"#utility.yul\":14421:14426   */\n      dup2\n        /* \"#utility.yul\":14397:14427   */\n      tag_361\n      jump\t// in\n\n    auxdata: 0xa26469706673582212206f1c18825d3fab6e9e47f6e6bb10febec3d3a653d85f4372dc448eab8ab495e864736f6c63430008140033\n}\n",
				"bytecode": {
					"linkReferences": {},
					"object": "608060405234801562000010575f80fd5b5060405162001a0738038062001a07833981016040819052620000339162000147565b6200003e33620000c0565b60016200004c828262000286565b506040805180820182526006808252651213d394d09560d21b602080840182905284518086018652928352820152915133927fddb33c9627985605622b2c4e8b308152b557aeae8ba59e2f05038c9d8ed6ae8492620000b1924292906001906200037b565b60405180910390a25062000439565b5f80546001600160a01b038381166001600160a01b0319831681178455604051919092169283917f8be0079c531659141344cd1fd0a4f28419497f9722a3daafe3b4186f6b6457e09190a35050565b634e487b7160e01b5f52604160045260245ffd5b5f5b838110156200013f57818101518382015260200162000125565b50505f910152565b5f6020828403121562000158575f80fd5b81516001600160401b03808211156200016f575f80fd5b818401915084601f83011262000183575f80fd5b8151818111156200019857620001986200010f565b604051601f8201601f19908116603f01168101908382118183101715620001c357620001c36200010f565b81604052828152876020848701011115620001dc575f80fd5b620001ef83602083016020880162000123565b979650505050505050565b600181811c908216806200020f57607f821691505b6020821081036200022e57634e487b7160e01b5f52602260045260245ffd5b50919050565b601f82111562000281575f81815260208120601f850160051c810160208610156200025c5750805b601f850160051c820191505b818110156200027d5782815560010162000268565b5050505b505050565b81516001600160401b03811115620002a257620002a26200010f565b620002ba81620002b38454620001fa565b8462000234565b602080601f831160018114620002f0575f8415620002d85750858301515b5f19600386901b1c1916600185901b1785556200027d565b5f85815260208120601f198616915b828110156200032057888601518255948401946001909101908401620002ff565b50858210156200033e57878501515f19600388901b60f8161c191681555b5050505050600190811b01905550565b5f81518084526200036781602086016020860162000123565b601f01601f19169290920160200192915050565b8481525f60206080818401526200039660808401876200034e565b8381036040850152620003aa81876200034e565b905083810360608501525f8554620003c281620001fa565b80845260018281168015620003e05760018114620003fb5762000428565b60ff1984168688015282151560051b86018701945062000428565b895f52865f205f5b84811015620004205781548882018a015290830190880162000403565b870188019550505b50929b9a5050505050505050505050565b6115c080620004475f395ff3fe608060405234801561000f575f80fd5b50600436106101bb575f3560e01c8063715018a6116100f3578063be37e90711610093578063e0df5b6f1161006e578063e0df5b6f146103a7578063e1604b70146103ba578063e985e9c5146103c2578063f2fde38b146103d5575f80fd5b8063be37e9071461036e578063c87b56dd14610381578063ce35de9514610394575f80fd5b806395d89b41116100ce57806395d89b41146101e75780639b2528521461033a578063a22cb4651461034d578063b88d4fde14610360575f80fd5b8063715018a61461030f57806376aed2e1146103175780638da5cb5b1461032a575f80fd5b806323b872dd1161015e57806342842e0e1161013957806342842e0e146102c357806351c18e0c146102d65780636352211e146102e957806370a08231146102fc575f80fd5b806323b872dd1461028a5780632f745c591461029d57806340c10f19146102b0575f80fd5b8063095ea7b311610199578063095ea7b31461023d57806318160ddd146102525780631c02bc31146102645780631f8eb67714610277575f80fd5b806301ffc9a7146101bf57806306fdde03146101e7578063081812fc14610212575b5f80fd5b6101d26101cd366004611015565b6103e8565b60405190151581526020015b60405180910390f35b6040805180820190915260068152651213d394d09560d21b60208201525b6040516101de919061107d565b61022561022036600461108f565b61041e565b6040516001600160a01b0390911681526020016101de565b61025061024b3660046110bc565b61045c565b005b6003545b6040519081526020016101de565b6101d26102723660046110f3565b61048f565b6101d261028536600461110c565b6104de565b610250610298366004611125565b6104fe565b6102566102ab3660046110bc565b610536565b6102566102be3660046110bc565b6105e7565b6102506102d1366004611125565b610601565b6102566102e436600461108f565b61063d565b6102256102f736600461108f565b610659565b61025661030a36600461110c565b61067e565b6102506106a6565b61025661032536600461108f565b6106b9565b5f546001600160a01b0316610225565b6102506103483660046110bc565b6106d5565b61025061035b36600461115e565b610717565b6102506102d136600461118f565b61025661037c3660046110bc565b610754565b61020561038f36600461108f565b610767565b6101d26103a236600461110c565b6107e4565b6102056103b5366004611236565b6107ee565b600254610256565b6101d26103d03660046112e1565b6108d7565b6102506103e336600461110c565b610915565b5f6001600160e01b031982166380ac58cd60e01b148061041857506301ffc9a760e01b6001600160e01b03198316145b92915050565b6040516313f8dceb60e31b815260206004820152600b60248201526a19d95d105c1c1c9bdd995960aa1b60448201525f906064015b60405180910390fd5b6040516313f8dceb60e31b8152602060048201526007602482015266617070726f766560c81b6044820152606401610453565b335f9081526007602052604081205481106104bf57604051635015929960e01b8152336004820152602401610453565b335f818152600860205260409020805460ff1916841515179055610418905b6001600160a01b0381165f9081526008602052604081205460ff16610418565b6040516313f8dceb60e31b815260206004820152600c60248201526b7472616e7366657246726f6d60a01b6044820152606401610453565b5f6105408361098e565b506001600160a01b0383165f9081526007602052604090205482106105965760405162461bcd60e51b815260206004820152600c60248201526b09eeae840decc4092dcc8caf60a31b6044820152606401610453565b6001600160a01b0383166105bf576040516374f5e87d60e01b81525f6004820152602401610453565b506001600160a01b03919091165f908152600960209081526040808320938352929052205490565b5f6105f06109dd565b6105fa8383610a36565b9392505050565b6040516313f8dceb60e31b815260206004820152601060248201526f736166655472616e7366657246726f6d60801b6044820152606401610453565b5f61064782610c38565b505f9081526006602052604090205490565b5f61066382610c38565b505f908152600460205260409020546001600160a01b031690565b5f6106888261098e565b506001600160a01b0382165f90815260076020526040902054610418565b6106ae6109dd565b6106b75f610c8f565b565b5f6106c382610c38565b505f9081526005602052604090205490565b336001600160a01b0383161461070957604051635015929960e01b81526001600160a01b0383166004820152602401610453565b6107138282610cde565b5050565b6040516313f8dceb60e31b81526020600482015260116024820152701cd95d105c1c1c9bdd985b119bdc905b1b607a1b6044820152606401610453565b5f61075d6109dd565b6105fa8383610d2f565b606061077282610c38565b5f6001805461078090611309565b90501161079b5760405180602001604052805f815250610418565b60016107a683610db3565b5f848152600560205260409020546107bd90610db3565b6040516020016107cf93929190611341565b60405160208183030381529060405292915050565b5f6104188261098e565b60606107f86109dd565b6001610804838261143d565b50336001600160a01b03167f70e6a9dc20d331ce8e747d7de8444f26f544d9003beb11d8c46e802ab8d36fc98360405161083e919061107d565b60405180910390a26001805461085390611309565b80601f016020809104026020016040519081016040528092919081815260200182805461087f90611309565b80156108ca5780601f106108a1576101008083540402835291602001916108ca565b820191905f5260205f20905b8154815290600101906020018083116108ad57829003601f168201915b505050505090505b919050565b6040516313f8dceb60e31b815260206004820152601060248201526f1a5cd05c1c1c9bdd9959119bdc905b1b60821b60448201525f90606401610453565b61091d6109dd565b6001600160a01b0381166109825760405162461bcd60e51b815260206004820152602660248201527f4f776e61626c653a206e6577206f776e657220697320746865207a65726f206160448201526564647265737360d01b6064820152608401610453565b61098b81610c8f565b50565b6001600160a01b0381165f9081526008602052604081205460ff1615156001036109d65760405163904e928b60e01b81526001600160a01b0383166004820152602401610453565b505f919050565b5f546001600160a01b031633146106b75760405162461bcd60e51b815260206004820181905260248201527f4f776e61626c653a2063616c6c6572206973206e6f7420746865206f776e65726044820152606401610453565b5f806003546001610a47919061150d565b90506001600160a01b038416610a72576040516374f5e87d60e01b81525f6004820152602401610453565b5f818152600460205260409020546001600160a01b031615610aaa576040516379a15ee160e11b815260048101829052602401610453565b6001600160a01b0384165f90815260076020526040902054610ade57600160025f828254610ad8919061150d565b90915550505b6001600160a01b0384165f81815260076020818152604080842080546001908101825560038054820190558786526004845282862080546001600160a01b03191688179055600584528286208a9055600684528286208190559585526009835290842092909152548493919291610b5491611520565b81526020019081526020015f20819055508281856001600160a01b03167f2f00e3cdd69a77be7ed215ec7b2a36784dd158f921fca79ac29deffa353fe6ee5f604051610baf91906001600160a01b0391909116815260200190565b60405180910390a4610bd15f858360405180602001604052805f815250610e43565b6105fa5760405162461bcd60e51b815260206004820152603260248201527f4552433732313a207472616e7366657220746f206e6f6e20455243373231526560448201527131b2b4bb32b91034b6b83632b6b2b73a32b960711b6064820152608401610453565b5f818152600460205260409020546001600160a01b0316610c6f576040516324476a3f60e01b815260048101829052602401610453565b5f81815260046020526040902054610713906001600160a01b031661098e565b5f80546001600160a01b038381166001600160a01b0319831681178455604051919092169283917f8be0079c531659141344cd1fd0a4f28419497f9722a3daafe3b4186f6b6457e09190a35050565b610ce88282610ee5565b5f818152600660205260408082208290555182916001600160a01b038516917f154fa90f2d3692df165afacdcd7755b2e9d98a892a80cc1dda63f3a9cc1e64a49190a35050565b5f610d3a8383610ee5565b5f828152600660205260408120805460019290610d5890849061150d565b90915550505f8281526006602090815260409182902054915184815282916001600160a01b038716917f48ffd7fdb1c1a0561a2d410317f6bb839aab64898de6fc73ee703a9c0dc0a36c910160405180910390a39392505050565b60605f610dbf83610f29565b60010190505f8167ffffffffffffffff811115610dde57610dde611222565b6040519080825280601f01601f191660200182016040528015610e08576020820181803683370190505b5090508181016020015b5f19016f181899199a1a9b1b9c1cb0b131b232b360811b600a86061a8153600a8504945084610e1257509392505050565b5f833b610e5257506001610edd565b604051630a85bd0160e11b81525f906001600160a01b0386169063150b7a0290610e869033908a9089908990600401611533565b6020604051808303815f875af1158015610ea2573d5f803e3d5ffd5b505050506040513d601f19601f82011682018060405250810190610ec6919061156f565b6001600160e01b031916630a85bd0160e11b149150505b949350505050565b5f818152600460205260409020546001600160a01b0383811691161461071357604051635015929960e01b81526001600160a01b0383166004820152602401610453565b5f8072184f03e93ff9f4daa797ed6e38ed64bf6a1f0160401b8310610f675772184f03e93ff9f4daa797ed6e38ed64bf6a1f0160401b830492506040015b6d04ee2d6d415b85acef81000000008310610f93576d04ee2d6d415b85acef8100000000830492506020015b662386f26fc100008310610fb157662386f26fc10000830492506010015b6305f5e1008310610fc9576305f5e100830492506008015b6127108310610fdd57612710830492506004015b60648310610fef576064830492506002015b600a83106104185760010192915050565b6001600160e01b03198116811461098b575f80fd5b5f60208284031215611025575f80fd5b81356105fa81611000565b5f5b8381101561104a578181015183820152602001611032565b50505f910152565b5f8151808452611069816020860160208601611030565b601f01601f19169290920160200192915050565b602081525f6105fa6020830184611052565b5f6020828403121561109f575f80fd5b5035919050565b80356001600160a01b03811681146108d2575f80fd5b5f80604083850312156110cd575f80fd5b6110d6836110a6565b946020939093013593505050565b803580151581146108d2575f80fd5b5f60208284031215611103575f80fd5b6105fa826110e4565b5f6020828403121561111c575f80fd5b6105fa826110a6565b5f805f60608486031215611137575f80fd5b611140846110a6565b925061114e602085016110a6565b9150604084013590509250925092565b5f806040838503121561116f575f80fd5b611178836110a6565b9150611186602084016110e4565b90509250929050565b5f805f805f608086880312156111a3575f80fd5b6111ac866110a6565b94506111ba602087016110a6565b935060408601359250606086013567ffffffffffffffff808211156111dd575f80fd5b818801915088601f8301126111f0575f80fd5b8135818111156111fe575f80fd5b89602082850101111561120f575f80fd5b9699959850939650602001949392505050565b634e487b7160e01b5f52604160045260245ffd5b5f60208284031215611246575f80fd5b813567ffffffffffffffff8082111561125d575f80fd5b818401915084601f830112611270575f80fd5b81358181111561128257611282611222565b604051601f8201601f19908116603f011681019083821181831017156112aa576112aa611222565b816040528281528760208487010111156112c2575f80fd5b826020860160208301375f928101602001929092525095945050505050565b5f80604083850312156112f2575f80fd5b6112fb836110a6565b9150611186602084016110a6565b600181811c9082168061131d57607f821691505b60208210810361133b57634e487b7160e01b5f52602260045260245ffd5b50919050565b5f80855461134e81611309565b60018281168015611366576001811461137b576113a7565b60ff19841687528215158302870194506113a7565b895f526020805f205f5b8581101561139e5781548a820152908401908201611385565b50505082870194505b5050505084516113bb818360208901611030565b6a3f746f6b656e547970653d60a81b910190815283516113e281600b840160208801611030565b01600b0195945050505050565b601f821115611438575f81815260208120601f850160051c810160208610156114155750805b601f850160051c820191505b8181101561143457828155600101611421565b5050505b505050565b815167ffffffffffffffff81111561145757611457611222565b61146b816114658454611309565b846113ef565b602080601f83116001811461149e575f84156114875750858301515b5f19600386901b1c1916600185901b178555611434565b5f85815260208120601f198616915b828110156114cc578886015182559484019460019091019084016114ad565b50858210156114e957878501515f19600388901b60f8161c191681555b5050505050600190811b01905550565b634e487b7160e01b5f52601160045260245ffd5b80820180821115610418576104186114f9565b81810381811115610418576104186114f9565b6001600160a01b03858116825284166020820152604081018390526080606082018190525f9061156590830184611052565b9695505050505050565b5f6020828403121561157f575f80fd5b81516105fa8161100056fea26469706673582212206f1c18825d3fab6e9e47f6e6bb10febec3d3a653d85f4372dc448eab8ab495e864736f6c63430008140033",
					"opcodes": "PUSH1 0x80 PUSH1 0x40 MSTORE CALLVALUE DUP1 ISZERO PUSH3 0x10 JUMPI PUSH0 DUP1 REVERT JUMPDEST POP PUSH1 0x40 MLOAD PUSH3 0x1A07 CODESIZE SUB DUP1 PUSH3 0x1A07 DUP4 CODECOPY DUP2 ADD PUSH1 0x40 DUP2 SWAP1 MSTORE PUSH3 0x33 SWAP2 PUSH3 0x147 JUMP JUMPDEST PUSH3 0x3E CALLER PUSH3 0xC0 JUMP JUMPDEST PUSH1 0x1 PUSH3 0x4C DUP3 DUP3 PUSH3 0x286 JUMP JUMPDEST POP PUSH1 0x40 DUP1 MLOAD DUP1 DUP3 ADD DUP3 MSTORE PUSH1 0x6 DUP1 DUP3 MSTORE PUSH6 0x1213D394D095 PUSH1 0xD2 SHL PUSH1 0x20 DUP1 DUP5 ADD DUP3 SWAP1 MSTORE DUP5 MLOAD DUP1 DUP7 ADD DUP7 MSTORE SWAP3 DUP4 MSTORE DUP3 ADD MSTORE SWAP2 MLOAD CALLER SWAP3 PUSH32 0xDDB33C9627985605622B2C4E8B308152B557AEAE8BA59E2F05038C9D8ED6AE84 SWAP3 PUSH3 0xB1 SWAP3 TIMESTAMP SWAP3 SWAP1 PUSH1 0x1 SWAP1 PUSH3 0x37B JUMP JUMPDEST PUSH1 0x40 MLOAD DUP1 SWAP2 SUB SWAP1 LOG2 POP PUSH3 0x439 JUMP JUMPDEST PUSH0 DUP1 SLOAD PUSH1 0x1 PUSH1 0x1 PUSH1 0xA0 SHL SUB DUP4 DUP2 AND PUSH1 0x1 PUSH1 0x1 PUSH1 0xA0 SHL SUB NOT DUP4 AND DUP2 OR DUP5 SSTORE PUSH1 0x40 MLOAD SWAP2 SWAP1 SWAP3 AND SWAP3 DUP4 SWAP2 PUSH32 0x8BE0079C531659141344CD1FD0A4F28419497F9722A3DAAFE3B4186F6B6457E0 SWAP2 SWAP1 LOG3 POP POP JUMP JUMPDEST PUSH4 0x4E487B71 PUSH1 0xE0 SHL PUSH0 MSTORE PUSH1 0x41 PUSH1 0x4 MSTORE PUSH1 0x24 PUSH0 REVERT JUMPDEST PUSH0 JUMPDEST DUP4 DUP2 LT ISZERO PUSH3 0x13F JUMPI DUP2 DUP2 ADD MLOAD DUP4 DUP3 ADD MSTORE PUSH1 0x20 ADD PUSH3 0x125 JUMP JUMPDEST POP POP PUSH0 SWAP2 ADD MSTORE JUMP JUMPDEST PUSH0 PUSH1 0x20 DUP3 DUP5 SUB SLT ISZERO PUSH3 0x158 JUMPI PUSH0 DUP1 REVERT JUMPDEST DUP2 MLOAD PUSH1 0x1 PUSH1 0x1 PUSH1 0x40 SHL SUB DUP1 DUP3 GT ISZERO PUSH3 0x16F JUMPI PUSH0 DUP1 REVERT JUMPDEST DUP2 DUP5 ADD SWAP2 POP DUP5 PUSH1 0x1F DUP4 ADD SLT PUSH3 0x183 JUMPI PUSH0 DUP1 REVERT JUMPDEST DUP2 MLOAD DUP2 DUP2 GT ISZERO PUSH3 0x198 JUMPI PUSH3 0x198 PUSH3 0x10F JUMP JUMPDEST PUSH1 0x40 MLOAD PUSH1 0x1F DUP3 ADD PUSH1 0x1F NOT SWAP1 DUP2 AND PUSH1 0x3F ADD AND DUP2 ADD SWAP1 DUP4 DUP3 GT DUP2 DUP4 LT OR ISZERO PUSH3 0x1C3 JUMPI PUSH3 0x1C3 PUSH3 0x10F JUMP JUMPDEST DUP2 PUSH1 0x40 MSTORE DUP3 DUP2 MSTORE DUP8 PUSH1 0x20 DUP5 DUP8 ADD ADD GT ISZERO PUSH3 0x1DC JUMPI PUSH0 DUP1 REVERT JUMPDEST PUSH3 0x1EF DUP4 PUSH1 0x20 DUP4 ADD PUSH1 0x20 DUP9 ADD PUSH3 0x123 JUMP JUMPDEST SWAP8 SWAP7 POP POP POP POP POP POP POP JUMP JUMPDEST PUSH1 0x1 DUP2 DUP2 SHR SWAP1 DUP3 AND DUP1 PUSH3 0x20F JUMPI PUSH1 0x7F DUP3 AND SWAP2 POP JUMPDEST PUSH1 0x20 DUP3 LT DUP2 SUB PUSH3 0x22E JUMPI PUSH4 0x4E487B71 PUSH1 0xE0 SHL PUSH0 MSTORE PUSH1 0x22 PUSH1 0x4 MSTORE PUSH1 0x24 PUSH0 REVERT JUMPDEST POP SWAP2 SWAP1 POP JUMP JUMPDEST PUSH1 0x1F DUP3 GT ISZERO PUSH3 0x281 JUMPI PUSH0 DUP2 DUP2 MSTORE PUSH1 0x20 DUP2 KECCAK256 PUSH1 0x1F DUP6 ADD PUSH1 0x5 SHR DUP2 ADD PUSH1 0x20 DUP7 LT ISZERO PUSH3 0x25C JUMPI POP DUP1 JUMPDEST PUSH1 0x1F DUP6 ADD PUSH1 0x5 SHR DUP3 ADD SWAP2 POP JUMPDEST DUP2 DUP2 LT ISZERO PUSH3 0x27D JUMPI DUP3 DUP2 SSTORE PUSH1 0x1 ADD PUSH3 0x268 JUMP JUMPDEST POP POP POP JUMPDEST POP POP POP JUMP JUMPDEST DUP2 MLOAD PUSH1 0x1 PUSH1 0x1 PUSH1 0x40 SHL SUB DUP2 GT ISZERO PUSH3 0x2A2 JUMPI PUSH3 0x2A2 PUSH3 0x10F JUMP JUMPDEST PUSH3 0x2BA DUP2 PUSH3 0x2B3 DUP5 SLOAD PUSH3 0x1FA JUMP JUMPDEST DUP5 PUSH3 0x234 JUMP JUMPDEST PUSH1 0x20 DUP1 PUSH1 0x1F DUP4 GT PUSH1 0x1 DUP2 EQ PUSH3 0x2F0 JUMPI PUSH0 DUP5 ISZERO PUSH3 0x2D8 JUMPI POP DUP6 DUP4 ADD MLOAD JUMPDEST PUSH0 NOT PUSH1 0x3 DUP7 SWAP1 SHL SHR NOT AND PUSH1 0x1 DUP6 SWAP1 SHL OR DUP6 SSTORE PUSH3 0x27D JUMP JUMPDEST PUSH0 DUP6 DUP2 MSTORE PUSH1 0x20 DUP2 KECCAK256 PUSH1 0x1F NOT DUP7 AND SWAP2 JUMPDEST DUP3 DUP2 LT ISZERO PUSH3 0x320 JUMPI DUP9 DUP7 ADD MLOAD DUP3 SSTORE SWAP5 DUP5 ADD SWAP5 PUSH1 0x1 SWAP1 SWAP2 ADD SWAP1 DUP5 ADD PUSH3 0x2FF JUMP JUMPDEST POP DUP6 DUP3 LT ISZERO PUSH3 0x33E JUMPI DUP8 DUP6 ADD MLOAD PUSH0 NOT PUSH1 0x3 DUP9 SWAP1 SHL PUSH1 0xF8 AND SHR NOT AND DUP2 SSTORE JUMPDEST POP POP POP POP POP PUSH1 0x1 SWAP1 DUP2 SHL ADD SWAP1 SSTORE POP JUMP JUMPDEST PUSH0 DUP2 MLOAD DUP1 DUP5 MSTORE PUSH3 0x367 DUP2 PUSH1 0x20 DUP7 ADD PUSH1 0x20 DUP7 ADD PUSH3 0x123 JUMP JUMPDEST PUSH1 0x1F ADD PUSH1 0x1F NOT AND SWAP3 SWAP1 SWAP3 ADD PUSH1 0x20 ADD SWAP3 SWAP2 POP POP JUMP JUMPDEST DUP5 DUP2 MSTORE PUSH0 PUSH1 0x20 PUSH1 0x80 DUP2 DUP5 ADD MSTORE PUSH3 0x396 PUSH1 0x80 DUP5 ADD DUP8 PUSH3 0x34E JUMP JUMPDEST DUP4 DUP2 SUB PUSH1 0x40 DUP6 ADD MSTORE PUSH3 0x3AA DUP2 DUP8 PUSH3 0x34E JUMP JUMPDEST SWAP1 POP DUP4 DUP2 SUB PUSH1 0x60 DUP6 ADD MSTORE PUSH0 DUP6 SLOAD PUSH3 0x3C2 DUP2 PUSH3 0x1FA JUMP JUMPDEST DUP1 DUP5 MSTORE PUSH1 0x1 DUP3 DUP2 AND DUP1 ISZERO PUSH3 0x3E0 JUMPI PUSH1 0x1 DUP2 EQ PUSH3 0x3FB JUMPI PUSH3 0x428 JUMP JUMPDEST PUSH1 0xFF NOT DUP5 AND DUP7 DUP9 ADD MSTORE DUP3 ISZERO ISZERO PUSH1 0x5 SHL DUP7 ADD DUP8 ADD SWAP5 POP PUSH3 0x428 JUMP JUMPDEST DUP10 PUSH0 MSTORE DUP7 PUSH0 KECCAK256 PUSH0 JUMPDEST DUP5 DUP2 LT ISZERO PUSH3 0x420 JUMPI DUP2 SLOAD DUP9 DUP3 ADD DUP11 ADD MSTORE SWAP1 DUP4 ADD SWAP1 DUP9 ADD PUSH3 0x403 JUMP JUMPDEST DUP8 ADD DUP9 ADD SWAP6 POP POP JUMPDEST POP SWAP3 SWAP12 SWAP11 POP POP POP POP POP POP POP POP POP POP POP JUMP JUMPDEST PUSH2 0x15C0 DUP1 PUSH3 0x447 PUSH0 CODECOPY PUSH0 RETURN INVALID PUSH1 0x80 PUSH1 0x40 MSTORE CALLVALUE DUP1 ISZERO PUSH2 0xF JUMPI PUSH0 DUP1 REVERT JUMPDEST POP PUSH1 0x4 CALLDATASIZE LT PUSH2 0x1BB JUMPI PUSH0 CALLDATALOAD PUSH1 0xE0 SHR DUP1 PUSH4 0x715018A6 GT PUSH2 0xF3 JUMPI DUP1 PUSH4 0xBE37E907 GT PUSH2 0x93 JUMPI DUP1 PUSH4 0xE0DF5B6F GT PUSH2 0x6E JUMPI DUP1 PUSH4 0xE0DF5B6F EQ PUSH2 0x3A7 JUMPI DUP1 PUSH4 0xE1604B70 EQ PUSH2 0x3BA JUMPI DUP1 PUSH4 0xE985E9C5 EQ PUSH2 0x3C2 JUMPI DUP1 PUSH4 0xF2FDE38B EQ PUSH2 0x3D5 JUMPI PUSH0 DUP1 REVERT JUMPDEST DUP1 PUSH4 0xBE37E907 EQ PUSH2 0x36E JUMPI DUP1 PUSH4 0xC87B56DD EQ PUSH2 0x381 JUMPI DUP1 PUSH4 0xCE35DE95 EQ PUSH2 0x394 JUMPI PUSH0 DUP1 REVERT JUMPDEST DUP1 PUSH4 0x95D89B41 GT PUSH2 0xCE JUMPI DUP1 PUSH4 0x95D89B41 EQ PUSH2 0x1E7 JUMPI DUP1 PUSH4 0x9B252852 EQ PUSH2 0x33A JUMPI DUP1 PUSH4 0xA22CB465 EQ PUSH2 0x34D JUMPI DUP1 PUSH4 0xB88D4FDE EQ PUSH2 0x360 JUMPI PUSH0 DUP1 REVERT JUMPDEST DUP1 PUSH4 0x715018A6 EQ PUSH2 0x30F JUMPI DUP1 PUSH4 0x76AED2E1 EQ PUSH2 0x317 JUMPI DUP1 PUSH4 0x8DA5CB5B EQ PUSH2 0x32A JUMPI PUSH0 DUP1 REVERT JUMPDEST DUP1 PUSH4 0x23B872DD GT PUSH2 0x15E JUMPI DUP1 PUSH4 0x42842E0E GT PUSH2 0x139 JUMPI DUP1 PUSH4 0x42842E0E EQ PUSH2 0x2C3 JUMPI DUP1 PUSH4 0x51C18E0C EQ PUSH2 0x2D6 JUMPI DUP1 PUSH4 0x6352211E EQ PUSH2 0x2E9 JUMPI DUP1 PUSH4 0x70A08231 EQ PUSH2 0x2FC JUMPI PUSH0 DUP1 REVERT JUMPDEST DUP1 PUSH4 0x23B872DD EQ PUSH2 0x28A JUMPI DUP1 PUSH4 0x2F745C59 EQ PUSH2 0x29D JUMPI DUP1 PUSH4 0x40C10F19 EQ PUSH2 0x2B0 JUMPI PUSH0 DUP1 REVERT JUMPDEST DUP1 PUSH4 0x95EA7B3 GT PUSH2 0x199 JUMPI DUP1 PUSH4 0x95EA7B3 EQ PUSH2 0x23D JUMPI DUP1 PUSH4 0x18160DDD EQ PUSH2 0x252 JUMPI DUP1 PUSH4 0x1C02BC31 EQ PUSH2 0x264 JUMPI DUP1 PUSH4 0x1F8EB677 EQ PUSH2 0x277 JUMPI PUSH0 DUP1 REVERT JUMPDEST DUP1 PUSH4 0x1FFC9A7 EQ PUSH2 0x1BF JUMPI DUP1 PUSH4 0x6FDDE03 EQ PUSH2 0x1E7 JUMPI DUP1 PUSH4 0x81812FC EQ PUSH2 0x212 JUMPI JUMPDEST PUSH0 DUP1 REVERT JUMPDEST PUSH2 0x1D2 PUSH2 0x1CD CALLDATASIZE PUSH1 0x4 PUSH2 0x1015 JUMP JUMPDEST PUSH2 0x3E8 JUMP JUMPDEST PUSH1 0x40 MLOAD SWAP1 ISZERO ISZERO DUP2 MSTORE PUSH1 0x20 ADD JUMPDEST PUSH1 0x40 MLOAD DUP1 SWAP2 SUB SWAP1 RETURN JUMPDEST PUSH1 0x40 DUP1 MLOAD DUP1 DUP3 ADD SWAP1 SWAP2 MSTORE PUSH1 0x6 DUP2 MSTORE PUSH6 0x1213D394D095 PUSH1 0xD2 SHL PUSH1 0x20 DUP3 ADD MSTORE JUMPDEST PUSH1 0x40 MLOAD PUSH2 0x1DE SWAP2 SWAP1 PUSH2 0x107D JUMP JUMPDEST PUSH2 0x225 PUSH2 0x220 CALLDATASIZE PUSH1 0x4 PUSH2 0x108F JUMP JUMPDEST PUSH2 0x41E JUMP JUMPDEST PUSH1 0x40 MLOAD PUSH1 0x1 PUSH1 0x1 PUSH1 0xA0 SHL SUB SWAP1 SWAP2 AND DUP2 MSTORE PUSH1 0x20 ADD PUSH2 0x1DE JUMP JUMPDEST PUSH2 0x250 PUSH2 0x24B CALLDATASIZE PUSH1 0x4 PUSH2 0x10BC JUMP JUMPDEST PUSH2 0x45C JUMP JUMPDEST STOP JUMPDEST PUSH1 0x3 SLOAD JUMPDEST PUSH1 0x40 MLOAD SWAP1 DUP2 MSTORE PUSH1 0x20 ADD PUSH2 0x1DE JUMP JUMPDEST PUSH2 0x1D2 PUSH2 0x272 CALLDATASIZE PUSH1 0x4 PUSH2 0x10F3 JUMP JUMPDEST PUSH2 0x48F JUMP JUMPDEST PUSH2 0x1D2 PUSH2 0x285 CALLDATASIZE PUSH1 0x4 PUSH2 0x110C JUMP JUMPDEST PUSH2 0x4DE JUMP JUMPDEST PUSH2 0x250 PUSH2 0x298 CALLDATASIZE PUSH1 0x4 PUSH2 0x1125 JUMP JUMPDEST PUSH2 0x4FE JUMP JUMPDEST PUSH2 0x256 PUSH2 0x2AB CALLDATASIZE PUSH1 0x4 PUSH2 0x10BC JUMP JUMPDEST PUSH2 0x536 JUMP JUMPDEST PUSH2 0x256 PUSH2 0x2BE CALLDATASIZE PUSH1 0x4 PUSH2 0x10BC JUMP JUMPDEST PUSH2 0x5E7 JUMP JUMPDEST PUSH2 0x250 PUSH2 0x2D1 CALLDATASIZE PUSH1 0x4 PUSH2 0x1125 JUMP JUMPDEST PUSH2 0x601 JUMP JUMPDEST PUSH2 0x256 PUSH2 0x2E4 CALLDATASIZE PUSH1 0x4 PUSH2 0x108F JUMP JUMPDEST PUSH2 0x63D JUMP JUMPDEST PUSH2 0x225 PUSH2 0x2F7 CALLDATASIZE PUSH1 0x4 PUSH2 0x108F JUMP JUMPDEST PUSH2 0x659 JUMP JUMPDEST PUSH2 0x256 PUSH2 0x30A CALLDATASIZE PUSH1 0x4 PUSH2 0x110C JUMP JUMPDEST PUSH2 0x67E JUMP JUMPDEST PUSH2 0x250 PUSH2 0x6A6 JUMP JUMPDEST PUSH2 0x256 PUSH2 0x325 CALLDATASIZE PUSH1 0x4 PUSH2 0x108F JUMP JUMPDEST PUSH2 0x6B9 JUMP JUMPDEST PUSH0 SLOAD PUSH1 0x1 PUSH1 0x1 PUSH1 0xA0 SHL SUB AND PUSH2 0x225 JUMP JUMPDEST PUSH2 0x250 PUSH2 0x348 CALLDATASIZE PUSH1 0x4 PUSH2 0x10BC JUMP JUMPDEST PUSH2 0x6D5 JUMP JUMPDEST PUSH2 0x250 PUSH2 0x35B CALLDATASIZE PUSH1 0x4 PUSH2 0x115E JUMP JUMPDEST PUSH2 0x717 JUMP JUMPDEST PUSH2 0x250 PUSH2 0x2D1 CALLDATASIZE PUSH1 0x4 PUSH2 0x118F JUMP JUMPDEST PUSH2 0x256 PUSH2 0x37C CALLDATASIZE PUSH1 0x4 PUSH2 0x10BC JUMP JUMPDEST PUSH2 0x754 JUMP JUMPDEST PUSH2 0x205 PUSH2 0x38F CALLDATASIZE PUSH1 0x4 PUSH2 0x108F JUMP JUMPDEST PUSH2 0x767 JUMP JUMPDEST PUSH2 0x1D2 PUSH2 0x3A2 CALLDATASIZE PUSH1 0x4 PUSH2 0x110C JUMP JUMPDEST PUSH2 0x7E4 JUMP JUMPDEST PUSH2 0x205 PUSH2 0x3B5 CALLDATASIZE PUSH1 0x4 PUSH2 0x1236 JUMP JUMPDEST PUSH2 0x7EE JUMP JUMPDEST PUSH1 0x2 SLOAD PUSH2 0x256 JUMP JUMPDEST PUSH2 0x1D2 PUSH2 0x3D0 CALLDATASIZE PUSH1 0x4 PUSH2 0x12E1 JUMP JUMPDEST PUSH2 0x8D7 JUMP JUMPDEST PUSH2 0x250 PUSH2 0x3E3 CALLDATASIZE PUSH1 0x4 PUSH2 0x110C JUMP JUMPDEST PUSH2 0x915 JUMP JUMPDEST PUSH0 PUSH1 0x1 PUSH1 0x1 PUSH1 0xE0 SHL SUB NOT DUP3 AND PUSH4 0x80AC58CD PUSH1 0xE0 SHL EQ DUP1 PUSH2 0x418 JUMPI POP PUSH4 0x1FFC9A7 PUSH1 0xE0 SHL PUSH1 0x1 PUSH1 0x1 PUSH1 0xE0 SHL SUB NOT DUP4 AND EQ JUMPDEST SWAP3 SWAP2 POP POP JUMP JUMPDEST PUSH1 0x40 MLOAD PUSH4 0x13F8DCEB PUSH1 0xE3 SHL DUP2 MSTORE PUSH1 0x20 PUSH1 0x4 DUP3 ADD MSTORE PUSH1 0xB PUSH1 0x24 DUP3 ADD MSTORE PUSH11 0x19D95D105C1C1C9BDD9959 PUSH1 0xAA SHL PUSH1 0x44 DUP3 ADD MSTORE PUSH0 SWAP1 PUSH1 0x64 ADD JUMPDEST PUSH1 0x40 MLOAD DUP1 SWAP2 SUB SWAP1 REVERT JUMPDEST PUSH1 0x40 MLOAD PUSH4 0x13F8DCEB PUSH1 0xE3 SHL DUP2 MSTORE PUSH1 0x20 PUSH1 0x4 DUP3 ADD MSTORE PUSH1 0x7 PUSH1 0x24 DUP3 ADD MSTORE PUSH7 0x617070726F7665 PUSH1 0xC8 SHL PUSH1 0x44 DUP3 ADD MSTORE PUSH1 0x64 ADD PUSH2 0x453 JUMP JUMPDEST CALLER PUSH0 SWAP1 DUP2 MSTORE PUSH1 0x7 PUSH1 0x20 MSTORE PUSH1 0x40 DUP2 KECCAK256 SLOAD DUP2 LT PUSH2 0x4BF JUMPI PUSH1 0x40 MLOAD PUSH4 0x50159299 PUSH1 0xE0 SHL DUP2 MSTORE CALLER PUSH1 0x4 DUP3 ADD MSTORE PUSH1 0x24 ADD PUSH2 0x453 JUMP JUMPDEST CALLER PUSH0 DUP2 DUP2 MSTORE PUSH1 0x8 PUSH1 0x20 MSTORE PUSH1 0x40 SWAP1 KECCAK256 DUP1 SLOAD PUSH1 0xFF NOT AND DUP5 ISZERO ISZERO OR SWAP1 SSTORE PUSH2 0x418 SWAP1 JUMPDEST PUSH1 0x1 PUSH1 0x1 PUSH1 0xA0 SHL SUB DUP2 AND PUSH0 SWAP1 DUP2 MSTORE PUSH1 0x8 PUSH1 0x20 MSTORE PUSH1 0x40 DUP2 KECCAK256 SLOAD PUSH1 0xFF AND PUSH2 0x418 JUMP JUMPDEST PUSH1 0x40 MLOAD PUSH4 0x13F8DCEB PUSH1 0xE3 SHL DUP2 MSTORE PUSH1 0x20 PUSH1 0x4 DUP3 ADD MSTORE PUSH1 0xC PUSH1 0x24 DUP3 ADD MSTORE PUSH12 0x7472616E7366657246726F6D PUSH1 0xA0 SHL PUSH1 0x44 DUP3 ADD MSTORE PUSH1 0x64 ADD PUSH2 0x453 JUMP JUMPDEST PUSH0 PUSH2 0x540 DUP4 PUSH2 0x98E JUMP JUMPDEST POP PUSH1 0x1 PUSH1 0x1 PUSH1 0xA0 SHL SUB DUP4 AND PUSH0 SWAP1 DUP2 MSTORE PUSH1 0x7 PUSH1 0x20 MSTORE PUSH1 0x40 SWAP1 KECCAK256 SLOAD DUP3 LT PUSH2 0x596 JUMPI PUSH1 0x40 MLOAD PUSH3 0x461BCD PUSH1 0xE5 SHL DUP2 MSTORE PUSH1 0x20 PUSH1 0x4 DUP3 ADD MSTORE PUSH1 0xC PUSH1 0x24 DUP3 ADD MSTORE PUSH12 0x9EEAE840DECC4092DCC8CAF PUSH1 0xA3 SHL PUSH1 0x44 DUP3 ADD MSTORE PUSH1 0x64 ADD PUSH2 0x453 JUMP JUMPDEST PUSH1 0x1 PUSH1 0x1 PUSH1 0xA0 SHL SUB DUP4 AND PUSH2 0x5BF JUMPI PUSH1 0x40 MLOAD PUSH4 0x74F5E87D PUSH1 0xE0 SHL DUP2 MSTORE PUSH0 PUSH1 0x4 DUP3 ADD MSTORE PUSH1 0x24 ADD PUSH2 0x453 JUMP JUMPDEST POP PUSH1 0x1 PUSH1 0x1 PUSH1 0xA0 SHL SUB SWAP2 SWAP1 SWAP2 AND PUSH0 SWAP1 DUP2 MSTORE PUSH1 0x9 PUSH1 0x20 SWAP1 DUP2 MSTORE PUSH1 0x40 DUP1 DUP4 KECCAK256 SWAP4 DUP4 MSTORE SWAP3 SWAP1 MSTORE KECCAK256 SLOAD SWAP1 JUMP JUMPDEST PUSH0 PUSH2 0x5F0 PUSH2 0x9DD JUMP JUMPDEST PUSH2 0x5FA DUP4 DUP4 PUSH2 0xA36 JUMP JUMPDEST SWAP4 SWAP3 POP POP POP JUMP JUMPDEST PUSH1 0x40 MLOAD PUSH4 0x13F8DCEB PUSH1 0xE3 SHL DUP2 MSTORE PUSH1 0x20 PUSH1 0x4 DUP3 ADD MSTORE PUSH1 0x10 PUSH1 0x24 DUP3 ADD MSTORE PUSH16 0x736166655472616E7366657246726F6D PUSH1 0x80 SHL PUSH1 0x44 DUP3 ADD MSTORE PUSH1 0x64 ADD PUSH2 0x453 JUMP JUMPDEST PUSH0 PUSH2 0x647 DUP3 PUSH2 0xC38 JUMP JUMPDEST POP PUSH0 SWAP1 DUP2 MSTORE PUSH1 0x6 PUSH1 0x20 MSTORE PUSH1 0x40 SWAP1 KECCAK256 SLOAD SWAP1 JUMP JUMPDEST PUSH0 PUSH2 0x663 DUP3 PUSH2 0xC38 JUMP JUMPDEST POP PUSH0 SWAP1 DUP2 MSTORE PUSH1 0x4 PUSH1 0x20 MSTORE PUSH1 0x40 SWAP1 KECCAK256 SLOAD PUSH1 0x1 PUSH1 0x1 PUSH1 0xA0 SHL SUB AND SWAP1 JUMP JUMPDEST PUSH0 PUSH2 0x688 DUP3 PUSH2 0x98E JUMP JUMPDEST POP PUSH1 0x1 PUSH1 0x1 PUSH1 0xA0 SHL SUB DUP3 AND PUSH0 SWAP1 DUP2 MSTORE PUSH1 0x7 PUSH1 0x20 MSTORE PUSH1 0x40 SWAP1 KECCAK256 SLOAD PUSH2 0x418 JUMP JUMPDEST PUSH2 0x6AE PUSH2 0x9DD JUMP JUMPDEST PUSH2 0x6B7 PUSH0 PUSH2 0xC8F JUMP JUMPDEST JUMP JUMPDEST PUSH0 PUSH2 0x6C3 DUP3 PUSH2 0xC38 JUMP JUMPDEST POP PUSH0 SWAP1 DUP2 MSTORE PUSH1 0x5 PUSH1 0x20 MSTORE PUSH1 0x40 SWAP1 KECCAK256 SLOAD SWAP1 JUMP JUMPDEST CALLER PUSH1 0x1 PUSH1 0x1 PUSH1 0xA0 SHL SUB DUP4 AND EQ PUSH2 0x709 JUMPI PUSH1 0x40 MLOAD PUSH4 0x50159299 PUSH1 0xE0 SHL DUP2 MSTORE PUSH1 0x1 PUSH1 0x1 PUSH1 0xA0 SHL SUB DUP4 AND PUSH1 0x4 DUP3 ADD MSTORE PUSH1 0x24 ADD PUSH2 0x453 JUMP JUMPDEST PUSH2 0x713 DUP3 DUP3 PUSH2 0xCDE JUMP JUMPDEST POP POP JUMP JUMPDEST PUSH1 0x40 MLOAD PUSH4 0x13F8DCEB PUSH1 0xE3 SHL DUP2 MSTORE PUSH1 0x20 PUSH1 0x4 DUP3 ADD MSTORE PUSH1 0x11 PUSH1 0x24 DUP3 ADD MSTORE PUSH17 0x1CD95D105C1C1C9BDD985B119BDC905B1B PUSH1 0x7A SHL PUSH1 0x44 DUP3 ADD MSTORE PUSH1 0x64 ADD PUSH2 0x453 JUMP JUMPDEST PUSH0 PUSH2 0x75D PUSH2 0x9DD JUMP JUMPDEST PUSH2 0x5FA DUP4 DUP4 PUSH2 0xD2F JUMP JUMPDEST PUSH1 0x60 PUSH2 0x772 DUP3 PUSH2 0xC38 JUMP JUMPDEST PUSH0 PUSH1 0x1 DUP1 SLOAD PUSH2 0x780 SWAP1 PUSH2 0x1309 JUMP JUMPDEST SWAP1 POP GT PUSH2 0x79B JUMPI PUSH1 0x40 MLOAD DUP1 PUSH1 0x20 ADD PUSH1 0x40 MSTORE DUP1 PUSH0 DUP2 MSTORE POP PUSH2 0x418 JUMP JUMPDEST PUSH1 0x1 PUSH2 0x7A6 DUP4 PUSH2 0xDB3 JUMP JUMPDEST PUSH0 DUP5 DUP2 MSTORE PUSH1 0x5 PUSH1 0x20 MSTORE PUSH1 0x40 SWAP1 KECCAK256 SLOAD PUSH2 0x7BD SWAP1 PUSH2 0xDB3 JUMP JUMPDEST PUSH1 0x40 MLOAD PUSH1 0x20 ADD PUSH2 0x7CF SWAP4 SWAP3 SWAP2 SWAP1 PUSH2 0x1341 JUMP JUMPDEST PUSH1 0x40 MLOAD PUSH1 0x20 DUP2 DUP4 SUB SUB DUP2 MSTORE SWAP1 PUSH1 0x40 MSTORE SWAP3 SWAP2 POP POP JUMP JUMPDEST PUSH0 PUSH2 0x418 DUP3 PUSH2 0x98E JUMP JUMPDEST PUSH1 0x60 PUSH2 0x7F8 PUSH2 0x9DD JUMP JUMPDEST PUSH1 0x1 PUSH2 0x804 DUP4 DUP3 PUSH2 0x143D JUMP JUMPDEST POP CALLER PUSH1 0x1 PUSH1 0x1 PUSH1 0xA0 SHL SUB AND PUSH32 0x70E6A9DC20D331CE8E747D7DE8444F26F544D9003BEB11D8C46E802AB8D36FC9 DUP4 PUSH1 0x40 MLOAD PUSH2 0x83E SWAP2 SWAP1 PUSH2 0x107D JUMP JUMPDEST PUSH1 0x40 MLOAD DUP1 SWAP2 SUB SWAP1 LOG2 PUSH1 0x1 DUP1 SLOAD PUSH2 0x853 SWAP1 PUSH2 0x1309 JUMP JUMPDEST DUP1 PUSH1 0x1F ADD PUSH1 0x20 DUP1 SWAP2 DIV MUL PUSH1 0x20 ADD PUSH1 0x40 MLOAD SWAP1 DUP2 ADD PUSH1 0x40 MSTORE DUP1 SWAP3 SWAP2 SWAP1 DUP2 DUP2 MSTORE PUSH1 0x20 ADD DUP3 DUP1 SLOAD PUSH2 0x87F SWAP1 PUSH2 0x1309 JUMP JUMPDEST DUP1 ISZERO PUSH2 0x8CA JUMPI DUP1 PUSH1 0x1F LT PUSH2 0x8A1 JUMPI PUSH2 0x100 DUP1 DUP4 SLOAD DIV MUL DUP4 MSTORE SWAP2 PUSH1 0x20 ADD SWAP2 PUSH2 0x8CA JUMP JUMPDEST DUP3 ADD SWAP2 SWAP1 PUSH0 MSTORE PUSH1 0x20 PUSH0 KECCAK256 SWAP1 JUMPDEST DUP2 SLOAD DUP2 MSTORE SWAP1 PUSH1 0x1 ADD SWAP1 PUSH1 0x20 ADD DUP1 DUP4 GT PUSH2 0x8AD JUMPI DUP3 SWAP1 SUB PUSH1 0x1F AND DUP3 ADD SWAP2 JUMPDEST POP POP POP POP POP SWAP1 POP JUMPDEST SWAP2 SWAP1 POP JUMP JUMPDEST PUSH1 0x40 MLOAD PUSH4 0x13F8DCEB PUSH1 0xE3 SHL DUP2 MSTORE PUSH1 0x20 PUSH1 0x4 DUP3 ADD MSTORE PUSH1 0x10 PUSH1 0x24 DUP3 ADD MSTORE PUSH16 0x1A5CD05C1C1C9BDD9959119BDC905B1B PUSH1 0x82 SHL PUSH1 0x44 DUP3 ADD MSTORE PUSH0 SWAP1 PUSH1 0x64 ADD PUSH2 0x453 JUMP JUMPDEST PUSH2 0x91D PUSH2 0x9DD JUMP JUMPDEST PUSH1 0x1 PUSH1 0x1 PUSH1 0xA0 SHL SUB DUP2 AND PUSH2 0x982 JUMPI PUSH1 0x40 MLOAD PUSH3 0x461BCD PUSH1 0xE5 SHL DUP2 MSTORE PUSH1 0x20 PUSH1 0x4 DUP3 ADD MSTORE PUSH1 0x26 PUSH1 0x24 DUP3 ADD MSTORE PUSH32 0x4F776E61626C653A206E6577206F776E657220697320746865207A65726F2061 PUSH1 0x44 DUP3 ADD MSTORE PUSH6 0x646472657373 PUSH1 0xD0 SHL PUSH1 0x64 DUP3 ADD MSTORE PUSH1 0x84 ADD PUSH2 0x453 JUMP JUMPDEST PUSH2 0x98B DUP2 PUSH2 0xC8F JUMP JUMPDEST POP JUMP JUMPDEST PUSH1 0x1 PUSH1 0x1 PUSH1 0xA0 SHL SUB DUP2 AND PUSH0 SWAP1 DUP2 MSTORE PUSH1 0x8 PUSH1 0x20 MSTORE PUSH1 0x40 DUP2 KECCAK256 SLOAD PUSH1 0xFF AND ISZERO ISZERO PUSH1 0x1 SUB PUSH2 0x9D6 JUMPI PUSH1 0x40 MLOAD PUSH4 0x904E928B PUSH1 0xE0 SHL DUP2 MSTORE PUSH1 0x1 PUSH1 0x1 PUSH1 0xA0 SHL SUB DUP4 AND PUSH1 0x4 DUP3 ADD MSTORE PUSH1 0x24 ADD PUSH2 0x453 JUMP JUMPDEST POP PUSH0 SWAP2 SWAP1 POP JUMP JUMPDEST PUSH0 SLOAD PUSH1 0x1 PUSH1 0x1 PUSH1 0xA0 SHL SUB AND CALLER EQ PUSH2 0x6B7 JUMPI PUSH1 0x40 MLOAD PUSH3 0x461BCD PUSH1 0xE5 SHL DUP2 MSTORE PUSH1 0x20 PUSH1 0x4 DUP3 ADD DUP2 SWAP1 MSTORE PUSH1 0x24 DUP3 ADD MSTORE PUSH32 0x4F776E61626C653A2063616C6C6572206973206E6F7420746865206F776E6572 PUSH1 0x44 DUP3 ADD MSTORE PUSH1 0x64 ADD PUSH2 0x453 JUMP JUMPDEST PUSH0 DUP1 PUSH1 0x3 SLOAD PUSH1 0x1 PUSH2 0xA47 SWAP2 SWAP1 PUSH2 0x150D JUMP JUMPDEST SWAP1 POP PUSH1 0x1 PUSH1 0x1 PUSH1 0xA0 SHL SUB DUP5 AND PUSH2 0xA72 JUMPI PUSH1 0x40 MLOAD PUSH4 0x74F5E87D PUSH1 0xE0 SHL DUP2 MSTORE PUSH0 PUSH1 0x4 DUP3 ADD MSTORE PUSH1 0x24 ADD PUSH2 0x453 JUMP JUMPDEST PUSH0 DUP2 DUP2 MSTORE PUSH1 0x4 PUSH1 0x20 MSTORE PUSH1 0x40 SWAP1 KECCAK256 SLOAD PUSH1 0x1 PUSH1 0x1 PUSH1 0xA0 SHL SUB AND ISZERO PUSH2 0xAAA JUMPI PUSH1 0x40 MLOAD PUSH4 0x79A15EE1 PUSH1 0xE1 SHL DUP2 MSTORE PUSH1 0x4 DUP2 ADD DUP3 SWAP1 MSTORE PUSH1 0x24 ADD PUSH2 0x453 JUMP JUMPDEST PUSH1 0x1 PUSH1 0x1 PUSH1 0xA0 SHL SUB DUP5 AND PUSH0 SWAP1 DUP2 MSTORE PUSH1 0x7 PUSH1 0x20 MSTORE PUSH1 0x40 SWAP1 KECCAK256 SLOAD PUSH2 0xADE JUMPI PUSH1 0x1 PUSH1 0x2 PUSH0 DUP3 DUP3 SLOAD PUSH2 0xAD8 SWAP2 SWAP1 PUSH2 0x150D JUMP JUMPDEST SWAP1 SWAP2 SSTORE POP POP JUMPDEST PUSH1 0x1 PUSH1 0x1 PUSH1 0xA0 SHL SUB DUP5 AND PUSH0 DUP2 DUP2 MSTORE PUSH1 0x7 PUSH1 0x20 DUP2 DUP2 MSTORE PUSH1 0x40 DUP1 DUP5 KECCAK256 DUP1 SLOAD PUSH1 0x1 SWAP1 DUP2 ADD DUP3 SSTORE PUSH1 0x3 DUP1 SLOAD DUP3 ADD SWAP1 SSTORE DUP8 DUP7 MSTORE PUSH1 0x4 DUP5 MSTORE DUP3 DUP7 KECCAK256 DUP1 SLOAD PUSH1 0x1 PUSH1 0x1 PUSH1 0xA0 SHL SUB NOT AND DUP9 OR SWAP1 SSTORE PUSH1 0x5 DUP5 MSTORE DUP3 DUP7 KECCAK256 DUP11 SWAP1 SSTORE PUSH1 0x6 DUP5 MSTORE DUP3 DUP7 KECCAK256 DUP2 SWAP1 SSTORE SWAP6 DUP6 MSTORE PUSH1 0x9 DUP4 MSTORE SWAP1 DUP5 KECCAK256 SWAP3 SWAP1 SWAP2 MSTORE SLOAD DUP5 SWAP4 SWAP2 SWAP3 SWAP2 PUSH2 0xB54 SWAP2 PUSH2 0x1520 JUMP JUMPDEST DUP2 MSTORE PUSH1 0x20 ADD SWAP1 DUP2 MSTORE PUSH1 0x20 ADD PUSH0 KECCAK256 DUP2 SWAP1 SSTORE POP DUP3 DUP2 DUP6 PUSH1 0x1 PUSH1 0x1 PUSH1 0xA0 SHL SUB AND PUSH32 0x2F00E3CDD69A77BE7ED215EC7B2A36784DD158F921FCA79AC29DEFFA353FE6EE PUSH0 PUSH1 0x40 MLOAD PUSH2 0xBAF SWAP2 SWAP1 PUSH1 0x1 PUSH1 0x1 PUSH1 0xA0 SHL SUB SWAP2 SWAP1 SWAP2 AND DUP2 MSTORE PUSH1 0x20 ADD SWAP1 JUMP JUMPDEST PUSH1 0x40 MLOAD DUP1 SWAP2 SUB SWAP1 LOG4 PUSH2 0xBD1 PUSH0 DUP6 DUP4 PUSH1 0x40 MLOAD DUP1 PUSH1 0x20 ADD PUSH1 0x40 MSTORE DUP1 PUSH0 DUP2 MSTORE POP PUSH2 0xE43 JUMP JUMPDEST PUSH2 0x5FA JUMPI PUSH1 0x40 MLOAD PUSH3 0x461BCD PUSH1 0xE5 SHL DUP2 MSTORE PUSH1 0x20 PUSH1 0x4 DUP3 ADD MSTORE PUSH1 0x32 PUSH1 0x24 DUP3 ADD MSTORE PUSH32 0x4552433732313A207472616E7366657220746F206E6F6E204552433732315265 PUSH1 0x44 DUP3 ADD MSTORE PUSH18 0x31B2B4BB32B91034B6B83632B6B2B73A32B9 PUSH1 0x71 SHL PUSH1 0x64 DUP3 ADD MSTORE PUSH1 0x84 ADD PUSH2 0x453 JUMP JUMPDEST PUSH0 DUP2 DUP2 MSTORE PUSH1 0x4 PUSH1 0x20 MSTORE PUSH1 0x40 SWAP1 KECCAK256 SLOAD PUSH1 0x1 PUSH1 0x1 PUSH1 0xA0 SHL SUB AND PUSH2 0xC6F JUMPI PUSH1 0x40 MLOAD PUSH4 0x24476A3F PUSH1 0xE0 SHL DUP2 MSTORE PUSH1 0x4 DUP2 ADD DUP3 SWAP1 MSTORE PUSH1 0x24 ADD PUSH2 0x453 JUMP JUMPDEST PUSH0 DUP2 DUP2 MSTORE PUSH1 0x4 PUSH1 0x20 MSTORE PUSH1 0x40 SWAP1 KECCAK256 SLOAD PUSH2 0x713 SWAP1 PUSH1 0x1 PUSH1 0x1 PUSH1 0xA0 SHL SUB AND PUSH2 0x98E JUMP JUMPDEST PUSH0 DUP1 SLOAD PUSH1 0x1 PUSH1 0x1 PUSH1 0xA0 SHL SUB DUP4 DUP2 AND PUSH1 0x1 PUSH1 0x1 PUSH1 0xA0 SHL SUB NOT DUP4 AND DUP2 OR DUP5 SSTORE PUSH1 0x40 MLOAD SWAP2 SWAP1 SWAP3 AND SWAP3 DUP4 SWAP2 PUSH32 0x8BE0079C531659141344CD1FD0A4F28419497F9722A3DAAFE3B4186F6B6457E0 SWAP2 SWAP1 LOG3 POP POP JUMP JUMPDEST PUSH2 0xCE8 DUP3 DUP3 PUSH2 0xEE5 JUMP JUMPDEST PUSH0 DUP2 DUP2 MSTORE PUSH1 0x6 PUSH1 0x20 MSTORE PUSH1 0x40 DUP1 DUP3 KECCAK256 DUP3 SWAP1 SSTORE MLOAD DUP3 SWAP2 PUSH1 0x1 PUSH1 0x1 PUSH1 0xA0 SHL SUB DUP6 AND SWAP2 PUSH32 0x154FA90F2D3692DF165AFACDCD7755B2E9D98A892A80CC1DDA63F3A9CC1E64A4 SWAP2 SWAP1 LOG3 POP POP JUMP JUMPDEST PUSH0 PUSH2 0xD3A DUP4 DUP4 PUSH2 0xEE5 JUMP JUMPDEST PUSH0 DUP3 DUP2 MSTORE PUSH1 0x6 PUSH1 0x20 MSTORE PUSH1 0x40 DUP2 KECCAK256 DUP1 SLOAD PUSH1 0x1 SWAP3 SWAP1 PUSH2 0xD58 SWAP1 DUP5 SWAP1 PUSH2 0x150D JUMP JUMPDEST SWAP1 SWAP2 SSTORE POP POP PUSH0 DUP3 DUP2 MSTORE PUSH1 0x6 PUSH1 0x20 SWAP1 DUP2 MSTORE PUSH1 0x40 SWAP2 DUP3 SWAP1 KECCAK256 SLOAD SWAP2 MLOAD DUP5 DUP2 MSTORE DUP3 SWAP2 PUSH1 0x1 PUSH1 0x1 PUSH1 0xA0 SHL SUB DUP8 AND SWAP2 PUSH32 0x48FFD7FDB1C1A0561A2D410317F6BB839AAB64898DE6FC73EE703A9C0DC0A36C SWAP2 ADD PUSH1 0x40 MLOAD DUP1 SWAP2 SUB SWAP1 LOG3 SWAP4 SWAP3 POP POP POP JUMP JUMPDEST PUSH1 0x60 PUSH0 PUSH2 0xDBF DUP4 PUSH2 0xF29 JUMP JUMPDEST PUSH1 0x1 ADD SWAP1 POP PUSH0 DUP2 PUSH8 0xFFFFFFFFFFFFFFFF DUP2 GT ISZERO PUSH2 0xDDE JUMPI PUSH2 0xDDE PUSH2 0x1222 JUMP JUMPDEST PUSH1 0x40 MLOAD SWAP1 DUP1 DUP3 MSTORE DUP1 PUSH1 0x1F ADD PUSH1 0x1F NOT AND PUSH1 0x20 ADD DUP3 ADD PUSH1 0x40 MSTORE DUP1 ISZERO PUSH2 0xE08 JUMPI PUSH1 0x20 DUP3 ADD DUP2 DUP1 CALLDATASIZE DUP4 CALLDATACOPY ADD SWAP1 POP JUMPDEST POP SWAP1 POP DUP2 DUP2 ADD PUSH1 0x20 ADD JUMPDEST PUSH0 NOT ADD PUSH16 0x181899199A1A9B1B9C1CB0B131B232B3 PUSH1 0x81 SHL PUSH1 0xA DUP7 MOD BYTE DUP2 MSTORE8 PUSH1 0xA DUP6 DIV SWAP5 POP DUP5 PUSH2 0xE12 JUMPI POP SWAP4 SWAP3 POP POP POP JUMP JUMPDEST PUSH0 DUP4 EXTCODESIZE PUSH2 0xE52 JUMPI POP PUSH1 0x1 PUSH2 0xEDD JUMP JUMPDEST PUSH1 0x40 MLOAD PUSH4 0xA85BD01 PUSH1 0xE1 SHL DUP2 MSTORE PUSH0 SWAP1 PUSH1 0x1 PUSH1 0x1 PUSH1 0xA0 SHL SUB DUP7 AND SWAP1 PUSH4 0x150B7A02 SWAP1 PUSH2 0xE86 SWAP1 CALLER SWAP1 DUP11 SWAP1 DUP10 SWAP1 DUP10 SWAP1 PUSH1 0x4 ADD PUSH2 0x1533 JUMP JUMPDEST PUSH1 0x20 PUSH1 0x40 MLOAD DUP1 DUP4 SUB DUP2 PUSH0 DUP8 GAS CALL ISZERO DUP1 ISZERO PUSH2 0xEA2 JUMPI RETURNDATASIZE PUSH0 DUP1 RETURNDATACOPY RETURNDATASIZE PUSH0 REVERT JUMPDEST POP POP POP POP PUSH1 0x40 MLOAD RETURNDATASIZE PUSH1 0x1F NOT PUSH1 0x1F DUP3 ADD AND DUP3 ADD DUP1 PUSH1 0x40 MSTORE POP DUP2 ADD SWAP1 PUSH2 0xEC6 SWAP2 SWAP1 PUSH2 0x156F JUMP JUMPDEST PUSH1 0x1 PUSH1 0x1 PUSH1 0xE0 SHL SUB NOT AND PUSH4 0xA85BD01 PUSH1 0xE1 SHL EQ SWAP2 POP POP JUMPDEST SWAP5 SWAP4 POP POP POP POP JUMP JUMPDEST PUSH0 DUP2 DUP2 MSTORE PUSH1 0x4 PUSH1 0x20 MSTORE PUSH1 0x40 SWAP1 KECCAK256 SLOAD PUSH1 0x1 PUSH1 0x1 PUSH1 0xA0 SHL SUB DUP4 DUP2 AND SWAP2 AND EQ PUSH2 0x713 JUMPI PUSH1 0x40 MLOAD PUSH4 0x50159299 PUSH1 0xE0 SHL DUP2 MSTORE PUSH1 0x1 PUSH1 0x1 PUSH1 0xA0 SHL SUB DUP4 AND PUSH1 0x4 DUP3 ADD MSTORE PUSH1 0x24 ADD PUSH2 0x453 JUMP JUMPDEST PUSH0 DUP1 PUSH19 0x184F03E93FF9F4DAA797ED6E38ED64BF6A1F01 PUSH1 0x40 SHL DUP4 LT PUSH2 0xF67 JUMPI PUSH19 0x184F03E93FF9F4DAA797ED6E38ED64BF6A1F01 PUSH1 0x40 SHL DUP4 DIV SWAP3 POP PUSH1 0x40 ADD JUMPDEST PUSH14 0x4EE2D6D415B85ACEF8100000000 DUP4 LT PUSH2 0xF93 JUMPI PUSH14 0x4EE2D6D415B85ACEF8100000000 DUP4 DIV SWAP3 POP PUSH1 0x20 ADD JUMPDEST PUSH7 0x2386F26FC10000 DUP4 LT PUSH2 0xFB1 JUMPI PUSH7 0x2386F26FC10000 DUP4 DIV SWAP3 POP PUSH1 0x10 ADD JUMPDEST PUSH4 0x5F5E100 DUP4 LT PUSH2 0xFC9 JUMPI PUSH4 0x5F5E100 DUP4 DIV SWAP3 POP PUSH1 0x8 ADD JUMPDEST PUSH2 0x2710 DUP4 LT PUSH2 0xFDD JUMPI PUSH2 0x2710 DUP4 DIV SWAP3 POP PUSH1 0x4 ADD JUMPDEST PUSH1 0x64 DUP4 LT PUSH2 0xFEF JUMPI PUSH1 0x64 DUP4 DIV SWAP3 POP PUSH1 0x2 ADD JUMPDEST PUSH1 0xA DUP4 LT PUSH2 0x418 JUMPI PUSH1 0x1 ADD SWAP3 SWAP2 POP POP JUMP JUMPDEST PUSH1 0x1 PUSH1 0x1 PUSH1 0xE0 SHL SUB NOT DUP2 AND DUP2 EQ PUSH2 0x98B JUMPI PUSH0 DUP1 REVERT JUMPDEST PUSH0 PUSH1 0x20 DUP3 DUP5 SUB SLT ISZERO PUSH2 0x1025 JUMPI PUSH0 DUP1 REVERT JUMPDEST DUP2 CALLDATALOAD PUSH2 0x5FA DUP2 PUSH2 0x1000 JUMP JUMPDEST PUSH0 JUMPDEST DUP4 DUP2 LT ISZERO PUSH2 0x104A JUMPI DUP2 DUP2 ADD MLOAD DUP4 DUP3 ADD MSTORE PUSH1 0x20 ADD PUSH2 0x1032 JUMP JUMPDEST POP POP PUSH0 SWAP2 ADD MSTORE JUMP JUMPDEST PUSH0 DUP2 MLOAD DUP1 DUP5 MSTORE PUSH2 0x1069 DUP2 PUSH1 0x20 DUP7 ADD PUSH1 0x20 DUP7 ADD PUSH2 0x1030 JUMP JUMPDEST PUSH1 0x1F ADD PUSH1 0x1F NOT AND SWAP3 SWAP1 SWAP3 ADD PUSH1 0x20 ADD SWAP3 SWAP2 POP POP JUMP JUMPDEST PUSH1 0x20 DUP2 MSTORE PUSH0 PUSH2 0x5FA PUSH1 0x20 DUP4 ADD DUP5 PUSH2 0x1052 JUMP JUMPDEST PUSH0 PUSH1 0x20 DUP3 DUP5 SUB SLT ISZERO PUSH2 0x109F JUMPI PUSH0 DUP1 REVERT JUMPDEST POP CALLDATALOAD SWAP2 SWAP1 POP JUMP JUMPDEST DUP1 CALLDATALOAD PUSH1 0x1 PUSH1 0x1 PUSH1 0xA0 SHL SUB DUP2 AND DUP2 EQ PUSH2 0x8D2 JUMPI PUSH0 DUP1 REVERT JUMPDEST PUSH0 DUP1 PUSH1 0x40 DUP4 DUP6 SUB SLT ISZERO PUSH2 0x10CD JUMPI PUSH0 DUP1 REVERT JUMPDEST PUSH2 0x10D6 DUP4 PUSH2 0x10A6 JUMP JUMPDEST SWAP5 PUSH1 0x20 SWAP4 SWAP1 SWAP4 ADD CALLDATALOAD SWAP4 POP POP POP JUMP JUMPDEST DUP1 CALLDATALOAD DUP1 ISZERO ISZERO DUP2 EQ PUSH2 0x8D2 JUMPI PUSH0 DUP1 REVERT JUMPDEST PUSH0 PUSH1 0x20 DUP3 DUP5 SUB SLT ISZERO PUSH2 0x1103 JUMPI PUSH0 DUP1 REVERT JUMPDEST PUSH2 0x5FA DUP3 PUSH2 0x10E4 JUMP JUMPDEST PUSH0 PUSH1 0x20 DUP3 DUP5 SUB SLT ISZERO PUSH2 0x111C JUMPI PUSH0 DUP1 REVERT JUMPDEST PUSH2 0x5FA DUP3 PUSH2 0x10A6 JUMP JUMPDEST PUSH0 DUP1 PUSH0 PUSH1 0x60 DUP5 DUP7 SUB SLT ISZERO PUSH2 0x1137 JUMPI PUSH0 DUP1 REVERT JUMPDEST PUSH2 0x1140 DUP5 PUSH2 0x10A6 JUMP JUMPDEST SWAP3 POP PUSH2 0x114E PUSH1 0x20 DUP6 ADD PUSH2 0x10A6 JUMP JUMPDEST SWAP2 POP PUSH1 0x40 DUP5 ADD CALLDATALOAD SWAP1 POP SWAP3 POP SWAP3 POP SWAP3 JUMP JUMPDEST PUSH0 DUP1 PUSH1 0x40 DUP4 DUP6 SUB SLT ISZERO PUSH2 0x116F JUMPI PUSH0 DUP1 REVERT JUMPDEST PUSH2 0x1178 DUP4 PUSH2 0x10A6 JUMP JUMPDEST SWAP2 POP PUSH2 0x1186 PUSH1 0x20 DUP5 ADD PUSH2 0x10E4 JUMP JUMPDEST SWAP1 POP SWAP3 POP SWAP3 SWAP1 POP JUMP JUMPDEST PUSH0 DUP1 PUSH0 DUP1 PUSH0 PUSH1 0x80 DUP7 DUP9 SUB SLT ISZERO PUSH2 0x11A3 JUMPI PUSH0 DUP1 REVERT JUMPDEST PUSH2 0x11AC DUP7 PUSH2 0x10A6 JUMP JUMPDEST SWAP5 POP PUSH2 0x11BA PUSH1 0x20 DUP8 ADD PUSH2 0x10A6 JUMP JUMPDEST SWAP4 POP PUSH1 0x40 DUP7 ADD CALLDATALOAD SWAP3 POP PUSH1 0x60 DUP7 ADD CALLDATALOAD PUSH8 0xFFFFFFFFFFFFFFFF DUP1 DUP3 GT ISZERO PUSH2 0x11DD JUMPI PUSH0 DUP1 REVERT JUMPDEST DUP2 DUP9 ADD SWAP2 POP DUP9 PUSH1 0x1F DUP4 ADD SLT PUSH2 0x11F0 JUMPI PUSH0 DUP1 REVERT JUMPDEST DUP2 CALLDATALOAD DUP2 DUP2 GT ISZERO PUSH2 0x11FE JUMPI PUSH0 DUP1 REVERT JUMPDEST DUP10 PUSH1 0x20 DUP3 DUP6 ADD ADD GT ISZERO PUSH2 0x120F JUMPI PUSH0 DUP1 REVERT JUMPDEST SWAP7 SWAP10 SWAP6 SWAP9 POP SWAP4 SWAP7 POP PUSH1 0x20 ADD SWAP5 SWAP4 SWAP3 POP POP POP JUMP JUMPDEST PUSH4 0x4E487B71 PUSH1 0xE0 SHL PUSH0 MSTORE PUSH1 0x41 PUSH1 0x4 MSTORE PUSH1 0x24 PUSH0 REVERT JUMPDEST PUSH0 PUSH1 0x20 DUP3 DUP5 SUB SLT ISZERO PUSH2 0x1246 JUMPI PUSH0 DUP1 REVERT JUMPDEST DUP2 CALLDATALOAD PUSH8 0xFFFFFFFFFFFFFFFF DUP1 DUP3 GT ISZERO PUSH2 0x125D JUMPI PUSH0 DUP1 REVERT JUMPDEST DUP2 DUP5 ADD SWAP2 POP DUP5 PUSH1 0x1F DUP4 ADD SLT PUSH2 0x1270 JUMPI PUSH0 DUP1 REVERT JUMPDEST DUP2 CALLDATALOAD DUP2 DUP2 GT ISZERO PUSH2 0x1282 JUMPI PUSH2 0x1282 PUSH2 0x1222 JUMP JUMPDEST PUSH1 0x40 MLOAD PUSH1 0x1F DUP3 ADD PUSH1 0x1F NOT SWAP1 DUP2 AND PUSH1 0x3F ADD AND DUP2 ADD SWAP1 DUP4 DUP3 GT DUP2 DUP4 LT OR ISZERO PUSH2 0x12AA JUMPI PUSH2 0x12AA PUSH2 0x1222 JUMP JUMPDEST DUP2 PUSH1 0x40 MSTORE DUP3 DUP2 MSTORE DUP8 PUSH1 0x20 DUP5 DUP8 ADD ADD GT ISZERO PUSH2 0x12C2 JUMPI PUSH0 DUP1 REVERT JUMPDEST DUP3 PUSH1 0x20 DUP7 ADD PUSH1 0x20 DUP4 ADD CALLDATACOPY PUSH0 SWAP3 DUP2 ADD PUSH1 0x20 ADD SWAP3 SWAP1 SWAP3 MSTORE POP SWAP6 SWAP5 POP POP POP POP POP JUMP JUMPDEST PUSH0 DUP1 PUSH1 0x40 DUP4 DUP6 SUB SLT ISZERO PUSH2 0x12F2 JUMPI PUSH0 DUP1 REVERT JUMPDEST PUSH2 0x12FB DUP4 PUSH2 0x10A6 JUMP JUMPDEST SWAP2 POP PUSH2 0x1186 PUSH1 0x20 DUP5 ADD PUSH2 0x10A6 JUMP JUMPDEST PUSH1 0x1 DUP2 DUP2 SHR SWAP1 DUP3 AND DUP1 PUSH2 0x131D JUMPI PUSH1 0x7F DUP3 AND SWAP2 POP JUMPDEST PUSH1 0x20 DUP3 LT DUP2 SUB PUSH2 0x133B JUMPI PUSH4 0x4E487B71 PUSH1 0xE0 SHL PUSH0 MSTORE PUSH1 0x22 PUSH1 0x4 MSTORE PUSH1 0x24 PUSH0 REVERT JUMPDEST POP SWAP2 SWAP1 POP JUMP JUMPDEST PUSH0 DUP1 DUP6 SLOAD PUSH2 0x134E DUP2 PUSH2 0x1309 JUMP JUMPDEST PUSH1 0x1 DUP3 DUP2 AND DUP1 ISZERO PUSH2 0x1366 JUMPI PUSH1 0x1 DUP2 EQ PUSH2 0x137B JUMPI PUSH2 0x13A7 JUMP JUMPDEST PUSH1 0xFF NOT DUP5 AND DUP8 MSTORE DUP3 ISZERO ISZERO DUP4 MUL DUP8 ADD SWAP5 POP PUSH2 0x13A7 JUMP JUMPDEST DUP10 PUSH0 MSTORE PUSH1 0x20 DUP1 PUSH0 KECCAK256 PUSH0 JUMPDEST DUP6 DUP2 LT ISZERO PUSH2 0x139E JUMPI DUP2 SLOAD DUP11 DUP3 ADD MSTORE SWAP1 DUP5 ADD SWAP1 DUP3 ADD PUSH2 0x1385 JUMP JUMPDEST POP POP POP DUP3 DUP8 ADD SWAP5 POP JUMPDEST POP POP POP POP DUP5 MLOAD PUSH2 0x13BB DUP2 DUP4 PUSH1 0x20 DUP10 ADD PUSH2 0x1030 JUMP JUMPDEST PUSH11 0x3F746F6B656E547970653D PUSH1 0xA8 SHL SWAP2 ADD SWAP1 DUP2 MSTORE DUP4 MLOAD PUSH2 0x13E2 DUP2 PUSH1 0xB DUP5 ADD PUSH1 0x20 DUP9 ADD PUSH2 0x1030 JUMP JUMPDEST ADD PUSH1 0xB ADD SWAP6 SWAP5 POP POP POP POP POP JUMP JUMPDEST PUSH1 0x1F DUP3 GT ISZERO PUSH2 0x1438 JUMPI PUSH0 DUP2 DUP2 MSTORE PUSH1 0x20 DUP2 KECCAK256 PUSH1 0x1F DUP6 ADD PUSH1 0x5 SHR DUP2 ADD PUSH1 0x20 DUP7 LT ISZERO PUSH2 0x1415 JUMPI POP DUP1 JUMPDEST PUSH1 0x1F DUP6 ADD PUSH1 0x5 SHR DUP3 ADD SWAP2 POP JUMPDEST DUP2 DUP2 LT ISZERO PUSH2 0x1434 JUMPI DUP3 DUP2 SSTORE PUSH1 0x1 ADD PUSH2 0x1421 JUMP JUMPDEST POP POP POP JUMPDEST POP POP POP JUMP JUMPDEST DUP2 MLOAD PUSH8 0xFFFFFFFFFFFFFFFF DUP2 GT ISZERO PUSH2 0x1457 JUMPI PUSH2 0x1457 PUSH2 0x1222 JUMP JUMPDEST PUSH2 0x146B DUP2 PUSH2 0x1465 DUP5 SLOAD PUSH2 0x1309 JUMP JUMPDEST DUP5 PUSH2 0x13EF JUMP JUMPDEST PUSH1 0x20 DUP1 PUSH1 0x1F DUP4 GT PUSH1 0x1 DUP2 EQ PUSH2 0x149E JUMPI PUSH0 DUP5 ISZERO PUSH2 0x1487 JUMPI POP DUP6 DUP4 ADD MLOAD JUMPDEST PUSH0 NOT PUSH1 0x3 DUP7 SWAP1 SHL SHR NOT AND PUSH1 0x1 DUP6 SWAP1 SHL OR DUP6 SSTORE PUSH2 0x1434 JUMP JUMPDEST PUSH0 DUP6 DUP2 MSTORE PUSH1 0x20 DUP2 KECCAK256 PUSH1 0x1F NOT DUP7 AND SWAP2 JUMPDEST DUP3 DUP2 LT ISZERO PUSH2 0x14CC JUMPI DUP9 DUP7 ADD MLOAD DUP3 SSTORE SWAP5 DUP5 ADD SWAP5 PUSH1 0x1 SWAP1 SWAP2 ADD SWAP1 DUP5 ADD PUSH2 0x14AD JUMP JUMPDEST POP DUP6 DUP3 LT ISZERO PUSH2 0x14E9 JUMPI DUP8 DUP6 ADD MLOAD PUSH0 NOT PUSH1 0x3 DUP9 SWAP1 SHL PUSH1 0xF8 AND SHR NOT AND DUP2 SSTORE JUMPDEST POP POP POP POP POP PUSH1 0x1 SWAP1 DUP2 SHL ADD SWAP1 SSTORE POP JUMP JUMPDEST PUSH4 0x4E487B71 PUSH1 0xE0 SHL PUSH0 MSTORE PUSH1 0x11 PUSH1 0x4 MSTORE PUSH1 0x24 PUSH0 REVERT JUMPDEST DUP1 DUP3 ADD DUP1 DUP3 GT ISZERO PUSH2 0x418 JUMPI PUSH2 0x418 PUSH2 0x14F9 JUMP JUMPDEST DUP2 DUP2 SUB DUP2 DUP2 GT ISZERO PUSH2 0x418 JUMPI PUSH2 0x418 PUSH2 0x14F9 JUMP JUMPDEST PUSH1 0x1 PUSH1 0x1 PUSH1 0xA0 SHL SUB DUP6 DUP2 AND DUP3 MSTORE DUP5 AND PUSH1 0x20 DUP3 ADD MSTORE PUSH1 0x40 DUP2 ADD DUP4 SWAP1 MSTORE PUSH1 0x80 PUSH1 0x60 DUP3 ADD DUP2 SWAP1 MSTORE PUSH0 SWAP1 PUSH2 0x1565 SWAP1 DUP4 ADD DUP5 PUSH2 0x1052 JUMP JUMPDEST SWAP7 SWAP6 POP POP POP POP POP POP JUMP JUMPDEST PUSH0 PUSH1 0x20 DUP3 DUP5 SUB SLT ISZERO PUSH2 0x157F JUMPI PUSH0 DUP1 REVERT JUMPDEST DUP2 MLOAD PUSH2 0x5FA DUP2 PUSH2 0x1000 JUMP INVALID LOG2 PUSH5 0x6970667358 0x22 SLT KECCAK256 PUSH16 0x1C18825D3FAB6E9E47F6E6BB10FEBEC3 0xD3 0xA6 MSTORE8 0xD8 PUSH0 NUMBER PUSH19 0xDC448EAB8AB495E864736F6C63430008140033 "
				},
				"gasEstimates": {
					"creation": {
						"codeDepositCost": "1113600",
						"executionCost": "infinite",
						"totalCost": "infinite"
					},
					"external": {
						"approve(address,uint256)": "481",
						"balanceOf(address)": "4943",
						"getApproved(uint256)": "418",
						"getGrowth(uint256)": "9195",
						"getProtected(address)": "2681",
						"getTokenType(uint256)": "9196",
						"growUp(address,uint256)": "33269",
						"isApprovedForAll(address,address)": "infinite",
						"isProtected(address)": "2719",
						"mint(address,uint256)": "infinite",
						"name()": "infinite",
						"owner()": "2419",
						"ownerOf(uint256)": "9256",
						"renounceOwnership()": "infinite",
						"reset(address,uint256)": "infinite",
						"safeTransferFrom(address,address,uint256)": "infinite",
						"safeTransferFrom(address,address,uint256,bytes)": "infinite",
						"setApprovalForAll(address,bool)": "infinite",
						"setProtected(bool)": "infinite",
						"setTokenURI(string)": "infinite",
						"supportsInterface(bytes4)": "499",
						"symbol()": "infinite",
						"tokenOfOwnerByIndex(address,uint256)": "7223",
						"tokenURI(uint256)": "infinite",
						"totalSupply()": "2348",
						"totalUser()": "2357",
						"transferFrom(address,address,uint256)": "infinite",
						"transferOwnership(address)": "28439"
					},
					"internal": {
						"_balanceOf(address)": "infinite",
						"_checkOnERC721Received(address,address,uint256,bytes memory)": "infinite",
						"_exists(uint256)": "infinite",
						"_existsOwner(address)": "infinite",
						"_getProtected(address)": "infinite",
						"_growUp(address,uint256)": "infinite",
						"_isProtected(address)": "infinite",
						"_isProtectedTokenId(uint256)": "infinite",
						"_ownerOf(uint256)": "infinite",
						"_requireMintedOf(address,uint256)": "infinite",
						"_safeMint(address,uint256)": "infinite",
						"_setGrowthToZero(address,uint256)": "infinite",
						"isContract(address)": "infinite"
					}
				},
				"methodIdentifiers": {
					"approve(address,uint256)": "095ea7b3",
					"balanceOf(address)": "70a08231",
					"getApproved(uint256)": "081812fc",
					"getGrowth(uint256)": "51c18e0c",
					"getProtected(address)": "1f8eb677",
					"getTokenType(uint256)": "76aed2e1",
					"growUp(address,uint256)": "be37e907",
					"isApprovedForAll(address,address)": "e985e9c5",
					"isProtected(address)": "ce35de95",
					"mint(address,uint256)": "40c10f19",
					"name()": "06fdde03",
					"owner()": "8da5cb5b",
					"ownerOf(uint256)": "6352211e",
					"renounceOwnership()": "715018a6",
					"reset(address,uint256)": "9b252852",
					"safeTransferFrom(address,address,uint256)": "42842e0e",
					"safeTransferFrom(address,address,uint256,bytes)": "b88d4fde",
					"setApprovalForAll(address,bool)": "a22cb465",
					"setProtected(bool)": "1c02bc31",
					"setTokenURI(string)": "e0df5b6f",
					"supportsInterface(bytes4)": "01ffc9a7",
					"symbol()": "95d89b41",
					"tokenOfOwnerByIndex(address,uint256)": "2f745c59",
					"tokenURI(uint256)": "c87b56dd",
					"totalSupply()": "18160ddd",
					"totalUser()": "e1604b70",
					"transferFrom(address,address,uint256)": "23b872dd",
					"transferOwnership(address)": "f2fde38b"
				}
			},
			"storageLayout": {
				"storage": [
					{
						"astId": 7,
						"contract": "v2/contracts/SoulSocietySBT.sol:SoulSocietySBT",
						"label": "_owner",
						"offset": 0,
						"slot": "0",
						"type": "t_address"
					},
					{
						"astId": 1542,
						"contract": "v2/contracts/SoulSocietySBT.sol:SoulSocietySBT",
						"label": "_uri",
						"offset": 0,
						"slot": "1",
						"type": "t_string_storage"
					},
					{
						"astId": 1544,
						"contract": "v2/contracts/SoulSocietySBT.sol:SoulSocietySBT",
						"label": "_totalUser",
						"offset": 0,
						"slot": "2",
						"type": "t_uint256"
					},
					{
						"astId": 1546,
						"contract": "v2/contracts/SoulSocietySBT.sol:SoulSocietySBT",
						"label": "_totalCount",
						"offset": 0,
						"slot": "3",
						"type": "t_uint256"
					},
					{
						"astId": 1550,
						"contract": "v2/contracts/SoulSocietySBT.sol:SoulSocietySBT",
						"label": "_owners",
						"offset": 0,
						"slot": "4",
						"type": "t_mapping(t_uint256,t_address)"
					},
					{
						"astId": 1554,
						"contract": "v2/contracts/SoulSocietySBT.sol:SoulSocietySBT",
						"label": "_tokenTypes",
						"offset": 0,
						"slot": "5",
						"type": "t_mapping(t_uint256,t_uint256)"
					},
					{
						"astId": 1558,
						"contract": "v2/contracts/SoulSocietySBT.sol:SoulSocietySBT",
						"label": "_tokenGrowths",
						"offset": 0,
						"slot": "6",
						"type": "t_mapping(t_uint256,t_uint256)"
					},
					{
						"astId": 1562,
						"contract": "v2/contracts/SoulSocietySBT.sol:SoulSocietySBT",
						"label": "_balances",
						"offset": 0,
						"slot": "7",
						"type": "t_mapping(t_address,t_uint256)"
					},
					{
						"astId": 1566,
						"contract": "v2/contracts/SoulSocietySBT.sol:SoulSocietySBT",
						"label": "_userProtects",
						"offset": 0,
						"slot": "8",
						"type": "t_mapping(t_address,t_bool)"
					},
					{
						"astId": 1572,
						"contract": "v2/contracts/SoulSocietySBT.sol:SoulSocietySBT",
						"label": "_ownedTokens",
						"offset": 0,
						"slot": "9",
						"type": "t_mapping(t_address,t_mapping(t_uint256,t_uint256))"
					}
				],
				"types": {
					"t_address": {
						"encoding": "inplace",
						"label": "address",
						"numberOfBytes": "20"
					},
					"t_bool": {
						"encoding": "inplace",
						"label": "bool",
						"numberOfBytes": "1"
					},
					"t_mapping(t_address,t_bool)": {
						"encoding": "mapping",
						"key": "t_address",
						"label": "mapping(address => bool)",
						"numberOfBytes": "32",
						"value": "t_bool"
					},
					"t_mapping(t_address,t_mapping(t_uint256,t_uint256))": {
						"encoding": "mapping",
						"key": "t_address",
						"label": "mapping(address => mapping(uint256 => uint256))",
						"numberOfBytes": "32",
						"value": "t_mapping(t_uint256,t_uint256)"
					},
					"t_mapping(t_address,t_uint256)": {
						"encoding": "mapping",
						"key": "t_address",
						"label": "mapping(address => uint256)",
						"numberOfBytes": "32",
						"value": "t_uint256"
					},
					"t_mapping(t_uint256,t_address)": {
						"encoding": "mapping",
						"key": "t_uint256",
						"label": "mapping(uint256 => address)",
						"numberOfBytes": "32",
						"value": "t_address"
					},
					"t_mapping(t_uint256,t_uint256)": {
						"encoding": "mapping",
						"key": "t_uint256",
						"label": "mapping(uint256 => uint256)",
						"numberOfBytes": "32",
						"value": "t_uint256"
					},
					"t_string_storage": {
						"encoding": "bytes",
						"label": "string",
						"numberOfBytes": "32"
					},
					"t_uint256": {
						"encoding": "inplace",
						"label": "uint256",
						"numberOfBytes": "32"
					}
				}
			},
			"userdoc": {
				"kind": "user",
				"methods": {
					"safeTransferFrom(address,address,uint256,bytes)": {
						"notice": "Does not provide a transfer feature."
					}
				},
				"notice": "As an implementation of ISoulSocietyLightweightEnumableSTB, only the owner can modify growth.",
				"version": 1
			}
		}
	}
}