{
	"v2/contracts/SoulSocietySBT.sol": {
		"SoulSocietySBT": {
			"abi": [
				{
					"inputs": [
						{
							"internalType": "string",
							"name": "uri_",
							"type": "string"
						}
					],
					"stateMutability": "nonpayable",
					"type": "constructor"
				},
				{
					"inputs": [
						{
							"internalType": "uint256",
							"name": "tokenId",
							"type": "uint256"
						}
					],
					"name": "SoulSocietySBTExistToken",
					"type": "error"
				},
				{
					"inputs": [
						{
							"internalType": "address",
							"name": "sender",
							"type": "address"
						},
						{
							"internalType": "uint256",
							"name": "tokenId",
							"type": "uint256"
						},
						{
							"internalType": "address",
							"name": "owner",
							"type": "address"
						}
					],
					"name": "SoulSocietySBTIncorrectOwner",
					"type": "error"
				},
				{
					"inputs": [
						{
							"internalType": "address",
							"name": "to",
							"type": "address"
						}
					],
					"name": "SoulSocietySBTInvalidOwner",
					"type": "error"
				},
				{
					"inputs": [
						{
							"internalType": "address",
							"name": "receiver",
							"type": "address"
						}
					],
					"name": "SoulSocietySBTInvalidReceiver",
					"type": "error"
				},
				{
					"inputs": [
						{
							"internalType": "address",
							"name": "sender",
							"type": "address"
						}
					],
					"name": "SoulSocietySBTInvalidSender",
					"type": "error"
				},
				{
					"inputs": [
						{
							"internalType": "address",
							"name": "sender",
							"type": "address"
						}
					],
					"name": "SoulSocietySBTNonExist",
					"type": "error"
				},
				{
					"inputs": [
						{
							"internalType": "uint256",
							"name": "tokenId",
							"type": "uint256"
						}
					],
					"name": "SoulSocietySBTNonexistentToken",
					"type": "error"
				},
				{
					"inputs": [
						{
							"internalType": "address",
							"name": "owner",
							"type": "address"
						},
						{
							"internalType": "address",
							"name": "to",
							"type": "address"
						}
					],
					"name": "SoulSocietySBTNotOwner",
					"type": "error"
				},
				{
					"inputs": [
						{
							"internalType": "string",
							"name": "message",
							"type": "string"
						}
					],
					"name": "SoulSocietySBTNotSupported",
					"type": "error"
				},
				{
					"inputs": [
						{
							"internalType": "address",
							"name": "owner",
							"type": "address"
						},
						{
							"internalType": "uint256",
							"name": "tokenId",
							"type": "uint256"
						}
					],
					"name": "SoulSocietySBTPermissionDenied",
					"type": "error"
				},
				{
					"inputs": [
						{
							"internalType": "address",
							"name": "owner",
							"type": "address"
						}
					],
					"name": "SoulSocietySBTProtectedOwner",
					"type": "error"
				},
				{
					"anonymous": false,
					"inputs": [
						{
							"indexed": true,
							"internalType": "address",
							"name": "owner",
							"type": "address"
						},
						{
							"indexed": true,
							"internalType": "address",
							"name": "approved",
							"type": "address"
						},
						{
							"indexed": true,
							"internalType": "uint256",
							"name": "tokenId",
							"type": "uint256"
						}
					],
					"name": "Approval",
					"type": "event"
				},
				{
					"anonymous": false,
					"inputs": [
						{
							"indexed": true,
							"internalType": "address",
							"name": "owner",
							"type": "address"
						},
						{
							"indexed": true,
							"internalType": "address",
							"name": "operator",
							"type": "address"
						},
						{
							"indexed": false,
							"internalType": "bool",
							"name": "approved",
							"type": "bool"
						}
					],
					"name": "ApprovalForAll",
					"type": "event"
				},
				{
					"anonymous": false,
					"inputs": [
						{
							"indexed": true,
							"internalType": "address",
							"name": "creator",
							"type": "address"
						},
						{
							"indexed": false,
							"internalType": "uint256",
							"name": "creationTime",
							"type": "uint256"
						},
						{
							"indexed": false,
							"internalType": "string",
							"name": "name",
							"type": "string"
						},
						{
							"indexed": false,
							"internalType": "string",
							"name": "symbol",
							"type": "string"
						},
						{
							"indexed": false,
							"internalType": "string",
							"name": "uri",
							"type": "string"
						}
					],
					"name": "ContractCreated",
					"type": "event"
				},
				{
					"anonymous": false,
					"inputs": [
						{
							"indexed": true,
							"internalType": "address",
							"name": "to",
							"type": "address"
						},
						{
							"indexed": false,
							"internalType": "uint256",
							"name": "tokenId",
							"type": "uint256"
						},
						{
							"indexed": true,
							"internalType": "uint256",
							"name": "growth",
							"type": "uint256"
						}
					],
					"name": "GrowUp",
					"type": "event"
				},
				{
					"anonymous": false,
					"inputs": [
						{
							"indexed": false,
							"internalType": "address",
							"name": "from",
							"type": "address"
						},
						{
							"indexed": true,
							"internalType": "address",
							"name": "to",
							"type": "address"
						},
						{
							"indexed": true,
							"internalType": "uint256",
							"name": "tokenId",
							"type": "uint256"
						},
						{
							"indexed": true,
							"internalType": "uint256",
							"name": "tokenType",
							"type": "uint256"
						}
					],
					"name": "Mint",
					"type": "event"
				},
				{
					"anonymous": false,
					"inputs": [
						{
							"indexed": true,
							"internalType": "address",
							"name": "previousOwner",
							"type": "address"
						},
						{
							"indexed": true,
							"internalType": "address",
							"name": "newOwner",
							"type": "address"
						}
					],
					"name": "OwnershipTransferred",
					"type": "event"
				},
				{
					"anonymous": false,
					"inputs": [
						{
							"indexed": true,
							"internalType": "address",
							"name": "to",
							"type": "address"
						},
						{
							"indexed": true,
							"internalType": "uint256",
							"name": "tokenId",
							"type": "uint256"
						}
					],
					"name": "Reset",
					"type": "event"
				},
				{
					"anonymous": false,
					"inputs": [
						{
							"indexed": true,
							"internalType": "address",
							"name": "sender",
							"type": "address"
						},
						{
							"indexed": false,
							"internalType": "string",
							"name": "uri",
							"type": "string"
						}
					],
					"name": "SetTokenURI",
					"type": "event"
				},
				{
					"anonymous": false,
					"inputs": [
						{
							"indexed": true,
							"internalType": "address",
							"name": "from",
							"type": "address"
						},
						{
							"indexed": true,
							"internalType": "address",
							"name": "to",
							"type": "address"
						},
						{
							"indexed": true,
							"internalType": "uint256",
							"name": "tokenId",
							"type": "uint256"
						}
					],
					"name": "Transfer",
					"type": "event"
				},
				{
					"inputs": [
						{
							"internalType": "address",
							"name": "",
							"type": "address"
						},
						{
							"internalType": "uint256",
							"name": "",
							"type": "uint256"
						}
					],
					"name": "approve",
					"outputs": [],
					"stateMutability": "pure",
					"type": "function"
				},
				{
					"inputs": [
						{
							"internalType": "address",
							"name": "owner_",
							"type": "address"
						}
					],
					"name": "balanceOf",
					"outputs": [
						{
							"internalType": "uint256",
							"name": "",
							"type": "uint256"
						}
					],
					"stateMutability": "view",
					"type": "function"
				},
				{
					"inputs": [
						{
							"internalType": "address",
							"name": "owner_",
							"type": "address"
						},
						{
							"internalType": "uint256",
							"name": "tokenId_",
							"type": "uint256"
						}
					],
					"name": "getApprovalGrowth",
					"outputs": [
						{
							"internalType": "bool",
							"name": "",
							"type": "bool"
						}
					],
					"stateMutability": "view",
					"type": "function"
				},
				{
					"inputs": [
						{
							"internalType": "uint256",
							"name": "",
							"type": "uint256"
						}
					],
					"name": "getApproved",
					"outputs": [
						{
							"internalType": "address",
							"name": "",
							"type": "address"
						}
					],
					"stateMutability": "pure",
					"type": "function"
				},
				{
					"inputs": [
						{
							"internalType": "uint256",
							"name": "tokenId_",
							"type": "uint256"
						}
					],
					"name": "getGrowth",
					"outputs": [
						{
							"internalType": "uint256",
							"name": "",
							"type": "uint256"
						}
					],
					"stateMutability": "view",
					"type": "function"
				},
				{
					"inputs": [
						{
							"internalType": "uint256",
							"name": "tokenId_",
							"type": "uint256"
						}
					],
					"name": "getTokenType",
					"outputs": [
						{
							"internalType": "uint256",
							"name": "",
							"type": "uint256"
						}
					],
					"stateMutability": "view",
					"type": "function"
				},
				{
					"inputs": [
						{
							"internalType": "address",
							"name": "to_",
							"type": "address"
						},
						{
							"internalType": "uint256",
							"name": "tokenId_",
							"type": "uint256"
						}
					],
					"name": "growUp",
					"outputs": [
						{
							"internalType": "uint256",
							"name": "",
							"type": "uint256"
						}
					],
					"stateMutability": "nonpayable",
					"type": "function"
				},
				{
					"inputs": [
						{
							"internalType": "address",
							"name": "",
							"type": "address"
						},
						{
							"internalType": "address",
							"name": "",
							"type": "address"
						}
					],
					"name": "isApprovedForAll",
					"outputs": [
						{
							"internalType": "bool",
							"name": "",
							"type": "bool"
						}
					],
					"stateMutability": "pure",
					"type": "function"
				},
				{
					"inputs": [
						{
							"internalType": "address",
							"name": "to_",
							"type": "address"
						}
					],
					"name": "isProtected",
					"outputs": [
						{
							"internalType": "bool",
							"name": "",
							"type": "bool"
						}
					],
					"stateMutability": "view",
					"type": "function"
				},
				{
					"inputs": [
						{
							"internalType": "address",
							"name": "to_",
							"type": "address"
						},
						{
							"internalType": "uint256",
							"name": "tokenType_",
							"type": "uint256"
						}
					],
					"name": "mint",
					"outputs": [
						{
							"internalType": "uint256",
							"name": "",
							"type": "uint256"
						}
					],
					"stateMutability": "nonpayable",
					"type": "function"
				},
				{
					"inputs": [],
					"name": "name",
					"outputs": [
						{
							"internalType": "string",
							"name": "",
							"type": "string"
						}
					],
					"stateMutability": "pure",
					"type": "function"
				},
				{
					"inputs": [],
					"name": "owner",
					"outputs": [
						{
							"internalType": "address",
							"name": "",
							"type": "address"
						}
					],
					"stateMutability": "view",
					"type": "function"
				},
				{
					"inputs": [
						{
							"internalType": "uint256",
							"name": "tokenId_",
							"type": "uint256"
						}
					],
					"name": "ownerOf",
					"outputs": [
						{
							"internalType": "address",
							"name": "",
							"type": "address"
						}
					],
					"stateMutability": "view",
					"type": "function"
				},
				{
					"inputs": [],
					"name": "renounceOwnership",
					"outputs": [],
					"stateMutability": "nonpayable",
					"type": "function"
				},
				{
					"inputs": [
						{
							"internalType": "address",
							"name": "to_",
							"type": "address"
						},
						{
							"internalType": "uint256",
							"name": "tokenId_",
							"type": "uint256"
						}
					],
					"name": "reset",
					"outputs": [],
					"stateMutability": "nonpayable",
					"type": "function"
				},
				{
					"inputs": [
						{
							"internalType": "address",
							"name": "",
							"type": "address"
						},
						{
							"internalType": "address",
							"name": "",
							"type": "address"
						},
						{
							"internalType": "uint256",
							"name": "",
							"type": "uint256"
						}
					],
					"name": "safeTransferFrom",
					"outputs": [],
					"stateMutability": "pure",
					"type": "function"
				},
				{
					"inputs": [
						{
							"internalType": "address",
							"name": "",
							"type": "address"
						},
						{
							"internalType": "address",
							"name": "",
							"type": "address"
						},
						{
							"internalType": "uint256",
							"name": "",
							"type": "uint256"
						},
						{
							"internalType": "bytes",
							"name": "",
							"type": "bytes"
						}
					],
					"name": "safeTransferFrom",
					"outputs": [],
					"stateMutability": "pure",
					"type": "function"
				},
				{
					"inputs": [
						{
							"internalType": "address",
							"name": "",
							"type": "address"
						},
						{
							"internalType": "bool",
							"name": "",
							"type": "bool"
						}
					],
					"name": "setApprovalForAll",
					"outputs": [],
					"stateMutability": "pure",
					"type": "function"
				},
				{
					"inputs": [
						{
							"internalType": "uint256",
							"name": "tokenId_",
							"type": "uint256"
						},
						{
							"internalType": "bool",
							"name": "approved_",
							"type": "bool"
						}
					],
					"name": "setApprovalGrowth",
					"outputs": [],
					"stateMutability": "nonpayable",
					"type": "function"
				},
				{
					"inputs": [
						{
							"internalType": "bool",
							"name": "isProtected_",
							"type": "bool"
						}
					],
					"name": "setProtected",
					"outputs": [
						{
							"internalType": "bool",
							"name": "",
							"type": "bool"
						}
					],
					"stateMutability": "nonpayable",
					"type": "function"
				},
				{
					"inputs": [
						{
							"internalType": "string",
							"name": "tokenURI_",
							"type": "string"
						}
					],
					"name": "setTokenURI",
					"outputs": [
						{
							"internalType": "string",
							"name": "",
							"type": "string"
						}
					],
					"stateMutability": "nonpayable",
					"type": "function"
				},
				{
					"inputs": [
						{
							"internalType": "bytes4",
							"name": "interfaceId",
							"type": "bytes4"
						}
					],
					"name": "supportsInterface",
					"outputs": [
						{
							"internalType": "bool",
							"name": "",
							"type": "bool"
						}
					],
					"stateMutability": "view",
					"type": "function"
				},
				{
					"inputs": [],
					"name": "symbol",
					"outputs": [
						{
							"internalType": "string",
							"name": "",
							"type": "string"
						}
					],
					"stateMutability": "pure",
					"type": "function"
				},
				{
					"inputs": [
						{
							"internalType": "address",
							"name": "owner_",
							"type": "address"
						},
						{
							"internalType": "uint256",
							"name": "index_",
							"type": "uint256"
						}
					],
					"name": "tokenOfOwnerByIndex",
					"outputs": [
						{
							"internalType": "uint256",
							"name": "",
							"type": "uint256"
						}
					],
					"stateMutability": "view",
					"type": "function"
				},
				{
					"inputs": [
						{
							"internalType": "uint256",
							"name": "tokenId_",
							"type": "uint256"
						}
					],
					"name": "tokenURI",
					"outputs": [
						{
							"internalType": "string",
							"name": "",
							"type": "string"
						}
					],
					"stateMutability": "view",
					"type": "function"
				},
				{
					"inputs": [],
					"name": "totalSupply",
					"outputs": [
						{
							"internalType": "uint256",
							"name": "",
							"type": "uint256"
						}
					],
					"stateMutability": "view",
					"type": "function"
				},
				{
					"inputs": [],
					"name": "totalUser",
					"outputs": [
						{
							"internalType": "uint256",
							"name": "",
							"type": "uint256"
						}
					],
					"stateMutability": "view",
					"type": "function"
				},
				{
					"inputs": [
						{
							"internalType": "address",
							"name": "",
							"type": "address"
						},
						{
							"internalType": "address",
							"name": "",
							"type": "address"
						},
						{
							"internalType": "uint256",
							"name": "",
							"type": "uint256"
						}
					],
					"name": "transferFrom",
					"outputs": [],
					"stateMutability": "pure",
					"type": "function"
				},
				{
					"inputs": [
						{
							"internalType": "address",
							"name": "newOwner",
							"type": "address"
						}
					],
					"name": "transferOwnership",
					"outputs": [],
					"stateMutability": "nonpayable",
					"type": "function"
				}
			],
			"devdoc": {
				"errors": {
					"SoulSocietySBTIncorrectOwner(address,uint256,address)": [
						{
							"details": "Indicates an error related to the ownership over a particular token. Used in transfers.",
							"params": {
								"owner": "Address of the current owner of a token.",
								"sender": "Address whose tokens are being transferred.",
								"tokenId": "Identifier number of a token."
							}
						}
					],
					"SoulSocietySBTInvalidReceiver(address)": [
						{
							"details": "Indicates a failure with the token `receiver`. Used in transfers.",
							"params": {
								"receiver": "Address to which tokens are being transferred."
							}
						}
					],
					"SoulSocietySBTInvalidSender(address)": [
						{
							"details": "Indicates a failure with the token `sender`. Used in transfers.",
							"params": {
								"sender": "Address whose tokens are being transferred."
							}
						}
					],
					"SoulSocietySBTNonexistentToken(uint256)": [
						{
							"details": "Indicates a `tokenId` whose `owner` is the zero address.",
							"params": {
								"tokenId": "Identifier number of a token."
							}
						}
					],
					"SoulSocietySBTNotOwner(address,address)": [
						{
							"details": "Indicates an error related to the ownership over a particular token.",
							"params": {
								"owner": "Address of the current owner of a token.",
								"to": "Address whose SBT token are being used."
							}
						}
					],
					"SoulSocietySBTPermissionDenied(address,uint256)": [
						{
							"details": "Indicates an error related to the ownership over a particular token.",
							"params": {
								"owner": "Address of the current owner of a token.",
								"tokenId": "Address whose SBT token are being used"
							}
						}
					],
					"SoulSocietySBTProtectedOwner(address)": [
						{
							"details": "Indicates protected status. Used in token.",
							"params": {
								"owner": "Address."
							}
						}
					]
				},
				"events": {
					"Approval(address,address,uint256)": {
						"details": "Emitted when `owner` enables `approved` to manage the `tokenId` token."
					},
					"ApprovalForAll(address,address,bool)": {
						"details": "Emitted when `owner` enables or disables (`approved`) `operator` to manage all of its assets."
					},
					"Mint(address,address,uint256,uint256)": {
						"details": "Emitted when `tokenId` token is minted from `from(Contract Owner)` to `to`."
					},
					"Transfer(address,address,uint256)": {
						"details": "Emitted when `tokenId` token is transferred from `from` to `to`."
					}
				},
				"kind": "dev",
				"methods": {
					"name()": {
						"details": "Returns the token collection name."
					},
					"owner()": {
						"details": "Returns the address of the current owner."
					},
					"ownerOf(uint256)": {
						"details": "Returns the owner of the `tokenId`. Does NOT revert if token doesn't exist"
					},
					"renounceOwnership()": {
						"details": "Leaves the contract without owner. It will not be possible to call `onlyOwner` functions. Can only be called by the current owner. NOTE: Renouncing ownership will leave the contract without an owner, thereby disabling any functionality that is only available to the owner."
					},
					"supportsInterface(bytes4)": {
						"details": "See {IERC165-supportsInterface}."
					},
					"symbol()": {
						"details": "Returns the token collection symbol."
					},
					"tokenOfOwnerByIndex(address,uint256)": {
						"details": "Returns a token ID owned by `owner` at a given `index` of its token list. Use along with {balanceOf} to enumerate all of ``owner``'s tokens."
					},
					"tokenURI(uint256)": {
						"details": "Returns the Uniform Resource Identifier (URI) for `tokenId` token."
					},
					"totalSupply()": {
						"details": "Returns the total amount of tokens stored by the contract."
					},
					"transferOwnership(address)": {
						"details": "Transfers ownership of the contract to a new account (`newOwner`). Can only be called by the current owner."
					}
				},
				"title": "Implementation contract of  growth type SBT developed by SoulSociety",
				"version": 1
			},
			"evm": {
				"assembly": "    /* \"v2/contracts/SoulSocietySBT.sol\":761:13351  contract SoulSocietySBT is ISoulSocietySBT, ISoulSocietySBTMetadata, ISoulSocietySBTErrors , IERC721, ERC165, Ownable {... */\n  mstore(0x40, 0x80)\n    /* \"v2/contracts/SoulSocietySBT.sol\":2017:2160  constructor(string memory uri_) {... */\n  callvalue\n  dup1\n  iszero\n  tag_1\n  jumpi\n  0x00\n  dup1\n  revert\ntag_1:\n  pop\n  mload(0x40)\n  sub(codesize, bytecodeSize)\n  dup1\n  bytecodeSize\n  dup4\n  codecopy\n  dup2\n  dup2\n  add\n  0x40\n  mstore\n  dup2\n  add\n  swap1\n  tag_2\n  swap2\n  swap1\n  tag_3\n  jump\t// in\ntag_2:\n    /* \"@openzeppelin/contracts/access/Ownable.sol\":936:968  _transferOwnership(_msgSender()) */\n  tag_7\n    /* \"@openzeppelin/contracts/access/Ownable.sol\":955:967  _msgSender() */\n  tag_8\n    /* \"@openzeppelin/contracts/access/Ownable.sol\":955:965  _msgSender */\n  shl(0x20, tag_9)\n    /* \"@openzeppelin/contracts/access/Ownable.sol\":955:967  _msgSender() */\n  0x20\n  shr\n  jump\t// in\ntag_8:\n    /* \"@openzeppelin/contracts/access/Ownable.sol\":936:954  _transferOwnership */\n  shl(0x20, tag_10)\n    /* \"@openzeppelin/contracts/access/Ownable.sol\":936:968  _transferOwnership(_msgSender()) */\n  0x20\n  shr\n  jump\t// in\ntag_7:\n    /* \"v2/contracts/SoulSocietySBT.sol\":2066:2070  uri_ */\n  dup1\n    /* \"v2/contracts/SoulSocietySBT.sol\":2059:2063  _uri */\n  0x01\n    /* \"v2/contracts/SoulSocietySBT.sol\":2059:2070  _uri = uri_ */\n  swap1\n  dup2\n  tag_12\n  swap2\n  swap1\n  tag_13\n  jump\t// in\ntag_12:\n  pop\n    /* \"v2/contracts/SoulSocietySBT.sol\":2102:2112  msg.sender */\n  caller\n    /* \"v2/contracts/SoulSocietySBT.sol\":2086:2153  ContractCreated(msg.sender,  block.timestamp, _name, _symbol, uri_) */\n  0xffffffffffffffffffffffffffffffffffffffff\n  and\n  0xddb33c9627985605622b2c4e8b308152b557aeae8ba59e2f05038c9d8ed6ae84\n    /* \"v2/contracts/SoulSocietySBT.sol\":2115:2130  block.timestamp */\n  timestamp\n    /* \"v2/contracts/SoulSocietySBT.sol\":2132:2137  _name */\n  mload(0x40)\n  dup1\n  0x40\n  add\n  0x40\n  mstore\n  dup1\n  0x06\n  dup2\n  mstore\n  0x20\n  add\n  0x484f4e5342540000000000000000000000000000000000000000000000000000\n  dup2\n  mstore\n  pop\n    /* \"v2/contracts/SoulSocietySBT.sol\":2139:2146  _symbol */\n  mload(0x40)\n  dup1\n  0x40\n  add\n  0x40\n  mstore\n  dup1\n  0x06\n  dup2\n  mstore\n  0x20\n  add\n  0x484f4e5342540000000000000000000000000000000000000000000000000000\n  dup2\n  mstore\n  pop\n    /* \"v2/contracts/SoulSocietySBT.sol\":2148:2152  uri_ */\n  dup6\n    /* \"v2/contracts/SoulSocietySBT.sol\":2086:2153  ContractCreated(msg.sender,  block.timestamp, _name, _symbol, uri_) */\n  mload(0x40)\n  tag_14\n  swap5\n  swap4\n  swap3\n  swap2\n  swap1\n  tag_15\n  jump\t// in\ntag_14:\n  mload(0x40)\n  dup1\n  swap2\n  sub\n  swap1\n  log2\n    /* \"v2/contracts/SoulSocietySBT.sol\":2017:2160  constructor(string memory uri_) {... */\n  pop\n    /* \"v2/contracts/SoulSocietySBT.sol\":761:13351  contract SoulSocietySBT is ISoulSocietySBT, ISoulSocietySBTMetadata, ISoulSocietySBTErrors , IERC721, ERC165, Ownable {... */\n  jump(tag_16)\n    /* \"@openzeppelin/contracts/utils/Context.sol\":640:736  function _msgSender() internal view virtual returns (address) {... */\ntag_9:\n    /* \"@openzeppelin/contracts/utils/Context.sol\":693:700  address */\n  0x00\n    /* \"@openzeppelin/contracts/utils/Context.sol\":719:729  msg.sender */\n  caller\n    /* \"@openzeppelin/contracts/utils/Context.sol\":712:729  return msg.sender */\n  swap1\n  pop\n    /* \"@openzeppelin/contracts/utils/Context.sol\":640:736  function _msgSender() internal view virtual returns (address) {... */\n  swap1\n  jump\t// out\n    /* \"@openzeppelin/contracts/access/Ownable.sol\":2426:2613  function _transferOwnership(address newOwner) internal virtual {... */\ntag_10:\n    /* \"@openzeppelin/contracts/access/Ownable.sol\":2499:2515  address oldOwner */\n  0x00\n    /* \"@openzeppelin/contracts/access/Ownable.sol\":2518:2524  _owner */\n  dup1\n  0x00\n  swap1\n  sload\n  swap1\n  0x0100\n  exp\n  swap1\n  div\n  0xffffffffffffffffffffffffffffffffffffffff\n  and\n    /* \"@openzeppelin/contracts/access/Ownable.sol\":2499:2524  address oldOwner = _owner */\n  swap1\n  pop\n    /* \"@openzeppelin/contracts/access/Ownable.sol\":2543:2551  newOwner */\n  dup2\n    /* \"@openzeppelin/contracts/access/Ownable.sol\":2534:2540  _owner */\n  0x00\n  dup1\n    /* \"@openzeppelin/contracts/access/Ownable.sol\":2534:2551  _owner = newOwner */\n  0x0100\n  exp\n  dup2\n  sload\n  dup2\n  0xffffffffffffffffffffffffffffffffffffffff\n  mul\n  not\n  and\n  swap1\n  dup4\n  0xffffffffffffffffffffffffffffffffffffffff\n  and\n  mul\n  or\n  swap1\n  sstore\n  pop\n    /* \"@openzeppelin/contracts/access/Ownable.sol\":2597:2605  newOwner */\n  dup2\n    /* \"@openzeppelin/contracts/access/Ownable.sol\":2566:2606  OwnershipTransferred(oldOwner, newOwner) */\n  0xffffffffffffffffffffffffffffffffffffffff\n  and\n    /* \"@openzeppelin/contracts/access/Ownable.sol\":2587:2595  oldOwner */\n  dup2\n    /* \"@openzeppelin/contracts/access/Ownable.sol\":2566:2606  OwnershipTransferred(oldOwner, newOwner) */\n  0xffffffffffffffffffffffffffffffffffffffff\n  and\n  0x8be0079c531659141344cd1fd0a4f28419497f9722a3daafe3b4186f6b6457e0\n  mload(0x40)\n  mload(0x40)\n  dup1\n  swap2\n  sub\n  swap1\n  log3\n    /* \"@openzeppelin/contracts/access/Ownable.sol\":2489:2613  {... */\n  pop\n    /* \"@openzeppelin/contracts/access/Ownable.sol\":2426:2613  function _transferOwnership(address newOwner) internal virtual {... */\n  pop\n  jump\t// out\n    /* \"#utility.yul\":7:82   */\ntag_19:\n    /* \"#utility.yul\":40:46   */\n  0x00\n    /* \"#utility.yul\":73:75   */\n  0x40\n    /* \"#utility.yul\":67:76   */\n  mload\n    /* \"#utility.yul\":57:76   */\n  swap1\n  pop\n    /* \"#utility.yul\":7:82   */\n  swap1\n  jump\t// out\n    /* \"#utility.yul\":88:205   */\ntag_20:\n    /* \"#utility.yul\":197:198   */\n  0x00\n    /* \"#utility.yul\":194:195   */\n  dup1\n    /* \"#utility.yul\":187:199   */\n  revert\n    /* \"#utility.yul\":211:328   */\ntag_21:\n    /* \"#utility.yul\":320:321   */\n  0x00\n    /* \"#utility.yul\":317:318   */\n  dup1\n    /* \"#utility.yul\":310:322   */\n  revert\n    /* \"#utility.yul\":334:451   */\ntag_22:\n    /* \"#utility.yul\":443:444   */\n  0x00\n    /* \"#utility.yul\":440:441   */\n  dup1\n    /* \"#utility.yul\":433:445   */\n  revert\n    /* \"#utility.yul\":457:574   */\ntag_23:\n    /* \"#utility.yul\":566:567   */\n  0x00\n    /* \"#utility.yul\":563:564   */\n  dup1\n    /* \"#utility.yul\":556:568   */\n  revert\n    /* \"#utility.yul\":580:682   */\ntag_24:\n    /* \"#utility.yul\":621:627   */\n  0x00\n    /* \"#utility.yul\":672:674   */\n  0x1f\n    /* \"#utility.yul\":668:675   */\n  not\n    /* \"#utility.yul\":663:665   */\n  0x1f\n    /* \"#utility.yul\":656:661   */\n  dup4\n    /* \"#utility.yul\":652:666   */\n  add\n    /* \"#utility.yul\":648:676   */\n  and\n    /* \"#utility.yul\":638:676   */\n  swap1\n  pop\n    /* \"#utility.yul\":580:682   */\n  swap2\n  swap1\n  pop\n  jump\t// out\n    /* \"#utility.yul\":688:868   */\ntag_25:\n    /* \"#utility.yul\":736:813   */\n  0x4e487b7100000000000000000000000000000000000000000000000000000000\n    /* \"#utility.yul\":733:734   */\n  0x00\n    /* \"#utility.yul\":726:814   */\n  mstore\n    /* \"#utility.yul\":833:837   */\n  0x41\n    /* \"#utility.yul\":830:831   */\n  0x04\n    /* \"#utility.yul\":823:838   */\n  mstore\n    /* \"#utility.yul\":857:861   */\n  0x24\n    /* \"#utility.yul\":854:855   */\n  0x00\n    /* \"#utility.yul\":847:862   */\n  revert\n    /* \"#utility.yul\":874:1155   */\ntag_26:\n    /* \"#utility.yul\":957:984   */\n  tag_63\n    /* \"#utility.yul\":979:983   */\n  dup3\n    /* \"#utility.yul\":957:984   */\n  tag_24\n  jump\t// in\ntag_63:\n    /* \"#utility.yul\":949:955   */\n  dup2\n    /* \"#utility.yul\":945:985   */\n  add\n    /* \"#utility.yul\":1087:1093   */\n  dup2\n    /* \"#utility.yul\":1075:1085   */\n  dup2\n    /* \"#utility.yul\":1072:1094   */\n  lt\n    /* \"#utility.yul\":1051:1069   */\n  0xffffffffffffffff\n    /* \"#utility.yul\":1039:1049   */\n  dup3\n    /* \"#utility.yul\":1036:1070   */\n  gt\n    /* \"#utility.yul\":1033:1095   */\n  or\n    /* \"#utility.yul\":1030:1118   */\n  iszero\n  tag_64\n  jumpi\n    /* \"#utility.yul\":1098:1116   */\n  tag_65\n  tag_25\n  jump\t// in\ntag_65:\n    /* \"#utility.yul\":1030:1118   */\ntag_64:\n    /* \"#utility.yul\":1138:1148   */\n  dup1\n    /* \"#utility.yul\":1134:1136   */\n  0x40\n    /* \"#utility.yul\":1127:1149   */\n  mstore\n    /* \"#utility.yul\":917:1155   */\n  pop\n    /* \"#utility.yul\":874:1155   */\n  pop\n  pop\n  jump\t// out\n    /* \"#utility.yul\":1161:1290   */\ntag_27:\n    /* \"#utility.yul\":1195:1201   */\n  0x00\n    /* \"#utility.yul\":1222:1242   */\n  tag_67\n  tag_19\n  jump\t// in\ntag_67:\n    /* \"#utility.yul\":1212:1242   */\n  swap1\n  pop\n    /* \"#utility.yul\":1251:1284   */\n  tag_68\n    /* \"#utility.yul\":1279:1283   */\n  dup3\n    /* \"#utility.yul\":1271:1277   */\n  dup3\n    /* \"#utility.yul\":1251:1284   */\n  tag_26\n  jump\t// in\ntag_68:\n    /* \"#utility.yul\":1161:1290   */\n  swap2\n  swap1\n  pop\n  jump\t// out\n    /* \"#utility.yul\":1296:1604   */\ntag_28:\n    /* \"#utility.yul\":1358:1362   */\n  0x00\n    /* \"#utility.yul\":1448:1466   */\n  0xffffffffffffffff\n    /* \"#utility.yul\":1440:1446   */\n  dup3\n    /* \"#utility.yul\":1437:1467   */\n  gt\n    /* \"#utility.yul\":1434:1490   */\n  iszero\n  tag_70\n  jumpi\n    /* \"#utility.yul\":1470:1488   */\n  tag_71\n  tag_25\n  jump\t// in\ntag_71:\n    /* \"#utility.yul\":1434:1490   */\ntag_70:\n    /* \"#utility.yul\":1508:1537   */\n  tag_72\n    /* \"#utility.yul\":1530:1536   */\n  dup3\n    /* \"#utility.yul\":1508:1537   */\n  tag_24\n  jump\t// in\ntag_72:\n    /* \"#utility.yul\":1500:1537   */\n  swap1\n  pop\n    /* \"#utility.yul\":1592:1596   */\n  0x20\n    /* \"#utility.yul\":1586:1590   */\n  dup2\n    /* \"#utility.yul\":1582:1597   */\n  add\n    /* \"#utility.yul\":1574:1597   */\n  swap1\n  pop\n    /* \"#utility.yul\":1296:1604   */\n  swap2\n  swap1\n  pop\n  jump\t// out\n    /* \"#utility.yul\":1610:1856   */\ntag_29:\n    /* \"#utility.yul\":1691:1692   */\n  0x00\n    /* \"#utility.yul\":1701:1814   */\ntag_74:\n    /* \"#utility.yul\":1715:1721   */\n  dup4\n    /* \"#utility.yul\":1712:1713   */\n  dup2\n    /* \"#utility.yul\":1709:1722   */\n  lt\n    /* \"#utility.yul\":1701:1814   */\n  iszero\n  tag_76\n  jumpi\n    /* \"#utility.yul\":1800:1801   */\n  dup1\n    /* \"#utility.yul\":1795:1798   */\n  dup3\n    /* \"#utility.yul\":1791:1802   */\n  add\n    /* \"#utility.yul\":1785:1803   */\n  mload\n    /* \"#utility.yul\":1781:1782   */\n  dup2\n    /* \"#utility.yul\":1776:1779   */\n  dup5\n    /* \"#utility.yul\":1772:1783   */\n  add\n    /* \"#utility.yul\":1765:1804   */\n  mstore\n    /* \"#utility.yul\":1737:1739   */\n  0x20\n    /* \"#utility.yul\":1734:1735   */\n  dup2\n    /* \"#utility.yul\":1730:1740   */\n  add\n    /* \"#utility.yul\":1725:1740   */\n  swap1\n  pop\n    /* \"#utility.yul\":1701:1814   */\n  jump(tag_74)\ntag_76:\n    /* \"#utility.yul\":1848:1849   */\n  0x00\n    /* \"#utility.yul\":1839:1845   */\n  dup5\n    /* \"#utility.yul\":1834:1837   */\n  dup5\n    /* \"#utility.yul\":1830:1846   */\n  add\n    /* \"#utility.yul\":1823:1850   */\n  mstore\n    /* \"#utility.yul\":1672:1856   */\n  pop\n    /* \"#utility.yul\":1610:1856   */\n  pop\n  pop\n  pop\n  jump\t// out\n    /* \"#utility.yul\":1862:2296   */\ntag_30:\n    /* \"#utility.yul\":1951:1956   */\n  0x00\n    /* \"#utility.yul\":1976:2042   */\n  tag_78\n    /* \"#utility.yul\":1992:2041   */\n  tag_79\n    /* \"#utility.yul\":2034:2040   */\n  dup5\n    /* \"#utility.yul\":1992:2041   */\n  tag_28\n  jump\t// in\ntag_79:\n    /* \"#utility.yul\":1976:2042   */\n  tag_27\n  jump\t// in\ntag_78:\n    /* \"#utility.yul\":1967:2042   */\n  swap1\n  pop\n    /* \"#utility.yul\":2065:2071   */\n  dup3\n    /* \"#utility.yul\":2058:2063   */\n  dup2\n    /* \"#utility.yul\":2051:2072   */\n  mstore\n    /* \"#utility.yul\":2103:2107   */\n  0x20\n    /* \"#utility.yul\":2096:2101   */\n  dup2\n    /* \"#utility.yul\":2092:2108   */\n  add\n    /* \"#utility.yul\":2141:2144   */\n  dup5\n    /* \"#utility.yul\":2132:2138   */\n  dup5\n    /* \"#utility.yul\":2127:2130   */\n  dup5\n    /* \"#utility.yul\":2123:2139   */\n  add\n    /* \"#utility.yul\":2120:2145   */\n  gt\n    /* \"#utility.yul\":2117:2229   */\n  iszero\n  tag_80\n  jumpi\n    /* \"#utility.yul\":2148:2227   */\n  tag_81\n  tag_23\n  jump\t// in\ntag_81:\n    /* \"#utility.yul\":2117:2229   */\ntag_80:\n    /* \"#utility.yul\":2238:2290   */\n  tag_82\n    /* \"#utility.yul\":2283:2289   */\n  dup5\n    /* \"#utility.yul\":2278:2281   */\n  dup3\n    /* \"#utility.yul\":2273:2276   */\n  dup6\n    /* \"#utility.yul\":2238:2290   */\n  tag_29\n  jump\t// in\ntag_82:\n    /* \"#utility.yul\":1957:2296   */\n  pop\n    /* \"#utility.yul\":1862:2296   */\n  swap4\n  swap3\n  pop\n  pop\n  pop\n  jump\t// out\n    /* \"#utility.yul\":2316:2671   */\ntag_31:\n    /* \"#utility.yul\":2383:2388   */\n  0x00\n    /* \"#utility.yul\":2432:2435   */\n  dup3\n    /* \"#utility.yul\":2425:2429   */\n  0x1f\n    /* \"#utility.yul\":2417:2423   */\n  dup4\n    /* \"#utility.yul\":2413:2430   */\n  add\n    /* \"#utility.yul\":2409:2436   */\n  slt\n    /* \"#utility.yul\":2399:2521   */\n  tag_84\n  jumpi\n    /* \"#utility.yul\":2440:2519   */\n  tag_85\n  tag_22\n  jump\t// in\ntag_85:\n    /* \"#utility.yul\":2399:2521   */\ntag_84:\n    /* \"#utility.yul\":2550:2556   */\n  dup2\n    /* \"#utility.yul\":2544:2557   */\n  mload\n    /* \"#utility.yul\":2575:2665   */\n  tag_86\n    /* \"#utility.yul\":2661:2664   */\n  dup5\n    /* \"#utility.yul\":2653:2659   */\n  dup3\n    /* \"#utility.yul\":2646:2650   */\n  0x20\n    /* \"#utility.yul\":2638:2644   */\n  dup7\n    /* \"#utility.yul\":2634:2651   */\n  add\n    /* \"#utility.yul\":2575:2665   */\n  tag_30\n  jump\t// in\ntag_86:\n    /* \"#utility.yul\":2566:2665   */\n  swap2\n  pop\n    /* \"#utility.yul\":2389:2671   */\n  pop\n    /* \"#utility.yul\":2316:2671   */\n  swap3\n  swap2\n  pop\n  pop\n  jump\t// out\n    /* \"#utility.yul\":2677:3201   */\ntag_3:\n    /* \"#utility.yul\":2757:2763   */\n  0x00\n    /* \"#utility.yul\":2806:2808   */\n  0x20\n    /* \"#utility.yul\":2794:2803   */\n  dup3\n    /* \"#utility.yul\":2785:2792   */\n  dup5\n    /* \"#utility.yul\":2781:2804   */\n  sub\n    /* \"#utility.yul\":2777:2809   */\n  slt\n    /* \"#utility.yul\":2774:2893   */\n  iszero\n  tag_88\n  jumpi\n    /* \"#utility.yul\":2812:2891   */\n  tag_89\n  tag_20\n  jump\t// in\ntag_89:\n    /* \"#utility.yul\":2774:2893   */\ntag_88:\n    /* \"#utility.yul\":2953:2954   */\n  0x00\n    /* \"#utility.yul\":2942:2951   */\n  dup3\n    /* \"#utility.yul\":2938:2955   */\n  add\n    /* \"#utility.yul\":2932:2956   */\n  mload\n    /* \"#utility.yul\":2983:3001   */\n  0xffffffffffffffff\n    /* \"#utility.yul\":2975:2981   */\n  dup2\n    /* \"#utility.yul\":2972:3002   */\n  gt\n    /* \"#utility.yul\":2969:3086   */\n  iszero\n  tag_90\n  jumpi\n    /* \"#utility.yul\":3005:3084   */\n  tag_91\n  tag_21\n  jump\t// in\ntag_91:\n    /* \"#utility.yul\":2969:3086   */\ntag_90:\n    /* \"#utility.yul\":3110:3184   */\n  tag_92\n    /* \"#utility.yul\":3176:3183   */\n  dup5\n    /* \"#utility.yul\":3167:3173   */\n  dup3\n    /* \"#utility.yul\":3156:3165   */\n  dup6\n    /* \"#utility.yul\":3152:3174   */\n  add\n    /* \"#utility.yul\":3110:3184   */\n  tag_31\n  jump\t// in\ntag_92:\n    /* \"#utility.yul\":3100:3184   */\n  swap2\n  pop\n    /* \"#utility.yul\":2903:3194   */\n  pop\n    /* \"#utility.yul\":2677:3201   */\n  swap3\n  swap2\n  pop\n  pop\n  jump\t// out\n    /* \"#utility.yul\":3207:3306   */\ntag_32:\n    /* \"#utility.yul\":3259:3265   */\n  0x00\n    /* \"#utility.yul\":3293:3298   */\n  dup2\n    /* \"#utility.yul\":3287:3299   */\n  mload\n    /* \"#utility.yul\":3277:3299   */\n  swap1\n  pop\n    /* \"#utility.yul\":3207:3306   */\n  swap2\n  swap1\n  pop\n  jump\t// out\n    /* \"#utility.yul\":3312:3492   */\ntag_33:\n    /* \"#utility.yul\":3360:3437   */\n  0x4e487b7100000000000000000000000000000000000000000000000000000000\n    /* \"#utility.yul\":3357:3358   */\n  0x00\n    /* \"#utility.yul\":3350:3438   */\n  mstore\n    /* \"#utility.yul\":3457:3461   */\n  0x22\n    /* \"#utility.yul\":3454:3455   */\n  0x04\n    /* \"#utility.yul\":3447:3462   */\n  mstore\n    /* \"#utility.yul\":3481:3485   */\n  0x24\n    /* \"#utility.yul\":3478:3479   */\n  0x00\n    /* \"#utility.yul\":3471:3486   */\n  revert\n    /* \"#utility.yul\":3498:3818   */\ntag_34:\n    /* \"#utility.yul\":3542:3548   */\n  0x00\n    /* \"#utility.yul\":3579:3580   */\n  0x02\n    /* \"#utility.yul\":3573:3577   */\n  dup3\n    /* \"#utility.yul\":3569:3581   */\n  div\n    /* \"#utility.yul\":3559:3581   */\n  swap1\n  pop\n    /* \"#utility.yul\":3626:3627   */\n  0x01\n    /* \"#utility.yul\":3620:3624   */\n  dup3\n    /* \"#utility.yul\":3616:3628   */\n  and\n    /* \"#utility.yul\":3647:3665   */\n  dup1\n    /* \"#utility.yul\":3637:3718   */\n  tag_96\n  jumpi\n    /* \"#utility.yul\":3703:3707   */\n  0x7f\n    /* \"#utility.yul\":3695:3701   */\n  dup3\n    /* \"#utility.yul\":3691:3708   */\n  and\n    /* \"#utility.yul\":3681:3708   */\n  swap2\n  pop\n    /* \"#utility.yul\":3637:3718   */\ntag_96:\n    /* \"#utility.yul\":3765:3767   */\n  0x20\n    /* \"#utility.yul\":3757:3763   */\n  dup3\n    /* \"#utility.yul\":3754:3768   */\n  lt\n    /* \"#utility.yul\":3734:3752   */\n  dup2\n    /* \"#utility.yul\":3731:3769   */\n  sub\n    /* \"#utility.yul\":3728:3812   */\n  tag_97\n  jumpi\n    /* \"#utility.yul\":3784:3802   */\n  tag_98\n  tag_33\n  jump\t// in\ntag_98:\n    /* \"#utility.yul\":3728:3812   */\ntag_97:\n    /* \"#utility.yul\":3549:3818   */\n  pop\n    /* \"#utility.yul\":3498:3818   */\n  swap2\n  swap1\n  pop\n  jump\t// out\n    /* \"#utility.yul\":3824:3965   */\ntag_35:\n    /* \"#utility.yul\":3873:3877   */\n  0x00\n    /* \"#utility.yul\":3896:3899   */\n  dup2\n    /* \"#utility.yul\":3888:3899   */\n  swap1\n  pop\n    /* \"#utility.yul\":3919:3922   */\n  dup2\n    /* \"#utility.yul\":3916:3917   */\n  0x00\n    /* \"#utility.yul\":3909:3923   */\n  mstore\n    /* \"#utility.yul\":3953:3957   */\n  0x20\n    /* \"#utility.yul\":3950:3951   */\n  0x00\n    /* \"#utility.yul\":3940:3958   */\n  keccak256\n    /* \"#utility.yul\":3932:3958   */\n  swap1\n  pop\n    /* \"#utility.yul\":3824:3965   */\n  swap2\n  swap1\n  pop\n  jump\t// out\n    /* \"#utility.yul\":3971:4064   */\ntag_36:\n    /* \"#utility.yul\":4008:4014   */\n  0x00\n    /* \"#utility.yul\":4055:4057   */\n  0x20\n    /* \"#utility.yul\":4050:4052   */\n  0x1f\n    /* \"#utility.yul\":4043:4048   */\n  dup4\n    /* \"#utility.yul\":4039:4053   */\n  add\n    /* \"#utility.yul\":4035:4058   */\n  div\n    /* \"#utility.yul\":4025:4058   */\n  swap1\n  pop\n    /* \"#utility.yul\":3971:4064   */\n  swap2\n  swap1\n  pop\n  jump\t// out\n    /* \"#utility.yul\":4070:4177   */\ntag_37:\n    /* \"#utility.yul\":4114:4122   */\n  0x00\n    /* \"#utility.yul\":4164:4169   */\n  dup3\n    /* \"#utility.yul\":4158:4162   */\n  dup3\n    /* \"#utility.yul\":4154:4170   */\n  shl\n    /* \"#utility.yul\":4133:4170   */\n  swap1\n  pop\n    /* \"#utility.yul\":4070:4177   */\n  swap3\n  swap2\n  pop\n  pop\n  jump\t// out\n    /* \"#utility.yul\":4183:4576   */\ntag_38:\n    /* \"#utility.yul\":4252:4258   */\n  0x00\n    /* \"#utility.yul\":4302:4303   */\n  0x08\n    /* \"#utility.yul\":4290:4300   */\n  dup4\n    /* \"#utility.yul\":4286:4304   */\n  mul\n    /* \"#utility.yul\":4325:4422   */\n  tag_103\n    /* \"#utility.yul\":4355:4421   */\n  0xffffffffffffffffffffffffffffffffffffffffffffffffffffffffffffffff\n    /* \"#utility.yul\":4344:4353   */\n  dup3\n    /* \"#utility.yul\":4325:4422   */\n  tag_37\n  jump\t// in\ntag_103:\n    /* \"#utility.yul\":4443:4482   */\n  tag_104\n    /* \"#utility.yul\":4473:4481   */\n  dup7\n    /* \"#utility.yul\":4462:4471   */\n  dup4\n    /* \"#utility.yul\":4443:4482   */\n  tag_37\n  jump\t// in\ntag_104:\n    /* \"#utility.yul\":4431:4482   */\n  swap6\n  pop\n    /* \"#utility.yul\":4515:4519   */\n  dup1\n    /* \"#utility.yul\":4511:4520   */\n  not\n    /* \"#utility.yul\":4504:4509   */\n  dup5\n    /* \"#utility.yul\":4500:4521   */\n  and\n    /* \"#utility.yul\":4491:4521   */\n  swap4\n  pop\n    /* \"#utility.yul\":4564:4568   */\n  dup1\n    /* \"#utility.yul\":4554:4562   */\n  dup7\n    /* \"#utility.yul\":4550:4569   */\n  and\n    /* \"#utility.yul\":4543:4548   */\n  dup5\n    /* \"#utility.yul\":4540:4570   */\n  or\n    /* \"#utility.yul\":4530:4570   */\n  swap3\n  pop\n    /* \"#utility.yul\":4259:4576   */\n  pop\n  pop\n    /* \"#utility.yul\":4183:4576   */\n  swap4\n  swap3\n  pop\n  pop\n  pop\n  jump\t// out\n    /* \"#utility.yul\":4582:4659   */\ntag_39:\n    /* \"#utility.yul\":4619:4626   */\n  0x00\n    /* \"#utility.yul\":4648:4653   */\n  dup2\n    /* \"#utility.yul\":4637:4653   */\n  swap1\n  pop\n    /* \"#utility.yul\":4582:4659   */\n  swap2\n  swap1\n  pop\n  jump\t// out\n    /* \"#utility.yul\":4665:4725   */\ntag_40:\n    /* \"#utility.yul\":4693:4696   */\n  0x00\n    /* \"#utility.yul\":4714:4719   */\n  dup2\n    /* \"#utility.yul\":4707:4719   */\n  swap1\n  pop\n    /* \"#utility.yul\":4665:4725   */\n  swap2\n  swap1\n  pop\n  jump\t// out\n    /* \"#utility.yul\":4731:4873   */\ntag_41:\n    /* \"#utility.yul\":4781:4790   */\n  0x00\n    /* \"#utility.yul\":4814:4867   */\n  tag_108\n    /* \"#utility.yul\":4832:4866   */\n  tag_109\n    /* \"#utility.yul\":4841:4865   */\n  tag_110\n    /* \"#utility.yul\":4859:4864   */\n  dup5\n    /* \"#utility.yul\":4841:4865   */\n  tag_39\n  jump\t// in\ntag_110:\n    /* \"#utility.yul\":4832:4866   */\n  tag_40\n  jump\t// in\ntag_109:\n    /* \"#utility.yul\":4814:4867   */\n  tag_39\n  jump\t// in\ntag_108:\n    /* \"#utility.yul\":4801:4867   */\n  swap1\n  pop\n    /* \"#utility.yul\":4731:4873   */\n  swap2\n  swap1\n  pop\n  jump\t// out\n    /* \"#utility.yul\":4879:4954   */\ntag_42:\n    /* \"#utility.yul\":4922:4925   */\n  0x00\n    /* \"#utility.yul\":4943:4948   */\n  dup2\n    /* \"#utility.yul\":4936:4948   */\n  swap1\n  pop\n    /* \"#utility.yul\":4879:4954   */\n  swap2\n  swap1\n  pop\n  jump\t// out\n    /* \"#utility.yul\":4960:5229   */\ntag_43:\n    /* \"#utility.yul\":5070:5109   */\n  tag_113\n    /* \"#utility.yul\":5101:5108   */\n  dup4\n    /* \"#utility.yul\":5070:5109   */\n  tag_41\n  jump\t// in\ntag_113:\n    /* \"#utility.yul\":5131:5222   */\n  tag_114\n    /* \"#utility.yul\":5180:5221   */\n  tag_115\n    /* \"#utility.yul\":5204:5220   */\n  dup3\n    /* \"#utility.yul\":5180:5221   */\n  tag_42\n  jump\t// in\ntag_115:\n    /* \"#utility.yul\":5172:5178   */\n  dup5\n    /* \"#utility.yul\":5165:5169   */\n  dup5\n    /* \"#utility.yul\":5159:5170   */\n  sload\n    /* \"#utility.yul\":5131:5222   */\n  tag_38\n  jump\t// in\ntag_114:\n    /* \"#utility.yul\":5125:5129   */\n  dup3\n    /* \"#utility.yul\":5118:5223   */\n  sstore\n    /* \"#utility.yul\":5036:5229   */\n  pop\n    /* \"#utility.yul\":4960:5229   */\n  pop\n  pop\n  pop\n  jump\t// out\n    /* \"#utility.yul\":5235:5308   */\ntag_44:\n    /* \"#utility.yul\":5280:5283   */\n  0x00\n    /* \"#utility.yul\":5235:5308   */\n  swap1\n  jump\t// out\n    /* \"#utility.yul\":5314:5503   */\ntag_45:\n    /* \"#utility.yul\":5391:5423   */\n  tag_118\n  tag_44\n  jump\t// in\ntag_118:\n    /* \"#utility.yul\":5432:5497   */\n  tag_119\n    /* \"#utility.yul\":5490:5496   */\n  dup2\n    /* \"#utility.yul\":5482:5488   */\n  dup5\n    /* \"#utility.yul\":5476:5480   */\n  dup5\n    /* \"#utility.yul\":5432:5497   */\n  tag_43\n  jump\t// in\ntag_119:\n    /* \"#utility.yul\":5367:5503   */\n  pop\n    /* \"#utility.yul\":5314:5503   */\n  pop\n  pop\n  jump\t// out\n    /* \"#utility.yul\":5509:5695   */\ntag_46:\n    /* \"#utility.yul\":5569:5689   */\ntag_121:\n    /* \"#utility.yul\":5586:5589   */\n  dup2\n    /* \"#utility.yul\":5579:5584   */\n  dup2\n    /* \"#utility.yul\":5576:5590   */\n  lt\n    /* \"#utility.yul\":5569:5689   */\n  iszero\n  tag_123\n  jumpi\n    /* \"#utility.yul\":5640:5679   */\n  tag_124\n    /* \"#utility.yul\":5677:5678   */\n  0x00\n    /* \"#utility.yul\":5670:5675   */\n  dup3\n    /* \"#utility.yul\":5640:5679   */\n  tag_45\n  jump\t// in\ntag_124:\n    /* \"#utility.yul\":5613:5614   */\n  0x01\n    /* \"#utility.yul\":5606:5611   */\n  dup2\n    /* \"#utility.yul\":5602:5615   */\n  add\n    /* \"#utility.yul\":5593:5615   */\n  swap1\n  pop\n    /* \"#utility.yul\":5569:5689   */\n  jump(tag_121)\ntag_123:\n    /* \"#utility.yul\":5509:5695   */\n  pop\n  pop\n  jump\t// out\n    /* \"#utility.yul\":5701:6244   */\ntag_47:\n    /* \"#utility.yul\":5802:5804   */\n  0x1f\n    /* \"#utility.yul\":5797:5800   */\n  dup3\n    /* \"#utility.yul\":5794:5805   */\n  gt\n    /* \"#utility.yul\":5791:6237   */\n  iszero\n  tag_126\n  jumpi\n    /* \"#utility.yul\":5836:5874   */\n  tag_127\n    /* \"#utility.yul\":5868:5873   */\n  dup2\n    /* \"#utility.yul\":5836:5874   */\n  tag_35\n  jump\t// in\ntag_127:\n    /* \"#utility.yul\":5920:5949   */\n  tag_128\n    /* \"#utility.yul\":5938:5948   */\n  dup5\n    /* \"#utility.yul\":5920:5949   */\n  tag_36\n  jump\t// in\ntag_128:\n    /* \"#utility.yul\":5910:5918   */\n  dup2\n    /* \"#utility.yul\":5906:5950   */\n  add\n    /* \"#utility.yul\":6103:6105   */\n  0x20\n    /* \"#utility.yul\":6091:6101   */\n  dup6\n    /* \"#utility.yul\":6088:6106   */\n  lt\n    /* \"#utility.yul\":6085:6134   */\n  iszero\n  tag_129\n  jumpi\n    /* \"#utility.yul\":6124:6132   */\n  dup2\n    /* \"#utility.yul\":6109:6132   */\n  swap1\n  pop\n    /* \"#utility.yul\":6085:6134   */\ntag_129:\n    /* \"#utility.yul\":6147:6227   */\n  tag_130\n    /* \"#utility.yul\":6203:6225   */\n  tag_131\n    /* \"#utility.yul\":6221:6224   */\n  dup6\n    /* \"#utility.yul\":6203:6225   */\n  tag_36\n  jump\t// in\ntag_131:\n    /* \"#utility.yul\":6193:6201   */\n  dup4\n    /* \"#utility.yul\":6189:6226   */\n  add\n    /* \"#utility.yul\":6176:6187   */\n  dup3\n    /* \"#utility.yul\":6147:6227   */\n  tag_46\n  jump\t// in\ntag_130:\n    /* \"#utility.yul\":5806:6237   */\n  pop\n  pop\n    /* \"#utility.yul\":5791:6237   */\ntag_126:\n    /* \"#utility.yul\":5701:6244   */\n  pop\n  pop\n  pop\n  jump\t// out\n    /* \"#utility.yul\":6250:6367   */\ntag_48:\n    /* \"#utility.yul\":6304:6312   */\n  0x00\n    /* \"#utility.yul\":6354:6359   */\n  dup3\n    /* \"#utility.yul\":6348:6352   */\n  dup3\n    /* \"#utility.yul\":6344:6360   */\n  shr\n    /* \"#utility.yul\":6323:6360   */\n  swap1\n  pop\n    /* \"#utility.yul\":6250:6367   */\n  swap3\n  swap2\n  pop\n  pop\n  jump\t// out\n    /* \"#utility.yul\":6373:6542   */\ntag_49:\n    /* \"#utility.yul\":6417:6423   */\n  0x00\n    /* \"#utility.yul\":6450:6501   */\n  tag_134\n    /* \"#utility.yul\":6498:6499   */\n  0x00\n    /* \"#utility.yul\":6494:6500   */\n  not\n    /* \"#utility.yul\":6486:6491   */\n  dup5\n    /* \"#utility.yul\":6483:6484   */\n  0x08\n    /* \"#utility.yul\":6479:6492   */\n  mul\n    /* \"#utility.yul\":6450:6501   */\n  tag_48\n  jump\t// in\ntag_134:\n    /* \"#utility.yul\":6446:6502   */\n  not\n    /* \"#utility.yul\":6531:6535   */\n  dup1\n    /* \"#utility.yul\":6525:6529   */\n  dup4\n    /* \"#utility.yul\":6521:6536   */\n  and\n    /* \"#utility.yul\":6511:6536   */\n  swap2\n  pop\n    /* \"#utility.yul\":6424:6542   */\n  pop\n    /* \"#utility.yul\":6373:6542   */\n  swap3\n  swap2\n  pop\n  pop\n  jump\t// out\n    /* \"#utility.yul\":6547:6842   */\ntag_50:\n    /* \"#utility.yul\":6623:6627   */\n  0x00\n    /* \"#utility.yul\":6769:6798   */\n  tag_136\n    /* \"#utility.yul\":6794:6797   */\n  dup4\n    /* \"#utility.yul\":6788:6792   */\n  dup4\n    /* \"#utility.yul\":6769:6798   */\n  tag_49\n  jump\t// in\ntag_136:\n    /* \"#utility.yul\":6761:6798   */\n  swap2\n  pop\n    /* \"#utility.yul\":6831:6834   */\n  dup3\n    /* \"#utility.yul\":6828:6829   */\n  0x02\n    /* \"#utility.yul\":6824:6835   */\n  mul\n    /* \"#utility.yul\":6818:6822   */\n  dup3\n    /* \"#utility.yul\":6815:6836   */\n  or\n    /* \"#utility.yul\":6807:6836   */\n  swap1\n  pop\n    /* \"#utility.yul\":6547:6842   */\n  swap3\n  swap2\n  pop\n  pop\n  jump\t// out\n    /* \"#utility.yul\":6847:8242   */\ntag_13:\n    /* \"#utility.yul\":6964:7001   */\n  tag_138\n    /* \"#utility.yul\":6997:7000   */\n  dup3\n    /* \"#utility.yul\":6964:7001   */\n  tag_32\n  jump\t// in\ntag_138:\n    /* \"#utility.yul\":7066:7084   */\n  0xffffffffffffffff\n    /* \"#utility.yul\":7058:7064   */\n  dup2\n    /* \"#utility.yul\":7055:7085   */\n  gt\n    /* \"#utility.yul\":7052:7108   */\n  iszero\n  tag_139\n  jumpi\n    /* \"#utility.yul\":7088:7106   */\n  tag_140\n  tag_25\n  jump\t// in\ntag_140:\n    /* \"#utility.yul\":7052:7108   */\ntag_139:\n    /* \"#utility.yul\":7132:7170   */\n  tag_141\n    /* \"#utility.yul\":7164:7168   */\n  dup3\n    /* \"#utility.yul\":7158:7169   */\n  sload\n    /* \"#utility.yul\":7132:7170   */\n  tag_34\n  jump\t// in\ntag_141:\n    /* \"#utility.yul\":7217:7284   */\n  tag_142\n    /* \"#utility.yul\":7277:7283   */\n  dup3\n    /* \"#utility.yul\":7269:7275   */\n  dup3\n    /* \"#utility.yul\":7263:7267   */\n  dup6\n    /* \"#utility.yul\":7217:7284   */\n  tag_47\n  jump\t// in\ntag_142:\n    /* \"#utility.yul\":7311:7312   */\n  0x00\n    /* \"#utility.yul\":7335:7339   */\n  0x20\n    /* \"#utility.yul\":7322:7339   */\n  swap1\n  pop\n    /* \"#utility.yul\":7367:7369   */\n  0x1f\n    /* \"#utility.yul\":7359:7365   */\n  dup4\n    /* \"#utility.yul\":7356:7370   */\n  gt\n    /* \"#utility.yul\":7384:7385   */\n  0x01\n    /* \"#utility.yul\":7379:7997   */\n  dup2\n  eq\n  tag_144\n  jumpi\n    /* \"#utility.yul\":8041:8042   */\n  0x00\n    /* \"#utility.yul\":8058:8064   */\n  dup5\n    /* \"#utility.yul\":8055:8132   */\n  iszero\n  tag_145\n  jumpi\n    /* \"#utility.yul\":8107:8116   */\n  dup3\n    /* \"#utility.yul\":8102:8105   */\n  dup8\n    /* \"#utility.yul\":8098:8117   */\n  add\n    /* \"#utility.yul\":8092:8118   */\n  mload\n    /* \"#utility.yul\":8083:8118   */\n  swap1\n  pop\n    /* \"#utility.yul\":8055:8132   */\ntag_145:\n    /* \"#utility.yul\":8158:8225   */\n  tag_146\n    /* \"#utility.yul\":8218:8224   */\n  dup6\n    /* \"#utility.yul\":8211:8216   */\n  dup3\n    /* \"#utility.yul\":8158:8225   */\n  tag_50\n  jump\t// in\ntag_146:\n    /* \"#utility.yul\":8152:8156   */\n  dup7\n    /* \"#utility.yul\":8145:8226   */\n  sstore\n    /* \"#utility.yul\":8014:8236   */\n  pop\n    /* \"#utility.yul\":7349:8236   */\n  jump(tag_143)\n    /* \"#utility.yul\":7379:7997   */\ntag_144:\n    /* \"#utility.yul\":7431:7435   */\n  0x1f\n    /* \"#utility.yul\":7427:7436   */\n  not\n    /* \"#utility.yul\":7419:7425   */\n  dup5\n    /* \"#utility.yul\":7415:7437   */\n  and\n    /* \"#utility.yul\":7465:7502   */\n  tag_147\n    /* \"#utility.yul\":7497:7501   */\n  dup7\n    /* \"#utility.yul\":7465:7502   */\n  tag_35\n  jump\t// in\ntag_147:\n    /* \"#utility.yul\":7524:7525   */\n  0x00\n    /* \"#utility.yul\":7538:7746   */\ntag_148:\n    /* \"#utility.yul\":7552:7559   */\n  dup3\n    /* \"#utility.yul\":7549:7550   */\n  dup2\n    /* \"#utility.yul\":7546:7560   */\n  lt\n    /* \"#utility.yul\":7538:7746   */\n  iszero\n  tag_150\n  jumpi\n    /* \"#utility.yul\":7631:7640   */\n  dup5\n    /* \"#utility.yul\":7626:7629   */\n  dup10\n    /* \"#utility.yul\":7622:7641   */\n  add\n    /* \"#utility.yul\":7616:7642   */\n  mload\n    /* \"#utility.yul\":7608:7614   */\n  dup3\n    /* \"#utility.yul\":7601:7643   */\n  sstore\n    /* \"#utility.yul\":7682:7683   */\n  0x01\n    /* \"#utility.yul\":7674:7680   */\n  dup3\n    /* \"#utility.yul\":7670:7684   */\n  add\n    /* \"#utility.yul\":7660:7684   */\n  swap2\n  pop\n    /* \"#utility.yul\":7729:7731   */\n  0x20\n    /* \"#utility.yul\":7718:7727   */\n  dup6\n    /* \"#utility.yul\":7714:7732   */\n  add\n    /* \"#utility.yul\":7701:7732   */\n  swap5\n  pop\n    /* \"#utility.yul\":7575:7579   */\n  0x20\n    /* \"#utility.yul\":7572:7573   */\n  dup2\n    /* \"#utility.yul\":7568:7580   */\n  add\n    /* \"#utility.yul\":7563:7580   */\n  swap1\n  pop\n    /* \"#utility.yul\":7538:7746   */\n  jump(tag_148)\ntag_150:\n    /* \"#utility.yul\":7774:7780   */\n  dup7\n    /* \"#utility.yul\":7765:7772   */\n  dup4\n    /* \"#utility.yul\":7762:7781   */\n  lt\n    /* \"#utility.yul\":7759:7938   */\n  iszero\n  tag_151\n  jumpi\n    /* \"#utility.yul\":7832:7841   */\n  dup5\n    /* \"#utility.yul\":7827:7830   */\n  dup10\n    /* \"#utility.yul\":7823:7842   */\n  add\n    /* \"#utility.yul\":7817:7843   */\n  mload\n    /* \"#utility.yul\":7875:7923   */\n  tag_152\n    /* \"#utility.yul\":7917:7921   */\n  0x1f\n    /* \"#utility.yul\":7909:7915   */\n  dup10\n    /* \"#utility.yul\":7905:7922   */\n  and\n    /* \"#utility.yul\":7894:7903   */\n  dup3\n    /* \"#utility.yul\":7875:7923   */\n  tag_49\n  jump\t// in\ntag_152:\n    /* \"#utility.yul\":7867:7873   */\n  dup4\n    /* \"#utility.yul\":7860:7924   */\n  sstore\n    /* \"#utility.yul\":7782:7938   */\n  pop\n    /* \"#utility.yul\":7759:7938   */\ntag_151:\n    /* \"#utility.yul\":7984:7985   */\n  0x01\n    /* \"#utility.yul\":7980:7981   */\n  0x02\n    /* \"#utility.yul\":7972:7978   */\n  dup9\n    /* \"#utility.yul\":7968:7982   */\n  mul\n    /* \"#utility.yul\":7964:7986   */\n  add\n    /* \"#utility.yul\":7958:7962   */\n  dup9\n    /* \"#utility.yul\":7951:7987   */\n  sstore\n    /* \"#utility.yul\":7386:7997   */\n  pop\n  pop\n  pop\n    /* \"#utility.yul\":7349:8236   */\ntag_143:\n  pop\n    /* \"#utility.yul\":6939:8242   */\n  pop\n  pop\n  pop\n    /* \"#utility.yul\":6847:8242   */\n  pop\n  pop\n  jump\t// out\n    /* \"#utility.yul\":8248:8366   */\ntag_51:\n    /* \"#utility.yul\":8335:8359   */\n  tag_154\n    /* \"#utility.yul\":8353:8358   */\n  dup2\n    /* \"#utility.yul\":8335:8359   */\n  tag_39\n  jump\t// in\ntag_154:\n    /* \"#utility.yul\":8330:8333   */\n  dup3\n    /* \"#utility.yul\":8323:8360   */\n  mstore\n    /* \"#utility.yul\":8248:8366   */\n  pop\n  pop\n  jump\t// out\n    /* \"#utility.yul\":8372:8541   */\ntag_52:\n    /* \"#utility.yul\":8456:8467   */\n  0x00\n    /* \"#utility.yul\":8490:8496   */\n  dup3\n    /* \"#utility.yul\":8485:8488   */\n  dup3\n    /* \"#utility.yul\":8478:8497   */\n  mstore\n    /* \"#utility.yul\":8530:8534   */\n  0x20\n    /* \"#utility.yul\":8525:8528   */\n  dup3\n    /* \"#utility.yul\":8521:8535   */\n  add\n    /* \"#utility.yul\":8506:8535   */\n  swap1\n  pop\n    /* \"#utility.yul\":8372:8541   */\n  swap3\n  swap2\n  pop\n  pop\n  jump\t// out\n    /* \"#utility.yul\":8547:8924   */\ntag_53:\n    /* \"#utility.yul\":8635:8638   */\n  0x00\n    /* \"#utility.yul\":8663:8702   */\n  tag_157\n    /* \"#utility.yul\":8696:8701   */\n  dup3\n    /* \"#utility.yul\":8663:8702   */\n  tag_32\n  jump\t// in\ntag_157:\n    /* \"#utility.yul\":8718:8789   */\n  tag_158\n    /* \"#utility.yul\":8782:8788   */\n  dup2\n    /* \"#utility.yul\":8777:8780   */\n  dup6\n    /* \"#utility.yul\":8718:8789   */\n  tag_52\n  jump\t// in\ntag_158:\n    /* \"#utility.yul\":8711:8789   */\n  swap4\n  pop\n    /* \"#utility.yul\":8798:8863   */\n  tag_159\n    /* \"#utility.yul\":8856:8862   */\n  dup2\n    /* \"#utility.yul\":8851:8854   */\n  dup6\n    /* \"#utility.yul\":8844:8848   */\n  0x20\n    /* \"#utility.yul\":8837:8842   */\n  dup7\n    /* \"#utility.yul\":8833:8849   */\n  add\n    /* \"#utility.yul\":8798:8863   */\n  tag_29\n  jump\t// in\ntag_159:\n    /* \"#utility.yul\":8888:8917   */\n  tag_160\n    /* \"#utility.yul\":8910:8916   */\n  dup2\n    /* \"#utility.yul\":8888:8917   */\n  tag_24\n  jump\t// in\ntag_160:\n    /* \"#utility.yul\":8883:8886   */\n  dup5\n    /* \"#utility.yul\":8879:8918   */\n  add\n    /* \"#utility.yul\":8872:8918   */\n  swap2\n  pop\n    /* \"#utility.yul\":8639:8924   */\n  pop\n    /* \"#utility.yul\":8547:8924   */\n  swap3\n  swap2\n  pop\n  pop\n  jump\t// out\n    /* \"#utility.yul\":8930:9756   */\ntag_15:\n    /* \"#utility.yul\":9167:9171   */\n  0x00\n    /* \"#utility.yul\":9205:9208   */\n  0x80\n    /* \"#utility.yul\":9194:9203   */\n  dup3\n    /* \"#utility.yul\":9190:9209   */\n  add\n    /* \"#utility.yul\":9182:9209   */\n  swap1\n  pop\n    /* \"#utility.yul\":9219:9290   */\n  tag_162\n    /* \"#utility.yul\":9287:9288   */\n  0x00\n    /* \"#utility.yul\":9276:9285   */\n  dup4\n    /* \"#utility.yul\":9272:9289   */\n  add\n    /* \"#utility.yul\":9263:9269   */\n  dup8\n    /* \"#utility.yul\":9219:9290   */\n  tag_51\n  jump\t// in\ntag_162:\n    /* \"#utility.yul\":9337:9346   */\n  dup2\n    /* \"#utility.yul\":9331:9335   */\n  dup2\n    /* \"#utility.yul\":9327:9347   */\n  sub\n    /* \"#utility.yul\":9322:9324   */\n  0x20\n    /* \"#utility.yul\":9311:9320   */\n  dup4\n    /* \"#utility.yul\":9307:9325   */\n  add\n    /* \"#utility.yul\":9300:9348   */\n  mstore\n    /* \"#utility.yul\":9365:9443   */\n  tag_163\n    /* \"#utility.yul\":9438:9442   */\n  dup2\n    /* \"#utility.yul\":9429:9435   */\n  dup7\n    /* \"#utility.yul\":9365:9443   */\n  tag_53\n  jump\t// in\ntag_163:\n    /* \"#utility.yul\":9357:9443   */\n  swap1\n  pop\n    /* \"#utility.yul\":9490:9499   */\n  dup2\n    /* \"#utility.yul\":9484:9488   */\n  dup2\n    /* \"#utility.yul\":9480:9500   */\n  sub\n    /* \"#utility.yul\":9475:9477   */\n  0x40\n    /* \"#utility.yul\":9464:9473   */\n  dup4\n    /* \"#utility.yul\":9460:9478   */\n  add\n    /* \"#utility.yul\":9453:9501   */\n  mstore\n    /* \"#utility.yul\":9518:9596   */\n  tag_164\n    /* \"#utility.yul\":9591:9595   */\n  dup2\n    /* \"#utility.yul\":9582:9588   */\n  dup6\n    /* \"#utility.yul\":9518:9596   */\n  tag_53\n  jump\t// in\ntag_164:\n    /* \"#utility.yul\":9510:9596   */\n  swap1\n  pop\n    /* \"#utility.yul\":9643:9652   */\n  dup2\n    /* \"#utility.yul\":9637:9641   */\n  dup2\n    /* \"#utility.yul\":9633:9653   */\n  sub\n    /* \"#utility.yul\":9628:9630   */\n  0x60\n    /* \"#utility.yul\":9617:9626   */\n  dup4\n    /* \"#utility.yul\":9613:9631   */\n  add\n    /* \"#utility.yul\":9606:9654   */\n  mstore\n    /* \"#utility.yul\":9671:9749   */\n  tag_165\n    /* \"#utility.yul\":9744:9748   */\n  dup2\n    /* \"#utility.yul\":9735:9741   */\n  dup5\n    /* \"#utility.yul\":9671:9749   */\n  tag_53\n  jump\t// in\ntag_165:\n    /* \"#utility.yul\":9663:9749   */\n  swap1\n  pop\n    /* \"#utility.yul\":8930:9756   */\n  swap6\n  swap5\n  pop\n  pop\n  pop\n  pop\n  pop\n  jump\t// out\n    /* \"v2/contracts/SoulSocietySBT.sol\":761:13351  contract SoulSocietySBT is ISoulSocietySBT, ISoulSocietySBTMetadata, ISoulSocietySBTErrors , IERC721, ERC165, Ownable {... */\ntag_16:\n  dataSize(sub_0)\n  dup1\n  dataOffset(sub_0)\n  0x00\n  codecopy\n  0x00\n  return\nstop\n\nsub_0: assembly {\n        /* \"v2/contracts/SoulSocietySBT.sol\":761:13351  contract SoulSocietySBT is ISoulSocietySBT, ISoulSocietySBTMetadata, ISoulSocietySBTErrors , IERC721, ERC165, Ownable {... */\n      mstore(0x40, 0x80)\n      callvalue\n      dup1\n      iszero\n      tag_1\n      jumpi\n      0x00\n      dup1\n      revert\n    tag_1:\n      pop\n      jumpi(tag_2, lt(calldatasize, 0x04))\n      shr(0xe0, calldataload(0x00))\n      dup1\n      0x76aed2e1\n      gt\n      tag_32\n      jumpi\n      dup1\n      0xbe37e907\n      gt\n      tag_33\n      jumpi\n      dup1\n      0xe1604b70\n      gt\n      tag_34\n      jumpi\n      dup1\n      0xe1604b70\n      eq\n      tag_28\n      jumpi\n      dup1\n      0xe985e9c5\n      eq\n      tag_29\n      jumpi\n      dup1\n      0xf2fde38b\n      eq\n      tag_30\n      jumpi\n      dup1\n      0xf3ba5946\n      eq\n      tag_31\n      jumpi\n      jump(tag_2)\n    tag_34:\n      dup1\n      0xbe37e907\n      eq\n      tag_24\n      jumpi\n      dup1\n      0xc87b56dd\n      eq\n      tag_25\n      jumpi\n      dup1\n      0xce35de95\n      eq\n      tag_26\n      jumpi\n      dup1\n      0xe0df5b6f\n      eq\n      tag_27\n      jumpi\n      jump(tag_2)\n    tag_33:\n      dup1\n      0x95d89b41\n      gt\n      tag_35\n      jumpi\n      dup1\n      0x95d89b41\n      eq\n      tag_20\n      jumpi\n      dup1\n      0x9b252852\n      eq\n      tag_21\n      jumpi\n      dup1\n      0xa22cb465\n      eq\n      tag_22\n      jumpi\n      dup1\n      0xb88d4fde\n      eq\n      tag_23\n      jumpi\n      jump(tag_2)\n    tag_35:\n      dup1\n      0x76aed2e1\n      eq\n      tag_17\n      jumpi\n      dup1\n      0x8c10081f\n      eq\n      tag_18\n      jumpi\n      dup1\n      0x8da5cb5b\n      eq\n      tag_19\n      jumpi\n      jump(tag_2)\n    tag_32:\n      dup1\n      0x2f745c59\n      gt\n      tag_36\n      jumpi\n      dup1\n      0x51c18e0c\n      gt\n      tag_37\n      jumpi\n      dup1\n      0x51c18e0c\n      eq\n      tag_13\n      jumpi\n      dup1\n      0x6352211e\n      eq\n      tag_14\n      jumpi\n      dup1\n      0x70a08231\n      eq\n      tag_15\n      jumpi\n      dup1\n      0x715018a6\n      eq\n      tag_16\n      jumpi\n      jump(tag_2)\n    tag_37:\n      dup1\n      0x2f745c59\n      eq\n      tag_10\n      jumpi\n      dup1\n      0x40c10f19\n      eq\n      tag_11\n      jumpi\n      dup1\n      0x42842e0e\n      eq\n      tag_12\n      jumpi\n      jump(tag_2)\n    tag_36:\n      dup1\n      0x095ea7b3\n      gt\n      tag_38\n      jumpi\n      dup1\n      0x095ea7b3\n      eq\n      tag_6\n      jumpi\n      dup1\n      0x18160ddd\n      eq\n      tag_7\n      jumpi\n      dup1\n      0x1c02bc31\n      eq\n      tag_8\n      jumpi\n      dup1\n      0x23b872dd\n      eq\n      tag_9\n      jumpi\n      jump(tag_2)\n    tag_38:\n      dup1\n      0x01ffc9a7\n      eq\n      tag_3\n      jumpi\n      dup1\n      0x06fdde03\n      eq\n      tag_4\n      jumpi\n      dup1\n      0x081812fc\n      eq\n      tag_5\n      jumpi\n    tag_2:\n      0x00\n      dup1\n      revert\n        /* \"v2/contracts/SoulSocietySBT.sol\":8329:8566  function supportsInterface(bytes4 interfaceId) public view virtual override(ERC165, IERC165) returns (bool) {... */\n    tag_3:\n      tag_39\n      0x04\n      dup1\n      calldatasize\n      sub\n      dup2\n      add\n      swap1\n      tag_40\n      swap2\n      swap1\n      tag_41\n      jump\t// in\n    tag_40:\n      tag_42\n      jump\t// in\n    tag_39:\n      mload(0x40)\n      tag_43\n      swap2\n      swap1\n      tag_44\n      jump\t// in\n    tag_43:\n      mload(0x40)\n      dup1\n      swap2\n      sub\n      swap1\n      return\n        /* \"v2/contracts/SoulSocietySBT.sol\":4498:4589  function name() external pure virtual returns (string memory) {... */\n    tag_4:\n      tag_45\n      tag_46\n      jump\t// in\n    tag_45:\n      mload(0x40)\n      tag_47\n      swap2\n      swap1\n      tag_48\n      jump\t// in\n    tag_47:\n      mload(0x40)\n      dup1\n      swap2\n      sub\n      swap1\n      return\n        /* \"v2/contracts/SoulSocietySBT.sol\":7981:8111  function getApproved(uint256 ) external pure returns (address )  {... */\n    tag_5:\n      tag_49\n      0x04\n      dup1\n      calldatasize\n      sub\n      dup2\n      add\n      swap1\n      tag_50\n      swap2\n      swap1\n      tag_51\n      jump\t// in\n    tag_50:\n      tag_52\n      jump\t// in\n    tag_49:\n      mload(0x40)\n      tag_53\n      swap2\n      swap1\n      tag_54\n      jump\t// in\n    tag_53:\n      mload(0x40)\n      dup1\n      swap2\n      sub\n      swap1\n      return\n        /* \"v2/contracts/SoulSocietySBT.sol\":7729:7840  function approve(address , uint256 ) external pure{... */\n    tag_6:\n      tag_55\n      0x04\n      dup1\n      calldatasize\n      sub\n      dup2\n      add\n      swap1\n      tag_56\n      swap2\n      swap1\n      tag_57\n      jump\t// in\n    tag_56:\n      tag_58\n      jump\t// in\n    tag_55:\n      stop\n        /* \"v2/contracts/SoulSocietySBT.sol\":5224:5315  function totalSupply() external view  returns (uint256) {... */\n    tag_7:\n      tag_59\n      tag_60\n      jump\t// in\n    tag_59:\n      mload(0x40)\n      tag_61\n      swap2\n      swap1\n      tag_62\n      jump\t// in\n    tag_61:\n      mload(0x40)\n      dup1\n      swap2\n      sub\n      swap1\n      return\n        /* \"v2/contracts/SoulSocietySBT.sol\":2827:3104  function setProtected( bool isProtected_) external  returns (bool) {... */\n    tag_8:\n      tag_63\n      0x04\n      dup1\n      calldatasize\n      sub\n      dup2\n      add\n      swap1\n      tag_64\n      swap2\n      swap1\n      tag_65\n      jump\t// in\n    tag_64:\n      tag_66\n      jump\t// in\n    tag_63:\n      mload(0x40)\n      tag_67\n      swap2\n      swap1\n      tag_44\n      jump\t// in\n    tag_67:\n      mload(0x40)\n      dup1\n      swap2\n      sub\n      swap1\n      return\n        /* \"v2/contracts/SoulSocietySBT.sol\":7591:7723  function transferFrom(address , address , uint256 ) external pure {... */\n    tag_9:\n      tag_68\n      0x04\n      dup1\n      calldatasize\n      sub\n      dup2\n      add\n      swap1\n      tag_69\n      swap2\n      swap1\n      tag_70\n      jump\t// in\n    tag_69:\n      tag_71\n      jump\t// in\n    tag_68:\n      stop\n        /* \"v2/contracts/SoulSocietySBT.sol\":6747:7207  function tokenOfOwnerByIndex(address owner_, uint256 index_) external view returns (uint256) {... */\n    tag_10:\n      tag_72\n      0x04\n      dup1\n      calldatasize\n      sub\n      dup2\n      add\n      swap1\n      tag_73\n      swap2\n      swap1\n      tag_57\n      jump\t// in\n    tag_73:\n      tag_74\n      jump\t// in\n    tag_72:\n      mload(0x40)\n      tag_75\n      swap2\n      swap1\n      tag_62\n      jump\t// in\n    tag_75:\n      mload(0x40)\n      dup1\n      swap2\n      sub\n      swap1\n      return\n        /* \"v2/contracts/SoulSocietySBT.sol\":3537:3880  function mint(address to_, uint256 tokenType_) external virtual onlyOwner returns(uint256) {... */\n    tag_11:\n      tag_76\n      0x04\n      dup1\n      calldatasize\n      sub\n      dup2\n      add\n      swap1\n      tag_77\n      swap2\n      swap1\n      tag_57\n      jump\t// in\n    tag_77:\n      tag_78\n      jump\t// in\n    tag_76:\n      mload(0x40)\n      tag_79\n      swap2\n      swap1\n      tag_62\n      jump\t// in\n    tag_79:\n      mload(0x40)\n      dup1\n      swap2\n      sub\n      swap1\n      return\n        /* \"v2/contracts/SoulSocietySBT.sol\":7445:7585  function safeTransferFrom(address , address , uint256 ) external pure {... */\n    tag_12:\n      tag_80\n      0x04\n      dup1\n      calldatasize\n      sub\n      dup2\n      add\n      swap1\n      tag_81\n      swap2\n      swap1\n      tag_70\n      jump\t// in\n    tag_81:\n      tag_82\n      jump\t// in\n    tag_80:\n      stop\n        /* \"v2/contracts/SoulSocietySBT.sol\":6332:6565  function getGrowth(uint256 tokenId_) external view  returns (uint256) {... */\n    tag_13:\n      tag_83\n      0x04\n      dup1\n      calldatasize\n      sub\n      dup2\n      add\n      swap1\n      tag_84\n      swap2\n      swap1\n      tag_51\n      jump\t// in\n    tag_84:\n      tag_85\n      jump\t// in\n    tag_83:\n      mload(0x40)\n      tag_86\n      swap2\n      swap1\n      tag_62\n      jump\t// in\n    tag_86:\n      mload(0x40)\n      dup1\n      swap2\n      sub\n      swap1\n      return\n        /* \"v2/contracts/SoulSocietySBT.sol\":5856:6093  function ownerOf(uint256 tokenId_) external  view  override  returns (address) {... */\n    tag_14:\n      tag_87\n      0x04\n      dup1\n      calldatasize\n      sub\n      dup2\n      add\n      swap1\n      tag_88\n      swap2\n      swap1\n      tag_51\n      jump\t// in\n    tag_88:\n      tag_89\n      jump\t// in\n    tag_87:\n      mload(0x40)\n      tag_90\n      swap2\n      swap1\n      tag_54\n      jump\t// in\n    tag_90:\n      mload(0x40)\n      dup1\n      swap2\n      sub\n      swap1\n      return\n        /* \"v2/contracts/SoulSocietySBT.sol\":6099:6326  function balanceOf(address owner_) external  view  returns (uint256) {... */\n    tag_15:\n      tag_91\n      0x04\n      dup1\n      calldatasize\n      sub\n      dup2\n      add\n      swap1\n      tag_92\n      swap2\n      swap1\n      tag_93\n      jump\t// in\n    tag_92:\n      tag_94\n      jump\t// in\n    tag_91:\n      mload(0x40)\n      tag_95\n      swap2\n      swap1\n      tag_62\n      jump\t// in\n    tag_95:\n      mload(0x40)\n      dup1\n      swap2\n      sub\n      swap1\n      return\n        /* \"@openzeppelin/contracts/access/Ownable.sol\":1824:1925  function renounceOwnership() public virtual onlyOwner {... */\n    tag_16:\n      tag_96\n      tag_97\n      jump\t// in\n    tag_96:\n      stop\n        /* \"v2/contracts/SoulSocietySBT.sol\":5322:5480  function getTokenType(uint256 tokenId_) external view returns (uint256) {... */\n    tag_17:\n      tag_98\n      0x04\n      dup1\n      calldatasize\n      sub\n      dup2\n      add\n      swap1\n      tag_99\n      swap2\n      swap1\n      tag_51\n      jump\t// in\n    tag_99:\n      tag_100\n      jump\t// in\n    tag_98:\n      mload(0x40)\n      tag_101\n      swap2\n      swap1\n      tag_62\n      jump\t// in\n    tag_101:\n      mload(0x40)\n      dup1\n      swap2\n      sub\n      swap1\n      return\n        /* \"v2/contracts/SoulSocietySBT.sol\":3110:3347  function setApprovalGrowth(uint256 tokenId_, bool approved_) external {... */\n    tag_18:\n      tag_102\n      0x04\n      dup1\n      calldatasize\n      sub\n      dup2\n      add\n      swap1\n      tag_103\n      swap2\n      swap1\n      tag_104\n      jump\t// in\n    tag_103:\n      tag_105\n      jump\t// in\n    tag_102:\n      stop\n        /* \"@openzeppelin/contracts/access/Ownable.sol\":1201:1286  function owner() public view virtual returns (address) {... */\n    tag_19:\n      tag_106\n      tag_107\n      jump\t// in\n    tag_106:\n      mload(0x40)\n      tag_108\n      swap2\n      swap1\n      tag_54\n      jump\t// in\n    tag_108:\n      mload(0x40)\n      dup1\n      swap2\n      sub\n      swap1\n      return\n        /* \"v2/contracts/SoulSocietySBT.sol\":4615:4710  function symbol() external pure virtual returns (string memory) {... */\n    tag_20:\n      tag_109\n      tag_110\n      jump\t// in\n    tag_109:\n      mload(0x40)\n      tag_111\n      swap2\n      swap1\n      tag_48\n      jump\t// in\n    tag_111:\n      mload(0x40)\n      dup1\n      swap2\n      sub\n      swap1\n      return\n        /* \"v2/contracts/SoulSocietySBT.sol\":3886:4126  function reset(address to_, uint256 tokenId_) external onlyOwner  {... */\n    tag_21:\n      tag_112\n      0x04\n      dup1\n      calldatasize\n      sub\n      dup2\n      add\n      swap1\n      tag_113\n      swap2\n      swap1\n      tag_57\n      jump\t// in\n    tag_113:\n      tag_114\n      jump\t// in\n    tag_112:\n      stop\n        /* \"v2/contracts/SoulSocietySBT.sol\":7846:7975  function setApprovalForAll(address , bool ) external pure {... */\n    tag_22:\n      tag_115\n      0x04\n      dup1\n      calldatasize\n      sub\n      dup2\n      add\n      swap1\n      tag_116\n      swap2\n      swap1\n      tag_117\n      jump\t// in\n    tag_116:\n      tag_118\n      jump\t// in\n    tag_115:\n      stop\n        /* \"v2/contracts/SoulSocietySBT.sol\":7274:7439  function safeTransferFrom(address , address , uint256 , bytes calldata) external pure {... */\n    tag_23:\n      tag_119\n      0x04\n      dup1\n      calldatasize\n      sub\n      dup2\n      add\n      swap1\n      tag_120\n      swap2\n      swap1\n      tag_121\n      jump\t// in\n    tag_120:\n      tag_122\n      jump\t// in\n    tag_119:\n      stop\n        /* \"v2/contracts/SoulSocietySBT.sol\":4178:4435  function growUp(address to_, uint256 tokenId_) external  onlyOwner returns(uint256) {... */\n    tag_24:\n      tag_123\n      0x04\n      dup1\n      calldatasize\n      sub\n      dup2\n      add\n      swap1\n      tag_124\n      swap2\n      swap1\n      tag_57\n      jump\t// in\n    tag_124:\n      tag_125\n      jump\t// in\n    tag_123:\n      mload(0x40)\n      tag_126\n      swap2\n      swap1\n      tag_62\n      jump\t// in\n    tag_126:\n      mload(0x40)\n      dup1\n      swap2\n      sub\n      swap1\n      return\n        /* \"v2/contracts/SoulSocietySBT.sol\":4811:5124  function tokenURI(uint256 tokenId_) external view virtual  returns (string memory) {    ... */\n    tag_25:\n      tag_127\n      0x04\n      dup1\n      calldatasize\n      sub\n      dup2\n      add\n      swap1\n      tag_128\n      swap2\n      swap1\n      tag_51\n      jump\t// in\n    tag_128:\n      tag_129\n      jump\t// in\n    tag_127:\n      mload(0x40)\n      tag_130\n      swap2\n      swap1\n      tag_48\n      jump\t// in\n    tag_130:\n      mload(0x40)\n      dup1\n      swap2\n      sub\n      swap1\n      return\n        /* \"v2/contracts/SoulSocietySBT.sol\":5486:5590  function isProtected(address to_) external view returns (bool) {... */\n    tag_26:\n      tag_131\n      0x04\n      dup1\n      calldatasize\n      sub\n      dup2\n      add\n      swap1\n      tag_132\n      swap2\n      swap1\n      tag_93\n      jump\t// in\n    tag_132:\n      tag_133\n      jump\t// in\n    tag_131:\n      mload(0x40)\n      tag_134\n      swap2\n      swap1\n      tag_44\n      jump\t// in\n    tag_134:\n      mload(0x40)\n      dup1\n      swap2\n      sub\n      swap1\n      return\n        /* \"v2/contracts/SoulSocietySBT.sol\":2400:2593  function setTokenURI(string memory tokenURI_) external onlyOwner returns(string memory) {... */\n    tag_27:\n      tag_135\n      0x04\n      dup1\n      calldatasize\n      sub\n      dup2\n      add\n      swap1\n      tag_136\n      swap2\n      swap1\n      tag_137\n      jump\t// in\n    tag_136:\n      tag_138\n      jump\t// in\n    tag_135:\n      mload(0x40)\n      tag_139\n      swap2\n      swap1\n      tag_48\n      jump\t// in\n    tag_139:\n      mload(0x40)\n      dup1\n      swap2\n      sub\n      swap1\n      return\n        /* \"v2/contracts/SoulSocietySBT.sol\":5130:5218  function totalUser() external view  returns (uint256) {... */\n    tag_28:\n      tag_140\n      tag_141\n      jump\t// in\n    tag_140:\n      mload(0x40)\n      tag_142\n      swap2\n      swap1\n      tag_62\n      jump\t// in\n    tag_142:\n      mload(0x40)\n      dup1\n      swap2\n      sub\n      swap1\n      return\n        /* \"v2/contracts/SoulSocietySBT.sol\":8117:8262  function isApprovedForAll(address , address ) external pure returns (bool) {... */\n    tag_29:\n      tag_143\n      0x04\n      dup1\n      calldatasize\n      sub\n      dup2\n      add\n      swap1\n      tag_144\n      swap2\n      swap1\n      tag_145\n      jump\t// in\n    tag_144:\n      tag_146\n      jump\t// in\n    tag_143:\n      mload(0x40)\n      tag_147\n      swap2\n      swap1\n      tag_44\n      jump\t// in\n    tag_147:\n      mload(0x40)\n      dup1\n      swap2\n      sub\n      swap1\n      return\n        /* \"@openzeppelin/contracts/access/Ownable.sol\":2074:2272  function transferOwnership(address newOwner) public virtual onlyOwner {... */\n    tag_30:\n      tag_148\n      0x04\n      dup1\n      calldatasize\n      sub\n      dup2\n      add\n      swap1\n      tag_149\n      swap2\n      swap1\n      tag_93\n      jump\t// in\n    tag_149:\n      tag_150\n      jump\t// in\n    tag_148:\n      stop\n        /* \"v2/contracts/SoulSocietySBT.sol\":5596:5746  function getApprovalGrowth(address owner_, uint256 tokenId_ ) external view returns(bool) {... */\n    tag_31:\n      tag_151\n      0x04\n      dup1\n      calldatasize\n      sub\n      dup2\n      add\n      swap1\n      tag_152\n      swap2\n      swap1\n      tag_57\n      jump\t// in\n    tag_152:\n      tag_153\n      jump\t// in\n    tag_151:\n      mload(0x40)\n      tag_154\n      swap2\n      swap1\n      tag_44\n      jump\t// in\n    tag_154:\n      mload(0x40)\n      dup1\n      swap2\n      sub\n      swap1\n      return\n        /* \"v2/contracts/SoulSocietySBT.sol\":8329:8566  function supportsInterface(bytes4 interfaceId) public view virtual override(ERC165, IERC165) returns (bool) {... */\n    tag_42:\n        /* \"v2/contracts/SoulSocietySBT.sol\":8431:8435  bool */\n      0x00\n        /* \"v2/contracts/SoulSocietySBT.sol\":8482:8507  type(IERC721).interfaceId */\n      0x80ac58cd00000000000000000000000000000000000000000000000000000000\n        /* \"v2/contracts/SoulSocietySBT.sol\":8467:8507  interfaceId == type(IERC721).interfaceId */\n      not(0xffffffffffffffffffffffffffffffffffffffffffffffffffffffff)\n      and\n        /* \"v2/contracts/SoulSocietySBT.sol\":8467:8478  interfaceId */\n      dup3\n        /* \"v2/contracts/SoulSocietySBT.sol\":8467:8507  interfaceId == type(IERC721).interfaceId */\n      not(0xffffffffffffffffffffffffffffffffffffffffffffffffffffffff)\n      and\n      eq\n        /* \"v2/contracts/SoulSocietySBT.sol\":8467:8559  interfaceId == type(IERC721).interfaceId ||... */\n      dup1\n      tag_156\n      jumpi\n      pop\n        /* \"v2/contracts/SoulSocietySBT.sol\":8523:8559  super.supportsInterface(interfaceId) */\n      tag_157\n        /* \"v2/contracts/SoulSocietySBT.sol\":8547:8558  interfaceId */\n      dup3\n        /* \"v2/contracts/SoulSocietySBT.sol\":8523:8546  super.supportsInterface */\n      tag_158\n        /* \"v2/contracts/SoulSocietySBT.sol\":8523:8559  super.supportsInterface(interfaceId) */\n      jump\t// in\n    tag_157:\n        /* \"v2/contracts/SoulSocietySBT.sol\":8467:8559  interfaceId == type(IERC721).interfaceId ||... */\n    tag_156:\n        /* \"v2/contracts/SoulSocietySBT.sol\":8447:8559  return ... */\n      swap1\n      pop\n        /* \"v2/contracts/SoulSocietySBT.sol\":8329:8566  function supportsInterface(bytes4 interfaceId) public view virtual override(ERC165, IERC165) returns (bool) {... */\n      swap2\n      swap1\n      pop\n      jump\t// out\n        /* \"v2/contracts/SoulSocietySBT.sol\":4498:4589  function name() external pure virtual returns (string memory) {... */\n    tag_46:\n        /* \"v2/contracts/SoulSocietySBT.sol\":4545:4558  string memory */\n      0x60\n        /* \"v2/contracts/SoulSocietySBT.sol\":4577:4582  _name */\n      mload(0x40)\n      dup1\n      0x40\n      add\n      0x40\n      mstore\n      dup1\n      0x06\n      dup2\n      mstore\n      0x20\n      add\n      0x484f4e5342540000000000000000000000000000000000000000000000000000\n      dup2\n      mstore\n      pop\n        /* \"v2/contracts/SoulSocietySBT.sol\":4570:4582  return _name */\n      swap1\n      pop\n        /* \"v2/contracts/SoulSocietySBT.sol\":4498:4589  function name() external pure virtual returns (string memory) {... */\n      swap1\n      jump\t// out\n        /* \"v2/contracts/SoulSocietySBT.sol\":7981:8111  function getApproved(uint256 ) external pure returns (address )  {... */\n    tag_52:\n        /* \"v2/contracts/SoulSocietySBT.sol\":8035:8042  address */\n      0x00\n        /* \"v2/contracts/SoulSocietySBT.sol\":8063:8104  SoulSocietySBTNotSupported(\"getApproved\") */\n      mload(0x40)\n      0x9fc6e75800000000000000000000000000000000000000000000000000000000\n      dup2\n      mstore\n      0x04\n      add\n      tag_161\n      swap1\n      tag_162\n      jump\t// in\n    tag_161:\n      mload(0x40)\n      dup1\n      swap2\n      sub\n      swap1\n      revert\n        /* \"v2/contracts/SoulSocietySBT.sol\":7729:7840  function approve(address , uint256 ) external pure{... */\n    tag_58:\n        /* \"v2/contracts/SoulSocietySBT.sol\":7796:7833  SoulSocietySBTNotSupported(\"approve\") */\n      mload(0x40)\n      0x9fc6e75800000000000000000000000000000000000000000000000000000000\n      dup2\n      mstore\n      0x04\n      add\n      tag_164\n      swap1\n      tag_165\n      jump\t// in\n    tag_164:\n      mload(0x40)\n      dup1\n      swap2\n      sub\n      swap1\n      revert\n        /* \"v2/contracts/SoulSocietySBT.sol\":5224:5315  function totalSupply() external view  returns (uint256) {... */\n    tag_60:\n        /* \"v2/contracts/SoulSocietySBT.sol\":5271:5278  uint256 */\n      0x00\n        /* \"v2/contracts/SoulSocietySBT.sol\":5297:5308  _totalCount */\n      sload(0x03)\n        /* \"v2/contracts/SoulSocietySBT.sol\":5290:5308  return _totalCount */\n      swap1\n      pop\n        /* \"v2/contracts/SoulSocietySBT.sol\":5224:5315  function totalSupply() external view  returns (uint256) {... */\n      swap1\n      jump\t// out\n        /* \"v2/contracts/SoulSocietySBT.sol\":2827:3104  function setProtected( bool isProtected_) external  returns (bool) {... */\n    tag_66:\n        /* \"v2/contracts/SoulSocietySBT.sol\":2888:2892  bool */\n      0x00\n        /* \"v2/contracts/SoulSocietySBT.sol\":2935:2936  0 */\n      dup1\n        /* \"v2/contracts/SoulSocietySBT.sol\":2910:2932  _balanceOf(msg.sender) */\n      tag_168\n        /* \"v2/contracts/SoulSocietySBT.sol\":2921:2931  msg.sender */\n      caller\n        /* \"v2/contracts/SoulSocietySBT.sol\":2910:2920  _balanceOf */\n      tag_169\n        /* \"v2/contracts/SoulSocietySBT.sol\":2910:2932  _balanceOf(msg.sender) */\n      jump\t// in\n    tag_168:\n        /* \"v2/contracts/SoulSocietySBT.sol\":2910:2936  _balanceOf(msg.sender) > 0 */\n      gt\n        /* \"v2/contracts/SoulSocietySBT.sol\":2904:3005  if (!(_balanceOf(msg.sender) > 0)) {... */\n      tag_170\n      jumpi\n        /* \"v2/contracts/SoulSocietySBT.sol\":2983:2993  msg.sender */\n      caller\n        /* \"v2/contracts/SoulSocietySBT.sol\":2960:2994  SoulSocietySBTNonExist(msg.sender) */\n      mload(0x40)\n      0xfaceffef00000000000000000000000000000000000000000000000000000000\n      dup2\n      mstore\n      0x04\n      add\n      tag_171\n      swap2\n      swap1\n      tag_54\n      jump\t// in\n    tag_171:\n      mload(0x40)\n      dup1\n      swap2\n      sub\n      swap1\n      revert\n        /* \"v2/contracts/SoulSocietySBT.sol\":2904:3005  if (!(_balanceOf(msg.sender) > 0)) {... */\n    tag_170:\n        /* \"v2/contracts/SoulSocietySBT.sol\":3043:3055  isProtected_ */\n      dup2\n        /* \"v2/contracts/SoulSocietySBT.sol\":3015:3028  _userProtects */\n      0x08\n        /* \"v2/contracts/SoulSocietySBT.sol\":3015:3040  _userProtects[msg.sender] */\n      0x00\n        /* \"v2/contracts/SoulSocietySBT.sol\":3029:3039  msg.sender */\n      caller\n        /* \"v2/contracts/SoulSocietySBT.sol\":3015:3040  _userProtects[msg.sender] */\n      0xffffffffffffffffffffffffffffffffffffffff\n      and\n      0xffffffffffffffffffffffffffffffffffffffff\n      and\n      dup2\n      mstore\n      0x20\n      add\n      swap1\n      dup2\n      mstore\n      0x20\n      add\n      0x00\n      keccak256\n      0x00\n        /* \"v2/contracts/SoulSocietySBT.sol\":3015:3055  _userProtects[msg.sender] = isProtected_ */\n      0x0100\n      exp\n      dup2\n      sload\n      dup2\n      0xff\n      mul\n      not\n      and\n      swap1\n      dup4\n      iszero\n      iszero\n      mul\n      or\n      swap1\n      sstore\n      pop\n        /* \"v2/contracts/SoulSocietySBT.sol\":3073:3097  getProtected(msg.sender) */\n      tag_172\n        /* \"v2/contracts/SoulSocietySBT.sol\":3086:3096  msg.sender */\n      caller\n        /* \"v2/contracts/SoulSocietySBT.sol\":3073:3085  getProtected */\n      tag_173\n        /* \"v2/contracts/SoulSocietySBT.sol\":3073:3097  getProtected(msg.sender) */\n      jump\t// in\n    tag_172:\n        /* \"v2/contracts/SoulSocietySBT.sol\":3066:3097  return getProtected(msg.sender) */\n      swap1\n      pop\n        /* \"v2/contracts/SoulSocietySBT.sol\":2827:3104  function setProtected( bool isProtected_) external  returns (bool) {... */\n      swap2\n      swap1\n      pop\n      jump\t// out\n        /* \"v2/contracts/SoulSocietySBT.sol\":7591:7723  function transferFrom(address , address , uint256 ) external pure {... */\n    tag_71:\n        /* \"v2/contracts/SoulSocietySBT.sol\":7674:7716  SoulSocietySBTNotSupported(\"transferFrom\") */\n      mload(0x40)\n      0x9fc6e75800000000000000000000000000000000000000000000000000000000\n      dup2\n      mstore\n      0x04\n      add\n      tag_175\n      swap1\n      tag_176\n      jump\t// in\n    tag_175:\n      mload(0x40)\n      dup1\n      swap2\n      sub\n      swap1\n      revert\n        /* \"v2/contracts/SoulSocietySBT.sol\":6747:7207  function tokenOfOwnerByIndex(address owner_, uint256 index_) external view returns (uint256) {... */\n    tag_74:\n        /* \"v2/contracts/SoulSocietySBT.sol\":6831:6838  uint256 */\n      0x00\n        /* \"v2/contracts/SoulSocietySBT.sol\":6925:6945  _isProtected(owner_) */\n      tag_178\n        /* \"v2/contracts/SoulSocietySBT.sol\":6938:6944  owner_ */\n      dup4\n        /* \"v2/contracts/SoulSocietySBT.sol\":6925:6937  _isProtected */\n      tag_179\n        /* \"v2/contracts/SoulSocietySBT.sol\":6925:6945  _isProtected(owner_) */\n      jump\t// in\n    tag_178:\n      pop\n        /* \"v2/contracts/SoulSocietySBT.sol\":6973:6991  _balanceOf(owner_) */\n      tag_180\n        /* \"v2/contracts/SoulSocietySBT.sol\":6984:6990  owner_ */\n      dup4\n        /* \"v2/contracts/SoulSocietySBT.sol\":6973:6983  _balanceOf */\n      tag_169\n        /* \"v2/contracts/SoulSocietySBT.sol\":6973:6991  _balanceOf(owner_) */\n      jump\t// in\n    tag_180:\n        /* \"v2/contracts/SoulSocietySBT.sol\":6964:6970  index_ */\n      dup3\n        /* \"v2/contracts/SoulSocietySBT.sol\":6964:6991  index_ < _balanceOf(owner_) */\n      lt\n        /* \"v2/contracts/SoulSocietySBT.sol\":6956:7008  require(index_ < _balanceOf(owner_), \"Out of Index\") */\n      tag_181\n      jumpi\n      mload(0x40)\n      0x08c379a000000000000000000000000000000000000000000000000000000000\n      dup2\n      mstore\n      0x04\n      add\n      tag_182\n      swap1\n      tag_183\n      jump\t// in\n    tag_182:\n      mload(0x40)\n      dup1\n      swap2\n      sub\n      swap1\n      revert\n    tag_181:\n        /* \"v2/contracts/SoulSocietySBT.sol\":7041:7042  0 */\n      0x00\n        /* \"v2/contracts/SoulSocietySBT.sol\":7023:7043  owner_ == address(0) */\n      0xffffffffffffffffffffffffffffffffffffffff\n      and\n        /* \"v2/contracts/SoulSocietySBT.sol\":7023:7029  owner_ */\n      dup4\n        /* \"v2/contracts/SoulSocietySBT.sol\":7023:7043  owner_ == address(0) */\n      0xffffffffffffffffffffffffffffffffffffffff\n      and\n      sub\n        /* \"v2/contracts/SoulSocietySBT.sol\":7019:7118  if (owner_ == address(0)) {... */\n      tag_184\n      jumpi\n        /* \"v2/contracts/SoulSocietySBT.sol\":7104:7105  0 */\n      0x00\n        /* \"v2/contracts/SoulSocietySBT.sol\":7066:7107  SoulSocietySBTInvalidReceiver(address(0)) */\n      mload(0x40)\n      0x74f5e87d00000000000000000000000000000000000000000000000000000000\n      dup2\n      mstore\n      0x04\n      add\n      tag_185\n      swap2\n      swap1\n      tag_54\n      jump\t// in\n    tag_185:\n      mload(0x40)\n      dup1\n      swap2\n      sub\n      swap1\n      revert\n        /* \"v2/contracts/SoulSocietySBT.sol\":7019:7118  if (owner_ == address(0)) {... */\n    tag_184:\n        /* \"v2/contracts/SoulSocietySBT.sol\":7128:7143  uint256 tokenId */\n      0x00\n        /* \"v2/contracts/SoulSocietySBT.sol\":7146:7158  _ownedTokens */\n      0x09\n        /* \"v2/contracts/SoulSocietySBT.sol\":7146:7166  _ownedTokens[owner_] */\n      0x00\n        /* \"v2/contracts/SoulSocietySBT.sol\":7159:7165  owner_ */\n      dup6\n        /* \"v2/contracts/SoulSocietySBT.sol\":7146:7166  _ownedTokens[owner_] */\n      0xffffffffffffffffffffffffffffffffffffffff\n      and\n      0xffffffffffffffffffffffffffffffffffffffff\n      and\n      dup2\n      mstore\n      0x20\n      add\n      swap1\n      dup2\n      mstore\n      0x20\n      add\n      0x00\n      keccak256\n        /* \"v2/contracts/SoulSocietySBT.sol\":7146:7174  _ownedTokens[owner_][index_] */\n      0x00\n        /* \"v2/contracts/SoulSocietySBT.sol\":7167:7173  index_ */\n      dup5\n        /* \"v2/contracts/SoulSocietySBT.sol\":7146:7174  _ownedTokens[owner_][index_] */\n      dup2\n      mstore\n      0x20\n      add\n      swap1\n      dup2\n      mstore\n      0x20\n      add\n      0x00\n      keccak256\n      sload\n        /* \"v2/contracts/SoulSocietySBT.sol\":7128:7174  uint256 tokenId = _ownedTokens[owner_][index_] */\n      swap1\n      pop\n        /* \"v2/contracts/SoulSocietySBT.sol\":7192:7199  tokenId */\n      dup1\n        /* \"v2/contracts/SoulSocietySBT.sol\":7185:7199  return tokenId */\n      swap2\n      pop\n      pop\n        /* \"v2/contracts/SoulSocietySBT.sol\":6747:7207  function tokenOfOwnerByIndex(address owner_, uint256 index_) external view returns (uint256) {... */\n      swap3\n      swap2\n      pop\n      pop\n      jump\t// out\n        /* \"v2/contracts/SoulSocietySBT.sol\":3537:3880  function mint(address to_, uint256 tokenType_) external virtual onlyOwner returns(uint256) {... */\n    tag_78:\n        /* \"v2/contracts/SoulSocietySBT.sol\":3619:3626  uint256 */\n      0x00\n        /* \"@openzeppelin/contracts/access/Ownable.sol\":1094:1107  _checkOwner() */\n      tag_187\n        /* \"@openzeppelin/contracts/access/Ownable.sol\":1094:1105  _checkOwner */\n      tag_188\n        /* \"@openzeppelin/contracts/access/Ownable.sol\":1094:1107  _checkOwner() */\n      jump\t// in\n    tag_187:\n        /* \"v2/contracts/SoulSocietySBT.sol\":3638:3653  uint256 tokenId */\n      0x00\n        /* \"v2/contracts/SoulSocietySBT.sol\":3656:3682  _safeMint(to_, tokenType_) */\n      tag_190\n        /* \"v2/contracts/SoulSocietySBT.sol\":3666:3669  to_ */\n      dup5\n        /* \"v2/contracts/SoulSocietySBT.sol\":3671:3681  tokenType_ */\n      dup5\n        /* \"v2/contracts/SoulSocietySBT.sol\":3656:3665  _safeMint */\n      tag_191\n        /* \"v2/contracts/SoulSocietySBT.sol\":3656:3682  _safeMint(to_, tokenType_) */\n      jump\t// in\n    tag_190:\n        /* \"v2/contracts/SoulSocietySBT.sol\":3638:3682  uint256 tokenId = _safeMint(to_, tokenType_) */\n      swap1\n      pop\n        /* \"v2/contracts/SoulSocietySBT.sol\":3715:3771  _checkOnERC721Received(address(0), to_, tokenId, \"Mint\") */\n      tag_192\n        /* \"v2/contracts/SoulSocietySBT.sol\":3746:3747  0 */\n      0x00\n        /* \"v2/contracts/SoulSocietySBT.sol\":3750:3753  to_ */\n      dup6\n        /* \"v2/contracts/SoulSocietySBT.sol\":3755:3762  tokenId */\n      dup4\n        /* \"v2/contracts/SoulSocietySBT.sol\":3715:3771  _checkOnERC721Received(address(0), to_, tokenId, \"Mint\") */\n      mload(0x40)\n      dup1\n      0x40\n      add\n      0x40\n      mstore\n      dup1\n      0x04\n      dup2\n      mstore\n      0x20\n      add\n      0x4d696e7400000000000000000000000000000000000000000000000000000000\n      dup2\n      mstore\n      pop\n        /* \"v2/contracts/SoulSocietySBT.sol\":3715:3737  _checkOnERC721Received */\n      tag_193\n        /* \"v2/contracts/SoulSocietySBT.sol\":3715:3771  _checkOnERC721Received(address(0), to_, tokenId, \"Mint\") */\n      jump\t// in\n    tag_192:\n        /* \"v2/contracts/SoulSocietySBT.sol\":3693:3848  require( ... */\n      tag_194\n      jumpi\n      mload(0x40)\n      0x08c379a000000000000000000000000000000000000000000000000000000000\n      dup2\n      mstore\n      0x04\n      add\n      tag_195\n      swap1\n      tag_196\n      jump\t// in\n    tag_195:\n      mload(0x40)\n      dup1\n      swap2\n      sub\n      swap1\n      revert\n    tag_194:\n        /* \"v2/contracts/SoulSocietySBT.sol\":3866:3873  tokenId */\n      dup1\n        /* \"v2/contracts/SoulSocietySBT.sol\":3859:3873  return tokenId */\n      swap2\n      pop\n      pop\n        /* \"v2/contracts/SoulSocietySBT.sol\":3537:3880  function mint(address to_, uint256 tokenType_) external virtual onlyOwner returns(uint256) {... */\n      swap3\n      swap2\n      pop\n      pop\n      jump\t// out\n        /* \"v2/contracts/SoulSocietySBT.sol\":7445:7585  function safeTransferFrom(address , address , uint256 ) external pure {... */\n    tag_82:\n        /* \"v2/contracts/SoulSocietySBT.sol\":7532:7578  SoulSocietySBTNotSupported(\"safeTransferFrom\") */\n      mload(0x40)\n      0x9fc6e75800000000000000000000000000000000000000000000000000000000\n      dup2\n      mstore\n      0x04\n      add\n      tag_198\n      swap1\n      tag_199\n      jump\t// in\n    tag_198:\n      mload(0x40)\n      dup1\n      swap2\n      sub\n      swap1\n      revert\n        /* \"v2/contracts/SoulSocietySBT.sol\":6332:6565  function getGrowth(uint256 tokenId_) external view  returns (uint256) {... */\n    tag_85:\n        /* \"v2/contracts/SoulSocietySBT.sol\":6393:6400  uint256 */\n      0x00\n        /* \"v2/contracts/SoulSocietySBT.sol\":6488:6517  _isProtectedTokenId(tokenId_) */\n      tag_201\n        /* \"v2/contracts/SoulSocietySBT.sol\":6508:6516  tokenId_ */\n      dup3\n        /* \"v2/contracts/SoulSocietySBT.sol\":6488:6507  _isProtectedTokenId */\n      tag_202\n        /* \"v2/contracts/SoulSocietySBT.sol\":6488:6517  _isProtectedTokenId(tokenId_) */\n      jump\t// in\n    tag_201:\n        /* \"v2/contracts/SoulSocietySBT.sol\":6535:6548  _tokenGrowths */\n      0x06\n        /* \"v2/contracts/SoulSocietySBT.sol\":6535:6558  _tokenGrowths[tokenId_] */\n      0x00\n        /* \"v2/contracts/SoulSocietySBT.sol\":6549:6557  tokenId_ */\n      dup4\n        /* \"v2/contracts/SoulSocietySBT.sol\":6535:6558  _tokenGrowths[tokenId_] */\n      dup2\n      mstore\n      0x20\n      add\n      swap1\n      dup2\n      mstore\n      0x20\n      add\n      0x00\n      keccak256\n      sload\n        /* \"v2/contracts/SoulSocietySBT.sol\":6528:6558  return _tokenGrowths[tokenId_] */\n      swap1\n      pop\n        /* \"v2/contracts/SoulSocietySBT.sol\":6332:6565  function getGrowth(uint256 tokenId_) external view  returns (uint256) {... */\n      swap2\n      swap1\n      pop\n      jump\t// out\n        /* \"v2/contracts/SoulSocietySBT.sol\":5856:6093  function ownerOf(uint256 tokenId_) external  view  override  returns (address) {... */\n    tag_89:\n        /* \"v2/contracts/SoulSocietySBT.sol\":5926:5933  address */\n      0x00\n        /* \"v2/contracts/SoulSocietySBT.sol\":6022:6051  _isProtectedTokenId(tokenId_) */\n      tag_204\n        /* \"v2/contracts/SoulSocietySBT.sol\":6042:6050  tokenId_ */\n      dup3\n        /* \"v2/contracts/SoulSocietySBT.sol\":6022:6041  _isProtectedTokenId */\n      tag_202\n        /* \"v2/contracts/SoulSocietySBT.sol\":6022:6051  _isProtectedTokenId(tokenId_) */\n      jump\t// in\n    tag_204:\n        /* \"v2/contracts/SoulSocietySBT.sol\":6069:6076  _owners */\n      0x04\n        /* \"v2/contracts/SoulSocietySBT.sol\":6069:6086  _owners[tokenId_] */\n      0x00\n        /* \"v2/contracts/SoulSocietySBT.sol\":6077:6085  tokenId_ */\n      dup4\n        /* \"v2/contracts/SoulSocietySBT.sol\":6069:6086  _owners[tokenId_] */\n      dup2\n      mstore\n      0x20\n      add\n      swap1\n      dup2\n      mstore\n      0x20\n      add\n      0x00\n      keccak256\n      0x00\n      swap1\n      sload\n      swap1\n      0x0100\n      exp\n      swap1\n      div\n      0xffffffffffffffffffffffffffffffffffffffff\n      and\n        /* \"v2/contracts/SoulSocietySBT.sol\":6062:6086  return _owners[tokenId_] */\n      swap1\n      pop\n        /* \"v2/contracts/SoulSocietySBT.sol\":5856:6093  function ownerOf(uint256 tokenId_) external  view  override  returns (address) {... */\n      swap2\n      swap1\n      pop\n      jump\t// out\n        /* \"v2/contracts/SoulSocietySBT.sol\":6099:6326  function balanceOf(address owner_) external  view  returns (uint256) {... */\n    tag_94:\n        /* \"v2/contracts/SoulSocietySBT.sol\":6159:6166  uint256 */\n      0x00\n        /* \"v2/contracts/SoulSocietySBT.sol\":6255:6275  _isProtected(owner_) */\n      tag_206\n        /* \"v2/contracts/SoulSocietySBT.sol\":6268:6274  owner_ */\n      dup3\n        /* \"v2/contracts/SoulSocietySBT.sol\":6255:6267  _isProtected */\n      tag_179\n        /* \"v2/contracts/SoulSocietySBT.sol\":6255:6275  _isProtected(owner_) */\n      jump\t// in\n    tag_206:\n      pop\n        /* \"v2/contracts/SoulSocietySBT.sol\":6301:6319  _balanceOf(owner_) */\n      tag_207\n        /* \"v2/contracts/SoulSocietySBT.sol\":6312:6318  owner_ */\n      dup3\n        /* \"v2/contracts/SoulSocietySBT.sol\":6301:6311  _balanceOf */\n      tag_169\n        /* \"v2/contracts/SoulSocietySBT.sol\":6301:6319  _balanceOf(owner_) */\n      jump\t// in\n    tag_207:\n        /* \"v2/contracts/SoulSocietySBT.sol\":6294:6319  return _balanceOf(owner_) */\n      swap1\n      pop\n        /* \"v2/contracts/SoulSocietySBT.sol\":6099:6326  function balanceOf(address owner_) external  view  returns (uint256) {... */\n      swap2\n      swap1\n      pop\n      jump\t// out\n        /* \"@openzeppelin/contracts/access/Ownable.sol\":1824:1925  function renounceOwnership() public virtual onlyOwner {... */\n    tag_97:\n        /* \"@openzeppelin/contracts/access/Ownable.sol\":1094:1107  _checkOwner() */\n      tag_209\n        /* \"@openzeppelin/contracts/access/Ownable.sol\":1094:1105  _checkOwner */\n      tag_188\n        /* \"@openzeppelin/contracts/access/Ownable.sol\":1094:1107  _checkOwner() */\n      jump\t// in\n    tag_209:\n        /* \"@openzeppelin/contracts/access/Ownable.sol\":1888:1918  _transferOwnership(address(0)) */\n      tag_211\n        /* \"@openzeppelin/contracts/access/Ownable.sol\":1915:1916  0 */\n      0x00\n        /* \"@openzeppelin/contracts/access/Ownable.sol\":1888:1906  _transferOwnership */\n      tag_212\n        /* \"@openzeppelin/contracts/access/Ownable.sol\":1888:1918  _transferOwnership(address(0)) */\n      jump\t// in\n    tag_211:\n        /* \"@openzeppelin/contracts/access/Ownable.sol\":1824:1925  function renounceOwnership() public virtual onlyOwner {... */\n      jump\t// out\n        /* \"v2/contracts/SoulSocietySBT.sol\":5322:5480  function getTokenType(uint256 tokenId_) external view returns (uint256) {... */\n    tag_100:\n        /* \"v2/contracts/SoulSocietySBT.sol\":5385:5392  uint256 */\n      0x00\n        /* \"v2/contracts/SoulSocietySBT.sol\":5405:5434  _isProtectedTokenId(tokenId_) */\n      tag_214\n        /* \"v2/contracts/SoulSocietySBT.sol\":5425:5433  tokenId_ */\n      dup3\n        /* \"v2/contracts/SoulSocietySBT.sol\":5405:5424  _isProtectedTokenId */\n      tag_202\n        /* \"v2/contracts/SoulSocietySBT.sol\":5405:5434  _isProtectedTokenId(tokenId_) */\n      jump\t// in\n    tag_214:\n        /* \"v2/contracts/SoulSocietySBT.sol\":5452:5463  _tokenTypes */\n      0x05\n        /* \"v2/contracts/SoulSocietySBT.sol\":5452:5473  _tokenTypes[tokenId_] */\n      0x00\n        /* \"v2/contracts/SoulSocietySBT.sol\":5464:5472  tokenId_ */\n      dup4\n        /* \"v2/contracts/SoulSocietySBT.sol\":5452:5473  _tokenTypes[tokenId_] */\n      dup2\n      mstore\n      0x20\n      add\n      swap1\n      dup2\n      mstore\n      0x20\n      add\n      0x00\n      keccak256\n      sload\n        /* \"v2/contracts/SoulSocietySBT.sol\":5445:5473  return _tokenTypes[tokenId_] */\n      swap1\n      pop\n        /* \"v2/contracts/SoulSocietySBT.sol\":5322:5480  function getTokenType(uint256 tokenId_) external view returns (uint256) {... */\n      swap2\n      swap1\n      pop\n      jump\t// out\n        /* \"v2/contracts/SoulSocietySBT.sol\":3110:3347  function setApprovalGrowth(uint256 tokenId_, bool approved_) external {... */\n    tag_105:\n        /* \"v2/contracts/SoulSocietySBT.sol\":3221:3222  0 */\n      0x00\n        /* \"v2/contracts/SoulSocietySBT.sol\":3196:3218  _balanceOf(msg.sender) */\n      tag_216\n        /* \"v2/contracts/SoulSocietySBT.sol\":3207:3217  msg.sender */\n      caller\n        /* \"v2/contracts/SoulSocietySBT.sol\":3196:3206  _balanceOf */\n      tag_169\n        /* \"v2/contracts/SoulSocietySBT.sol\":3196:3218  _balanceOf(msg.sender) */\n      jump\t// in\n    tag_216:\n        /* \"v2/contracts/SoulSocietySBT.sol\":3196:3222  _balanceOf(msg.sender) > 0 */\n      gt\n        /* \"v2/contracts/SoulSocietySBT.sol\":3190:3291  if (!(_balanceOf(msg.sender) > 0)) {... */\n      tag_217\n      jumpi\n        /* \"v2/contracts/SoulSocietySBT.sol\":3269:3279  msg.sender */\n      caller\n        /* \"v2/contracts/SoulSocietySBT.sol\":3246:3280  SoulSocietySBTNonExist(msg.sender) */\n      mload(0x40)\n      0xfaceffef00000000000000000000000000000000000000000000000000000000\n      dup2\n      mstore\n      0x04\n      add\n      tag_218\n      swap2\n      swap1\n      tag_54\n      jump\t// in\n    tag_218:\n      mload(0x40)\n      dup1\n      swap2\n      sub\n      swap1\n      revert\n        /* \"v2/contracts/SoulSocietySBT.sol\":3190:3291  if (!(_balanceOf(msg.sender) > 0)) {... */\n    tag_217:\n        /* \"v2/contracts/SoulSocietySBT.sol\":3300:3340  _setApprovalGrowth( tokenId_, approved_) */\n      tag_219\n        /* \"v2/contracts/SoulSocietySBT.sol\":3320:3328  tokenId_ */\n      dup3\n        /* \"v2/contracts/SoulSocietySBT.sol\":3330:3339  approved_ */\n      dup3\n        /* \"v2/contracts/SoulSocietySBT.sol\":3300:3318  _setApprovalGrowth */\n      tag_220\n        /* \"v2/contracts/SoulSocietySBT.sol\":3300:3340  _setApprovalGrowth( tokenId_, approved_) */\n      jump\t// in\n    tag_219:\n        /* \"v2/contracts/SoulSocietySBT.sol\":3110:3347  function setApprovalGrowth(uint256 tokenId_, bool approved_) external {... */\n      pop\n      pop\n      jump\t// out\n        /* \"@openzeppelin/contracts/access/Ownable.sol\":1201:1286  function owner() public view virtual returns (address) {... */\n    tag_107:\n        /* \"@openzeppelin/contracts/access/Ownable.sol\":1247:1254  address */\n      0x00\n        /* \"@openzeppelin/contracts/access/Ownable.sol\":1273:1279  _owner */\n      dup1\n      0x00\n      swap1\n      sload\n      swap1\n      0x0100\n      exp\n      swap1\n      div\n      0xffffffffffffffffffffffffffffffffffffffff\n      and\n        /* \"@openzeppelin/contracts/access/Ownable.sol\":1266:1279  return _owner */\n      swap1\n      pop\n        /* \"@openzeppelin/contracts/access/Ownable.sol\":1201:1286  function owner() public view virtual returns (address) {... */\n      swap1\n      jump\t// out\n        /* \"v2/contracts/SoulSocietySBT.sol\":4615:4710  function symbol() external pure virtual returns (string memory) {... */\n    tag_110:\n        /* \"v2/contracts/SoulSocietySBT.sol\":4664:4677  string memory */\n      0x60\n        /* \"v2/contracts/SoulSocietySBT.sol\":4696:4703  _symbol */\n      mload(0x40)\n      dup1\n      0x40\n      add\n      0x40\n      mstore\n      dup1\n      0x06\n      dup2\n      mstore\n      0x20\n      add\n      0x484f4e5342540000000000000000000000000000000000000000000000000000\n      dup2\n      mstore\n      pop\n        /* \"v2/contracts/SoulSocietySBT.sol\":4689:4703  return _symbol */\n      swap1\n      pop\n        /* \"v2/contracts/SoulSocietySBT.sol\":4615:4710  function symbol() external pure virtual returns (string memory) {... */\n      swap1\n      jump\t// out\n        /* \"v2/contracts/SoulSocietySBT.sol\":3886:4126  function reset(address to_, uint256 tokenId_) external onlyOwner  {... */\n    tag_114:\n        /* \"@openzeppelin/contracts/access/Ownable.sol\":1094:1107  _checkOwner() */\n      tag_224\n        /* \"@openzeppelin/contracts/access/Ownable.sol\":1094:1105  _checkOwner */\n      tag_188\n        /* \"@openzeppelin/contracts/access/Ownable.sol\":1094:1107  _checkOwner() */\n      jump\t// in\n    tag_224:\n        /* \"v2/contracts/SoulSocietySBT.sol\":3967:4000  _getApprovalGrowth(to_, tokenId_) */\n      tag_226\n        /* \"v2/contracts/SoulSocietySBT.sol\":3986:3989  to_ */\n      dup3\n        /* \"v2/contracts/SoulSocietySBT.sol\":3991:3999  tokenId_ */\n      dup3\n        /* \"v2/contracts/SoulSocietySBT.sol\":3967:3985  _getApprovalGrowth */\n      tag_227\n        /* \"v2/contracts/SoulSocietySBT.sol\":3967:4000  _getApprovalGrowth(to_, tokenId_) */\n      jump\t// in\n    tag_226:\n        /* \"v2/contracts/SoulSocietySBT.sol\":3962:4079  if (!_getApprovalGrowth(to_, tokenId_)) {... */\n      tag_228\n      jumpi\n        /* \"v2/contracts/SoulSocietySBT.sol\":4054:4057  to_ */\n      dup2\n        /* \"v2/contracts/SoulSocietySBT.sol\":4059:4067  tokenId_ */\n      dup2\n        /* \"v2/contracts/SoulSocietySBT.sol\":4023:4068  SoulSocietySBTPermissionDenied(to_, tokenId_) */\n      mload(0x40)\n      0x9960858d00000000000000000000000000000000000000000000000000000000\n      dup2\n      mstore\n      0x04\n      add\n      tag_229\n      swap3\n      swap2\n      swap1\n      tag_230\n      jump\t// in\n    tag_229:\n      mload(0x40)\n      dup1\n      swap2\n      sub\n      swap1\n      revert\n        /* \"v2/contracts/SoulSocietySBT.sol\":3962:4079  if (!_getApprovalGrowth(to_, tokenId_)) {... */\n    tag_228:\n        /* \"v2/contracts/SoulSocietySBT.sol\":4088:4119  _setGrowthToZero(to_, tokenId_) */\n      tag_231\n        /* \"v2/contracts/SoulSocietySBT.sol\":4105:4108  to_ */\n      dup3\n        /* \"v2/contracts/SoulSocietySBT.sol\":4110:4118  tokenId_ */\n      dup3\n        /* \"v2/contracts/SoulSocietySBT.sol\":4088:4104  _setGrowthToZero */\n      tag_232\n        /* \"v2/contracts/SoulSocietySBT.sol\":4088:4119  _setGrowthToZero(to_, tokenId_) */\n      jump\t// in\n    tag_231:\n        /* \"v2/contracts/SoulSocietySBT.sol\":3886:4126  function reset(address to_, uint256 tokenId_) external onlyOwner  {... */\n      pop\n      pop\n      jump\t// out\n        /* \"v2/contracts/SoulSocietySBT.sol\":7846:7975  function setApprovalForAll(address , bool ) external pure {... */\n    tag_118:\n        /* \"v2/contracts/SoulSocietySBT.sol\":7921:7968  SoulSocietySBTNotSupported(\"setApprovalForAll\") */\n      mload(0x40)\n      0x9fc6e75800000000000000000000000000000000000000000000000000000000\n      dup2\n      mstore\n      0x04\n      add\n      tag_234\n      swap1\n      tag_235\n      jump\t// in\n    tag_234:\n      mload(0x40)\n      dup1\n      swap2\n      sub\n      swap1\n      revert\n        /* \"v2/contracts/SoulSocietySBT.sol\":7274:7439  function safeTransferFrom(address , address , uint256 , bytes calldata) external pure {... */\n    tag_122:\n        /* \"v2/contracts/SoulSocietySBT.sol\":7386:7432  SoulSocietySBTNotSupported(\"safeTransferFrom\") */\n      mload(0x40)\n      0x9fc6e75800000000000000000000000000000000000000000000000000000000\n      dup2\n      mstore\n      0x04\n      add\n      tag_237\n      swap1\n      tag_199\n      jump\t// in\n    tag_237:\n      mload(0x40)\n      dup1\n      swap2\n      sub\n      swap1\n      revert\n        /* \"v2/contracts/SoulSocietySBT.sol\":4178:4435  function growUp(address to_, uint256 tokenId_) external  onlyOwner returns(uint256) {... */\n    tag_125:\n        /* \"v2/contracts/SoulSocietySBT.sol\":4253:4260  uint256 */\n      0x00\n        /* \"@openzeppelin/contracts/access/Ownable.sol\":1094:1107  _checkOwner() */\n      tag_239\n        /* \"@openzeppelin/contracts/access/Ownable.sol\":1094:1105  _checkOwner */\n      tag_188\n        /* \"@openzeppelin/contracts/access/Ownable.sol\":1094:1107  _checkOwner() */\n      jump\t// in\n    tag_239:\n        /* \"v2/contracts/SoulSocietySBT.sol\":4277:4310  _getApprovalGrowth(to_, tokenId_) */\n      tag_241\n        /* \"v2/contracts/SoulSocietySBT.sol\":4296:4299  to_ */\n      dup4\n        /* \"v2/contracts/SoulSocietySBT.sol\":4301:4309  tokenId_ */\n      dup4\n        /* \"v2/contracts/SoulSocietySBT.sol\":4277:4295  _getApprovalGrowth */\n      tag_227\n        /* \"v2/contracts/SoulSocietySBT.sol\":4277:4310  _getApprovalGrowth(to_, tokenId_) */\n      jump\t// in\n    tag_241:\n        /* \"v2/contracts/SoulSocietySBT.sol\":4272:4389  if (!_getApprovalGrowth(to_, tokenId_)) {... */\n      tag_242\n      jumpi\n        /* \"v2/contracts/SoulSocietySBT.sol\":4364:4367  to_ */\n      dup3\n        /* \"v2/contracts/SoulSocietySBT.sol\":4369:4377  tokenId_ */\n      dup3\n        /* \"v2/contracts/SoulSocietySBT.sol\":4333:4378  SoulSocietySBTPermissionDenied(to_, tokenId_) */\n      mload(0x40)\n      0x9960858d00000000000000000000000000000000000000000000000000000000\n      dup2\n      mstore\n      0x04\n      add\n      tag_243\n      swap3\n      swap2\n      swap1\n      tag_230\n      jump\t// in\n    tag_243:\n      mload(0x40)\n      dup1\n      swap2\n      sub\n      swap1\n      revert\n        /* \"v2/contracts/SoulSocietySBT.sol\":4272:4389  if (!_getApprovalGrowth(to_, tokenId_)) {... */\n    tag_242:\n        /* \"v2/contracts/SoulSocietySBT.sol\":4406:4428  _growUp(to_, tokenId_) */\n      tag_244\n        /* \"v2/contracts/SoulSocietySBT.sol\":4414:4417  to_ */\n      dup4\n        /* \"v2/contracts/SoulSocietySBT.sol\":4419:4427  tokenId_ */\n      dup4\n        /* \"v2/contracts/SoulSocietySBT.sol\":4406:4413  _growUp */\n      tag_245\n        /* \"v2/contracts/SoulSocietySBT.sol\":4406:4428  _growUp(to_, tokenId_) */\n      jump\t// in\n    tag_244:\n        /* \"v2/contracts/SoulSocietySBT.sol\":4399:4428  return _growUp(to_, tokenId_) */\n      swap1\n      pop\n        /* \"v2/contracts/SoulSocietySBT.sol\":4178:4435  function growUp(address to_, uint256 tokenId_) external  onlyOwner returns(uint256) {... */\n      swap3\n      swap2\n      pop\n      pop\n      jump\t// out\n        /* \"v2/contracts/SoulSocietySBT.sol\":4811:5124  function tokenURI(uint256 tokenId_) external view virtual  returns (string memory) {    ... */\n    tag_129:\n        /* \"v2/contracts/SoulSocietySBT.sol\":4879:4892  string memory */\n      0x60\n        /* \"v2/contracts/SoulSocietySBT.sol\":4943:4972  _isProtectedTokenId(tokenId_) */\n      tag_247\n        /* \"v2/contracts/SoulSocietySBT.sol\":4963:4971  tokenId_ */\n      dup3\n        /* \"v2/contracts/SoulSocietySBT.sol\":4943:4962  _isProtectedTokenId */\n      tag_202\n        /* \"v2/contracts/SoulSocietySBT.sol\":4943:4972  _isProtectedTokenId(tokenId_) */\n      jump\t// in\n    tag_247:\n        /* \"v2/contracts/SoulSocietySBT.sol\":5011:5012  0 */\n      0x00\n        /* \"v2/contracts/SoulSocietySBT.sol\":4996:5000  _uri */\n      0x01\n        /* \"v2/contracts/SoulSocietySBT.sol\":4990:5008  bytes(_uri).length */\n      dup1\n      sload\n      tag_248\n      swap1\n      tag_249\n      jump\t// in\n    tag_248:\n      swap1\n      pop\n        /* \"v2/contracts/SoulSocietySBT.sol\":4990:5012  bytes(_uri).length > 0 */\n      gt\n        /* \"v2/contracts/SoulSocietySBT.sol\":4990:5109  bytes(_uri).length > 0 ? string(abi.encodePacked(_uri, tokenId_.toString(), \"?tokenType=\", _tokenTypes[tokenId_])) : \"\" */\n      tag_250\n      jumpi\n      mload(0x40)\n      dup1\n      0x20\n      add\n      0x40\n      mstore\n      dup1\n      0x00\n      dup2\n      mstore\n      pop\n      jump(tag_251)\n    tag_250:\n        /* \"v2/contracts/SoulSocietySBT.sol\":5039:5043  _uri */\n      0x01\n        /* \"v2/contracts/SoulSocietySBT.sol\":5045:5064  tokenId_.toString() */\n      tag_252\n        /* \"v2/contracts/SoulSocietySBT.sol\":5045:5053  tokenId_ */\n      dup4\n        /* \"v2/contracts/SoulSocietySBT.sol\":5045:5062  tokenId_.toString */\n      tag_253\n        /* \"v2/contracts/SoulSocietySBT.sol\":5045:5064  tokenId_.toString() */\n      jump\t// in\n    tag_252:\n        /* \"v2/contracts/SoulSocietySBT.sol\":5081:5092  _tokenTypes */\n      0x05\n        /* \"v2/contracts/SoulSocietySBT.sol\":5081:5102  _tokenTypes[tokenId_] */\n      0x00\n        /* \"v2/contracts/SoulSocietySBT.sol\":5093:5101  tokenId_ */\n      dup6\n        /* \"v2/contracts/SoulSocietySBT.sol\":5081:5102  _tokenTypes[tokenId_] */\n      dup2\n      mstore\n      0x20\n      add\n      swap1\n      dup2\n      mstore\n      0x20\n      add\n      0x00\n      keccak256\n      sload\n        /* \"v2/contracts/SoulSocietySBT.sol\":5022:5103  abi.encodePacked(_uri, tokenId_.toString(), \"?tokenType=\", _tokenTypes[tokenId_]) */\n      add(0x20, mload(0x40))\n      tag_254\n      swap4\n      swap3\n      swap2\n      swap1\n      tag_255\n      jump\t// in\n    tag_254:\n      mload(0x40)\n      0x20\n      dup2\n      dup4\n      sub\n      sub\n      dup2\n      mstore\n      swap1\n      0x40\n      mstore\n        /* \"v2/contracts/SoulSocietySBT.sol\":4990:5109  bytes(_uri).length > 0 ? string(abi.encodePacked(_uri, tokenId_.toString(), \"?tokenType=\", _tokenTypes[tokenId_])) : \"\" */\n    tag_251:\n        /* \"v2/contracts/SoulSocietySBT.sol\":4983:5109  return bytes(_uri).length > 0 ? string(abi.encodePacked(_uri, tokenId_.toString(), \"?tokenType=\", _tokenTypes[tokenId_])) : \"\" */\n      swap1\n      pop\n        /* \"v2/contracts/SoulSocietySBT.sol\":4811:5124  function tokenURI(uint256 tokenId_) external view virtual  returns (string memory) {    ... */\n      swap2\n      swap1\n      pop\n      jump\t// out\n        /* \"v2/contracts/SoulSocietySBT.sol\":5486:5590  function isProtected(address to_) external view returns (bool) {... */\n    tag_133:\n        /* \"v2/contracts/SoulSocietySBT.sol\":5543:5547  bool */\n      0x00\n        /* \"v2/contracts/SoulSocietySBT.sol\":5566:5583  _isProtected(to_) */\n      tag_257\n        /* \"v2/contracts/SoulSocietySBT.sol\":5579:5582  to_ */\n      dup3\n        /* \"v2/contracts/SoulSocietySBT.sol\":5566:5578  _isProtected */\n      tag_179\n        /* \"v2/contracts/SoulSocietySBT.sol\":5566:5583  _isProtected(to_) */\n      jump\t// in\n    tag_257:\n        /* \"v2/contracts/SoulSocietySBT.sol\":5559:5583  return _isProtected(to_) */\n      swap1\n      pop\n        /* \"v2/contracts/SoulSocietySBT.sol\":5486:5590  function isProtected(address to_) external view returns (bool) {... */\n      swap2\n      swap1\n      pop\n      jump\t// out\n        /* \"v2/contracts/SoulSocietySBT.sol\":2400:2593  function setTokenURI(string memory tokenURI_) external onlyOwner returns(string memory) {... */\n    tag_138:\n        /* \"v2/contracts/SoulSocietySBT.sol\":2473:2486  string memory */\n      0x60\n        /* \"@openzeppelin/contracts/access/Ownable.sol\":1094:1107  _checkOwner() */\n      tag_259\n        /* \"@openzeppelin/contracts/access/Ownable.sol\":1094:1105  _checkOwner */\n      tag_188\n        /* \"@openzeppelin/contracts/access/Ownable.sol\":1094:1107  _checkOwner() */\n      jump\t// in\n    tag_259:\n        /* \"v2/contracts/SoulSocietySBT.sol\":2505:2514  tokenURI_ */\n      dup2\n        /* \"v2/contracts/SoulSocietySBT.sol\":2498:2502  _uri */\n      0x01\n        /* \"v2/contracts/SoulSocietySBT.sol\":2498:2514  _uri = tokenURI_ */\n      swap1\n      dup2\n      tag_261\n      swap2\n      swap1\n      tag_262\n      jump\t// in\n    tag_261:\n      pop\n        /* \"v2/contracts/SoulSocietySBT.sol\":2542:2552  msg.sender */\n      caller\n        /* \"v2/contracts/SoulSocietySBT.sol\":2530:2564  SetTokenURI(msg.sender, tokenURI_) */\n      0xffffffffffffffffffffffffffffffffffffffff\n      and\n      0x70e6a9dc20d331ce8e747d7de8444f26f544d9003beb11d8c46e802ab8d36fc9\n        /* \"v2/contracts/SoulSocietySBT.sol\":2554:2563  tokenURI_ */\n      dup4\n        /* \"v2/contracts/SoulSocietySBT.sol\":2530:2564  SetTokenURI(msg.sender, tokenURI_) */\n      mload(0x40)\n      tag_263\n      swap2\n      swap1\n      tag_48\n      jump\t// in\n    tag_263:\n      mload(0x40)\n      dup1\n      swap2\n      sub\n      swap1\n      log2\n        /* \"v2/contracts/SoulSocietySBT.sol\":2582:2586  _uri */\n      0x01\n        /* \"v2/contracts/SoulSocietySBT.sol\":2575:2586  return _uri */\n      dup1\n      sload\n      tag_264\n      swap1\n      tag_249\n      jump\t// in\n    tag_264:\n      dup1\n      0x1f\n      add\n      0x20\n      dup1\n      swap2\n      div\n      mul\n      0x20\n      add\n      mload(0x40)\n      swap1\n      dup2\n      add\n      0x40\n      mstore\n      dup1\n      swap3\n      swap2\n      swap1\n      dup2\n      dup2\n      mstore\n      0x20\n      add\n      dup3\n      dup1\n      sload\n      tag_265\n      swap1\n      tag_249\n      jump\t// in\n    tag_265:\n      dup1\n      iszero\n      tag_266\n      jumpi\n      dup1\n      0x1f\n      lt\n      tag_267\n      jumpi\n      0x0100\n      dup1\n      dup4\n      sload\n      div\n      mul\n      dup4\n      mstore\n      swap2\n      0x20\n      add\n      swap2\n      jump(tag_266)\n    tag_267:\n      dup3\n      add\n      swap2\n      swap1\n      0x00\n      mstore\n      keccak256(0x00, 0x20)\n      swap1\n    tag_268:\n      dup2\n      sload\n      dup2\n      mstore\n      swap1\n      0x01\n      add\n      swap1\n      0x20\n      add\n      dup1\n      dup4\n      gt\n      tag_268\n      jumpi\n      dup3\n      swap1\n      sub\n      0x1f\n      and\n      dup3\n      add\n      swap2\n    tag_266:\n      pop\n      pop\n      pop\n      pop\n      pop\n      swap1\n      pop\n        /* \"v2/contracts/SoulSocietySBT.sol\":2400:2593  function setTokenURI(string memory tokenURI_) external onlyOwner returns(string memory) {... */\n      swap2\n      swap1\n      pop\n      jump\t// out\n        /* \"v2/contracts/SoulSocietySBT.sol\":5130:5218  function totalUser() external view  returns (uint256) {... */\n    tag_141:\n        /* \"v2/contracts/SoulSocietySBT.sol\":5175:5182  uint256 */\n      0x00\n        /* \"v2/contracts/SoulSocietySBT.sol\":5201:5211  _totalUser */\n      sload(0x02)\n        /* \"v2/contracts/SoulSocietySBT.sol\":5194:5211  return _totalUser */\n      swap1\n      pop\n        /* \"v2/contracts/SoulSocietySBT.sol\":5130:5218  function totalUser() external view  returns (uint256) {... */\n      swap1\n      jump\t// out\n        /* \"v2/contracts/SoulSocietySBT.sol\":8117:8262  function isApprovedForAll(address , address ) external pure returns (bool) {... */\n    tag_146:\n        /* \"v2/contracts/SoulSocietySBT.sol\":8186:8190  bool */\n      0x00\n        /* \"v2/contracts/SoulSocietySBT.sol\":8209:8255  SoulSocietySBTNotSupported(\"isApprovedForAll\") */\n      mload(0x40)\n      0x9fc6e75800000000000000000000000000000000000000000000000000000000\n      dup2\n      mstore\n      0x04\n      add\n      tag_271\n      swap1\n      tag_272\n      jump\t// in\n    tag_271:\n      mload(0x40)\n      dup1\n      swap2\n      sub\n      swap1\n      revert\n        /* \"@openzeppelin/contracts/access/Ownable.sol\":2074:2272  function transferOwnership(address newOwner) public virtual onlyOwner {... */\n    tag_150:\n        /* \"@openzeppelin/contracts/access/Ownable.sol\":1094:1107  _checkOwner() */\n      tag_274\n        /* \"@openzeppelin/contracts/access/Ownable.sol\":1094:1105  _checkOwner */\n      tag_188\n        /* \"@openzeppelin/contracts/access/Ownable.sol\":1094:1107  _checkOwner() */\n      jump\t// in\n    tag_274:\n        /* \"@openzeppelin/contracts/access/Ownable.sol\":2182:2183  0 */\n      0x00\n        /* \"@openzeppelin/contracts/access/Ownable.sol\":2162:2184  newOwner != address(0) */\n      0xffffffffffffffffffffffffffffffffffffffff\n      and\n        /* \"@openzeppelin/contracts/access/Ownable.sol\":2162:2170  newOwner */\n      dup2\n        /* \"@openzeppelin/contracts/access/Ownable.sol\":2162:2184  newOwner != address(0) */\n      0xffffffffffffffffffffffffffffffffffffffff\n      and\n      sub\n        /* \"@openzeppelin/contracts/access/Ownable.sol\":2154:2227  require(newOwner != address(0), \"Ownable: new owner is the zero address\") */\n      tag_276\n      jumpi\n      mload(0x40)\n      0x08c379a000000000000000000000000000000000000000000000000000000000\n      dup2\n      mstore\n      0x04\n      add\n      tag_277\n      swap1\n      tag_278\n      jump\t// in\n    tag_277:\n      mload(0x40)\n      dup1\n      swap2\n      sub\n      swap1\n      revert\n    tag_276:\n        /* \"@openzeppelin/contracts/access/Ownable.sol\":2237:2265  _transferOwnership(newOwner) */\n      tag_279\n        /* \"@openzeppelin/contracts/access/Ownable.sol\":2256:2264  newOwner */\n      dup2\n        /* \"@openzeppelin/contracts/access/Ownable.sol\":2237:2255  _transferOwnership */\n      tag_212\n        /* \"@openzeppelin/contracts/access/Ownable.sol\":2237:2265  _transferOwnership(newOwner) */\n      jump\t// in\n    tag_279:\n        /* \"@openzeppelin/contracts/access/Ownable.sol\":2074:2272  function transferOwnership(address newOwner) public virtual onlyOwner {... */\n      pop\n      jump\t// out\n        /* \"v2/contracts/SoulSocietySBT.sol\":5596:5746  function getApprovalGrowth(address owner_, uint256 tokenId_ ) external view returns(bool) {... */\n    tag_153:\n        /* \"v2/contracts/SoulSocietySBT.sol\":5680:5684  bool */\n      0x00\n        /* \"v2/contracts/SoulSocietySBT.sol\":5703:5739  _getApprovalGrowth(owner_, tokenId_) */\n      tag_281\n        /* \"v2/contracts/SoulSocietySBT.sol\":5722:5728  owner_ */\n      dup4\n        /* \"v2/contracts/SoulSocietySBT.sol\":5730:5738  tokenId_ */\n      dup4\n        /* \"v2/contracts/SoulSocietySBT.sol\":5703:5721  _getApprovalGrowth */\n      tag_227\n        /* \"v2/contracts/SoulSocietySBT.sol\":5703:5739  _getApprovalGrowth(owner_, tokenId_) */\n      jump\t// in\n    tag_281:\n        /* \"v2/contracts/SoulSocietySBT.sol\":5696:5739  return _getApprovalGrowth(owner_, tokenId_) */\n      swap1\n      pop\n        /* \"v2/contracts/SoulSocietySBT.sol\":5596:5746  function getApprovalGrowth(address owner_, uint256 tokenId_ ) external view returns(bool) {... */\n      swap3\n      swap2\n      pop\n      pop\n      jump\t// out\n        /* \"@openzeppelin/contracts/utils/introspection/ERC165.sol\":829:984  function supportsInterface(bytes4 interfaceId) public view virtual override returns (bool) {... */\n    tag_158:\n        /* \"@openzeppelin/contracts/utils/introspection/ERC165.sol\":914:918  bool */\n      0x00\n        /* \"@openzeppelin/contracts/utils/introspection/ERC165.sol\":952:977  type(IERC165).interfaceId */\n      0x01ffc9a700000000000000000000000000000000000000000000000000000000\n        /* \"@openzeppelin/contracts/utils/introspection/ERC165.sol\":937:977  interfaceId == type(IERC165).interfaceId */\n      not(0xffffffffffffffffffffffffffffffffffffffffffffffffffffffff)\n      and\n        /* \"@openzeppelin/contracts/utils/introspection/ERC165.sol\":937:948  interfaceId */\n      dup3\n        /* \"@openzeppelin/contracts/utils/introspection/ERC165.sol\":937:977  interfaceId == type(IERC165).interfaceId */\n      not(0xffffffffffffffffffffffffffffffffffffffffffffffffffffffff)\n      and\n      eq\n        /* \"@openzeppelin/contracts/utils/introspection/ERC165.sol\":930:977  return interfaceId == type(IERC165).interfaceId */\n      swap1\n      pop\n        /* \"@openzeppelin/contracts/utils/introspection/ERC165.sol\":829:984  function supportsInterface(bytes4 interfaceId) public view virtual override returns (bool) {... */\n      swap2\n      swap1\n      pop\n      jump\t// out\n        /* \"v2/contracts/SoulSocietySBT.sol\":11781:11894  function _balanceOf(address owner_) internal view returns (uint256) {... */\n    tag_169:\n        /* \"v2/contracts/SoulSocietySBT.sol\":11840:11847  uint256 */\n      0x00\n        /* \"v2/contracts/SoulSocietySBT.sol\":11870:11879  _balances */\n      0x07\n        /* \"v2/contracts/SoulSocietySBT.sol\":11870:11887  _balances[owner_] */\n      0x00\n        /* \"v2/contracts/SoulSocietySBT.sol\":11880:11886  owner_ */\n      dup4\n        /* \"v2/contracts/SoulSocietySBT.sol\":11870:11887  _balances[owner_] */\n      0xffffffffffffffffffffffffffffffffffffffff\n      and\n      0xffffffffffffffffffffffffffffffffffffffff\n      and\n      dup2\n      mstore\n      0x20\n      add\n      swap1\n      dup2\n      mstore\n      0x20\n      add\n      0x00\n      keccak256\n      sload\n        /* \"v2/contracts/SoulSocietySBT.sol\":11863:11887  return _balances[owner_] */\n      swap1\n      pop\n        /* \"v2/contracts/SoulSocietySBT.sol\":11781:11894  function _balanceOf(address owner_) internal view returns (uint256) {... */\n      swap2\n      swap1\n      pop\n      jump\t// out\n        /* \"v2/contracts/SoulSocietySBT.sol\":10462:10567  function getProtected(address to_) internal view returns(bool) {... */\n    tag_173:\n        /* \"v2/contracts/SoulSocietySBT.sol\":10519:10523  bool */\n      0x00\n        /* \"v2/contracts/SoulSocietySBT.sol\":10542:10560  _getProtected(to_) */\n      tag_285\n        /* \"v2/contracts/SoulSocietySBT.sol\":10556:10559  to_ */\n      dup3\n        /* \"v2/contracts/SoulSocietySBT.sol\":10542:10555  _getProtected */\n      tag_286\n        /* \"v2/contracts/SoulSocietySBT.sol\":10542:10560  _getProtected(to_) */\n      jump\t// in\n    tag_285:\n        /* \"v2/contracts/SoulSocietySBT.sol\":10535:10560  return _getProtected(to_) */\n      swap1\n      pop\n        /* \"v2/contracts/SoulSocietySBT.sol\":10462:10567  function getProtected(address to_) internal view returns(bool) {... */\n      swap2\n      swap1\n      pop\n      jump\t// out\n        /* \"v2/contracts/SoulSocietySBT.sol\":10744:10949  function _isProtected(address to_) internal view returns (bool) {        ... */\n    tag_179:\n        /* \"v2/contracts/SoulSocietySBT.sol\":10802:10806  bool */\n      0x00\n        /* \"v2/contracts/SoulSocietySBT.sol\":10852:10856  true */\n      0x01\n        /* \"v2/contracts/SoulSocietySBT.sol\":10830:10856  _userProtects[to_] == true */\n      iszero\n      iszero\n        /* \"v2/contracts/SoulSocietySBT.sol\":10830:10843  _userProtects */\n      0x08\n        /* \"v2/contracts/SoulSocietySBT.sol\":10830:10848  _userProtects[to_] */\n      0x00\n        /* \"v2/contracts/SoulSocietySBT.sol\":10844:10847  to_ */\n      dup5\n        /* \"v2/contracts/SoulSocietySBT.sol\":10830:10848  _userProtects[to_] */\n      0xffffffffffffffffffffffffffffffffffffffff\n      and\n      0xffffffffffffffffffffffffffffffffffffffff\n      and\n      dup2\n      mstore\n      0x20\n      add\n      swap1\n      dup2\n      mstore\n      0x20\n      add\n      0x00\n      keccak256\n      0x00\n      swap1\n      sload\n      swap1\n      0x0100\n      exp\n      swap1\n      div\n      0xff\n      and\n        /* \"v2/contracts/SoulSocietySBT.sol\":10830:10856  _userProtects[to_] == true */\n      iszero\n      iszero\n      sub\n        /* \"v2/contracts/SoulSocietySBT.sol\":10826:10910  if (_userProtects[to_] == true)... */\n      tag_288\n      jumpi\n        /* \"v2/contracts/SoulSocietySBT.sol\":10906:10909  to_ */\n      dup2\n        /* \"v2/contracts/SoulSocietySBT.sol\":10877:10910  SoulSocietySBTProtectedOwner(to_) */\n      mload(0x40)\n      0x904e928b00000000000000000000000000000000000000000000000000000000\n      dup2\n      mstore\n      0x04\n      add\n      tag_289\n      swap2\n      swap1\n      tag_54\n      jump\t// in\n    tag_289:\n      mload(0x40)\n      dup1\n      swap2\n      sub\n      swap1\n      revert\n        /* \"v2/contracts/SoulSocietySBT.sol\":10826:10910  if (_userProtects[to_] == true)... */\n    tag_288:\n        /* \"v2/contracts/SoulSocietySBT.sol\":10936:10941  false */\n      0x00\n        /* \"v2/contracts/SoulSocietySBT.sol\":10929:10941  return false */\n      swap1\n      pop\n        /* \"v2/contracts/SoulSocietySBT.sol\":10744:10949  function _isProtected(address to_) internal view returns (bool) {        ... */\n      swap2\n      swap1\n      pop\n      jump\t// out\n        /* \"@openzeppelin/contracts/access/Ownable.sol\":1359:1489  function _checkOwner() internal view virtual {... */\n    tag_188:\n        /* \"@openzeppelin/contracts/access/Ownable.sol\":1433:1445  _msgSender() */\n      tag_291\n        /* \"@openzeppelin/contracts/access/Ownable.sol\":1433:1443  _msgSender */\n      tag_292\n        /* \"@openzeppelin/contracts/access/Ownable.sol\":1433:1445  _msgSender() */\n      jump\t// in\n    tag_291:\n        /* \"@openzeppelin/contracts/access/Ownable.sol\":1422:1445  owner() == _msgSender() */\n      0xffffffffffffffffffffffffffffffffffffffff\n      and\n        /* \"@openzeppelin/contracts/access/Ownable.sol\":1422:1429  owner() */\n      tag_293\n        /* \"@openzeppelin/contracts/access/Ownable.sol\":1422:1427  owner */\n      tag_107\n        /* \"@openzeppelin/contracts/access/Ownable.sol\":1422:1429  owner() */\n      jump\t// in\n    tag_293:\n        /* \"@openzeppelin/contracts/access/Ownable.sol\":1422:1445  owner() == _msgSender() */\n      0xffffffffffffffffffffffffffffffffffffffff\n      and\n      eq\n        /* \"@openzeppelin/contracts/access/Ownable.sol\":1414:1482  require(owner() == _msgSender(), \"Ownable: caller is not the owner\") */\n      tag_294\n      jumpi\n      mload(0x40)\n      0x08c379a000000000000000000000000000000000000000000000000000000000\n      dup2\n      mstore\n      0x04\n      add\n      tag_295\n      swap1\n      tag_296\n      jump\t// in\n    tag_295:\n      mload(0x40)\n      dup1\n      swap2\n      sub\n      swap1\n      revert\n    tag_294:\n        /* \"@openzeppelin/contracts/access/Ownable.sol\":1359:1489  function _checkOwner() internal view virtual {... */\n      jump\t// out\n        /* \"v2/contracts/SoulSocietySBT.sol\":8600:9845  function _safeMint(address to_, uint256 tokenType_) internal virtual returns(uint256) {... */\n    tag_191:\n        /* \"v2/contracts/SoulSocietySBT.sol\":8677:8684  uint256 */\n      0x00\n        /* \"v2/contracts/SoulSocietySBT.sol\":8696:8711  uint256 tokenId */\n      dup1\n        /* \"v2/contracts/SoulSocietySBT.sol\":8728:8729  1 */\n      0x01\n        /* \"v2/contracts/SoulSocietySBT.sol\":8714:8725  _totalCount */\n      sload(0x03)\n        /* \"v2/contracts/SoulSocietySBT.sol\":8714:8729  _totalCount + 1 */\n      tag_298\n      swap2\n      swap1\n      tag_299\n      jump\t// in\n    tag_298:\n        /* \"v2/contracts/SoulSocietySBT.sol\":8696:8729  uint256 tokenId = _totalCount + 1 */\n      swap1\n      pop\n        /* \"v2/contracts/SoulSocietySBT.sol\":8763:8764  0 */\n      0x00\n        /* \"v2/contracts/SoulSocietySBT.sol\":8748:8765  to_ == address(0) */\n      0xffffffffffffffffffffffffffffffffffffffff\n      and\n        /* \"v2/contracts/SoulSocietySBT.sol\":8748:8751  to_ */\n      dup5\n        /* \"v2/contracts/SoulSocietySBT.sol\":8748:8765  to_ == address(0) */\n      0xffffffffffffffffffffffffffffffffffffffff\n      and\n      sub\n        /* \"v2/contracts/SoulSocietySBT.sol\":8744:8840  if (to_ == address(0)) {... */\n      tag_300\n      jumpi\n        /* \"v2/contracts/SoulSocietySBT.sol\":8826:8827  0 */\n      0x00\n        /* \"v2/contracts/SoulSocietySBT.sol\":8788:8829  SoulSocietySBTInvalidReceiver(address(0)) */\n      mload(0x40)\n      0x74f5e87d00000000000000000000000000000000000000000000000000000000\n      dup2\n      mstore\n      0x04\n      add\n      tag_301\n      swap2\n      swap1\n      tag_54\n      jump\t// in\n    tag_301:\n      mload(0x40)\n      dup1\n      swap2\n      sub\n      swap1\n      revert\n        /* \"v2/contracts/SoulSocietySBT.sol\":8744:8840  if (to_ == address(0)) {... */\n    tag_300:\n        /* \"v2/contracts/SoulSocietySBT.sol\":8854:8870  _exists(tokenId) */\n      tag_302\n        /* \"v2/contracts/SoulSocietySBT.sol\":8862:8869  tokenId */\n      dup2\n        /* \"v2/contracts/SoulSocietySBT.sol\":8854:8861  _exists */\n      tag_303\n        /* \"v2/contracts/SoulSocietySBT.sol\":8854:8870  _exists(tokenId) */\n      jump\t// in\n    tag_302:\n        /* \"v2/contracts/SoulSocietySBT.sol\":8850:8937  if (_exists(tokenId)) {... */\n      iszero\n      tag_304\n      jumpi\n        /* \"v2/contracts/SoulSocietySBT.sol\":8918:8925  tokenId */\n      dup1\n        /* \"v2/contracts/SoulSocietySBT.sol\":8893:8926  SoulSocietySBTExistToken(tokenId) */\n      mload(0x40)\n      0xf342bdc200000000000000000000000000000000000000000000000000000000\n      dup2\n      mstore\n      0x04\n      add\n      tag_305\n      swap2\n      swap1\n      tag_62\n      jump\t// in\n    tag_305:\n      mload(0x40)\n      dup1\n      swap2\n      sub\n      swap1\n      revert\n        /* \"v2/contracts/SoulSocietySBT.sol\":8850:8937  if (_exists(tokenId)) {... */\n    tag_304:\n        /* \"v2/contracts/SoulSocietySBT.sol\":9002:9019  _existsOwner(to_) */\n      tag_306\n        /* \"v2/contracts/SoulSocietySBT.sol\":9015:9018  to_ */\n      dup5\n        /* \"v2/contracts/SoulSocietySBT.sol\":9002:9014  _existsOwner */\n      tag_307\n        /* \"v2/contracts/SoulSocietySBT.sol\":9002:9019  _existsOwner(to_) */\n      jump\t// in\n    tag_306:\n        /* \"v2/contracts/SoulSocietySBT.sol\":8998:9061  if(!_existsOwner(to_)) {... */\n      tag_308\n      jumpi\n        /* \"v2/contracts/SoulSocietySBT.sol\":9049:9050  1 */\n      0x01\n        /* \"v2/contracts/SoulSocietySBT.sol\":9035:9045  _totalUser */\n      0x02\n      0x00\n        /* \"v2/contracts/SoulSocietySBT.sol\":9035:9050  _totalUser += 1 */\n      dup3\n      dup3\n      sload\n      tag_309\n      swap2\n      swap1\n      tag_299\n      jump\t// in\n    tag_309:\n      swap3\n      pop\n      pop\n      dup2\n      swap1\n      sstore\n      pop\n        /* \"v2/contracts/SoulSocietySBT.sol\":8998:9061  if(!_existsOwner(to_)) {... */\n    tag_308:\n        /* \"v2/contracts/SoulSocietySBT.sol\":9404:9405  1 */\n      0x01\n        /* \"v2/contracts/SoulSocietySBT.sol\":9386:9395  _balances */\n      0x07\n        /* \"v2/contracts/SoulSocietySBT.sol\":9386:9400  _balances[to_] */\n      0x00\n        /* \"v2/contracts/SoulSocietySBT.sol\":9396:9399  to_ */\n      dup7\n        /* \"v2/contracts/SoulSocietySBT.sol\":9386:9400  _balances[to_] */\n      0xffffffffffffffffffffffffffffffffffffffff\n      and\n      0xffffffffffffffffffffffffffffffffffffffff\n      and\n      dup2\n      mstore\n      0x20\n      add\n      swap1\n      dup2\n      mstore\n      0x20\n      add\n      0x00\n      keccak256\n      0x00\n        /* \"v2/contracts/SoulSocietySBT.sol\":9386:9405  _balances[to_] += 1 */\n      dup3\n      dup3\n      sload\n      add\n      swap3\n      pop\n      pop\n      dup2\n      swap1\n      sstore\n      pop\n        /* \"v2/contracts/SoulSocietySBT.sol\":9434:9435  1 */\n      0x01\n        /* \"v2/contracts/SoulSocietySBT.sol\":9419:9430  _totalCount */\n      0x03\n      0x00\n        /* \"v2/contracts/SoulSocietySBT.sol\":9419:9435  _totalCount += 1 */\n      dup3\n      dup3\n      sload\n      add\n      swap3\n      pop\n      pop\n      dup2\n      swap1\n      sstore\n      pop\n        /* \"v2/contracts/SoulSocietySBT.sol\":9488:9491  to_ */\n      dup4\n        /* \"v2/contracts/SoulSocietySBT.sol\":9469:9476  _owners */\n      0x04\n        /* \"v2/contracts/SoulSocietySBT.sol\":9469:9485  _owners[tokenId] */\n      0x00\n        /* \"v2/contracts/SoulSocietySBT.sol\":9477:9484  tokenId */\n      dup4\n        /* \"v2/contracts/SoulSocietySBT.sol\":9469:9485  _owners[tokenId] */\n      dup2\n      mstore\n      0x20\n      add\n      swap1\n      dup2\n      mstore\n      0x20\n      add\n      0x00\n      keccak256\n      0x00\n        /* \"v2/contracts/SoulSocietySBT.sol\":9469:9491  _owners[tokenId] = to_ */\n      0x0100\n      exp\n      dup2\n      sload\n      dup2\n      0xffffffffffffffffffffffffffffffffffffffff\n      mul\n      not\n      and\n      swap1\n      dup4\n      0xffffffffffffffffffffffffffffffffffffffff\n      and\n      mul\n      or\n      swap1\n      sstore\n      pop\n        /* \"v2/contracts/SoulSocietySBT.sol\":9524:9534  tokenType_ */\n      dup3\n        /* \"v2/contracts/SoulSocietySBT.sol\":9501:9512  _tokenTypes */\n      0x05\n        /* \"v2/contracts/SoulSocietySBT.sol\":9501:9521  _tokenTypes[tokenId] */\n      0x00\n        /* \"v2/contracts/SoulSocietySBT.sol\":9513:9520  tokenId */\n      dup4\n        /* \"v2/contracts/SoulSocietySBT.sol\":9501:9521  _tokenTypes[tokenId] */\n      dup2\n      mstore\n      0x20\n      add\n      swap1\n      dup2\n      mstore\n      0x20\n      add\n      0x00\n      keccak256\n        /* \"v2/contracts/SoulSocietySBT.sol\":9501:9534  _tokenTypes[tokenId] = tokenType_ */\n      dup2\n      swap1\n      sstore\n      pop\n        /* \"v2/contracts/SoulSocietySBT.sol\":9569:9570  1 */\n      0x01\n        /* \"v2/contracts/SoulSocietySBT.sol\":9544:9557  _tokenGrowths */\n      0x06\n        /* \"v2/contracts/SoulSocietySBT.sol\":9544:9566  _tokenGrowths[tokenId] */\n      0x00\n        /* \"v2/contracts/SoulSocietySBT.sol\":9558:9565  tokenId */\n      dup4\n        /* \"v2/contracts/SoulSocietySBT.sol\":9544:9566  _tokenGrowths[tokenId] */\n      dup2\n      mstore\n      0x20\n      add\n      swap1\n      dup2\n      mstore\n      0x20\n      add\n      0x00\n      keccak256\n        /* \"v2/contracts/SoulSocietySBT.sol\":9544:9570  _tokenGrowths[tokenId] = 1 */\n      dup2\n      swap1\n      sstore\n      pop\n        /* \"v2/contracts/SoulSocietySBT.sol\":9680:9684  true */\n      0x01\n        /* \"v2/contracts/SoulSocietySBT.sol\":9642:9663  _approvalUpdateGrowth */\n      0x0a\n        /* \"v2/contracts/SoulSocietySBT.sol\":9642:9668  _approvalUpdateGrowth[to_] */\n      0x00\n        /* \"v2/contracts/SoulSocietySBT.sol\":9664:9667  to_ */\n      dup7\n        /* \"v2/contracts/SoulSocietySBT.sol\":9642:9668  _approvalUpdateGrowth[to_] */\n      0xffffffffffffffffffffffffffffffffffffffff\n      and\n      0xffffffffffffffffffffffffffffffffffffffff\n      and\n      dup2\n      mstore\n      0x20\n      add\n      swap1\n      dup2\n      mstore\n      0x20\n      add\n      0x00\n      keccak256\n        /* \"v2/contracts/SoulSocietySBT.sol\":9642:9677  _approvalUpdateGrowth[to_][tokenId] */\n      0x00\n        /* \"v2/contracts/SoulSocietySBT.sol\":9669:9676  tokenId */\n      dup4\n        /* \"v2/contracts/SoulSocietySBT.sol\":9642:9677  _approvalUpdateGrowth[to_][tokenId] */\n      dup2\n      mstore\n      0x20\n      add\n      swap1\n      dup2\n      mstore\n      0x20\n      add\n      0x00\n      keccak256\n      0x00\n        /* \"v2/contracts/SoulSocietySBT.sol\":9642:9684  _approvalUpdateGrowth[to_][tokenId] = true */\n      0x0100\n      exp\n      dup2\n      sload\n      dup2\n      0xff\n      mul\n      not\n      and\n      swap1\n      dup4\n      iszero\n      iszero\n      mul\n      or\n      swap1\n      sstore\n      pop\n        /* \"v2/contracts/SoulSocietySBT.sol\":9732:9739  tokenId */\n      dup1\n        /* \"v2/contracts/SoulSocietySBT.sol\":9694:9706  _ownedTokens */\n      0x09\n        /* \"v2/contracts/SoulSocietySBT.sol\":9694:9711  _ownedTokens[to_] */\n      0x00\n        /* \"v2/contracts/SoulSocietySBT.sol\":9707:9710  to_ */\n      dup7\n        /* \"v2/contracts/SoulSocietySBT.sol\":9694:9711  _ownedTokens[to_] */\n      0xffffffffffffffffffffffffffffffffffffffff\n      and\n      0xffffffffffffffffffffffffffffffffffffffff\n      and\n      dup2\n      mstore\n      0x20\n      add\n      swap1\n      dup2\n      mstore\n      0x20\n      add\n      0x00\n      keccak256\n        /* \"v2/contracts/SoulSocietySBT.sol\":9694:9729  _ownedTokens[to_][_balances[to_]-1] */\n      0x00\n        /* \"v2/contracts/SoulSocietySBT.sol\":9727:9728  1 */\n      0x01\n        /* \"v2/contracts/SoulSocietySBT.sol\":9712:9721  _balances */\n      0x07\n        /* \"v2/contracts/SoulSocietySBT.sol\":9712:9726  _balances[to_] */\n      0x00\n        /* \"v2/contracts/SoulSocietySBT.sol\":9722:9725  to_ */\n      dup10\n        /* \"v2/contracts/SoulSocietySBT.sol\":9712:9726  _balances[to_] */\n      0xffffffffffffffffffffffffffffffffffffffff\n      and\n      0xffffffffffffffffffffffffffffffffffffffff\n      and\n      dup2\n      mstore\n      0x20\n      add\n      swap1\n      dup2\n      mstore\n      0x20\n      add\n      0x00\n      keccak256\n      sload\n        /* \"v2/contracts/SoulSocietySBT.sol\":9712:9728  _balances[to_]-1 */\n      tag_310\n      swap2\n      swap1\n      tag_311\n      jump\t// in\n    tag_310:\n        /* \"v2/contracts/SoulSocietySBT.sol\":9694:9729  _ownedTokens[to_][_balances[to_]-1] */\n      dup2\n      mstore\n      0x20\n      add\n      swap1\n      dup2\n      mstore\n      0x20\n      add\n      0x00\n      keccak256\n        /* \"v2/contracts/SoulSocietySBT.sol\":9694:9739  _ownedTokens[to_][_balances[to_]-1] = tokenId */\n      dup2\n      swap1\n      sstore\n      pop\n        /* \"v2/contracts/SoulSocietySBT.sol\":9802:9812  tokenType_ */\n      dup3\n        /* \"v2/contracts/SoulSocietySBT.sol\":9793:9800  tokenId */\n      dup2\n        /* \"v2/contracts/SoulSocietySBT.sol\":9788:9791  to_ */\n      dup6\n        /* \"v2/contracts/SoulSocietySBT.sol\":9771:9813  Mint(address(0), to_, tokenId, tokenType_) */\n      0xffffffffffffffffffffffffffffffffffffffff\n      and\n      0x2f00e3cdd69a77be7ed215ec7b2a36784dd158f921fca79ac29deffa353fe6ee\n        /* \"v2/contracts/SoulSocietySBT.sol\":9784:9785  0 */\n      0x00\n        /* \"v2/contracts/SoulSocietySBT.sol\":9771:9813  Mint(address(0), to_, tokenId, tokenType_) */\n      mload(0x40)\n      tag_312\n      swap2\n      swap1\n      tag_54\n      jump\t// in\n    tag_312:\n      mload(0x40)\n      dup1\n      swap2\n      sub\n      swap1\n      log4\n        /* \"v2/contracts/SoulSocietySBT.sol\":9831:9838  tokenId */\n      dup1\n        /* \"v2/contracts/SoulSocietySBT.sol\":9824:9838  return tokenId */\n      swap2\n      pop\n      pop\n        /* \"v2/contracts/SoulSocietySBT.sol\":8600:9845  function _safeMint(address to_, uint256 tokenType_) internal virtual returns(uint256) {... */\n      swap3\n      swap2\n      pop\n      pop\n      jump\t// out\n        /* \"v2/contracts/SoulSocietySBT.sol\":12982:13347  function _checkOnERC721Received(address from, address to, uint256 tokenId, bytes memory _data) private returns (bool)... */\n    tag_193:\n        /* \"v2/contracts/SoulSocietySBT.sol\":13094:13098  bool */\n      0x00\n        /* \"v2/contracts/SoulSocietySBT.sol\":13119:13133  isContract(to) */\n      tag_314\n        /* \"v2/contracts/SoulSocietySBT.sol\":13130:13132  to */\n      dup5\n        /* \"v2/contracts/SoulSocietySBT.sol\":13119:13129  isContract */\n      tag_315\n        /* \"v2/contracts/SoulSocietySBT.sol\":13119:13133  isContract(to) */\n      jump\t// in\n    tag_314:\n        /* \"v2/contracts/SoulSocietySBT.sol\":13114:13171  if (!isContract(to)) {... */\n      tag_316\n      jumpi\n        /* \"v2/contracts/SoulSocietySBT.sol\":13156:13160  true */\n      0x01\n        /* \"v2/contracts/SoulSocietySBT.sol\":13149:13160  return true */\n      swap1\n      pop\n      jump(tag_313)\n        /* \"v2/contracts/SoulSocietySBT.sol\":13114:13171  if (!isContract(to)) {... */\n    tag_316:\n        /* \"v2/contracts/SoulSocietySBT.sol\":13180:13193  bytes4 retval */\n      0x00\n        /* \"v2/contracts/SoulSocietySBT.sol\":13212:13214  to */\n      dup5\n        /* \"v2/contracts/SoulSocietySBT.sol\":13196:13232  IERC721Receiver(to).onERC721Received */\n      0xffffffffffffffffffffffffffffffffffffffff\n      and\n      0x150b7a02\n        /* \"v2/contracts/SoulSocietySBT.sol\":13233:13243  msg.sender */\n      caller\n        /* \"v2/contracts/SoulSocietySBT.sol\":13245:13249  from */\n      dup9\n        /* \"v2/contracts/SoulSocietySBT.sol\":13251:13258  tokenId */\n      dup8\n        /* \"v2/contracts/SoulSocietySBT.sol\":13260:13265  _data */\n      dup8\n        /* \"v2/contracts/SoulSocietySBT.sol\":13196:13266  IERC721Receiver(to).onERC721Received(msg.sender, from, tokenId, _data) */\n      mload(0x40)\n      dup6\n      0xffffffff\n      and\n      0xe0\n      shl\n      dup2\n      mstore\n      0x04\n      add\n      tag_317\n      swap5\n      swap4\n      swap3\n      swap2\n      swap1\n      tag_318\n      jump\t// in\n    tag_317:\n      0x20\n      mload(0x40)\n      dup1\n      dup4\n      sub\n      dup2\n      0x00\n      dup8\n      gas\n      call\n      iszero\n      dup1\n      iszero\n      tag_320\n      jumpi\n      returndatasize\n      0x00\n      dup1\n      returndatacopy\n      revert(0x00, returndatasize)\n    tag_320:\n      pop\n      pop\n      pop\n      pop\n      mload(0x40)\n      returndatasize\n      not(0x1f)\n      0x1f\n      dup3\n      add\n      and\n      dup3\n      add\n      dup1\n      0x40\n      mstore\n      pop\n      dup2\n      add\n      swap1\n      tag_321\n      swap2\n      swap1\n      tag_322\n      jump\t// in\n    tag_321:\n        /* \"v2/contracts/SoulSocietySBT.sol\":13180:13266  bytes4 retval = IERC721Receiver(to).onERC721Received(msg.sender, from, tokenId, _data) */\n      swap1\n      pop\n        /* \"v2/contracts/SoulSocietySBT.sol\":13294:13339  IERC721Receiver(to).onERC721Received.selector */\n      shl(0xe0, 0x150b7a02)\n        /* \"v2/contracts/SoulSocietySBT.sol\":13284:13339  retval == IERC721Receiver(to).onERC721Received.selector */\n      not(0xffffffffffffffffffffffffffffffffffffffffffffffffffffffff)\n      and\n        /* \"v2/contracts/SoulSocietySBT.sol\":13284:13290  retval */\n      dup2\n        /* \"v2/contracts/SoulSocietySBT.sol\":13284:13339  retval == IERC721Receiver(to).onERC721Received.selector */\n      not(0xffffffffffffffffffffffffffffffffffffffffffffffffffffffff)\n      and\n      eq\n        /* \"v2/contracts/SoulSocietySBT.sol\":13276:13340  return (retval == IERC721Receiver(to).onERC721Received.selector) */\n      swap2\n      pop\n      pop\n        /* \"v2/contracts/SoulSocietySBT.sol\":12982:13347  function _checkOnERC721Received(address from, address to, uint256 tokenId, bytes memory _data) private returns (bool)... */\n    tag_313:\n      swap5\n      swap4\n      pop\n      pop\n      pop\n      pop\n      jump\t// out\n        /* \"v2/contracts/SoulSocietySBT.sol\":10955:11247  function _isProtectedTokenId(uint256 tokenId_) internal view {... */\n    tag_202:\n        /* \"v2/contracts/SoulSocietySBT.sol\":11108:11125  _exists(tokenId_) */\n      tag_324\n        /* \"v2/contracts/SoulSocietySBT.sol\":11116:11124  tokenId_ */\n      dup2\n        /* \"v2/contracts/SoulSocietySBT.sol\":11108:11115  _exists */\n      tag_303\n        /* \"v2/contracts/SoulSocietySBT.sol\":11108:11125  _exists(tokenId_) */\n      jump\t// in\n    tag_324:\n        /* \"v2/contracts/SoulSocietySBT.sol\":11103:11199  if (!_exists(tokenId_)) {... */\n      tag_325\n      jumpi\n        /* \"v2/contracts/SoulSocietySBT.sol\":11179:11187  tokenId_ */\n      dup1\n        /* \"v2/contracts/SoulSocietySBT.sol\":11148:11188  SoulSocietySBTNonexistentToken(tokenId_) */\n      mload(0x40)\n      0x24476a3f00000000000000000000000000000000000000000000000000000000\n      dup2\n      mstore\n      0x04\n      add\n      tag_326\n      swap2\n      swap1\n      tag_62\n      jump\t// in\n    tag_326:\n      mload(0x40)\n      dup1\n      swap2\n      sub\n      swap1\n      revert\n        /* \"v2/contracts/SoulSocietySBT.sol\":11103:11199  if (!_exists(tokenId_)) {... */\n    tag_325:\n        /* \"v2/contracts/SoulSocietySBT.sol\":11209:11240  _isProtected(_owners[tokenId_]) */\n      tag_327\n        /* \"v2/contracts/SoulSocietySBT.sol\":11222:11229  _owners */\n      0x04\n        /* \"v2/contracts/SoulSocietySBT.sol\":11222:11239  _owners[tokenId_] */\n      0x00\n        /* \"v2/contracts/SoulSocietySBT.sol\":11230:11238  tokenId_ */\n      dup4\n        /* \"v2/contracts/SoulSocietySBT.sol\":11222:11239  _owners[tokenId_] */\n      dup2\n      mstore\n      0x20\n      add\n      swap1\n      dup2\n      mstore\n      0x20\n      add\n      0x00\n      keccak256\n      0x00\n      swap1\n      sload\n      swap1\n      0x0100\n      exp\n      swap1\n      div\n      0xffffffffffffffffffffffffffffffffffffffff\n      and\n        /* \"v2/contracts/SoulSocietySBT.sol\":11209:11221  _isProtected */\n      tag_179\n        /* \"v2/contracts/SoulSocietySBT.sol\":11209:11240  _isProtected(_owners[tokenId_]) */\n      jump\t// in\n    tag_327:\n      pop\n        /* \"v2/contracts/SoulSocietySBT.sol\":10955:11247  function _isProtectedTokenId(uint256 tokenId_) internal view {... */\n      pop\n      jump\t// out\n        /* \"@openzeppelin/contracts/access/Ownable.sol\":2426:2613  function _transferOwnership(address newOwner) internal virtual {... */\n    tag_212:\n        /* \"@openzeppelin/contracts/access/Ownable.sol\":2499:2515  address oldOwner */\n      0x00\n        /* \"@openzeppelin/contracts/access/Ownable.sol\":2518:2524  _owner */\n      dup1\n      0x00\n      swap1\n      sload\n      swap1\n      0x0100\n      exp\n      swap1\n      div\n      0xffffffffffffffffffffffffffffffffffffffff\n      and\n        /* \"@openzeppelin/contracts/access/Ownable.sol\":2499:2524  address oldOwner = _owner */\n      swap1\n      pop\n        /* \"@openzeppelin/contracts/access/Ownable.sol\":2543:2551  newOwner */\n      dup2\n        /* \"@openzeppelin/contracts/access/Ownable.sol\":2534:2540  _owner */\n      0x00\n      dup1\n        /* \"@openzeppelin/contracts/access/Ownable.sol\":2534:2551  _owner = newOwner */\n      0x0100\n      exp\n      dup2\n      sload\n      dup2\n      0xffffffffffffffffffffffffffffffffffffffff\n      mul\n      not\n      and\n      swap1\n      dup4\n      0xffffffffffffffffffffffffffffffffffffffff\n      and\n      mul\n      or\n      swap1\n      sstore\n      pop\n        /* \"@openzeppelin/contracts/access/Ownable.sol\":2597:2605  newOwner */\n      dup2\n        /* \"@openzeppelin/contracts/access/Ownable.sol\":2566:2606  OwnershipTransferred(oldOwner, newOwner) */\n      0xffffffffffffffffffffffffffffffffffffffff\n      and\n        /* \"@openzeppelin/contracts/access/Ownable.sol\":2587:2595  oldOwner */\n      dup2\n        /* \"@openzeppelin/contracts/access/Ownable.sol\":2566:2606  OwnershipTransferred(oldOwner, newOwner) */\n      0xffffffffffffffffffffffffffffffffffffffff\n      and\n      0x8be0079c531659141344cd1fd0a4f28419497f9722a3daafe3b4186f6b6457e0\n      mload(0x40)\n      mload(0x40)\n      dup1\n      swap2\n      sub\n      swap1\n      log3\n        /* \"@openzeppelin/contracts/access/Ownable.sol\":2489:2613  {... */\n      pop\n        /* \"@openzeppelin/contracts/access/Ownable.sol\":2426:2613  function _transferOwnership(address newOwner) internal virtual {... */\n      pop\n      jump\t// out\n        /* \"v2/contracts/SoulSocietySBT.sol\":11253:11396  function _setApprovalGrowth(uint256 tokenId_, bool approved_) internal {... */\n    tag_220:\n        /* \"v2/contracts/SoulSocietySBT.sol\":11380:11389  approved_ */\n      dup1\n        /* \"v2/contracts/SoulSocietySBT.sol\":11334:11355  _approvalUpdateGrowth */\n      0x0a\n        /* \"v2/contracts/SoulSocietySBT.sol\":11334:11367  _approvalUpdateGrowth[msg.sender] */\n      0x00\n        /* \"v2/contracts/SoulSocietySBT.sol\":11356:11366  msg.sender */\n      caller\n        /* \"v2/contracts/SoulSocietySBT.sol\":11334:11367  _approvalUpdateGrowth[msg.sender] */\n      0xffffffffffffffffffffffffffffffffffffffff\n      and\n      0xffffffffffffffffffffffffffffffffffffffff\n      and\n      dup2\n      mstore\n      0x20\n      add\n      swap1\n      dup2\n      mstore\n      0x20\n      add\n      0x00\n      keccak256\n        /* \"v2/contracts/SoulSocietySBT.sol\":11334:11377  _approvalUpdateGrowth[msg.sender][tokenId_] */\n      0x00\n        /* \"v2/contracts/SoulSocietySBT.sol\":11368:11376  tokenId_ */\n      dup5\n        /* \"v2/contracts/SoulSocietySBT.sol\":11334:11377  _approvalUpdateGrowth[msg.sender][tokenId_] */\n      dup2\n      mstore\n      0x20\n      add\n      swap1\n      dup2\n      mstore\n      0x20\n      add\n      0x00\n      keccak256\n      0x00\n        /* \"v2/contracts/SoulSocietySBT.sol\":11334:11389  _approvalUpdateGrowth[msg.sender][tokenId_] = approved_ */\n      0x0100\n      exp\n      dup2\n      sload\n      dup2\n      0xff\n      mul\n      not\n      and\n      swap1\n      dup4\n      iszero\n      iszero\n      mul\n      or\n      swap1\n      sstore\n      pop\n        /* \"v2/contracts/SoulSocietySBT.sol\":11253:11396  function _setApprovalGrowth(uint256 tokenId_, bool approved_) internal {... */\n      pop\n      pop\n      jump\t// out\n        /* \"v2/contracts/SoulSocietySBT.sol\":11402:11555  function _getApprovalGrowth(address owner_, uint256 tokenId_) internal view returns(bool) {... */\n    tag_227:\n        /* \"v2/contracts/SoulSocietySBT.sol\":11486:11490  bool */\n      0x00\n        /* \"v2/contracts/SoulSocietySBT.sol\":11509:11530  _approvalUpdateGrowth */\n      0x0a\n        /* \"v2/contracts/SoulSocietySBT.sol\":11509:11538  _approvalUpdateGrowth[owner_] */\n      0x00\n        /* \"v2/contracts/SoulSocietySBT.sol\":11531:11537  owner_ */\n      dup5\n        /* \"v2/contracts/SoulSocietySBT.sol\":11509:11538  _approvalUpdateGrowth[owner_] */\n      0xffffffffffffffffffffffffffffffffffffffff\n      and\n      0xffffffffffffffffffffffffffffffffffffffff\n      and\n      dup2\n      mstore\n      0x20\n      add\n      swap1\n      dup2\n      mstore\n      0x20\n      add\n      0x00\n      keccak256\n        /* \"v2/contracts/SoulSocietySBT.sol\":11509:11548  _approvalUpdateGrowth[owner_][tokenId_] */\n      0x00\n        /* \"v2/contracts/SoulSocietySBT.sol\":11539:11547  tokenId_ */\n      dup4\n        /* \"v2/contracts/SoulSocietySBT.sol\":11509:11548  _approvalUpdateGrowth[owner_][tokenId_] */\n      dup2\n      mstore\n      0x20\n      add\n      swap1\n      dup2\n      mstore\n      0x20\n      add\n      0x00\n      keccak256\n      0x00\n      swap1\n      sload\n      swap1\n      0x0100\n      exp\n      swap1\n      div\n      0xff\n      and\n        /* \"v2/contracts/SoulSocietySBT.sol\":11502:11548  return _approvalUpdateGrowth[owner_][tokenId_] */\n      swap1\n      pop\n        /* \"v2/contracts/SoulSocietySBT.sol\":11402:11555  function _getApprovalGrowth(address owner_, uint256 tokenId_) internal view returns(bool) {... */\n      swap3\n      swap2\n      pop\n      pop\n      jump\t// out\n        /* \"v2/contracts/SoulSocietySBT.sol\":9852:10100  function _setGrowthToZero(address to_, uint tokenId_) internal  {... */\n    tag_232:\n        /* \"v2/contracts/SoulSocietySBT.sol\":9988:10019  _requireMintedOf(to_, tokenId_) */\n      tag_332\n        /* \"v2/contracts/SoulSocietySBT.sol\":10005:10008  to_ */\n      dup3\n        /* \"v2/contracts/SoulSocietySBT.sol\":10010:10018  tokenId_ */\n      dup3\n        /* \"v2/contracts/SoulSocietySBT.sol\":9988:10004  _requireMintedOf */\n      tag_333\n        /* \"v2/contracts/SoulSocietySBT.sol\":9988:10019  _requireMintedOf(to_, tokenId_) */\n      jump\t// in\n    tag_332:\n        /* \"v2/contracts/SoulSocietySBT.sol\":10056:10057  0 */\n      0x00\n        /* \"v2/contracts/SoulSocietySBT.sol\":10030:10043  _tokenGrowths */\n      0x06\n        /* \"v2/contracts/SoulSocietySBT.sol\":10030:10053  _tokenGrowths[tokenId_] */\n      0x00\n        /* \"v2/contracts/SoulSocietySBT.sol\":10044:10052  tokenId_ */\n      dup4\n        /* \"v2/contracts/SoulSocietySBT.sol\":10030:10053  _tokenGrowths[tokenId_] */\n      dup2\n      mstore\n      0x20\n      add\n      swap1\n      dup2\n      mstore\n      0x20\n      add\n      0x00\n      keccak256\n        /* \"v2/contracts/SoulSocietySBT.sol\":10030:10057  _tokenGrowths[tokenId_] = 0 */\n      dup2\n      swap1\n      sstore\n      pop\n        /* \"v2/contracts/SoulSocietySBT.sol\":10084:10092  tokenId_ */\n      dup1\n        /* \"v2/contracts/SoulSocietySBT.sol\":10079:10082  to_ */\n      dup3\n        /* \"v2/contracts/SoulSocietySBT.sol\":10073:10093  Reset(to_, tokenId_) */\n      0xffffffffffffffffffffffffffffffffffffffff\n      and\n      0x154fa90f2d3692df165afacdcd7755b2e9d98a892a80cc1dda63f3a9cc1e64a4\n      mload(0x40)\n      mload(0x40)\n      dup1\n      swap2\n      sub\n      swap1\n      log3\n        /* \"v2/contracts/SoulSocietySBT.sol\":9852:10100  function _setGrowthToZero(address to_, uint tokenId_) internal  {... */\n      pop\n      pop\n      jump\t// out\n        /* \"v2/contracts/SoulSocietySBT.sol\":10106:10455  function _growUp(address to_, uint256 tokenId_) internal returns(uint256) {... */\n    tag_245:\n        /* \"v2/contracts/SoulSocietySBT.sol\":10171:10178  uint256 */\n      0x00\n        /* \"v2/contracts/SoulSocietySBT.sol\":10243:10274  _requireMintedOf(to_, tokenId_) */\n      tag_335\n        /* \"v2/contracts/SoulSocietySBT.sol\":10260:10263  to_ */\n      dup4\n        /* \"v2/contracts/SoulSocietySBT.sol\":10265:10273  tokenId_ */\n      dup4\n        /* \"v2/contracts/SoulSocietySBT.sol\":10243:10259  _requireMintedOf */\n      tag_333\n        /* \"v2/contracts/SoulSocietySBT.sol\":10243:10274  _requireMintedOf(to_, tokenId_) */\n      jump\t// in\n    tag_335:\n        /* \"v2/contracts/SoulSocietySBT.sol\":10312:10313  1 */\n      0x01\n        /* \"v2/contracts/SoulSocietySBT.sol\":10285:10298  _tokenGrowths */\n      0x06\n        /* \"v2/contracts/SoulSocietySBT.sol\":10285:10308  _tokenGrowths[tokenId_] */\n      0x00\n        /* \"v2/contracts/SoulSocietySBT.sol\":10299:10307  tokenId_ */\n      dup5\n        /* \"v2/contracts/SoulSocietySBT.sol\":10285:10308  _tokenGrowths[tokenId_] */\n      dup2\n      mstore\n      0x20\n      add\n      swap1\n      dup2\n      mstore\n      0x20\n      add\n      0x00\n      keccak256\n      0x00\n        /* \"v2/contracts/SoulSocietySBT.sol\":10285:10313  _tokenGrowths[tokenId_] += 1 */\n      dup3\n      dup3\n      sload\n      tag_336\n      swap2\n      swap1\n      tag_299\n      jump\t// in\n    tag_336:\n      swap3\n      pop\n      pop\n      dup2\n      swap1\n      sstore\n      pop\n        /* \"v2/contracts/SoulSocietySBT.sol\":10324:10343  uint256 tokenGrowth */\n      0x00\n        /* \"v2/contracts/SoulSocietySBT.sol\":10346:10359  _tokenGrowths */\n      0x06\n        /* \"v2/contracts/SoulSocietySBT.sol\":10346:10369  _tokenGrowths[tokenId_] */\n      0x00\n        /* \"v2/contracts/SoulSocietySBT.sol\":10360:10368  tokenId_ */\n      dup5\n        /* \"v2/contracts/SoulSocietySBT.sol\":10346:10369  _tokenGrowths[tokenId_] */\n      dup2\n      mstore\n      0x20\n      add\n      swap1\n      dup2\n      mstore\n      0x20\n      add\n      0x00\n      keccak256\n      sload\n        /* \"v2/contracts/SoulSocietySBT.sol\":10324:10369  uint256 tokenGrowth = _tokenGrowths[tokenId_] */\n      swap1\n      pop\n        /* \"v2/contracts/SoulSocietySBT.sol\":10407:10418  tokenGrowth */\n      dup1\n        /* \"v2/contracts/SoulSocietySBT.sol\":10392:10395  to_ */\n      dup5\n        /* \"v2/contracts/SoulSocietySBT.sol\":10385:10419  GrowUp(to_, tokenId_, tokenGrowth) */\n      0xffffffffffffffffffffffffffffffffffffffff\n      and\n      0x48ffd7fdb1c1a0561a2d410317f6bb839aab64898de6fc73ee703a9c0dc0a36c\n        /* \"v2/contracts/SoulSocietySBT.sol\":10397:10405  tokenId_ */\n      dup6\n        /* \"v2/contracts/SoulSocietySBT.sol\":10385:10419  GrowUp(to_, tokenId_, tokenGrowth) */\n      mload(0x40)\n      tag_337\n      swap2\n      swap1\n      tag_62\n      jump\t// in\n    tag_337:\n      mload(0x40)\n      dup1\n      swap2\n      sub\n      swap1\n      log3\n        /* \"v2/contracts/SoulSocietySBT.sol\":10437:10448  tokenGrowth */\n      dup1\n        /* \"v2/contracts/SoulSocietySBT.sol\":10430:10448  return tokenGrowth */\n      swap2\n      pop\n      pop\n        /* \"v2/contracts/SoulSocietySBT.sol\":10106:10455  function _growUp(address to_, uint256 tokenId_) internal returns(uint256) {... */\n      swap3\n      swap2\n      pop\n      pop\n      jump\t// out\n        /* \"@openzeppelin/contracts/utils/Strings.sol\":447:1143  function toString(uint256 value) internal pure returns (string memory) {... */\n    tag_253:\n        /* \"@openzeppelin/contracts/utils/Strings.sol\":503:516  string memory */\n      0x60\n        /* \"@openzeppelin/contracts/utils/Strings.sol\":552:566  uint256 length */\n      0x00\n        /* \"@openzeppelin/contracts/utils/Strings.sol\":589:590  1 */\n      0x01\n        /* \"@openzeppelin/contracts/utils/Strings.sol\":569:586  Math.log10(value) */\n      tag_339\n        /* \"@openzeppelin/contracts/utils/Strings.sol\":580:585  value */\n      dup5\n        /* \"@openzeppelin/contracts/utils/Strings.sol\":569:579  Math.log10 */\n      tag_340\n        /* \"@openzeppelin/contracts/utils/Strings.sol\":569:586  Math.log10(value) */\n      jump\t// in\n    tag_339:\n        /* \"@openzeppelin/contracts/utils/Strings.sol\":569:590  Math.log10(value) + 1 */\n      add\n        /* \"@openzeppelin/contracts/utils/Strings.sol\":552:590  uint256 length = Math.log10(value) + 1 */\n      swap1\n      pop\n        /* \"@openzeppelin/contracts/utils/Strings.sol\":604:624  string memory buffer */\n      0x00\n        /* \"@openzeppelin/contracts/utils/Strings.sol\":638:644  length */\n      dup2\n        /* \"@openzeppelin/contracts/utils/Strings.sol\":627:645  new string(length) */\n      0xffffffffffffffff\n      dup2\n      gt\n      iszero\n      tag_341\n      jumpi\n      tag_342\n      tag_343\n      jump\t// in\n    tag_342:\n    tag_341:\n      mload(0x40)\n      swap1\n      dup1\n      dup3\n      mstore\n      dup1\n      0x1f\n      add\n      not(0x1f)\n      and\n      0x20\n      add\n      dup3\n      add\n      0x40\n      mstore\n      dup1\n      iszero\n      tag_344\n      jumpi\n      dup2\n      0x20\n      add\n      0x01\n      dup3\n      mul\n      dup1\n      calldatasize\n      dup4\n      calldatacopy\n      dup1\n      dup3\n      add\n      swap2\n      pop\n      pop\n      swap1\n      pop\n    tag_344:\n      pop\n        /* \"@openzeppelin/contracts/utils/Strings.sol\":604:645  string memory buffer = new string(length) */\n      swap1\n      pop\n        /* \"@openzeppelin/contracts/utils/Strings.sol\":659:670  uint256 ptr */\n      0x00\n        /* \"@openzeppelin/contracts/utils/Strings.sol\":785:791  length */\n      dup3\n        /* \"@openzeppelin/contracts/utils/Strings.sol\":781:783  32 */\n      0x20\n        /* \"@openzeppelin/contracts/utils/Strings.sol\":777:792  add(32, length) */\n      add\n        /* \"@openzeppelin/contracts/utils/Strings.sol\":769:775  buffer */\n      dup3\n        /* \"@openzeppelin/contracts/utils/Strings.sol\":765:793  add(buffer, add(32, length)) */\n      add\n        /* \"@openzeppelin/contracts/utils/Strings.sol\":758:793  ptr := add(buffer, add(32, length)) */\n      swap1\n      pop\n        /* \"@openzeppelin/contracts/utils/Strings.sol\":820:1100  while (true) {... */\n    tag_345:\n        /* \"@openzeppelin/contracts/utils/Strings.sol\":827:831  true */\n      0x01\n        /* \"@openzeppelin/contracts/utils/Strings.sol\":820:1100  while (true) {... */\n      iszero\n      tag_346\n      jumpi\n        /* \"@openzeppelin/contracts/utils/Strings.sol\":851:856  ptr-- */\n      dup1\n      dup1\n      0x01\n      swap1\n      sub\n      swap2\n      pop\n      pop\n        /* \"@openzeppelin/contracts/utils/Strings.sol\":990:998  _SYMBOLS */\n      0x3031323334353637383961626364656600000000000000000000000000000000\n        /* \"@openzeppelin/contracts/utils/Strings.sol\":985:987  10 */\n      0x0a\n        /* \"@openzeppelin/contracts/utils/Strings.sol\":978:983  value */\n      dup7\n        /* \"@openzeppelin/contracts/utils/Strings.sol\":974:988  mod(value, 10) */\n      mod\n        /* \"@openzeppelin/contracts/utils/Strings.sol\":969:999  byte(mod(value, 10), _SYMBOLS) */\n      byte\n        /* \"@openzeppelin/contracts/utils/Strings.sol\":964:967  ptr */\n      dup2\n        /* \"@openzeppelin/contracts/utils/Strings.sol\":956:1000  mstore8(ptr, byte(mod(value, 10), _SYMBOLS)) */\n      mstore8\n        /* \"@openzeppelin/contracts/utils/Strings.sol\":1044:1046  10 */\n      0x0a\n        /* \"@openzeppelin/contracts/utils/Strings.sol\":1035:1046  value /= 10 */\n      dup6\n      dup2\n      tag_347\n      jumpi\n      tag_348\n      tag_349\n      jump\t// in\n    tag_348:\n    tag_347:\n      div\n      swap5\n      pop\n        /* \"@openzeppelin/contracts/utils/Strings.sol\":1077:1078  0 */\n      0x00\n        /* \"@openzeppelin/contracts/utils/Strings.sol\":1068:1073  value */\n      dup6\n        /* \"@openzeppelin/contracts/utils/Strings.sol\":1068:1078  value == 0 */\n      sub\n        /* \"@openzeppelin/contracts/utils/Strings.sol\":820:1100  while (true) {... */\n      tag_345\n        /* \"@openzeppelin/contracts/utils/Strings.sol\":1064:1085  if (value == 0) break */\n      jumpi\n        /* \"@openzeppelin/contracts/utils/Strings.sol\":820:1100  while (true) {... */\n    tag_346:\n        /* \"@openzeppelin/contracts/utils/Strings.sol\":1120:1126  buffer */\n      dup2\n        /* \"@openzeppelin/contracts/utils/Strings.sol\":1113:1126  return buffer */\n      swap4\n      pop\n      pop\n      pop\n      pop\n        /* \"@openzeppelin/contracts/utils/Strings.sol\":447:1143  function toString(uint256 value) internal pure returns (string memory) {... */\n      swap2\n      swap1\n      pop\n      jump\t// out\n        /* \"v2/contracts/SoulSocietySBT.sol\":10573:10737  function _getProtected(address to_) internal  view returns(bool) {... */\n    tag_286:\n        /* \"v2/contracts/SoulSocietySBT.sol\":10632:10636  bool */\n      0x00\n        /* \"v2/contracts/SoulSocietySBT.sol\":10712:10725  _userProtects */\n      0x08\n        /* \"v2/contracts/SoulSocietySBT.sol\":10712:10730  _userProtects[to_] */\n      0x00\n        /* \"v2/contracts/SoulSocietySBT.sol\":10726:10729  to_ */\n      dup4\n        /* \"v2/contracts/SoulSocietySBT.sol\":10712:10730  _userProtects[to_] */\n      0xffffffffffffffffffffffffffffffffffffffff\n      and\n      0xffffffffffffffffffffffffffffffffffffffff\n      and\n      dup2\n      mstore\n      0x20\n      add\n      swap1\n      dup2\n      mstore\n      0x20\n      add\n      0x00\n      keccak256\n      0x00\n      swap1\n      sload\n      swap1\n      0x0100\n      exp\n      swap1\n      div\n      0xff\n      and\n        /* \"v2/contracts/SoulSocietySBT.sol\":10705:10730  return _userProtects[to_] */\n      swap1\n      pop\n        /* \"v2/contracts/SoulSocietySBT.sol\":10573:10737  function _getProtected(address to_) internal  view returns(bool) {... */\n      swap2\n      swap1\n      pop\n      jump\t// out\n        /* \"@openzeppelin/contracts/utils/Context.sol\":640:736  function _msgSender() internal view virtual returns (address) {... */\n    tag_292:\n        /* \"@openzeppelin/contracts/utils/Context.sol\":693:700  address */\n      0x00\n        /* \"@openzeppelin/contracts/utils/Context.sol\":719:729  msg.sender */\n      caller\n        /* \"@openzeppelin/contracts/utils/Context.sol\":712:729  return msg.sender */\n      swap1\n      pop\n        /* \"@openzeppelin/contracts/utils/Context.sol\":640:736  function _msgSender() internal view virtual returns (address) {... */\n      swap1\n      jump\t// out\n        /* \"v2/contracts/SoulSocietySBT.sol\":11963:12089  function _exists(uint256 tokenId) internal view virtual returns (bool) {... */\n    tag_303:\n        /* \"v2/contracts/SoulSocietySBT.sol\":12028:12032  bool */\n      0x00\n        /* \"v2/contracts/SoulSocietySBT.sol\":12080:12081  0 */\n      dup1\n        /* \"v2/contracts/SoulSocietySBT.sol\":12051:12082  _ownerOf(tokenId) != address(0) */\n      0xffffffffffffffffffffffffffffffffffffffff\n      and\n        /* \"v2/contracts/SoulSocietySBT.sol\":12051:12068  _ownerOf(tokenId) */\n      tag_354\n        /* \"v2/contracts/SoulSocietySBT.sol\":12060:12067  tokenId */\n      dup4\n        /* \"v2/contracts/SoulSocietySBT.sol\":12051:12059  _ownerOf */\n      tag_355\n        /* \"v2/contracts/SoulSocietySBT.sol\":12051:12068  _ownerOf(tokenId) */\n      jump\t// in\n    tag_354:\n        /* \"v2/contracts/SoulSocietySBT.sol\":12051:12082  _ownerOf(tokenId) != address(0) */\n      0xffffffffffffffffffffffffffffffffffffffff\n      and\n      eq\n      iszero\n        /* \"v2/contracts/SoulSocietySBT.sol\":12044:12082  return _ownerOf(tokenId) != address(0) */\n      swap1\n      pop\n        /* \"v2/contracts/SoulSocietySBT.sol\":11963:12089  function _exists(uint256 tokenId) internal view virtual returns (bool) {... */\n      swap2\n      swap1\n      pop\n      jump\t// out\n        /* \"v2/contracts/SoulSocietySBT.sol\":12095:12208  function _existsOwner(address to) internal view virtual returns (bool) {... */\n    tag_307:\n        /* \"v2/contracts/SoulSocietySBT.sol\":12160:12164  bool */\n      0x00\n        /* \"v2/contracts/SoulSocietySBT.sol\":12200:12201  0 */\n      dup1\n        /* \"v2/contracts/SoulSocietySBT.sol\":12183:12192  _balances */\n      0x07\n        /* \"v2/contracts/SoulSocietySBT.sol\":12183:12196  _balances[to] */\n      0x00\n        /* \"v2/contracts/SoulSocietySBT.sol\":12193:12195  to */\n      dup5\n        /* \"v2/contracts/SoulSocietySBT.sol\":12183:12196  _balances[to] */\n      0xffffffffffffffffffffffffffffffffffffffff\n      and\n      0xffffffffffffffffffffffffffffffffffffffff\n      and\n      dup2\n      mstore\n      0x20\n      add\n      swap1\n      dup2\n      mstore\n      0x20\n      add\n      0x00\n      keccak256\n      sload\n        /* \"v2/contracts/SoulSocietySBT.sol\":12183:12201  _balances[to] != 0 */\n      eq\n      iszero\n        /* \"v2/contracts/SoulSocietySBT.sol\":12176:12201  return _balances[to] != 0 */\n      swap1\n      pop\n        /* \"v2/contracts/SoulSocietySBT.sol\":12095:12208  function _existsOwner(address to) internal view virtual returns (bool) {... */\n      swap2\n      swap1\n      pop\n      jump\t// out\n        /* \"v2/contracts/SoulSocietySBT.sol\":12789:12976  function isContract(address _addr) internal view returns (bool) {... */\n    tag_315:\n        /* \"v2/contracts/SoulSocietySBT.sol\":12847:12851  bool */\n      0x00\n        /* \"v2/contracts/SoulSocietySBT.sol\":12863:12874  uint32 size */\n      dup1\n        /* \"v2/contracts/SoulSocietySBT.sol\":12927:12932  _addr */\n      dup3\n        /* \"v2/contracts/SoulSocietySBT.sol\":12915:12933  extcodesize(_addr) */\n      extcodesize\n        /* \"v2/contracts/SoulSocietySBT.sol\":12907:12933  size := extcodesize(_addr) */\n      swap1\n      pop\n        /* \"v2/contracts/SoulSocietySBT.sol\":12967:12968  0 */\n      0x00\n        /* \"v2/contracts/SoulSocietySBT.sol\":12960:12964  size */\n      dup2\n        /* \"v2/contracts/SoulSocietySBT.sol\":12960:12968  size > 0 */\n      0xffffffff\n      and\n      gt\n        /* \"v2/contracts/SoulSocietySBT.sol\":12952:12969  return (size > 0) */\n      swap2\n      pop\n      pop\n        /* \"v2/contracts/SoulSocietySBT.sol\":12789:12976  function isContract(address _addr) internal view returns (bool) {... */\n      swap2\n      swap1\n      pop\n      jump\t// out\n        /* \"v2/contracts/SoulSocietySBT.sol\":12600:12783  function _requireMintedOf(address to, uint256 tokenId) internal view virtual {... */\n    tag_333:\n        /* \"v2/contracts/SoulSocietySBT.sol\":12711:12713  to */\n      dup2\n        /* \"v2/contracts/SoulSocietySBT.sol\":12690:12713  _ownerOf(tokenId) != to */\n      0xffffffffffffffffffffffffffffffffffffffff\n      and\n        /* \"v2/contracts/SoulSocietySBT.sol\":12690:12707  _ownerOf(tokenId) */\n      tag_359\n        /* \"v2/contracts/SoulSocietySBT.sol\":12699:12706  tokenId */\n      dup3\n        /* \"v2/contracts/SoulSocietySBT.sol\":12690:12698  _ownerOf */\n      tag_355\n        /* \"v2/contracts/SoulSocietySBT.sol\":12690:12707  _ownerOf(tokenId) */\n      jump\t// in\n    tag_359:\n        /* \"v2/contracts/SoulSocietySBT.sol\":12690:12713  _ownerOf(tokenId) != to */\n      0xffffffffffffffffffffffffffffffffffffffff\n      and\n      eq\n        /* \"v2/contracts/SoulSocietySBT.sol\":12687:12777  if(_ownerOf(tokenId) != to) {... */\n      tag_360\n      jumpi\n        /* \"v2/contracts/SoulSocietySBT.sol\":12763:12765  to */\n      dup2\n        /* \"v2/contracts/SoulSocietySBT.sol\":12736:12766  SoulSocietySBTInvalidOwner(to) */\n      mload(0x40)\n      0x5015929900000000000000000000000000000000000000000000000000000000\n      dup2\n      mstore\n      0x04\n      add\n      tag_361\n      swap2\n      swap1\n      tag_54\n      jump\t// in\n    tag_361:\n      mload(0x40)\n      dup1\n      swap2\n      sub\n      swap1\n      revert\n        /* \"v2/contracts/SoulSocietySBT.sol\":12687:12777  if(_ownerOf(tokenId) != to) {... */\n    tag_360:\n        /* \"v2/contracts/SoulSocietySBT.sol\":12600:12783  function _requireMintedOf(address to, uint256 tokenId) internal view virtual {... */\n      pop\n      pop\n      jump\t// out\n        /* \"@openzeppelin/contracts/utils/math/Math.sol\":10139:11055  function log10(uint256 value) internal pure returns (uint256) {... */\n    tag_340:\n        /* \"@openzeppelin/contracts/utils/math/Math.sol\":10192:10199  uint256 */\n      0x00\n        /* \"@openzeppelin/contracts/utils/math/Math.sol\":10211:10225  uint256 result */\n      dup1\n        /* \"@openzeppelin/contracts/utils/math/Math.sol\":10228:10229  0 */\n      0x00\n        /* \"@openzeppelin/contracts/utils/math/Math.sol\":10211:10229  uint256 result = 0 */\n      swap1\n      pop\n        /* \"@openzeppelin/contracts/utils/math/Math.sol\":10276:10284  10 ** 64 */\n      0x184f03e93ff9f4daa797ed6e38ed64bf6a1f010000000000000000\n        /* \"@openzeppelin/contracts/utils/math/Math.sol\":10267:10272  value */\n      dup4\n        /* \"@openzeppelin/contracts/utils/math/Math.sol\":10267:10284  value >= 10 ** 64 */\n      lt\n        /* \"@openzeppelin/contracts/utils/math/Math.sol\":10263:10366  if (value >= 10 ** 64) {... */\n      tag_363\n      jumpi\n        /* \"@openzeppelin/contracts/utils/math/Math.sol\":10313:10321  10 ** 64 */\n      0x184f03e93ff9f4daa797ed6e38ed64bf6a1f010000000000000000\n        /* \"@openzeppelin/contracts/utils/math/Math.sol\":10304:10321  value /= 10 ** 64 */\n      dup4\n      dup2\n      tag_364\n      jumpi\n      tag_365\n      tag_349\n      jump\t// in\n    tag_365:\n    tag_364:\n      div\n      swap3\n      pop\n        /* \"@openzeppelin/contracts/utils/math/Math.sol\":10349:10351  64 */\n      0x40\n        /* \"@openzeppelin/contracts/utils/math/Math.sol\":10339:10351  result += 64 */\n      dup2\n      add\n      swap1\n      pop\n        /* \"@openzeppelin/contracts/utils/math/Math.sol\":10263:10366  if (value >= 10 ** 64) {... */\n    tag_363:\n        /* \"@openzeppelin/contracts/utils/math/Math.sol\":10392:10400  10 ** 32 */\n      0x04ee2d6d415b85acef8100000000\n        /* \"@openzeppelin/contracts/utils/math/Math.sol\":10383:10388  value */\n      dup4\n        /* \"@openzeppelin/contracts/utils/math/Math.sol\":10383:10400  value >= 10 ** 32 */\n      lt\n        /* \"@openzeppelin/contracts/utils/math/Math.sol\":10379:10482  if (value >= 10 ** 32) {... */\n      tag_366\n      jumpi\n        /* \"@openzeppelin/contracts/utils/math/Math.sol\":10429:10437  10 ** 32 */\n      0x04ee2d6d415b85acef8100000000\n        /* \"@openzeppelin/contracts/utils/math/Math.sol\":10420:10437  value /= 10 ** 32 */\n      dup4\n      dup2\n      tag_367\n      jumpi\n      tag_368\n      tag_349\n      jump\t// in\n    tag_368:\n    tag_367:\n      div\n      swap3\n      pop\n        /* \"@openzeppelin/contracts/utils/math/Math.sol\":10465:10467  32 */\n      0x20\n        /* \"@openzeppelin/contracts/utils/math/Math.sol\":10455:10467  result += 32 */\n      dup2\n      add\n      swap1\n      pop\n        /* \"@openzeppelin/contracts/utils/math/Math.sol\":10379:10482  if (value >= 10 ** 32) {... */\n    tag_366:\n        /* \"@openzeppelin/contracts/utils/math/Math.sol\":10508:10516  10 ** 16 */\n      0x2386f26fc10000\n        /* \"@openzeppelin/contracts/utils/math/Math.sol\":10499:10504  value */\n      dup4\n        /* \"@openzeppelin/contracts/utils/math/Math.sol\":10499:10516  value >= 10 ** 16 */\n      lt\n        /* \"@openzeppelin/contracts/utils/math/Math.sol\":10495:10598  if (value >= 10 ** 16) {... */\n      tag_369\n      jumpi\n        /* \"@openzeppelin/contracts/utils/math/Math.sol\":10545:10553  10 ** 16 */\n      0x2386f26fc10000\n        /* \"@openzeppelin/contracts/utils/math/Math.sol\":10536:10553  value /= 10 ** 16 */\n      dup4\n      dup2\n      tag_370\n      jumpi\n      tag_371\n      tag_349\n      jump\t// in\n    tag_371:\n    tag_370:\n      div\n      swap3\n      pop\n        /* \"@openzeppelin/contracts/utils/math/Math.sol\":10581:10583  16 */\n      0x10\n        /* \"@openzeppelin/contracts/utils/math/Math.sol\":10571:10583  result += 16 */\n      dup2\n      add\n      swap1\n      pop\n        /* \"@openzeppelin/contracts/utils/math/Math.sol\":10495:10598  if (value >= 10 ** 16) {... */\n    tag_369:\n        /* \"@openzeppelin/contracts/utils/math/Math.sol\":10624:10631  10 ** 8 */\n      0x05f5e100\n        /* \"@openzeppelin/contracts/utils/math/Math.sol\":10615:10620  value */\n      dup4\n        /* \"@openzeppelin/contracts/utils/math/Math.sol\":10615:10631  value >= 10 ** 8 */\n      lt\n        /* \"@openzeppelin/contracts/utils/math/Math.sol\":10611:10711  if (value >= 10 ** 8) {... */\n      tag_372\n      jumpi\n        /* \"@openzeppelin/contracts/utils/math/Math.sol\":10660:10667  10 ** 8 */\n      0x05f5e100\n        /* \"@openzeppelin/contracts/utils/math/Math.sol\":10651:10667  value /= 10 ** 8 */\n      dup4\n      dup2\n      tag_373\n      jumpi\n      tag_374\n      tag_349\n      jump\t// in\n    tag_374:\n    tag_373:\n      div\n      swap3\n      pop\n        /* \"@openzeppelin/contracts/utils/math/Math.sol\":10695:10696  8 */\n      0x08\n        /* \"@openzeppelin/contracts/utils/math/Math.sol\":10685:10696  result += 8 */\n      dup2\n      add\n      swap1\n      pop\n        /* \"@openzeppelin/contracts/utils/math/Math.sol\":10611:10711  if (value >= 10 ** 8) {... */\n    tag_372:\n        /* \"@openzeppelin/contracts/utils/math/Math.sol\":10737:10744  10 ** 4 */\n      0x2710\n        /* \"@openzeppelin/contracts/utils/math/Math.sol\":10728:10733  value */\n      dup4\n        /* \"@openzeppelin/contracts/utils/math/Math.sol\":10728:10744  value >= 10 ** 4 */\n      lt\n        /* \"@openzeppelin/contracts/utils/math/Math.sol\":10724:10824  if (value >= 10 ** 4) {... */\n      tag_375\n      jumpi\n        /* \"@openzeppelin/contracts/utils/math/Math.sol\":10773:10780  10 ** 4 */\n      0x2710\n        /* \"@openzeppelin/contracts/utils/math/Math.sol\":10764:10780  value /= 10 ** 4 */\n      dup4\n      dup2\n      tag_376\n      jumpi\n      tag_377\n      tag_349\n      jump\t// in\n    tag_377:\n    tag_376:\n      div\n      swap3\n      pop\n        /* \"@openzeppelin/contracts/utils/math/Math.sol\":10808:10809  4 */\n      0x04\n        /* \"@openzeppelin/contracts/utils/math/Math.sol\":10798:10809  result += 4 */\n      dup2\n      add\n      swap1\n      pop\n        /* \"@openzeppelin/contracts/utils/math/Math.sol\":10724:10824  if (value >= 10 ** 4) {... */\n    tag_375:\n        /* \"@openzeppelin/contracts/utils/math/Math.sol\":10850:10857  10 ** 2 */\n      0x64\n        /* \"@openzeppelin/contracts/utils/math/Math.sol\":10841:10846  value */\n      dup4\n        /* \"@openzeppelin/contracts/utils/math/Math.sol\":10841:10857  value >= 10 ** 2 */\n      lt\n        /* \"@openzeppelin/contracts/utils/math/Math.sol\":10837:10937  if (value >= 10 ** 2) {... */\n      tag_378\n      jumpi\n        /* \"@openzeppelin/contracts/utils/math/Math.sol\":10886:10893  10 ** 2 */\n      0x64\n        /* \"@openzeppelin/contracts/utils/math/Math.sol\":10877:10893  value /= 10 ** 2 */\n      dup4\n      dup2\n      tag_379\n      jumpi\n      tag_380\n      tag_349\n      jump\t// in\n    tag_380:\n    tag_379:\n      div\n      swap3\n      pop\n        /* \"@openzeppelin/contracts/utils/math/Math.sol\":10921:10922  2 */\n      0x02\n        /* \"@openzeppelin/contracts/utils/math/Math.sol\":10911:10922  result += 2 */\n      dup2\n      add\n      swap1\n      pop\n        /* \"@openzeppelin/contracts/utils/math/Math.sol\":10837:10937  if (value >= 10 ** 2) {... */\n    tag_378:\n        /* \"@openzeppelin/contracts/utils/math/Math.sol\":10963:10970  10 ** 1 */\n      0x0a\n        /* \"@openzeppelin/contracts/utils/math/Math.sol\":10954:10959  value */\n      dup4\n        /* \"@openzeppelin/contracts/utils/math/Math.sol\":10954:10970  value >= 10 ** 1 */\n      lt\n        /* \"@openzeppelin/contracts/utils/math/Math.sol\":10950:11016  if (value >= 10 ** 1) {... */\n      tag_381\n      jumpi\n        /* \"@openzeppelin/contracts/utils/math/Math.sol\":11000:11001  1 */\n      0x01\n        /* \"@openzeppelin/contracts/utils/math/Math.sol\":10990:11001  result += 1 */\n      dup2\n      add\n      swap1\n      pop\n        /* \"@openzeppelin/contracts/utils/math/Math.sol\":10950:11016  if (value >= 10 ** 1) {... */\n    tag_381:\n        /* \"@openzeppelin/contracts/utils/math/Math.sol\":11042:11048  result */\n      dup1\n        /* \"@openzeppelin/contracts/utils/math/Math.sol\":11035:11048  return result */\n      swap2\n      pop\n      pop\n        /* \"@openzeppelin/contracts/utils/math/Math.sol\":10139:11055  function log10(uint256 value) internal pure returns (uint256) {... */\n      swap2\n      swap1\n      pop\n      jump\t// out\n        /* \"v2/contracts/SoulSocietySBT.sol\":11665:11775  function _ownerOf(uint256 tokenId_) internal view  returns (address) {... */\n    tag_355:\n        /* \"v2/contracts/SoulSocietySBT.sol\":11725:11732  address */\n      0x00\n        /* \"v2/contracts/SoulSocietySBT.sol\":11751:11758  _owners */\n      0x04\n        /* \"v2/contracts/SoulSocietySBT.sol\":11751:11768  _owners[tokenId_] */\n      0x00\n        /* \"v2/contracts/SoulSocietySBT.sol\":11759:11767  tokenId_ */\n      dup4\n        /* \"v2/contracts/SoulSocietySBT.sol\":11751:11768  _owners[tokenId_] */\n      dup2\n      mstore\n      0x20\n      add\n      swap1\n      dup2\n      mstore\n      0x20\n      add\n      0x00\n      keccak256\n      0x00\n      swap1\n      sload\n      swap1\n      0x0100\n      exp\n      swap1\n      div\n      0xffffffffffffffffffffffffffffffffffffffff\n      and\n        /* \"v2/contracts/SoulSocietySBT.sol\":11744:11768  return _owners[tokenId_] */\n      swap1\n      pop\n        /* \"v2/contracts/SoulSocietySBT.sol\":11665:11775  function _ownerOf(uint256 tokenId_) internal view  returns (address) {... */\n      swap2\n      swap1\n      pop\n      jump\t// out\n        /* \"#utility.yul\":7:82   */\n    tag_383:\n        /* \"#utility.yul\":40:46   */\n      0x00\n        /* \"#utility.yul\":73:75   */\n      0x40\n        /* \"#utility.yul\":67:76   */\n      mload\n        /* \"#utility.yul\":57:76   */\n      swap1\n      pop\n        /* \"#utility.yul\":7:82   */\n      swap1\n      jump\t// out\n        /* \"#utility.yul\":88:205   */\n    tag_384:\n        /* \"#utility.yul\":197:198   */\n      0x00\n        /* \"#utility.yul\":194:195   */\n      dup1\n        /* \"#utility.yul\":187:199   */\n      revert\n        /* \"#utility.yul\":211:328   */\n    tag_385:\n        /* \"#utility.yul\":320:321   */\n      0x00\n        /* \"#utility.yul\":317:318   */\n      dup1\n        /* \"#utility.yul\":310:322   */\n      revert\n        /* \"#utility.yul\":334:483   */\n    tag_386:\n        /* \"#utility.yul\":370:377   */\n      0x00\n        /* \"#utility.yul\":410:476   */\n      0xffffffff00000000000000000000000000000000000000000000000000000000\n        /* \"#utility.yul\":403:408   */\n      dup3\n        /* \"#utility.yul\":399:477   */\n      and\n        /* \"#utility.yul\":388:477   */\n      swap1\n      pop\n        /* \"#utility.yul\":334:483   */\n      swap2\n      swap1\n      pop\n      jump\t// out\n        /* \"#utility.yul\":489:609   */\n    tag_387:\n        /* \"#utility.yul\":561:584   */\n      tag_472\n        /* \"#utility.yul\":578:583   */\n      dup2\n        /* \"#utility.yul\":561:584   */\n      tag_386\n      jump\t// in\n    tag_472:\n        /* \"#utility.yul\":554:559   */\n      dup2\n        /* \"#utility.yul\":551:585   */\n      eq\n        /* \"#utility.yul\":541:603   */\n      tag_473\n      jumpi\n        /* \"#utility.yul\":599:600   */\n      0x00\n        /* \"#utility.yul\":596:597   */\n      dup1\n        /* \"#utility.yul\":589:601   */\n      revert\n        /* \"#utility.yul\":541:603   */\n    tag_473:\n        /* \"#utility.yul\":489:609   */\n      pop\n      jump\t// out\n        /* \"#utility.yul\":615:752   */\n    tag_388:\n        /* \"#utility.yul\":660:665   */\n      0x00\n        /* \"#utility.yul\":698:704   */\n      dup2\n        /* \"#utility.yul\":685:705   */\n      calldataload\n        /* \"#utility.yul\":676:705   */\n      swap1\n      pop\n        /* \"#utility.yul\":714:746   */\n      tag_475\n        /* \"#utility.yul\":740:745   */\n      dup2\n        /* \"#utility.yul\":714:746   */\n      tag_387\n      jump\t// in\n    tag_475:\n        /* \"#utility.yul\":615:752   */\n      swap3\n      swap2\n      pop\n      pop\n      jump\t// out\n        /* \"#utility.yul\":758:1085   */\n    tag_41:\n        /* \"#utility.yul\":816:822   */\n      0x00\n        /* \"#utility.yul\":865:867   */\n      0x20\n        /* \"#utility.yul\":853:862   */\n      dup3\n        /* \"#utility.yul\":844:851   */\n      dup5\n        /* \"#utility.yul\":840:863   */\n      sub\n        /* \"#utility.yul\":836:868   */\n      slt\n        /* \"#utility.yul\":833:952   */\n      iszero\n      tag_477\n      jumpi\n        /* \"#utility.yul\":871:950   */\n      tag_478\n      tag_384\n      jump\t// in\n    tag_478:\n        /* \"#utility.yul\":833:952   */\n    tag_477:\n        /* \"#utility.yul\":991:992   */\n      0x00\n        /* \"#utility.yul\":1016:1068   */\n      tag_479\n        /* \"#utility.yul\":1060:1067   */\n      dup5\n        /* \"#utility.yul\":1051:1057   */\n      dup3\n        /* \"#utility.yul\":1040:1049   */\n      dup6\n        /* \"#utility.yul\":1036:1058   */\n      add\n        /* \"#utility.yul\":1016:1068   */\n      tag_388\n      jump\t// in\n    tag_479:\n        /* \"#utility.yul\":1006:1068   */\n      swap2\n      pop\n        /* \"#utility.yul\":962:1078   */\n      pop\n        /* \"#utility.yul\":758:1085   */\n      swap3\n      swap2\n      pop\n      pop\n      jump\t// out\n        /* \"#utility.yul\":1091:1181   */\n    tag_389:\n        /* \"#utility.yul\":1125:1132   */\n      0x00\n        /* \"#utility.yul\":1168:1173   */\n      dup2\n        /* \"#utility.yul\":1161:1174   */\n      iszero\n        /* \"#utility.yul\":1154:1175   */\n      iszero\n        /* \"#utility.yul\":1143:1175   */\n      swap1\n      pop\n        /* \"#utility.yul\":1091:1181   */\n      swap2\n      swap1\n      pop\n      jump\t// out\n        /* \"#utility.yul\":1187:1296   */\n    tag_390:\n        /* \"#utility.yul\":1268:1289   */\n      tag_482\n        /* \"#utility.yul\":1283:1288   */\n      dup2\n        /* \"#utility.yul\":1268:1289   */\n      tag_389\n      jump\t// in\n    tag_482:\n        /* \"#utility.yul\":1263:1266   */\n      dup3\n        /* \"#utility.yul\":1256:1290   */\n      mstore\n        /* \"#utility.yul\":1187:1296   */\n      pop\n      pop\n      jump\t// out\n        /* \"#utility.yul\":1302:1512   */\n    tag_44:\n        /* \"#utility.yul\":1389:1393   */\n      0x00\n        /* \"#utility.yul\":1427:1429   */\n      0x20\n        /* \"#utility.yul\":1416:1425   */\n      dup3\n        /* \"#utility.yul\":1412:1430   */\n      add\n        /* \"#utility.yul\":1404:1430   */\n      swap1\n      pop\n        /* \"#utility.yul\":1440:1505   */\n      tag_484\n        /* \"#utility.yul\":1502:1503   */\n      0x00\n        /* \"#utility.yul\":1491:1500   */\n      dup4\n        /* \"#utility.yul\":1487:1504   */\n      add\n        /* \"#utility.yul\":1478:1484   */\n      dup5\n        /* \"#utility.yul\":1440:1505   */\n      tag_390\n      jump\t// in\n    tag_484:\n        /* \"#utility.yul\":1302:1512   */\n      swap3\n      swap2\n      pop\n      pop\n      jump\t// out\n        /* \"#utility.yul\":1518:1617   */\n    tag_391:\n        /* \"#utility.yul\":1570:1576   */\n      0x00\n        /* \"#utility.yul\":1604:1609   */\n      dup2\n        /* \"#utility.yul\":1598:1610   */\n      mload\n        /* \"#utility.yul\":1588:1610   */\n      swap1\n      pop\n        /* \"#utility.yul\":1518:1617   */\n      swap2\n      swap1\n      pop\n      jump\t// out\n        /* \"#utility.yul\":1623:1792   */\n    tag_392:\n        /* \"#utility.yul\":1707:1718   */\n      0x00\n        /* \"#utility.yul\":1741:1747   */\n      dup3\n        /* \"#utility.yul\":1736:1739   */\n      dup3\n        /* \"#utility.yul\":1729:1748   */\n      mstore\n        /* \"#utility.yul\":1781:1785   */\n      0x20\n        /* \"#utility.yul\":1776:1779   */\n      dup3\n        /* \"#utility.yul\":1772:1786   */\n      add\n        /* \"#utility.yul\":1757:1786   */\n      swap1\n      pop\n        /* \"#utility.yul\":1623:1792   */\n      swap3\n      swap2\n      pop\n      pop\n      jump\t// out\n        /* \"#utility.yul\":1798:2044   */\n    tag_393:\n        /* \"#utility.yul\":1879:1880   */\n      0x00\n        /* \"#utility.yul\":1889:2002   */\n    tag_488:\n        /* \"#utility.yul\":1903:1909   */\n      dup4\n        /* \"#utility.yul\":1900:1901   */\n      dup2\n        /* \"#utility.yul\":1897:1910   */\n      lt\n        /* \"#utility.yul\":1889:2002   */\n      iszero\n      tag_490\n      jumpi\n        /* \"#utility.yul\":1988:1989   */\n      dup1\n        /* \"#utility.yul\":1983:1986   */\n      dup3\n        /* \"#utility.yul\":1979:1990   */\n      add\n        /* \"#utility.yul\":1973:1991   */\n      mload\n        /* \"#utility.yul\":1969:1970   */\n      dup2\n        /* \"#utility.yul\":1964:1967   */\n      dup5\n        /* \"#utility.yul\":1960:1971   */\n      add\n        /* \"#utility.yul\":1953:1992   */\n      mstore\n        /* \"#utility.yul\":1925:1927   */\n      0x20\n        /* \"#utility.yul\":1922:1923   */\n      dup2\n        /* \"#utility.yul\":1918:1928   */\n      add\n        /* \"#utility.yul\":1913:1928   */\n      swap1\n      pop\n        /* \"#utility.yul\":1889:2002   */\n      jump(tag_488)\n    tag_490:\n        /* \"#utility.yul\":2036:2037   */\n      0x00\n        /* \"#utility.yul\":2027:2033   */\n      dup5\n        /* \"#utility.yul\":2022:2025   */\n      dup5\n        /* \"#utility.yul\":2018:2034   */\n      add\n        /* \"#utility.yul\":2011:2038   */\n      mstore\n        /* \"#utility.yul\":1860:2044   */\n      pop\n        /* \"#utility.yul\":1798:2044   */\n      pop\n      pop\n      pop\n      jump\t// out\n        /* \"#utility.yul\":2050:2152   */\n    tag_394:\n        /* \"#utility.yul\":2091:2097   */\n      0x00\n        /* \"#utility.yul\":2142:2144   */\n      0x1f\n        /* \"#utility.yul\":2138:2145   */\n      not\n        /* \"#utility.yul\":2133:2135   */\n      0x1f\n        /* \"#utility.yul\":2126:2131   */\n      dup4\n        /* \"#utility.yul\":2122:2136   */\n      add\n        /* \"#utility.yul\":2118:2146   */\n      and\n        /* \"#utility.yul\":2108:2146   */\n      swap1\n      pop\n        /* \"#utility.yul\":2050:2152   */\n      swap2\n      swap1\n      pop\n      jump\t// out\n        /* \"#utility.yul\":2158:2535   */\n    tag_395:\n        /* \"#utility.yul\":2246:2249   */\n      0x00\n        /* \"#utility.yul\":2274:2313   */\n      tag_493\n        /* \"#utility.yul\":2307:2312   */\n      dup3\n        /* \"#utility.yul\":2274:2313   */\n      tag_391\n      jump\t// in\n    tag_493:\n        /* \"#utility.yul\":2329:2400   */\n      tag_494\n        /* \"#utility.yul\":2393:2399   */\n      dup2\n        /* \"#utility.yul\":2388:2391   */\n      dup6\n        /* \"#utility.yul\":2329:2400   */\n      tag_392\n      jump\t// in\n    tag_494:\n        /* \"#utility.yul\":2322:2400   */\n      swap4\n      pop\n        /* \"#utility.yul\":2409:2474   */\n      tag_495\n        /* \"#utility.yul\":2467:2473   */\n      dup2\n        /* \"#utility.yul\":2462:2465   */\n      dup6\n        /* \"#utility.yul\":2455:2459   */\n      0x20\n        /* \"#utility.yul\":2448:2453   */\n      dup7\n        /* \"#utility.yul\":2444:2460   */\n      add\n        /* \"#utility.yul\":2409:2474   */\n      tag_393\n      jump\t// in\n    tag_495:\n        /* \"#utility.yul\":2499:2528   */\n      tag_496\n        /* \"#utility.yul\":2521:2527   */\n      dup2\n        /* \"#utility.yul\":2499:2528   */\n      tag_394\n      jump\t// in\n    tag_496:\n        /* \"#utility.yul\":2494:2497   */\n      dup5\n        /* \"#utility.yul\":2490:2529   */\n      add\n        /* \"#utility.yul\":2483:2529   */\n      swap2\n      pop\n        /* \"#utility.yul\":2250:2535   */\n      pop\n        /* \"#utility.yul\":2158:2535   */\n      swap3\n      swap2\n      pop\n      pop\n      jump\t// out\n        /* \"#utility.yul\":2541:2854   */\n    tag_48:\n        /* \"#utility.yul\":2654:2658   */\n      0x00\n        /* \"#utility.yul\":2692:2694   */\n      0x20\n        /* \"#utility.yul\":2681:2690   */\n      dup3\n        /* \"#utility.yul\":2677:2695   */\n      add\n        /* \"#utility.yul\":2669:2695   */\n      swap1\n      pop\n        /* \"#utility.yul\":2741:2750   */\n      dup2\n        /* \"#utility.yul\":2735:2739   */\n      dup2\n        /* \"#utility.yul\":2731:2751   */\n      sub\n        /* \"#utility.yul\":2727:2728   */\n      0x00\n        /* \"#utility.yul\":2716:2725   */\n      dup4\n        /* \"#utility.yul\":2712:2729   */\n      add\n        /* \"#utility.yul\":2705:2752   */\n      mstore\n        /* \"#utility.yul\":2769:2847   */\n      tag_498\n        /* \"#utility.yul\":2842:2846   */\n      dup2\n        /* \"#utility.yul\":2833:2839   */\n      dup5\n        /* \"#utility.yul\":2769:2847   */\n      tag_395\n      jump\t// in\n    tag_498:\n        /* \"#utility.yul\":2761:2847   */\n      swap1\n      pop\n        /* \"#utility.yul\":2541:2854   */\n      swap3\n      swap2\n      pop\n      pop\n      jump\t// out\n        /* \"#utility.yul\":2860:2937   */\n    tag_396:\n        /* \"#utility.yul\":2897:2904   */\n      0x00\n        /* \"#utility.yul\":2926:2931   */\n      dup2\n        /* \"#utility.yul\":2915:2931   */\n      swap1\n      pop\n        /* \"#utility.yul\":2860:2937   */\n      swap2\n      swap1\n      pop\n      jump\t// out\n        /* \"#utility.yul\":2943:3065   */\n    tag_397:\n        /* \"#utility.yul\":3016:3040   */\n      tag_501\n        /* \"#utility.yul\":3034:3039   */\n      dup2\n        /* \"#utility.yul\":3016:3040   */\n      tag_396\n      jump\t// in\n    tag_501:\n        /* \"#utility.yul\":3009:3014   */\n      dup2\n        /* \"#utility.yul\":3006:3041   */\n      eq\n        /* \"#utility.yul\":2996:3059   */\n      tag_502\n      jumpi\n        /* \"#utility.yul\":3055:3056   */\n      0x00\n        /* \"#utility.yul\":3052:3053   */\n      dup1\n        /* \"#utility.yul\":3045:3057   */\n      revert\n        /* \"#utility.yul\":2996:3059   */\n    tag_502:\n        /* \"#utility.yul\":2943:3065   */\n      pop\n      jump\t// out\n        /* \"#utility.yul\":3071:3210   */\n    tag_398:\n        /* \"#utility.yul\":3117:3122   */\n      0x00\n        /* \"#utility.yul\":3155:3161   */\n      dup2\n        /* \"#utility.yul\":3142:3162   */\n      calldataload\n        /* \"#utility.yul\":3133:3162   */\n      swap1\n      pop\n        /* \"#utility.yul\":3171:3204   */\n      tag_504\n        /* \"#utility.yul\":3198:3203   */\n      dup2\n        /* \"#utility.yul\":3171:3204   */\n      tag_397\n      jump\t// in\n    tag_504:\n        /* \"#utility.yul\":3071:3210   */\n      swap3\n      swap2\n      pop\n      pop\n      jump\t// out\n        /* \"#utility.yul\":3216:3545   */\n    tag_51:\n        /* \"#utility.yul\":3275:3281   */\n      0x00\n        /* \"#utility.yul\":3324:3326   */\n      0x20\n        /* \"#utility.yul\":3312:3321   */\n      dup3\n        /* \"#utility.yul\":3303:3310   */\n      dup5\n        /* \"#utility.yul\":3299:3322   */\n      sub\n        /* \"#utility.yul\":3295:3327   */\n      slt\n        /* \"#utility.yul\":3292:3411   */\n      iszero\n      tag_506\n      jumpi\n        /* \"#utility.yul\":3330:3409   */\n      tag_507\n      tag_384\n      jump\t// in\n    tag_507:\n        /* \"#utility.yul\":3292:3411   */\n    tag_506:\n        /* \"#utility.yul\":3450:3451   */\n      0x00\n        /* \"#utility.yul\":3475:3528   */\n      tag_508\n        /* \"#utility.yul\":3520:3527   */\n      dup5\n        /* \"#utility.yul\":3511:3517   */\n      dup3\n        /* \"#utility.yul\":3500:3509   */\n      dup6\n        /* \"#utility.yul\":3496:3518   */\n      add\n        /* \"#utility.yul\":3475:3528   */\n      tag_398\n      jump\t// in\n    tag_508:\n        /* \"#utility.yul\":3465:3528   */\n      swap2\n      pop\n        /* \"#utility.yul\":3421:3538   */\n      pop\n        /* \"#utility.yul\":3216:3545   */\n      swap3\n      swap2\n      pop\n      pop\n      jump\t// out\n        /* \"#utility.yul\":3551:3677   */\n    tag_399:\n        /* \"#utility.yul\":3588:3595   */\n      0x00\n        /* \"#utility.yul\":3628:3670   */\n      0xffffffffffffffffffffffffffffffffffffffff\n        /* \"#utility.yul\":3621:3626   */\n      dup3\n        /* \"#utility.yul\":3617:3671   */\n      and\n        /* \"#utility.yul\":3606:3671   */\n      swap1\n      pop\n        /* \"#utility.yul\":3551:3677   */\n      swap2\n      swap1\n      pop\n      jump\t// out\n        /* \"#utility.yul\":3683:3779   */\n    tag_400:\n        /* \"#utility.yul\":3720:3727   */\n      0x00\n        /* \"#utility.yul\":3749:3773   */\n      tag_511\n        /* \"#utility.yul\":3767:3772   */\n      dup3\n        /* \"#utility.yul\":3749:3773   */\n      tag_399\n      jump\t// in\n    tag_511:\n        /* \"#utility.yul\":3738:3773   */\n      swap1\n      pop\n        /* \"#utility.yul\":3683:3779   */\n      swap2\n      swap1\n      pop\n      jump\t// out\n        /* \"#utility.yul\":3785:3903   */\n    tag_401:\n        /* \"#utility.yul\":3872:3896   */\n      tag_513\n        /* \"#utility.yul\":3890:3895   */\n      dup2\n        /* \"#utility.yul\":3872:3896   */\n      tag_400\n      jump\t// in\n    tag_513:\n        /* \"#utility.yul\":3867:3870   */\n      dup3\n        /* \"#utility.yul\":3860:3897   */\n      mstore\n        /* \"#utility.yul\":3785:3903   */\n      pop\n      pop\n      jump\t// out\n        /* \"#utility.yul\":3909:4131   */\n    tag_54:\n        /* \"#utility.yul\":4002:4006   */\n      0x00\n        /* \"#utility.yul\":4040:4042   */\n      0x20\n        /* \"#utility.yul\":4029:4038   */\n      dup3\n        /* \"#utility.yul\":4025:4043   */\n      add\n        /* \"#utility.yul\":4017:4043   */\n      swap1\n      pop\n        /* \"#utility.yul\":4053:4124   */\n      tag_515\n        /* \"#utility.yul\":4121:4122   */\n      0x00\n        /* \"#utility.yul\":4110:4119   */\n      dup4\n        /* \"#utility.yul\":4106:4123   */\n      add\n        /* \"#utility.yul\":4097:4103   */\n      dup5\n        /* \"#utility.yul\":4053:4124   */\n      tag_401\n      jump\t// in\n    tag_515:\n        /* \"#utility.yul\":3909:4131   */\n      swap3\n      swap2\n      pop\n      pop\n      jump\t// out\n        /* \"#utility.yul\":4137:4259   */\n    tag_402:\n        /* \"#utility.yul\":4210:4234   */\n      tag_517\n        /* \"#utility.yul\":4228:4233   */\n      dup2\n        /* \"#utility.yul\":4210:4234   */\n      tag_400\n      jump\t// in\n    tag_517:\n        /* \"#utility.yul\":4203:4208   */\n      dup2\n        /* \"#utility.yul\":4200:4235   */\n      eq\n        /* \"#utility.yul\":4190:4253   */\n      tag_518\n      jumpi\n        /* \"#utility.yul\":4249:4250   */\n      0x00\n        /* \"#utility.yul\":4246:4247   */\n      dup1\n        /* \"#utility.yul\":4239:4251   */\n      revert\n        /* \"#utility.yul\":4190:4253   */\n    tag_518:\n        /* \"#utility.yul\":4137:4259   */\n      pop\n      jump\t// out\n        /* \"#utility.yul\":4265:4404   */\n    tag_403:\n        /* \"#utility.yul\":4311:4316   */\n      0x00\n        /* \"#utility.yul\":4349:4355   */\n      dup2\n        /* \"#utility.yul\":4336:4356   */\n      calldataload\n        /* \"#utility.yul\":4327:4356   */\n      swap1\n      pop\n        /* \"#utility.yul\":4365:4398   */\n      tag_520\n        /* \"#utility.yul\":4392:4397   */\n      dup2\n        /* \"#utility.yul\":4365:4398   */\n      tag_402\n      jump\t// in\n    tag_520:\n        /* \"#utility.yul\":4265:4404   */\n      swap3\n      swap2\n      pop\n      pop\n      jump\t// out\n        /* \"#utility.yul\":4410:4884   */\n    tag_57:\n        /* \"#utility.yul\":4478:4484   */\n      0x00\n        /* \"#utility.yul\":4486:4492   */\n      dup1\n        /* \"#utility.yul\":4535:4537   */\n      0x40\n        /* \"#utility.yul\":4523:4532   */\n      dup4\n        /* \"#utility.yul\":4514:4521   */\n      dup6\n        /* \"#utility.yul\":4510:4533   */\n      sub\n        /* \"#utility.yul\":4506:4538   */\n      slt\n        /* \"#utility.yul\":4503:4622   */\n      iszero\n      tag_522\n      jumpi\n        /* \"#utility.yul\":4541:4620   */\n      tag_523\n      tag_384\n      jump\t// in\n    tag_523:\n        /* \"#utility.yul\":4503:4622   */\n    tag_522:\n        /* \"#utility.yul\":4661:4662   */\n      0x00\n        /* \"#utility.yul\":4686:4739   */\n      tag_524\n        /* \"#utility.yul\":4731:4738   */\n      dup6\n        /* \"#utility.yul\":4722:4728   */\n      dup3\n        /* \"#utility.yul\":4711:4720   */\n      dup7\n        /* \"#utility.yul\":4707:4729   */\n      add\n        /* \"#utility.yul\":4686:4739   */\n      tag_403\n      jump\t// in\n    tag_524:\n        /* \"#utility.yul\":4676:4739   */\n      swap3\n      pop\n        /* \"#utility.yul\":4632:4749   */\n      pop\n        /* \"#utility.yul\":4788:4790   */\n      0x20\n        /* \"#utility.yul\":4814:4867   */\n      tag_525\n        /* \"#utility.yul\":4859:4866   */\n      dup6\n        /* \"#utility.yul\":4850:4856   */\n      dup3\n        /* \"#utility.yul\":4839:4848   */\n      dup7\n        /* \"#utility.yul\":4835:4857   */\n      add\n        /* \"#utility.yul\":4814:4867   */\n      tag_398\n      jump\t// in\n    tag_525:\n        /* \"#utility.yul\":4804:4867   */\n      swap2\n      pop\n        /* \"#utility.yul\":4759:4877   */\n      pop\n        /* \"#utility.yul\":4410:4884   */\n      swap3\n      pop\n      swap3\n      swap1\n      pop\n      jump\t// out\n        /* \"#utility.yul\":4890:5008   */\n    tag_404:\n        /* \"#utility.yul\":4977:5001   */\n      tag_527\n        /* \"#utility.yul\":4995:5000   */\n      dup2\n        /* \"#utility.yul\":4977:5001   */\n      tag_396\n      jump\t// in\n    tag_527:\n        /* \"#utility.yul\":4972:4975   */\n      dup3\n        /* \"#utility.yul\":4965:5002   */\n      mstore\n        /* \"#utility.yul\":4890:5008   */\n      pop\n      pop\n      jump\t// out\n        /* \"#utility.yul\":5014:5236   */\n    tag_62:\n        /* \"#utility.yul\":5107:5111   */\n      0x00\n        /* \"#utility.yul\":5145:5147   */\n      0x20\n        /* \"#utility.yul\":5134:5143   */\n      dup3\n        /* \"#utility.yul\":5130:5148   */\n      add\n        /* \"#utility.yul\":5122:5148   */\n      swap1\n      pop\n        /* \"#utility.yul\":5158:5229   */\n      tag_529\n        /* \"#utility.yul\":5226:5227   */\n      0x00\n        /* \"#utility.yul\":5215:5224   */\n      dup4\n        /* \"#utility.yul\":5211:5228   */\n      add\n        /* \"#utility.yul\":5202:5208   */\n      dup5\n        /* \"#utility.yul\":5158:5229   */\n      tag_404\n      jump\t// in\n    tag_529:\n        /* \"#utility.yul\":5014:5236   */\n      swap3\n      swap2\n      pop\n      pop\n      jump\t// out\n        /* \"#utility.yul\":5242:5358   */\n    tag_405:\n        /* \"#utility.yul\":5312:5333   */\n      tag_531\n        /* \"#utility.yul\":5327:5332   */\n      dup2\n        /* \"#utility.yul\":5312:5333   */\n      tag_389\n      jump\t// in\n    tag_531:\n        /* \"#utility.yul\":5305:5310   */\n      dup2\n        /* \"#utility.yul\":5302:5334   */\n      eq\n        /* \"#utility.yul\":5292:5352   */\n      tag_532\n      jumpi\n        /* \"#utility.yul\":5348:5349   */\n      0x00\n        /* \"#utility.yul\":5345:5346   */\n      dup1\n        /* \"#utility.yul\":5338:5350   */\n      revert\n        /* \"#utility.yul\":5292:5352   */\n    tag_532:\n        /* \"#utility.yul\":5242:5358   */\n      pop\n      jump\t// out\n        /* \"#utility.yul\":5364:5497   */\n    tag_406:\n        /* \"#utility.yul\":5407:5412   */\n      0x00\n        /* \"#utility.yul\":5445:5451   */\n      dup2\n        /* \"#utility.yul\":5432:5452   */\n      calldataload\n        /* \"#utility.yul\":5423:5452   */\n      swap1\n      pop\n        /* \"#utility.yul\":5461:5491   */\n      tag_534\n        /* \"#utility.yul\":5485:5490   */\n      dup2\n        /* \"#utility.yul\":5461:5491   */\n      tag_405\n      jump\t// in\n    tag_534:\n        /* \"#utility.yul\":5364:5497   */\n      swap3\n      swap2\n      pop\n      pop\n      jump\t// out\n        /* \"#utility.yul\":5503:5826   */\n    tag_65:\n        /* \"#utility.yul\":5559:5565   */\n      0x00\n        /* \"#utility.yul\":5608:5610   */\n      0x20\n        /* \"#utility.yul\":5596:5605   */\n      dup3\n        /* \"#utility.yul\":5587:5594   */\n      dup5\n        /* \"#utility.yul\":5583:5606   */\n      sub\n        /* \"#utility.yul\":5579:5611   */\n      slt\n        /* \"#utility.yul\":5576:5695   */\n      iszero\n      tag_536\n      jumpi\n        /* \"#utility.yul\":5614:5693   */\n      tag_537\n      tag_384\n      jump\t// in\n    tag_537:\n        /* \"#utility.yul\":5576:5695   */\n    tag_536:\n        /* \"#utility.yul\":5734:5735   */\n      0x00\n        /* \"#utility.yul\":5759:5809   */\n      tag_538\n        /* \"#utility.yul\":5801:5808   */\n      dup5\n        /* \"#utility.yul\":5792:5798   */\n      dup3\n        /* \"#utility.yul\":5781:5790   */\n      dup6\n        /* \"#utility.yul\":5777:5799   */\n      add\n        /* \"#utility.yul\":5759:5809   */\n      tag_406\n      jump\t// in\n    tag_538:\n        /* \"#utility.yul\":5749:5809   */\n      swap2\n      pop\n        /* \"#utility.yul\":5705:5819   */\n      pop\n        /* \"#utility.yul\":5503:5826   */\n      swap3\n      swap2\n      pop\n      pop\n      jump\t// out\n        /* \"#utility.yul\":5832:6451   */\n    tag_70:\n        /* \"#utility.yul\":5909:5915   */\n      0x00\n        /* \"#utility.yul\":5917:5923   */\n      dup1\n        /* \"#utility.yul\":5925:5931   */\n      0x00\n        /* \"#utility.yul\":5974:5976   */\n      0x60\n        /* \"#utility.yul\":5962:5971   */\n      dup5\n        /* \"#utility.yul\":5953:5960   */\n      dup7\n        /* \"#utility.yul\":5949:5972   */\n      sub\n        /* \"#utility.yul\":5945:5977   */\n      slt\n        /* \"#utility.yul\":5942:6061   */\n      iszero\n      tag_540\n      jumpi\n        /* \"#utility.yul\":5980:6059   */\n      tag_541\n      tag_384\n      jump\t// in\n    tag_541:\n        /* \"#utility.yul\":5942:6061   */\n    tag_540:\n        /* \"#utility.yul\":6100:6101   */\n      0x00\n        /* \"#utility.yul\":6125:6178   */\n      tag_542\n        /* \"#utility.yul\":6170:6177   */\n      dup7\n        /* \"#utility.yul\":6161:6167   */\n      dup3\n        /* \"#utility.yul\":6150:6159   */\n      dup8\n        /* \"#utility.yul\":6146:6168   */\n      add\n        /* \"#utility.yul\":6125:6178   */\n      tag_403\n      jump\t// in\n    tag_542:\n        /* \"#utility.yul\":6115:6178   */\n      swap4\n      pop\n        /* \"#utility.yul\":6071:6188   */\n      pop\n        /* \"#utility.yul\":6227:6229   */\n      0x20\n        /* \"#utility.yul\":6253:6306   */\n      tag_543\n        /* \"#utility.yul\":6298:6305   */\n      dup7\n        /* \"#utility.yul\":6289:6295   */\n      dup3\n        /* \"#utility.yul\":6278:6287   */\n      dup8\n        /* \"#utility.yul\":6274:6296   */\n      add\n        /* \"#utility.yul\":6253:6306   */\n      tag_403\n      jump\t// in\n    tag_543:\n        /* \"#utility.yul\":6243:6306   */\n      swap3\n      pop\n        /* \"#utility.yul\":6198:6316   */\n      pop\n        /* \"#utility.yul\":6355:6357   */\n      0x40\n        /* \"#utility.yul\":6381:6434   */\n      tag_544\n        /* \"#utility.yul\":6426:6433   */\n      dup7\n        /* \"#utility.yul\":6417:6423   */\n      dup3\n        /* \"#utility.yul\":6406:6415   */\n      dup8\n        /* \"#utility.yul\":6402:6424   */\n      add\n        /* \"#utility.yul\":6381:6434   */\n      tag_398\n      jump\t// in\n    tag_544:\n        /* \"#utility.yul\":6371:6434   */\n      swap2\n      pop\n        /* \"#utility.yul\":6326:6444   */\n      pop\n        /* \"#utility.yul\":5832:6451   */\n      swap3\n      pop\n      swap3\n      pop\n      swap3\n      jump\t// out\n        /* \"#utility.yul\":6457:6786   */\n    tag_93:\n        /* \"#utility.yul\":6516:6522   */\n      0x00\n        /* \"#utility.yul\":6565:6567   */\n      0x20\n        /* \"#utility.yul\":6553:6562   */\n      dup3\n        /* \"#utility.yul\":6544:6551   */\n      dup5\n        /* \"#utility.yul\":6540:6563   */\n      sub\n        /* \"#utility.yul\":6536:6568   */\n      slt\n        /* \"#utility.yul\":6533:6652   */\n      iszero\n      tag_546\n      jumpi\n        /* \"#utility.yul\":6571:6650   */\n      tag_547\n      tag_384\n      jump\t// in\n    tag_547:\n        /* \"#utility.yul\":6533:6652   */\n    tag_546:\n        /* \"#utility.yul\":6691:6692   */\n      0x00\n        /* \"#utility.yul\":6716:6769   */\n      tag_548\n        /* \"#utility.yul\":6761:6768   */\n      dup5\n        /* \"#utility.yul\":6752:6758   */\n      dup3\n        /* \"#utility.yul\":6741:6750   */\n      dup6\n        /* \"#utility.yul\":6737:6759   */\n      add\n        /* \"#utility.yul\":6716:6769   */\n      tag_403\n      jump\t// in\n    tag_548:\n        /* \"#utility.yul\":6706:6769   */\n      swap2\n      pop\n        /* \"#utility.yul\":6662:6779   */\n      pop\n        /* \"#utility.yul\":6457:6786   */\n      swap3\n      swap2\n      pop\n      pop\n      jump\t// out\n        /* \"#utility.yul\":6792:7260   */\n    tag_104:\n        /* \"#utility.yul\":6857:6863   */\n      0x00\n        /* \"#utility.yul\":6865:6871   */\n      dup1\n        /* \"#utility.yul\":6914:6916   */\n      0x40\n        /* \"#utility.yul\":6902:6911   */\n      dup4\n        /* \"#utility.yul\":6893:6900   */\n      dup6\n        /* \"#utility.yul\":6889:6912   */\n      sub\n        /* \"#utility.yul\":6885:6917   */\n      slt\n        /* \"#utility.yul\":6882:7001   */\n      iszero\n      tag_550\n      jumpi\n        /* \"#utility.yul\":6920:6999   */\n      tag_551\n      tag_384\n      jump\t// in\n    tag_551:\n        /* \"#utility.yul\":6882:7001   */\n    tag_550:\n        /* \"#utility.yul\":7040:7041   */\n      0x00\n        /* \"#utility.yul\":7065:7118   */\n      tag_552\n        /* \"#utility.yul\":7110:7117   */\n      dup6\n        /* \"#utility.yul\":7101:7107   */\n      dup3\n        /* \"#utility.yul\":7090:7099   */\n      dup7\n        /* \"#utility.yul\":7086:7108   */\n      add\n        /* \"#utility.yul\":7065:7118   */\n      tag_398\n      jump\t// in\n    tag_552:\n        /* \"#utility.yul\":7055:7118   */\n      swap3\n      pop\n        /* \"#utility.yul\":7011:7128   */\n      pop\n        /* \"#utility.yul\":7167:7169   */\n      0x20\n        /* \"#utility.yul\":7193:7243   */\n      tag_553\n        /* \"#utility.yul\":7235:7242   */\n      dup6\n        /* \"#utility.yul\":7226:7232   */\n      dup3\n        /* \"#utility.yul\":7215:7224   */\n      dup7\n        /* \"#utility.yul\":7211:7233   */\n      add\n        /* \"#utility.yul\":7193:7243   */\n      tag_406\n      jump\t// in\n    tag_553:\n        /* \"#utility.yul\":7183:7243   */\n      swap2\n      pop\n        /* \"#utility.yul\":7138:7253   */\n      pop\n        /* \"#utility.yul\":6792:7260   */\n      swap3\n      pop\n      swap3\n      swap1\n      pop\n      jump\t// out\n        /* \"#utility.yul\":7266:7734   */\n    tag_117:\n        /* \"#utility.yul\":7331:7337   */\n      0x00\n        /* \"#utility.yul\":7339:7345   */\n      dup1\n        /* \"#utility.yul\":7388:7390   */\n      0x40\n        /* \"#utility.yul\":7376:7385   */\n      dup4\n        /* \"#utility.yul\":7367:7374   */\n      dup6\n        /* \"#utility.yul\":7363:7386   */\n      sub\n        /* \"#utility.yul\":7359:7391   */\n      slt\n        /* \"#utility.yul\":7356:7475   */\n      iszero\n      tag_555\n      jumpi\n        /* \"#utility.yul\":7394:7473   */\n      tag_556\n      tag_384\n      jump\t// in\n    tag_556:\n        /* \"#utility.yul\":7356:7475   */\n    tag_555:\n        /* \"#utility.yul\":7514:7515   */\n      0x00\n        /* \"#utility.yul\":7539:7592   */\n      tag_557\n        /* \"#utility.yul\":7584:7591   */\n      dup6\n        /* \"#utility.yul\":7575:7581   */\n      dup3\n        /* \"#utility.yul\":7564:7573   */\n      dup7\n        /* \"#utility.yul\":7560:7582   */\n      add\n        /* \"#utility.yul\":7539:7592   */\n      tag_403\n      jump\t// in\n    tag_557:\n        /* \"#utility.yul\":7529:7592   */\n      swap3\n      pop\n        /* \"#utility.yul\":7485:7602   */\n      pop\n        /* \"#utility.yul\":7641:7643   */\n      0x20\n        /* \"#utility.yul\":7667:7717   */\n      tag_558\n        /* \"#utility.yul\":7709:7716   */\n      dup6\n        /* \"#utility.yul\":7700:7706   */\n      dup3\n        /* \"#utility.yul\":7689:7698   */\n      dup7\n        /* \"#utility.yul\":7685:7707   */\n      add\n        /* \"#utility.yul\":7667:7717   */\n      tag_406\n      jump\t// in\n    tag_558:\n        /* \"#utility.yul\":7657:7717   */\n      swap2\n      pop\n        /* \"#utility.yul\":7612:7727   */\n      pop\n        /* \"#utility.yul\":7266:7734   */\n      swap3\n      pop\n      swap3\n      swap1\n      pop\n      jump\t// out\n        /* \"#utility.yul\":7740:7857   */\n    tag_407:\n        /* \"#utility.yul\":7849:7850   */\n      0x00\n        /* \"#utility.yul\":7846:7847   */\n      dup1\n        /* \"#utility.yul\":7839:7851   */\n      revert\n        /* \"#utility.yul\":7863:7980   */\n    tag_408:\n        /* \"#utility.yul\":7972:7973   */\n      0x00\n        /* \"#utility.yul\":7969:7970   */\n      dup1\n        /* \"#utility.yul\":7962:7974   */\n      revert\n        /* \"#utility.yul\":7986:8103   */\n    tag_409:\n        /* \"#utility.yul\":8095:8096   */\n      0x00\n        /* \"#utility.yul\":8092:8093   */\n      dup1\n        /* \"#utility.yul\":8085:8097   */\n      revert\n        /* \"#utility.yul\":8122:8674   */\n    tag_410:\n        /* \"#utility.yul\":8179:8187   */\n      0x00\n        /* \"#utility.yul\":8189:8195   */\n      dup1\n        /* \"#utility.yul\":8239:8242   */\n      dup4\n        /* \"#utility.yul\":8232:8236   */\n      0x1f\n        /* \"#utility.yul\":8224:8230   */\n      dup5\n        /* \"#utility.yul\":8220:8237   */\n      add\n        /* \"#utility.yul\":8216:8243   */\n      slt\n        /* \"#utility.yul\":8206:8328   */\n      tag_563\n      jumpi\n        /* \"#utility.yul\":8247:8326   */\n      tag_564\n      tag_407\n      jump\t// in\n    tag_564:\n        /* \"#utility.yul\":8206:8328   */\n    tag_563:\n        /* \"#utility.yul\":8360:8366   */\n      dup3\n        /* \"#utility.yul\":8347:8367   */\n      calldataload\n        /* \"#utility.yul\":8337:8367   */\n      swap1\n      pop\n        /* \"#utility.yul\":8390:8408   */\n      0xffffffffffffffff\n        /* \"#utility.yul\":8382:8388   */\n      dup2\n        /* \"#utility.yul\":8379:8409   */\n      gt\n        /* \"#utility.yul\":8376:8493   */\n      iszero\n      tag_565\n      jumpi\n        /* \"#utility.yul\":8412:8491   */\n      tag_566\n      tag_408\n      jump\t// in\n    tag_566:\n        /* \"#utility.yul\":8376:8493   */\n    tag_565:\n        /* \"#utility.yul\":8526:8530   */\n      0x20\n        /* \"#utility.yul\":8518:8524   */\n      dup4\n        /* \"#utility.yul\":8514:8531   */\n      add\n        /* \"#utility.yul\":8502:8531   */\n      swap2\n      pop\n        /* \"#utility.yul\":8580:8583   */\n      dup4\n        /* \"#utility.yul\":8572:8576   */\n      0x01\n        /* \"#utility.yul\":8564:8570   */\n      dup3\n        /* \"#utility.yul\":8560:8577   */\n      mul\n        /* \"#utility.yul\":8550:8558   */\n      dup4\n        /* \"#utility.yul\":8546:8578   */\n      add\n        /* \"#utility.yul\":8543:8584   */\n      gt\n        /* \"#utility.yul\":8540:8668   */\n      iszero\n      tag_567\n      jumpi\n        /* \"#utility.yul\":8587:8666   */\n      tag_568\n      tag_409\n      jump\t// in\n    tag_568:\n        /* \"#utility.yul\":8540:8668   */\n    tag_567:\n        /* \"#utility.yul\":8122:8674   */\n      swap3\n      pop\n      swap3\n      swap1\n      pop\n      jump\t// out\n        /* \"#utility.yul\":8680:9643   */\n    tag_121:\n        /* \"#utility.yul\":8777:8783   */\n      0x00\n        /* \"#utility.yul\":8785:8791   */\n      dup1\n        /* \"#utility.yul\":8793:8799   */\n      0x00\n        /* \"#utility.yul\":8801:8807   */\n      dup1\n        /* \"#utility.yul\":8809:8815   */\n      0x00\n        /* \"#utility.yul\":8858:8861   */\n      0x80\n        /* \"#utility.yul\":8846:8855   */\n      dup7\n        /* \"#utility.yul\":8837:8844   */\n      dup9\n        /* \"#utility.yul\":8833:8856   */\n      sub\n        /* \"#utility.yul\":8829:8862   */\n      slt\n        /* \"#utility.yul\":8826:8946   */\n      iszero\n      tag_570\n      jumpi\n        /* \"#utility.yul\":8865:8944   */\n      tag_571\n      tag_384\n      jump\t// in\n    tag_571:\n        /* \"#utility.yul\":8826:8946   */\n    tag_570:\n        /* \"#utility.yul\":8985:8986   */\n      0x00\n        /* \"#utility.yul\":9010:9063   */\n      tag_572\n        /* \"#utility.yul\":9055:9062   */\n      dup9\n        /* \"#utility.yul\":9046:9052   */\n      dup3\n        /* \"#utility.yul\":9035:9044   */\n      dup10\n        /* \"#utility.yul\":9031:9053   */\n      add\n        /* \"#utility.yul\":9010:9063   */\n      tag_403\n      jump\t// in\n    tag_572:\n        /* \"#utility.yul\":9000:9063   */\n      swap6\n      pop\n        /* \"#utility.yul\":8956:9073   */\n      pop\n        /* \"#utility.yul\":9112:9114   */\n      0x20\n        /* \"#utility.yul\":9138:9191   */\n      tag_573\n        /* \"#utility.yul\":9183:9190   */\n      dup9\n        /* \"#utility.yul\":9174:9180   */\n      dup3\n        /* \"#utility.yul\":9163:9172   */\n      dup10\n        /* \"#utility.yul\":9159:9181   */\n      add\n        /* \"#utility.yul\":9138:9191   */\n      tag_403\n      jump\t// in\n    tag_573:\n        /* \"#utility.yul\":9128:9191   */\n      swap5\n      pop\n        /* \"#utility.yul\":9083:9201   */\n      pop\n        /* \"#utility.yul\":9240:9242   */\n      0x40\n        /* \"#utility.yul\":9266:9319   */\n      tag_574\n        /* \"#utility.yul\":9311:9318   */\n      dup9\n        /* \"#utility.yul\":9302:9308   */\n      dup3\n        /* \"#utility.yul\":9291:9300   */\n      dup10\n        /* \"#utility.yul\":9287:9309   */\n      add\n        /* \"#utility.yul\":9266:9319   */\n      tag_398\n      jump\t// in\n    tag_574:\n        /* \"#utility.yul\":9256:9319   */\n      swap4\n      pop\n        /* \"#utility.yul\":9211:9329   */\n      pop\n        /* \"#utility.yul\":9396:9398   */\n      0x60\n        /* \"#utility.yul\":9385:9394   */\n      dup7\n        /* \"#utility.yul\":9381:9399   */\n      add\n        /* \"#utility.yul\":9368:9400   */\n      calldataload\n        /* \"#utility.yul\":9427:9445   */\n      0xffffffffffffffff\n        /* \"#utility.yul\":9419:9425   */\n      dup2\n        /* \"#utility.yul\":9416:9446   */\n      gt\n        /* \"#utility.yul\":9413:9530   */\n      iszero\n      tag_575\n      jumpi\n        /* \"#utility.yul\":9449:9528   */\n      tag_576\n      tag_385\n      jump\t// in\n    tag_576:\n        /* \"#utility.yul\":9413:9530   */\n    tag_575:\n        /* \"#utility.yul\":9562:9626   */\n      tag_577\n        /* \"#utility.yul\":9618:9625   */\n      dup9\n        /* \"#utility.yul\":9609:9615   */\n      dup3\n        /* \"#utility.yul\":9598:9607   */\n      dup10\n        /* \"#utility.yul\":9594:9616   */\n      add\n        /* \"#utility.yul\":9562:9626   */\n      tag_410\n      jump\t// in\n    tag_577:\n        /* \"#utility.yul\":9544:9626   */\n      swap3\n      pop\n      swap3\n      pop\n        /* \"#utility.yul\":9339:9636   */\n      pop\n        /* \"#utility.yul\":8680:9643   */\n      swap3\n      swap6\n      pop\n      swap3\n      swap6\n      swap1\n      swap4\n      pop\n      jump\t// out\n        /* \"#utility.yul\":9649:9766   */\n    tag_411:\n        /* \"#utility.yul\":9758:9759   */\n      0x00\n        /* \"#utility.yul\":9755:9756   */\n      dup1\n        /* \"#utility.yul\":9748:9760   */\n      revert\n        /* \"#utility.yul\":9772:9952   */\n    tag_343:\n        /* \"#utility.yul\":9820:9897   */\n      0x4e487b7100000000000000000000000000000000000000000000000000000000\n        /* \"#utility.yul\":9817:9818   */\n      0x00\n        /* \"#utility.yul\":9810:9898   */\n      mstore\n        /* \"#utility.yul\":9917:9921   */\n      0x41\n        /* \"#utility.yul\":9914:9915   */\n      0x04\n        /* \"#utility.yul\":9907:9922   */\n      mstore\n        /* \"#utility.yul\":9941:9945   */\n      0x24\n        /* \"#utility.yul\":9938:9939   */\n      0x00\n        /* \"#utility.yul\":9931:9946   */\n      revert\n        /* \"#utility.yul\":9958:10239   */\n    tag_412:\n        /* \"#utility.yul\":10041:10068   */\n      tag_581\n        /* \"#utility.yul\":10063:10067   */\n      dup3\n        /* \"#utility.yul\":10041:10068   */\n      tag_394\n      jump\t// in\n    tag_581:\n        /* \"#utility.yul\":10033:10039   */\n      dup2\n        /* \"#utility.yul\":10029:10069   */\n      add\n        /* \"#utility.yul\":10171:10177   */\n      dup2\n        /* \"#utility.yul\":10159:10169   */\n      dup2\n        /* \"#utility.yul\":10156:10178   */\n      lt\n        /* \"#utility.yul\":10135:10153   */\n      0xffffffffffffffff\n        /* \"#utility.yul\":10123:10133   */\n      dup3\n        /* \"#utility.yul\":10120:10154   */\n      gt\n        /* \"#utility.yul\":10117:10179   */\n      or\n        /* \"#utility.yul\":10114:10202   */\n      iszero\n      tag_582\n      jumpi\n        /* \"#utility.yul\":10182:10200   */\n      tag_583\n      tag_343\n      jump\t// in\n    tag_583:\n        /* \"#utility.yul\":10114:10202   */\n    tag_582:\n        /* \"#utility.yul\":10222:10232   */\n      dup1\n        /* \"#utility.yul\":10218:10220   */\n      0x40\n        /* \"#utility.yul\":10211:10233   */\n      mstore\n        /* \"#utility.yul\":10001:10239   */\n      pop\n        /* \"#utility.yul\":9958:10239   */\n      pop\n      pop\n      jump\t// out\n        /* \"#utility.yul\":10245:10374   */\n    tag_413:\n        /* \"#utility.yul\":10279:10285   */\n      0x00\n        /* \"#utility.yul\":10306:10326   */\n      tag_585\n      tag_383\n      jump\t// in\n    tag_585:\n        /* \"#utility.yul\":10296:10326   */\n      swap1\n      pop\n        /* \"#utility.yul\":10335:10368   */\n      tag_586\n        /* \"#utility.yul\":10363:10367   */\n      dup3\n        /* \"#utility.yul\":10355:10361   */\n      dup3\n        /* \"#utility.yul\":10335:10368   */\n      tag_412\n      jump\t// in\n    tag_586:\n        /* \"#utility.yul\":10245:10374   */\n      swap2\n      swap1\n      pop\n      jump\t// out\n        /* \"#utility.yul\":10380:10688   */\n    tag_414:\n        /* \"#utility.yul\":10442:10446   */\n      0x00\n        /* \"#utility.yul\":10532:10550   */\n      0xffffffffffffffff\n        /* \"#utility.yul\":10524:10530   */\n      dup3\n        /* \"#utility.yul\":10521:10551   */\n      gt\n        /* \"#utility.yul\":10518:10574   */\n      iszero\n      tag_588\n      jumpi\n        /* \"#utility.yul\":10554:10572   */\n      tag_589\n      tag_343\n      jump\t// in\n    tag_589:\n        /* \"#utility.yul\":10518:10574   */\n    tag_588:\n        /* \"#utility.yul\":10592:10621   */\n      tag_590\n        /* \"#utility.yul\":10614:10620   */\n      dup3\n        /* \"#utility.yul\":10592:10621   */\n      tag_394\n      jump\t// in\n    tag_590:\n        /* \"#utility.yul\":10584:10621   */\n      swap1\n      pop\n        /* \"#utility.yul\":10676:10680   */\n      0x20\n        /* \"#utility.yul\":10670:10674   */\n      dup2\n        /* \"#utility.yul\":10666:10681   */\n      add\n        /* \"#utility.yul\":10658:10681   */\n      swap1\n      pop\n        /* \"#utility.yul\":10380:10688   */\n      swap2\n      swap1\n      pop\n      jump\t// out\n        /* \"#utility.yul\":10694:10840   */\n    tag_415:\n        /* \"#utility.yul\":10791:10797   */\n      dup3\n        /* \"#utility.yul\":10786:10789   */\n      dup2\n        /* \"#utility.yul\":10781:10784   */\n      dup4\n        /* \"#utility.yul\":10768:10798   */\n      calldatacopy\n        /* \"#utility.yul\":10832:10833   */\n      0x00\n        /* \"#utility.yul\":10823:10829   */\n      dup4\n        /* \"#utility.yul\":10818:10821   */\n      dup4\n        /* \"#utility.yul\":10814:10830   */\n      add\n        /* \"#utility.yul\":10807:10834   */\n      mstore\n        /* \"#utility.yul\":10694:10840   */\n      pop\n      pop\n      pop\n      jump\t// out\n        /* \"#utility.yul\":10846:11271   */\n    tag_416:\n        /* \"#utility.yul\":10924:10929   */\n      0x00\n        /* \"#utility.yul\":10949:11015   */\n      tag_593\n        /* \"#utility.yul\":10965:11014   */\n      tag_594\n        /* \"#utility.yul\":11007:11013   */\n      dup5\n        /* \"#utility.yul\":10965:11014   */\n      tag_414\n      jump\t// in\n    tag_594:\n        /* \"#utility.yul\":10949:11015   */\n      tag_413\n      jump\t// in\n    tag_593:\n        /* \"#utility.yul\":10940:11015   */\n      swap1\n      pop\n        /* \"#utility.yul\":11038:11044   */\n      dup3\n        /* \"#utility.yul\":11031:11036   */\n      dup2\n        /* \"#utility.yul\":11024:11045   */\n      mstore\n        /* \"#utility.yul\":11076:11080   */\n      0x20\n        /* \"#utility.yul\":11069:11074   */\n      dup2\n        /* \"#utility.yul\":11065:11081   */\n      add\n        /* \"#utility.yul\":11114:11117   */\n      dup5\n        /* \"#utility.yul\":11105:11111   */\n      dup5\n        /* \"#utility.yul\":11100:11103   */\n      dup5\n        /* \"#utility.yul\":11096:11112   */\n      add\n        /* \"#utility.yul\":11093:11118   */\n      gt\n        /* \"#utility.yul\":11090:11202   */\n      iszero\n      tag_595\n      jumpi\n        /* \"#utility.yul\":11121:11200   */\n      tag_596\n      tag_411\n      jump\t// in\n    tag_596:\n        /* \"#utility.yul\":11090:11202   */\n    tag_595:\n        /* \"#utility.yul\":11211:11265   */\n      tag_597\n        /* \"#utility.yul\":11258:11264   */\n      dup5\n        /* \"#utility.yul\":11253:11256   */\n      dup3\n        /* \"#utility.yul\":11248:11251   */\n      dup6\n        /* \"#utility.yul\":11211:11265   */\n      tag_415\n      jump\t// in\n    tag_597:\n        /* \"#utility.yul\":10930:11271   */\n      pop\n        /* \"#utility.yul\":10846:11271   */\n      swap4\n      swap3\n      pop\n      pop\n      pop\n      jump\t// out\n        /* \"#utility.yul\":11291:11631   */\n    tag_417:\n        /* \"#utility.yul\":11347:11352   */\n      0x00\n        /* \"#utility.yul\":11396:11399   */\n      dup3\n        /* \"#utility.yul\":11389:11393   */\n      0x1f\n        /* \"#utility.yul\":11381:11387   */\n      dup4\n        /* \"#utility.yul\":11377:11394   */\n      add\n        /* \"#utility.yul\":11373:11400   */\n      slt\n        /* \"#utility.yul\":11363:11485   */\n      tag_599\n      jumpi\n        /* \"#utility.yul\":11404:11483   */\n      tag_600\n      tag_407\n      jump\t// in\n    tag_600:\n        /* \"#utility.yul\":11363:11485   */\n    tag_599:\n        /* \"#utility.yul\":11521:11527   */\n      dup2\n        /* \"#utility.yul\":11508:11528   */\n      calldataload\n        /* \"#utility.yul\":11546:11625   */\n      tag_601\n        /* \"#utility.yul\":11621:11624   */\n      dup5\n        /* \"#utility.yul\":11613:11619   */\n      dup3\n        /* \"#utility.yul\":11606:11610   */\n      0x20\n        /* \"#utility.yul\":11598:11604   */\n      dup7\n        /* \"#utility.yul\":11594:11611   */\n      add\n        /* \"#utility.yul\":11546:11625   */\n      tag_416\n      jump\t// in\n    tag_601:\n        /* \"#utility.yul\":11537:11625   */\n      swap2\n      pop\n        /* \"#utility.yul\":11353:11631   */\n      pop\n        /* \"#utility.yul\":11291:11631   */\n      swap3\n      swap2\n      pop\n      pop\n      jump\t// out\n        /* \"#utility.yul\":11637:12146   */\n    tag_137:\n        /* \"#utility.yul\":11706:11712   */\n      0x00\n        /* \"#utility.yul\":11755:11757   */\n      0x20\n        /* \"#utility.yul\":11743:11752   */\n      dup3\n        /* \"#utility.yul\":11734:11741   */\n      dup5\n        /* \"#utility.yul\":11730:11753   */\n      sub\n        /* \"#utility.yul\":11726:11758   */\n      slt\n        /* \"#utility.yul\":11723:11842   */\n      iszero\n      tag_603\n      jumpi\n        /* \"#utility.yul\":11761:11840   */\n      tag_604\n      tag_384\n      jump\t// in\n    tag_604:\n        /* \"#utility.yul\":11723:11842   */\n    tag_603:\n        /* \"#utility.yul\":11909:11910   */\n      0x00\n        /* \"#utility.yul\":11898:11907   */\n      dup3\n        /* \"#utility.yul\":11894:11911   */\n      add\n        /* \"#utility.yul\":11881:11912   */\n      calldataload\n        /* \"#utility.yul\":11939:11957   */\n      0xffffffffffffffff\n        /* \"#utility.yul\":11931:11937   */\n      dup2\n        /* \"#utility.yul\":11928:11958   */\n      gt\n        /* \"#utility.yul\":11925:12042   */\n      iszero\n      tag_605\n      jumpi\n        /* \"#utility.yul\":11961:12040   */\n      tag_606\n      tag_385\n      jump\t// in\n    tag_606:\n        /* \"#utility.yul\":11925:12042   */\n    tag_605:\n        /* \"#utility.yul\":12066:12129   */\n      tag_607\n        /* \"#utility.yul\":12121:12128   */\n      dup5\n        /* \"#utility.yul\":12112:12118   */\n      dup3\n        /* \"#utility.yul\":12101:12110   */\n      dup6\n        /* \"#utility.yul\":12097:12119   */\n      add\n        /* \"#utility.yul\":12066:12129   */\n      tag_417\n      jump\t// in\n    tag_607:\n        /* \"#utility.yul\":12056:12129   */\n      swap2\n      pop\n        /* \"#utility.yul\":11852:12139   */\n      pop\n        /* \"#utility.yul\":11637:12146   */\n      swap3\n      swap2\n      pop\n      pop\n      jump\t// out\n        /* \"#utility.yul\":12152:12626   */\n    tag_145:\n        /* \"#utility.yul\":12220:12226   */\n      0x00\n        /* \"#utility.yul\":12228:12234   */\n      dup1\n        /* \"#utility.yul\":12277:12279   */\n      0x40\n        /* \"#utility.yul\":12265:12274   */\n      dup4\n        /* \"#utility.yul\":12256:12263   */\n      dup6\n        /* \"#utility.yul\":12252:12275   */\n      sub\n        /* \"#utility.yul\":12248:12280   */\n      slt\n        /* \"#utility.yul\":12245:12364   */\n      iszero\n      tag_609\n      jumpi\n        /* \"#utility.yul\":12283:12362   */\n      tag_610\n      tag_384\n      jump\t// in\n    tag_610:\n        /* \"#utility.yul\":12245:12364   */\n    tag_609:\n        /* \"#utility.yul\":12403:12404   */\n      0x00\n        /* \"#utility.yul\":12428:12481   */\n      tag_611\n        /* \"#utility.yul\":12473:12480   */\n      dup6\n        /* \"#utility.yul\":12464:12470   */\n      dup3\n        /* \"#utility.yul\":12453:12462   */\n      dup7\n        /* \"#utility.yul\":12449:12471   */\n      add\n        /* \"#utility.yul\":12428:12481   */\n      tag_403\n      jump\t// in\n    tag_611:\n        /* \"#utility.yul\":12418:12481   */\n      swap3\n      pop\n        /* \"#utility.yul\":12374:12491   */\n      pop\n        /* \"#utility.yul\":12530:12532   */\n      0x20\n        /* \"#utility.yul\":12556:12609   */\n      tag_612\n        /* \"#utility.yul\":12601:12608   */\n      dup6\n        /* \"#utility.yul\":12592:12598   */\n      dup3\n        /* \"#utility.yul\":12581:12590   */\n      dup7\n        /* \"#utility.yul\":12577:12599   */\n      add\n        /* \"#utility.yul\":12556:12609   */\n      tag_403\n      jump\t// in\n    tag_612:\n        /* \"#utility.yul\":12546:12609   */\n      swap2\n      pop\n        /* \"#utility.yul\":12501:12619   */\n      pop\n        /* \"#utility.yul\":12152:12626   */\n      swap3\n      pop\n      swap3\n      swap1\n      pop\n      jump\t// out\n        /* \"#utility.yul\":12632:12793   */\n    tag_418:\n        /* \"#utility.yul\":12772:12785   */\n      0x676574417070726f766564000000000000000000000000000000000000000000\n        /* \"#utility.yul\":12768:12769   */\n      0x00\n        /* \"#utility.yul\":12760:12766   */\n      dup3\n        /* \"#utility.yul\":12756:12770   */\n      add\n        /* \"#utility.yul\":12749:12786   */\n      mstore\n        /* \"#utility.yul\":12632:12793   */\n      pop\n      jump\t// out\n        /* \"#utility.yul\":12799:13165   */\n    tag_419:\n        /* \"#utility.yul\":12941:12944   */\n      0x00\n        /* \"#utility.yul\":12962:13029   */\n      tag_615\n        /* \"#utility.yul\":13026:13028   */\n      0x0b\n        /* \"#utility.yul\":13021:13024   */\n      dup4\n        /* \"#utility.yul\":12962:13029   */\n      tag_392\n      jump\t// in\n    tag_615:\n        /* \"#utility.yul\":12955:13029   */\n      swap2\n      pop\n        /* \"#utility.yul\":13038:13131   */\n      tag_616\n        /* \"#utility.yul\":13127:13130   */\n      dup3\n        /* \"#utility.yul\":13038:13131   */\n      tag_418\n      jump\t// in\n    tag_616:\n        /* \"#utility.yul\":13156:13158   */\n      0x20\n        /* \"#utility.yul\":13151:13154   */\n      dup3\n        /* \"#utility.yul\":13147:13159   */\n      add\n        /* \"#utility.yul\":13140:13159   */\n      swap1\n      pop\n        /* \"#utility.yul\":12799:13165   */\n      swap2\n      swap1\n      pop\n      jump\t// out\n        /* \"#utility.yul\":13171:13590   */\n    tag_162:\n        /* \"#utility.yul\":13337:13341   */\n      0x00\n        /* \"#utility.yul\":13375:13377   */\n      0x20\n        /* \"#utility.yul\":13364:13373   */\n      dup3\n        /* \"#utility.yul\":13360:13378   */\n      add\n        /* \"#utility.yul\":13352:13378   */\n      swap1\n      pop\n        /* \"#utility.yul\":13424:13433   */\n      dup2\n        /* \"#utility.yul\":13418:13422   */\n      dup2\n        /* \"#utility.yul\":13414:13434   */\n      sub\n        /* \"#utility.yul\":13410:13411   */\n      0x00\n        /* \"#utility.yul\":13399:13408   */\n      dup4\n        /* \"#utility.yul\":13395:13412   */\n      add\n        /* \"#utility.yul\":13388:13435   */\n      mstore\n        /* \"#utility.yul\":13452:13583   */\n      tag_618\n        /* \"#utility.yul\":13578:13582   */\n      dup2\n        /* \"#utility.yul\":13452:13583   */\n      tag_419\n      jump\t// in\n    tag_618:\n        /* \"#utility.yul\":13444:13583   */\n      swap1\n      pop\n        /* \"#utility.yul\":13171:13590   */\n      swap2\n      swap1\n      pop\n      jump\t// out\n        /* \"#utility.yul\":13596:13753   */\n    tag_420:\n        /* \"#utility.yul\":13736:13745   */\n      0x617070726f766500000000000000000000000000000000000000000000000000\n        /* \"#utility.yul\":13732:13733   */\n      0x00\n        /* \"#utility.yul\":13724:13730   */\n      dup3\n        /* \"#utility.yul\":13720:13734   */\n      add\n        /* \"#utility.yul\":13713:13746   */\n      mstore\n        /* \"#utility.yul\":13596:13753   */\n      pop\n      jump\t// out\n        /* \"#utility.yul\":13759:14124   */\n    tag_421:\n        /* \"#utility.yul\":13901:13904   */\n      0x00\n        /* \"#utility.yul\":13922:13988   */\n      tag_621\n        /* \"#utility.yul\":13986:13987   */\n      0x07\n        /* \"#utility.yul\":13981:13984   */\n      dup4\n        /* \"#utility.yul\":13922:13988   */\n      tag_392\n      jump\t// in\n    tag_621:\n        /* \"#utility.yul\":13915:13988   */\n      swap2\n      pop\n        /* \"#utility.yul\":13997:14090   */\n      tag_622\n        /* \"#utility.yul\":14086:14089   */\n      dup3\n        /* \"#utility.yul\":13997:14090   */\n      tag_420\n      jump\t// in\n    tag_622:\n        /* \"#utility.yul\":14115:14117   */\n      0x20\n        /* \"#utility.yul\":14110:14113   */\n      dup3\n        /* \"#utility.yul\":14106:14118   */\n      add\n        /* \"#utility.yul\":14099:14118   */\n      swap1\n      pop\n        /* \"#utility.yul\":13759:14124   */\n      swap2\n      swap1\n      pop\n      jump\t// out\n        /* \"#utility.yul\":14130:14549   */\n    tag_165:\n        /* \"#utility.yul\":14296:14300   */\n      0x00\n        /* \"#utility.yul\":14334:14336   */\n      0x20\n        /* \"#utility.yul\":14323:14332   */\n      dup3\n        /* \"#utility.yul\":14319:14337   */\n      add\n        /* \"#utility.yul\":14311:14337   */\n      swap1\n      pop\n        /* \"#utility.yul\":14383:14392   */\n      dup2\n        /* \"#utility.yul\":14377:14381   */\n      dup2\n        /* \"#utility.yul\":14373:14393   */\n      sub\n        /* \"#utility.yul\":14369:14370   */\n      0x00\n        /* \"#utility.yul\":14358:14367   */\n      dup4\n        /* \"#utility.yul\":14354:14371   */\n      add\n        /* \"#utility.yul\":14347:14394   */\n      mstore\n        /* \"#utility.yul\":14411:14542   */\n      tag_624\n        /* \"#utility.yul\":14537:14541   */\n      dup2\n        /* \"#utility.yul\":14411:14542   */\n      tag_421\n      jump\t// in\n    tag_624:\n        /* \"#utility.yul\":14403:14542   */\n      swap1\n      pop\n        /* \"#utility.yul\":14130:14549   */\n      swap2\n      swap1\n      pop\n      jump\t// out\n        /* \"#utility.yul\":14555:14717   */\n    tag_422:\n        /* \"#utility.yul\":14695:14709   */\n      0x7472616e7366657246726f6d0000000000000000000000000000000000000000\n        /* \"#utility.yul\":14691:14692   */\n      0x00\n        /* \"#utility.yul\":14683:14689   */\n      dup3\n        /* \"#utility.yul\":14679:14693   */\n      add\n        /* \"#utility.yul\":14672:14710   */\n      mstore\n        /* \"#utility.yul\":14555:14717   */\n      pop\n      jump\t// out\n        /* \"#utility.yul\":14723:15089   */\n    tag_423:\n        /* \"#utility.yul\":14865:14868   */\n      0x00\n        /* \"#utility.yul\":14886:14953   */\n      tag_627\n        /* \"#utility.yul\":14950:14952   */\n      0x0c\n        /* \"#utility.yul\":14945:14948   */\n      dup4\n        /* \"#utility.yul\":14886:14953   */\n      tag_392\n      jump\t// in\n    tag_627:\n        /* \"#utility.yul\":14879:14953   */\n      swap2\n      pop\n        /* \"#utility.yul\":14962:15055   */\n      tag_628\n        /* \"#utility.yul\":15051:15054   */\n      dup3\n        /* \"#utility.yul\":14962:15055   */\n      tag_422\n      jump\t// in\n    tag_628:\n        /* \"#utility.yul\":15080:15082   */\n      0x20\n        /* \"#utility.yul\":15075:15078   */\n      dup3\n        /* \"#utility.yul\":15071:15083   */\n      add\n        /* \"#utility.yul\":15064:15083   */\n      swap1\n      pop\n        /* \"#utility.yul\":14723:15089   */\n      swap2\n      swap1\n      pop\n      jump\t// out\n        /* \"#utility.yul\":15095:15514   */\n    tag_176:\n        /* \"#utility.yul\":15261:15265   */\n      0x00\n        /* \"#utility.yul\":15299:15301   */\n      0x20\n        /* \"#utility.yul\":15288:15297   */\n      dup3\n        /* \"#utility.yul\":15284:15302   */\n      add\n        /* \"#utility.yul\":15276:15302   */\n      swap1\n      pop\n        /* \"#utility.yul\":15348:15357   */\n      dup2\n        /* \"#utility.yul\":15342:15346   */\n      dup2\n        /* \"#utility.yul\":15338:15358   */\n      sub\n        /* \"#utility.yul\":15334:15335   */\n      0x00\n        /* \"#utility.yul\":15323:15332   */\n      dup4\n        /* \"#utility.yul\":15319:15336   */\n      add\n        /* \"#utility.yul\":15312:15359   */\n      mstore\n        /* \"#utility.yul\":15376:15507   */\n      tag_630\n        /* \"#utility.yul\":15502:15506   */\n      dup2\n        /* \"#utility.yul\":15376:15507   */\n      tag_423\n      jump\t// in\n    tag_630:\n        /* \"#utility.yul\":15368:15507   */\n      swap1\n      pop\n        /* \"#utility.yul\":15095:15514   */\n      swap2\n      swap1\n      pop\n      jump\t// out\n        /* \"#utility.yul\":15520:15682   */\n    tag_424:\n        /* \"#utility.yul\":15660:15674   */\n      0x4f7574206f6620496e6465780000000000000000000000000000000000000000\n        /* \"#utility.yul\":15656:15657   */\n      0x00\n        /* \"#utility.yul\":15648:15654   */\n      dup3\n        /* \"#utility.yul\":15644:15658   */\n      add\n        /* \"#utility.yul\":15637:15675   */\n      mstore\n        /* \"#utility.yul\":15520:15682   */\n      pop\n      jump\t// out\n        /* \"#utility.yul\":15688:16054   */\n    tag_425:\n        /* \"#utility.yul\":15830:15833   */\n      0x00\n        /* \"#utility.yul\":15851:15918   */\n      tag_633\n        /* \"#utility.yul\":15915:15917   */\n      0x0c\n        /* \"#utility.yul\":15910:15913   */\n      dup4\n        /* \"#utility.yul\":15851:15918   */\n      tag_392\n      jump\t// in\n    tag_633:\n        /* \"#utility.yul\":15844:15918   */\n      swap2\n      pop\n        /* \"#utility.yul\":15927:16020   */\n      tag_634\n        /* \"#utility.yul\":16016:16019   */\n      dup3\n        /* \"#utility.yul\":15927:16020   */\n      tag_424\n      jump\t// in\n    tag_634:\n        /* \"#utility.yul\":16045:16047   */\n      0x20\n        /* \"#utility.yul\":16040:16043   */\n      dup3\n        /* \"#utility.yul\":16036:16048   */\n      add\n        /* \"#utility.yul\":16029:16048   */\n      swap1\n      pop\n        /* \"#utility.yul\":15688:16054   */\n      swap2\n      swap1\n      pop\n      jump\t// out\n        /* \"#utility.yul\":16060:16479   */\n    tag_183:\n        /* \"#utility.yul\":16226:16230   */\n      0x00\n        /* \"#utility.yul\":16264:16266   */\n      0x20\n        /* \"#utility.yul\":16253:16262   */\n      dup3\n        /* \"#utility.yul\":16249:16267   */\n      add\n        /* \"#utility.yul\":16241:16267   */\n      swap1\n      pop\n        /* \"#utility.yul\":16313:16322   */\n      dup2\n        /* \"#utility.yul\":16307:16311   */\n      dup2\n        /* \"#utility.yul\":16303:16323   */\n      sub\n        /* \"#utility.yul\":16299:16300   */\n      0x00\n        /* \"#utility.yul\":16288:16297   */\n      dup4\n        /* \"#utility.yul\":16284:16301   */\n      add\n        /* \"#utility.yul\":16277:16324   */\n      mstore\n        /* \"#utility.yul\":16341:16472   */\n      tag_636\n        /* \"#utility.yul\":16467:16471   */\n      dup2\n        /* \"#utility.yul\":16341:16472   */\n      tag_425\n      jump\t// in\n    tag_636:\n        /* \"#utility.yul\":16333:16472   */\n      swap1\n      pop\n        /* \"#utility.yul\":16060:16479   */\n      swap2\n      swap1\n      pop\n      jump\t// out\n        /* \"#utility.yul\":16485:16722   */\n    tag_426:\n        /* \"#utility.yul\":16625:16659   */\n      0x4552433732313a207472616e7366657220746f206e6f6e204552433732315265\n        /* \"#utility.yul\":16621:16622   */\n      0x00\n        /* \"#utility.yul\":16613:16619   */\n      dup3\n        /* \"#utility.yul\":16609:16623   */\n      add\n        /* \"#utility.yul\":16602:16660   */\n      mstore\n        /* \"#utility.yul\":16694:16714   */\n      0x63656976657220696d706c656d656e7465720000000000000000000000000000\n        /* \"#utility.yul\":16689:16691   */\n      0x20\n        /* \"#utility.yul\":16681:16687   */\n      dup3\n        /* \"#utility.yul\":16677:16692   */\n      add\n        /* \"#utility.yul\":16670:16715   */\n      mstore\n        /* \"#utility.yul\":16485:16722   */\n      pop\n      jump\t// out\n        /* \"#utility.yul\":16728:17094   */\n    tag_427:\n        /* \"#utility.yul\":16870:16873   */\n      0x00\n        /* \"#utility.yul\":16891:16958   */\n      tag_639\n        /* \"#utility.yul\":16955:16957   */\n      0x32\n        /* \"#utility.yul\":16950:16953   */\n      dup4\n        /* \"#utility.yul\":16891:16958   */\n      tag_392\n      jump\t// in\n    tag_639:\n        /* \"#utility.yul\":16884:16958   */\n      swap2\n      pop\n        /* \"#utility.yul\":16967:17060   */\n      tag_640\n        /* \"#utility.yul\":17056:17059   */\n      dup3\n        /* \"#utility.yul\":16967:17060   */\n      tag_426\n      jump\t// in\n    tag_640:\n        /* \"#utility.yul\":17085:17087   */\n      0x40\n        /* \"#utility.yul\":17080:17083   */\n      dup3\n        /* \"#utility.yul\":17076:17088   */\n      add\n        /* \"#utility.yul\":17069:17088   */\n      swap1\n      pop\n        /* \"#utility.yul\":16728:17094   */\n      swap2\n      swap1\n      pop\n      jump\t// out\n        /* \"#utility.yul\":17100:17519   */\n    tag_196:\n        /* \"#utility.yul\":17266:17270   */\n      0x00\n        /* \"#utility.yul\":17304:17306   */\n      0x20\n        /* \"#utility.yul\":17293:17302   */\n      dup3\n        /* \"#utility.yul\":17289:17307   */\n      add\n        /* \"#utility.yul\":17281:17307   */\n      swap1\n      pop\n        /* \"#utility.yul\":17353:17362   */\n      dup2\n        /* \"#utility.yul\":17347:17351   */\n      dup2\n        /* \"#utility.yul\":17343:17363   */\n      sub\n        /* \"#utility.yul\":17339:17340   */\n      0x00\n        /* \"#utility.yul\":17328:17337   */\n      dup4\n        /* \"#utility.yul\":17324:17341   */\n      add\n        /* \"#utility.yul\":17317:17364   */\n      mstore\n        /* \"#utility.yul\":17381:17512   */\n      tag_642\n        /* \"#utility.yul\":17507:17511   */\n      dup2\n        /* \"#utility.yul\":17381:17512   */\n      tag_427\n      jump\t// in\n    tag_642:\n        /* \"#utility.yul\":17373:17512   */\n      swap1\n      pop\n        /* \"#utility.yul\":17100:17519   */\n      swap2\n      swap1\n      pop\n      jump\t// out\n        /* \"#utility.yul\":17525:17691   */\n    tag_428:\n        /* \"#utility.yul\":17665:17683   */\n      0x736166655472616e7366657246726f6d00000000000000000000000000000000\n        /* \"#utility.yul\":17661:17662   */\n      0x00\n        /* \"#utility.yul\":17653:17659   */\n      dup3\n        /* \"#utility.yul\":17649:17663   */\n      add\n        /* \"#utility.yul\":17642:17684   */\n      mstore\n        /* \"#utility.yul\":17525:17691   */\n      pop\n      jump\t// out\n        /* \"#utility.yul\":17697:18063   */\n    tag_429:\n        /* \"#utility.yul\":17839:17842   */\n      0x00\n        /* \"#utility.yul\":17860:17927   */\n      tag_645\n        /* \"#utility.yul\":17924:17926   */\n      0x10\n        /* \"#utility.yul\":17919:17922   */\n      dup4\n        /* \"#utility.yul\":17860:17927   */\n      tag_392\n      jump\t// in\n    tag_645:\n        /* \"#utility.yul\":17853:17927   */\n      swap2\n      pop\n        /* \"#utility.yul\":17936:18029   */\n      tag_646\n        /* \"#utility.yul\":18025:18028   */\n      dup3\n        /* \"#utility.yul\":17936:18029   */\n      tag_428\n      jump\t// in\n    tag_646:\n        /* \"#utility.yul\":18054:18056   */\n      0x20\n        /* \"#utility.yul\":18049:18052   */\n      dup3\n        /* \"#utility.yul\":18045:18057   */\n      add\n        /* \"#utility.yul\":18038:18057   */\n      swap1\n      pop\n        /* \"#utility.yul\":17697:18063   */\n      swap2\n      swap1\n      pop\n      jump\t// out\n        /* \"#utility.yul\":18069:18488   */\n    tag_199:\n        /* \"#utility.yul\":18235:18239   */\n      0x00\n        /* \"#utility.yul\":18273:18275   */\n      0x20\n        /* \"#utility.yul\":18262:18271   */\n      dup3\n        /* \"#utility.yul\":18258:18276   */\n      add\n        /* \"#utility.yul\":18250:18276   */\n      swap1\n      pop\n        /* \"#utility.yul\":18322:18331   */\n      dup2\n        /* \"#utility.yul\":18316:18320   */\n      dup2\n        /* \"#utility.yul\":18312:18332   */\n      sub\n        /* \"#utility.yul\":18308:18309   */\n      0x00\n        /* \"#utility.yul\":18297:18306   */\n      dup4\n        /* \"#utility.yul\":18293:18310   */\n      add\n        /* \"#utility.yul\":18286:18333   */\n      mstore\n        /* \"#utility.yul\":18350:18481   */\n      tag_648\n        /* \"#utility.yul\":18476:18480   */\n      dup2\n        /* \"#utility.yul\":18350:18481   */\n      tag_429\n      jump\t// in\n    tag_648:\n        /* \"#utility.yul\":18342:18481   */\n      swap1\n      pop\n        /* \"#utility.yul\":18069:18488   */\n      swap2\n      swap1\n      pop\n      jump\t// out\n        /* \"#utility.yul\":18494:18826   */\n    tag_230:\n        /* \"#utility.yul\":18615:18619   */\n      0x00\n        /* \"#utility.yul\":18653:18655   */\n      0x40\n        /* \"#utility.yul\":18642:18651   */\n      dup3\n        /* \"#utility.yul\":18638:18656   */\n      add\n        /* \"#utility.yul\":18630:18656   */\n      swap1\n      pop\n        /* \"#utility.yul\":18666:18737   */\n      tag_650\n        /* \"#utility.yul\":18734:18735   */\n      0x00\n        /* \"#utility.yul\":18723:18732   */\n      dup4\n        /* \"#utility.yul\":18719:18736   */\n      add\n        /* \"#utility.yul\":18710:18716   */\n      dup6\n        /* \"#utility.yul\":18666:18737   */\n      tag_401\n      jump\t// in\n    tag_650:\n        /* \"#utility.yul\":18747:18819   */\n      tag_651\n        /* \"#utility.yul\":18815:18817   */\n      0x20\n        /* \"#utility.yul\":18804:18813   */\n      dup4\n        /* \"#utility.yul\":18800:18818   */\n      add\n        /* \"#utility.yul\":18791:18797   */\n      dup5\n        /* \"#utility.yul\":18747:18819   */\n      tag_404\n      jump\t// in\n    tag_651:\n        /* \"#utility.yul\":18494:18826   */\n      swap4\n      swap3\n      pop\n      pop\n      pop\n      jump\t// out\n        /* \"#utility.yul\":18832:18999   */\n    tag_430:\n        /* \"#utility.yul\":18972:18991   */\n      0x736574417070726f76616c466f72416c6c000000000000000000000000000000\n        /* \"#utility.yul\":18968:18969   */\n      0x00\n        /* \"#utility.yul\":18960:18966   */\n      dup3\n        /* \"#utility.yul\":18956:18970   */\n      add\n        /* \"#utility.yul\":18949:18992   */\n      mstore\n        /* \"#utility.yul\":18832:18999   */\n      pop\n      jump\t// out\n        /* \"#utility.yul\":19005:19371   */\n    tag_431:\n        /* \"#utility.yul\":19147:19150   */\n      0x00\n        /* \"#utility.yul\":19168:19235   */\n      tag_654\n        /* \"#utility.yul\":19232:19234   */\n      0x11\n        /* \"#utility.yul\":19227:19230   */\n      dup4\n        /* \"#utility.yul\":19168:19235   */\n      tag_392\n      jump\t// in\n    tag_654:\n        /* \"#utility.yul\":19161:19235   */\n      swap2\n      pop\n        /* \"#utility.yul\":19244:19337   */\n      tag_655\n        /* \"#utility.yul\":19333:19336   */\n      dup3\n        /* \"#utility.yul\":19244:19337   */\n      tag_430\n      jump\t// in\n    tag_655:\n        /* \"#utility.yul\":19362:19364   */\n      0x20\n        /* \"#utility.yul\":19357:19360   */\n      dup3\n        /* \"#utility.yul\":19353:19365   */\n      add\n        /* \"#utility.yul\":19346:19365   */\n      swap1\n      pop\n        /* \"#utility.yul\":19005:19371   */\n      swap2\n      swap1\n      pop\n      jump\t// out\n        /* \"#utility.yul\":19377:19796   */\n    tag_235:\n        /* \"#utility.yul\":19543:19547   */\n      0x00\n        /* \"#utility.yul\":19581:19583   */\n      0x20\n        /* \"#utility.yul\":19570:19579   */\n      dup3\n        /* \"#utility.yul\":19566:19584   */\n      add\n        /* \"#utility.yul\":19558:19584   */\n      swap1\n      pop\n        /* \"#utility.yul\":19630:19639   */\n      dup2\n        /* \"#utility.yul\":19624:19628   */\n      dup2\n        /* \"#utility.yul\":19620:19640   */\n      sub\n        /* \"#utility.yul\":19616:19617   */\n      0x00\n        /* \"#utility.yul\":19605:19614   */\n      dup4\n        /* \"#utility.yul\":19601:19618   */\n      add\n        /* \"#utility.yul\":19594:19641   */\n      mstore\n        /* \"#utility.yul\":19658:19789   */\n      tag_657\n        /* \"#utility.yul\":19784:19788   */\n      dup2\n        /* \"#utility.yul\":19658:19789   */\n      tag_431\n      jump\t// in\n    tag_657:\n        /* \"#utility.yul\":19650:19789   */\n      swap1\n      pop\n        /* \"#utility.yul\":19377:19796   */\n      swap2\n      swap1\n      pop\n      jump\t// out\n        /* \"#utility.yul\":19802:19982   */\n    tag_432:\n        /* \"#utility.yul\":19850:19927   */\n      0x4e487b7100000000000000000000000000000000000000000000000000000000\n        /* \"#utility.yul\":19847:19848   */\n      0x00\n        /* \"#utility.yul\":19840:19928   */\n      mstore\n        /* \"#utility.yul\":19947:19951   */\n      0x22\n        /* \"#utility.yul\":19944:19945   */\n      0x04\n        /* \"#utility.yul\":19937:19952   */\n      mstore\n        /* \"#utility.yul\":19971:19975   */\n      0x24\n        /* \"#utility.yul\":19968:19969   */\n      0x00\n        /* \"#utility.yul\":19961:19976   */\n      revert\n        /* \"#utility.yul\":19988:20308   */\n    tag_249:\n        /* \"#utility.yul\":20032:20038   */\n      0x00\n        /* \"#utility.yul\":20069:20070   */\n      0x02\n        /* \"#utility.yul\":20063:20067   */\n      dup3\n        /* \"#utility.yul\":20059:20071   */\n      div\n        /* \"#utility.yul\":20049:20071   */\n      swap1\n      pop\n        /* \"#utility.yul\":20116:20117   */\n      0x01\n        /* \"#utility.yul\":20110:20114   */\n      dup3\n        /* \"#utility.yul\":20106:20118   */\n      and\n        /* \"#utility.yul\":20137:20155   */\n      dup1\n        /* \"#utility.yul\":20127:20208   */\n      tag_660\n      jumpi\n        /* \"#utility.yul\":20193:20197   */\n      0x7f\n        /* \"#utility.yul\":20185:20191   */\n      dup3\n        /* \"#utility.yul\":20181:20198   */\n      and\n        /* \"#utility.yul\":20171:20198   */\n      swap2\n      pop\n        /* \"#utility.yul\":20127:20208   */\n    tag_660:\n        /* \"#utility.yul\":20255:20257   */\n      0x20\n        /* \"#utility.yul\":20247:20253   */\n      dup3\n        /* \"#utility.yul\":20244:20258   */\n      lt\n        /* \"#utility.yul\":20224:20242   */\n      dup2\n        /* \"#utility.yul\":20221:20259   */\n      sub\n        /* \"#utility.yul\":20218:20302   */\n      tag_661\n      jumpi\n        /* \"#utility.yul\":20274:20292   */\n      tag_662\n      tag_432\n      jump\t// in\n    tag_662:\n        /* \"#utility.yul\":20218:20302   */\n    tag_661:\n        /* \"#utility.yul\":20039:20308   */\n      pop\n        /* \"#utility.yul\":19988:20308   */\n      swap2\n      swap1\n      pop\n      jump\t// out\n        /* \"#utility.yul\":20314:20462   */\n    tag_433:\n        /* \"#utility.yul\":20416:20427   */\n      0x00\n        /* \"#utility.yul\":20453:20456   */\n      dup2\n        /* \"#utility.yul\":20438:20456   */\n      swap1\n      pop\n        /* \"#utility.yul\":20314:20462   */\n      swap3\n      swap2\n      pop\n      pop\n      jump\t// out\n        /* \"#utility.yul\":20468:20609   */\n    tag_434:\n        /* \"#utility.yul\":20517:20521   */\n      0x00\n        /* \"#utility.yul\":20540:20543   */\n      dup2\n        /* \"#utility.yul\":20532:20543   */\n      swap1\n      pop\n        /* \"#utility.yul\":20563:20566   */\n      dup2\n        /* \"#utility.yul\":20560:20561   */\n      0x00\n        /* \"#utility.yul\":20553:20567   */\n      mstore\n        /* \"#utility.yul\":20597:20601   */\n      0x20\n        /* \"#utility.yul\":20594:20595   */\n      0x00\n        /* \"#utility.yul\":20584:20602   */\n      keccak256\n        /* \"#utility.yul\":20576:20602   */\n      swap1\n      pop\n        /* \"#utility.yul\":20468:20609   */\n      swap2\n      swap1\n      pop\n      jump\t// out\n        /* \"#utility.yul\":20639:21513   */\n    tag_435:\n        /* \"#utility.yul\":20742:20745   */\n      0x00\n        /* \"#utility.yul\":20779:20784   */\n      dup2\n        /* \"#utility.yul\":20773:20785   */\n      sload\n        /* \"#utility.yul\":20808:20844   */\n      tag_666\n        /* \"#utility.yul\":20834:20843   */\n      dup2\n        /* \"#utility.yul\":20808:20844   */\n      tag_249\n      jump\t// in\n    tag_666:\n        /* \"#utility.yul\":20860:20949   */\n      tag_667\n        /* \"#utility.yul\":20942:20948   */\n      dup2\n        /* \"#utility.yul\":20937:20940   */\n      dup7\n        /* \"#utility.yul\":20860:20949   */\n      tag_433\n      jump\t// in\n    tag_667:\n        /* \"#utility.yul\":20853:20949   */\n      swap5\n      pop\n        /* \"#utility.yul\":20980:20981   */\n      0x01\n        /* \"#utility.yul\":20969:20978   */\n      dup3\n        /* \"#utility.yul\":20965:20982   */\n      and\n        /* \"#utility.yul\":20996:20997   */\n      0x00\n        /* \"#utility.yul\":20991:21157   */\n      dup2\n      eq\n      tag_669\n      jumpi\n        /* \"#utility.yul\":21171:21172   */\n      0x01\n        /* \"#utility.yul\":21166:21507   */\n      dup2\n      eq\n      tag_670\n      jumpi\n        /* \"#utility.yul\":20958:21507   */\n      jump(tag_668)\n        /* \"#utility.yul\":20991:21157   */\n    tag_669:\n        /* \"#utility.yul\":21075:21079   */\n      0xff\n        /* \"#utility.yul\":21071:21080   */\n      not\n        /* \"#utility.yul\":21060:21069   */\n      dup4\n        /* \"#utility.yul\":21056:21081   */\n      and\n        /* \"#utility.yul\":21051:21054   */\n      dup7\n        /* \"#utility.yul\":21044:21082   */\n      mstore\n        /* \"#utility.yul\":21137:21143   */\n      dup2\n        /* \"#utility.yul\":21130:21144   */\n      iszero\n        /* \"#utility.yul\":21123:21145   */\n      iszero\n        /* \"#utility.yul\":21115:21121   */\n      dup3\n        /* \"#utility.yul\":21111:21146   */\n      mul\n        /* \"#utility.yul\":21106:21109   */\n      dup7\n        /* \"#utility.yul\":21102:21147   */\n      add\n        /* \"#utility.yul\":21095:21147   */\n      swap4\n      pop\n        /* \"#utility.yul\":20991:21157   */\n      jump(tag_668)\n        /* \"#utility.yul\":21166:21507   */\n    tag_670:\n        /* \"#utility.yul\":21233:21271   */\n      tag_671\n        /* \"#utility.yul\":21265:21270   */\n      dup6\n        /* \"#utility.yul\":21233:21271   */\n      tag_434\n      jump\t// in\n    tag_671:\n        /* \"#utility.yul\":21293:21294   */\n      0x00\n        /* \"#utility.yul\":21307:21461   */\n    tag_672:\n        /* \"#utility.yul\":21321:21327   */\n      dup4\n        /* \"#utility.yul\":21318:21319   */\n      dup2\n        /* \"#utility.yul\":21315:21328   */\n      lt\n        /* \"#utility.yul\":21307:21461   */\n      iszero\n      tag_674\n      jumpi\n        /* \"#utility.yul\":21395:21402   */\n      dup2\n        /* \"#utility.yul\":21389:21403   */\n      sload\n        /* \"#utility.yul\":21385:21386   */\n      dup2\n        /* \"#utility.yul\":21380:21383   */\n      dup10\n        /* \"#utility.yul\":21376:21387   */\n      add\n        /* \"#utility.yul\":21369:21404   */\n      mstore\n        /* \"#utility.yul\":21445:21446   */\n      0x01\n        /* \"#utility.yul\":21436:21443   */\n      dup3\n        /* \"#utility.yul\":21432:21447   */\n      add\n        /* \"#utility.yul\":21421:21447   */\n      swap2\n      pop\n        /* \"#utility.yul\":21343:21347   */\n      0x20\n        /* \"#utility.yul\":21340:21341   */\n      dup2\n        /* \"#utility.yul\":21336:21348   */\n      add\n        /* \"#utility.yul\":21331:21348   */\n      swap1\n      pop\n        /* \"#utility.yul\":21307:21461   */\n      jump(tag_672)\n    tag_674:\n        /* \"#utility.yul\":21490:21496   */\n      dup4\n        /* \"#utility.yul\":21485:21488   */\n      dup9\n        /* \"#utility.yul\":21481:21497   */\n      add\n        /* \"#utility.yul\":21474:21497   */\n      swap6\n      pop\n        /* \"#utility.yul\":21173:21507   */\n      pop\n      pop\n        /* \"#utility.yul\":20958:21507   */\n    tag_668:\n      pop\n        /* \"#utility.yul\":20746:21513   */\n      pop\n      pop\n        /* \"#utility.yul\":20639:21513   */\n      swap3\n      swap2\n      pop\n      pop\n      jump\t// out\n        /* \"#utility.yul\":21519:21909   */\n    tag_436:\n        /* \"#utility.yul\":21625:21628   */\n      0x00\n        /* \"#utility.yul\":21653:21692   */\n      tag_676\n        /* \"#utility.yul\":21686:21691   */\n      dup3\n        /* \"#utility.yul\":21653:21692   */\n      tag_391\n      jump\t// in\n    tag_676:\n        /* \"#utility.yul\":21708:21797   */\n      tag_677\n        /* \"#utility.yul\":21790:21796   */\n      dup2\n        /* \"#utility.yul\":21785:21788   */\n      dup6\n        /* \"#utility.yul\":21708:21797   */\n      tag_433\n      jump\t// in\n    tag_677:\n        /* \"#utility.yul\":21701:21797   */\n      swap4\n      pop\n        /* \"#utility.yul\":21806:21871   */\n      tag_678\n        /* \"#utility.yul\":21864:21870   */\n      dup2\n        /* \"#utility.yul\":21859:21862   */\n      dup6\n        /* \"#utility.yul\":21852:21856   */\n      0x20\n        /* \"#utility.yul\":21845:21850   */\n      dup7\n        /* \"#utility.yul\":21841:21857   */\n      add\n        /* \"#utility.yul\":21806:21871   */\n      tag_393\n      jump\t// in\n    tag_678:\n        /* \"#utility.yul\":21896:21902   */\n      dup1\n        /* \"#utility.yul\":21891:21894   */\n      dup5\n        /* \"#utility.yul\":21887:21903   */\n      add\n        /* \"#utility.yul\":21880:21903   */\n      swap2\n      pop\n        /* \"#utility.yul\":21629:21909   */\n      pop\n        /* \"#utility.yul\":21519:21909   */\n      swap3\n      swap2\n      pop\n      pop\n      jump\t// out\n        /* \"#utility.yul\":21915:22076   */\n    tag_437:\n        /* \"#utility.yul\":22055:22068   */\n      0x3f746f6b656e547970653d000000000000000000000000000000000000000000\n        /* \"#utility.yul\":22051:22052   */\n      0x00\n        /* \"#utility.yul\":22043:22049   */\n      dup3\n        /* \"#utility.yul\":22039:22053   */\n      add\n        /* \"#utility.yul\":22032:22069   */\n      mstore\n        /* \"#utility.yul\":21915:22076   */\n      pop\n      jump\t// out\n        /* \"#utility.yul\":22082:22484   */\n    tag_438:\n        /* \"#utility.yul\":22242:22245   */\n      0x00\n        /* \"#utility.yul\":22263:22348   */\n      tag_681\n        /* \"#utility.yul\":22345:22347   */\n      0x0b\n        /* \"#utility.yul\":22340:22343   */\n      dup4\n        /* \"#utility.yul\":22263:22348   */\n      tag_433\n      jump\t// in\n    tag_681:\n        /* \"#utility.yul\":22256:22348   */\n      swap2\n      pop\n        /* \"#utility.yul\":22357:22450   */\n      tag_682\n        /* \"#utility.yul\":22446:22449   */\n      dup3\n        /* \"#utility.yul\":22357:22450   */\n      tag_437\n      jump\t// in\n    tag_682:\n        /* \"#utility.yul\":22475:22477   */\n      0x0b\n        /* \"#utility.yul\":22470:22473   */\n      dup3\n        /* \"#utility.yul\":22466:22478   */\n      add\n        /* \"#utility.yul\":22459:22478   */\n      swap1\n      pop\n        /* \"#utility.yul\":22082:22484   */\n      swap2\n      swap1\n      pop\n      jump\t// out\n        /* \"#utility.yul\":22490:22569   */\n    tag_439:\n        /* \"#utility.yul\":22529:22536   */\n      0x00\n        /* \"#utility.yul\":22558:22563   */\n      dup2\n        /* \"#utility.yul\":22547:22563   */\n      swap1\n      pop\n        /* \"#utility.yul\":22490:22569   */\n      swap2\n      swap1\n      pop\n      jump\t// out\n        /* \"#utility.yul\":22575:22732   */\n    tag_440:\n        /* \"#utility.yul\":22680:22725   */\n      tag_685\n        /* \"#utility.yul\":22700:22724   */\n      tag_686\n        /* \"#utility.yul\":22718:22723   */\n      dup3\n        /* \"#utility.yul\":22700:22724   */\n      tag_396\n      jump\t// in\n    tag_686:\n        /* \"#utility.yul\":22680:22725   */\n      tag_439\n      jump\t// in\n    tag_685:\n        /* \"#utility.yul\":22675:22678   */\n      dup3\n        /* \"#utility.yul\":22668:22726   */\n      mstore\n        /* \"#utility.yul\":22575:22732   */\n      pop\n      pop\n      jump\t// out\n        /* \"#utility.yul\":22738:23574   */\n    tag_255:\n        /* \"#utility.yul\":23044:23047   */\n      0x00\n        /* \"#utility.yul\":23066:23158   */\n      tag_688\n        /* \"#utility.yul\":23154:23157   */\n      dup3\n        /* \"#utility.yul\":23145:23151   */\n      dup7\n        /* \"#utility.yul\":23066:23158   */\n      tag_435\n      jump\t// in\n    tag_688:\n        /* \"#utility.yul\":23059:23158   */\n      swap2\n      pop\n        /* \"#utility.yul\":23175:23270   */\n      tag_689\n        /* \"#utility.yul\":23266:23269   */\n      dup3\n        /* \"#utility.yul\":23257:23263   */\n      dup6\n        /* \"#utility.yul\":23175:23270   */\n      tag_436\n      jump\t// in\n    tag_689:\n        /* \"#utility.yul\":23168:23270   */\n      swap2\n      pop\n        /* \"#utility.yul\":23287:23435   */\n      tag_690\n        /* \"#utility.yul\":23431:23434   */\n      dup3\n        /* \"#utility.yul\":23287:23435   */\n      tag_438\n      jump\t// in\n    tag_690:\n        /* \"#utility.yul\":23280:23435   */\n      swap2\n      pop\n        /* \"#utility.yul\":23445:23520   */\n      tag_691\n        /* \"#utility.yul\":23516:23519   */\n      dup3\n        /* \"#utility.yul\":23507:23513   */\n      dup5\n        /* \"#utility.yul\":23445:23520   */\n      tag_440\n      jump\t// in\n    tag_691:\n        /* \"#utility.yul\":23545:23547   */\n      0x20\n        /* \"#utility.yul\":23540:23543   */\n      dup3\n        /* \"#utility.yul\":23536:23548   */\n      add\n        /* \"#utility.yul\":23529:23548   */\n      swap2\n      pop\n        /* \"#utility.yul\":23565:23568   */\n      dup2\n        /* \"#utility.yul\":23558:23568   */\n      swap1\n      pop\n        /* \"#utility.yul\":22738:23574   */\n      swap5\n      swap4\n      pop\n      pop\n      pop\n      pop\n      jump\t// out\n        /* \"#utility.yul\":23580:23673   */\n    tag_441:\n        /* \"#utility.yul\":23617:23623   */\n      0x00\n        /* \"#utility.yul\":23664:23666   */\n      0x20\n        /* \"#utility.yul\":23659:23661   */\n      0x1f\n        /* \"#utility.yul\":23652:23657   */\n      dup4\n        /* \"#utility.yul\":23648:23662   */\n      add\n        /* \"#utility.yul\":23644:23667   */\n      div\n        /* \"#utility.yul\":23634:23667   */\n      swap1\n      pop\n        /* \"#utility.yul\":23580:23673   */\n      swap2\n      swap1\n      pop\n      jump\t// out\n        /* \"#utility.yul\":23679:23786   */\n    tag_442:\n        /* \"#utility.yul\":23723:23731   */\n      0x00\n        /* \"#utility.yul\":23773:23778   */\n      dup3\n        /* \"#utility.yul\":23767:23771   */\n      dup3\n        /* \"#utility.yul\":23763:23779   */\n      shl\n        /* \"#utility.yul\":23742:23779   */\n      swap1\n      pop\n        /* \"#utility.yul\":23679:23786   */\n      swap3\n      swap2\n      pop\n      pop\n      jump\t// out\n        /* \"#utility.yul\":23792:24185   */\n    tag_443:\n        /* \"#utility.yul\":23861:23867   */\n      0x00\n        /* \"#utility.yul\":23911:23912   */\n      0x08\n        /* \"#utility.yul\":23899:23909   */\n      dup4\n        /* \"#utility.yul\":23895:23913   */\n      mul\n        /* \"#utility.yul\":23934:24031   */\n      tag_695\n        /* \"#utility.yul\":23964:24030   */\n      0xffffffffffffffffffffffffffffffffffffffffffffffffffffffffffffffff\n        /* \"#utility.yul\":23953:23962   */\n      dup3\n        /* \"#utility.yul\":23934:24031   */\n      tag_442\n      jump\t// in\n    tag_695:\n        /* \"#utility.yul\":24052:24091   */\n      tag_696\n        /* \"#utility.yul\":24082:24090   */\n      dup7\n        /* \"#utility.yul\":24071:24080   */\n      dup4\n        /* \"#utility.yul\":24052:24091   */\n      tag_442\n      jump\t// in\n    tag_696:\n        /* \"#utility.yul\":24040:24091   */\n      swap6\n      pop\n        /* \"#utility.yul\":24124:24128   */\n      dup1\n        /* \"#utility.yul\":24120:24129   */\n      not\n        /* \"#utility.yul\":24113:24118   */\n      dup5\n        /* \"#utility.yul\":24109:24130   */\n      and\n        /* \"#utility.yul\":24100:24130   */\n      swap4\n      pop\n        /* \"#utility.yul\":24173:24177   */\n      dup1\n        /* \"#utility.yul\":24163:24171   */\n      dup7\n        /* \"#utility.yul\":24159:24178   */\n      and\n        /* \"#utility.yul\":24152:24157   */\n      dup5\n        /* \"#utility.yul\":24149:24179   */\n      or\n        /* \"#utility.yul\":24139:24179   */\n      swap3\n      pop\n        /* \"#utility.yul\":23868:24185   */\n      pop\n      pop\n        /* \"#utility.yul\":23792:24185   */\n      swap4\n      swap3\n      pop\n      pop\n      pop\n      jump\t// out\n        /* \"#utility.yul\":24191:24251   */\n    tag_444:\n        /* \"#utility.yul\":24219:24222   */\n      0x00\n        /* \"#utility.yul\":24240:24245   */\n      dup2\n        /* \"#utility.yul\":24233:24245   */\n      swap1\n      pop\n        /* \"#utility.yul\":24191:24251   */\n      swap2\n      swap1\n      pop\n      jump\t// out\n        /* \"#utility.yul\":24257:24399   */\n    tag_445:\n        /* \"#utility.yul\":24307:24316   */\n      0x00\n        /* \"#utility.yul\":24340:24393   */\n      tag_699\n        /* \"#utility.yul\":24358:24392   */\n      tag_700\n        /* \"#utility.yul\":24367:24391   */\n      tag_701\n        /* \"#utility.yul\":24385:24390   */\n      dup5\n        /* \"#utility.yul\":24367:24391   */\n      tag_396\n      jump\t// in\n    tag_701:\n        /* \"#utility.yul\":24358:24392   */\n      tag_444\n      jump\t// in\n    tag_700:\n        /* \"#utility.yul\":24340:24393   */\n      tag_396\n      jump\t// in\n    tag_699:\n        /* \"#utility.yul\":24327:24393   */\n      swap1\n      pop\n        /* \"#utility.yul\":24257:24399   */\n      swap2\n      swap1\n      pop\n      jump\t// out\n        /* \"#utility.yul\":24405:24480   */\n    tag_446:\n        /* \"#utility.yul\":24448:24451   */\n      0x00\n        /* \"#utility.yul\":24469:24474   */\n      dup2\n        /* \"#utility.yul\":24462:24474   */\n      swap1\n      pop\n        /* \"#utility.yul\":24405:24480   */\n      swap2\n      swap1\n      pop\n      jump\t// out\n        /* \"#utility.yul\":24486:24755   */\n    tag_447:\n        /* \"#utility.yul\":24596:24635   */\n      tag_704\n        /* \"#utility.yul\":24627:24634   */\n      dup4\n        /* \"#utility.yul\":24596:24635   */\n      tag_445\n      jump\t// in\n    tag_704:\n        /* \"#utility.yul\":24657:24748   */\n      tag_705\n        /* \"#utility.yul\":24706:24747   */\n      tag_706\n        /* \"#utility.yul\":24730:24746   */\n      dup3\n        /* \"#utility.yul\":24706:24747   */\n      tag_446\n      jump\t// in\n    tag_706:\n        /* \"#utility.yul\":24698:24704   */\n      dup5\n        /* \"#utility.yul\":24691:24695   */\n      dup5\n        /* \"#utility.yul\":24685:24696   */\n      sload\n        /* \"#utility.yul\":24657:24748   */\n      tag_443\n      jump\t// in\n    tag_705:\n        /* \"#utility.yul\":24651:24655   */\n      dup3\n        /* \"#utility.yul\":24644:24749   */\n      sstore\n        /* \"#utility.yul\":24562:24755   */\n      pop\n        /* \"#utility.yul\":24486:24755   */\n      pop\n      pop\n      pop\n      jump\t// out\n        /* \"#utility.yul\":24761:24834   */\n    tag_448:\n        /* \"#utility.yul\":24806:24809   */\n      0x00\n        /* \"#utility.yul\":24761:24834   */\n      swap1\n      jump\t// out\n        /* \"#utility.yul\":24840:25029   */\n    tag_449:\n        /* \"#utility.yul\":24917:24949   */\n      tag_709\n      tag_448\n      jump\t// in\n    tag_709:\n        /* \"#utility.yul\":24958:25023   */\n      tag_710\n        /* \"#utility.yul\":25016:25022   */\n      dup2\n        /* \"#utility.yul\":25008:25014   */\n      dup5\n        /* \"#utility.yul\":25002:25006   */\n      dup5\n        /* \"#utility.yul\":24958:25023   */\n      tag_447\n      jump\t// in\n    tag_710:\n        /* \"#utility.yul\":24893:25029   */\n      pop\n        /* \"#utility.yul\":24840:25029   */\n      pop\n      pop\n      jump\t// out\n        /* \"#utility.yul\":25035:25221   */\n    tag_450:\n        /* \"#utility.yul\":25095:25215   */\n    tag_712:\n        /* \"#utility.yul\":25112:25115   */\n      dup2\n        /* \"#utility.yul\":25105:25110   */\n      dup2\n        /* \"#utility.yul\":25102:25116   */\n      lt\n        /* \"#utility.yul\":25095:25215   */\n      iszero\n      tag_714\n      jumpi\n        /* \"#utility.yul\":25166:25205   */\n      tag_715\n        /* \"#utility.yul\":25203:25204   */\n      0x00\n        /* \"#utility.yul\":25196:25201   */\n      dup3\n        /* \"#utility.yul\":25166:25205   */\n      tag_449\n      jump\t// in\n    tag_715:\n        /* \"#utility.yul\":25139:25140   */\n      0x01\n        /* \"#utility.yul\":25132:25137   */\n      dup2\n        /* \"#utility.yul\":25128:25141   */\n      add\n        /* \"#utility.yul\":25119:25141   */\n      swap1\n      pop\n        /* \"#utility.yul\":25095:25215   */\n      jump(tag_712)\n    tag_714:\n        /* \"#utility.yul\":25035:25221   */\n      pop\n      pop\n      jump\t// out\n        /* \"#utility.yul\":25227:25770   */\n    tag_451:\n        /* \"#utility.yul\":25328:25330   */\n      0x1f\n        /* \"#utility.yul\":25323:25326   */\n      dup3\n        /* \"#utility.yul\":25320:25331   */\n      gt\n        /* \"#utility.yul\":25317:25763   */\n      iszero\n      tag_717\n      jumpi\n        /* \"#utility.yul\":25362:25400   */\n      tag_718\n        /* \"#utility.yul\":25394:25399   */\n      dup2\n        /* \"#utility.yul\":25362:25400   */\n      tag_434\n      jump\t// in\n    tag_718:\n        /* \"#utility.yul\":25446:25475   */\n      tag_719\n        /* \"#utility.yul\":25464:25474   */\n      dup5\n        /* \"#utility.yul\":25446:25475   */\n      tag_441\n      jump\t// in\n    tag_719:\n        /* \"#utility.yul\":25436:25444   */\n      dup2\n        /* \"#utility.yul\":25432:25476   */\n      add\n        /* \"#utility.yul\":25629:25631   */\n      0x20\n        /* \"#utility.yul\":25617:25627   */\n      dup6\n        /* \"#utility.yul\":25614:25632   */\n      lt\n        /* \"#utility.yul\":25611:25660   */\n      iszero\n      tag_720\n      jumpi\n        /* \"#utility.yul\":25650:25658   */\n      dup2\n        /* \"#utility.yul\":25635:25658   */\n      swap1\n      pop\n        /* \"#utility.yul\":25611:25660   */\n    tag_720:\n        /* \"#utility.yul\":25673:25753   */\n      tag_721\n        /* \"#utility.yul\":25729:25751   */\n      tag_722\n        /* \"#utility.yul\":25747:25750   */\n      dup6\n        /* \"#utility.yul\":25729:25751   */\n      tag_441\n      jump\t// in\n    tag_722:\n        /* \"#utility.yul\":25719:25727   */\n      dup4\n        /* \"#utility.yul\":25715:25752   */\n      add\n        /* \"#utility.yul\":25702:25713   */\n      dup3\n        /* \"#utility.yul\":25673:25753   */\n      tag_450\n      jump\t// in\n    tag_721:\n        /* \"#utility.yul\":25332:25763   */\n      pop\n      pop\n        /* \"#utility.yul\":25317:25763   */\n    tag_717:\n        /* \"#utility.yul\":25227:25770   */\n      pop\n      pop\n      pop\n      jump\t// out\n        /* \"#utility.yul\":25776:25893   */\n    tag_452:\n        /* \"#utility.yul\":25830:25838   */\n      0x00\n        /* \"#utility.yul\":25880:25885   */\n      dup3\n        /* \"#utility.yul\":25874:25878   */\n      dup3\n        /* \"#utility.yul\":25870:25886   */\n      shr\n        /* \"#utility.yul\":25849:25886   */\n      swap1\n      pop\n        /* \"#utility.yul\":25776:25893   */\n      swap3\n      swap2\n      pop\n      pop\n      jump\t// out\n        /* \"#utility.yul\":25899:26068   */\n    tag_453:\n        /* \"#utility.yul\":25943:25949   */\n      0x00\n        /* \"#utility.yul\":25976:26027   */\n      tag_725\n        /* \"#utility.yul\":26024:26025   */\n      0x00\n        /* \"#utility.yul\":26020:26026   */\n      not\n        /* \"#utility.yul\":26012:26017   */\n      dup5\n        /* \"#utility.yul\":26009:26010   */\n      0x08\n        /* \"#utility.yul\":26005:26018   */\n      mul\n        /* \"#utility.yul\":25976:26027   */\n      tag_452\n      jump\t// in\n    tag_725:\n        /* \"#utility.yul\":25972:26028   */\n      not\n        /* \"#utility.yul\":26057:26061   */\n      dup1\n        /* \"#utility.yul\":26051:26055   */\n      dup4\n        /* \"#utility.yul\":26047:26062   */\n      and\n        /* \"#utility.yul\":26037:26062   */\n      swap2\n      pop\n        /* \"#utility.yul\":25950:26068   */\n      pop\n        /* \"#utility.yul\":25899:26068   */\n      swap3\n      swap2\n      pop\n      pop\n      jump\t// out\n        /* \"#utility.yul\":26073:26368   */\n    tag_454:\n        /* \"#utility.yul\":26149:26153   */\n      0x00\n        /* \"#utility.yul\":26295:26324   */\n      tag_727\n        /* \"#utility.yul\":26320:26323   */\n      dup4\n        /* \"#utility.yul\":26314:26318   */\n      dup4\n        /* \"#utility.yul\":26295:26324   */\n      tag_453\n      jump\t// in\n    tag_727:\n        /* \"#utility.yul\":26287:26324   */\n      swap2\n      pop\n        /* \"#utility.yul\":26357:26360   */\n      dup3\n        /* \"#utility.yul\":26354:26355   */\n      0x02\n        /* \"#utility.yul\":26350:26361   */\n      mul\n        /* \"#utility.yul\":26344:26348   */\n      dup3\n        /* \"#utility.yul\":26341:26362   */\n      or\n        /* \"#utility.yul\":26333:26362   */\n      swap1\n      pop\n        /* \"#utility.yul\":26073:26368   */\n      swap3\n      swap2\n      pop\n      pop\n      jump\t// out\n        /* \"#utility.yul\":26373:27768   */\n    tag_262:\n        /* \"#utility.yul\":26490:26527   */\n      tag_729\n        /* \"#utility.yul\":26523:26526   */\n      dup3\n        /* \"#utility.yul\":26490:26527   */\n      tag_391\n      jump\t// in\n    tag_729:\n        /* \"#utility.yul\":26592:26610   */\n      0xffffffffffffffff\n        /* \"#utility.yul\":26584:26590   */\n      dup2\n        /* \"#utility.yul\":26581:26611   */\n      gt\n        /* \"#utility.yul\":26578:26634   */\n      iszero\n      tag_730\n      jumpi\n        /* \"#utility.yul\":26614:26632   */\n      tag_731\n      tag_343\n      jump\t// in\n    tag_731:\n        /* \"#utility.yul\":26578:26634   */\n    tag_730:\n        /* \"#utility.yul\":26658:26696   */\n      tag_732\n        /* \"#utility.yul\":26690:26694   */\n      dup3\n        /* \"#utility.yul\":26684:26695   */\n      sload\n        /* \"#utility.yul\":26658:26696   */\n      tag_249\n      jump\t// in\n    tag_732:\n        /* \"#utility.yul\":26743:26810   */\n      tag_733\n        /* \"#utility.yul\":26803:26809   */\n      dup3\n        /* \"#utility.yul\":26795:26801   */\n      dup3\n        /* \"#utility.yul\":26789:26793   */\n      dup6\n        /* \"#utility.yul\":26743:26810   */\n      tag_451\n      jump\t// in\n    tag_733:\n        /* \"#utility.yul\":26837:26838   */\n      0x00\n        /* \"#utility.yul\":26861:26865   */\n      0x20\n        /* \"#utility.yul\":26848:26865   */\n      swap1\n      pop\n        /* \"#utility.yul\":26893:26895   */\n      0x1f\n        /* \"#utility.yul\":26885:26891   */\n      dup4\n        /* \"#utility.yul\":26882:26896   */\n      gt\n        /* \"#utility.yul\":26910:26911   */\n      0x01\n        /* \"#utility.yul\":26905:27523   */\n      dup2\n      eq\n      tag_735\n      jumpi\n        /* \"#utility.yul\":27567:27568   */\n      0x00\n        /* \"#utility.yul\":27584:27590   */\n      dup5\n        /* \"#utility.yul\":27581:27658   */\n      iszero\n      tag_736\n      jumpi\n        /* \"#utility.yul\":27633:27642   */\n      dup3\n        /* \"#utility.yul\":27628:27631   */\n      dup8\n        /* \"#utility.yul\":27624:27643   */\n      add\n        /* \"#utility.yul\":27618:27644   */\n      mload\n        /* \"#utility.yul\":27609:27644   */\n      swap1\n      pop\n        /* \"#utility.yul\":27581:27658   */\n    tag_736:\n        /* \"#utility.yul\":27684:27751   */\n      tag_737\n        /* \"#utility.yul\":27744:27750   */\n      dup6\n        /* \"#utility.yul\":27737:27742   */\n      dup3\n        /* \"#utility.yul\":27684:27751   */\n      tag_454\n      jump\t// in\n    tag_737:\n        /* \"#utility.yul\":27678:27682   */\n      dup7\n        /* \"#utility.yul\":27671:27752   */\n      sstore\n        /* \"#utility.yul\":27540:27762   */\n      pop\n        /* \"#utility.yul\":26875:27762   */\n      jump(tag_734)\n        /* \"#utility.yul\":26905:27523   */\n    tag_735:\n        /* \"#utility.yul\":26957:26961   */\n      0x1f\n        /* \"#utility.yul\":26953:26962   */\n      not\n        /* \"#utility.yul\":26945:26951   */\n      dup5\n        /* \"#utility.yul\":26941:26963   */\n      and\n        /* \"#utility.yul\":26991:27028   */\n      tag_738\n        /* \"#utility.yul\":27023:27027   */\n      dup7\n        /* \"#utility.yul\":26991:27028   */\n      tag_434\n      jump\t// in\n    tag_738:\n        /* \"#utility.yul\":27050:27051   */\n      0x00\n        /* \"#utility.yul\":27064:27272   */\n    tag_739:\n        /* \"#utility.yul\":27078:27085   */\n      dup3\n        /* \"#utility.yul\":27075:27076   */\n      dup2\n        /* \"#utility.yul\":27072:27086   */\n      lt\n        /* \"#utility.yul\":27064:27272   */\n      iszero\n      tag_741\n      jumpi\n        /* \"#utility.yul\":27157:27166   */\n      dup5\n        /* \"#utility.yul\":27152:27155   */\n      dup10\n        /* \"#utility.yul\":27148:27167   */\n      add\n        /* \"#utility.yul\":27142:27168   */\n      mload\n        /* \"#utility.yul\":27134:27140   */\n      dup3\n        /* \"#utility.yul\":27127:27169   */\n      sstore\n        /* \"#utility.yul\":27208:27209   */\n      0x01\n        /* \"#utility.yul\":27200:27206   */\n      dup3\n        /* \"#utility.yul\":27196:27210   */\n      add\n        /* \"#utility.yul\":27186:27210   */\n      swap2\n      pop\n        /* \"#utility.yul\":27255:27257   */\n      0x20\n        /* \"#utility.yul\":27244:27253   */\n      dup6\n        /* \"#utility.yul\":27240:27258   */\n      add\n        /* \"#utility.yul\":27227:27258   */\n      swap5\n      pop\n        /* \"#utility.yul\":27101:27105   */\n      0x20\n        /* \"#utility.yul\":27098:27099   */\n      dup2\n        /* \"#utility.yul\":27094:27106   */\n      add\n        /* \"#utility.yul\":27089:27106   */\n      swap1\n      pop\n        /* \"#utility.yul\":27064:27272   */\n      jump(tag_739)\n    tag_741:\n        /* \"#utility.yul\":27300:27306   */\n      dup7\n        /* \"#utility.yul\":27291:27298   */\n      dup4\n        /* \"#utility.yul\":27288:27307   */\n      lt\n        /* \"#utility.yul\":27285:27464   */\n      iszero\n      tag_742\n      jumpi\n        /* \"#utility.yul\":27358:27367   */\n      dup5\n        /* \"#utility.yul\":27353:27356   */\n      dup10\n        /* \"#utility.yul\":27349:27368   */\n      add\n        /* \"#utility.yul\":27343:27369   */\n      mload\n        /* \"#utility.yul\":27401:27449   */\n      tag_743\n        /* \"#utility.yul\":27443:27447   */\n      0x1f\n        /* \"#utility.yul\":27435:27441   */\n      dup10\n        /* \"#utility.yul\":27431:27448   */\n      and\n        /* \"#utility.yul\":27420:27429   */\n      dup3\n        /* \"#utility.yul\":27401:27449   */\n      tag_453\n      jump\t// in\n    tag_743:\n        /* \"#utility.yul\":27393:27399   */\n      dup4\n        /* \"#utility.yul\":27386:27450   */\n      sstore\n        /* \"#utility.yul\":27308:27464   */\n      pop\n        /* \"#utility.yul\":27285:27464   */\n    tag_742:\n        /* \"#utility.yul\":27510:27511   */\n      0x01\n        /* \"#utility.yul\":27506:27507   */\n      0x02\n        /* \"#utility.yul\":27498:27504   */\n      dup9\n        /* \"#utility.yul\":27494:27508   */\n      mul\n        /* \"#utility.yul\":27490:27512   */\n      add\n        /* \"#utility.yul\":27484:27488   */\n      dup9\n        /* \"#utility.yul\":27477:27513   */\n      sstore\n        /* \"#utility.yul\":26912:27523   */\n      pop\n      pop\n      pop\n        /* \"#utility.yul\":26875:27762   */\n    tag_734:\n      pop\n        /* \"#utility.yul\":26465:27768   */\n      pop\n      pop\n      pop\n        /* \"#utility.yul\":26373:27768   */\n      pop\n      pop\n      jump\t// out\n        /* \"#utility.yul\":27774:27940   */\n    tag_455:\n        /* \"#utility.yul\":27914:27932   */\n      0x6973417070726f766564466f72416c6c00000000000000000000000000000000\n        /* \"#utility.yul\":27910:27911   */\n      0x00\n        /* \"#utility.yul\":27902:27908   */\n      dup3\n        /* \"#utility.yul\":27898:27912   */\n      add\n        /* \"#utility.yul\":27891:27933   */\n      mstore\n        /* \"#utility.yul\":27774:27940   */\n      pop\n      jump\t// out\n        /* \"#utility.yul\":27946:28312   */\n    tag_456:\n        /* \"#utility.yul\":28088:28091   */\n      0x00\n        /* \"#utility.yul\":28109:28176   */\n      tag_746\n        /* \"#utility.yul\":28173:28175   */\n      0x10\n        /* \"#utility.yul\":28168:28171   */\n      dup4\n        /* \"#utility.yul\":28109:28176   */\n      tag_392\n      jump\t// in\n    tag_746:\n        /* \"#utility.yul\":28102:28176   */\n      swap2\n      pop\n        /* \"#utility.yul\":28185:28278   */\n      tag_747\n        /* \"#utility.yul\":28274:28277   */\n      dup3\n        /* \"#utility.yul\":28185:28278   */\n      tag_455\n      jump\t// in\n    tag_747:\n        /* \"#utility.yul\":28303:28305   */\n      0x20\n        /* \"#utility.yul\":28298:28301   */\n      dup3\n        /* \"#utility.yul\":28294:28306   */\n      add\n        /* \"#utility.yul\":28287:28306   */\n      swap1\n      pop\n        /* \"#utility.yul\":27946:28312   */\n      swap2\n      swap1\n      pop\n      jump\t// out\n        /* \"#utility.yul\":28318:28737   */\n    tag_272:\n        /* \"#utility.yul\":28484:28488   */\n      0x00\n        /* \"#utility.yul\":28522:28524   */\n      0x20\n        /* \"#utility.yul\":28511:28520   */\n      dup3\n        /* \"#utility.yul\":28507:28525   */\n      add\n        /* \"#utility.yul\":28499:28525   */\n      swap1\n      pop\n        /* \"#utility.yul\":28571:28580   */\n      dup2\n        /* \"#utility.yul\":28565:28569   */\n      dup2\n        /* \"#utility.yul\":28561:28581   */\n      sub\n        /* \"#utility.yul\":28557:28558   */\n      0x00\n        /* \"#utility.yul\":28546:28555   */\n      dup4\n        /* \"#utility.yul\":28542:28559   */\n      add\n        /* \"#utility.yul\":28535:28582   */\n      mstore\n        /* \"#utility.yul\":28599:28730   */\n      tag_749\n        /* \"#utility.yul\":28725:28729   */\n      dup2\n        /* \"#utility.yul\":28599:28730   */\n      tag_456\n      jump\t// in\n    tag_749:\n        /* \"#utility.yul\":28591:28730   */\n      swap1\n      pop\n        /* \"#utility.yul\":28318:28737   */\n      swap2\n      swap1\n      pop\n      jump\t// out\n        /* \"#utility.yul\":28743:28968   */\n    tag_457:\n        /* \"#utility.yul\":28883:28917   */\n      0x4f776e61626c653a206e6577206f776e657220697320746865207a65726f2061\n        /* \"#utility.yul\":28879:28880   */\n      0x00\n        /* \"#utility.yul\":28871:28877   */\n      dup3\n        /* \"#utility.yul\":28867:28881   */\n      add\n        /* \"#utility.yul\":28860:28918   */\n      mstore\n        /* \"#utility.yul\":28952:28960   */\n      0x6464726573730000000000000000000000000000000000000000000000000000\n        /* \"#utility.yul\":28947:28949   */\n      0x20\n        /* \"#utility.yul\":28939:28945   */\n      dup3\n        /* \"#utility.yul\":28935:28950   */\n      add\n        /* \"#utility.yul\":28928:28961   */\n      mstore\n        /* \"#utility.yul\":28743:28968   */\n      pop\n      jump\t// out\n        /* \"#utility.yul\":28974:29340   */\n    tag_458:\n        /* \"#utility.yul\":29116:29119   */\n      0x00\n        /* \"#utility.yul\":29137:29204   */\n      tag_752\n        /* \"#utility.yul\":29201:29203   */\n      0x26\n        /* \"#utility.yul\":29196:29199   */\n      dup4\n        /* \"#utility.yul\":29137:29204   */\n      tag_392\n      jump\t// in\n    tag_752:\n        /* \"#utility.yul\":29130:29204   */\n      swap2\n      pop\n        /* \"#utility.yul\":29213:29306   */\n      tag_753\n        /* \"#utility.yul\":29302:29305   */\n      dup3\n        /* \"#utility.yul\":29213:29306   */\n      tag_457\n      jump\t// in\n    tag_753:\n        /* \"#utility.yul\":29331:29333   */\n      0x40\n        /* \"#utility.yul\":29326:29329   */\n      dup3\n        /* \"#utility.yul\":29322:29334   */\n      add\n        /* \"#utility.yul\":29315:29334   */\n      swap1\n      pop\n        /* \"#utility.yul\":28974:29340   */\n      swap2\n      swap1\n      pop\n      jump\t// out\n        /* \"#utility.yul\":29346:29765   */\n    tag_278:\n        /* \"#utility.yul\":29512:29516   */\n      0x00\n        /* \"#utility.yul\":29550:29552   */\n      0x20\n        /* \"#utility.yul\":29539:29548   */\n      dup3\n        /* \"#utility.yul\":29535:29553   */\n      add\n        /* \"#utility.yul\":29527:29553   */\n      swap1\n      pop\n        /* \"#utility.yul\":29599:29608   */\n      dup2\n        /* \"#utility.yul\":29593:29597   */\n      dup2\n        /* \"#utility.yul\":29589:29609   */\n      sub\n        /* \"#utility.yul\":29585:29586   */\n      0x00\n        /* \"#utility.yul\":29574:29583   */\n      dup4\n        /* \"#utility.yul\":29570:29587   */\n      add\n        /* \"#utility.yul\":29563:29610   */\n      mstore\n        /* \"#utility.yul\":29627:29758   */\n      tag_755\n        /* \"#utility.yul\":29753:29757   */\n      dup2\n        /* \"#utility.yul\":29627:29758   */\n      tag_458\n      jump\t// in\n    tag_755:\n        /* \"#utility.yul\":29619:29758   */\n      swap1\n      pop\n        /* \"#utility.yul\":29346:29765   */\n      swap2\n      swap1\n      pop\n      jump\t// out\n        /* \"#utility.yul\":29771:29953   */\n    tag_459:\n        /* \"#utility.yul\":29911:29945   */\n      0x4f776e61626c653a2063616c6c6572206973206e6f7420746865206f776e6572\n        /* \"#utility.yul\":29907:29908   */\n      0x00\n        /* \"#utility.yul\":29899:29905   */\n      dup3\n        /* \"#utility.yul\":29895:29909   */\n      add\n        /* \"#utility.yul\":29888:29946   */\n      mstore\n        /* \"#utility.yul\":29771:29953   */\n      pop\n      jump\t// out\n        /* \"#utility.yul\":29959:30325   */\n    tag_460:\n        /* \"#utility.yul\":30101:30104   */\n      0x00\n        /* \"#utility.yul\":30122:30189   */\n      tag_758\n        /* \"#utility.yul\":30186:30188   */\n      0x20\n        /* \"#utility.yul\":30181:30184   */\n      dup4\n        /* \"#utility.yul\":30122:30189   */\n      tag_392\n      jump\t// in\n    tag_758:\n        /* \"#utility.yul\":30115:30189   */\n      swap2\n      pop\n        /* \"#utility.yul\":30198:30291   */\n      tag_759\n        /* \"#utility.yul\":30287:30290   */\n      dup3\n        /* \"#utility.yul\":30198:30291   */\n      tag_459\n      jump\t// in\n    tag_759:\n        /* \"#utility.yul\":30316:30318   */\n      0x20\n        /* \"#utility.yul\":30311:30314   */\n      dup3\n        /* \"#utility.yul\":30307:30319   */\n      add\n        /* \"#utility.yul\":30300:30319   */\n      swap1\n      pop\n        /* \"#utility.yul\":29959:30325   */\n      swap2\n      swap1\n      pop\n      jump\t// out\n        /* \"#utility.yul\":30331:30750   */\n    tag_296:\n        /* \"#utility.yul\":30497:30501   */\n      0x00\n        /* \"#utility.yul\":30535:30537   */\n      0x20\n        /* \"#utility.yul\":30524:30533   */\n      dup3\n        /* \"#utility.yul\":30520:30538   */\n      add\n        /* \"#utility.yul\":30512:30538   */\n      swap1\n      pop\n        /* \"#utility.yul\":30584:30593   */\n      dup2\n        /* \"#utility.yul\":30578:30582   */\n      dup2\n        /* \"#utility.yul\":30574:30594   */\n      sub\n        /* \"#utility.yul\":30570:30571   */\n      0x00\n        /* \"#utility.yul\":30559:30568   */\n      dup4\n        /* \"#utility.yul\":30555:30572   */\n      add\n        /* \"#utility.yul\":30548:30595   */\n      mstore\n        /* \"#utility.yul\":30612:30743   */\n      tag_761\n        /* \"#utility.yul\":30738:30742   */\n      dup2\n        /* \"#utility.yul\":30612:30743   */\n      tag_460\n      jump\t// in\n    tag_761:\n        /* \"#utility.yul\":30604:30743   */\n      swap1\n      pop\n        /* \"#utility.yul\":30331:30750   */\n      swap2\n      swap1\n      pop\n      jump\t// out\n        /* \"#utility.yul\":30756:30936   */\n    tag_461:\n        /* \"#utility.yul\":30804:30881   */\n      0x4e487b7100000000000000000000000000000000000000000000000000000000\n        /* \"#utility.yul\":30801:30802   */\n      0x00\n        /* \"#utility.yul\":30794:30882   */\n      mstore\n        /* \"#utility.yul\":30901:30905   */\n      0x11\n        /* \"#utility.yul\":30898:30899   */\n      0x04\n        /* \"#utility.yul\":30891:30906   */\n      mstore\n        /* \"#utility.yul\":30925:30929   */\n      0x24\n        /* \"#utility.yul\":30922:30923   */\n      0x00\n        /* \"#utility.yul\":30915:30930   */\n      revert\n        /* \"#utility.yul\":30942:31133   */\n    tag_299:\n        /* \"#utility.yul\":30982:30985   */\n      0x00\n        /* \"#utility.yul\":31001:31021   */\n      tag_764\n        /* \"#utility.yul\":31019:31020   */\n      dup3\n        /* \"#utility.yul\":31001:31021   */\n      tag_396\n      jump\t// in\n    tag_764:\n        /* \"#utility.yul\":30996:31021   */\n      swap2\n      pop\n        /* \"#utility.yul\":31035:31055   */\n      tag_765\n        /* \"#utility.yul\":31053:31054   */\n      dup4\n        /* \"#utility.yul\":31035:31055   */\n      tag_396\n      jump\t// in\n    tag_765:\n        /* \"#utility.yul\":31030:31055   */\n      swap3\n      pop\n        /* \"#utility.yul\":31078:31079   */\n      dup3\n        /* \"#utility.yul\":31075:31076   */\n      dup3\n        /* \"#utility.yul\":31071:31080   */\n      add\n        /* \"#utility.yul\":31064:31080   */\n      swap1\n      pop\n        /* \"#utility.yul\":31099:31102   */\n      dup1\n        /* \"#utility.yul\":31096:31097   */\n      dup3\n        /* \"#utility.yul\":31093:31103   */\n      gt\n        /* \"#utility.yul\":31090:31126   */\n      iszero\n      tag_766\n      jumpi\n        /* \"#utility.yul\":31106:31124   */\n      tag_767\n      tag_461\n      jump\t// in\n    tag_767:\n        /* \"#utility.yul\":31090:31126   */\n    tag_766:\n        /* \"#utility.yul\":30942:31133   */\n      swap3\n      swap2\n      pop\n      pop\n      jump\t// out\n        /* \"#utility.yul\":31139:31333   */\n    tag_311:\n        /* \"#utility.yul\":31179:31183   */\n      0x00\n        /* \"#utility.yul\":31199:31219   */\n      tag_769\n        /* \"#utility.yul\":31217:31218   */\n      dup3\n        /* \"#utility.yul\":31199:31219   */\n      tag_396\n      jump\t// in\n    tag_769:\n        /* \"#utility.yul\":31194:31219   */\n      swap2\n      pop\n        /* \"#utility.yul\":31233:31253   */\n      tag_770\n        /* \"#utility.yul\":31251:31252   */\n      dup4\n        /* \"#utility.yul\":31233:31253   */\n      tag_396\n      jump\t// in\n    tag_770:\n        /* \"#utility.yul\":31228:31253   */\n      swap3\n      pop\n        /* \"#utility.yul\":31277:31278   */\n      dup3\n        /* \"#utility.yul\":31274:31275   */\n      dup3\n        /* \"#utility.yul\":31270:31279   */\n      sub\n        /* \"#utility.yul\":31262:31279   */\n      swap1\n      pop\n        /* \"#utility.yul\":31301:31302   */\n      dup2\n        /* \"#utility.yul\":31295:31299   */\n      dup2\n        /* \"#utility.yul\":31292:31303   */\n      gt\n        /* \"#utility.yul\":31289:31326   */\n      iszero\n      tag_771\n      jumpi\n        /* \"#utility.yul\":31306:31324   */\n      tag_772\n      tag_461\n      jump\t// in\n    tag_772:\n        /* \"#utility.yul\":31289:31326   */\n    tag_771:\n        /* \"#utility.yul\":31139:31333   */\n      swap3\n      swap2\n      pop\n      pop\n      jump\t// out\n        /* \"#utility.yul\":31339:31437   */\n    tag_462:\n        /* \"#utility.yul\":31390:31396   */\n      0x00\n        /* \"#utility.yul\":31424:31429   */\n      dup2\n        /* \"#utility.yul\":31418:31430   */\n      mload\n        /* \"#utility.yul\":31408:31430   */\n      swap1\n      pop\n        /* \"#utility.yul\":31339:31437   */\n      swap2\n      swap1\n      pop\n      jump\t// out\n        /* \"#utility.yul\":31443:31611   */\n    tag_463:\n        /* \"#utility.yul\":31526:31537   */\n      0x00\n        /* \"#utility.yul\":31560:31566   */\n      dup3\n        /* \"#utility.yul\":31555:31558   */\n      dup3\n        /* \"#utility.yul\":31548:31567   */\n      mstore\n        /* \"#utility.yul\":31600:31604   */\n      0x20\n        /* \"#utility.yul\":31595:31598   */\n      dup3\n        /* \"#utility.yul\":31591:31605   */\n      add\n        /* \"#utility.yul\":31576:31605   */\n      swap1\n      pop\n        /* \"#utility.yul\":31443:31611   */\n      swap3\n      swap2\n      pop\n      pop\n      jump\t// out\n        /* \"#utility.yul\":31617:31990   */\n    tag_464:\n        /* \"#utility.yul\":31703:31706   */\n      0x00\n        /* \"#utility.yul\":31731:31769   */\n      tag_776\n        /* \"#utility.yul\":31763:31768   */\n      dup3\n        /* \"#utility.yul\":31731:31769   */\n      tag_462\n      jump\t// in\n    tag_776:\n        /* \"#utility.yul\":31785:31855   */\n      tag_777\n        /* \"#utility.yul\":31848:31854   */\n      dup2\n        /* \"#utility.yul\":31843:31846   */\n      dup6\n        /* \"#utility.yul\":31785:31855   */\n      tag_463\n      jump\t// in\n    tag_777:\n        /* \"#utility.yul\":31778:31855   */\n      swap4\n      pop\n        /* \"#utility.yul\":31864:31929   */\n      tag_778\n        /* \"#utility.yul\":31922:31928   */\n      dup2\n        /* \"#utility.yul\":31917:31920   */\n      dup6\n        /* \"#utility.yul\":31910:31914   */\n      0x20\n        /* \"#utility.yul\":31903:31908   */\n      dup7\n        /* \"#utility.yul\":31899:31915   */\n      add\n        /* \"#utility.yul\":31864:31929   */\n      tag_393\n      jump\t// in\n    tag_778:\n        /* \"#utility.yul\":31954:31983   */\n      tag_779\n        /* \"#utility.yul\":31976:31982   */\n      dup2\n        /* \"#utility.yul\":31954:31983   */\n      tag_394\n      jump\t// in\n    tag_779:\n        /* \"#utility.yul\":31949:31952   */\n      dup5\n        /* \"#utility.yul\":31945:31984   */\n      add\n        /* \"#utility.yul\":31938:31984   */\n      swap2\n      pop\n        /* \"#utility.yul\":31707:31990   */\n      pop\n        /* \"#utility.yul\":31617:31990   */\n      swap3\n      swap2\n      pop\n      pop\n      jump\t// out\n        /* \"#utility.yul\":31996:32636   */\n    tag_318:\n        /* \"#utility.yul\":32191:32195   */\n      0x00\n        /* \"#utility.yul\":32229:32232   */\n      0x80\n        /* \"#utility.yul\":32218:32227   */\n      dup3\n        /* \"#utility.yul\":32214:32233   */\n      add\n        /* \"#utility.yul\":32206:32233   */\n      swap1\n      pop\n        /* \"#utility.yul\":32243:32314   */\n      tag_781\n        /* \"#utility.yul\":32311:32312   */\n      0x00\n        /* \"#utility.yul\":32300:32309   */\n      dup4\n        /* \"#utility.yul\":32296:32313   */\n      add\n        /* \"#utility.yul\":32287:32293   */\n      dup8\n        /* \"#utility.yul\":32243:32314   */\n      tag_401\n      jump\t// in\n    tag_781:\n        /* \"#utility.yul\":32324:32396   */\n      tag_782\n        /* \"#utility.yul\":32392:32394   */\n      0x20\n        /* \"#utility.yul\":32381:32390   */\n      dup4\n        /* \"#utility.yul\":32377:32395   */\n      add\n        /* \"#utility.yul\":32368:32374   */\n      dup7\n        /* \"#utility.yul\":32324:32396   */\n      tag_401\n      jump\t// in\n    tag_782:\n        /* \"#utility.yul\":32406:32478   */\n      tag_783\n        /* \"#utility.yul\":32474:32476   */\n      0x40\n        /* \"#utility.yul\":32463:32472   */\n      dup4\n        /* \"#utility.yul\":32459:32477   */\n      add\n        /* \"#utility.yul\":32450:32456   */\n      dup6\n        /* \"#utility.yul\":32406:32478   */\n      tag_404\n      jump\t// in\n    tag_783:\n        /* \"#utility.yul\":32525:32534   */\n      dup2\n        /* \"#utility.yul\":32519:32523   */\n      dup2\n        /* \"#utility.yul\":32515:32535   */\n      sub\n        /* \"#utility.yul\":32510:32512   */\n      0x60\n        /* \"#utility.yul\":32499:32508   */\n      dup4\n        /* \"#utility.yul\":32495:32513   */\n      add\n        /* \"#utility.yul\":32488:32536   */\n      mstore\n        /* \"#utility.yul\":32553:32629   */\n      tag_784\n        /* \"#utility.yul\":32624:32628   */\n      dup2\n        /* \"#utility.yul\":32615:32621   */\n      dup5\n        /* \"#utility.yul\":32553:32629   */\n      tag_464\n      jump\t// in\n    tag_784:\n        /* \"#utility.yul\":32545:32629   */\n      swap1\n      pop\n        /* \"#utility.yul\":31996:32636   */\n      swap6\n      swap5\n      pop\n      pop\n      pop\n      pop\n      pop\n      jump\t// out\n        /* \"#utility.yul\":32642:32783   */\n    tag_465:\n        /* \"#utility.yul\":32698:32703   */\n      0x00\n        /* \"#utility.yul\":32729:32735   */\n      dup2\n        /* \"#utility.yul\":32723:32736   */\n      mload\n        /* \"#utility.yul\":32714:32736   */\n      swap1\n      pop\n        /* \"#utility.yul\":32745:32777   */\n      tag_786\n        /* \"#utility.yul\":32771:32776   */\n      dup2\n        /* \"#utility.yul\":32745:32777   */\n      tag_387\n      jump\t// in\n    tag_786:\n        /* \"#utility.yul\":32642:32783   */\n      swap3\n      swap2\n      pop\n      pop\n      jump\t// out\n        /* \"#utility.yul\":32789:33138   */\n    tag_322:\n        /* \"#utility.yul\":32858:32864   */\n      0x00\n        /* \"#utility.yul\":32907:32909   */\n      0x20\n        /* \"#utility.yul\":32895:32904   */\n      dup3\n        /* \"#utility.yul\":32886:32893   */\n      dup5\n        /* \"#utility.yul\":32882:32905   */\n      sub\n        /* \"#utility.yul\":32878:32910   */\n      slt\n        /* \"#utility.yul\":32875:32994   */\n      iszero\n      tag_788\n      jumpi\n        /* \"#utility.yul\":32913:32992   */\n      tag_789\n      tag_384\n      jump\t// in\n    tag_789:\n        /* \"#utility.yul\":32875:32994   */\n    tag_788:\n        /* \"#utility.yul\":33033:33034   */\n      0x00\n        /* \"#utility.yul\":33058:33121   */\n      tag_790\n        /* \"#utility.yul\":33113:33120   */\n      dup5\n        /* \"#utility.yul\":33104:33110   */\n      dup3\n        /* \"#utility.yul\":33093:33102   */\n      dup6\n        /* \"#utility.yul\":33089:33111   */\n      add\n        /* \"#utility.yul\":33058:33121   */\n      tag_465\n      jump\t// in\n    tag_790:\n        /* \"#utility.yul\":33048:33121   */\n      swap2\n      pop\n        /* \"#utility.yul\":33004:33131   */\n      pop\n        /* \"#utility.yul\":32789:33138   */\n      swap3\n      swap2\n      pop\n      pop\n      jump\t// out\n        /* \"#utility.yul\":33144:33324   */\n    tag_349:\n        /* \"#utility.yul\":33192:33269   */\n      0x4e487b7100000000000000000000000000000000000000000000000000000000\n        /* \"#utility.yul\":33189:33190   */\n      0x00\n        /* \"#utility.yul\":33182:33270   */\n      mstore\n        /* \"#utility.yul\":33289:33293   */\n      0x12\n        /* \"#utility.yul\":33286:33287   */\n      0x04\n        /* \"#utility.yul\":33279:33294   */\n      mstore\n        /* \"#utility.yul\":33313:33317   */\n      0x24\n        /* \"#utility.yul\":33310:33311   */\n      0x00\n        /* \"#utility.yul\":33303:33318   */\n      revert\n\n    auxdata: 0xa2646970667358221220eced7a94878cbd97eeb0711ad77b10021a058e11db84dd1022df189c668129fa64736f6c63430008140033\n}\n",
				"bytecode": {
					"linkReferences": {},
					"object": "608060405234801562000010575f80fd5b50604051620034e3380380620034e383398181016040528101906200003691906200037c565b620000566200004a6200012f60201b60201c565b6200013660201b60201c565b806001908162000067919062000602565b503373ffffffffffffffffffffffffffffffffffffffff167fddb33c9627985605622b2c4e8b308152b557aeae8ba59e2f05038c9d8ed6ae84426040518060400160405280600681526020017f484f4e53425400000000000000000000000000000000000000000000000000008152506040518060400160405280600681526020017f484f4e53425400000000000000000000000000000000000000000000000000008152508560405162000120949392919062000747565b60405180910390a250620007a7565b5f33905090565b5f805f9054906101000a900473ffffffffffffffffffffffffffffffffffffffff169050815f806101000a81548173ffffffffffffffffffffffffffffffffffffffff021916908373ffffffffffffffffffffffffffffffffffffffff1602179055508173ffffffffffffffffffffffffffffffffffffffff168173ffffffffffffffffffffffffffffffffffffffff167f8be0079c531659141344cd1fd0a4f28419497f9722a3daafe3b4186f6b6457e060405160405180910390a35050565b5f604051905090565b5f80fd5b5f80fd5b5f80fd5b5f80fd5b5f601f19601f8301169050919050565b7f4e487b71000000000000000000000000000000000000000000000000000000005f52604160045260245ffd5b620002588262000210565b810181811067ffffffffffffffff821117156200027a576200027962000220565b5b80604052505050565b5f6200028e620001f7565b90506200029c82826200024d565b919050565b5f67ffffffffffffffff821115620002be57620002bd62000220565b5b620002c98262000210565b9050602081019050919050565b5f5b83811015620002f5578082015181840152602081019050620002d8565b5f8484015250505050565b5f620003166200031084620002a1565b62000283565b9050828152602081018484840111156200033557620003346200020c565b5b62000342848285620002d6565b509392505050565b5f82601f83011262000361576200036062000208565b5b81516200037384826020860162000300565b91505092915050565b5f6020828403121562000394576200039362000200565b5b5f82015167ffffffffffffffff811115620003b457620003b362000204565b5b620003c2848285016200034a565b91505092915050565b5f81519050919050565b7f4e487b71000000000000000000000000000000000000000000000000000000005f52602260045260245ffd5b5f60028204905060018216806200041a57607f821691505b60208210810362000430576200042f620003d5565b5b50919050565b5f819050815f5260205f209050919050565b5f6020601f8301049050919050565b5f82821b905092915050565b5f60088302620004947fffffffffffffffffffffffffffffffffffffffffffffffffffffffffffffffff8262000457565b620004a0868362000457565b95508019841693508086168417925050509392505050565b5f819050919050565b5f819050919050565b5f620004ea620004e4620004de84620004b8565b620004c1565b620004b8565b9050919050565b5f819050919050565b6200050583620004ca565b6200051d6200051482620004f1565b84845462000463565b825550505050565b5f90565b6200053362000525565b62000540818484620004fa565b505050565b5b8181101562000567576200055b5f8262000529565b60018101905062000546565b5050565b601f821115620005b657620005808162000436565b6200058b8462000448565b810160208510156200059b578190505b620005b3620005aa8562000448565b83018262000545565b50505b505050565b5f82821c905092915050565b5f620005d85f1984600802620005bb565b1980831691505092915050565b5f620005f28383620005c7565b9150826002028217905092915050565b6200060d82620003cb565b67ffffffffffffffff81111562000629576200062862000220565b5b62000635825462000402565b620006428282856200056b565b5f60209050601f83116001811462000678575f841562000663578287015190505b6200066f8582620005e5565b865550620006de565b601f198416620006888662000436565b5f5b82811015620006b1578489015182556001820191506020850194506020810190506200068a565b86831015620006d15784890151620006cd601f891682620005c7565b8355505b6001600288020188555050505b505050505050565b620006f181620004b8565b82525050565b5f82825260208201905092915050565b5f6200071382620003cb565b6200071f8185620006f7565b935062000731818560208601620002d6565b6200073c8162000210565b840191505092915050565b5f6080820190506200075c5f830187620006e6565b818103602083015262000770818662000707565b9050818103604083015262000786818562000707565b905081810360608301526200079c818462000707565b905095945050505050565b612d2e80620007b55f395ff3fe608060405234801561000f575f80fd5b50600436106101cd575f3560e01c806376aed2e111610102578063be37e907116100a0578063e1604b701161006f578063e1604b7014610587578063e985e9c5146105a5578063f2fde38b146105d5578063f3ba5946146105f1576101cd565b8063be37e907146104c7578063c87b56dd146104f7578063ce35de9514610527578063e0df5b6f14610557576101cd565b806395d89b41116100dc57806395d89b41146104555780639b25285214610473578063a22cb4651461048f578063b88d4fde146104ab576101cd565b806376aed2e1146103eb5780638c10081f1461041b5780638da5cb5b14610437576101cd565b80632f745c591161016f57806351c18e0c1161014957806351c18e0c146103515780636352211e1461038157806370a08231146103b1578063715018a6146103e1576101cd565b80632f745c59146102d557806340c10f191461030557806342842e0e14610335576101cd565b8063095ea7b3116101ab578063095ea7b31461024f57806318160ddd1461026b5780631c02bc311461028957806323b872dd146102b9576101cd565b806301ffc9a7146101d157806306fdde0314610201578063081812fc1461021f575b5f80fd5b6101eb60048036038101906101e69190611c82565b610621565b6040516101f89190611cc7565b60405180910390f35b61020961069a565b6040516102169190611d6a565b60405180910390f35b61023960048036038101906102349190611dbd565b6106d7565b6040516102469190611e27565b60405180910390f35b61026960048036038101906102649190611e6a565b610713565b005b61027361074e565b6040516102809190611eb7565b60405180910390f35b6102a3600480360381019061029e9190611efa565b610757565b6040516102b09190611cc7565b60405180910390f35b6102d360048036038101906102ce9190611f25565b610808565b005b6102ef60048036038101906102ea9190611e6a565b610843565b6040516102fc9190611eb7565b60405180910390f35b61031f600480360381019061031a9190611e6a565b610962565b60405161032c9190611eb7565b60405180910390f35b61034f600480360381019061034a9190611f25565b610a02565b005b61036b60048036038101906103669190611dbd565b610a3d565b6040516103789190611eb7565b60405180910390f35b61039b60048036038101906103969190611dbd565b610a60565b6040516103a89190611e27565b60405180910390f35b6103cb60048036038101906103c69190611f75565b610aa2565b6040516103d89190611eb7565b60405180910390f35b6103e9610abd565b005b61040560048036038101906104009190611dbd565b610ad0565b6040516104129190611eb7565b60405180910390f35b61043560048036038101906104309190611fa0565b610af3565b005b61043f610b4d565b60405161044c9190611e27565b60405180910390f35b61045d610b74565b60405161046a9190611d6a565b60405180910390f35b61048d60048036038101906104889190611e6a565b610bb1565b005b6104a960048036038101906104a49190611fde565b610c14565b005b6104c560048036038101906104c0919061207d565b610c4f565b005b6104e160048036038101906104dc9190611e6a565b610c8a565b6040516104ee9190611eb7565b60405180910390f35b610511600480360381019061050c9190611dbd565b610cf2565b60405161051e9190611d6a565b60405180910390f35b610541600480360381019061053c9190611f75565b610d6c565b60405161054e9190611cc7565b60405180910390f35b610571600480360381019061056c9190612229565b610d7d565b60405161057e9190611d6a565b60405180910390f35b61058f610e75565b60405161059c9190611eb7565b60405180910390f35b6105bf60048036038101906105ba9190612270565b610e7e565b6040516105cc9190611cc7565b60405180910390f35b6105ef60048036038101906105ea9190611f75565b610eba565b005b61060b60048036038101906106069190611e6a565b610f3c565b6040516106189190611cc7565b60405180910390f35b5f7f80ac58cd000000000000000000000000000000000000000000000000000000007bffffffffffffffffffffffffffffffffffffffffffffffffffffffff1916827bffffffffffffffffffffffffffffffffffffffffffffffffffffffff19161480610693575061069282610f4f565b5b9050919050565b60606040518060400160405280600681526020017f484f4e5342540000000000000000000000000000000000000000000000000000815250905090565b5f6040517f9fc6e75800000000000000000000000000000000000000000000000000000000815260040161070a906122f8565b60405180910390fd5b6040517f9fc6e75800000000000000000000000000000000000000000000000000000000815260040161074590612360565b60405180910390fd5b5f600354905090565b5f8061076233610fb8565b116107a457336040517ffaceffef00000000000000000000000000000000000000000000000000000000815260040161079b9190611e27565b60405180910390fd5b8160085f3373ffffffffffffffffffffffffffffffffffffffff1673ffffffffffffffffffffffffffffffffffffffff1681526020019081526020015f205f6101000a81548160ff02191690831515021790555061080133610ffe565b9050919050565b6040517f9fc6e75800000000000000000000000000000000000000000000000000000000815260040161083a906123c8565b60405180910390fd5b5f61084d8361100f565b5061085783610fb8565b8210610898576040517f08c379a000000000000000000000000000000000000000000000000000000000815260040161088f90612430565b60405180910390fd5b5f73ffffffffffffffffffffffffffffffffffffffff168373ffffffffffffffffffffffffffffffffffffffff1603610908575f6040517f74f5e87d0000000000000000000000000000000000000000000000000000000081526004016108ff9190611e27565b60405180910390fd5b5f60095f8573ffffffffffffffffffffffffffffffffffffffff1673ffffffffffffffffffffffffffffffffffffffff1681526020019081526020015f205f8481526020019081526020015f205490508091505092915050565b5f61096b6110aa565b5f6109768484611128565b90506109b95f85836040518060400160405280600481526020017f4d696e740000000000000000000000000000000000000000000000000000000081525061144c565b6109f8576040517f08c379a00000000000000000000000000000000000000000000000000000000081526004016109ef906124be565b60405180910390fd5b8091505092915050565b6040517f9fc6e758000000000000000000000000000000000000000000000000000000008152600401610a3490612526565b60405180910390fd5b5f610a4782611539565b60065f8381526020019081526020015f20549050919050565b5f610a6a82611539565b60045f8381526020019081526020015f205f9054906101000a900473ffffffffffffffffffffffffffffffffffffffff169050919050565b5f610aac8261100f565b50610ab682610fb8565b9050919050565b610ac56110aa565b610ace5f6115c0565b565b5f610ada82611539565b60055f8381526020019081526020015f20549050919050565b5f610afd33610fb8565b11610b3f57336040517ffaceffef000000000000000000000000000000000000000000000000000000008152600401610b369190611e27565b60405180910390fd5b610b498282611681565b5050565b5f805f9054906101000a900473ffffffffffffffffffffffffffffffffffffffff16905090565b60606040518060400160405280600681526020017f484f4e5342540000000000000000000000000000000000000000000000000000815250905090565b610bb96110aa565b610bc382826116e8565b610c065781816040517f9960858d000000000000000000000000000000000000000000000000000000008152600401610bfd929190612544565b60405180910390fd5b610c10828261174a565b5050565b6040517f9fc6e758000000000000000000000000000000000000000000000000000000008152600401610c46906125b5565b60405180910390fd5b6040517f9fc6e758000000000000000000000000000000000000000000000000000000008152600401610c8190612526565b60405180910390fd5b5f610c936110aa565b610c9d83836116e8565b610ce05782826040517f9960858d000000000000000000000000000000000000000000000000000000008152600401610cd7929190612544565b60405180910390fd5b610cea83836117b2565b905092915050565b6060610cfd82611539565b5f60018054610d0b90612600565b905011610d265760405180602001604052805f815250610d65565b6001610d3183611853565b60055f8581526020019081526020015f2054604051602001610d5593929190612766565b6040516020818303038152906040525b9050919050565b5f610d768261100f565b9050919050565b6060610d876110aa565b8160019081610d969190612930565b503373ffffffffffffffffffffffffffffffffffffffff167f70e6a9dc20d331ce8e747d7de8444f26f544d9003beb11d8c46e802ab8d36fc983604051610ddd9190611d6a565b60405180910390a260018054610df290612600565b80601f0160208091040260200160405190810160405280929190818152602001828054610e1e90612600565b8015610e695780601f10610e4057610100808354040283529160200191610e69565b820191905f5260205f20905b815481529060010190602001808311610e4c57829003601f168201915b50505050509050919050565b5f600254905090565b5f6040517f9fc6e758000000000000000000000000000000000000000000000000000000008152600401610eb190612a49565b60405180910390fd5b610ec26110aa565b5f73ffffffffffffffffffffffffffffffffffffffff168173ffffffffffffffffffffffffffffffffffffffff1603610f30576040517f08c379a0000000000000000000000000000000000000000000000000000000008152600401610f2790612ad7565b60405180910390fd5b610f39816115c0565b50565b5f610f4783836116e8565b905092915050565b5f7f01ffc9a7000000000000000000000000000000000000000000000000000000007bffffffffffffffffffffffffffffffffffffffffffffffffffffffff1916827bffffffffffffffffffffffffffffffffffffffffffffffffffffffff1916149050919050565b5f60075f8373ffffffffffffffffffffffffffffffffffffffff1673ffffffffffffffffffffffffffffffffffffffff1681526020019081526020015f20549050919050565b5f6110088261191d565b9050919050565b5f6001151560085f8473ffffffffffffffffffffffffffffffffffffffff1673ffffffffffffffffffffffffffffffffffffffff1681526020019081526020015f205f9054906101000a900460ff161515036110a257816040517f904e928b0000000000000000000000000000000000000000000000000000000081526004016110999190611e27565b60405180910390fd5b5f9050919050565b6110b261196f565b73ffffffffffffffffffffffffffffffffffffffff166110d0610b4d565b73ffffffffffffffffffffffffffffffffffffffff1614611126576040517f08c379a000000000000000000000000000000000000000000000000000000000815260040161111d90612b3f565b60405180910390fd5b565b5f8060016003546111399190612b8a565b90505f73ffffffffffffffffffffffffffffffffffffffff168473ffffffffffffffffffffffffffffffffffffffff16036111ab575f6040517f74f5e87d0000000000000000000000000000000000000000000000000000000081526004016111a29190611e27565b60405180910390fd5b6111b481611976565b156111f657806040517ff342bdc20000000000000000000000000000000000000000000000000000000081526004016111ed9190611eb7565b60405180910390fd5b6111ff846119b6565b61121d57600160025f8282546112159190612b8a565b925050819055505b600160075f8673ffffffffffffffffffffffffffffffffffffffff1673ffffffffffffffffffffffffffffffffffffffff1681526020019081526020015f205f8282540192505081905550600160035f82825401925050819055508360045f8381526020019081526020015f205f6101000a81548173ffffffffffffffffffffffffffffffffffffffff021916908373ffffffffffffffffffffffffffffffffffffffff1602179055508260055f8381526020019081526020015f2081905550600160065f8381526020019081526020015f20819055506001600a5f8673ffffffffffffffffffffffffffffffffffffffff1673ffffffffffffffffffffffffffffffffffffffff1681526020019081526020015f205f8381526020019081526020015f205f6101000a81548160ff0219169083151502179055508060095f8673ffffffffffffffffffffffffffffffffffffffff1673ffffffffffffffffffffffffffffffffffffffff1681526020019081526020015f205f600160075f8973ffffffffffffffffffffffffffffffffffffffff1673ffffffffffffffffffffffffffffffffffffffff1681526020019081526020015f20546113e19190612bbd565b81526020019081526020015f208190555082818573ffffffffffffffffffffffffffffffffffffffff167f2f00e3cdd69a77be7ed215ec7b2a36784dd158f921fca79ac29deffa353fe6ee5f60405161143a9190611e27565b60405180910390a48091505092915050565b5f611456846119ff565b6114635760019050611531565b5f8473ffffffffffffffffffffffffffffffffffffffff1663150b7a02338887876040518563ffffffff1660e01b81526004016114a39493929190612c42565b6020604051808303815f875af11580156114bf573d5f803e3d5ffd5b505050506040513d601f19601f820116820180604052508101906114e39190612ca0565b905063150b7a0260e01b7bffffffffffffffffffffffffffffffffffffffffffffffffffffffff1916817bffffffffffffffffffffffffffffffffffffffffffffffffffffffff1916149150505b949350505050565b61154281611976565b61158357806040517f24476a3f00000000000000000000000000000000000000000000000000000000815260040161157a9190611eb7565b60405180910390fd5b6115bc60045f8381526020019081526020015f205f9054906101000a900473ffffffffffffffffffffffffffffffffffffffff1661100f565b5050565b5f805f9054906101000a900473ffffffffffffffffffffffffffffffffffffffff169050815f806101000a81548173ffffffffffffffffffffffffffffffffffffffff021916908373ffffffffffffffffffffffffffffffffffffffff1602179055508173ffffffffffffffffffffffffffffffffffffffff168173ffffffffffffffffffffffffffffffffffffffff167f8be0079c531659141344cd1fd0a4f28419497f9722a3daafe3b4186f6b6457e060405160405180910390a35050565b80600a5f3373ffffffffffffffffffffffffffffffffffffffff1673ffffffffffffffffffffffffffffffffffffffff1681526020019081526020015f205f8481526020019081526020015f205f6101000a81548160ff0219169083151502179055505050565b5f600a5f8473ffffffffffffffffffffffffffffffffffffffff1673ffffffffffffffffffffffffffffffffffffffff1681526020019081526020015f205f8381526020019081526020015f205f9054906101000a900460ff16905092915050565b6117548282611a16565b5f60065f8381526020019081526020015f2081905550808273ffffffffffffffffffffffffffffffffffffffff167f154fa90f2d3692df165afacdcd7755b2e9d98a892a80cc1dda63f3a9cc1e64a460405160405180910390a35050565b5f6117bd8383611a16565b600160065f8481526020019081526020015f205f8282546117de9190612b8a565b925050819055505f60065f8481526020019081526020015f20549050808473ffffffffffffffffffffffffffffffffffffffff167f48ffd7fdb1c1a0561a2d410317f6bb839aab64898de6fc73ee703a9c0dc0a36c856040516118419190611eb7565b60405180910390a38091505092915050565b60605f600161186184611a92565b0190505f8167ffffffffffffffff81111561187f5761187e612105565b5b6040519080825280601f01601f1916602001820160405280156118b15781602001600182028036833780820191505090505b5090505f82602001820190505b600115611912578080600190039150507f3031323334353637383961626364656600000000000000000000000000000000600a86061a8153600a858161190757611906612ccb565b5b0494505f85036118be575b819350505050919050565b5f60085f8373ffffffffffffffffffffffffffffffffffffffff1673ffffffffffffffffffffffffffffffffffffffff1681526020019081526020015f205f9054906101000a900460ff169050919050565b5f33905090565b5f8073ffffffffffffffffffffffffffffffffffffffff1661199783611be3565b73ffffffffffffffffffffffffffffffffffffffff1614159050919050565b5f8060075f8473ffffffffffffffffffffffffffffffffffffffff1673ffffffffffffffffffffffffffffffffffffffff1681526020019081526020015f205414159050919050565b5f80823b90505f8163ffffffff1611915050919050565b8173ffffffffffffffffffffffffffffffffffffffff16611a3682611be3565b73ffffffffffffffffffffffffffffffffffffffff1614611a8e57816040517f50159299000000000000000000000000000000000000000000000000000000008152600401611a859190611e27565b60405180910390fd5b5050565b5f805f90507a184f03e93ff9f4daa797ed6e38ed64bf6a1f0100000000000000008310611aee577a184f03e93ff9f4daa797ed6e38ed64bf6a1f0100000000000000008381611ae457611ae3612ccb565b5b0492506040810190505b6d04ee2d6d415b85acef81000000008310611b2b576d04ee2d6d415b85acef81000000008381611b2157611b20612ccb565b5b0492506020810190505b662386f26fc100008310611b5a57662386f26fc100008381611b5057611b4f612ccb565b5b0492506010810190505b6305f5e1008310611b83576305f5e1008381611b7957611b78612ccb565b5b0492506008810190505b6127108310611ba8576127108381611b9e57611b9d612ccb565b5b0492506004810190505b60648310611bcb5760648381611bc157611bc0612ccb565b5b0492506002810190505b600a8310611bda576001810190505b80915050919050565b5f60045f8381526020019081526020015f205f9054906101000a900473ffffffffffffffffffffffffffffffffffffffff169050919050565b5f604051905090565b5f80fd5b5f80fd5b5f7fffffffff0000000000000000000000000000000000000000000000000000000082169050919050565b611c6181611c2d565b8114611c6b575f80fd5b50565b5f81359050611c7c81611c58565b92915050565b5f60208284031215611c9757611c96611c25565b5b5f611ca484828501611c6e565b91505092915050565b5f8115159050919050565b611cc181611cad565b82525050565b5f602082019050611cda5f830184611cb8565b92915050565b5f81519050919050565b5f82825260208201905092915050565b5f5b83811015611d17578082015181840152602081019050611cfc565b5f8484015250505050565b5f601f19601f8301169050919050565b5f611d3c82611ce0565b611d468185611cea565b9350611d56818560208601611cfa565b611d5f81611d22565b840191505092915050565b5f6020820190508181035f830152611d828184611d32565b905092915050565b5f819050919050565b611d9c81611d8a565b8114611da6575f80fd5b50565b5f81359050611db781611d93565b92915050565b5f60208284031215611dd257611dd1611c25565b5b5f611ddf84828501611da9565b91505092915050565b5f73ffffffffffffffffffffffffffffffffffffffff82169050919050565b5f611e1182611de8565b9050919050565b611e2181611e07565b82525050565b5f602082019050611e3a5f830184611e18565b92915050565b611e4981611e07565b8114611e53575f80fd5b50565b5f81359050611e6481611e40565b92915050565b5f8060408385031215611e8057611e7f611c25565b5b5f611e8d85828601611e56565b9250506020611e9e85828601611da9565b9150509250929050565b611eb181611d8a565b82525050565b5f602082019050611eca5f830184611ea8565b92915050565b611ed981611cad565b8114611ee3575f80fd5b50565b5f81359050611ef481611ed0565b92915050565b5f60208284031215611f0f57611f0e611c25565b5b5f611f1c84828501611ee6565b91505092915050565b5f805f60608486031215611f3c57611f3b611c25565b5b5f611f4986828701611e56565b9350506020611f5a86828701611e56565b9250506040611f6b86828701611da9565b9150509250925092565b5f60208284031215611f8a57611f89611c25565b5b5f611f9784828501611e56565b91505092915050565b5f8060408385031215611fb657611fb5611c25565b5b5f611fc385828601611da9565b9250506020611fd485828601611ee6565b9150509250929050565b5f8060408385031215611ff457611ff3611c25565b5b5f61200185828601611e56565b925050602061201285828601611ee6565b9150509250929050565b5f80fd5b5f80fd5b5f80fd5b5f8083601f84011261203d5761203c61201c565b5b8235905067ffffffffffffffff81111561205a57612059612020565b5b60208301915083600182028301111561207657612075612024565b5b9250929050565b5f805f805f6080868803121561209657612095611c25565b5b5f6120a388828901611e56565b95505060206120b488828901611e56565b94505060406120c588828901611da9565b935050606086013567ffffffffffffffff8111156120e6576120e5611c29565b5b6120f288828901612028565b92509250509295509295909350565b5f80fd5b7f4e487b71000000000000000000000000000000000000000000000000000000005f52604160045260245ffd5b61213b82611d22565b810181811067ffffffffffffffff8211171561215a57612159612105565b5b80604052505050565b5f61216c611c1c565b90506121788282612132565b919050565b5f67ffffffffffffffff82111561219757612196612105565b5b6121a082611d22565b9050602081019050919050565b828183375f83830152505050565b5f6121cd6121c88461217d565b612163565b9050828152602081018484840111156121e9576121e8612101565b5b6121f48482856121ad565b509392505050565b5f82601f8301126122105761220f61201c565b5b81356122208482602086016121bb565b91505092915050565b5f6020828403121561223e5761223d611c25565b5b5f82013567ffffffffffffffff81111561225b5761225a611c29565b5b612267848285016121fc565b91505092915050565b5f806040838503121561228657612285611c25565b5b5f61229385828601611e56565b92505060206122a485828601611e56565b9150509250929050565b7f676574417070726f7665640000000000000000000000000000000000000000005f82015250565b5f6122e2600b83611cea565b91506122ed826122ae565b602082019050919050565b5f6020820190508181035f83015261230f816122d6565b9050919050565b7f617070726f7665000000000000000000000000000000000000000000000000005f82015250565b5f61234a600783611cea565b915061235582612316565b602082019050919050565b5f6020820190508181035f8301526123778161233e565b9050919050565b7f7472616e7366657246726f6d00000000000000000000000000000000000000005f82015250565b5f6123b2600c83611cea565b91506123bd8261237e565b602082019050919050565b5f6020820190508181035f8301526123df816123a6565b9050919050565b7f4f7574206f6620496e64657800000000000000000000000000000000000000005f82015250565b5f61241a600c83611cea565b9150612425826123e6565b602082019050919050565b5f6020820190508181035f8301526124478161240e565b9050919050565b7f4552433732313a207472616e7366657220746f206e6f6e2045524337323152655f8201527f63656976657220696d706c656d656e7465720000000000000000000000000000602082015250565b5f6124a8603283611cea565b91506124b38261244e565b604082019050919050565b5f6020820190508181035f8301526124d58161249c565b9050919050565b7f736166655472616e7366657246726f6d000000000000000000000000000000005f82015250565b5f612510601083611cea565b915061251b826124dc565b602082019050919050565b5f6020820190508181035f83015261253d81612504565b9050919050565b5f6040820190506125575f830185611e18565b6125646020830184611ea8565b9392505050565b7f736574417070726f76616c466f72416c6c0000000000000000000000000000005f82015250565b5f61259f601183611cea565b91506125aa8261256b565b602082019050919050565b5f6020820190508181035f8301526125cc81612593565b9050919050565b7f4e487b71000000000000000000000000000000000000000000000000000000005f52602260045260245ffd5b5f600282049050600182168061261757607f821691505b60208210810361262a576126296125d3565b5b50919050565b5f81905092915050565b5f819050815f5260205f209050919050565b5f815461265881612600565b6126628186612630565b9450600182165f811461267c5760018114612691576126c3565b60ff19831686528115158202860193506126c3565b61269a8561263a565b5f5b838110156126bb5781548189015260018201915060208101905061269c565b838801955050505b50505092915050565b5f6126d682611ce0565b6126e08185612630565b93506126f0818560208601611cfa565b80840191505092915050565b7f3f746f6b656e547970653d0000000000000000000000000000000000000000005f82015250565b5f612730600b83612630565b915061273b826126fc565b600b82019050919050565b5f819050919050565b61276061275b82611d8a565b612746565b82525050565b5f612771828661264c565b915061277d82856126cc565b915061278882612724565b9150612794828461274f565b602082019150819050949350505050565b5f6020601f8301049050919050565b5f82821b905092915050565b5f600883026127ef7fffffffffffffffffffffffffffffffffffffffffffffffffffffffffffffffff826127b4565b6127f986836127b4565b95508019841693508086168417925050509392505050565b5f819050919050565b5f61283461282f61282a84611d8a565b612811565b611d8a565b9050919050565b5f819050919050565b61284d8361281a565b6128616128598261283b565b8484546127c0565b825550505050565b5f90565b612875612869565b612880818484612844565b505050565b5b818110156128a3576128985f8261286d565b600181019050612886565b5050565b601f8211156128e8576128b98161263a565b6128c2846127a5565b810160208510156128d1578190505b6128e56128dd856127a5565b830182612885565b50505b505050565b5f82821c905092915050565b5f6129085f19846008026128ed565b1980831691505092915050565b5f61292083836128f9565b9150826002028217905092915050565b61293982611ce0565b67ffffffffffffffff81111561295257612951612105565b5b61295c8254612600565b6129678282856128a7565b5f60209050601f831160018114612998575f8415612986578287015190505b6129908582612915565b8655506129f7565b601f1984166129a68661263a565b5f5b828110156129cd578489015182556001820191506020850194506020810190506129a8565b868310156129ea57848901516129e6601f8916826128f9565b8355505b6001600288020188555050505b505050505050565b7f6973417070726f766564466f72416c6c000000000000000000000000000000005f82015250565b5f612a33601083611cea565b9150612a3e826129ff565b602082019050919050565b5f6020820190508181035f830152612a6081612a27565b9050919050565b7f4f776e61626c653a206e6577206f776e657220697320746865207a65726f20615f8201527f6464726573730000000000000000000000000000000000000000000000000000602082015250565b5f612ac1602683611cea565b9150612acc82612a67565b604082019050919050565b5f6020820190508181035f830152612aee81612ab5565b9050919050565b7f4f776e61626c653a2063616c6c6572206973206e6f7420746865206f776e65725f82015250565b5f612b29602083611cea565b9150612b3482612af5565b602082019050919050565b5f6020820190508181035f830152612b5681612b1d565b9050919050565b7f4e487b71000000000000000000000000000000000000000000000000000000005f52601160045260245ffd5b5f612b9482611d8a565b9150612b9f83611d8a565b9250828201905080821115612bb757612bb6612b5d565b5b92915050565b5f612bc782611d8a565b9150612bd283611d8a565b9250828203905081811115612bea57612be9612b5d565b5b92915050565b5f81519050919050565b5f82825260208201905092915050565b5f612c1482612bf0565b612c1e8185612bfa565b9350612c2e818560208601611cfa565b612c3781611d22565b840191505092915050565b5f608082019050612c555f830187611e18565b612c626020830186611e18565b612c6f6040830185611ea8565b8181036060830152612c818184612c0a565b905095945050505050565b5f81519050612c9a81611c58565b92915050565b5f60208284031215612cb557612cb4611c25565b5b5f612cc284828501612c8c565b91505092915050565b7f4e487b71000000000000000000000000000000000000000000000000000000005f52601260045260245ffdfea2646970667358221220eced7a94878cbd97eeb0711ad77b10021a058e11db84dd1022df189c668129fa64736f6c63430008140033",
					"opcodes": "PUSH1 0x80 PUSH1 0x40 MSTORE CALLVALUE DUP1 ISZERO PUSH3 0x10 JUMPI PUSH0 DUP1 REVERT JUMPDEST POP PUSH1 0x40 MLOAD PUSH3 0x34E3 CODESIZE SUB DUP1 PUSH3 0x34E3 DUP4 CODECOPY DUP2 DUP2 ADD PUSH1 0x40 MSTORE DUP2 ADD SWAP1 PUSH3 0x36 SWAP2 SWAP1 PUSH3 0x37C JUMP JUMPDEST PUSH3 0x56 PUSH3 0x4A PUSH3 0x12F PUSH1 0x20 SHL PUSH1 0x20 SHR JUMP JUMPDEST PUSH3 0x136 PUSH1 0x20 SHL PUSH1 0x20 SHR JUMP JUMPDEST DUP1 PUSH1 0x1 SWAP1 DUP2 PUSH3 0x67 SWAP2 SWAP1 PUSH3 0x602 JUMP JUMPDEST POP CALLER PUSH20 0xFFFFFFFFFFFFFFFFFFFFFFFFFFFFFFFFFFFFFFFF AND PUSH32 0xDDB33C9627985605622B2C4E8B308152B557AEAE8BA59E2F05038C9D8ED6AE84 TIMESTAMP PUSH1 0x40 MLOAD DUP1 PUSH1 0x40 ADD PUSH1 0x40 MSTORE DUP1 PUSH1 0x6 DUP2 MSTORE PUSH1 0x20 ADD PUSH32 0x484F4E5342540000000000000000000000000000000000000000000000000000 DUP2 MSTORE POP PUSH1 0x40 MLOAD DUP1 PUSH1 0x40 ADD PUSH1 0x40 MSTORE DUP1 PUSH1 0x6 DUP2 MSTORE PUSH1 0x20 ADD PUSH32 0x484F4E5342540000000000000000000000000000000000000000000000000000 DUP2 MSTORE POP DUP6 PUSH1 0x40 MLOAD PUSH3 0x120 SWAP5 SWAP4 SWAP3 SWAP2 SWAP1 PUSH3 0x747 JUMP JUMPDEST PUSH1 0x40 MLOAD DUP1 SWAP2 SUB SWAP1 LOG2 POP PUSH3 0x7A7 JUMP JUMPDEST PUSH0 CALLER SWAP1 POP SWAP1 JUMP JUMPDEST PUSH0 DUP1 PUSH0 SWAP1 SLOAD SWAP1 PUSH2 0x100 EXP SWAP1 DIV PUSH20 0xFFFFFFFFFFFFFFFFFFFFFFFFFFFFFFFFFFFFFFFF AND SWAP1 POP DUP2 PUSH0 DUP1 PUSH2 0x100 EXP DUP2 SLOAD DUP2 PUSH20 0xFFFFFFFFFFFFFFFFFFFFFFFFFFFFFFFFFFFFFFFF MUL NOT AND SWAP1 DUP4 PUSH20 0xFFFFFFFFFFFFFFFFFFFFFFFFFFFFFFFFFFFFFFFF AND MUL OR SWAP1 SSTORE POP DUP2 PUSH20 0xFFFFFFFFFFFFFFFFFFFFFFFFFFFFFFFFFFFFFFFF AND DUP2 PUSH20 0xFFFFFFFFFFFFFFFFFFFFFFFFFFFFFFFFFFFFFFFF AND PUSH32 0x8BE0079C531659141344CD1FD0A4F28419497F9722A3DAAFE3B4186F6B6457E0 PUSH1 0x40 MLOAD PUSH1 0x40 MLOAD DUP1 SWAP2 SUB SWAP1 LOG3 POP POP JUMP JUMPDEST PUSH0 PUSH1 0x40 MLOAD SWAP1 POP SWAP1 JUMP JUMPDEST PUSH0 DUP1 REVERT JUMPDEST PUSH0 DUP1 REVERT JUMPDEST PUSH0 DUP1 REVERT JUMPDEST PUSH0 DUP1 REVERT JUMPDEST PUSH0 PUSH1 0x1F NOT PUSH1 0x1F DUP4 ADD AND SWAP1 POP SWAP2 SWAP1 POP JUMP JUMPDEST PUSH32 0x4E487B7100000000000000000000000000000000000000000000000000000000 PUSH0 MSTORE PUSH1 0x41 PUSH1 0x4 MSTORE PUSH1 0x24 PUSH0 REVERT JUMPDEST PUSH3 0x258 DUP3 PUSH3 0x210 JUMP JUMPDEST DUP2 ADD DUP2 DUP2 LT PUSH8 0xFFFFFFFFFFFFFFFF DUP3 GT OR ISZERO PUSH3 0x27A JUMPI PUSH3 0x279 PUSH3 0x220 JUMP JUMPDEST JUMPDEST DUP1 PUSH1 0x40 MSTORE POP POP POP JUMP JUMPDEST PUSH0 PUSH3 0x28E PUSH3 0x1F7 JUMP JUMPDEST SWAP1 POP PUSH3 0x29C DUP3 DUP3 PUSH3 0x24D JUMP JUMPDEST SWAP2 SWAP1 POP JUMP JUMPDEST PUSH0 PUSH8 0xFFFFFFFFFFFFFFFF DUP3 GT ISZERO PUSH3 0x2BE JUMPI PUSH3 0x2BD PUSH3 0x220 JUMP JUMPDEST JUMPDEST PUSH3 0x2C9 DUP3 PUSH3 0x210 JUMP JUMPDEST SWAP1 POP PUSH1 0x20 DUP2 ADD SWAP1 POP SWAP2 SWAP1 POP JUMP JUMPDEST PUSH0 JUMPDEST DUP4 DUP2 LT ISZERO PUSH3 0x2F5 JUMPI DUP1 DUP3 ADD MLOAD DUP2 DUP5 ADD MSTORE PUSH1 0x20 DUP2 ADD SWAP1 POP PUSH3 0x2D8 JUMP JUMPDEST PUSH0 DUP5 DUP5 ADD MSTORE POP POP POP POP JUMP JUMPDEST PUSH0 PUSH3 0x316 PUSH3 0x310 DUP5 PUSH3 0x2A1 JUMP JUMPDEST PUSH3 0x283 JUMP JUMPDEST SWAP1 POP DUP3 DUP2 MSTORE PUSH1 0x20 DUP2 ADD DUP5 DUP5 DUP5 ADD GT ISZERO PUSH3 0x335 JUMPI PUSH3 0x334 PUSH3 0x20C JUMP JUMPDEST JUMPDEST PUSH3 0x342 DUP5 DUP3 DUP6 PUSH3 0x2D6 JUMP JUMPDEST POP SWAP4 SWAP3 POP POP POP JUMP JUMPDEST PUSH0 DUP3 PUSH1 0x1F DUP4 ADD SLT PUSH3 0x361 JUMPI PUSH3 0x360 PUSH3 0x208 JUMP JUMPDEST JUMPDEST DUP2 MLOAD PUSH3 0x373 DUP5 DUP3 PUSH1 0x20 DUP7 ADD PUSH3 0x300 JUMP JUMPDEST SWAP2 POP POP SWAP3 SWAP2 POP POP JUMP JUMPDEST PUSH0 PUSH1 0x20 DUP3 DUP5 SUB SLT ISZERO PUSH3 0x394 JUMPI PUSH3 0x393 PUSH3 0x200 JUMP JUMPDEST JUMPDEST PUSH0 DUP3 ADD MLOAD PUSH8 0xFFFFFFFFFFFFFFFF DUP2 GT ISZERO PUSH3 0x3B4 JUMPI PUSH3 0x3B3 PUSH3 0x204 JUMP JUMPDEST JUMPDEST PUSH3 0x3C2 DUP5 DUP3 DUP6 ADD PUSH3 0x34A JUMP JUMPDEST SWAP2 POP POP SWAP3 SWAP2 POP POP JUMP JUMPDEST PUSH0 DUP2 MLOAD SWAP1 POP SWAP2 SWAP1 POP JUMP JUMPDEST PUSH32 0x4E487B7100000000000000000000000000000000000000000000000000000000 PUSH0 MSTORE PUSH1 0x22 PUSH1 0x4 MSTORE PUSH1 0x24 PUSH0 REVERT JUMPDEST PUSH0 PUSH1 0x2 DUP3 DIV SWAP1 POP PUSH1 0x1 DUP3 AND DUP1 PUSH3 0x41A JUMPI PUSH1 0x7F DUP3 AND SWAP2 POP JUMPDEST PUSH1 0x20 DUP3 LT DUP2 SUB PUSH3 0x430 JUMPI PUSH3 0x42F PUSH3 0x3D5 JUMP JUMPDEST JUMPDEST POP SWAP2 SWAP1 POP JUMP JUMPDEST PUSH0 DUP2 SWAP1 POP DUP2 PUSH0 MSTORE PUSH1 0x20 PUSH0 KECCAK256 SWAP1 POP SWAP2 SWAP1 POP JUMP JUMPDEST PUSH0 PUSH1 0x20 PUSH1 0x1F DUP4 ADD DIV SWAP1 POP SWAP2 SWAP1 POP JUMP JUMPDEST PUSH0 DUP3 DUP3 SHL SWAP1 POP SWAP3 SWAP2 POP POP JUMP JUMPDEST PUSH0 PUSH1 0x8 DUP4 MUL PUSH3 0x494 PUSH32 0xFFFFFFFFFFFFFFFFFFFFFFFFFFFFFFFFFFFFFFFFFFFFFFFFFFFFFFFFFFFFFFFF DUP3 PUSH3 0x457 JUMP JUMPDEST PUSH3 0x4A0 DUP7 DUP4 PUSH3 0x457 JUMP JUMPDEST SWAP6 POP DUP1 NOT DUP5 AND SWAP4 POP DUP1 DUP7 AND DUP5 OR SWAP3 POP POP POP SWAP4 SWAP3 POP POP POP JUMP JUMPDEST PUSH0 DUP2 SWAP1 POP SWAP2 SWAP1 POP JUMP JUMPDEST PUSH0 DUP2 SWAP1 POP SWAP2 SWAP1 POP JUMP JUMPDEST PUSH0 PUSH3 0x4EA PUSH3 0x4E4 PUSH3 0x4DE DUP5 PUSH3 0x4B8 JUMP JUMPDEST PUSH3 0x4C1 JUMP JUMPDEST PUSH3 0x4B8 JUMP JUMPDEST SWAP1 POP SWAP2 SWAP1 POP JUMP JUMPDEST PUSH0 DUP2 SWAP1 POP SWAP2 SWAP1 POP JUMP JUMPDEST PUSH3 0x505 DUP4 PUSH3 0x4CA JUMP JUMPDEST PUSH3 0x51D PUSH3 0x514 DUP3 PUSH3 0x4F1 JUMP JUMPDEST DUP5 DUP5 SLOAD PUSH3 0x463 JUMP JUMPDEST DUP3 SSTORE POP POP POP POP JUMP JUMPDEST PUSH0 SWAP1 JUMP JUMPDEST PUSH3 0x533 PUSH3 0x525 JUMP JUMPDEST PUSH3 0x540 DUP2 DUP5 DUP5 PUSH3 0x4FA JUMP JUMPDEST POP POP POP JUMP JUMPDEST JUMPDEST DUP2 DUP2 LT ISZERO PUSH3 0x567 JUMPI PUSH3 0x55B PUSH0 DUP3 PUSH3 0x529 JUMP JUMPDEST PUSH1 0x1 DUP2 ADD SWAP1 POP PUSH3 0x546 JUMP JUMPDEST POP POP JUMP JUMPDEST PUSH1 0x1F DUP3 GT ISZERO PUSH3 0x5B6 JUMPI PUSH3 0x580 DUP2 PUSH3 0x436 JUMP JUMPDEST PUSH3 0x58B DUP5 PUSH3 0x448 JUMP JUMPDEST DUP2 ADD PUSH1 0x20 DUP6 LT ISZERO PUSH3 0x59B JUMPI DUP2 SWAP1 POP JUMPDEST PUSH3 0x5B3 PUSH3 0x5AA DUP6 PUSH3 0x448 JUMP JUMPDEST DUP4 ADD DUP3 PUSH3 0x545 JUMP JUMPDEST POP POP JUMPDEST POP POP POP JUMP JUMPDEST PUSH0 DUP3 DUP3 SHR SWAP1 POP SWAP3 SWAP2 POP POP JUMP JUMPDEST PUSH0 PUSH3 0x5D8 PUSH0 NOT DUP5 PUSH1 0x8 MUL PUSH3 0x5BB JUMP JUMPDEST NOT DUP1 DUP4 AND SWAP2 POP POP SWAP3 SWAP2 POP POP JUMP JUMPDEST PUSH0 PUSH3 0x5F2 DUP4 DUP4 PUSH3 0x5C7 JUMP JUMPDEST SWAP2 POP DUP3 PUSH1 0x2 MUL DUP3 OR SWAP1 POP SWAP3 SWAP2 POP POP JUMP JUMPDEST PUSH3 0x60D DUP3 PUSH3 0x3CB JUMP JUMPDEST PUSH8 0xFFFFFFFFFFFFFFFF DUP2 GT ISZERO PUSH3 0x629 JUMPI PUSH3 0x628 PUSH3 0x220 JUMP JUMPDEST JUMPDEST PUSH3 0x635 DUP3 SLOAD PUSH3 0x402 JUMP JUMPDEST PUSH3 0x642 DUP3 DUP3 DUP6 PUSH3 0x56B JUMP JUMPDEST PUSH0 PUSH1 0x20 SWAP1 POP PUSH1 0x1F DUP4 GT PUSH1 0x1 DUP2 EQ PUSH3 0x678 JUMPI PUSH0 DUP5 ISZERO PUSH3 0x663 JUMPI DUP3 DUP8 ADD MLOAD SWAP1 POP JUMPDEST PUSH3 0x66F DUP6 DUP3 PUSH3 0x5E5 JUMP JUMPDEST DUP7 SSTORE POP PUSH3 0x6DE JUMP JUMPDEST PUSH1 0x1F NOT DUP5 AND PUSH3 0x688 DUP7 PUSH3 0x436 JUMP JUMPDEST PUSH0 JUMPDEST DUP3 DUP2 LT ISZERO PUSH3 0x6B1 JUMPI DUP5 DUP10 ADD MLOAD DUP3 SSTORE PUSH1 0x1 DUP3 ADD SWAP2 POP PUSH1 0x20 DUP6 ADD SWAP5 POP PUSH1 0x20 DUP2 ADD SWAP1 POP PUSH3 0x68A JUMP JUMPDEST DUP7 DUP4 LT ISZERO PUSH3 0x6D1 JUMPI DUP5 DUP10 ADD MLOAD PUSH3 0x6CD PUSH1 0x1F DUP10 AND DUP3 PUSH3 0x5C7 JUMP JUMPDEST DUP4 SSTORE POP JUMPDEST PUSH1 0x1 PUSH1 0x2 DUP9 MUL ADD DUP9 SSTORE POP POP POP JUMPDEST POP POP POP POP POP POP JUMP JUMPDEST PUSH3 0x6F1 DUP2 PUSH3 0x4B8 JUMP JUMPDEST DUP3 MSTORE POP POP JUMP JUMPDEST PUSH0 DUP3 DUP3 MSTORE PUSH1 0x20 DUP3 ADD SWAP1 POP SWAP3 SWAP2 POP POP JUMP JUMPDEST PUSH0 PUSH3 0x713 DUP3 PUSH3 0x3CB JUMP JUMPDEST PUSH3 0x71F DUP2 DUP6 PUSH3 0x6F7 JUMP JUMPDEST SWAP4 POP PUSH3 0x731 DUP2 DUP6 PUSH1 0x20 DUP7 ADD PUSH3 0x2D6 JUMP JUMPDEST PUSH3 0x73C DUP2 PUSH3 0x210 JUMP JUMPDEST DUP5 ADD SWAP2 POP POP SWAP3 SWAP2 POP POP JUMP JUMPDEST PUSH0 PUSH1 0x80 DUP3 ADD SWAP1 POP PUSH3 0x75C PUSH0 DUP4 ADD DUP8 PUSH3 0x6E6 JUMP JUMPDEST DUP2 DUP2 SUB PUSH1 0x20 DUP4 ADD MSTORE PUSH3 0x770 DUP2 DUP7 PUSH3 0x707 JUMP JUMPDEST SWAP1 POP DUP2 DUP2 SUB PUSH1 0x40 DUP4 ADD MSTORE PUSH3 0x786 DUP2 DUP6 PUSH3 0x707 JUMP JUMPDEST SWAP1 POP DUP2 DUP2 SUB PUSH1 0x60 DUP4 ADD MSTORE PUSH3 0x79C DUP2 DUP5 PUSH3 0x707 JUMP JUMPDEST SWAP1 POP SWAP6 SWAP5 POP POP POP POP POP JUMP JUMPDEST PUSH2 0x2D2E DUP1 PUSH3 0x7B5 PUSH0 CODECOPY PUSH0 RETURN INVALID PUSH1 0x80 PUSH1 0x40 MSTORE CALLVALUE DUP1 ISZERO PUSH2 0xF JUMPI PUSH0 DUP1 REVERT JUMPDEST POP PUSH1 0x4 CALLDATASIZE LT PUSH2 0x1CD JUMPI PUSH0 CALLDATALOAD PUSH1 0xE0 SHR DUP1 PUSH4 0x76AED2E1 GT PUSH2 0x102 JUMPI DUP1 PUSH4 0xBE37E907 GT PUSH2 0xA0 JUMPI DUP1 PUSH4 0xE1604B70 GT PUSH2 0x6F JUMPI DUP1 PUSH4 0xE1604B70 EQ PUSH2 0x587 JUMPI DUP1 PUSH4 0xE985E9C5 EQ PUSH2 0x5A5 JUMPI DUP1 PUSH4 0xF2FDE38B EQ PUSH2 0x5D5 JUMPI DUP1 PUSH4 0xF3BA5946 EQ PUSH2 0x5F1 JUMPI PUSH2 0x1CD JUMP JUMPDEST DUP1 PUSH4 0xBE37E907 EQ PUSH2 0x4C7 JUMPI DUP1 PUSH4 0xC87B56DD EQ PUSH2 0x4F7 JUMPI DUP1 PUSH4 0xCE35DE95 EQ PUSH2 0x527 JUMPI DUP1 PUSH4 0xE0DF5B6F EQ PUSH2 0x557 JUMPI PUSH2 0x1CD JUMP JUMPDEST DUP1 PUSH4 0x95D89B41 GT PUSH2 0xDC JUMPI DUP1 PUSH4 0x95D89B41 EQ PUSH2 0x455 JUMPI DUP1 PUSH4 0x9B252852 EQ PUSH2 0x473 JUMPI DUP1 PUSH4 0xA22CB465 EQ PUSH2 0x48F JUMPI DUP1 PUSH4 0xB88D4FDE EQ PUSH2 0x4AB JUMPI PUSH2 0x1CD JUMP JUMPDEST DUP1 PUSH4 0x76AED2E1 EQ PUSH2 0x3EB JUMPI DUP1 PUSH4 0x8C10081F EQ PUSH2 0x41B JUMPI DUP1 PUSH4 0x8DA5CB5B EQ PUSH2 0x437 JUMPI PUSH2 0x1CD JUMP JUMPDEST DUP1 PUSH4 0x2F745C59 GT PUSH2 0x16F JUMPI DUP1 PUSH4 0x51C18E0C GT PUSH2 0x149 JUMPI DUP1 PUSH4 0x51C18E0C EQ PUSH2 0x351 JUMPI DUP1 PUSH4 0x6352211E EQ PUSH2 0x381 JUMPI DUP1 PUSH4 0x70A08231 EQ PUSH2 0x3B1 JUMPI DUP1 PUSH4 0x715018A6 EQ PUSH2 0x3E1 JUMPI PUSH2 0x1CD JUMP JUMPDEST DUP1 PUSH4 0x2F745C59 EQ PUSH2 0x2D5 JUMPI DUP1 PUSH4 0x40C10F19 EQ PUSH2 0x305 JUMPI DUP1 PUSH4 0x42842E0E EQ PUSH2 0x335 JUMPI PUSH2 0x1CD JUMP JUMPDEST DUP1 PUSH4 0x95EA7B3 GT PUSH2 0x1AB JUMPI DUP1 PUSH4 0x95EA7B3 EQ PUSH2 0x24F JUMPI DUP1 PUSH4 0x18160DDD EQ PUSH2 0x26B JUMPI DUP1 PUSH4 0x1C02BC31 EQ PUSH2 0x289 JUMPI DUP1 PUSH4 0x23B872DD EQ PUSH2 0x2B9 JUMPI PUSH2 0x1CD JUMP JUMPDEST DUP1 PUSH4 0x1FFC9A7 EQ PUSH2 0x1D1 JUMPI DUP1 PUSH4 0x6FDDE03 EQ PUSH2 0x201 JUMPI DUP1 PUSH4 0x81812FC EQ PUSH2 0x21F JUMPI JUMPDEST PUSH0 DUP1 REVERT JUMPDEST PUSH2 0x1EB PUSH1 0x4 DUP1 CALLDATASIZE SUB DUP2 ADD SWAP1 PUSH2 0x1E6 SWAP2 SWAP1 PUSH2 0x1C82 JUMP JUMPDEST PUSH2 0x621 JUMP JUMPDEST PUSH1 0x40 MLOAD PUSH2 0x1F8 SWAP2 SWAP1 PUSH2 0x1CC7 JUMP JUMPDEST PUSH1 0x40 MLOAD DUP1 SWAP2 SUB SWAP1 RETURN JUMPDEST PUSH2 0x209 PUSH2 0x69A JUMP JUMPDEST PUSH1 0x40 MLOAD PUSH2 0x216 SWAP2 SWAP1 PUSH2 0x1D6A JUMP JUMPDEST PUSH1 0x40 MLOAD DUP1 SWAP2 SUB SWAP1 RETURN JUMPDEST PUSH2 0x239 PUSH1 0x4 DUP1 CALLDATASIZE SUB DUP2 ADD SWAP1 PUSH2 0x234 SWAP2 SWAP1 PUSH2 0x1DBD JUMP JUMPDEST PUSH2 0x6D7 JUMP JUMPDEST PUSH1 0x40 MLOAD PUSH2 0x246 SWAP2 SWAP1 PUSH2 0x1E27 JUMP JUMPDEST PUSH1 0x40 MLOAD DUP1 SWAP2 SUB SWAP1 RETURN JUMPDEST PUSH2 0x269 PUSH1 0x4 DUP1 CALLDATASIZE SUB DUP2 ADD SWAP1 PUSH2 0x264 SWAP2 SWAP1 PUSH2 0x1E6A JUMP JUMPDEST PUSH2 0x713 JUMP JUMPDEST STOP JUMPDEST PUSH2 0x273 PUSH2 0x74E JUMP JUMPDEST PUSH1 0x40 MLOAD PUSH2 0x280 SWAP2 SWAP1 PUSH2 0x1EB7 JUMP JUMPDEST PUSH1 0x40 MLOAD DUP1 SWAP2 SUB SWAP1 RETURN JUMPDEST PUSH2 0x2A3 PUSH1 0x4 DUP1 CALLDATASIZE SUB DUP2 ADD SWAP1 PUSH2 0x29E SWAP2 SWAP1 PUSH2 0x1EFA JUMP JUMPDEST PUSH2 0x757 JUMP JUMPDEST PUSH1 0x40 MLOAD PUSH2 0x2B0 SWAP2 SWAP1 PUSH2 0x1CC7 JUMP JUMPDEST PUSH1 0x40 MLOAD DUP1 SWAP2 SUB SWAP1 RETURN JUMPDEST PUSH2 0x2D3 PUSH1 0x4 DUP1 CALLDATASIZE SUB DUP2 ADD SWAP1 PUSH2 0x2CE SWAP2 SWAP1 PUSH2 0x1F25 JUMP JUMPDEST PUSH2 0x808 JUMP JUMPDEST STOP JUMPDEST PUSH2 0x2EF PUSH1 0x4 DUP1 CALLDATASIZE SUB DUP2 ADD SWAP1 PUSH2 0x2EA SWAP2 SWAP1 PUSH2 0x1E6A JUMP JUMPDEST PUSH2 0x843 JUMP JUMPDEST PUSH1 0x40 MLOAD PUSH2 0x2FC SWAP2 SWAP1 PUSH2 0x1EB7 JUMP JUMPDEST PUSH1 0x40 MLOAD DUP1 SWAP2 SUB SWAP1 RETURN JUMPDEST PUSH2 0x31F PUSH1 0x4 DUP1 CALLDATASIZE SUB DUP2 ADD SWAP1 PUSH2 0x31A SWAP2 SWAP1 PUSH2 0x1E6A JUMP JUMPDEST PUSH2 0x962 JUMP JUMPDEST PUSH1 0x40 MLOAD PUSH2 0x32C SWAP2 SWAP1 PUSH2 0x1EB7 JUMP JUMPDEST PUSH1 0x40 MLOAD DUP1 SWAP2 SUB SWAP1 RETURN JUMPDEST PUSH2 0x34F PUSH1 0x4 DUP1 CALLDATASIZE SUB DUP2 ADD SWAP1 PUSH2 0x34A SWAP2 SWAP1 PUSH2 0x1F25 JUMP JUMPDEST PUSH2 0xA02 JUMP JUMPDEST STOP JUMPDEST PUSH2 0x36B PUSH1 0x4 DUP1 CALLDATASIZE SUB DUP2 ADD SWAP1 PUSH2 0x366 SWAP2 SWAP1 PUSH2 0x1DBD JUMP JUMPDEST PUSH2 0xA3D JUMP JUMPDEST PUSH1 0x40 MLOAD PUSH2 0x378 SWAP2 SWAP1 PUSH2 0x1EB7 JUMP JUMPDEST PUSH1 0x40 MLOAD DUP1 SWAP2 SUB SWAP1 RETURN JUMPDEST PUSH2 0x39B PUSH1 0x4 DUP1 CALLDATASIZE SUB DUP2 ADD SWAP1 PUSH2 0x396 SWAP2 SWAP1 PUSH2 0x1DBD JUMP JUMPDEST PUSH2 0xA60 JUMP JUMPDEST PUSH1 0x40 MLOAD PUSH2 0x3A8 SWAP2 SWAP1 PUSH2 0x1E27 JUMP JUMPDEST PUSH1 0x40 MLOAD DUP1 SWAP2 SUB SWAP1 RETURN JUMPDEST PUSH2 0x3CB PUSH1 0x4 DUP1 CALLDATASIZE SUB DUP2 ADD SWAP1 PUSH2 0x3C6 SWAP2 SWAP1 PUSH2 0x1F75 JUMP JUMPDEST PUSH2 0xAA2 JUMP JUMPDEST PUSH1 0x40 MLOAD PUSH2 0x3D8 SWAP2 SWAP1 PUSH2 0x1EB7 JUMP JUMPDEST PUSH1 0x40 MLOAD DUP1 SWAP2 SUB SWAP1 RETURN JUMPDEST PUSH2 0x3E9 PUSH2 0xABD JUMP JUMPDEST STOP JUMPDEST PUSH2 0x405 PUSH1 0x4 DUP1 CALLDATASIZE SUB DUP2 ADD SWAP1 PUSH2 0x400 SWAP2 SWAP1 PUSH2 0x1DBD JUMP JUMPDEST PUSH2 0xAD0 JUMP JUMPDEST PUSH1 0x40 MLOAD PUSH2 0x412 SWAP2 SWAP1 PUSH2 0x1EB7 JUMP JUMPDEST PUSH1 0x40 MLOAD DUP1 SWAP2 SUB SWAP1 RETURN JUMPDEST PUSH2 0x435 PUSH1 0x4 DUP1 CALLDATASIZE SUB DUP2 ADD SWAP1 PUSH2 0x430 SWAP2 SWAP1 PUSH2 0x1FA0 JUMP JUMPDEST PUSH2 0xAF3 JUMP JUMPDEST STOP JUMPDEST PUSH2 0x43F PUSH2 0xB4D JUMP JUMPDEST PUSH1 0x40 MLOAD PUSH2 0x44C SWAP2 SWAP1 PUSH2 0x1E27 JUMP JUMPDEST PUSH1 0x40 MLOAD DUP1 SWAP2 SUB SWAP1 RETURN JUMPDEST PUSH2 0x45D PUSH2 0xB74 JUMP JUMPDEST PUSH1 0x40 MLOAD PUSH2 0x46A SWAP2 SWAP1 PUSH2 0x1D6A JUMP JUMPDEST PUSH1 0x40 MLOAD DUP1 SWAP2 SUB SWAP1 RETURN JUMPDEST PUSH2 0x48D PUSH1 0x4 DUP1 CALLDATASIZE SUB DUP2 ADD SWAP1 PUSH2 0x488 SWAP2 SWAP1 PUSH2 0x1E6A JUMP JUMPDEST PUSH2 0xBB1 JUMP JUMPDEST STOP JUMPDEST PUSH2 0x4A9 PUSH1 0x4 DUP1 CALLDATASIZE SUB DUP2 ADD SWAP1 PUSH2 0x4A4 SWAP2 SWAP1 PUSH2 0x1FDE JUMP JUMPDEST PUSH2 0xC14 JUMP JUMPDEST STOP JUMPDEST PUSH2 0x4C5 PUSH1 0x4 DUP1 CALLDATASIZE SUB DUP2 ADD SWAP1 PUSH2 0x4C0 SWAP2 SWAP1 PUSH2 0x207D JUMP JUMPDEST PUSH2 0xC4F JUMP JUMPDEST STOP JUMPDEST PUSH2 0x4E1 PUSH1 0x4 DUP1 CALLDATASIZE SUB DUP2 ADD SWAP1 PUSH2 0x4DC SWAP2 SWAP1 PUSH2 0x1E6A JUMP JUMPDEST PUSH2 0xC8A JUMP JUMPDEST PUSH1 0x40 MLOAD PUSH2 0x4EE SWAP2 SWAP1 PUSH2 0x1EB7 JUMP JUMPDEST PUSH1 0x40 MLOAD DUP1 SWAP2 SUB SWAP1 RETURN JUMPDEST PUSH2 0x511 PUSH1 0x4 DUP1 CALLDATASIZE SUB DUP2 ADD SWAP1 PUSH2 0x50C SWAP2 SWAP1 PUSH2 0x1DBD JUMP JUMPDEST PUSH2 0xCF2 JUMP JUMPDEST PUSH1 0x40 MLOAD PUSH2 0x51E SWAP2 SWAP1 PUSH2 0x1D6A JUMP JUMPDEST PUSH1 0x40 MLOAD DUP1 SWAP2 SUB SWAP1 RETURN JUMPDEST PUSH2 0x541 PUSH1 0x4 DUP1 CALLDATASIZE SUB DUP2 ADD SWAP1 PUSH2 0x53C SWAP2 SWAP1 PUSH2 0x1F75 JUMP JUMPDEST PUSH2 0xD6C JUMP JUMPDEST PUSH1 0x40 MLOAD PUSH2 0x54E SWAP2 SWAP1 PUSH2 0x1CC7 JUMP JUMPDEST PUSH1 0x40 MLOAD DUP1 SWAP2 SUB SWAP1 RETURN JUMPDEST PUSH2 0x571 PUSH1 0x4 DUP1 CALLDATASIZE SUB DUP2 ADD SWAP1 PUSH2 0x56C SWAP2 SWAP1 PUSH2 0x2229 JUMP JUMPDEST PUSH2 0xD7D JUMP JUMPDEST PUSH1 0x40 MLOAD PUSH2 0x57E SWAP2 SWAP1 PUSH2 0x1D6A JUMP JUMPDEST PUSH1 0x40 MLOAD DUP1 SWAP2 SUB SWAP1 RETURN JUMPDEST PUSH2 0x58F PUSH2 0xE75 JUMP JUMPDEST PUSH1 0x40 MLOAD PUSH2 0x59C SWAP2 SWAP1 PUSH2 0x1EB7 JUMP JUMPDEST PUSH1 0x40 MLOAD DUP1 SWAP2 SUB SWAP1 RETURN JUMPDEST PUSH2 0x5BF PUSH1 0x4 DUP1 CALLDATASIZE SUB DUP2 ADD SWAP1 PUSH2 0x5BA SWAP2 SWAP1 PUSH2 0x2270 JUMP JUMPDEST PUSH2 0xE7E JUMP JUMPDEST PUSH1 0x40 MLOAD PUSH2 0x5CC SWAP2 SWAP1 PUSH2 0x1CC7 JUMP JUMPDEST PUSH1 0x40 MLOAD DUP1 SWAP2 SUB SWAP1 RETURN JUMPDEST PUSH2 0x5EF PUSH1 0x4 DUP1 CALLDATASIZE SUB DUP2 ADD SWAP1 PUSH2 0x5EA SWAP2 SWAP1 PUSH2 0x1F75 JUMP JUMPDEST PUSH2 0xEBA JUMP JUMPDEST STOP JUMPDEST PUSH2 0x60B PUSH1 0x4 DUP1 CALLDATASIZE SUB DUP2 ADD SWAP1 PUSH2 0x606 SWAP2 SWAP1 PUSH2 0x1E6A JUMP JUMPDEST PUSH2 0xF3C JUMP JUMPDEST PUSH1 0x40 MLOAD PUSH2 0x618 SWAP2 SWAP1 PUSH2 0x1CC7 JUMP JUMPDEST PUSH1 0x40 MLOAD DUP1 SWAP2 SUB SWAP1 RETURN JUMPDEST PUSH0 PUSH32 0x80AC58CD00000000000000000000000000000000000000000000000000000000 PUSH28 0xFFFFFFFFFFFFFFFFFFFFFFFFFFFFFFFFFFFFFFFFFFFFFFFFFFFFFFFF NOT AND DUP3 PUSH28 0xFFFFFFFFFFFFFFFFFFFFFFFFFFFFFFFFFFFFFFFFFFFFFFFFFFFFFFFF NOT AND EQ DUP1 PUSH2 0x693 JUMPI POP PUSH2 0x692 DUP3 PUSH2 0xF4F JUMP JUMPDEST JUMPDEST SWAP1 POP SWAP2 SWAP1 POP JUMP JUMPDEST PUSH1 0x60 PUSH1 0x40 MLOAD DUP1 PUSH1 0x40 ADD PUSH1 0x40 MSTORE DUP1 PUSH1 0x6 DUP2 MSTORE PUSH1 0x20 ADD PUSH32 0x484F4E5342540000000000000000000000000000000000000000000000000000 DUP2 MSTORE POP SWAP1 POP SWAP1 JUMP JUMPDEST PUSH0 PUSH1 0x40 MLOAD PUSH32 0x9FC6E75800000000000000000000000000000000000000000000000000000000 DUP2 MSTORE PUSH1 0x4 ADD PUSH2 0x70A SWAP1 PUSH2 0x22F8 JUMP JUMPDEST PUSH1 0x40 MLOAD DUP1 SWAP2 SUB SWAP1 REVERT JUMPDEST PUSH1 0x40 MLOAD PUSH32 0x9FC6E75800000000000000000000000000000000000000000000000000000000 DUP2 MSTORE PUSH1 0x4 ADD PUSH2 0x745 SWAP1 PUSH2 0x2360 JUMP JUMPDEST PUSH1 0x40 MLOAD DUP1 SWAP2 SUB SWAP1 REVERT JUMPDEST PUSH0 PUSH1 0x3 SLOAD SWAP1 POP SWAP1 JUMP JUMPDEST PUSH0 DUP1 PUSH2 0x762 CALLER PUSH2 0xFB8 JUMP JUMPDEST GT PUSH2 0x7A4 JUMPI CALLER PUSH1 0x40 MLOAD PUSH32 0xFACEFFEF00000000000000000000000000000000000000000000000000000000 DUP2 MSTORE PUSH1 0x4 ADD PUSH2 0x79B SWAP2 SWAP1 PUSH2 0x1E27 JUMP JUMPDEST PUSH1 0x40 MLOAD DUP1 SWAP2 SUB SWAP1 REVERT JUMPDEST DUP2 PUSH1 0x8 PUSH0 CALLER PUSH20 0xFFFFFFFFFFFFFFFFFFFFFFFFFFFFFFFFFFFFFFFF AND PUSH20 0xFFFFFFFFFFFFFFFFFFFFFFFFFFFFFFFFFFFFFFFF AND DUP2 MSTORE PUSH1 0x20 ADD SWAP1 DUP2 MSTORE PUSH1 0x20 ADD PUSH0 KECCAK256 PUSH0 PUSH2 0x100 EXP DUP2 SLOAD DUP2 PUSH1 0xFF MUL NOT AND SWAP1 DUP4 ISZERO ISZERO MUL OR SWAP1 SSTORE POP PUSH2 0x801 CALLER PUSH2 0xFFE JUMP JUMPDEST SWAP1 POP SWAP2 SWAP1 POP JUMP JUMPDEST PUSH1 0x40 MLOAD PUSH32 0x9FC6E75800000000000000000000000000000000000000000000000000000000 DUP2 MSTORE PUSH1 0x4 ADD PUSH2 0x83A SWAP1 PUSH2 0x23C8 JUMP JUMPDEST PUSH1 0x40 MLOAD DUP1 SWAP2 SUB SWAP1 REVERT JUMPDEST PUSH0 PUSH2 0x84D DUP4 PUSH2 0x100F JUMP JUMPDEST POP PUSH2 0x857 DUP4 PUSH2 0xFB8 JUMP JUMPDEST DUP3 LT PUSH2 0x898 JUMPI PUSH1 0x40 MLOAD PUSH32 0x8C379A000000000000000000000000000000000000000000000000000000000 DUP2 MSTORE PUSH1 0x4 ADD PUSH2 0x88F SWAP1 PUSH2 0x2430 JUMP JUMPDEST PUSH1 0x40 MLOAD DUP1 SWAP2 SUB SWAP1 REVERT JUMPDEST PUSH0 PUSH20 0xFFFFFFFFFFFFFFFFFFFFFFFFFFFFFFFFFFFFFFFF AND DUP4 PUSH20 0xFFFFFFFFFFFFFFFFFFFFFFFFFFFFFFFFFFFFFFFF AND SUB PUSH2 0x908 JUMPI PUSH0 PUSH1 0x40 MLOAD PUSH32 0x74F5E87D00000000000000000000000000000000000000000000000000000000 DUP2 MSTORE PUSH1 0x4 ADD PUSH2 0x8FF SWAP2 SWAP1 PUSH2 0x1E27 JUMP JUMPDEST PUSH1 0x40 MLOAD DUP1 SWAP2 SUB SWAP1 REVERT JUMPDEST PUSH0 PUSH1 0x9 PUSH0 DUP6 PUSH20 0xFFFFFFFFFFFFFFFFFFFFFFFFFFFFFFFFFFFFFFFF AND PUSH20 0xFFFFFFFFFFFFFFFFFFFFFFFFFFFFFFFFFFFFFFFF AND DUP2 MSTORE PUSH1 0x20 ADD SWAP1 DUP2 MSTORE PUSH1 0x20 ADD PUSH0 KECCAK256 PUSH0 DUP5 DUP2 MSTORE PUSH1 0x20 ADD SWAP1 DUP2 MSTORE PUSH1 0x20 ADD PUSH0 KECCAK256 SLOAD SWAP1 POP DUP1 SWAP2 POP POP SWAP3 SWAP2 POP POP JUMP JUMPDEST PUSH0 PUSH2 0x96B PUSH2 0x10AA JUMP JUMPDEST PUSH0 PUSH2 0x976 DUP5 DUP5 PUSH2 0x1128 JUMP JUMPDEST SWAP1 POP PUSH2 0x9B9 PUSH0 DUP6 DUP4 PUSH1 0x40 MLOAD DUP1 PUSH1 0x40 ADD PUSH1 0x40 MSTORE DUP1 PUSH1 0x4 DUP2 MSTORE PUSH1 0x20 ADD PUSH32 0x4D696E7400000000000000000000000000000000000000000000000000000000 DUP2 MSTORE POP PUSH2 0x144C JUMP JUMPDEST PUSH2 0x9F8 JUMPI PUSH1 0x40 MLOAD PUSH32 0x8C379A000000000000000000000000000000000000000000000000000000000 DUP2 MSTORE PUSH1 0x4 ADD PUSH2 0x9EF SWAP1 PUSH2 0x24BE JUMP JUMPDEST PUSH1 0x40 MLOAD DUP1 SWAP2 SUB SWAP1 REVERT JUMPDEST DUP1 SWAP2 POP POP SWAP3 SWAP2 POP POP JUMP JUMPDEST PUSH1 0x40 MLOAD PUSH32 0x9FC6E75800000000000000000000000000000000000000000000000000000000 DUP2 MSTORE PUSH1 0x4 ADD PUSH2 0xA34 SWAP1 PUSH2 0x2526 JUMP JUMPDEST PUSH1 0x40 MLOAD DUP1 SWAP2 SUB SWAP1 REVERT JUMPDEST PUSH0 PUSH2 0xA47 DUP3 PUSH2 0x1539 JUMP JUMPDEST PUSH1 0x6 PUSH0 DUP4 DUP2 MSTORE PUSH1 0x20 ADD SWAP1 DUP2 MSTORE PUSH1 0x20 ADD PUSH0 KECCAK256 SLOAD SWAP1 POP SWAP2 SWAP1 POP JUMP JUMPDEST PUSH0 PUSH2 0xA6A DUP3 PUSH2 0x1539 JUMP JUMPDEST PUSH1 0x4 PUSH0 DUP4 DUP2 MSTORE PUSH1 0x20 ADD SWAP1 DUP2 MSTORE PUSH1 0x20 ADD PUSH0 KECCAK256 PUSH0 SWAP1 SLOAD SWAP1 PUSH2 0x100 EXP SWAP1 DIV PUSH20 0xFFFFFFFFFFFFFFFFFFFFFFFFFFFFFFFFFFFFFFFF AND SWAP1 POP SWAP2 SWAP1 POP JUMP JUMPDEST PUSH0 PUSH2 0xAAC DUP3 PUSH2 0x100F JUMP JUMPDEST POP PUSH2 0xAB6 DUP3 PUSH2 0xFB8 JUMP JUMPDEST SWAP1 POP SWAP2 SWAP1 POP JUMP JUMPDEST PUSH2 0xAC5 PUSH2 0x10AA JUMP JUMPDEST PUSH2 0xACE PUSH0 PUSH2 0x15C0 JUMP JUMPDEST JUMP JUMPDEST PUSH0 PUSH2 0xADA DUP3 PUSH2 0x1539 JUMP JUMPDEST PUSH1 0x5 PUSH0 DUP4 DUP2 MSTORE PUSH1 0x20 ADD SWAP1 DUP2 MSTORE PUSH1 0x20 ADD PUSH0 KECCAK256 SLOAD SWAP1 POP SWAP2 SWAP1 POP JUMP JUMPDEST PUSH0 PUSH2 0xAFD CALLER PUSH2 0xFB8 JUMP JUMPDEST GT PUSH2 0xB3F JUMPI CALLER PUSH1 0x40 MLOAD PUSH32 0xFACEFFEF00000000000000000000000000000000000000000000000000000000 DUP2 MSTORE PUSH1 0x4 ADD PUSH2 0xB36 SWAP2 SWAP1 PUSH2 0x1E27 JUMP JUMPDEST PUSH1 0x40 MLOAD DUP1 SWAP2 SUB SWAP1 REVERT JUMPDEST PUSH2 0xB49 DUP3 DUP3 PUSH2 0x1681 JUMP JUMPDEST POP POP JUMP JUMPDEST PUSH0 DUP1 PUSH0 SWAP1 SLOAD SWAP1 PUSH2 0x100 EXP SWAP1 DIV PUSH20 0xFFFFFFFFFFFFFFFFFFFFFFFFFFFFFFFFFFFFFFFF AND SWAP1 POP SWAP1 JUMP JUMPDEST PUSH1 0x60 PUSH1 0x40 MLOAD DUP1 PUSH1 0x40 ADD PUSH1 0x40 MSTORE DUP1 PUSH1 0x6 DUP2 MSTORE PUSH1 0x20 ADD PUSH32 0x484F4E5342540000000000000000000000000000000000000000000000000000 DUP2 MSTORE POP SWAP1 POP SWAP1 JUMP JUMPDEST PUSH2 0xBB9 PUSH2 0x10AA JUMP JUMPDEST PUSH2 0xBC3 DUP3 DUP3 PUSH2 0x16E8 JUMP JUMPDEST PUSH2 0xC06 JUMPI DUP2 DUP2 PUSH1 0x40 MLOAD PUSH32 0x9960858D00000000000000000000000000000000000000000000000000000000 DUP2 MSTORE PUSH1 0x4 ADD PUSH2 0xBFD SWAP3 SWAP2 SWAP1 PUSH2 0x2544 JUMP JUMPDEST PUSH1 0x40 MLOAD DUP1 SWAP2 SUB SWAP1 REVERT JUMPDEST PUSH2 0xC10 DUP3 DUP3 PUSH2 0x174A JUMP JUMPDEST POP POP JUMP JUMPDEST PUSH1 0x40 MLOAD PUSH32 0x9FC6E75800000000000000000000000000000000000000000000000000000000 DUP2 MSTORE PUSH1 0x4 ADD PUSH2 0xC46 SWAP1 PUSH2 0x25B5 JUMP JUMPDEST PUSH1 0x40 MLOAD DUP1 SWAP2 SUB SWAP1 REVERT JUMPDEST PUSH1 0x40 MLOAD PUSH32 0x9FC6E75800000000000000000000000000000000000000000000000000000000 DUP2 MSTORE PUSH1 0x4 ADD PUSH2 0xC81 SWAP1 PUSH2 0x2526 JUMP JUMPDEST PUSH1 0x40 MLOAD DUP1 SWAP2 SUB SWAP1 REVERT JUMPDEST PUSH0 PUSH2 0xC93 PUSH2 0x10AA JUMP JUMPDEST PUSH2 0xC9D DUP4 DUP4 PUSH2 0x16E8 JUMP JUMPDEST PUSH2 0xCE0 JUMPI DUP3 DUP3 PUSH1 0x40 MLOAD PUSH32 0x9960858D00000000000000000000000000000000000000000000000000000000 DUP2 MSTORE PUSH1 0x4 ADD PUSH2 0xCD7 SWAP3 SWAP2 SWAP1 PUSH2 0x2544 JUMP JUMPDEST PUSH1 0x40 MLOAD DUP1 SWAP2 SUB SWAP1 REVERT JUMPDEST PUSH2 0xCEA DUP4 DUP4 PUSH2 0x17B2 JUMP JUMPDEST SWAP1 POP SWAP3 SWAP2 POP POP JUMP JUMPDEST PUSH1 0x60 PUSH2 0xCFD DUP3 PUSH2 0x1539 JUMP JUMPDEST PUSH0 PUSH1 0x1 DUP1 SLOAD PUSH2 0xD0B SWAP1 PUSH2 0x2600 JUMP JUMPDEST SWAP1 POP GT PUSH2 0xD26 JUMPI PUSH1 0x40 MLOAD DUP1 PUSH1 0x20 ADD PUSH1 0x40 MSTORE DUP1 PUSH0 DUP2 MSTORE POP PUSH2 0xD65 JUMP JUMPDEST PUSH1 0x1 PUSH2 0xD31 DUP4 PUSH2 0x1853 JUMP JUMPDEST PUSH1 0x5 PUSH0 DUP6 DUP2 MSTORE PUSH1 0x20 ADD SWAP1 DUP2 MSTORE PUSH1 0x20 ADD PUSH0 KECCAK256 SLOAD PUSH1 0x40 MLOAD PUSH1 0x20 ADD PUSH2 0xD55 SWAP4 SWAP3 SWAP2 SWAP1 PUSH2 0x2766 JUMP JUMPDEST PUSH1 0x40 MLOAD PUSH1 0x20 DUP2 DUP4 SUB SUB DUP2 MSTORE SWAP1 PUSH1 0x40 MSTORE JUMPDEST SWAP1 POP SWAP2 SWAP1 POP JUMP JUMPDEST PUSH0 PUSH2 0xD76 DUP3 PUSH2 0x100F JUMP JUMPDEST SWAP1 POP SWAP2 SWAP1 POP JUMP JUMPDEST PUSH1 0x60 PUSH2 0xD87 PUSH2 0x10AA JUMP JUMPDEST DUP2 PUSH1 0x1 SWAP1 DUP2 PUSH2 0xD96 SWAP2 SWAP1 PUSH2 0x2930 JUMP JUMPDEST POP CALLER PUSH20 0xFFFFFFFFFFFFFFFFFFFFFFFFFFFFFFFFFFFFFFFF AND PUSH32 0x70E6A9DC20D331CE8E747D7DE8444F26F544D9003BEB11D8C46E802AB8D36FC9 DUP4 PUSH1 0x40 MLOAD PUSH2 0xDDD SWAP2 SWAP1 PUSH2 0x1D6A JUMP JUMPDEST PUSH1 0x40 MLOAD DUP1 SWAP2 SUB SWAP1 LOG2 PUSH1 0x1 DUP1 SLOAD PUSH2 0xDF2 SWAP1 PUSH2 0x2600 JUMP JUMPDEST DUP1 PUSH1 0x1F ADD PUSH1 0x20 DUP1 SWAP2 DIV MUL PUSH1 0x20 ADD PUSH1 0x40 MLOAD SWAP1 DUP2 ADD PUSH1 0x40 MSTORE DUP1 SWAP3 SWAP2 SWAP1 DUP2 DUP2 MSTORE PUSH1 0x20 ADD DUP3 DUP1 SLOAD PUSH2 0xE1E SWAP1 PUSH2 0x2600 JUMP JUMPDEST DUP1 ISZERO PUSH2 0xE69 JUMPI DUP1 PUSH1 0x1F LT PUSH2 0xE40 JUMPI PUSH2 0x100 DUP1 DUP4 SLOAD DIV MUL DUP4 MSTORE SWAP2 PUSH1 0x20 ADD SWAP2 PUSH2 0xE69 JUMP JUMPDEST DUP3 ADD SWAP2 SWAP1 PUSH0 MSTORE PUSH1 0x20 PUSH0 KECCAK256 SWAP1 JUMPDEST DUP2 SLOAD DUP2 MSTORE SWAP1 PUSH1 0x1 ADD SWAP1 PUSH1 0x20 ADD DUP1 DUP4 GT PUSH2 0xE4C JUMPI DUP3 SWAP1 SUB PUSH1 0x1F AND DUP3 ADD SWAP2 JUMPDEST POP POP POP POP POP SWAP1 POP SWAP2 SWAP1 POP JUMP JUMPDEST PUSH0 PUSH1 0x2 SLOAD SWAP1 POP SWAP1 JUMP JUMPDEST PUSH0 PUSH1 0x40 MLOAD PUSH32 0x9FC6E75800000000000000000000000000000000000000000000000000000000 DUP2 MSTORE PUSH1 0x4 ADD PUSH2 0xEB1 SWAP1 PUSH2 0x2A49 JUMP JUMPDEST PUSH1 0x40 MLOAD DUP1 SWAP2 SUB SWAP1 REVERT JUMPDEST PUSH2 0xEC2 PUSH2 0x10AA JUMP JUMPDEST PUSH0 PUSH20 0xFFFFFFFFFFFFFFFFFFFFFFFFFFFFFFFFFFFFFFFF AND DUP2 PUSH20 0xFFFFFFFFFFFFFFFFFFFFFFFFFFFFFFFFFFFFFFFF AND SUB PUSH2 0xF30 JUMPI PUSH1 0x40 MLOAD PUSH32 0x8C379A000000000000000000000000000000000000000000000000000000000 DUP2 MSTORE PUSH1 0x4 ADD PUSH2 0xF27 SWAP1 PUSH2 0x2AD7 JUMP JUMPDEST PUSH1 0x40 MLOAD DUP1 SWAP2 SUB SWAP1 REVERT JUMPDEST PUSH2 0xF39 DUP2 PUSH2 0x15C0 JUMP JUMPDEST POP JUMP JUMPDEST PUSH0 PUSH2 0xF47 DUP4 DUP4 PUSH2 0x16E8 JUMP JUMPDEST SWAP1 POP SWAP3 SWAP2 POP POP JUMP JUMPDEST PUSH0 PUSH32 0x1FFC9A700000000000000000000000000000000000000000000000000000000 PUSH28 0xFFFFFFFFFFFFFFFFFFFFFFFFFFFFFFFFFFFFFFFFFFFFFFFFFFFFFFFF NOT AND DUP3 PUSH28 0xFFFFFFFFFFFFFFFFFFFFFFFFFFFFFFFFFFFFFFFFFFFFFFFFFFFFFFFF NOT AND EQ SWAP1 POP SWAP2 SWAP1 POP JUMP JUMPDEST PUSH0 PUSH1 0x7 PUSH0 DUP4 PUSH20 0xFFFFFFFFFFFFFFFFFFFFFFFFFFFFFFFFFFFFFFFF AND PUSH20 0xFFFFFFFFFFFFFFFFFFFFFFFFFFFFFFFFFFFFFFFF AND DUP2 MSTORE PUSH1 0x20 ADD SWAP1 DUP2 MSTORE PUSH1 0x20 ADD PUSH0 KECCAK256 SLOAD SWAP1 POP SWAP2 SWAP1 POP JUMP JUMPDEST PUSH0 PUSH2 0x1008 DUP3 PUSH2 0x191D JUMP JUMPDEST SWAP1 POP SWAP2 SWAP1 POP JUMP JUMPDEST PUSH0 PUSH1 0x1 ISZERO ISZERO PUSH1 0x8 PUSH0 DUP5 PUSH20 0xFFFFFFFFFFFFFFFFFFFFFFFFFFFFFFFFFFFFFFFF AND PUSH20 0xFFFFFFFFFFFFFFFFFFFFFFFFFFFFFFFFFFFFFFFF AND DUP2 MSTORE PUSH1 0x20 ADD SWAP1 DUP2 MSTORE PUSH1 0x20 ADD PUSH0 KECCAK256 PUSH0 SWAP1 SLOAD SWAP1 PUSH2 0x100 EXP SWAP1 DIV PUSH1 0xFF AND ISZERO ISZERO SUB PUSH2 0x10A2 JUMPI DUP2 PUSH1 0x40 MLOAD PUSH32 0x904E928B00000000000000000000000000000000000000000000000000000000 DUP2 MSTORE PUSH1 0x4 ADD PUSH2 0x1099 SWAP2 SWAP1 PUSH2 0x1E27 JUMP JUMPDEST PUSH1 0x40 MLOAD DUP1 SWAP2 SUB SWAP1 REVERT JUMPDEST PUSH0 SWAP1 POP SWAP2 SWAP1 POP JUMP JUMPDEST PUSH2 0x10B2 PUSH2 0x196F JUMP JUMPDEST PUSH20 0xFFFFFFFFFFFFFFFFFFFFFFFFFFFFFFFFFFFFFFFF AND PUSH2 0x10D0 PUSH2 0xB4D JUMP JUMPDEST PUSH20 0xFFFFFFFFFFFFFFFFFFFFFFFFFFFFFFFFFFFFFFFF AND EQ PUSH2 0x1126 JUMPI PUSH1 0x40 MLOAD PUSH32 0x8C379A000000000000000000000000000000000000000000000000000000000 DUP2 MSTORE PUSH1 0x4 ADD PUSH2 0x111D SWAP1 PUSH2 0x2B3F JUMP JUMPDEST PUSH1 0x40 MLOAD DUP1 SWAP2 SUB SWAP1 REVERT JUMPDEST JUMP JUMPDEST PUSH0 DUP1 PUSH1 0x1 PUSH1 0x3 SLOAD PUSH2 0x1139 SWAP2 SWAP1 PUSH2 0x2B8A JUMP JUMPDEST SWAP1 POP PUSH0 PUSH20 0xFFFFFFFFFFFFFFFFFFFFFFFFFFFFFFFFFFFFFFFF AND DUP5 PUSH20 0xFFFFFFFFFFFFFFFFFFFFFFFFFFFFFFFFFFFFFFFF AND SUB PUSH2 0x11AB JUMPI PUSH0 PUSH1 0x40 MLOAD PUSH32 0x74F5E87D00000000000000000000000000000000000000000000000000000000 DUP2 MSTORE PUSH1 0x4 ADD PUSH2 0x11A2 SWAP2 SWAP1 PUSH2 0x1E27 JUMP JUMPDEST PUSH1 0x40 MLOAD DUP1 SWAP2 SUB SWAP1 REVERT JUMPDEST PUSH2 0x11B4 DUP2 PUSH2 0x1976 JUMP JUMPDEST ISZERO PUSH2 0x11F6 JUMPI DUP1 PUSH1 0x40 MLOAD PUSH32 0xF342BDC200000000000000000000000000000000000000000000000000000000 DUP2 MSTORE PUSH1 0x4 ADD PUSH2 0x11ED SWAP2 SWAP1 PUSH2 0x1EB7 JUMP JUMPDEST PUSH1 0x40 MLOAD DUP1 SWAP2 SUB SWAP1 REVERT JUMPDEST PUSH2 0x11FF DUP5 PUSH2 0x19B6 JUMP JUMPDEST PUSH2 0x121D JUMPI PUSH1 0x1 PUSH1 0x2 PUSH0 DUP3 DUP3 SLOAD PUSH2 0x1215 SWAP2 SWAP1 PUSH2 0x2B8A JUMP JUMPDEST SWAP3 POP POP DUP2 SWAP1 SSTORE POP JUMPDEST PUSH1 0x1 PUSH1 0x7 PUSH0 DUP7 PUSH20 0xFFFFFFFFFFFFFFFFFFFFFFFFFFFFFFFFFFFFFFFF AND PUSH20 0xFFFFFFFFFFFFFFFFFFFFFFFFFFFFFFFFFFFFFFFF AND DUP2 MSTORE PUSH1 0x20 ADD SWAP1 DUP2 MSTORE PUSH1 0x20 ADD PUSH0 KECCAK256 PUSH0 DUP3 DUP3 SLOAD ADD SWAP3 POP POP DUP2 SWAP1 SSTORE POP PUSH1 0x1 PUSH1 0x3 PUSH0 DUP3 DUP3 SLOAD ADD SWAP3 POP POP DUP2 SWAP1 SSTORE POP DUP4 PUSH1 0x4 PUSH0 DUP4 DUP2 MSTORE PUSH1 0x20 ADD SWAP1 DUP2 MSTORE PUSH1 0x20 ADD PUSH0 KECCAK256 PUSH0 PUSH2 0x100 EXP DUP2 SLOAD DUP2 PUSH20 0xFFFFFFFFFFFFFFFFFFFFFFFFFFFFFFFFFFFFFFFF MUL NOT AND SWAP1 DUP4 PUSH20 0xFFFFFFFFFFFFFFFFFFFFFFFFFFFFFFFFFFFFFFFF AND MUL OR SWAP1 SSTORE POP DUP3 PUSH1 0x5 PUSH0 DUP4 DUP2 MSTORE PUSH1 0x20 ADD SWAP1 DUP2 MSTORE PUSH1 0x20 ADD PUSH0 KECCAK256 DUP2 SWAP1 SSTORE POP PUSH1 0x1 PUSH1 0x6 PUSH0 DUP4 DUP2 MSTORE PUSH1 0x20 ADD SWAP1 DUP2 MSTORE PUSH1 0x20 ADD PUSH0 KECCAK256 DUP2 SWAP1 SSTORE POP PUSH1 0x1 PUSH1 0xA PUSH0 DUP7 PUSH20 0xFFFFFFFFFFFFFFFFFFFFFFFFFFFFFFFFFFFFFFFF AND PUSH20 0xFFFFFFFFFFFFFFFFFFFFFFFFFFFFFFFFFFFFFFFF AND DUP2 MSTORE PUSH1 0x20 ADD SWAP1 DUP2 MSTORE PUSH1 0x20 ADD PUSH0 KECCAK256 PUSH0 DUP4 DUP2 MSTORE PUSH1 0x20 ADD SWAP1 DUP2 MSTORE PUSH1 0x20 ADD PUSH0 KECCAK256 PUSH0 PUSH2 0x100 EXP DUP2 SLOAD DUP2 PUSH1 0xFF MUL NOT AND SWAP1 DUP4 ISZERO ISZERO MUL OR SWAP1 SSTORE POP DUP1 PUSH1 0x9 PUSH0 DUP7 PUSH20 0xFFFFFFFFFFFFFFFFFFFFFFFFFFFFFFFFFFFFFFFF AND PUSH20 0xFFFFFFFFFFFFFFFFFFFFFFFFFFFFFFFFFFFFFFFF AND DUP2 MSTORE PUSH1 0x20 ADD SWAP1 DUP2 MSTORE PUSH1 0x20 ADD PUSH0 KECCAK256 PUSH0 PUSH1 0x1 PUSH1 0x7 PUSH0 DUP10 PUSH20 0xFFFFFFFFFFFFFFFFFFFFFFFFFFFFFFFFFFFFFFFF AND PUSH20 0xFFFFFFFFFFFFFFFFFFFFFFFFFFFFFFFFFFFFFFFF AND DUP2 MSTORE PUSH1 0x20 ADD SWAP1 DUP2 MSTORE PUSH1 0x20 ADD PUSH0 KECCAK256 SLOAD PUSH2 0x13E1 SWAP2 SWAP1 PUSH2 0x2BBD JUMP JUMPDEST DUP2 MSTORE PUSH1 0x20 ADD SWAP1 DUP2 MSTORE PUSH1 0x20 ADD PUSH0 KECCAK256 DUP2 SWAP1 SSTORE POP DUP3 DUP2 DUP6 PUSH20 0xFFFFFFFFFFFFFFFFFFFFFFFFFFFFFFFFFFFFFFFF AND PUSH32 0x2F00E3CDD69A77BE7ED215EC7B2A36784DD158F921FCA79AC29DEFFA353FE6EE PUSH0 PUSH1 0x40 MLOAD PUSH2 0x143A SWAP2 SWAP1 PUSH2 0x1E27 JUMP JUMPDEST PUSH1 0x40 MLOAD DUP1 SWAP2 SUB SWAP1 LOG4 DUP1 SWAP2 POP POP SWAP3 SWAP2 POP POP JUMP JUMPDEST PUSH0 PUSH2 0x1456 DUP5 PUSH2 0x19FF JUMP JUMPDEST PUSH2 0x1463 JUMPI PUSH1 0x1 SWAP1 POP PUSH2 0x1531 JUMP JUMPDEST PUSH0 DUP5 PUSH20 0xFFFFFFFFFFFFFFFFFFFFFFFFFFFFFFFFFFFFFFFF AND PUSH4 0x150B7A02 CALLER DUP9 DUP8 DUP8 PUSH1 0x40 MLOAD DUP6 PUSH4 0xFFFFFFFF AND PUSH1 0xE0 SHL DUP2 MSTORE PUSH1 0x4 ADD PUSH2 0x14A3 SWAP5 SWAP4 SWAP3 SWAP2 SWAP1 PUSH2 0x2C42 JUMP JUMPDEST PUSH1 0x20 PUSH1 0x40 MLOAD DUP1 DUP4 SUB DUP2 PUSH0 DUP8 GAS CALL ISZERO DUP1 ISZERO PUSH2 0x14BF JUMPI RETURNDATASIZE PUSH0 DUP1 RETURNDATACOPY RETURNDATASIZE PUSH0 REVERT JUMPDEST POP POP POP POP PUSH1 0x40 MLOAD RETURNDATASIZE PUSH1 0x1F NOT PUSH1 0x1F DUP3 ADD AND DUP3 ADD DUP1 PUSH1 0x40 MSTORE POP DUP2 ADD SWAP1 PUSH2 0x14E3 SWAP2 SWAP1 PUSH2 0x2CA0 JUMP JUMPDEST SWAP1 POP PUSH4 0x150B7A02 PUSH1 0xE0 SHL PUSH28 0xFFFFFFFFFFFFFFFFFFFFFFFFFFFFFFFFFFFFFFFFFFFFFFFFFFFFFFFF NOT AND DUP2 PUSH28 0xFFFFFFFFFFFFFFFFFFFFFFFFFFFFFFFFFFFFFFFFFFFFFFFFFFFFFFFF NOT AND EQ SWAP2 POP POP JUMPDEST SWAP5 SWAP4 POP POP POP POP JUMP JUMPDEST PUSH2 0x1542 DUP2 PUSH2 0x1976 JUMP JUMPDEST PUSH2 0x1583 JUMPI DUP1 PUSH1 0x40 MLOAD PUSH32 0x24476A3F00000000000000000000000000000000000000000000000000000000 DUP2 MSTORE PUSH1 0x4 ADD PUSH2 0x157A SWAP2 SWAP1 PUSH2 0x1EB7 JUMP JUMPDEST PUSH1 0x40 MLOAD DUP1 SWAP2 SUB SWAP1 REVERT JUMPDEST PUSH2 0x15BC PUSH1 0x4 PUSH0 DUP4 DUP2 MSTORE PUSH1 0x20 ADD SWAP1 DUP2 MSTORE PUSH1 0x20 ADD PUSH0 KECCAK256 PUSH0 SWAP1 SLOAD SWAP1 PUSH2 0x100 EXP SWAP1 DIV PUSH20 0xFFFFFFFFFFFFFFFFFFFFFFFFFFFFFFFFFFFFFFFF AND PUSH2 0x100F JUMP JUMPDEST POP POP JUMP JUMPDEST PUSH0 DUP1 PUSH0 SWAP1 SLOAD SWAP1 PUSH2 0x100 EXP SWAP1 DIV PUSH20 0xFFFFFFFFFFFFFFFFFFFFFFFFFFFFFFFFFFFFFFFF AND SWAP1 POP DUP2 PUSH0 DUP1 PUSH2 0x100 EXP DUP2 SLOAD DUP2 PUSH20 0xFFFFFFFFFFFFFFFFFFFFFFFFFFFFFFFFFFFFFFFF MUL NOT AND SWAP1 DUP4 PUSH20 0xFFFFFFFFFFFFFFFFFFFFFFFFFFFFFFFFFFFFFFFF AND MUL OR SWAP1 SSTORE POP DUP2 PUSH20 0xFFFFFFFFFFFFFFFFFFFFFFFFFFFFFFFFFFFFFFFF AND DUP2 PUSH20 0xFFFFFFFFFFFFFFFFFFFFFFFFFFFFFFFFFFFFFFFF AND PUSH32 0x8BE0079C531659141344CD1FD0A4F28419497F9722A3DAAFE3B4186F6B6457E0 PUSH1 0x40 MLOAD PUSH1 0x40 MLOAD DUP1 SWAP2 SUB SWAP1 LOG3 POP POP JUMP JUMPDEST DUP1 PUSH1 0xA PUSH0 CALLER PUSH20 0xFFFFFFFFFFFFFFFFFFFFFFFFFFFFFFFFFFFFFFFF AND PUSH20 0xFFFFFFFFFFFFFFFFFFFFFFFFFFFFFFFFFFFFFFFF AND DUP2 MSTORE PUSH1 0x20 ADD SWAP1 DUP2 MSTORE PUSH1 0x20 ADD PUSH0 KECCAK256 PUSH0 DUP5 DUP2 MSTORE PUSH1 0x20 ADD SWAP1 DUP2 MSTORE PUSH1 0x20 ADD PUSH0 KECCAK256 PUSH0 PUSH2 0x100 EXP DUP2 SLOAD DUP2 PUSH1 0xFF MUL NOT AND SWAP1 DUP4 ISZERO ISZERO MUL OR SWAP1 SSTORE POP POP POP JUMP JUMPDEST PUSH0 PUSH1 0xA PUSH0 DUP5 PUSH20 0xFFFFFFFFFFFFFFFFFFFFFFFFFFFFFFFFFFFFFFFF AND PUSH20 0xFFFFFFFFFFFFFFFFFFFFFFFFFFFFFFFFFFFFFFFF AND DUP2 MSTORE PUSH1 0x20 ADD SWAP1 DUP2 MSTORE PUSH1 0x20 ADD PUSH0 KECCAK256 PUSH0 DUP4 DUP2 MSTORE PUSH1 0x20 ADD SWAP1 DUP2 MSTORE PUSH1 0x20 ADD PUSH0 KECCAK256 PUSH0 SWAP1 SLOAD SWAP1 PUSH2 0x100 EXP SWAP1 DIV PUSH1 0xFF AND SWAP1 POP SWAP3 SWAP2 POP POP JUMP JUMPDEST PUSH2 0x1754 DUP3 DUP3 PUSH2 0x1A16 JUMP JUMPDEST PUSH0 PUSH1 0x6 PUSH0 DUP4 DUP2 MSTORE PUSH1 0x20 ADD SWAP1 DUP2 MSTORE PUSH1 0x20 ADD PUSH0 KECCAK256 DUP2 SWAP1 SSTORE POP DUP1 DUP3 PUSH20 0xFFFFFFFFFFFFFFFFFFFFFFFFFFFFFFFFFFFFFFFF AND PUSH32 0x154FA90F2D3692DF165AFACDCD7755B2E9D98A892A80CC1DDA63F3A9CC1E64A4 PUSH1 0x40 MLOAD PUSH1 0x40 MLOAD DUP1 SWAP2 SUB SWAP1 LOG3 POP POP JUMP JUMPDEST PUSH0 PUSH2 0x17BD DUP4 DUP4 PUSH2 0x1A16 JUMP JUMPDEST PUSH1 0x1 PUSH1 0x6 PUSH0 DUP5 DUP2 MSTORE PUSH1 0x20 ADD SWAP1 DUP2 MSTORE PUSH1 0x20 ADD PUSH0 KECCAK256 PUSH0 DUP3 DUP3 SLOAD PUSH2 0x17DE SWAP2 SWAP1 PUSH2 0x2B8A JUMP JUMPDEST SWAP3 POP POP DUP2 SWAP1 SSTORE POP PUSH0 PUSH1 0x6 PUSH0 DUP5 DUP2 MSTORE PUSH1 0x20 ADD SWAP1 DUP2 MSTORE PUSH1 0x20 ADD PUSH0 KECCAK256 SLOAD SWAP1 POP DUP1 DUP5 PUSH20 0xFFFFFFFFFFFFFFFFFFFFFFFFFFFFFFFFFFFFFFFF AND PUSH32 0x48FFD7FDB1C1A0561A2D410317F6BB839AAB64898DE6FC73EE703A9C0DC0A36C DUP6 PUSH1 0x40 MLOAD PUSH2 0x1841 SWAP2 SWAP1 PUSH2 0x1EB7 JUMP JUMPDEST PUSH1 0x40 MLOAD DUP1 SWAP2 SUB SWAP1 LOG3 DUP1 SWAP2 POP POP SWAP3 SWAP2 POP POP JUMP JUMPDEST PUSH1 0x60 PUSH0 PUSH1 0x1 PUSH2 0x1861 DUP5 PUSH2 0x1A92 JUMP JUMPDEST ADD SWAP1 POP PUSH0 DUP2 PUSH8 0xFFFFFFFFFFFFFFFF DUP2 GT ISZERO PUSH2 0x187F JUMPI PUSH2 0x187E PUSH2 0x2105 JUMP JUMPDEST JUMPDEST PUSH1 0x40 MLOAD SWAP1 DUP1 DUP3 MSTORE DUP1 PUSH1 0x1F ADD PUSH1 0x1F NOT AND PUSH1 0x20 ADD DUP3 ADD PUSH1 0x40 MSTORE DUP1 ISZERO PUSH2 0x18B1 JUMPI DUP2 PUSH1 0x20 ADD PUSH1 0x1 DUP3 MUL DUP1 CALLDATASIZE DUP4 CALLDATACOPY DUP1 DUP3 ADD SWAP2 POP POP SWAP1 POP JUMPDEST POP SWAP1 POP PUSH0 DUP3 PUSH1 0x20 ADD DUP3 ADD SWAP1 POP JUMPDEST PUSH1 0x1 ISZERO PUSH2 0x1912 JUMPI DUP1 DUP1 PUSH1 0x1 SWAP1 SUB SWAP2 POP POP PUSH32 0x3031323334353637383961626364656600000000000000000000000000000000 PUSH1 0xA DUP7 MOD BYTE DUP2 MSTORE8 PUSH1 0xA DUP6 DUP2 PUSH2 0x1907 JUMPI PUSH2 0x1906 PUSH2 0x2CCB JUMP JUMPDEST JUMPDEST DIV SWAP5 POP PUSH0 DUP6 SUB PUSH2 0x18BE JUMPI JUMPDEST DUP2 SWAP4 POP POP POP POP SWAP2 SWAP1 POP JUMP JUMPDEST PUSH0 PUSH1 0x8 PUSH0 DUP4 PUSH20 0xFFFFFFFFFFFFFFFFFFFFFFFFFFFFFFFFFFFFFFFF AND PUSH20 0xFFFFFFFFFFFFFFFFFFFFFFFFFFFFFFFFFFFFFFFF AND DUP2 MSTORE PUSH1 0x20 ADD SWAP1 DUP2 MSTORE PUSH1 0x20 ADD PUSH0 KECCAK256 PUSH0 SWAP1 SLOAD SWAP1 PUSH2 0x100 EXP SWAP1 DIV PUSH1 0xFF AND SWAP1 POP SWAP2 SWAP1 POP JUMP JUMPDEST PUSH0 CALLER SWAP1 POP SWAP1 JUMP JUMPDEST PUSH0 DUP1 PUSH20 0xFFFFFFFFFFFFFFFFFFFFFFFFFFFFFFFFFFFFFFFF AND PUSH2 0x1997 DUP4 PUSH2 0x1BE3 JUMP JUMPDEST PUSH20 0xFFFFFFFFFFFFFFFFFFFFFFFFFFFFFFFFFFFFFFFF AND EQ ISZERO SWAP1 POP SWAP2 SWAP1 POP JUMP JUMPDEST PUSH0 DUP1 PUSH1 0x7 PUSH0 DUP5 PUSH20 0xFFFFFFFFFFFFFFFFFFFFFFFFFFFFFFFFFFFFFFFF AND PUSH20 0xFFFFFFFFFFFFFFFFFFFFFFFFFFFFFFFFFFFFFFFF AND DUP2 MSTORE PUSH1 0x20 ADD SWAP1 DUP2 MSTORE PUSH1 0x20 ADD PUSH0 KECCAK256 SLOAD EQ ISZERO SWAP1 POP SWAP2 SWAP1 POP JUMP JUMPDEST PUSH0 DUP1 DUP3 EXTCODESIZE SWAP1 POP PUSH0 DUP2 PUSH4 0xFFFFFFFF AND GT SWAP2 POP POP SWAP2 SWAP1 POP JUMP JUMPDEST DUP2 PUSH20 0xFFFFFFFFFFFFFFFFFFFFFFFFFFFFFFFFFFFFFFFF AND PUSH2 0x1A36 DUP3 PUSH2 0x1BE3 JUMP JUMPDEST PUSH20 0xFFFFFFFFFFFFFFFFFFFFFFFFFFFFFFFFFFFFFFFF AND EQ PUSH2 0x1A8E JUMPI DUP2 PUSH1 0x40 MLOAD PUSH32 0x5015929900000000000000000000000000000000000000000000000000000000 DUP2 MSTORE PUSH1 0x4 ADD PUSH2 0x1A85 SWAP2 SWAP1 PUSH2 0x1E27 JUMP JUMPDEST PUSH1 0x40 MLOAD DUP1 SWAP2 SUB SWAP1 REVERT JUMPDEST POP POP JUMP JUMPDEST PUSH0 DUP1 PUSH0 SWAP1 POP PUSH27 0x184F03E93FF9F4DAA797ED6E38ED64BF6A1F010000000000000000 DUP4 LT PUSH2 0x1AEE JUMPI PUSH27 0x184F03E93FF9F4DAA797ED6E38ED64BF6A1F010000000000000000 DUP4 DUP2 PUSH2 0x1AE4 JUMPI PUSH2 0x1AE3 PUSH2 0x2CCB JUMP JUMPDEST JUMPDEST DIV SWAP3 POP PUSH1 0x40 DUP2 ADD SWAP1 POP JUMPDEST PUSH14 0x4EE2D6D415B85ACEF8100000000 DUP4 LT PUSH2 0x1B2B JUMPI PUSH14 0x4EE2D6D415B85ACEF8100000000 DUP4 DUP2 PUSH2 0x1B21 JUMPI PUSH2 0x1B20 PUSH2 0x2CCB JUMP JUMPDEST JUMPDEST DIV SWAP3 POP PUSH1 0x20 DUP2 ADD SWAP1 POP JUMPDEST PUSH7 0x2386F26FC10000 DUP4 LT PUSH2 0x1B5A JUMPI PUSH7 0x2386F26FC10000 DUP4 DUP2 PUSH2 0x1B50 JUMPI PUSH2 0x1B4F PUSH2 0x2CCB JUMP JUMPDEST JUMPDEST DIV SWAP3 POP PUSH1 0x10 DUP2 ADD SWAP1 POP JUMPDEST PUSH4 0x5F5E100 DUP4 LT PUSH2 0x1B83 JUMPI PUSH4 0x5F5E100 DUP4 DUP2 PUSH2 0x1B79 JUMPI PUSH2 0x1B78 PUSH2 0x2CCB JUMP JUMPDEST JUMPDEST DIV SWAP3 POP PUSH1 0x8 DUP2 ADD SWAP1 POP JUMPDEST PUSH2 0x2710 DUP4 LT PUSH2 0x1BA8 JUMPI PUSH2 0x2710 DUP4 DUP2 PUSH2 0x1B9E JUMPI PUSH2 0x1B9D PUSH2 0x2CCB JUMP JUMPDEST JUMPDEST DIV SWAP3 POP PUSH1 0x4 DUP2 ADD SWAP1 POP JUMPDEST PUSH1 0x64 DUP4 LT PUSH2 0x1BCB JUMPI PUSH1 0x64 DUP4 DUP2 PUSH2 0x1BC1 JUMPI PUSH2 0x1BC0 PUSH2 0x2CCB JUMP JUMPDEST JUMPDEST DIV SWAP3 POP PUSH1 0x2 DUP2 ADD SWAP1 POP JUMPDEST PUSH1 0xA DUP4 LT PUSH2 0x1BDA JUMPI PUSH1 0x1 DUP2 ADD SWAP1 POP JUMPDEST DUP1 SWAP2 POP POP SWAP2 SWAP1 POP JUMP JUMPDEST PUSH0 PUSH1 0x4 PUSH0 DUP4 DUP2 MSTORE PUSH1 0x20 ADD SWAP1 DUP2 MSTORE PUSH1 0x20 ADD PUSH0 KECCAK256 PUSH0 SWAP1 SLOAD SWAP1 PUSH2 0x100 EXP SWAP1 DIV PUSH20 0xFFFFFFFFFFFFFFFFFFFFFFFFFFFFFFFFFFFFFFFF AND SWAP1 POP SWAP2 SWAP1 POP JUMP JUMPDEST PUSH0 PUSH1 0x40 MLOAD SWAP1 POP SWAP1 JUMP JUMPDEST PUSH0 DUP1 REVERT JUMPDEST PUSH0 DUP1 REVERT JUMPDEST PUSH0 PUSH32 0xFFFFFFFF00000000000000000000000000000000000000000000000000000000 DUP3 AND SWAP1 POP SWAP2 SWAP1 POP JUMP JUMPDEST PUSH2 0x1C61 DUP2 PUSH2 0x1C2D JUMP JUMPDEST DUP2 EQ PUSH2 0x1C6B JUMPI PUSH0 DUP1 REVERT JUMPDEST POP JUMP JUMPDEST PUSH0 DUP2 CALLDATALOAD SWAP1 POP PUSH2 0x1C7C DUP2 PUSH2 0x1C58 JUMP JUMPDEST SWAP3 SWAP2 POP POP JUMP JUMPDEST PUSH0 PUSH1 0x20 DUP3 DUP5 SUB SLT ISZERO PUSH2 0x1C97 JUMPI PUSH2 0x1C96 PUSH2 0x1C25 JUMP JUMPDEST JUMPDEST PUSH0 PUSH2 0x1CA4 DUP5 DUP3 DUP6 ADD PUSH2 0x1C6E JUMP JUMPDEST SWAP2 POP POP SWAP3 SWAP2 POP POP JUMP JUMPDEST PUSH0 DUP2 ISZERO ISZERO SWAP1 POP SWAP2 SWAP1 POP JUMP JUMPDEST PUSH2 0x1CC1 DUP2 PUSH2 0x1CAD JUMP JUMPDEST DUP3 MSTORE POP POP JUMP JUMPDEST PUSH0 PUSH1 0x20 DUP3 ADD SWAP1 POP PUSH2 0x1CDA PUSH0 DUP4 ADD DUP5 PUSH2 0x1CB8 JUMP JUMPDEST SWAP3 SWAP2 POP POP JUMP JUMPDEST PUSH0 DUP2 MLOAD SWAP1 POP SWAP2 SWAP1 POP JUMP JUMPDEST PUSH0 DUP3 DUP3 MSTORE PUSH1 0x20 DUP3 ADD SWAP1 POP SWAP3 SWAP2 POP POP JUMP JUMPDEST PUSH0 JUMPDEST DUP4 DUP2 LT ISZERO PUSH2 0x1D17 JUMPI DUP1 DUP3 ADD MLOAD DUP2 DUP5 ADD MSTORE PUSH1 0x20 DUP2 ADD SWAP1 POP PUSH2 0x1CFC JUMP JUMPDEST PUSH0 DUP5 DUP5 ADD MSTORE POP POP POP POP JUMP JUMPDEST PUSH0 PUSH1 0x1F NOT PUSH1 0x1F DUP4 ADD AND SWAP1 POP SWAP2 SWAP1 POP JUMP JUMPDEST PUSH0 PUSH2 0x1D3C DUP3 PUSH2 0x1CE0 JUMP JUMPDEST PUSH2 0x1D46 DUP2 DUP6 PUSH2 0x1CEA JUMP JUMPDEST SWAP4 POP PUSH2 0x1D56 DUP2 DUP6 PUSH1 0x20 DUP7 ADD PUSH2 0x1CFA JUMP JUMPDEST PUSH2 0x1D5F DUP2 PUSH2 0x1D22 JUMP JUMPDEST DUP5 ADD SWAP2 POP POP SWAP3 SWAP2 POP POP JUMP JUMPDEST PUSH0 PUSH1 0x20 DUP3 ADD SWAP1 POP DUP2 DUP2 SUB PUSH0 DUP4 ADD MSTORE PUSH2 0x1D82 DUP2 DUP5 PUSH2 0x1D32 JUMP JUMPDEST SWAP1 POP SWAP3 SWAP2 POP POP JUMP JUMPDEST PUSH0 DUP2 SWAP1 POP SWAP2 SWAP1 POP JUMP JUMPDEST PUSH2 0x1D9C DUP2 PUSH2 0x1D8A JUMP JUMPDEST DUP2 EQ PUSH2 0x1DA6 JUMPI PUSH0 DUP1 REVERT JUMPDEST POP JUMP JUMPDEST PUSH0 DUP2 CALLDATALOAD SWAP1 POP PUSH2 0x1DB7 DUP2 PUSH2 0x1D93 JUMP JUMPDEST SWAP3 SWAP2 POP POP JUMP JUMPDEST PUSH0 PUSH1 0x20 DUP3 DUP5 SUB SLT ISZERO PUSH2 0x1DD2 JUMPI PUSH2 0x1DD1 PUSH2 0x1C25 JUMP JUMPDEST JUMPDEST PUSH0 PUSH2 0x1DDF DUP5 DUP3 DUP6 ADD PUSH2 0x1DA9 JUMP JUMPDEST SWAP2 POP POP SWAP3 SWAP2 POP POP JUMP JUMPDEST PUSH0 PUSH20 0xFFFFFFFFFFFFFFFFFFFFFFFFFFFFFFFFFFFFFFFF DUP3 AND SWAP1 POP SWAP2 SWAP1 POP JUMP JUMPDEST PUSH0 PUSH2 0x1E11 DUP3 PUSH2 0x1DE8 JUMP JUMPDEST SWAP1 POP SWAP2 SWAP1 POP JUMP JUMPDEST PUSH2 0x1E21 DUP2 PUSH2 0x1E07 JUMP JUMPDEST DUP3 MSTORE POP POP JUMP JUMPDEST PUSH0 PUSH1 0x20 DUP3 ADD SWAP1 POP PUSH2 0x1E3A PUSH0 DUP4 ADD DUP5 PUSH2 0x1E18 JUMP JUMPDEST SWAP3 SWAP2 POP POP JUMP JUMPDEST PUSH2 0x1E49 DUP2 PUSH2 0x1E07 JUMP JUMPDEST DUP2 EQ PUSH2 0x1E53 JUMPI PUSH0 DUP1 REVERT JUMPDEST POP JUMP JUMPDEST PUSH0 DUP2 CALLDATALOAD SWAP1 POP PUSH2 0x1E64 DUP2 PUSH2 0x1E40 JUMP JUMPDEST SWAP3 SWAP2 POP POP JUMP JUMPDEST PUSH0 DUP1 PUSH1 0x40 DUP4 DUP6 SUB SLT ISZERO PUSH2 0x1E80 JUMPI PUSH2 0x1E7F PUSH2 0x1C25 JUMP JUMPDEST JUMPDEST PUSH0 PUSH2 0x1E8D DUP6 DUP3 DUP7 ADD PUSH2 0x1E56 JUMP JUMPDEST SWAP3 POP POP PUSH1 0x20 PUSH2 0x1E9E DUP6 DUP3 DUP7 ADD PUSH2 0x1DA9 JUMP JUMPDEST SWAP2 POP POP SWAP3 POP SWAP3 SWAP1 POP JUMP JUMPDEST PUSH2 0x1EB1 DUP2 PUSH2 0x1D8A JUMP JUMPDEST DUP3 MSTORE POP POP JUMP JUMPDEST PUSH0 PUSH1 0x20 DUP3 ADD SWAP1 POP PUSH2 0x1ECA PUSH0 DUP4 ADD DUP5 PUSH2 0x1EA8 JUMP JUMPDEST SWAP3 SWAP2 POP POP JUMP JUMPDEST PUSH2 0x1ED9 DUP2 PUSH2 0x1CAD JUMP JUMPDEST DUP2 EQ PUSH2 0x1EE3 JUMPI PUSH0 DUP1 REVERT JUMPDEST POP JUMP JUMPDEST PUSH0 DUP2 CALLDATALOAD SWAP1 POP PUSH2 0x1EF4 DUP2 PUSH2 0x1ED0 JUMP JUMPDEST SWAP3 SWAP2 POP POP JUMP JUMPDEST PUSH0 PUSH1 0x20 DUP3 DUP5 SUB SLT ISZERO PUSH2 0x1F0F JUMPI PUSH2 0x1F0E PUSH2 0x1C25 JUMP JUMPDEST JUMPDEST PUSH0 PUSH2 0x1F1C DUP5 DUP3 DUP6 ADD PUSH2 0x1EE6 JUMP JUMPDEST SWAP2 POP POP SWAP3 SWAP2 POP POP JUMP JUMPDEST PUSH0 DUP1 PUSH0 PUSH1 0x60 DUP5 DUP7 SUB SLT ISZERO PUSH2 0x1F3C JUMPI PUSH2 0x1F3B PUSH2 0x1C25 JUMP JUMPDEST JUMPDEST PUSH0 PUSH2 0x1F49 DUP7 DUP3 DUP8 ADD PUSH2 0x1E56 JUMP JUMPDEST SWAP4 POP POP PUSH1 0x20 PUSH2 0x1F5A DUP7 DUP3 DUP8 ADD PUSH2 0x1E56 JUMP JUMPDEST SWAP3 POP POP PUSH1 0x40 PUSH2 0x1F6B DUP7 DUP3 DUP8 ADD PUSH2 0x1DA9 JUMP JUMPDEST SWAP2 POP POP SWAP3 POP SWAP3 POP SWAP3 JUMP JUMPDEST PUSH0 PUSH1 0x20 DUP3 DUP5 SUB SLT ISZERO PUSH2 0x1F8A JUMPI PUSH2 0x1F89 PUSH2 0x1C25 JUMP JUMPDEST JUMPDEST PUSH0 PUSH2 0x1F97 DUP5 DUP3 DUP6 ADD PUSH2 0x1E56 JUMP JUMPDEST SWAP2 POP POP SWAP3 SWAP2 POP POP JUMP JUMPDEST PUSH0 DUP1 PUSH1 0x40 DUP4 DUP6 SUB SLT ISZERO PUSH2 0x1FB6 JUMPI PUSH2 0x1FB5 PUSH2 0x1C25 JUMP JUMPDEST JUMPDEST PUSH0 PUSH2 0x1FC3 DUP6 DUP3 DUP7 ADD PUSH2 0x1DA9 JUMP JUMPDEST SWAP3 POP POP PUSH1 0x20 PUSH2 0x1FD4 DUP6 DUP3 DUP7 ADD PUSH2 0x1EE6 JUMP JUMPDEST SWAP2 POP POP SWAP3 POP SWAP3 SWAP1 POP JUMP JUMPDEST PUSH0 DUP1 PUSH1 0x40 DUP4 DUP6 SUB SLT ISZERO PUSH2 0x1FF4 JUMPI PUSH2 0x1FF3 PUSH2 0x1C25 JUMP JUMPDEST JUMPDEST PUSH0 PUSH2 0x2001 DUP6 DUP3 DUP7 ADD PUSH2 0x1E56 JUMP JUMPDEST SWAP3 POP POP PUSH1 0x20 PUSH2 0x2012 DUP6 DUP3 DUP7 ADD PUSH2 0x1EE6 JUMP JUMPDEST SWAP2 POP POP SWAP3 POP SWAP3 SWAP1 POP JUMP JUMPDEST PUSH0 DUP1 REVERT JUMPDEST PUSH0 DUP1 REVERT JUMPDEST PUSH0 DUP1 REVERT JUMPDEST PUSH0 DUP1 DUP4 PUSH1 0x1F DUP5 ADD SLT PUSH2 0x203D JUMPI PUSH2 0x203C PUSH2 0x201C JUMP JUMPDEST JUMPDEST DUP3 CALLDATALOAD SWAP1 POP PUSH8 0xFFFFFFFFFFFFFFFF DUP2 GT ISZERO PUSH2 0x205A JUMPI PUSH2 0x2059 PUSH2 0x2020 JUMP JUMPDEST JUMPDEST PUSH1 0x20 DUP4 ADD SWAP2 POP DUP4 PUSH1 0x1 DUP3 MUL DUP4 ADD GT ISZERO PUSH2 0x2076 JUMPI PUSH2 0x2075 PUSH2 0x2024 JUMP JUMPDEST JUMPDEST SWAP3 POP SWAP3 SWAP1 POP JUMP JUMPDEST PUSH0 DUP1 PUSH0 DUP1 PUSH0 PUSH1 0x80 DUP7 DUP9 SUB SLT ISZERO PUSH2 0x2096 JUMPI PUSH2 0x2095 PUSH2 0x1C25 JUMP JUMPDEST JUMPDEST PUSH0 PUSH2 0x20A3 DUP9 DUP3 DUP10 ADD PUSH2 0x1E56 JUMP JUMPDEST SWAP6 POP POP PUSH1 0x20 PUSH2 0x20B4 DUP9 DUP3 DUP10 ADD PUSH2 0x1E56 JUMP JUMPDEST SWAP5 POP POP PUSH1 0x40 PUSH2 0x20C5 DUP9 DUP3 DUP10 ADD PUSH2 0x1DA9 JUMP JUMPDEST SWAP4 POP POP PUSH1 0x60 DUP7 ADD CALLDATALOAD PUSH8 0xFFFFFFFFFFFFFFFF DUP2 GT ISZERO PUSH2 0x20E6 JUMPI PUSH2 0x20E5 PUSH2 0x1C29 JUMP JUMPDEST JUMPDEST PUSH2 0x20F2 DUP9 DUP3 DUP10 ADD PUSH2 0x2028 JUMP JUMPDEST SWAP3 POP SWAP3 POP POP SWAP3 SWAP6 POP SWAP3 SWAP6 SWAP1 SWAP4 POP JUMP JUMPDEST PUSH0 DUP1 REVERT JUMPDEST PUSH32 0x4E487B7100000000000000000000000000000000000000000000000000000000 PUSH0 MSTORE PUSH1 0x41 PUSH1 0x4 MSTORE PUSH1 0x24 PUSH0 REVERT JUMPDEST PUSH2 0x213B DUP3 PUSH2 0x1D22 JUMP JUMPDEST DUP2 ADD DUP2 DUP2 LT PUSH8 0xFFFFFFFFFFFFFFFF DUP3 GT OR ISZERO PUSH2 0x215A JUMPI PUSH2 0x2159 PUSH2 0x2105 JUMP JUMPDEST JUMPDEST DUP1 PUSH1 0x40 MSTORE POP POP POP JUMP JUMPDEST PUSH0 PUSH2 0x216C PUSH2 0x1C1C JUMP JUMPDEST SWAP1 POP PUSH2 0x2178 DUP3 DUP3 PUSH2 0x2132 JUMP JUMPDEST SWAP2 SWAP1 POP JUMP JUMPDEST PUSH0 PUSH8 0xFFFFFFFFFFFFFFFF DUP3 GT ISZERO PUSH2 0x2197 JUMPI PUSH2 0x2196 PUSH2 0x2105 JUMP JUMPDEST JUMPDEST PUSH2 0x21A0 DUP3 PUSH2 0x1D22 JUMP JUMPDEST SWAP1 POP PUSH1 0x20 DUP2 ADD SWAP1 POP SWAP2 SWAP1 POP JUMP JUMPDEST DUP3 DUP2 DUP4 CALLDATACOPY PUSH0 DUP4 DUP4 ADD MSTORE POP POP POP JUMP JUMPDEST PUSH0 PUSH2 0x21CD PUSH2 0x21C8 DUP5 PUSH2 0x217D JUMP JUMPDEST PUSH2 0x2163 JUMP JUMPDEST SWAP1 POP DUP3 DUP2 MSTORE PUSH1 0x20 DUP2 ADD DUP5 DUP5 DUP5 ADD GT ISZERO PUSH2 0x21E9 JUMPI PUSH2 0x21E8 PUSH2 0x2101 JUMP JUMPDEST JUMPDEST PUSH2 0x21F4 DUP5 DUP3 DUP6 PUSH2 0x21AD JUMP JUMPDEST POP SWAP4 SWAP3 POP POP POP JUMP JUMPDEST PUSH0 DUP3 PUSH1 0x1F DUP4 ADD SLT PUSH2 0x2210 JUMPI PUSH2 0x220F PUSH2 0x201C JUMP JUMPDEST JUMPDEST DUP2 CALLDATALOAD PUSH2 0x2220 DUP5 DUP3 PUSH1 0x20 DUP7 ADD PUSH2 0x21BB JUMP JUMPDEST SWAP2 POP POP SWAP3 SWAP2 POP POP JUMP JUMPDEST PUSH0 PUSH1 0x20 DUP3 DUP5 SUB SLT ISZERO PUSH2 0x223E JUMPI PUSH2 0x223D PUSH2 0x1C25 JUMP JUMPDEST JUMPDEST PUSH0 DUP3 ADD CALLDATALOAD PUSH8 0xFFFFFFFFFFFFFFFF DUP2 GT ISZERO PUSH2 0x225B JUMPI PUSH2 0x225A PUSH2 0x1C29 JUMP JUMPDEST JUMPDEST PUSH2 0x2267 DUP5 DUP3 DUP6 ADD PUSH2 0x21FC JUMP JUMPDEST SWAP2 POP POP SWAP3 SWAP2 POP POP JUMP JUMPDEST PUSH0 DUP1 PUSH1 0x40 DUP4 DUP6 SUB SLT ISZERO PUSH2 0x2286 JUMPI PUSH2 0x2285 PUSH2 0x1C25 JUMP JUMPDEST JUMPDEST PUSH0 PUSH2 0x2293 DUP6 DUP3 DUP7 ADD PUSH2 0x1E56 JUMP JUMPDEST SWAP3 POP POP PUSH1 0x20 PUSH2 0x22A4 DUP6 DUP3 DUP7 ADD PUSH2 0x1E56 JUMP JUMPDEST SWAP2 POP POP SWAP3 POP SWAP3 SWAP1 POP JUMP JUMPDEST PUSH32 0x676574417070726F766564000000000000000000000000000000000000000000 PUSH0 DUP3 ADD MSTORE POP JUMP JUMPDEST PUSH0 PUSH2 0x22E2 PUSH1 0xB DUP4 PUSH2 0x1CEA JUMP JUMPDEST SWAP2 POP PUSH2 0x22ED DUP3 PUSH2 0x22AE JUMP JUMPDEST PUSH1 0x20 DUP3 ADD SWAP1 POP SWAP2 SWAP1 POP JUMP JUMPDEST PUSH0 PUSH1 0x20 DUP3 ADD SWAP1 POP DUP2 DUP2 SUB PUSH0 DUP4 ADD MSTORE PUSH2 0x230F DUP2 PUSH2 0x22D6 JUMP JUMPDEST SWAP1 POP SWAP2 SWAP1 POP JUMP JUMPDEST PUSH32 0x617070726F766500000000000000000000000000000000000000000000000000 PUSH0 DUP3 ADD MSTORE POP JUMP JUMPDEST PUSH0 PUSH2 0x234A PUSH1 0x7 DUP4 PUSH2 0x1CEA JUMP JUMPDEST SWAP2 POP PUSH2 0x2355 DUP3 PUSH2 0x2316 JUMP JUMPDEST PUSH1 0x20 DUP3 ADD SWAP1 POP SWAP2 SWAP1 POP JUMP JUMPDEST PUSH0 PUSH1 0x20 DUP3 ADD SWAP1 POP DUP2 DUP2 SUB PUSH0 DUP4 ADD MSTORE PUSH2 0x2377 DUP2 PUSH2 0x233E JUMP JUMPDEST SWAP1 POP SWAP2 SWAP1 POP JUMP JUMPDEST PUSH32 0x7472616E7366657246726F6D0000000000000000000000000000000000000000 PUSH0 DUP3 ADD MSTORE POP JUMP JUMPDEST PUSH0 PUSH2 0x23B2 PUSH1 0xC DUP4 PUSH2 0x1CEA JUMP JUMPDEST SWAP2 POP PUSH2 0x23BD DUP3 PUSH2 0x237E JUMP JUMPDEST PUSH1 0x20 DUP3 ADD SWAP1 POP SWAP2 SWAP1 POP JUMP JUMPDEST PUSH0 PUSH1 0x20 DUP3 ADD SWAP1 POP DUP2 DUP2 SUB PUSH0 DUP4 ADD MSTORE PUSH2 0x23DF DUP2 PUSH2 0x23A6 JUMP JUMPDEST SWAP1 POP SWAP2 SWAP1 POP JUMP JUMPDEST PUSH32 0x4F7574206F6620496E6465780000000000000000000000000000000000000000 PUSH0 DUP3 ADD MSTORE POP JUMP JUMPDEST PUSH0 PUSH2 0x241A PUSH1 0xC DUP4 PUSH2 0x1CEA JUMP JUMPDEST SWAP2 POP PUSH2 0x2425 DUP3 PUSH2 0x23E6 JUMP JUMPDEST PUSH1 0x20 DUP3 ADD SWAP1 POP SWAP2 SWAP1 POP JUMP JUMPDEST PUSH0 PUSH1 0x20 DUP3 ADD SWAP1 POP DUP2 DUP2 SUB PUSH0 DUP4 ADD MSTORE PUSH2 0x2447 DUP2 PUSH2 0x240E JUMP JUMPDEST SWAP1 POP SWAP2 SWAP1 POP JUMP JUMPDEST PUSH32 0x4552433732313A207472616E7366657220746F206E6F6E204552433732315265 PUSH0 DUP3 ADD MSTORE PUSH32 0x63656976657220696D706C656D656E7465720000000000000000000000000000 PUSH1 0x20 DUP3 ADD MSTORE POP JUMP JUMPDEST PUSH0 PUSH2 0x24A8 PUSH1 0x32 DUP4 PUSH2 0x1CEA JUMP JUMPDEST SWAP2 POP PUSH2 0x24B3 DUP3 PUSH2 0x244E JUMP JUMPDEST PUSH1 0x40 DUP3 ADD SWAP1 POP SWAP2 SWAP1 POP JUMP JUMPDEST PUSH0 PUSH1 0x20 DUP3 ADD SWAP1 POP DUP2 DUP2 SUB PUSH0 DUP4 ADD MSTORE PUSH2 0x24D5 DUP2 PUSH2 0x249C JUMP JUMPDEST SWAP1 POP SWAP2 SWAP1 POP JUMP JUMPDEST PUSH32 0x736166655472616E7366657246726F6D00000000000000000000000000000000 PUSH0 DUP3 ADD MSTORE POP JUMP JUMPDEST PUSH0 PUSH2 0x2510 PUSH1 0x10 DUP4 PUSH2 0x1CEA JUMP JUMPDEST SWAP2 POP PUSH2 0x251B DUP3 PUSH2 0x24DC JUMP JUMPDEST PUSH1 0x20 DUP3 ADD SWAP1 POP SWAP2 SWAP1 POP JUMP JUMPDEST PUSH0 PUSH1 0x20 DUP3 ADD SWAP1 POP DUP2 DUP2 SUB PUSH0 DUP4 ADD MSTORE PUSH2 0x253D DUP2 PUSH2 0x2504 JUMP JUMPDEST SWAP1 POP SWAP2 SWAP1 POP JUMP JUMPDEST PUSH0 PUSH1 0x40 DUP3 ADD SWAP1 POP PUSH2 0x2557 PUSH0 DUP4 ADD DUP6 PUSH2 0x1E18 JUMP JUMPDEST PUSH2 0x2564 PUSH1 0x20 DUP4 ADD DUP5 PUSH2 0x1EA8 JUMP JUMPDEST SWAP4 SWAP3 POP POP POP JUMP JUMPDEST PUSH32 0x736574417070726F76616C466F72416C6C000000000000000000000000000000 PUSH0 DUP3 ADD MSTORE POP JUMP JUMPDEST PUSH0 PUSH2 0x259F PUSH1 0x11 DUP4 PUSH2 0x1CEA JUMP JUMPDEST SWAP2 POP PUSH2 0x25AA DUP3 PUSH2 0x256B JUMP JUMPDEST PUSH1 0x20 DUP3 ADD SWAP1 POP SWAP2 SWAP1 POP JUMP JUMPDEST PUSH0 PUSH1 0x20 DUP3 ADD SWAP1 POP DUP2 DUP2 SUB PUSH0 DUP4 ADD MSTORE PUSH2 0x25CC DUP2 PUSH2 0x2593 JUMP JUMPDEST SWAP1 POP SWAP2 SWAP1 POP JUMP JUMPDEST PUSH32 0x4E487B7100000000000000000000000000000000000000000000000000000000 PUSH0 MSTORE PUSH1 0x22 PUSH1 0x4 MSTORE PUSH1 0x24 PUSH0 REVERT JUMPDEST PUSH0 PUSH1 0x2 DUP3 DIV SWAP1 POP PUSH1 0x1 DUP3 AND DUP1 PUSH2 0x2617 JUMPI PUSH1 0x7F DUP3 AND SWAP2 POP JUMPDEST PUSH1 0x20 DUP3 LT DUP2 SUB PUSH2 0x262A JUMPI PUSH2 0x2629 PUSH2 0x25D3 JUMP JUMPDEST JUMPDEST POP SWAP2 SWAP1 POP JUMP JUMPDEST PUSH0 DUP2 SWAP1 POP SWAP3 SWAP2 POP POP JUMP JUMPDEST PUSH0 DUP2 SWAP1 POP DUP2 PUSH0 MSTORE PUSH1 0x20 PUSH0 KECCAK256 SWAP1 POP SWAP2 SWAP1 POP JUMP JUMPDEST PUSH0 DUP2 SLOAD PUSH2 0x2658 DUP2 PUSH2 0x2600 JUMP JUMPDEST PUSH2 0x2662 DUP2 DUP7 PUSH2 0x2630 JUMP JUMPDEST SWAP5 POP PUSH1 0x1 DUP3 AND PUSH0 DUP2 EQ PUSH2 0x267C JUMPI PUSH1 0x1 DUP2 EQ PUSH2 0x2691 JUMPI PUSH2 0x26C3 JUMP JUMPDEST PUSH1 0xFF NOT DUP4 AND DUP7 MSTORE DUP2 ISZERO ISZERO DUP3 MUL DUP7 ADD SWAP4 POP PUSH2 0x26C3 JUMP JUMPDEST PUSH2 0x269A DUP6 PUSH2 0x263A JUMP JUMPDEST PUSH0 JUMPDEST DUP4 DUP2 LT ISZERO PUSH2 0x26BB JUMPI DUP2 SLOAD DUP2 DUP10 ADD MSTORE PUSH1 0x1 DUP3 ADD SWAP2 POP PUSH1 0x20 DUP2 ADD SWAP1 POP PUSH2 0x269C JUMP JUMPDEST DUP4 DUP9 ADD SWAP6 POP POP POP JUMPDEST POP POP POP SWAP3 SWAP2 POP POP JUMP JUMPDEST PUSH0 PUSH2 0x26D6 DUP3 PUSH2 0x1CE0 JUMP JUMPDEST PUSH2 0x26E0 DUP2 DUP6 PUSH2 0x2630 JUMP JUMPDEST SWAP4 POP PUSH2 0x26F0 DUP2 DUP6 PUSH1 0x20 DUP7 ADD PUSH2 0x1CFA JUMP JUMPDEST DUP1 DUP5 ADD SWAP2 POP POP SWAP3 SWAP2 POP POP JUMP JUMPDEST PUSH32 0x3F746F6B656E547970653D000000000000000000000000000000000000000000 PUSH0 DUP3 ADD MSTORE POP JUMP JUMPDEST PUSH0 PUSH2 0x2730 PUSH1 0xB DUP4 PUSH2 0x2630 JUMP JUMPDEST SWAP2 POP PUSH2 0x273B DUP3 PUSH2 0x26FC JUMP JUMPDEST PUSH1 0xB DUP3 ADD SWAP1 POP SWAP2 SWAP1 POP JUMP JUMPDEST PUSH0 DUP2 SWAP1 POP SWAP2 SWAP1 POP JUMP JUMPDEST PUSH2 0x2760 PUSH2 0x275B DUP3 PUSH2 0x1D8A JUMP JUMPDEST PUSH2 0x2746 JUMP JUMPDEST DUP3 MSTORE POP POP JUMP JUMPDEST PUSH0 PUSH2 0x2771 DUP3 DUP7 PUSH2 0x264C JUMP JUMPDEST SWAP2 POP PUSH2 0x277D DUP3 DUP6 PUSH2 0x26CC JUMP JUMPDEST SWAP2 POP PUSH2 0x2788 DUP3 PUSH2 0x2724 JUMP JUMPDEST SWAP2 POP PUSH2 0x2794 DUP3 DUP5 PUSH2 0x274F JUMP JUMPDEST PUSH1 0x20 DUP3 ADD SWAP2 POP DUP2 SWAP1 POP SWAP5 SWAP4 POP POP POP POP JUMP JUMPDEST PUSH0 PUSH1 0x20 PUSH1 0x1F DUP4 ADD DIV SWAP1 POP SWAP2 SWAP1 POP JUMP JUMPDEST PUSH0 DUP3 DUP3 SHL SWAP1 POP SWAP3 SWAP2 POP POP JUMP JUMPDEST PUSH0 PUSH1 0x8 DUP4 MUL PUSH2 0x27EF PUSH32 0xFFFFFFFFFFFFFFFFFFFFFFFFFFFFFFFFFFFFFFFFFFFFFFFFFFFFFFFFFFFFFFFF DUP3 PUSH2 0x27B4 JUMP JUMPDEST PUSH2 0x27F9 DUP7 DUP4 PUSH2 0x27B4 JUMP JUMPDEST SWAP6 POP DUP1 NOT DUP5 AND SWAP4 POP DUP1 DUP7 AND DUP5 OR SWAP3 POP POP POP SWAP4 SWAP3 POP POP POP JUMP JUMPDEST PUSH0 DUP2 SWAP1 POP SWAP2 SWAP1 POP JUMP JUMPDEST PUSH0 PUSH2 0x2834 PUSH2 0x282F PUSH2 0x282A DUP5 PUSH2 0x1D8A JUMP JUMPDEST PUSH2 0x2811 JUMP JUMPDEST PUSH2 0x1D8A JUMP JUMPDEST SWAP1 POP SWAP2 SWAP1 POP JUMP JUMPDEST PUSH0 DUP2 SWAP1 POP SWAP2 SWAP1 POP JUMP JUMPDEST PUSH2 0x284D DUP4 PUSH2 0x281A JUMP JUMPDEST PUSH2 0x2861 PUSH2 0x2859 DUP3 PUSH2 0x283B JUMP JUMPDEST DUP5 DUP5 SLOAD PUSH2 0x27C0 JUMP JUMPDEST DUP3 SSTORE POP POP POP POP JUMP JUMPDEST PUSH0 SWAP1 JUMP JUMPDEST PUSH2 0x2875 PUSH2 0x2869 JUMP JUMPDEST PUSH2 0x2880 DUP2 DUP5 DUP5 PUSH2 0x2844 JUMP JUMPDEST POP POP POP JUMP JUMPDEST JUMPDEST DUP2 DUP2 LT ISZERO PUSH2 0x28A3 JUMPI PUSH2 0x2898 PUSH0 DUP3 PUSH2 0x286D JUMP JUMPDEST PUSH1 0x1 DUP2 ADD SWAP1 POP PUSH2 0x2886 JUMP JUMPDEST POP POP JUMP JUMPDEST PUSH1 0x1F DUP3 GT ISZERO PUSH2 0x28E8 JUMPI PUSH2 0x28B9 DUP2 PUSH2 0x263A JUMP JUMPDEST PUSH2 0x28C2 DUP5 PUSH2 0x27A5 JUMP JUMPDEST DUP2 ADD PUSH1 0x20 DUP6 LT ISZERO PUSH2 0x28D1 JUMPI DUP2 SWAP1 POP JUMPDEST PUSH2 0x28E5 PUSH2 0x28DD DUP6 PUSH2 0x27A5 JUMP JUMPDEST DUP4 ADD DUP3 PUSH2 0x2885 JUMP JUMPDEST POP POP JUMPDEST POP POP POP JUMP JUMPDEST PUSH0 DUP3 DUP3 SHR SWAP1 POP SWAP3 SWAP2 POP POP JUMP JUMPDEST PUSH0 PUSH2 0x2908 PUSH0 NOT DUP5 PUSH1 0x8 MUL PUSH2 0x28ED JUMP JUMPDEST NOT DUP1 DUP4 AND SWAP2 POP POP SWAP3 SWAP2 POP POP JUMP JUMPDEST PUSH0 PUSH2 0x2920 DUP4 DUP4 PUSH2 0x28F9 JUMP JUMPDEST SWAP2 POP DUP3 PUSH1 0x2 MUL DUP3 OR SWAP1 POP SWAP3 SWAP2 POP POP JUMP JUMPDEST PUSH2 0x2939 DUP3 PUSH2 0x1CE0 JUMP JUMPDEST PUSH8 0xFFFFFFFFFFFFFFFF DUP2 GT ISZERO PUSH2 0x2952 JUMPI PUSH2 0x2951 PUSH2 0x2105 JUMP JUMPDEST JUMPDEST PUSH2 0x295C DUP3 SLOAD PUSH2 0x2600 JUMP JUMPDEST PUSH2 0x2967 DUP3 DUP3 DUP6 PUSH2 0x28A7 JUMP JUMPDEST PUSH0 PUSH1 0x20 SWAP1 POP PUSH1 0x1F DUP4 GT PUSH1 0x1 DUP2 EQ PUSH2 0x2998 JUMPI PUSH0 DUP5 ISZERO PUSH2 0x2986 JUMPI DUP3 DUP8 ADD MLOAD SWAP1 POP JUMPDEST PUSH2 0x2990 DUP6 DUP3 PUSH2 0x2915 JUMP JUMPDEST DUP7 SSTORE POP PUSH2 0x29F7 JUMP JUMPDEST PUSH1 0x1F NOT DUP5 AND PUSH2 0x29A6 DUP7 PUSH2 0x263A JUMP JUMPDEST PUSH0 JUMPDEST DUP3 DUP2 LT ISZERO PUSH2 0x29CD JUMPI DUP5 DUP10 ADD MLOAD DUP3 SSTORE PUSH1 0x1 DUP3 ADD SWAP2 POP PUSH1 0x20 DUP6 ADD SWAP5 POP PUSH1 0x20 DUP2 ADD SWAP1 POP PUSH2 0x29A8 JUMP JUMPDEST DUP7 DUP4 LT ISZERO PUSH2 0x29EA JUMPI DUP5 DUP10 ADD MLOAD PUSH2 0x29E6 PUSH1 0x1F DUP10 AND DUP3 PUSH2 0x28F9 JUMP JUMPDEST DUP4 SSTORE POP JUMPDEST PUSH1 0x1 PUSH1 0x2 DUP9 MUL ADD DUP9 SSTORE POP POP POP JUMPDEST POP POP POP POP POP POP JUMP JUMPDEST PUSH32 0x6973417070726F766564466F72416C6C00000000000000000000000000000000 PUSH0 DUP3 ADD MSTORE POP JUMP JUMPDEST PUSH0 PUSH2 0x2A33 PUSH1 0x10 DUP4 PUSH2 0x1CEA JUMP JUMPDEST SWAP2 POP PUSH2 0x2A3E DUP3 PUSH2 0x29FF JUMP JUMPDEST PUSH1 0x20 DUP3 ADD SWAP1 POP SWAP2 SWAP1 POP JUMP JUMPDEST PUSH0 PUSH1 0x20 DUP3 ADD SWAP1 POP DUP2 DUP2 SUB PUSH0 DUP4 ADD MSTORE PUSH2 0x2A60 DUP2 PUSH2 0x2A27 JUMP JUMPDEST SWAP1 POP SWAP2 SWAP1 POP JUMP JUMPDEST PUSH32 0x4F776E61626C653A206E6577206F776E657220697320746865207A65726F2061 PUSH0 DUP3 ADD MSTORE PUSH32 0x6464726573730000000000000000000000000000000000000000000000000000 PUSH1 0x20 DUP3 ADD MSTORE POP JUMP JUMPDEST PUSH0 PUSH2 0x2AC1 PUSH1 0x26 DUP4 PUSH2 0x1CEA JUMP JUMPDEST SWAP2 POP PUSH2 0x2ACC DUP3 PUSH2 0x2A67 JUMP JUMPDEST PUSH1 0x40 DUP3 ADD SWAP1 POP SWAP2 SWAP1 POP JUMP JUMPDEST PUSH0 PUSH1 0x20 DUP3 ADD SWAP1 POP DUP2 DUP2 SUB PUSH0 DUP4 ADD MSTORE PUSH2 0x2AEE DUP2 PUSH2 0x2AB5 JUMP JUMPDEST SWAP1 POP SWAP2 SWAP1 POP JUMP JUMPDEST PUSH32 0x4F776E61626C653A2063616C6C6572206973206E6F7420746865206F776E6572 PUSH0 DUP3 ADD MSTORE POP JUMP JUMPDEST PUSH0 PUSH2 0x2B29 PUSH1 0x20 DUP4 PUSH2 0x1CEA JUMP JUMPDEST SWAP2 POP PUSH2 0x2B34 DUP3 PUSH2 0x2AF5 JUMP JUMPDEST PUSH1 0x20 DUP3 ADD SWAP1 POP SWAP2 SWAP1 POP JUMP JUMPDEST PUSH0 PUSH1 0x20 DUP3 ADD SWAP1 POP DUP2 DUP2 SUB PUSH0 DUP4 ADD MSTORE PUSH2 0x2B56 DUP2 PUSH2 0x2B1D JUMP JUMPDEST SWAP1 POP SWAP2 SWAP1 POP JUMP JUMPDEST PUSH32 0x4E487B7100000000000000000000000000000000000000000000000000000000 PUSH0 MSTORE PUSH1 0x11 PUSH1 0x4 MSTORE PUSH1 0x24 PUSH0 REVERT JUMPDEST PUSH0 PUSH2 0x2B94 DUP3 PUSH2 0x1D8A JUMP JUMPDEST SWAP2 POP PUSH2 0x2B9F DUP4 PUSH2 0x1D8A JUMP JUMPDEST SWAP3 POP DUP3 DUP3 ADD SWAP1 POP DUP1 DUP3 GT ISZERO PUSH2 0x2BB7 JUMPI PUSH2 0x2BB6 PUSH2 0x2B5D JUMP JUMPDEST JUMPDEST SWAP3 SWAP2 POP POP JUMP JUMPDEST PUSH0 PUSH2 0x2BC7 DUP3 PUSH2 0x1D8A JUMP JUMPDEST SWAP2 POP PUSH2 0x2BD2 DUP4 PUSH2 0x1D8A JUMP JUMPDEST SWAP3 POP DUP3 DUP3 SUB SWAP1 POP DUP2 DUP2 GT ISZERO PUSH2 0x2BEA JUMPI PUSH2 0x2BE9 PUSH2 0x2B5D JUMP JUMPDEST JUMPDEST SWAP3 SWAP2 POP POP JUMP JUMPDEST PUSH0 DUP2 MLOAD SWAP1 POP SWAP2 SWAP1 POP JUMP JUMPDEST PUSH0 DUP3 DUP3 MSTORE PUSH1 0x20 DUP3 ADD SWAP1 POP SWAP3 SWAP2 POP POP JUMP JUMPDEST PUSH0 PUSH2 0x2C14 DUP3 PUSH2 0x2BF0 JUMP JUMPDEST PUSH2 0x2C1E DUP2 DUP6 PUSH2 0x2BFA JUMP JUMPDEST SWAP4 POP PUSH2 0x2C2E DUP2 DUP6 PUSH1 0x20 DUP7 ADD PUSH2 0x1CFA JUMP JUMPDEST PUSH2 0x2C37 DUP2 PUSH2 0x1D22 JUMP JUMPDEST DUP5 ADD SWAP2 POP POP SWAP3 SWAP2 POP POP JUMP JUMPDEST PUSH0 PUSH1 0x80 DUP3 ADD SWAP1 POP PUSH2 0x2C55 PUSH0 DUP4 ADD DUP8 PUSH2 0x1E18 JUMP JUMPDEST PUSH2 0x2C62 PUSH1 0x20 DUP4 ADD DUP7 PUSH2 0x1E18 JUMP JUMPDEST PUSH2 0x2C6F PUSH1 0x40 DUP4 ADD DUP6 PUSH2 0x1EA8 JUMP JUMPDEST DUP2 DUP2 SUB PUSH1 0x60 DUP4 ADD MSTORE PUSH2 0x2C81 DUP2 DUP5 PUSH2 0x2C0A JUMP JUMPDEST SWAP1 POP SWAP6 SWAP5 POP POP POP POP POP JUMP JUMPDEST PUSH0 DUP2 MLOAD SWAP1 POP PUSH2 0x2C9A DUP2 PUSH2 0x1C58 JUMP JUMPDEST SWAP3 SWAP2 POP POP JUMP JUMPDEST PUSH0 PUSH1 0x20 DUP3 DUP5 SUB SLT ISZERO PUSH2 0x2CB5 JUMPI PUSH2 0x2CB4 PUSH2 0x1C25 JUMP JUMPDEST JUMPDEST PUSH0 PUSH2 0x2CC2 DUP5 DUP3 DUP6 ADD PUSH2 0x2C8C JUMP JUMPDEST SWAP2 POP POP SWAP3 SWAP2 POP POP JUMP JUMPDEST PUSH32 0x4E487B7100000000000000000000000000000000000000000000000000000000 PUSH0 MSTORE PUSH1 0x12 PUSH1 0x4 MSTORE PUSH1 0x24 PUSH0 REVERT INVALID LOG2 PUSH5 0x6970667358 0x22 SLT KECCAK256 0xEC 0xED PUSH27 0x94878CBD97EEB0711AD77B10021A058E11DB84DD1022DF189C6681 0x29 STATICCALL PUSH5 0x736F6C6343 STOP ADDMOD EQ STOP CALLER "
				},
				"gasEstimates": {
					"creation": {
						"codeDepositCost": "2313200",
						"executionCost": "infinite",
						"totalCost": "infinite"
					},
					"external": {
						"approve(address,uint256)": "947",
						"balanceOf(address)": "infinite",
						"getApprovalGrowth(address,uint256)": "3274",
						"getApproved(uint256)": "777",
						"getGrowth(uint256)": "infinite",
						"getTokenType(uint256)": "infinite",
						"growUp(address,uint256)": "infinite",
						"isApprovedForAll(address,address)": "infinite",
						"isProtected(address)": "infinite",
						"mint(address,uint256)": "infinite",
						"name()": "infinite",
						"owner()": "2605",
						"ownerOf(uint256)": "infinite",
						"renounceOwnership()": "30501",
						"reset(address,uint256)": "infinite",
						"safeTransferFrom(address,address,uint256)": "infinite",
						"safeTransferFrom(address,address,uint256,bytes)": "infinite",
						"setApprovalForAll(address,bool)": "996",
						"setApprovalGrowth(uint256,bool)": "27360",
						"setProtected(bool)": "infinite",
						"setTokenURI(string)": "infinite",
						"supportsInterface(bytes4)": "764",
						"symbol()": "infinite",
						"tokenOfOwnerByIndex(address,uint256)": "infinite",
						"tokenURI(uint256)": "infinite",
						"totalSupply()": "2500",
						"totalUser()": "2476",
						"transferFrom(address,address,uint256)": "infinite",
						"transferOwnership(address)": "30819"
					},
					"internal": {
						"_balanceOf(address)": "2221",
						"_checkOnERC721Received(address,address,uint256,bytes memory)": "infinite",
						"_exists(uint256)": "2307",
						"_existsOwner(address)": "2230",
						"_getApprovalGrowth(address,uint256)": "2334",
						"_getProtected(address)": "2256",
						"_growUp(address,uint256)": "infinite",
						"_isProtected(address)": "infinite",
						"_isProtectedTokenId(uint256)": "infinite",
						"_ownerOf(uint256)": "2244",
						"_requireMinted(uint256)": "infinite",
						"_requireMintedOf(address,uint256)": "infinite",
						"_safeMint(address,uint256)": "infinite",
						"_setApprovalGrowth(uint256,bool)": "24448",
						"_setGrowthToZero(address,uint256)": "infinite",
						"getProtected(address)": "2298",
						"isContract(address)": "2651"
					}
				},
				"methodIdentifiers": {
					"approve(address,uint256)": "095ea7b3",
					"balanceOf(address)": "70a08231",
					"getApprovalGrowth(address,uint256)": "f3ba5946",
					"getApproved(uint256)": "081812fc",
					"getGrowth(uint256)": "51c18e0c",
					"getTokenType(uint256)": "76aed2e1",
					"growUp(address,uint256)": "be37e907",
					"isApprovedForAll(address,address)": "e985e9c5",
					"isProtected(address)": "ce35de95",
					"mint(address,uint256)": "40c10f19",
					"name()": "06fdde03",
					"owner()": "8da5cb5b",
					"ownerOf(uint256)": "6352211e",
					"renounceOwnership()": "715018a6",
					"reset(address,uint256)": "9b252852",
					"safeTransferFrom(address,address,uint256)": "42842e0e",
					"safeTransferFrom(address,address,uint256,bytes)": "b88d4fde",
					"setApprovalForAll(address,bool)": "a22cb465",
					"setApprovalGrowth(uint256,bool)": "8c10081f",
					"setProtected(bool)": "1c02bc31",
					"setTokenURI(string)": "e0df5b6f",
					"supportsInterface(bytes4)": "01ffc9a7",
					"symbol()": "95d89b41",
					"tokenOfOwnerByIndex(address,uint256)": "2f745c59",
					"tokenURI(uint256)": "c87b56dd",
					"totalSupply()": "18160ddd",
					"totalUser()": "e1604b70",
					"transferFrom(address,address,uint256)": "23b872dd",
					"transferOwnership(address)": "f2fde38b"
				}
			},
			"storageLayout": {
				"storage": [
					{
						"astId": 7,
						"contract": "v2/contracts/SoulSocietySBT.sol:SoulSocietySBT",
						"label": "_owner",
						"offset": 0,
						"slot": "0",
						"type": "t_address"
					},
					{
						"astId": 1542,
						"contract": "v2/contracts/SoulSocietySBT.sol:SoulSocietySBT",
						"label": "_uri",
						"offset": 0,
						"slot": "1",
						"type": "t_string_storage"
					},
					{
						"astId": 1544,
						"contract": "v2/contracts/SoulSocietySBT.sol:SoulSocietySBT",
						"label": "_totalUser",
						"offset": 0,
						"slot": "2",
						"type": "t_uint256"
					},
					{
						"astId": 1546,
						"contract": "v2/contracts/SoulSocietySBT.sol:SoulSocietySBT",
						"label": "_totalCount",
						"offset": 0,
						"slot": "3",
						"type": "t_uint256"
					},
					{
						"astId": 1550,
						"contract": "v2/contracts/SoulSocietySBT.sol:SoulSocietySBT",
						"label": "_owners",
						"offset": 0,
						"slot": "4",
						"type": "t_mapping(t_uint256,t_address)"
					},
					{
						"astId": 1554,
						"contract": "v2/contracts/SoulSocietySBT.sol:SoulSocietySBT",
						"label": "_tokenTypes",
						"offset": 0,
						"slot": "5",
						"type": "t_mapping(t_uint256,t_uint256)"
					},
					{
						"astId": 1558,
						"contract": "v2/contracts/SoulSocietySBT.sol:SoulSocietySBT",
						"label": "_tokenGrowths",
						"offset": 0,
						"slot": "6",
						"type": "t_mapping(t_uint256,t_uint256)"
					},
					{
						"astId": 1562,
						"contract": "v2/contracts/SoulSocietySBT.sol:SoulSocietySBT",
						"label": "_balances",
						"offset": 0,
						"slot": "7",
						"type": "t_mapping(t_address,t_uint256)"
					},
					{
						"astId": 1566,
						"contract": "v2/contracts/SoulSocietySBT.sol:SoulSocietySBT",
						"label": "_userProtects",
						"offset": 0,
						"slot": "8",
						"type": "t_mapping(t_address,t_bool)"
					},
					{
						"astId": 1572,
						"contract": "v2/contracts/SoulSocietySBT.sol:SoulSocietySBT",
						"label": "_ownedTokens",
						"offset": 0,
						"slot": "9",
						"type": "t_mapping(t_address,t_mapping(t_uint256,t_uint256))"
					},
					{
						"astId": 1578,
						"contract": "v2/contracts/SoulSocietySBT.sol:SoulSocietySBT",
						"label": "_approvalUpdateGrowth",
						"offset": 0,
						"slot": "10",
						"type": "t_mapping(t_address,t_mapping(t_uint256,t_bool))"
					}
				],
				"types": {
					"t_address": {
						"encoding": "inplace",
						"label": "address",
						"numberOfBytes": "20"
					},
					"t_bool": {
						"encoding": "inplace",
						"label": "bool",
						"numberOfBytes": "1"
					},
					"t_mapping(t_address,t_bool)": {
						"encoding": "mapping",
						"key": "t_address",
						"label": "mapping(address => bool)",
						"numberOfBytes": "32",
						"value": "t_bool"
					},
					"t_mapping(t_address,t_mapping(t_uint256,t_bool))": {
						"encoding": "mapping",
						"key": "t_address",
						"label": "mapping(address => mapping(uint256 => bool))",
						"numberOfBytes": "32",
						"value": "t_mapping(t_uint256,t_bool)"
					},
					"t_mapping(t_address,t_mapping(t_uint256,t_uint256))": {
						"encoding": "mapping",
						"key": "t_address",
						"label": "mapping(address => mapping(uint256 => uint256))",
						"numberOfBytes": "32",
						"value": "t_mapping(t_uint256,t_uint256)"
					},
					"t_mapping(t_address,t_uint256)": {
						"encoding": "mapping",
						"key": "t_address",
						"label": "mapping(address => uint256)",
						"numberOfBytes": "32",
						"value": "t_uint256"
					},
					"t_mapping(t_uint256,t_address)": {
						"encoding": "mapping",
						"key": "t_uint256",
						"label": "mapping(uint256 => address)",
						"numberOfBytes": "32",
						"value": "t_address"
					},
					"t_mapping(t_uint256,t_bool)": {
						"encoding": "mapping",
						"key": "t_uint256",
						"label": "mapping(uint256 => bool)",
						"numberOfBytes": "32",
						"value": "t_bool"
					},
					"t_mapping(t_uint256,t_uint256)": {
						"encoding": "mapping",
						"key": "t_uint256",
						"label": "mapping(uint256 => uint256)",
						"numberOfBytes": "32",
						"value": "t_uint256"
					},
					"t_string_storage": {
						"encoding": "bytes",
						"label": "string",
						"numberOfBytes": "32"
					},
					"t_uint256": {
						"encoding": "inplace",
						"label": "uint256",
						"numberOfBytes": "32"
					}
				}
			},
			"userdoc": {
				"kind": "user",
				"methods": {
					"safeTransferFrom(address,address,uint256,bytes)": {
						"notice": "Does not provide a transfer feature."
					}
				},
				"notice": "As an implementation of ISoulSocietySBT, only the owner can modify growth.",
				"version": 1
			}
		}
	}
}