{
	"data": {
		"bytecode": {
			"linkReferences": {},
			"object": "608060405234801562000010575f80fd5b506040518060400160405280601a81526020017f687474703a2f2f6170692e736f756c736f63696574792e67672f000000000000815250620000676200005b6200014060201b60201c565b6200014760201b60201c565b80600190816200007891906200046c565b503373ffffffffffffffffffffffffffffffffffffffff167fddb33c9627985605622b2c4e8b308152b557aeae8ba59e2f05038c9d8ed6ae84426040518060400160405280600681526020017f484f4e53425400000000000000000000000000000000000000000000000000008152506040518060400160405280600681526020017f484f4e534254000000000000000000000000000000000000000000000000000081525085604051620001319493929190620005eb565b60405180910390a2506200064b565b5f33905090565b5f805f9054906101000a900473ffffffffffffffffffffffffffffffffffffffff169050815f806101000a81548173ffffffffffffffffffffffffffffffffffffffff021916908373ffffffffffffffffffffffffffffffffffffffff1602179055508173ffffffffffffffffffffffffffffffffffffffff168173ffffffffffffffffffffffffffffffffffffffff167f8be0079c531659141344cd1fd0a4f28419497f9722a3daafe3b4186f6b6457e060405160405180910390a35050565b5f81519050919050565b7f4e487b71000000000000000000000000000000000000000000000000000000005f52604160045260245ffd5b7f4e487b71000000000000000000000000000000000000000000000000000000005f52602260045260245ffd5b5f60028204905060018216806200028457607f821691505b6020821081036200029a57620002996200023f565b5b50919050565b5f819050815f5260205f209050919050565b5f6020601f8301049050919050565b5f82821b905092915050565b5f60088302620002fe7fffffffffffffffffffffffffffffffffffffffffffffffffffffffffffffffff82620002c1565b6200030a8683620002c1565b95508019841693508086168417925050509392505050565b5f819050919050565b5f819050919050565b5f620003546200034e620003488462000322565b6200032b565b62000322565b9050919050565b5f819050919050565b6200036f8362000334565b620003876200037e826200035b565b848454620002cd565b825550505050565b5f90565b6200039d6200038f565b620003aa81848462000364565b505050565b5b81811015620003d157620003c55f8262000393565b600181019050620003b0565b5050565b601f8211156200042057620003ea81620002a0565b620003f584620002b2565b8101602085101562000405578190505b6200041d6200041485620002b2565b830182620003af565b50505b505050565b5f82821c905092915050565b5f620004425f198460080262000425565b1980831691505092915050565b5f6200045c838362000431565b9150826002028217905092915050565b620004778262000208565b67ffffffffffffffff81111562000493576200049262000212565b5b6200049f82546200026c565b620004ac828285620003d5565b5f60209050601f831160018114620004e2575f8415620004cd578287015190505b620004d985826200044f565b86555062000548565b601f198416620004f286620002a0565b5f5b828110156200051b57848901518255600182019150602085019450602081019050620004f4565b868310156200053b578489015162000537601f89168262000431565b8355505b6001600288020188555050505b505050505050565b6200055b8162000322565b82525050565b5f82825260208201905092915050565b5f5b838110156200059057808201518184015260208101905062000573565b5f8484015250505050565b5f601f19601f8301169050919050565b5f620005b78262000208565b620005c3818562000561565b9350620005d581856020860162000571565b620005e0816200059b565b840191505092915050565b5f608082019050620006005f83018762000550565b8181036020830152620006148186620005ab565b905081810360408301526200062a8185620005ab565b90508181036060830152620006408184620005ab565b905095945050505050565b612d4180620006595f395ff3fe608060405234801561000f575f80fd5b50600436106101cd575f3560e01c806376aed2e111610102578063be37e907116100a0578063e1604b701161006f578063e1604b7014610587578063e985e9c5146105a5578063f2fde38b146105d5578063f3ba5946146105f1576101cd565b8063be37e907146104c7578063c87b56dd146104f7578063ce35de9514610527578063e0df5b6f14610557576101cd565b806395d89b41116100dc57806395d89b41146104555780639b25285214610473578063a22cb4651461048f578063b88d4fde146104ab576101cd565b806376aed2e1146103eb5780638c10081f1461041b5780638da5cb5b14610437576101cd565b80632f745c591161016f57806351c18e0c1161014957806351c18e0c146103515780636352211e1461038157806370a08231146103b1578063715018a6146103e1576101cd565b80632f745c59146102d557806340c10f191461030557806342842e0e14610335576101cd565b8063095ea7b3116101ab578063095ea7b31461024f57806318160ddd1461026b5780631c02bc311461028957806323b872dd146102b9576101cd565b806301ffc9a7146101d157806306fdde0314610201578063081812fc1461021f575b5f80fd5b6101eb60048036038101906101e69190611c95565b610621565b6040516101f89190611cda565b60405180910390f35b61020961069a565b6040516102169190611d7d565b60405180910390f35b61023960048036038101906102349190611dd0565b6106d7565b6040516102469190611e3a565b60405180910390f35b61026960048036038101906102649190611e7d565b610713565b005b61027361074e565b6040516102809190611eca565b60405180910390f35b6102a3600480360381019061029e9190611f0d565b610757565b6040516102b09190611cda565b60405180910390f35b6102d360048036038101906102ce9190611f38565b610808565b005b6102ef60048036038101906102ea9190611e7d565b610843565b6040516102fc9190611eca565b60405180910390f35b61031f600480360381019061031a9190611e7d565b610962565b60405161032c9190611eca565b60405180910390f35b61034f600480360381019061034a9190611f38565b61097d565b005b61036b60048036038101906103669190611dd0565b6109b8565b6040516103789190611eca565b60405180910390f35b61039b60048036038101906103969190611dd0565b6109db565b6040516103a89190611e3a565b60405180910390f35b6103cb60048036038101906103c69190611f88565b610a1d565b6040516103d89190611eca565b60405180910390f35b6103e9610a38565b005b61040560048036038101906104009190611dd0565b610a4b565b6040516104129190611eca565b60405180910390f35b61043560048036038101906104309190611fb3565b610a6e565b005b61043f610ac8565b60405161044c9190611e3a565b60405180910390f35b61045d610aef565b60405161046a9190611d7d565b60405180910390f35b61048d60048036038101906104889190611e7d565b610b2c565b005b6104a960048036038101906104a49190611ff1565b610b8f565b005b6104c560048036038101906104c09190612090565b610bca565b005b6104e160048036038101906104dc9190611e7d565b610c05565b6040516104ee9190611eca565b60405180910390f35b610511600480360381019061050c9190611dd0565b610c6d565b60405161051e9190611d7d565b60405180910390f35b610541600480360381019061053c9190611f88565b610ce7565b60405161054e9190611cda565b60405180910390f35b610571600480360381019061056c919061223c565b610cf8565b60405161057e9190611d7d565b60405180910390f35b61058f610df0565b60405161059c9190611eca565b60405180910390f35b6105bf60048036038101906105ba9190612283565b610df9565b6040516105cc9190611cda565b60405180910390f35b6105ef60048036038101906105ea9190611f88565b610e35565b005b61060b60048036038101906106069190611e7d565b610eb7565b6040516106189190611cda565b60405180910390f35b5f7f80ac58cd000000000000000000000000000000000000000000000000000000007bffffffffffffffffffffffffffffffffffffffffffffffffffffffff1916827bffffffffffffffffffffffffffffffffffffffffffffffffffffffff19161480610693575061069282610eca565b5b9050919050565b60606040518060400160405280600681526020017f484f4e5342540000000000000000000000000000000000000000000000000000815250905090565b5f6040517f9fc6e75800000000000000000000000000000000000000000000000000000000815260040161070a9061230b565b60405180910390fd5b6040517f9fc6e75800000000000000000000000000000000000000000000000000000000815260040161074590612373565b60405180910390fd5b5f600354905090565b5f8061076233610f33565b116107a457336040517ffaceffef00000000000000000000000000000000000000000000000000000000815260040161079b9190611e3a565b60405180910390fd5b8160085f3373ffffffffffffffffffffffffffffffffffffffff1673ffffffffffffffffffffffffffffffffffffffff1681526020019081526020015f205f6101000a81548160ff02191690831515021790555061080133610f79565b9050919050565b6040517f9fc6e75800000000000000000000000000000000000000000000000000000000815260040161083a906123db565b60405180910390fd5b5f61084d83610f8a565b5061085783610f33565b8210610898576040517f08c379a000000000000000000000000000000000000000000000000000000000815260040161088f90612443565b60405180910390fd5b5f73ffffffffffffffffffffffffffffffffffffffff168373ffffffffffffffffffffffffffffffffffffffff1603610908575f6040517f74f5e87d0000000000000000000000000000000000000000000000000000000081526004016108ff9190611e3a565b60405180910390fd5b5f60095f8573ffffffffffffffffffffffffffffffffffffffff1673ffffffffffffffffffffffffffffffffffffffff1681526020019081526020015f205f8481526020019081526020015f205490508091505092915050565b5f61096b611025565b61097583836110a3565b905092915050565b6040517f9fc6e7580000000000000000000000000000000000000000000000000000000081526004016109af906124ab565b60405180910390fd5b5f6109c28261113b565b60065f8381526020019081526020015f20549050919050565b5f6109e58261113b565b60045f8381526020019081526020015f205f9054906101000a900473ffffffffffffffffffffffffffffffffffffffff169050919050565b5f610a2782610f8a565b50610a3182610f33565b9050919050565b610a40611025565b610a495f6111c2565b565b5f610a558261113b565b60055f8381526020019081526020015f20549050919050565b5f610a7833610f33565b11610aba57336040517ffaceffef000000000000000000000000000000000000000000000000000000008152600401610ab19190611e3a565b60405180910390fd5b610ac48282611283565b5050565b5f805f9054906101000a900473ffffffffffffffffffffffffffffffffffffffff16905090565b60606040518060400160405280600681526020017f484f4e5342540000000000000000000000000000000000000000000000000000815250905090565b610b34611025565b610b3e82826112ea565b610b815781816040517f9960858d000000000000000000000000000000000000000000000000000000008152600401610b789291906124c9565b60405180910390fd5b610b8b828261134c565b5050565b6040517f9fc6e758000000000000000000000000000000000000000000000000000000008152600401610bc19061253a565b60405180910390fd5b6040517f9fc6e758000000000000000000000000000000000000000000000000000000008152600401610bfc906124ab565b60405180910390fd5b5f610c0e611025565b610c1883836112ea565b610c5b5782826040517f9960858d000000000000000000000000000000000000000000000000000000008152600401610c529291906124c9565b60405180910390fd5b610c6583836113b4565b905092915050565b6060610c788261113b565b5f60018054610c8690612585565b905011610ca15760405180602001604052805f815250610ce0565b6001610cac83611455565b60055f8581526020019081526020015f2054604051602001610cd0939291906126eb565b6040516020818303038152906040525b9050919050565b5f610cf182610f8a565b9050919050565b6060610d02611025565b8160019081610d1191906128b5565b503373ffffffffffffffffffffffffffffffffffffffff167f70e6a9dc20d331ce8e747d7de8444f26f544d9003beb11d8c46e802ab8d36fc983604051610d589190611d7d565b60405180910390a260018054610d6d90612585565b80601f0160208091040260200160405190810160405280929190818152602001828054610d9990612585565b8015610de45780601f10610dbb57610100808354040283529160200191610de4565b820191905f5260205f20905b815481529060010190602001808311610dc757829003601f168201915b50505050509050919050565b5f600254905090565b5f6040517f9fc6e758000000000000000000000000000000000000000000000000000000008152600401610e2c906129ce565b60405180910390fd5b610e3d611025565b5f73ffffffffffffffffffffffffffffffffffffffff168173ffffffffffffffffffffffffffffffffffffffff1603610eab576040517f08c379a0000000000000000000000000000000000000000000000000000000008152600401610ea290612a5c565b60405180910390fd5b610eb4816111c2565b50565b5f610ec283836112ea565b905092915050565b5f7f01ffc9a7000000000000000000000000000000000000000000000000000000007bffffffffffffffffffffffffffffffffffffffffffffffffffffffff1916827bffffffffffffffffffffffffffffffffffffffffffffffffffffffff1916149050919050565b5f60075f8373ffffffffffffffffffffffffffffffffffffffff1673ffffffffffffffffffffffffffffffffffffffff1681526020019081526020015f20549050919050565b5f610f838261151f565b9050919050565b5f6001151560085f8473ffffffffffffffffffffffffffffffffffffffff1673ffffffffffffffffffffffffffffffffffffffff1681526020019081526020015f205f9054906101000a900460ff1615150361101d57816040517f904e928b0000000000000000000000000000000000000000000000000000000081526004016110149190611e3a565b60405180910390fd5b5f9050919050565b61102d611571565b73ffffffffffffffffffffffffffffffffffffffff1661104b610ac8565b73ffffffffffffffffffffffffffffffffffffffff16146110a1576040517f08c379a000000000000000000000000000000000000000000000000000000000815260040161109890612ac4565b60405180910390fd5b565b5f806110af8484611578565b90506110f25f85836040518060400160405280600881526020017f4d696e742053425400000000000000000000000000000000000000000000000081525061189c565b611131576040517f08c379a000000000000000000000000000000000000000000000000000000000815260040161112890612b52565b60405180910390fd5b8091505092915050565b61114481611989565b61118557806040517f24476a3f00000000000000000000000000000000000000000000000000000000815260040161117c9190611eca565b60405180910390fd5b6111be60045f8381526020019081526020015f205f9054906101000a900473ffffffffffffffffffffffffffffffffffffffff16610f8a565b5050565b5f805f9054906101000a900473ffffffffffffffffffffffffffffffffffffffff169050815f806101000a81548173ffffffffffffffffffffffffffffffffffffffff021916908373ffffffffffffffffffffffffffffffffffffffff1602179055508173ffffffffffffffffffffffffffffffffffffffff168173ffffffffffffffffffffffffffffffffffffffff167f8be0079c531659141344cd1fd0a4f28419497f9722a3daafe3b4186f6b6457e060405160405180910390a35050565b80600a5f3373ffffffffffffffffffffffffffffffffffffffff1673ffffffffffffffffffffffffffffffffffffffff1681526020019081526020015f205f8481526020019081526020015f205f6101000a81548160ff0219169083151502179055505050565b5f600a5f8473ffffffffffffffffffffffffffffffffffffffff1673ffffffffffffffffffffffffffffffffffffffff1681526020019081526020015f205f8381526020019081526020015f205f9054906101000a900460ff16905092915050565b61135682826119c9565b5f60065f8381526020019081526020015f2081905550808273ffffffffffffffffffffffffffffffffffffffff167f154fa90f2d3692df165afacdcd7755b2e9d98a892a80cc1dda63f3a9cc1e64a460405160405180910390a35050565b5f6113bf83836119c9565b600160065f8481526020019081526020015f205f8282546113e09190612b9d565b925050819055505f60065f8481526020019081526020015f20549050808473ffffffffffffffffffffffffffffffffffffffff167f48ffd7fdb1c1a0561a2d410317f6bb839aab64898de6fc73ee703a9c0dc0a36c856040516114439190611eca565b60405180910390a38091505092915050565b60605f600161146384611a45565b0190505f8167ffffffffffffffff81111561148157611480612118565b5b6040519080825280601f01601f1916602001820160405280156114b35781602001600182028036833780820191505090505b5090505f82602001820190505b600115611514578080600190039150507f3031323334353637383961626364656600000000000000000000000000000000600a86061a8153600a858161150957611508612bd0565b5b0494505f85036114c0575b819350505050919050565b5f60085f8373ffffffffffffffffffffffffffffffffffffffff1673ffffffffffffffffffffffffffffffffffffffff1681526020019081526020015f205f9054906101000a900460ff169050919050565b5f33905090565b5f8060016003546115899190612b9d565b90505f73ffffffffffffffffffffffffffffffffffffffff168473ffffffffffffffffffffffffffffffffffffffff16036115fb575f6040517f74f5e87d0000000000000000000000000000000000000000000000000000000081526004016115f29190611e3a565b60405180910390fd5b61160481611989565b1561164657806040517ff342bdc200000000000000000000000000000000000000000000000000000000815260040161163d9190611eca565b60405180910390fd5b61164f84611b96565b61166d57600160025f8282546116659190612b9d565b925050819055505b600160075f8673ffffffffffffffffffffffffffffffffffffffff1673ffffffffffffffffffffffffffffffffffffffff1681526020019081526020015f205f8282540192505081905550600160035f82825401925050819055508360045f8381526020019081526020015f205f6101000a81548173ffffffffffffffffffffffffffffffffffffffff021916908373ffffffffffffffffffffffffffffffffffffffff1602179055508260055f8381526020019081526020015f2081905550600160065f8381526020019081526020015f20819055506001600a5f8673ffffffffffffffffffffffffffffffffffffffff1673ffffffffffffffffffffffffffffffffffffffff1681526020019081526020015f205f8381526020019081526020015f205f6101000a81548160ff0219169083151502179055508060095f8673ffffffffffffffffffffffffffffffffffffffff1673ffffffffffffffffffffffffffffffffffffffff1681526020019081526020015f205f600160075f8973ffffffffffffffffffffffffffffffffffffffff1673ffffffffffffffffffffffffffffffffffffffff1681526020019081526020015f20546118319190612bfd565b81526020019081526020015f208190555082818573ffffffffffffffffffffffffffffffffffffffff167f2f00e3cdd69a77be7ed215ec7b2a36784dd158f921fca79ac29deffa353fe6ee5f60405161188a9190611e3a565b60405180910390a48091505092915050565b5f6118a684611bdf565b6118b35760019050611981565b5f8473ffffffffffffffffffffffffffffffffffffffff1663150b7a02338887876040518563ffffffff1660e01b81526004016118f39493929190612c82565b6020604051808303815f875af115801561190f573d5f803e3d5ffd5b505050506040513d601f19601f820116820180604052508101906119339190612ce0565b905063150b7a0260e01b7bffffffffffffffffffffffffffffffffffffffffffffffffffffffff1916817bffffffffffffffffffffffffffffffffffffffffffffffffffffffff1916149150505b949350505050565b5f8073ffffffffffffffffffffffffffffffffffffffff166119aa83611bf6565b73ffffffffffffffffffffffffffffffffffffffff1614159050919050565b8173ffffffffffffffffffffffffffffffffffffffff166119e982611bf6565b73ffffffffffffffffffffffffffffffffffffffff1614611a4157816040517f50159299000000000000000000000000000000000000000000000000000000008152600401611a389190611e3a565b60405180910390fd5b5050565b5f805f90507a184f03e93ff9f4daa797ed6e38ed64bf6a1f0100000000000000008310611aa1577a184f03e93ff9f4daa797ed6e38ed64bf6a1f0100000000000000008381611a9757611a96612bd0565b5b0492506040810190505b6d04ee2d6d415b85acef81000000008310611ade576d04ee2d6d415b85acef81000000008381611ad457611ad3612bd0565b5b0492506020810190505b662386f26fc100008310611b0d57662386f26fc100008381611b0357611b02612bd0565b5b0492506010810190505b6305f5e1008310611b36576305f5e1008381611b2c57611b2b612bd0565b5b0492506008810190505b6127108310611b5b576127108381611b5157611b50612bd0565b5b0492506004810190505b60648310611b7e5760648381611b7457611b73612bd0565b5b0492506002810190505b600a8310611b8d576001810190505b80915050919050565b5f8060075f8473ffffffffffffffffffffffffffffffffffffffff1673ffffffffffffffffffffffffffffffffffffffff1681526020019081526020015f205414159050919050565b5f80823b90505f8163ffffffff1611915050919050565b5f60045f8381526020019081526020015f205f9054906101000a900473ffffffffffffffffffffffffffffffffffffffff169050919050565b5f604051905090565b5f80fd5b5f80fd5b5f7fffffffff0000000000000000000000000000000000000000000000000000000082169050919050565b611c7481611c40565b8114611c7e575f80fd5b50565b5f81359050611c8f81611c6b565b92915050565b5f60208284031215611caa57611ca9611c38565b5b5f611cb784828501611c81565b91505092915050565b5f8115159050919050565b611cd481611cc0565b82525050565b5f602082019050611ced5f830184611ccb565b92915050565b5f81519050919050565b5f82825260208201905092915050565b5f5b83811015611d2a578082015181840152602081019050611d0f565b5f8484015250505050565b5f601f19601f8301169050919050565b5f611d4f82611cf3565b611d598185611cfd565b9350611d69818560208601611d0d565b611d7281611d35565b840191505092915050565b5f6020820190508181035f830152611d958184611d45565b905092915050565b5f819050919050565b611daf81611d9d565b8114611db9575f80fd5b50565b5f81359050611dca81611da6565b92915050565b5f60208284031215611de557611de4611c38565b5b5f611df284828501611dbc565b91505092915050565b5f73ffffffffffffffffffffffffffffffffffffffff82169050919050565b5f611e2482611dfb565b9050919050565b611e3481611e1a565b82525050565b5f602082019050611e4d5f830184611e2b565b92915050565b611e5c81611e1a565b8114611e66575f80fd5b50565b5f81359050611e7781611e53565b92915050565b5f8060408385031215611e9357611e92611c38565b5b5f611ea085828601611e69565b9250506020611eb185828601611dbc565b9150509250929050565b611ec481611d9d565b82525050565b5f602082019050611edd5f830184611ebb565b92915050565b611eec81611cc0565b8114611ef6575f80fd5b50565b5f81359050611f0781611ee3565b92915050565b5f60208284031215611f2257611f21611c38565b5b5f611f2f84828501611ef9565b91505092915050565b5f805f60608486031215611f4f57611f4e611c38565b5b5f611f5c86828701611e69565b9350506020611f6d86828701611e69565b9250506040611f7e86828701611dbc565b9150509250925092565b5f60208284031215611f9d57611f9c611c38565b5b5f611faa84828501611e69565b91505092915050565b5f8060408385031215611fc957611fc8611c38565b5b5f611fd685828601611dbc565b9250506020611fe785828601611ef9565b9150509250929050565b5f806040838503121561200757612006611c38565b5b5f61201485828601611e69565b925050602061202585828601611ef9565b9150509250929050565b5f80fd5b5f80fd5b5f80fd5b5f8083601f8401126120505761204f61202f565b5b8235905067ffffffffffffffff81111561206d5761206c612033565b5b60208301915083600182028301111561208957612088612037565b5b9250929050565b5f805f805f608086880312156120a9576120a8611c38565b5b5f6120b688828901611e69565b95505060206120c788828901611e69565b94505060406120d888828901611dbc565b935050606086013567ffffffffffffffff8111156120f9576120f8611c3c565b5b6121058882890161203b565b92509250509295509295909350565b5f80fd5b7f4e487b71000000000000000000000000000000000000000000000000000000005f52604160045260245ffd5b61214e82611d35565b810181811067ffffffffffffffff8211171561216d5761216c612118565b5b80604052505050565b5f61217f611c2f565b905061218b8282612145565b919050565b5f67ffffffffffffffff8211156121aa576121a9612118565b5b6121b382611d35565b9050602081019050919050565b828183375f83830152505050565b5f6121e06121db84612190565b612176565b9050828152602081018484840111156121fc576121fb612114565b5b6122078482856121c0565b509392505050565b5f82601f8301126122235761222261202f565b5b81356122338482602086016121ce565b91505092915050565b5f6020828403121561225157612250611c38565b5b5f82013567ffffffffffffffff81111561226e5761226d611c3c565b5b61227a8482850161220f565b91505092915050565b5f806040838503121561229957612298611c38565b5b5f6122a685828601611e69565b92505060206122b785828601611e69565b9150509250929050565b7f676574417070726f7665640000000000000000000000000000000000000000005f82015250565b5f6122f5600b83611cfd565b9150612300826122c1565b602082019050919050565b5f6020820190508181035f830152612322816122e9565b9050919050565b7f617070726f7665000000000000000000000000000000000000000000000000005f82015250565b5f61235d600783611cfd565b915061236882612329565b602082019050919050565b5f6020820190508181035f83015261238a81612351565b9050919050565b7f7472616e7366657246726f6d00000000000000000000000000000000000000005f82015250565b5f6123c5600c83611cfd565b91506123d082612391565b602082019050919050565b5f6020820190508181035f8301526123f2816123b9565b9050919050565b7f4f7574206f6620496e64657800000000000000000000000000000000000000005f82015250565b5f61242d600c83611cfd565b9150612438826123f9565b602082019050919050565b5f6020820190508181035f83015261245a81612421565b9050919050565b7f736166655472616e7366657246726f6d000000000000000000000000000000005f82015250565b5f612495601083611cfd565b91506124a082612461565b602082019050919050565b5f6020820190508181035f8301526124c281612489565b9050919050565b5f6040820190506124dc5f830185611e2b565b6124e96020830184611ebb565b9392505050565b7f736574417070726f76616c466f72416c6c0000000000000000000000000000005f82015250565b5f612524601183611cfd565b915061252f826124f0565b602082019050919050565b5f6020820190508181035f83015261255181612518565b9050919050565b7f4e487b71000000000000000000000000000000000000000000000000000000005f52602260045260245ffd5b5f600282049050600182168061259c57607f821691505b6020821081036125af576125ae612558565b5b50919050565b5f81905092915050565b5f819050815f5260205f209050919050565b5f81546125dd81612585565b6125e781866125b5565b9450600182165f8114612601576001811461261657612648565b60ff1983168652811515820286019350612648565b61261f856125bf565b5f5b8381101561264057815481890152600182019150602081019050612621565b838801955050505b50505092915050565b5f61265b82611cf3565b61266581856125b5565b9350612675818560208601611d0d565b80840191505092915050565b7f3f746f6b656e547970653d0000000000000000000000000000000000000000005f82015250565b5f6126b5600b836125b5565b91506126c082612681565b600b82019050919050565b5f819050919050565b6126e56126e082611d9d565b6126cb565b82525050565b5f6126f682866125d1565b91506127028285612651565b915061270d826126a9565b915061271982846126d4565b602082019150819050949350505050565b5f6020601f8301049050919050565b5f82821b905092915050565b5f600883026127747fffffffffffffffffffffffffffffffffffffffffffffffffffffffffffffffff82612739565b61277e8683612739565b95508019841693508086168417925050509392505050565b5f819050919050565b5f6127b96127b46127af84611d9d565b612796565b611d9d565b9050919050565b5f819050919050565b6127d28361279f565b6127e66127de826127c0565b848454612745565b825550505050565b5f90565b6127fa6127ee565b6128058184846127c9565b505050565b5b818110156128285761281d5f826127f2565b60018101905061280b565b5050565b601f82111561286d5761283e816125bf565b6128478461272a565b81016020851015612856578190505b61286a6128628561272a565b83018261280a565b50505b505050565b5f82821c905092915050565b5f61288d5f1984600802612872565b1980831691505092915050565b5f6128a5838361287e565b9150826002028217905092915050565b6128be82611cf3565b67ffffffffffffffff8111156128d7576128d6612118565b5b6128e18254612585565b6128ec82828561282c565b5f60209050601f83116001811461291d575f841561290b578287015190505b612915858261289a565b86555061297c565b601f19841661292b866125bf565b5f5b828110156129525784890151825560018201915060208501945060208101905061292d565b8683101561296f578489015161296b601f89168261287e565b8355505b6001600288020188555050505b505050505050565b7f6973417070726f766564466f72416c6c000000000000000000000000000000005f82015250565b5f6129b8601083611cfd565b91506129c382612984565b602082019050919050565b5f6020820190508181035f8301526129e5816129ac565b9050919050565b7f4f776e61626c653a206e6577206f776e657220697320746865207a65726f20615f8201527f6464726573730000000000000000000000000000000000000000000000000000602082015250565b5f612a46602683611cfd565b9150612a51826129ec565b604082019050919050565b5f6020820190508181035f830152612a7381612a3a565b9050919050565b7f4f776e61626c653a2063616c6c6572206973206e6f7420746865206f776e65725f82015250565b5f612aae602083611cfd565b9150612ab982612a7a565b602082019050919050565b5f6020820190508181035f830152612adb81612aa2565b9050919050565b7f4552433732313a207472616e7366657220746f206e6f6e2045524337323152655f8201527f63656976657220696d706c656d656e7465720000000000000000000000000000602082015250565b5f612b3c603283611cfd565b9150612b4782612ae2565b604082019050919050565b5f6020820190508181035f830152612b6981612b30565b9050919050565b7f4e487b71000000000000000000000000000000000000000000000000000000005f52601160045260245ffd5b5f612ba782611d9d565b9150612bb283611d9d565b9250828201905080821115612bca57612bc9612b70565b5b92915050565b7f4e487b71000000000000000000000000000000000000000000000000000000005f52601260045260245ffd5b5f612c0782611d9d565b9150612c1283611d9d565b9250828203905081811115612c2a57612c29612b70565b5b92915050565b5f81519050919050565b5f82825260208201905092915050565b5f612c5482612c30565b612c5e8185612c3a565b9350612c6e818560208601611d0d565b612c7781611d35565b840191505092915050565b5f608082019050612c955f830187611e2b565b612ca26020830186611e2b565b612caf6040830185611ebb565b8181036060830152612cc18184612c4a565b905095945050505050565b5f81519050612cda81611c6b565b92915050565b5f60208284031215612cf557612cf4611c38565b5b5f612d0284828501612ccc565b9150509291505056fea26469706673582212208402e88a3dcc3cf65984e5a42a05d5ae71e5dd2c5ee349ad0bf63b82a732825864736f6c63430008140033",
			"opcodes": "PUSH1 0x80 PUSH1 0x40 MSTORE CALLVALUE DUP1 ISZERO PUSH3 0x10 JUMPI PUSH0 DUP1 REVERT JUMPDEST POP PUSH1 0x40 MLOAD DUP1 PUSH1 0x40 ADD PUSH1 0x40 MSTORE DUP1 PUSH1 0x1A DUP2 MSTORE PUSH1 0x20 ADD PUSH32 0x687474703A2F2F6170692E736F756C736F63696574792E67672F000000000000 DUP2 MSTORE POP PUSH3 0x67 PUSH3 0x5B PUSH3 0x140 PUSH1 0x20 SHL PUSH1 0x20 SHR JUMP JUMPDEST PUSH3 0x147 PUSH1 0x20 SHL PUSH1 0x20 SHR JUMP JUMPDEST DUP1 PUSH1 0x1 SWAP1 DUP2 PUSH3 0x78 SWAP2 SWAP1 PUSH3 0x46C JUMP JUMPDEST POP CALLER PUSH20 0xFFFFFFFFFFFFFFFFFFFFFFFFFFFFFFFFFFFFFFFF AND PUSH32 0xDDB33C9627985605622B2C4E8B308152B557AEAE8BA59E2F05038C9D8ED6AE84 TIMESTAMP PUSH1 0x40 MLOAD DUP1 PUSH1 0x40 ADD PUSH1 0x40 MSTORE DUP1 PUSH1 0x6 DUP2 MSTORE PUSH1 0x20 ADD PUSH32 0x484F4E5342540000000000000000000000000000000000000000000000000000 DUP2 MSTORE POP PUSH1 0x40 MLOAD DUP1 PUSH1 0x40 ADD PUSH1 0x40 MSTORE DUP1 PUSH1 0x6 DUP2 MSTORE PUSH1 0x20 ADD PUSH32 0x484F4E5342540000000000000000000000000000000000000000000000000000 DUP2 MSTORE POP DUP6 PUSH1 0x40 MLOAD PUSH3 0x131 SWAP5 SWAP4 SWAP3 SWAP2 SWAP1 PUSH3 0x5EB JUMP JUMPDEST PUSH1 0x40 MLOAD DUP1 SWAP2 SUB SWAP1 LOG2 POP PUSH3 0x64B JUMP JUMPDEST PUSH0 CALLER SWAP1 POP SWAP1 JUMP JUMPDEST PUSH0 DUP1 PUSH0 SWAP1 SLOAD SWAP1 PUSH2 0x100 EXP SWAP1 DIV PUSH20 0xFFFFFFFFFFFFFFFFFFFFFFFFFFFFFFFFFFFFFFFF AND SWAP1 POP DUP2 PUSH0 DUP1 PUSH2 0x100 EXP DUP2 SLOAD DUP2 PUSH20 0xFFFFFFFFFFFFFFFFFFFFFFFFFFFFFFFFFFFFFFFF MUL NOT AND SWAP1 DUP4 PUSH20 0xFFFFFFFFFFFFFFFFFFFFFFFFFFFFFFFFFFFFFFFF AND MUL OR SWAP1 SSTORE POP DUP2 PUSH20 0xFFFFFFFFFFFFFFFFFFFFFFFFFFFFFFFFFFFFFFFF AND DUP2 PUSH20 0xFFFFFFFFFFFFFFFFFFFFFFFFFFFFFFFFFFFFFFFF AND PUSH32 0x8BE0079C531659141344CD1FD0A4F28419497F9722A3DAAFE3B4186F6B6457E0 PUSH1 0x40 MLOAD PUSH1 0x40 MLOAD DUP1 SWAP2 SUB SWAP1 LOG3 POP POP JUMP JUMPDEST PUSH0 DUP2 MLOAD SWAP1 POP SWAP2 SWAP1 POP JUMP JUMPDEST PUSH32 0x4E487B7100000000000000000000000000000000000000000000000000000000 PUSH0 MSTORE PUSH1 0x41 PUSH1 0x4 MSTORE PUSH1 0x24 PUSH0 REVERT JUMPDEST PUSH32 0x4E487B7100000000000000000000000000000000000000000000000000000000 PUSH0 MSTORE PUSH1 0x22 PUSH1 0x4 MSTORE PUSH1 0x24 PUSH0 REVERT JUMPDEST PUSH0 PUSH1 0x2 DUP3 DIV SWAP1 POP PUSH1 0x1 DUP3 AND DUP1 PUSH3 0x284 JUMPI PUSH1 0x7F DUP3 AND SWAP2 POP JUMPDEST PUSH1 0x20 DUP3 LT DUP2 SUB PUSH3 0x29A JUMPI PUSH3 0x299 PUSH3 0x23F JUMP JUMPDEST JUMPDEST POP SWAP2 SWAP1 POP JUMP JUMPDEST PUSH0 DUP2 SWAP1 POP DUP2 PUSH0 MSTORE PUSH1 0x20 PUSH0 KECCAK256 SWAP1 POP SWAP2 SWAP1 POP JUMP JUMPDEST PUSH0 PUSH1 0x20 PUSH1 0x1F DUP4 ADD DIV SWAP1 POP SWAP2 SWAP1 POP JUMP JUMPDEST PUSH0 DUP3 DUP3 SHL SWAP1 POP SWAP3 SWAP2 POP POP JUMP JUMPDEST PUSH0 PUSH1 0x8 DUP4 MUL PUSH3 0x2FE PUSH32 0xFFFFFFFFFFFFFFFFFFFFFFFFFFFFFFFFFFFFFFFFFFFFFFFFFFFFFFFFFFFFFFFF DUP3 PUSH3 0x2C1 JUMP JUMPDEST PUSH3 0x30A DUP7 DUP4 PUSH3 0x2C1 JUMP JUMPDEST SWAP6 POP DUP1 NOT DUP5 AND SWAP4 POP DUP1 DUP7 AND DUP5 OR SWAP3 POP POP POP SWAP4 SWAP3 POP POP POP JUMP JUMPDEST PUSH0 DUP2 SWAP1 POP SWAP2 SWAP1 POP JUMP JUMPDEST PUSH0 DUP2 SWAP1 POP SWAP2 SWAP1 POP JUMP JUMPDEST PUSH0 PUSH3 0x354 PUSH3 0x34E PUSH3 0x348 DUP5 PUSH3 0x322 JUMP JUMPDEST PUSH3 0x32B JUMP JUMPDEST PUSH3 0x322 JUMP JUMPDEST SWAP1 POP SWAP2 SWAP1 POP JUMP JUMPDEST PUSH0 DUP2 SWAP1 POP SWAP2 SWAP1 POP JUMP JUMPDEST PUSH3 0x36F DUP4 PUSH3 0x334 JUMP JUMPDEST PUSH3 0x387 PUSH3 0x37E DUP3 PUSH3 0x35B JUMP JUMPDEST DUP5 DUP5 SLOAD PUSH3 0x2CD JUMP JUMPDEST DUP3 SSTORE POP POP POP POP JUMP JUMPDEST PUSH0 SWAP1 JUMP JUMPDEST PUSH3 0x39D PUSH3 0x38F JUMP JUMPDEST PUSH3 0x3AA DUP2 DUP5 DUP5 PUSH3 0x364 JUMP JUMPDEST POP POP POP JUMP JUMPDEST JUMPDEST DUP2 DUP2 LT ISZERO PUSH3 0x3D1 JUMPI PUSH3 0x3C5 PUSH0 DUP3 PUSH3 0x393 JUMP JUMPDEST PUSH1 0x1 DUP2 ADD SWAP1 POP PUSH3 0x3B0 JUMP JUMPDEST POP POP JUMP JUMPDEST PUSH1 0x1F DUP3 GT ISZERO PUSH3 0x420 JUMPI PUSH3 0x3EA DUP2 PUSH3 0x2A0 JUMP JUMPDEST PUSH3 0x3F5 DUP5 PUSH3 0x2B2 JUMP JUMPDEST DUP2 ADD PUSH1 0x20 DUP6 LT ISZERO PUSH3 0x405 JUMPI DUP2 SWAP1 POP JUMPDEST PUSH3 0x41D PUSH3 0x414 DUP6 PUSH3 0x2B2 JUMP JUMPDEST DUP4 ADD DUP3 PUSH3 0x3AF JUMP JUMPDEST POP POP JUMPDEST POP POP POP JUMP JUMPDEST PUSH0 DUP3 DUP3 SHR SWAP1 POP SWAP3 SWAP2 POP POP JUMP JUMPDEST PUSH0 PUSH3 0x442 PUSH0 NOT DUP5 PUSH1 0x8 MUL PUSH3 0x425 JUMP JUMPDEST NOT DUP1 DUP4 AND SWAP2 POP POP SWAP3 SWAP2 POP POP JUMP JUMPDEST PUSH0 PUSH3 0x45C DUP4 DUP4 PUSH3 0x431 JUMP JUMPDEST SWAP2 POP DUP3 PUSH1 0x2 MUL DUP3 OR SWAP1 POP SWAP3 SWAP2 POP POP JUMP JUMPDEST PUSH3 0x477 DUP3 PUSH3 0x208 JUMP JUMPDEST PUSH8 0xFFFFFFFFFFFFFFFF DUP2 GT ISZERO PUSH3 0x493 JUMPI PUSH3 0x492 PUSH3 0x212 JUMP JUMPDEST JUMPDEST PUSH3 0x49F DUP3 SLOAD PUSH3 0x26C JUMP JUMPDEST PUSH3 0x4AC DUP3 DUP3 DUP6 PUSH3 0x3D5 JUMP JUMPDEST PUSH0 PUSH1 0x20 SWAP1 POP PUSH1 0x1F DUP4 GT PUSH1 0x1 DUP2 EQ PUSH3 0x4E2 JUMPI PUSH0 DUP5 ISZERO PUSH3 0x4CD JUMPI DUP3 DUP8 ADD MLOAD SWAP1 POP JUMPDEST PUSH3 0x4D9 DUP6 DUP3 PUSH3 0x44F JUMP JUMPDEST DUP7 SSTORE POP PUSH3 0x548 JUMP JUMPDEST PUSH1 0x1F NOT DUP5 AND PUSH3 0x4F2 DUP7 PUSH3 0x2A0 JUMP JUMPDEST PUSH0 JUMPDEST DUP3 DUP2 LT ISZERO PUSH3 0x51B JUMPI DUP5 DUP10 ADD MLOAD DUP3 SSTORE PUSH1 0x1 DUP3 ADD SWAP2 POP PUSH1 0x20 DUP6 ADD SWAP5 POP PUSH1 0x20 DUP2 ADD SWAP1 POP PUSH3 0x4F4 JUMP JUMPDEST DUP7 DUP4 LT ISZERO PUSH3 0x53B JUMPI DUP5 DUP10 ADD MLOAD PUSH3 0x537 PUSH1 0x1F DUP10 AND DUP3 PUSH3 0x431 JUMP JUMPDEST DUP4 SSTORE POP JUMPDEST PUSH1 0x1 PUSH1 0x2 DUP9 MUL ADD DUP9 SSTORE POP POP POP JUMPDEST POP POP POP POP POP POP JUMP JUMPDEST PUSH3 0x55B DUP2 PUSH3 0x322 JUMP JUMPDEST DUP3 MSTORE POP POP JUMP JUMPDEST PUSH0 DUP3 DUP3 MSTORE PUSH1 0x20 DUP3 ADD SWAP1 POP SWAP3 SWAP2 POP POP JUMP JUMPDEST PUSH0 JUMPDEST DUP4 DUP2 LT ISZERO PUSH3 0x590 JUMPI DUP1 DUP3 ADD MLOAD DUP2 DUP5 ADD MSTORE PUSH1 0x20 DUP2 ADD SWAP1 POP PUSH3 0x573 JUMP JUMPDEST PUSH0 DUP5 DUP5 ADD MSTORE POP POP POP POP JUMP JUMPDEST PUSH0 PUSH1 0x1F NOT PUSH1 0x1F DUP4 ADD AND SWAP1 POP SWAP2 SWAP1 POP JUMP JUMPDEST PUSH0 PUSH3 0x5B7 DUP3 PUSH3 0x208 JUMP JUMPDEST PUSH3 0x5C3 DUP2 DUP6 PUSH3 0x561 JUMP JUMPDEST SWAP4 POP PUSH3 0x5D5 DUP2 DUP6 PUSH1 0x20 DUP7 ADD PUSH3 0x571 JUMP JUMPDEST PUSH3 0x5E0 DUP2 PUSH3 0x59B JUMP JUMPDEST DUP5 ADD SWAP2 POP POP SWAP3 SWAP2 POP POP JUMP JUMPDEST PUSH0 PUSH1 0x80 DUP3 ADD SWAP1 POP PUSH3 0x600 PUSH0 DUP4 ADD DUP8 PUSH3 0x550 JUMP JUMPDEST DUP2 DUP2 SUB PUSH1 0x20 DUP4 ADD MSTORE PUSH3 0x614 DUP2 DUP7 PUSH3 0x5AB JUMP JUMPDEST SWAP1 POP DUP2 DUP2 SUB PUSH1 0x40 DUP4 ADD MSTORE PUSH3 0x62A DUP2 DUP6 PUSH3 0x5AB JUMP JUMPDEST SWAP1 POP DUP2 DUP2 SUB PUSH1 0x60 DUP4 ADD MSTORE PUSH3 0x640 DUP2 DUP5 PUSH3 0x5AB JUMP JUMPDEST SWAP1 POP SWAP6 SWAP5 POP POP POP POP POP JUMP JUMPDEST PUSH2 0x2D41 DUP1 PUSH3 0x659 PUSH0 CODECOPY PUSH0 RETURN INVALID PUSH1 0x80 PUSH1 0x40 MSTORE CALLVALUE DUP1 ISZERO PUSH2 0xF JUMPI PUSH0 DUP1 REVERT JUMPDEST POP PUSH1 0x4 CALLDATASIZE LT PUSH2 0x1CD JUMPI PUSH0 CALLDATALOAD PUSH1 0xE0 SHR DUP1 PUSH4 0x76AED2E1 GT PUSH2 0x102 JUMPI DUP1 PUSH4 0xBE37E907 GT PUSH2 0xA0 JUMPI DUP1 PUSH4 0xE1604B70 GT PUSH2 0x6F JUMPI DUP1 PUSH4 0xE1604B70 EQ PUSH2 0x587 JUMPI DUP1 PUSH4 0xE985E9C5 EQ PUSH2 0x5A5 JUMPI DUP1 PUSH4 0xF2FDE38B EQ PUSH2 0x5D5 JUMPI DUP1 PUSH4 0xF3BA5946 EQ PUSH2 0x5F1 JUMPI PUSH2 0x1CD JUMP JUMPDEST DUP1 PUSH4 0xBE37E907 EQ PUSH2 0x4C7 JUMPI DUP1 PUSH4 0xC87B56DD EQ PUSH2 0x4F7 JUMPI DUP1 PUSH4 0xCE35DE95 EQ PUSH2 0x527 JUMPI DUP1 PUSH4 0xE0DF5B6F EQ PUSH2 0x557 JUMPI PUSH2 0x1CD JUMP JUMPDEST DUP1 PUSH4 0x95D89B41 GT PUSH2 0xDC JUMPI DUP1 PUSH4 0x95D89B41 EQ PUSH2 0x455 JUMPI DUP1 PUSH4 0x9B252852 EQ PUSH2 0x473 JUMPI DUP1 PUSH4 0xA22CB465 EQ PUSH2 0x48F JUMPI DUP1 PUSH4 0xB88D4FDE EQ PUSH2 0x4AB JUMPI PUSH2 0x1CD JUMP JUMPDEST DUP1 PUSH4 0x76AED2E1 EQ PUSH2 0x3EB JUMPI DUP1 PUSH4 0x8C10081F EQ PUSH2 0x41B JUMPI DUP1 PUSH4 0x8DA5CB5B EQ PUSH2 0x437 JUMPI PUSH2 0x1CD JUMP JUMPDEST DUP1 PUSH4 0x2F745C59 GT PUSH2 0x16F JUMPI DUP1 PUSH4 0x51C18E0C GT PUSH2 0x149 JUMPI DUP1 PUSH4 0x51C18E0C EQ PUSH2 0x351 JUMPI DUP1 PUSH4 0x6352211E EQ PUSH2 0x381 JUMPI DUP1 PUSH4 0x70A08231 EQ PUSH2 0x3B1 JUMPI DUP1 PUSH4 0x715018A6 EQ PUSH2 0x3E1 JUMPI PUSH2 0x1CD JUMP JUMPDEST DUP1 PUSH4 0x2F745C59 EQ PUSH2 0x2D5 JUMPI DUP1 PUSH4 0x40C10F19 EQ PUSH2 0x305 JUMPI DUP1 PUSH4 0x42842E0E EQ PUSH2 0x335 JUMPI PUSH2 0x1CD JUMP JUMPDEST DUP1 PUSH4 0x95EA7B3 GT PUSH2 0x1AB JUMPI DUP1 PUSH4 0x95EA7B3 EQ PUSH2 0x24F JUMPI DUP1 PUSH4 0x18160DDD EQ PUSH2 0x26B JUMPI DUP1 PUSH4 0x1C02BC31 EQ PUSH2 0x289 JUMPI DUP1 PUSH4 0x23B872DD EQ PUSH2 0x2B9 JUMPI PUSH2 0x1CD JUMP JUMPDEST DUP1 PUSH4 0x1FFC9A7 EQ PUSH2 0x1D1 JUMPI DUP1 PUSH4 0x6FDDE03 EQ PUSH2 0x201 JUMPI DUP1 PUSH4 0x81812FC EQ PUSH2 0x21F JUMPI JUMPDEST PUSH0 DUP1 REVERT JUMPDEST PUSH2 0x1EB PUSH1 0x4 DUP1 CALLDATASIZE SUB DUP2 ADD SWAP1 PUSH2 0x1E6 SWAP2 SWAP1 PUSH2 0x1C95 JUMP JUMPDEST PUSH2 0x621 JUMP JUMPDEST PUSH1 0x40 MLOAD PUSH2 0x1F8 SWAP2 SWAP1 PUSH2 0x1CDA JUMP JUMPDEST PUSH1 0x40 MLOAD DUP1 SWAP2 SUB SWAP1 RETURN JUMPDEST PUSH2 0x209 PUSH2 0x69A JUMP JUMPDEST PUSH1 0x40 MLOAD PUSH2 0x216 SWAP2 SWAP1 PUSH2 0x1D7D JUMP JUMPDEST PUSH1 0x40 MLOAD DUP1 SWAP2 SUB SWAP1 RETURN JUMPDEST PUSH2 0x239 PUSH1 0x4 DUP1 CALLDATASIZE SUB DUP2 ADD SWAP1 PUSH2 0x234 SWAP2 SWAP1 PUSH2 0x1DD0 JUMP JUMPDEST PUSH2 0x6D7 JUMP JUMPDEST PUSH1 0x40 MLOAD PUSH2 0x246 SWAP2 SWAP1 PUSH2 0x1E3A JUMP JUMPDEST PUSH1 0x40 MLOAD DUP1 SWAP2 SUB SWAP1 RETURN JUMPDEST PUSH2 0x269 PUSH1 0x4 DUP1 CALLDATASIZE SUB DUP2 ADD SWAP1 PUSH2 0x264 SWAP2 SWAP1 PUSH2 0x1E7D JUMP JUMPDEST PUSH2 0x713 JUMP JUMPDEST STOP JUMPDEST PUSH2 0x273 PUSH2 0x74E JUMP JUMPDEST PUSH1 0x40 MLOAD PUSH2 0x280 SWAP2 SWAP1 PUSH2 0x1ECA JUMP JUMPDEST PUSH1 0x40 MLOAD DUP1 SWAP2 SUB SWAP1 RETURN JUMPDEST PUSH2 0x2A3 PUSH1 0x4 DUP1 CALLDATASIZE SUB DUP2 ADD SWAP1 PUSH2 0x29E SWAP2 SWAP1 PUSH2 0x1F0D JUMP JUMPDEST PUSH2 0x757 JUMP JUMPDEST PUSH1 0x40 MLOAD PUSH2 0x2B0 SWAP2 SWAP1 PUSH2 0x1CDA JUMP JUMPDEST PUSH1 0x40 MLOAD DUP1 SWAP2 SUB SWAP1 RETURN JUMPDEST PUSH2 0x2D3 PUSH1 0x4 DUP1 CALLDATASIZE SUB DUP2 ADD SWAP1 PUSH2 0x2CE SWAP2 SWAP1 PUSH2 0x1F38 JUMP JUMPDEST PUSH2 0x808 JUMP JUMPDEST STOP JUMPDEST PUSH2 0x2EF PUSH1 0x4 DUP1 CALLDATASIZE SUB DUP2 ADD SWAP1 PUSH2 0x2EA SWAP2 SWAP1 PUSH2 0x1E7D JUMP JUMPDEST PUSH2 0x843 JUMP JUMPDEST PUSH1 0x40 MLOAD PUSH2 0x2FC SWAP2 SWAP1 PUSH2 0x1ECA JUMP JUMPDEST PUSH1 0x40 MLOAD DUP1 SWAP2 SUB SWAP1 RETURN JUMPDEST PUSH2 0x31F PUSH1 0x4 DUP1 CALLDATASIZE SUB DUP2 ADD SWAP1 PUSH2 0x31A SWAP2 SWAP1 PUSH2 0x1E7D JUMP JUMPDEST PUSH2 0x962 JUMP JUMPDEST PUSH1 0x40 MLOAD PUSH2 0x32C SWAP2 SWAP1 PUSH2 0x1ECA JUMP JUMPDEST PUSH1 0x40 MLOAD DUP1 SWAP2 SUB SWAP1 RETURN JUMPDEST PUSH2 0x34F PUSH1 0x4 DUP1 CALLDATASIZE SUB DUP2 ADD SWAP1 PUSH2 0x34A SWAP2 SWAP1 PUSH2 0x1F38 JUMP JUMPDEST PUSH2 0x97D JUMP JUMPDEST STOP JUMPDEST PUSH2 0x36B PUSH1 0x4 DUP1 CALLDATASIZE SUB DUP2 ADD SWAP1 PUSH2 0x366 SWAP2 SWAP1 PUSH2 0x1DD0 JUMP JUMPDEST PUSH2 0x9B8 JUMP JUMPDEST PUSH1 0x40 MLOAD PUSH2 0x378 SWAP2 SWAP1 PUSH2 0x1ECA JUMP JUMPDEST PUSH1 0x40 MLOAD DUP1 SWAP2 SUB SWAP1 RETURN JUMPDEST PUSH2 0x39B PUSH1 0x4 DUP1 CALLDATASIZE SUB DUP2 ADD SWAP1 PUSH2 0x396 SWAP2 SWAP1 PUSH2 0x1DD0 JUMP JUMPDEST PUSH2 0x9DB JUMP JUMPDEST PUSH1 0x40 MLOAD PUSH2 0x3A8 SWAP2 SWAP1 PUSH2 0x1E3A JUMP JUMPDEST PUSH1 0x40 MLOAD DUP1 SWAP2 SUB SWAP1 RETURN JUMPDEST PUSH2 0x3CB PUSH1 0x4 DUP1 CALLDATASIZE SUB DUP2 ADD SWAP1 PUSH2 0x3C6 SWAP2 SWAP1 PUSH2 0x1F88 JUMP JUMPDEST PUSH2 0xA1D JUMP JUMPDEST PUSH1 0x40 MLOAD PUSH2 0x3D8 SWAP2 SWAP1 PUSH2 0x1ECA JUMP JUMPDEST PUSH1 0x40 MLOAD DUP1 SWAP2 SUB SWAP1 RETURN JUMPDEST PUSH2 0x3E9 PUSH2 0xA38 JUMP JUMPDEST STOP JUMPDEST PUSH2 0x405 PUSH1 0x4 DUP1 CALLDATASIZE SUB DUP2 ADD SWAP1 PUSH2 0x400 SWAP2 SWAP1 PUSH2 0x1DD0 JUMP JUMPDEST PUSH2 0xA4B JUMP JUMPDEST PUSH1 0x40 MLOAD PUSH2 0x412 SWAP2 SWAP1 PUSH2 0x1ECA JUMP JUMPDEST PUSH1 0x40 MLOAD DUP1 SWAP2 SUB SWAP1 RETURN JUMPDEST PUSH2 0x435 PUSH1 0x4 DUP1 CALLDATASIZE SUB DUP2 ADD SWAP1 PUSH2 0x430 SWAP2 SWAP1 PUSH2 0x1FB3 JUMP JUMPDEST PUSH2 0xA6E JUMP JUMPDEST STOP JUMPDEST PUSH2 0x43F PUSH2 0xAC8 JUMP JUMPDEST PUSH1 0x40 MLOAD PUSH2 0x44C SWAP2 SWAP1 PUSH2 0x1E3A JUMP JUMPDEST PUSH1 0x40 MLOAD DUP1 SWAP2 SUB SWAP1 RETURN JUMPDEST PUSH2 0x45D PUSH2 0xAEF JUMP JUMPDEST PUSH1 0x40 MLOAD PUSH2 0x46A SWAP2 SWAP1 PUSH2 0x1D7D JUMP JUMPDEST PUSH1 0x40 MLOAD DUP1 SWAP2 SUB SWAP1 RETURN JUMPDEST PUSH2 0x48D PUSH1 0x4 DUP1 CALLDATASIZE SUB DUP2 ADD SWAP1 PUSH2 0x488 SWAP2 SWAP1 PUSH2 0x1E7D JUMP JUMPDEST PUSH2 0xB2C JUMP JUMPDEST STOP JUMPDEST PUSH2 0x4A9 PUSH1 0x4 DUP1 CALLDATASIZE SUB DUP2 ADD SWAP1 PUSH2 0x4A4 SWAP2 SWAP1 PUSH2 0x1FF1 JUMP JUMPDEST PUSH2 0xB8F JUMP JUMPDEST STOP JUMPDEST PUSH2 0x4C5 PUSH1 0x4 DUP1 CALLDATASIZE SUB DUP2 ADD SWAP1 PUSH2 0x4C0 SWAP2 SWAP1 PUSH2 0x2090 JUMP JUMPDEST PUSH2 0xBCA JUMP JUMPDEST STOP JUMPDEST PUSH2 0x4E1 PUSH1 0x4 DUP1 CALLDATASIZE SUB DUP2 ADD SWAP1 PUSH2 0x4DC SWAP2 SWAP1 PUSH2 0x1E7D JUMP JUMPDEST PUSH2 0xC05 JUMP JUMPDEST PUSH1 0x40 MLOAD PUSH2 0x4EE SWAP2 SWAP1 PUSH2 0x1ECA JUMP JUMPDEST PUSH1 0x40 MLOAD DUP1 SWAP2 SUB SWAP1 RETURN JUMPDEST PUSH2 0x511 PUSH1 0x4 DUP1 CALLDATASIZE SUB DUP2 ADD SWAP1 PUSH2 0x50C SWAP2 SWAP1 PUSH2 0x1DD0 JUMP JUMPDEST PUSH2 0xC6D JUMP JUMPDEST PUSH1 0x40 MLOAD PUSH2 0x51E SWAP2 SWAP1 PUSH2 0x1D7D JUMP JUMPDEST PUSH1 0x40 MLOAD DUP1 SWAP2 SUB SWAP1 RETURN JUMPDEST PUSH2 0x541 PUSH1 0x4 DUP1 CALLDATASIZE SUB DUP2 ADD SWAP1 PUSH2 0x53C SWAP2 SWAP1 PUSH2 0x1F88 JUMP JUMPDEST PUSH2 0xCE7 JUMP JUMPDEST PUSH1 0x40 MLOAD PUSH2 0x54E SWAP2 SWAP1 PUSH2 0x1CDA JUMP JUMPDEST PUSH1 0x40 MLOAD DUP1 SWAP2 SUB SWAP1 RETURN JUMPDEST PUSH2 0x571 PUSH1 0x4 DUP1 CALLDATASIZE SUB DUP2 ADD SWAP1 PUSH2 0x56C SWAP2 SWAP1 PUSH2 0x223C JUMP JUMPDEST PUSH2 0xCF8 JUMP JUMPDEST PUSH1 0x40 MLOAD PUSH2 0x57E SWAP2 SWAP1 PUSH2 0x1D7D JUMP JUMPDEST PUSH1 0x40 MLOAD DUP1 SWAP2 SUB SWAP1 RETURN JUMPDEST PUSH2 0x58F PUSH2 0xDF0 JUMP JUMPDEST PUSH1 0x40 MLOAD PUSH2 0x59C SWAP2 SWAP1 PUSH2 0x1ECA JUMP JUMPDEST PUSH1 0x40 MLOAD DUP1 SWAP2 SUB SWAP1 RETURN JUMPDEST PUSH2 0x5BF PUSH1 0x4 DUP1 CALLDATASIZE SUB DUP2 ADD SWAP1 PUSH2 0x5BA SWAP2 SWAP1 PUSH2 0x2283 JUMP JUMPDEST PUSH2 0xDF9 JUMP JUMPDEST PUSH1 0x40 MLOAD PUSH2 0x5CC SWAP2 SWAP1 PUSH2 0x1CDA JUMP JUMPDEST PUSH1 0x40 MLOAD DUP1 SWAP2 SUB SWAP1 RETURN JUMPDEST PUSH2 0x5EF PUSH1 0x4 DUP1 CALLDATASIZE SUB DUP2 ADD SWAP1 PUSH2 0x5EA SWAP2 SWAP1 PUSH2 0x1F88 JUMP JUMPDEST PUSH2 0xE35 JUMP JUMPDEST STOP JUMPDEST PUSH2 0x60B PUSH1 0x4 DUP1 CALLDATASIZE SUB DUP2 ADD SWAP1 PUSH2 0x606 SWAP2 SWAP1 PUSH2 0x1E7D JUMP JUMPDEST PUSH2 0xEB7 JUMP JUMPDEST PUSH1 0x40 MLOAD PUSH2 0x618 SWAP2 SWAP1 PUSH2 0x1CDA JUMP JUMPDEST PUSH1 0x40 MLOAD DUP1 SWAP2 SUB SWAP1 RETURN JUMPDEST PUSH0 PUSH32 0x80AC58CD00000000000000000000000000000000000000000000000000000000 PUSH28 0xFFFFFFFFFFFFFFFFFFFFFFFFFFFFFFFFFFFFFFFFFFFFFFFFFFFFFFFF NOT AND DUP3 PUSH28 0xFFFFFFFFFFFFFFFFFFFFFFFFFFFFFFFFFFFFFFFFFFFFFFFFFFFFFFFF NOT AND EQ DUP1 PUSH2 0x693 JUMPI POP PUSH2 0x692 DUP3 PUSH2 0xECA JUMP JUMPDEST JUMPDEST SWAP1 POP SWAP2 SWAP1 POP JUMP JUMPDEST PUSH1 0x60 PUSH1 0x40 MLOAD DUP1 PUSH1 0x40 ADD PUSH1 0x40 MSTORE DUP1 PUSH1 0x6 DUP2 MSTORE PUSH1 0x20 ADD PUSH32 0x484F4E5342540000000000000000000000000000000000000000000000000000 DUP2 MSTORE POP SWAP1 POP SWAP1 JUMP JUMPDEST PUSH0 PUSH1 0x40 MLOAD PUSH32 0x9FC6E75800000000000000000000000000000000000000000000000000000000 DUP2 MSTORE PUSH1 0x4 ADD PUSH2 0x70A SWAP1 PUSH2 0x230B JUMP JUMPDEST PUSH1 0x40 MLOAD DUP1 SWAP2 SUB SWAP1 REVERT JUMPDEST PUSH1 0x40 MLOAD PUSH32 0x9FC6E75800000000000000000000000000000000000000000000000000000000 DUP2 MSTORE PUSH1 0x4 ADD PUSH2 0x745 SWAP1 PUSH2 0x2373 JUMP JUMPDEST PUSH1 0x40 MLOAD DUP1 SWAP2 SUB SWAP1 REVERT JUMPDEST PUSH0 PUSH1 0x3 SLOAD SWAP1 POP SWAP1 JUMP JUMPDEST PUSH0 DUP1 PUSH2 0x762 CALLER PUSH2 0xF33 JUMP JUMPDEST GT PUSH2 0x7A4 JUMPI CALLER PUSH1 0x40 MLOAD PUSH32 0xFACEFFEF00000000000000000000000000000000000000000000000000000000 DUP2 MSTORE PUSH1 0x4 ADD PUSH2 0x79B SWAP2 SWAP1 PUSH2 0x1E3A JUMP JUMPDEST PUSH1 0x40 MLOAD DUP1 SWAP2 SUB SWAP1 REVERT JUMPDEST DUP2 PUSH1 0x8 PUSH0 CALLER PUSH20 0xFFFFFFFFFFFFFFFFFFFFFFFFFFFFFFFFFFFFFFFF AND PUSH20 0xFFFFFFFFFFFFFFFFFFFFFFFFFFFFFFFFFFFFFFFF AND DUP2 MSTORE PUSH1 0x20 ADD SWAP1 DUP2 MSTORE PUSH1 0x20 ADD PUSH0 KECCAK256 PUSH0 PUSH2 0x100 EXP DUP2 SLOAD DUP2 PUSH1 0xFF MUL NOT AND SWAP1 DUP4 ISZERO ISZERO MUL OR SWAP1 SSTORE POP PUSH2 0x801 CALLER PUSH2 0xF79 JUMP JUMPDEST SWAP1 POP SWAP2 SWAP1 POP JUMP JUMPDEST PUSH1 0x40 MLOAD PUSH32 0x9FC6E75800000000000000000000000000000000000000000000000000000000 DUP2 MSTORE PUSH1 0x4 ADD PUSH2 0x83A SWAP1 PUSH2 0x23DB JUMP JUMPDEST PUSH1 0x40 MLOAD DUP1 SWAP2 SUB SWAP1 REVERT JUMPDEST PUSH0 PUSH2 0x84D DUP4 PUSH2 0xF8A JUMP JUMPDEST POP PUSH2 0x857 DUP4 PUSH2 0xF33 JUMP JUMPDEST DUP3 LT PUSH2 0x898 JUMPI PUSH1 0x40 MLOAD PUSH32 0x8C379A000000000000000000000000000000000000000000000000000000000 DUP2 MSTORE PUSH1 0x4 ADD PUSH2 0x88F SWAP1 PUSH2 0x2443 JUMP JUMPDEST PUSH1 0x40 MLOAD DUP1 SWAP2 SUB SWAP1 REVERT JUMPDEST PUSH0 PUSH20 0xFFFFFFFFFFFFFFFFFFFFFFFFFFFFFFFFFFFFFFFF AND DUP4 PUSH20 0xFFFFFFFFFFFFFFFFFFFFFFFFFFFFFFFFFFFFFFFF AND SUB PUSH2 0x908 JUMPI PUSH0 PUSH1 0x40 MLOAD PUSH32 0x74F5E87D00000000000000000000000000000000000000000000000000000000 DUP2 MSTORE PUSH1 0x4 ADD PUSH2 0x8FF SWAP2 SWAP1 PUSH2 0x1E3A JUMP JUMPDEST PUSH1 0x40 MLOAD DUP1 SWAP2 SUB SWAP1 REVERT JUMPDEST PUSH0 PUSH1 0x9 PUSH0 DUP6 PUSH20 0xFFFFFFFFFFFFFFFFFFFFFFFFFFFFFFFFFFFFFFFF AND PUSH20 0xFFFFFFFFFFFFFFFFFFFFFFFFFFFFFFFFFFFFFFFF AND DUP2 MSTORE PUSH1 0x20 ADD SWAP1 DUP2 MSTORE PUSH1 0x20 ADD PUSH0 KECCAK256 PUSH0 DUP5 DUP2 MSTORE PUSH1 0x20 ADD SWAP1 DUP2 MSTORE PUSH1 0x20 ADD PUSH0 KECCAK256 SLOAD SWAP1 POP DUP1 SWAP2 POP POP SWAP3 SWAP2 POP POP JUMP JUMPDEST PUSH0 PUSH2 0x96B PUSH2 0x1025 JUMP JUMPDEST PUSH2 0x975 DUP4 DUP4 PUSH2 0x10A3 JUMP JUMPDEST SWAP1 POP SWAP3 SWAP2 POP POP JUMP JUMPDEST PUSH1 0x40 MLOAD PUSH32 0x9FC6E75800000000000000000000000000000000000000000000000000000000 DUP2 MSTORE PUSH1 0x4 ADD PUSH2 0x9AF SWAP1 PUSH2 0x24AB JUMP JUMPDEST PUSH1 0x40 MLOAD DUP1 SWAP2 SUB SWAP1 REVERT JUMPDEST PUSH0 PUSH2 0x9C2 DUP3 PUSH2 0x113B JUMP JUMPDEST PUSH1 0x6 PUSH0 DUP4 DUP2 MSTORE PUSH1 0x20 ADD SWAP1 DUP2 MSTORE PUSH1 0x20 ADD PUSH0 KECCAK256 SLOAD SWAP1 POP SWAP2 SWAP1 POP JUMP JUMPDEST PUSH0 PUSH2 0x9E5 DUP3 PUSH2 0x113B JUMP JUMPDEST PUSH1 0x4 PUSH0 DUP4 DUP2 MSTORE PUSH1 0x20 ADD SWAP1 DUP2 MSTORE PUSH1 0x20 ADD PUSH0 KECCAK256 PUSH0 SWAP1 SLOAD SWAP1 PUSH2 0x100 EXP SWAP1 DIV PUSH20 0xFFFFFFFFFFFFFFFFFFFFFFFFFFFFFFFFFFFFFFFF AND SWAP1 POP SWAP2 SWAP1 POP JUMP JUMPDEST PUSH0 PUSH2 0xA27 DUP3 PUSH2 0xF8A JUMP JUMPDEST POP PUSH2 0xA31 DUP3 PUSH2 0xF33 JUMP JUMPDEST SWAP1 POP SWAP2 SWAP1 POP JUMP JUMPDEST PUSH2 0xA40 PUSH2 0x1025 JUMP JUMPDEST PUSH2 0xA49 PUSH0 PUSH2 0x11C2 JUMP JUMPDEST JUMP JUMPDEST PUSH0 PUSH2 0xA55 DUP3 PUSH2 0x113B JUMP JUMPDEST PUSH1 0x5 PUSH0 DUP4 DUP2 MSTORE PUSH1 0x20 ADD SWAP1 DUP2 MSTORE PUSH1 0x20 ADD PUSH0 KECCAK256 SLOAD SWAP1 POP SWAP2 SWAP1 POP JUMP JUMPDEST PUSH0 PUSH2 0xA78 CALLER PUSH2 0xF33 JUMP JUMPDEST GT PUSH2 0xABA JUMPI CALLER PUSH1 0x40 MLOAD PUSH32 0xFACEFFEF00000000000000000000000000000000000000000000000000000000 DUP2 MSTORE PUSH1 0x4 ADD PUSH2 0xAB1 SWAP2 SWAP1 PUSH2 0x1E3A JUMP JUMPDEST PUSH1 0x40 MLOAD DUP1 SWAP2 SUB SWAP1 REVERT JUMPDEST PUSH2 0xAC4 DUP3 DUP3 PUSH2 0x1283 JUMP JUMPDEST POP POP JUMP JUMPDEST PUSH0 DUP1 PUSH0 SWAP1 SLOAD SWAP1 PUSH2 0x100 EXP SWAP1 DIV PUSH20 0xFFFFFFFFFFFFFFFFFFFFFFFFFFFFFFFFFFFFFFFF AND SWAP1 POP SWAP1 JUMP JUMPDEST PUSH1 0x60 PUSH1 0x40 MLOAD DUP1 PUSH1 0x40 ADD PUSH1 0x40 MSTORE DUP1 PUSH1 0x6 DUP2 MSTORE PUSH1 0x20 ADD PUSH32 0x484F4E5342540000000000000000000000000000000000000000000000000000 DUP2 MSTORE POP SWAP1 POP SWAP1 JUMP JUMPDEST PUSH2 0xB34 PUSH2 0x1025 JUMP JUMPDEST PUSH2 0xB3E DUP3 DUP3 PUSH2 0x12EA JUMP JUMPDEST PUSH2 0xB81 JUMPI DUP2 DUP2 PUSH1 0x40 MLOAD PUSH32 0x9960858D00000000000000000000000000000000000000000000000000000000 DUP2 MSTORE PUSH1 0x4 ADD PUSH2 0xB78 SWAP3 SWAP2 SWAP1 PUSH2 0x24C9 JUMP JUMPDEST PUSH1 0x40 MLOAD DUP1 SWAP2 SUB SWAP1 REVERT JUMPDEST PUSH2 0xB8B DUP3 DUP3 PUSH2 0x134C JUMP JUMPDEST POP POP JUMP JUMPDEST PUSH1 0x40 MLOAD PUSH32 0x9FC6E75800000000000000000000000000000000000000000000000000000000 DUP2 MSTORE PUSH1 0x4 ADD PUSH2 0xBC1 SWAP1 PUSH2 0x253A JUMP JUMPDEST PUSH1 0x40 MLOAD DUP1 SWAP2 SUB SWAP1 REVERT JUMPDEST PUSH1 0x40 MLOAD PUSH32 0x9FC6E75800000000000000000000000000000000000000000000000000000000 DUP2 MSTORE PUSH1 0x4 ADD PUSH2 0xBFC SWAP1 PUSH2 0x24AB JUMP JUMPDEST PUSH1 0x40 MLOAD DUP1 SWAP2 SUB SWAP1 REVERT JUMPDEST PUSH0 PUSH2 0xC0E PUSH2 0x1025 JUMP JUMPDEST PUSH2 0xC18 DUP4 DUP4 PUSH2 0x12EA JUMP JUMPDEST PUSH2 0xC5B JUMPI DUP3 DUP3 PUSH1 0x40 MLOAD PUSH32 0x9960858D00000000000000000000000000000000000000000000000000000000 DUP2 MSTORE PUSH1 0x4 ADD PUSH2 0xC52 SWAP3 SWAP2 SWAP1 PUSH2 0x24C9 JUMP JUMPDEST PUSH1 0x40 MLOAD DUP1 SWAP2 SUB SWAP1 REVERT JUMPDEST PUSH2 0xC65 DUP4 DUP4 PUSH2 0x13B4 JUMP JUMPDEST SWAP1 POP SWAP3 SWAP2 POP POP JUMP JUMPDEST PUSH1 0x60 PUSH2 0xC78 DUP3 PUSH2 0x113B JUMP JUMPDEST PUSH0 PUSH1 0x1 DUP1 SLOAD PUSH2 0xC86 SWAP1 PUSH2 0x2585 JUMP JUMPDEST SWAP1 POP GT PUSH2 0xCA1 JUMPI PUSH1 0x40 MLOAD DUP1 PUSH1 0x20 ADD PUSH1 0x40 MSTORE DUP1 PUSH0 DUP2 MSTORE POP PUSH2 0xCE0 JUMP JUMPDEST PUSH1 0x1 PUSH2 0xCAC DUP4 PUSH2 0x1455 JUMP JUMPDEST PUSH1 0x5 PUSH0 DUP6 DUP2 MSTORE PUSH1 0x20 ADD SWAP1 DUP2 MSTORE PUSH1 0x20 ADD PUSH0 KECCAK256 SLOAD PUSH1 0x40 MLOAD PUSH1 0x20 ADD PUSH2 0xCD0 SWAP4 SWAP3 SWAP2 SWAP1 PUSH2 0x26EB JUMP JUMPDEST PUSH1 0x40 MLOAD PUSH1 0x20 DUP2 DUP4 SUB SUB DUP2 MSTORE SWAP1 PUSH1 0x40 MSTORE JUMPDEST SWAP1 POP SWAP2 SWAP1 POP JUMP JUMPDEST PUSH0 PUSH2 0xCF1 DUP3 PUSH2 0xF8A JUMP JUMPDEST SWAP1 POP SWAP2 SWAP1 POP JUMP JUMPDEST PUSH1 0x60 PUSH2 0xD02 PUSH2 0x1025 JUMP JUMPDEST DUP2 PUSH1 0x1 SWAP1 DUP2 PUSH2 0xD11 SWAP2 SWAP1 PUSH2 0x28B5 JUMP JUMPDEST POP CALLER PUSH20 0xFFFFFFFFFFFFFFFFFFFFFFFFFFFFFFFFFFFFFFFF AND PUSH32 0x70E6A9DC20D331CE8E747D7DE8444F26F544D9003BEB11D8C46E802AB8D36FC9 DUP4 PUSH1 0x40 MLOAD PUSH2 0xD58 SWAP2 SWAP1 PUSH2 0x1D7D JUMP JUMPDEST PUSH1 0x40 MLOAD DUP1 SWAP2 SUB SWAP1 LOG2 PUSH1 0x1 DUP1 SLOAD PUSH2 0xD6D SWAP1 PUSH2 0x2585 JUMP JUMPDEST DUP1 PUSH1 0x1F ADD PUSH1 0x20 DUP1 SWAP2 DIV MUL PUSH1 0x20 ADD PUSH1 0x40 MLOAD SWAP1 DUP2 ADD PUSH1 0x40 MSTORE DUP1 SWAP3 SWAP2 SWAP1 DUP2 DUP2 MSTORE PUSH1 0x20 ADD DUP3 DUP1 SLOAD PUSH2 0xD99 SWAP1 PUSH2 0x2585 JUMP JUMPDEST DUP1 ISZERO PUSH2 0xDE4 JUMPI DUP1 PUSH1 0x1F LT PUSH2 0xDBB JUMPI PUSH2 0x100 DUP1 DUP4 SLOAD DIV MUL DUP4 MSTORE SWAP2 PUSH1 0x20 ADD SWAP2 PUSH2 0xDE4 JUMP JUMPDEST DUP3 ADD SWAP2 SWAP1 PUSH0 MSTORE PUSH1 0x20 PUSH0 KECCAK256 SWAP1 JUMPDEST DUP2 SLOAD DUP2 MSTORE SWAP1 PUSH1 0x1 ADD SWAP1 PUSH1 0x20 ADD DUP1 DUP4 GT PUSH2 0xDC7 JUMPI DUP3 SWAP1 SUB PUSH1 0x1F AND DUP3 ADD SWAP2 JUMPDEST POP POP POP POP POP SWAP1 POP SWAP2 SWAP1 POP JUMP JUMPDEST PUSH0 PUSH1 0x2 SLOAD SWAP1 POP SWAP1 JUMP JUMPDEST PUSH0 PUSH1 0x40 MLOAD PUSH32 0x9FC6E75800000000000000000000000000000000000000000000000000000000 DUP2 MSTORE PUSH1 0x4 ADD PUSH2 0xE2C SWAP1 PUSH2 0x29CE JUMP JUMPDEST PUSH1 0x40 MLOAD DUP1 SWAP2 SUB SWAP1 REVERT JUMPDEST PUSH2 0xE3D PUSH2 0x1025 JUMP JUMPDEST PUSH0 PUSH20 0xFFFFFFFFFFFFFFFFFFFFFFFFFFFFFFFFFFFFFFFF AND DUP2 PUSH20 0xFFFFFFFFFFFFFFFFFFFFFFFFFFFFFFFFFFFFFFFF AND SUB PUSH2 0xEAB JUMPI PUSH1 0x40 MLOAD PUSH32 0x8C379A000000000000000000000000000000000000000000000000000000000 DUP2 MSTORE PUSH1 0x4 ADD PUSH2 0xEA2 SWAP1 PUSH2 0x2A5C JUMP JUMPDEST PUSH1 0x40 MLOAD DUP1 SWAP2 SUB SWAP1 REVERT JUMPDEST PUSH2 0xEB4 DUP2 PUSH2 0x11C2 JUMP JUMPDEST POP JUMP JUMPDEST PUSH0 PUSH2 0xEC2 DUP4 DUP4 PUSH2 0x12EA JUMP JUMPDEST SWAP1 POP SWAP3 SWAP2 POP POP JUMP JUMPDEST PUSH0 PUSH32 0x1FFC9A700000000000000000000000000000000000000000000000000000000 PUSH28 0xFFFFFFFFFFFFFFFFFFFFFFFFFFFFFFFFFFFFFFFFFFFFFFFFFFFFFFFF NOT AND DUP3 PUSH28 0xFFFFFFFFFFFFFFFFFFFFFFFFFFFFFFFFFFFFFFFFFFFFFFFFFFFFFFFF NOT AND EQ SWAP1 POP SWAP2 SWAP1 POP JUMP JUMPDEST PUSH0 PUSH1 0x7 PUSH0 DUP4 PUSH20 0xFFFFFFFFFFFFFFFFFFFFFFFFFFFFFFFFFFFFFFFF AND PUSH20 0xFFFFFFFFFFFFFFFFFFFFFFFFFFFFFFFFFFFFFFFF AND DUP2 MSTORE PUSH1 0x20 ADD SWAP1 DUP2 MSTORE PUSH1 0x20 ADD PUSH0 KECCAK256 SLOAD SWAP1 POP SWAP2 SWAP1 POP JUMP JUMPDEST PUSH0 PUSH2 0xF83 DUP3 PUSH2 0x151F JUMP JUMPDEST SWAP1 POP SWAP2 SWAP1 POP JUMP JUMPDEST PUSH0 PUSH1 0x1 ISZERO ISZERO PUSH1 0x8 PUSH0 DUP5 PUSH20 0xFFFFFFFFFFFFFFFFFFFFFFFFFFFFFFFFFFFFFFFF AND PUSH20 0xFFFFFFFFFFFFFFFFFFFFFFFFFFFFFFFFFFFFFFFF AND DUP2 MSTORE PUSH1 0x20 ADD SWAP1 DUP2 MSTORE PUSH1 0x20 ADD PUSH0 KECCAK256 PUSH0 SWAP1 SLOAD SWAP1 PUSH2 0x100 EXP SWAP1 DIV PUSH1 0xFF AND ISZERO ISZERO SUB PUSH2 0x101D JUMPI DUP2 PUSH1 0x40 MLOAD PUSH32 0x904E928B00000000000000000000000000000000000000000000000000000000 DUP2 MSTORE PUSH1 0x4 ADD PUSH2 0x1014 SWAP2 SWAP1 PUSH2 0x1E3A JUMP JUMPDEST PUSH1 0x40 MLOAD DUP1 SWAP2 SUB SWAP1 REVERT JUMPDEST PUSH0 SWAP1 POP SWAP2 SWAP1 POP JUMP JUMPDEST PUSH2 0x102D PUSH2 0x1571 JUMP JUMPDEST PUSH20 0xFFFFFFFFFFFFFFFFFFFFFFFFFFFFFFFFFFFFFFFF AND PUSH2 0x104B PUSH2 0xAC8 JUMP JUMPDEST PUSH20 0xFFFFFFFFFFFFFFFFFFFFFFFFFFFFFFFFFFFFFFFF AND EQ PUSH2 0x10A1 JUMPI PUSH1 0x40 MLOAD PUSH32 0x8C379A000000000000000000000000000000000000000000000000000000000 DUP2 MSTORE PUSH1 0x4 ADD PUSH2 0x1098 SWAP1 PUSH2 0x2AC4 JUMP JUMPDEST PUSH1 0x40 MLOAD DUP1 SWAP2 SUB SWAP1 REVERT JUMPDEST JUMP JUMPDEST PUSH0 DUP1 PUSH2 0x10AF DUP5 DUP5 PUSH2 0x1578 JUMP JUMPDEST SWAP1 POP PUSH2 0x10F2 PUSH0 DUP6 DUP4 PUSH1 0x40 MLOAD DUP1 PUSH1 0x40 ADD PUSH1 0x40 MSTORE DUP1 PUSH1 0x8 DUP2 MSTORE PUSH1 0x20 ADD PUSH32 0x4D696E7420534254000000000000000000000000000000000000000000000000 DUP2 MSTORE POP PUSH2 0x189C JUMP JUMPDEST PUSH2 0x1131 JUMPI PUSH1 0x40 MLOAD PUSH32 0x8C379A000000000000000000000000000000000000000000000000000000000 DUP2 MSTORE PUSH1 0x4 ADD PUSH2 0x1128 SWAP1 PUSH2 0x2B52 JUMP JUMPDEST PUSH1 0x40 MLOAD DUP1 SWAP2 SUB SWAP1 REVERT JUMPDEST DUP1 SWAP2 POP POP SWAP3 SWAP2 POP POP JUMP JUMPDEST PUSH2 0x1144 DUP2 PUSH2 0x1989 JUMP JUMPDEST PUSH2 0x1185 JUMPI DUP1 PUSH1 0x40 MLOAD PUSH32 0x24476A3F00000000000000000000000000000000000000000000000000000000 DUP2 MSTORE PUSH1 0x4 ADD PUSH2 0x117C SWAP2 SWAP1 PUSH2 0x1ECA JUMP JUMPDEST PUSH1 0x40 MLOAD DUP1 SWAP2 SUB SWAP1 REVERT JUMPDEST PUSH2 0x11BE PUSH1 0x4 PUSH0 DUP4 DUP2 MSTORE PUSH1 0x20 ADD SWAP1 DUP2 MSTORE PUSH1 0x20 ADD PUSH0 KECCAK256 PUSH0 SWAP1 SLOAD SWAP1 PUSH2 0x100 EXP SWAP1 DIV PUSH20 0xFFFFFFFFFFFFFFFFFFFFFFFFFFFFFFFFFFFFFFFF AND PUSH2 0xF8A JUMP JUMPDEST POP POP JUMP JUMPDEST PUSH0 DUP1 PUSH0 SWAP1 SLOAD SWAP1 PUSH2 0x100 EXP SWAP1 DIV PUSH20 0xFFFFFFFFFFFFFFFFFFFFFFFFFFFFFFFFFFFFFFFF AND SWAP1 POP DUP2 PUSH0 DUP1 PUSH2 0x100 EXP DUP2 SLOAD DUP2 PUSH20 0xFFFFFFFFFFFFFFFFFFFFFFFFFFFFFFFFFFFFFFFF MUL NOT AND SWAP1 DUP4 PUSH20 0xFFFFFFFFFFFFFFFFFFFFFFFFFFFFFFFFFFFFFFFF AND MUL OR SWAP1 SSTORE POP DUP2 PUSH20 0xFFFFFFFFFFFFFFFFFFFFFFFFFFFFFFFFFFFFFFFF AND DUP2 PUSH20 0xFFFFFFFFFFFFFFFFFFFFFFFFFFFFFFFFFFFFFFFF AND PUSH32 0x8BE0079C531659141344CD1FD0A4F28419497F9722A3DAAFE3B4186F6B6457E0 PUSH1 0x40 MLOAD PUSH1 0x40 MLOAD DUP1 SWAP2 SUB SWAP1 LOG3 POP POP JUMP JUMPDEST DUP1 PUSH1 0xA PUSH0 CALLER PUSH20 0xFFFFFFFFFFFFFFFFFFFFFFFFFFFFFFFFFFFFFFFF AND PUSH20 0xFFFFFFFFFFFFFFFFFFFFFFFFFFFFFFFFFFFFFFFF AND DUP2 MSTORE PUSH1 0x20 ADD SWAP1 DUP2 MSTORE PUSH1 0x20 ADD PUSH0 KECCAK256 PUSH0 DUP5 DUP2 MSTORE PUSH1 0x20 ADD SWAP1 DUP2 MSTORE PUSH1 0x20 ADD PUSH0 KECCAK256 PUSH0 PUSH2 0x100 EXP DUP2 SLOAD DUP2 PUSH1 0xFF MUL NOT AND SWAP1 DUP4 ISZERO ISZERO MUL OR SWAP1 SSTORE POP POP POP JUMP JUMPDEST PUSH0 PUSH1 0xA PUSH0 DUP5 PUSH20 0xFFFFFFFFFFFFFFFFFFFFFFFFFFFFFFFFFFFFFFFF AND PUSH20 0xFFFFFFFFFFFFFFFFFFFFFFFFFFFFFFFFFFFFFFFF AND DUP2 MSTORE PUSH1 0x20 ADD SWAP1 DUP2 MSTORE PUSH1 0x20 ADD PUSH0 KECCAK256 PUSH0 DUP4 DUP2 MSTORE PUSH1 0x20 ADD SWAP1 DUP2 MSTORE PUSH1 0x20 ADD PUSH0 KECCAK256 PUSH0 SWAP1 SLOAD SWAP1 PUSH2 0x100 EXP SWAP1 DIV PUSH1 0xFF AND SWAP1 POP SWAP3 SWAP2 POP POP JUMP JUMPDEST PUSH2 0x1356 DUP3 DUP3 PUSH2 0x19C9 JUMP JUMPDEST PUSH0 PUSH1 0x6 PUSH0 DUP4 DUP2 MSTORE PUSH1 0x20 ADD SWAP1 DUP2 MSTORE PUSH1 0x20 ADD PUSH0 KECCAK256 DUP2 SWAP1 SSTORE POP DUP1 DUP3 PUSH20 0xFFFFFFFFFFFFFFFFFFFFFFFFFFFFFFFFFFFFFFFF AND PUSH32 0x154FA90F2D3692DF165AFACDCD7755B2E9D98A892A80CC1DDA63F3A9CC1E64A4 PUSH1 0x40 MLOAD PUSH1 0x40 MLOAD DUP1 SWAP2 SUB SWAP1 LOG3 POP POP JUMP JUMPDEST PUSH0 PUSH2 0x13BF DUP4 DUP4 PUSH2 0x19C9 JUMP JUMPDEST PUSH1 0x1 PUSH1 0x6 PUSH0 DUP5 DUP2 MSTORE PUSH1 0x20 ADD SWAP1 DUP2 MSTORE PUSH1 0x20 ADD PUSH0 KECCAK256 PUSH0 DUP3 DUP3 SLOAD PUSH2 0x13E0 SWAP2 SWAP1 PUSH2 0x2B9D JUMP JUMPDEST SWAP3 POP POP DUP2 SWAP1 SSTORE POP PUSH0 PUSH1 0x6 PUSH0 DUP5 DUP2 MSTORE PUSH1 0x20 ADD SWAP1 DUP2 MSTORE PUSH1 0x20 ADD PUSH0 KECCAK256 SLOAD SWAP1 POP DUP1 DUP5 PUSH20 0xFFFFFFFFFFFFFFFFFFFFFFFFFFFFFFFFFFFFFFFF AND PUSH32 0x48FFD7FDB1C1A0561A2D410317F6BB839AAB64898DE6FC73EE703A9C0DC0A36C DUP6 PUSH1 0x40 MLOAD PUSH2 0x1443 SWAP2 SWAP1 PUSH2 0x1ECA JUMP JUMPDEST PUSH1 0x40 MLOAD DUP1 SWAP2 SUB SWAP1 LOG3 DUP1 SWAP2 POP POP SWAP3 SWAP2 POP POP JUMP JUMPDEST PUSH1 0x60 PUSH0 PUSH1 0x1 PUSH2 0x1463 DUP5 PUSH2 0x1A45 JUMP JUMPDEST ADD SWAP1 POP PUSH0 DUP2 PUSH8 0xFFFFFFFFFFFFFFFF DUP2 GT ISZERO PUSH2 0x1481 JUMPI PUSH2 0x1480 PUSH2 0x2118 JUMP JUMPDEST JUMPDEST PUSH1 0x40 MLOAD SWAP1 DUP1 DUP3 MSTORE DUP1 PUSH1 0x1F ADD PUSH1 0x1F NOT AND PUSH1 0x20 ADD DUP3 ADD PUSH1 0x40 MSTORE DUP1 ISZERO PUSH2 0x14B3 JUMPI DUP2 PUSH1 0x20 ADD PUSH1 0x1 DUP3 MUL DUP1 CALLDATASIZE DUP4 CALLDATACOPY DUP1 DUP3 ADD SWAP2 POP POP SWAP1 POP JUMPDEST POP SWAP1 POP PUSH0 DUP3 PUSH1 0x20 ADD DUP3 ADD SWAP1 POP JUMPDEST PUSH1 0x1 ISZERO PUSH2 0x1514 JUMPI DUP1 DUP1 PUSH1 0x1 SWAP1 SUB SWAP2 POP POP PUSH32 0x3031323334353637383961626364656600000000000000000000000000000000 PUSH1 0xA DUP7 MOD BYTE DUP2 MSTORE8 PUSH1 0xA DUP6 DUP2 PUSH2 0x1509 JUMPI PUSH2 0x1508 PUSH2 0x2BD0 JUMP JUMPDEST JUMPDEST DIV SWAP5 POP PUSH0 DUP6 SUB PUSH2 0x14C0 JUMPI JUMPDEST DUP2 SWAP4 POP POP POP POP SWAP2 SWAP1 POP JUMP JUMPDEST PUSH0 PUSH1 0x8 PUSH0 DUP4 PUSH20 0xFFFFFFFFFFFFFFFFFFFFFFFFFFFFFFFFFFFFFFFF AND PUSH20 0xFFFFFFFFFFFFFFFFFFFFFFFFFFFFFFFFFFFFFFFF AND DUP2 MSTORE PUSH1 0x20 ADD SWAP1 DUP2 MSTORE PUSH1 0x20 ADD PUSH0 KECCAK256 PUSH0 SWAP1 SLOAD SWAP1 PUSH2 0x100 EXP SWAP1 DIV PUSH1 0xFF AND SWAP1 POP SWAP2 SWAP1 POP JUMP JUMPDEST PUSH0 CALLER SWAP1 POP SWAP1 JUMP JUMPDEST PUSH0 DUP1 PUSH1 0x1 PUSH1 0x3 SLOAD PUSH2 0x1589 SWAP2 SWAP1 PUSH2 0x2B9D JUMP JUMPDEST SWAP1 POP PUSH0 PUSH20 0xFFFFFFFFFFFFFFFFFFFFFFFFFFFFFFFFFFFFFFFF AND DUP5 PUSH20 0xFFFFFFFFFFFFFFFFFFFFFFFFFFFFFFFFFFFFFFFF AND SUB PUSH2 0x15FB JUMPI PUSH0 PUSH1 0x40 MLOAD PUSH32 0x74F5E87D00000000000000000000000000000000000000000000000000000000 DUP2 MSTORE PUSH1 0x4 ADD PUSH2 0x15F2 SWAP2 SWAP1 PUSH2 0x1E3A JUMP JUMPDEST PUSH1 0x40 MLOAD DUP1 SWAP2 SUB SWAP1 REVERT JUMPDEST PUSH2 0x1604 DUP2 PUSH2 0x1989 JUMP JUMPDEST ISZERO PUSH2 0x1646 JUMPI DUP1 PUSH1 0x40 MLOAD PUSH32 0xF342BDC200000000000000000000000000000000000000000000000000000000 DUP2 MSTORE PUSH1 0x4 ADD PUSH2 0x163D SWAP2 SWAP1 PUSH2 0x1ECA JUMP JUMPDEST PUSH1 0x40 MLOAD DUP1 SWAP2 SUB SWAP1 REVERT JUMPDEST PUSH2 0x164F DUP5 PUSH2 0x1B96 JUMP JUMPDEST PUSH2 0x166D JUMPI PUSH1 0x1 PUSH1 0x2 PUSH0 DUP3 DUP3 SLOAD PUSH2 0x1665 SWAP2 SWAP1 PUSH2 0x2B9D JUMP JUMPDEST SWAP3 POP POP DUP2 SWAP1 SSTORE POP JUMPDEST PUSH1 0x1 PUSH1 0x7 PUSH0 DUP7 PUSH20 0xFFFFFFFFFFFFFFFFFFFFFFFFFFFFFFFFFFFFFFFF AND PUSH20 0xFFFFFFFFFFFFFFFFFFFFFFFFFFFFFFFFFFFFFFFF AND DUP2 MSTORE PUSH1 0x20 ADD SWAP1 DUP2 MSTORE PUSH1 0x20 ADD PUSH0 KECCAK256 PUSH0 DUP3 DUP3 SLOAD ADD SWAP3 POP POP DUP2 SWAP1 SSTORE POP PUSH1 0x1 PUSH1 0x3 PUSH0 DUP3 DUP3 SLOAD ADD SWAP3 POP POP DUP2 SWAP1 SSTORE POP DUP4 PUSH1 0x4 PUSH0 DUP4 DUP2 MSTORE PUSH1 0x20 ADD SWAP1 DUP2 MSTORE PUSH1 0x20 ADD PUSH0 KECCAK256 PUSH0 PUSH2 0x100 EXP DUP2 SLOAD DUP2 PUSH20 0xFFFFFFFFFFFFFFFFFFFFFFFFFFFFFFFFFFFFFFFF MUL NOT AND SWAP1 DUP4 PUSH20 0xFFFFFFFFFFFFFFFFFFFFFFFFFFFFFFFFFFFFFFFF AND MUL OR SWAP1 SSTORE POP DUP3 PUSH1 0x5 PUSH0 DUP4 DUP2 MSTORE PUSH1 0x20 ADD SWAP1 DUP2 MSTORE PUSH1 0x20 ADD PUSH0 KECCAK256 DUP2 SWAP1 SSTORE POP PUSH1 0x1 PUSH1 0x6 PUSH0 DUP4 DUP2 MSTORE PUSH1 0x20 ADD SWAP1 DUP2 MSTORE PUSH1 0x20 ADD PUSH0 KECCAK256 DUP2 SWAP1 SSTORE POP PUSH1 0x1 PUSH1 0xA PUSH0 DUP7 PUSH20 0xFFFFFFFFFFFFFFFFFFFFFFFFFFFFFFFFFFFFFFFF AND PUSH20 0xFFFFFFFFFFFFFFFFFFFFFFFFFFFFFFFFFFFFFFFF AND DUP2 MSTORE PUSH1 0x20 ADD SWAP1 DUP2 MSTORE PUSH1 0x20 ADD PUSH0 KECCAK256 PUSH0 DUP4 DUP2 MSTORE PUSH1 0x20 ADD SWAP1 DUP2 MSTORE PUSH1 0x20 ADD PUSH0 KECCAK256 PUSH0 PUSH2 0x100 EXP DUP2 SLOAD DUP2 PUSH1 0xFF MUL NOT AND SWAP1 DUP4 ISZERO ISZERO MUL OR SWAP1 SSTORE POP DUP1 PUSH1 0x9 PUSH0 DUP7 PUSH20 0xFFFFFFFFFFFFFFFFFFFFFFFFFFFFFFFFFFFFFFFF AND PUSH20 0xFFFFFFFFFFFFFFFFFFFFFFFFFFFFFFFFFFFFFFFF AND DUP2 MSTORE PUSH1 0x20 ADD SWAP1 DUP2 MSTORE PUSH1 0x20 ADD PUSH0 KECCAK256 PUSH0 PUSH1 0x1 PUSH1 0x7 PUSH0 DUP10 PUSH20 0xFFFFFFFFFFFFFFFFFFFFFFFFFFFFFFFFFFFFFFFF AND PUSH20 0xFFFFFFFFFFFFFFFFFFFFFFFFFFFFFFFFFFFFFFFF AND DUP2 MSTORE PUSH1 0x20 ADD SWAP1 DUP2 MSTORE PUSH1 0x20 ADD PUSH0 KECCAK256 SLOAD PUSH2 0x1831 SWAP2 SWAP1 PUSH2 0x2BFD JUMP JUMPDEST DUP2 MSTORE PUSH1 0x20 ADD SWAP1 DUP2 MSTORE PUSH1 0x20 ADD PUSH0 KECCAK256 DUP2 SWAP1 SSTORE POP DUP3 DUP2 DUP6 PUSH20 0xFFFFFFFFFFFFFFFFFFFFFFFFFFFFFFFFFFFFFFFF AND PUSH32 0x2F00E3CDD69A77BE7ED215EC7B2A36784DD158F921FCA79AC29DEFFA353FE6EE PUSH0 PUSH1 0x40 MLOAD PUSH2 0x188A SWAP2 SWAP1 PUSH2 0x1E3A JUMP JUMPDEST PUSH1 0x40 MLOAD DUP1 SWAP2 SUB SWAP1 LOG4 DUP1 SWAP2 POP POP SWAP3 SWAP2 POP POP JUMP JUMPDEST PUSH0 PUSH2 0x18A6 DUP5 PUSH2 0x1BDF JUMP JUMPDEST PUSH2 0x18B3 JUMPI PUSH1 0x1 SWAP1 POP PUSH2 0x1981 JUMP JUMPDEST PUSH0 DUP5 PUSH20 0xFFFFFFFFFFFFFFFFFFFFFFFFFFFFFFFFFFFFFFFF AND PUSH4 0x150B7A02 CALLER DUP9 DUP8 DUP8 PUSH1 0x40 MLOAD DUP6 PUSH4 0xFFFFFFFF AND PUSH1 0xE0 SHL DUP2 MSTORE PUSH1 0x4 ADD PUSH2 0x18F3 SWAP5 SWAP4 SWAP3 SWAP2 SWAP1 PUSH2 0x2C82 JUMP JUMPDEST PUSH1 0x20 PUSH1 0x40 MLOAD DUP1 DUP4 SUB DUP2 PUSH0 DUP8 GAS CALL ISZERO DUP1 ISZERO PUSH2 0x190F JUMPI RETURNDATASIZE PUSH0 DUP1 RETURNDATACOPY RETURNDATASIZE PUSH0 REVERT JUMPDEST POP POP POP POP PUSH1 0x40 MLOAD RETURNDATASIZE PUSH1 0x1F NOT PUSH1 0x1F DUP3 ADD AND DUP3 ADD DUP1 PUSH1 0x40 MSTORE POP DUP2 ADD SWAP1 PUSH2 0x1933 SWAP2 SWAP1 PUSH2 0x2CE0 JUMP JUMPDEST SWAP1 POP PUSH4 0x150B7A02 PUSH1 0xE0 SHL PUSH28 0xFFFFFFFFFFFFFFFFFFFFFFFFFFFFFFFFFFFFFFFFFFFFFFFFFFFFFFFF NOT AND DUP2 PUSH28 0xFFFFFFFFFFFFFFFFFFFFFFFFFFFFFFFFFFFFFFFFFFFFFFFFFFFFFFFF NOT AND EQ SWAP2 POP POP JUMPDEST SWAP5 SWAP4 POP POP POP POP JUMP JUMPDEST PUSH0 DUP1 PUSH20 0xFFFFFFFFFFFFFFFFFFFFFFFFFFFFFFFFFFFFFFFF AND PUSH2 0x19AA DUP4 PUSH2 0x1BF6 JUMP JUMPDEST PUSH20 0xFFFFFFFFFFFFFFFFFFFFFFFFFFFFFFFFFFFFFFFF AND EQ ISZERO SWAP1 POP SWAP2 SWAP1 POP JUMP JUMPDEST DUP2 PUSH20 0xFFFFFFFFFFFFFFFFFFFFFFFFFFFFFFFFFFFFFFFF AND PUSH2 0x19E9 DUP3 PUSH2 0x1BF6 JUMP JUMPDEST PUSH20 0xFFFFFFFFFFFFFFFFFFFFFFFFFFFFFFFFFFFFFFFF AND EQ PUSH2 0x1A41 JUMPI DUP2 PUSH1 0x40 MLOAD PUSH32 0x5015929900000000000000000000000000000000000000000000000000000000 DUP2 MSTORE PUSH1 0x4 ADD PUSH2 0x1A38 SWAP2 SWAP1 PUSH2 0x1E3A JUMP JUMPDEST PUSH1 0x40 MLOAD DUP1 SWAP2 SUB SWAP1 REVERT JUMPDEST POP POP JUMP JUMPDEST PUSH0 DUP1 PUSH0 SWAP1 POP PUSH27 0x184F03E93FF9F4DAA797ED6E38ED64BF6A1F010000000000000000 DUP4 LT PUSH2 0x1AA1 JUMPI PUSH27 0x184F03E93FF9F4DAA797ED6E38ED64BF6A1F010000000000000000 DUP4 DUP2 PUSH2 0x1A97 JUMPI PUSH2 0x1A96 PUSH2 0x2BD0 JUMP JUMPDEST JUMPDEST DIV SWAP3 POP PUSH1 0x40 DUP2 ADD SWAP1 POP JUMPDEST PUSH14 0x4EE2D6D415B85ACEF8100000000 DUP4 LT PUSH2 0x1ADE JUMPI PUSH14 0x4EE2D6D415B85ACEF8100000000 DUP4 DUP2 PUSH2 0x1AD4 JUMPI PUSH2 0x1AD3 PUSH2 0x2BD0 JUMP JUMPDEST JUMPDEST DIV SWAP3 POP PUSH1 0x20 DUP2 ADD SWAP1 POP JUMPDEST PUSH7 0x2386F26FC10000 DUP4 LT PUSH2 0x1B0D JUMPI PUSH7 0x2386F26FC10000 DUP4 DUP2 PUSH2 0x1B03 JUMPI PUSH2 0x1B02 PUSH2 0x2BD0 JUMP JUMPDEST JUMPDEST DIV SWAP3 POP PUSH1 0x10 DUP2 ADD SWAP1 POP JUMPDEST PUSH4 0x5F5E100 DUP4 LT PUSH2 0x1B36 JUMPI PUSH4 0x5F5E100 DUP4 DUP2 PUSH2 0x1B2C JUMPI PUSH2 0x1B2B PUSH2 0x2BD0 JUMP JUMPDEST JUMPDEST DIV SWAP3 POP PUSH1 0x8 DUP2 ADD SWAP1 POP JUMPDEST PUSH2 0x2710 DUP4 LT PUSH2 0x1B5B JUMPI PUSH2 0x2710 DUP4 DUP2 PUSH2 0x1B51 JUMPI PUSH2 0x1B50 PUSH2 0x2BD0 JUMP JUMPDEST JUMPDEST DIV SWAP3 POP PUSH1 0x4 DUP2 ADD SWAP1 POP JUMPDEST PUSH1 0x64 DUP4 LT PUSH2 0x1B7E JUMPI PUSH1 0x64 DUP4 DUP2 PUSH2 0x1B74 JUMPI PUSH2 0x1B73 PUSH2 0x2BD0 JUMP JUMPDEST JUMPDEST DIV SWAP3 POP PUSH1 0x2 DUP2 ADD SWAP1 POP JUMPDEST PUSH1 0xA DUP4 LT PUSH2 0x1B8D JUMPI PUSH1 0x1 DUP2 ADD SWAP1 POP JUMPDEST DUP1 SWAP2 POP POP SWAP2 SWAP1 POP JUMP JUMPDEST PUSH0 DUP1 PUSH1 0x7 PUSH0 DUP5 PUSH20 0xFFFFFFFFFFFFFFFFFFFFFFFFFFFFFFFFFFFFFFFF AND PUSH20 0xFFFFFFFFFFFFFFFFFFFFFFFFFFFFFFFFFFFFFFFF AND DUP2 MSTORE PUSH1 0x20 ADD SWAP1 DUP2 MSTORE PUSH1 0x20 ADD PUSH0 KECCAK256 SLOAD EQ ISZERO SWAP1 POP SWAP2 SWAP1 POP JUMP JUMPDEST PUSH0 DUP1 DUP3 EXTCODESIZE SWAP1 POP PUSH0 DUP2 PUSH4 0xFFFFFFFF AND GT SWAP2 POP POP SWAP2 SWAP1 POP JUMP JUMPDEST PUSH0 PUSH1 0x4 PUSH0 DUP4 DUP2 MSTORE PUSH1 0x20 ADD SWAP1 DUP2 MSTORE PUSH1 0x20 ADD PUSH0 KECCAK256 PUSH0 SWAP1 SLOAD SWAP1 PUSH2 0x100 EXP SWAP1 DIV PUSH20 0xFFFFFFFFFFFFFFFFFFFFFFFFFFFFFFFFFFFFFFFF AND SWAP1 POP SWAP2 SWAP1 POP JUMP JUMPDEST PUSH0 PUSH1 0x40 MLOAD SWAP1 POP SWAP1 JUMP JUMPDEST PUSH0 DUP1 REVERT JUMPDEST PUSH0 DUP1 REVERT JUMPDEST PUSH0 PUSH32 0xFFFFFFFF00000000000000000000000000000000000000000000000000000000 DUP3 AND SWAP1 POP SWAP2 SWAP1 POP JUMP JUMPDEST PUSH2 0x1C74 DUP2 PUSH2 0x1C40 JUMP JUMPDEST DUP2 EQ PUSH2 0x1C7E JUMPI PUSH0 DUP1 REVERT JUMPDEST POP JUMP JUMPDEST PUSH0 DUP2 CALLDATALOAD SWAP1 POP PUSH2 0x1C8F DUP2 PUSH2 0x1C6B JUMP JUMPDEST SWAP3 SWAP2 POP POP JUMP JUMPDEST PUSH0 PUSH1 0x20 DUP3 DUP5 SUB SLT ISZERO PUSH2 0x1CAA JUMPI PUSH2 0x1CA9 PUSH2 0x1C38 JUMP JUMPDEST JUMPDEST PUSH0 PUSH2 0x1CB7 DUP5 DUP3 DUP6 ADD PUSH2 0x1C81 JUMP JUMPDEST SWAP2 POP POP SWAP3 SWAP2 POP POP JUMP JUMPDEST PUSH0 DUP2 ISZERO ISZERO SWAP1 POP SWAP2 SWAP1 POP JUMP JUMPDEST PUSH2 0x1CD4 DUP2 PUSH2 0x1CC0 JUMP JUMPDEST DUP3 MSTORE POP POP JUMP JUMPDEST PUSH0 PUSH1 0x20 DUP3 ADD SWAP1 POP PUSH2 0x1CED PUSH0 DUP4 ADD DUP5 PUSH2 0x1CCB JUMP JUMPDEST SWAP3 SWAP2 POP POP JUMP JUMPDEST PUSH0 DUP2 MLOAD SWAP1 POP SWAP2 SWAP1 POP JUMP JUMPDEST PUSH0 DUP3 DUP3 MSTORE PUSH1 0x20 DUP3 ADD SWAP1 POP SWAP3 SWAP2 POP POP JUMP JUMPDEST PUSH0 JUMPDEST DUP4 DUP2 LT ISZERO PUSH2 0x1D2A JUMPI DUP1 DUP3 ADD MLOAD DUP2 DUP5 ADD MSTORE PUSH1 0x20 DUP2 ADD SWAP1 POP PUSH2 0x1D0F JUMP JUMPDEST PUSH0 DUP5 DUP5 ADD MSTORE POP POP POP POP JUMP JUMPDEST PUSH0 PUSH1 0x1F NOT PUSH1 0x1F DUP4 ADD AND SWAP1 POP SWAP2 SWAP1 POP JUMP JUMPDEST PUSH0 PUSH2 0x1D4F DUP3 PUSH2 0x1CF3 JUMP JUMPDEST PUSH2 0x1D59 DUP2 DUP6 PUSH2 0x1CFD JUMP JUMPDEST SWAP4 POP PUSH2 0x1D69 DUP2 DUP6 PUSH1 0x20 DUP7 ADD PUSH2 0x1D0D JUMP JUMPDEST PUSH2 0x1D72 DUP2 PUSH2 0x1D35 JUMP JUMPDEST DUP5 ADD SWAP2 POP POP SWAP3 SWAP2 POP POP JUMP JUMPDEST PUSH0 PUSH1 0x20 DUP3 ADD SWAP1 POP DUP2 DUP2 SUB PUSH0 DUP4 ADD MSTORE PUSH2 0x1D95 DUP2 DUP5 PUSH2 0x1D45 JUMP JUMPDEST SWAP1 POP SWAP3 SWAP2 POP POP JUMP JUMPDEST PUSH0 DUP2 SWAP1 POP SWAP2 SWAP1 POP JUMP JUMPDEST PUSH2 0x1DAF DUP2 PUSH2 0x1D9D JUMP JUMPDEST DUP2 EQ PUSH2 0x1DB9 JUMPI PUSH0 DUP1 REVERT JUMPDEST POP JUMP JUMPDEST PUSH0 DUP2 CALLDATALOAD SWAP1 POP PUSH2 0x1DCA DUP2 PUSH2 0x1DA6 JUMP JUMPDEST SWAP3 SWAP2 POP POP JUMP JUMPDEST PUSH0 PUSH1 0x20 DUP3 DUP5 SUB SLT ISZERO PUSH2 0x1DE5 JUMPI PUSH2 0x1DE4 PUSH2 0x1C38 JUMP JUMPDEST JUMPDEST PUSH0 PUSH2 0x1DF2 DUP5 DUP3 DUP6 ADD PUSH2 0x1DBC JUMP JUMPDEST SWAP2 POP POP SWAP3 SWAP2 POP POP JUMP JUMPDEST PUSH0 PUSH20 0xFFFFFFFFFFFFFFFFFFFFFFFFFFFFFFFFFFFFFFFF DUP3 AND SWAP1 POP SWAP2 SWAP1 POP JUMP JUMPDEST PUSH0 PUSH2 0x1E24 DUP3 PUSH2 0x1DFB JUMP JUMPDEST SWAP1 POP SWAP2 SWAP1 POP JUMP JUMPDEST PUSH2 0x1E34 DUP2 PUSH2 0x1E1A JUMP JUMPDEST DUP3 MSTORE POP POP JUMP JUMPDEST PUSH0 PUSH1 0x20 DUP3 ADD SWAP1 POP PUSH2 0x1E4D PUSH0 DUP4 ADD DUP5 PUSH2 0x1E2B JUMP JUMPDEST SWAP3 SWAP2 POP POP JUMP JUMPDEST PUSH2 0x1E5C DUP2 PUSH2 0x1E1A JUMP JUMPDEST DUP2 EQ PUSH2 0x1E66 JUMPI PUSH0 DUP1 REVERT JUMPDEST POP JUMP JUMPDEST PUSH0 DUP2 CALLDATALOAD SWAP1 POP PUSH2 0x1E77 DUP2 PUSH2 0x1E53 JUMP JUMPDEST SWAP3 SWAP2 POP POP JUMP JUMPDEST PUSH0 DUP1 PUSH1 0x40 DUP4 DUP6 SUB SLT ISZERO PUSH2 0x1E93 JUMPI PUSH2 0x1E92 PUSH2 0x1C38 JUMP JUMPDEST JUMPDEST PUSH0 PUSH2 0x1EA0 DUP6 DUP3 DUP7 ADD PUSH2 0x1E69 JUMP JUMPDEST SWAP3 POP POP PUSH1 0x20 PUSH2 0x1EB1 DUP6 DUP3 DUP7 ADD PUSH2 0x1DBC JUMP JUMPDEST SWAP2 POP POP SWAP3 POP SWAP3 SWAP1 POP JUMP JUMPDEST PUSH2 0x1EC4 DUP2 PUSH2 0x1D9D JUMP JUMPDEST DUP3 MSTORE POP POP JUMP JUMPDEST PUSH0 PUSH1 0x20 DUP3 ADD SWAP1 POP PUSH2 0x1EDD PUSH0 DUP4 ADD DUP5 PUSH2 0x1EBB JUMP JUMPDEST SWAP3 SWAP2 POP POP JUMP JUMPDEST PUSH2 0x1EEC DUP2 PUSH2 0x1CC0 JUMP JUMPDEST DUP2 EQ PUSH2 0x1EF6 JUMPI PUSH0 DUP1 REVERT JUMPDEST POP JUMP JUMPDEST PUSH0 DUP2 CALLDATALOAD SWAP1 POP PUSH2 0x1F07 DUP2 PUSH2 0x1EE3 JUMP JUMPDEST SWAP3 SWAP2 POP POP JUMP JUMPDEST PUSH0 PUSH1 0x20 DUP3 DUP5 SUB SLT ISZERO PUSH2 0x1F22 JUMPI PUSH2 0x1F21 PUSH2 0x1C38 JUMP JUMPDEST JUMPDEST PUSH0 PUSH2 0x1F2F DUP5 DUP3 DUP6 ADD PUSH2 0x1EF9 JUMP JUMPDEST SWAP2 POP POP SWAP3 SWAP2 POP POP JUMP JUMPDEST PUSH0 DUP1 PUSH0 PUSH1 0x60 DUP5 DUP7 SUB SLT ISZERO PUSH2 0x1F4F JUMPI PUSH2 0x1F4E PUSH2 0x1C38 JUMP JUMPDEST JUMPDEST PUSH0 PUSH2 0x1F5C DUP7 DUP3 DUP8 ADD PUSH2 0x1E69 JUMP JUMPDEST SWAP4 POP POP PUSH1 0x20 PUSH2 0x1F6D DUP7 DUP3 DUP8 ADD PUSH2 0x1E69 JUMP JUMPDEST SWAP3 POP POP PUSH1 0x40 PUSH2 0x1F7E DUP7 DUP3 DUP8 ADD PUSH2 0x1DBC JUMP JUMPDEST SWAP2 POP POP SWAP3 POP SWAP3 POP SWAP3 JUMP JUMPDEST PUSH0 PUSH1 0x20 DUP3 DUP5 SUB SLT ISZERO PUSH2 0x1F9D JUMPI PUSH2 0x1F9C PUSH2 0x1C38 JUMP JUMPDEST JUMPDEST PUSH0 PUSH2 0x1FAA DUP5 DUP3 DUP6 ADD PUSH2 0x1E69 JUMP JUMPDEST SWAP2 POP POP SWAP3 SWAP2 POP POP JUMP JUMPDEST PUSH0 DUP1 PUSH1 0x40 DUP4 DUP6 SUB SLT ISZERO PUSH2 0x1FC9 JUMPI PUSH2 0x1FC8 PUSH2 0x1C38 JUMP JUMPDEST JUMPDEST PUSH0 PUSH2 0x1FD6 DUP6 DUP3 DUP7 ADD PUSH2 0x1DBC JUMP JUMPDEST SWAP3 POP POP PUSH1 0x20 PUSH2 0x1FE7 DUP6 DUP3 DUP7 ADD PUSH2 0x1EF9 JUMP JUMPDEST SWAP2 POP POP SWAP3 POP SWAP3 SWAP1 POP JUMP JUMPDEST PUSH0 DUP1 PUSH1 0x40 DUP4 DUP6 SUB SLT ISZERO PUSH2 0x2007 JUMPI PUSH2 0x2006 PUSH2 0x1C38 JUMP JUMPDEST JUMPDEST PUSH0 PUSH2 0x2014 DUP6 DUP3 DUP7 ADD PUSH2 0x1E69 JUMP JUMPDEST SWAP3 POP POP PUSH1 0x20 PUSH2 0x2025 DUP6 DUP3 DUP7 ADD PUSH2 0x1EF9 JUMP JUMPDEST SWAP2 POP POP SWAP3 POP SWAP3 SWAP1 POP JUMP JUMPDEST PUSH0 DUP1 REVERT JUMPDEST PUSH0 DUP1 REVERT JUMPDEST PUSH0 DUP1 REVERT JUMPDEST PUSH0 DUP1 DUP4 PUSH1 0x1F DUP5 ADD SLT PUSH2 0x2050 JUMPI PUSH2 0x204F PUSH2 0x202F JUMP JUMPDEST JUMPDEST DUP3 CALLDATALOAD SWAP1 POP PUSH8 0xFFFFFFFFFFFFFFFF DUP2 GT ISZERO PUSH2 0x206D JUMPI PUSH2 0x206C PUSH2 0x2033 JUMP JUMPDEST JUMPDEST PUSH1 0x20 DUP4 ADD SWAP2 POP DUP4 PUSH1 0x1 DUP3 MUL DUP4 ADD GT ISZERO PUSH2 0x2089 JUMPI PUSH2 0x2088 PUSH2 0x2037 JUMP JUMPDEST JUMPDEST SWAP3 POP SWAP3 SWAP1 POP JUMP JUMPDEST PUSH0 DUP1 PUSH0 DUP1 PUSH0 PUSH1 0x80 DUP7 DUP9 SUB SLT ISZERO PUSH2 0x20A9 JUMPI PUSH2 0x20A8 PUSH2 0x1C38 JUMP JUMPDEST JUMPDEST PUSH0 PUSH2 0x20B6 DUP9 DUP3 DUP10 ADD PUSH2 0x1E69 JUMP JUMPDEST SWAP6 POP POP PUSH1 0x20 PUSH2 0x20C7 DUP9 DUP3 DUP10 ADD PUSH2 0x1E69 JUMP JUMPDEST SWAP5 POP POP PUSH1 0x40 PUSH2 0x20D8 DUP9 DUP3 DUP10 ADD PUSH2 0x1DBC JUMP JUMPDEST SWAP4 POP POP PUSH1 0x60 DUP7 ADD CALLDATALOAD PUSH8 0xFFFFFFFFFFFFFFFF DUP2 GT ISZERO PUSH2 0x20F9 JUMPI PUSH2 0x20F8 PUSH2 0x1C3C JUMP JUMPDEST JUMPDEST PUSH2 0x2105 DUP9 DUP3 DUP10 ADD PUSH2 0x203B JUMP JUMPDEST SWAP3 POP SWAP3 POP POP SWAP3 SWAP6 POP SWAP3 SWAP6 SWAP1 SWAP4 POP JUMP JUMPDEST PUSH0 DUP1 REVERT JUMPDEST PUSH32 0x4E487B7100000000000000000000000000000000000000000000000000000000 PUSH0 MSTORE PUSH1 0x41 PUSH1 0x4 MSTORE PUSH1 0x24 PUSH0 REVERT JUMPDEST PUSH2 0x214E DUP3 PUSH2 0x1D35 JUMP JUMPDEST DUP2 ADD DUP2 DUP2 LT PUSH8 0xFFFFFFFFFFFFFFFF DUP3 GT OR ISZERO PUSH2 0x216D JUMPI PUSH2 0x216C PUSH2 0x2118 JUMP JUMPDEST JUMPDEST DUP1 PUSH1 0x40 MSTORE POP POP POP JUMP JUMPDEST PUSH0 PUSH2 0x217F PUSH2 0x1C2F JUMP JUMPDEST SWAP1 POP PUSH2 0x218B DUP3 DUP3 PUSH2 0x2145 JUMP JUMPDEST SWAP2 SWAP1 POP JUMP JUMPDEST PUSH0 PUSH8 0xFFFFFFFFFFFFFFFF DUP3 GT ISZERO PUSH2 0x21AA JUMPI PUSH2 0x21A9 PUSH2 0x2118 JUMP JUMPDEST JUMPDEST PUSH2 0x21B3 DUP3 PUSH2 0x1D35 JUMP JUMPDEST SWAP1 POP PUSH1 0x20 DUP2 ADD SWAP1 POP SWAP2 SWAP1 POP JUMP JUMPDEST DUP3 DUP2 DUP4 CALLDATACOPY PUSH0 DUP4 DUP4 ADD MSTORE POP POP POP JUMP JUMPDEST PUSH0 PUSH2 0x21E0 PUSH2 0x21DB DUP5 PUSH2 0x2190 JUMP JUMPDEST PUSH2 0x2176 JUMP JUMPDEST SWAP1 POP DUP3 DUP2 MSTORE PUSH1 0x20 DUP2 ADD DUP5 DUP5 DUP5 ADD GT ISZERO PUSH2 0x21FC JUMPI PUSH2 0x21FB PUSH2 0x2114 JUMP JUMPDEST JUMPDEST PUSH2 0x2207 DUP5 DUP3 DUP6 PUSH2 0x21C0 JUMP JUMPDEST POP SWAP4 SWAP3 POP POP POP JUMP JUMPDEST PUSH0 DUP3 PUSH1 0x1F DUP4 ADD SLT PUSH2 0x2223 JUMPI PUSH2 0x2222 PUSH2 0x202F JUMP JUMPDEST JUMPDEST DUP2 CALLDATALOAD PUSH2 0x2233 DUP5 DUP3 PUSH1 0x20 DUP7 ADD PUSH2 0x21CE JUMP JUMPDEST SWAP2 POP POP SWAP3 SWAP2 POP POP JUMP JUMPDEST PUSH0 PUSH1 0x20 DUP3 DUP5 SUB SLT ISZERO PUSH2 0x2251 JUMPI PUSH2 0x2250 PUSH2 0x1C38 JUMP JUMPDEST JUMPDEST PUSH0 DUP3 ADD CALLDATALOAD PUSH8 0xFFFFFFFFFFFFFFFF DUP2 GT ISZERO PUSH2 0x226E JUMPI PUSH2 0x226D PUSH2 0x1C3C JUMP JUMPDEST JUMPDEST PUSH2 0x227A DUP5 DUP3 DUP6 ADD PUSH2 0x220F JUMP JUMPDEST SWAP2 POP POP SWAP3 SWAP2 POP POP JUMP JUMPDEST PUSH0 DUP1 PUSH1 0x40 DUP4 DUP6 SUB SLT ISZERO PUSH2 0x2299 JUMPI PUSH2 0x2298 PUSH2 0x1C38 JUMP JUMPDEST JUMPDEST PUSH0 PUSH2 0x22A6 DUP6 DUP3 DUP7 ADD PUSH2 0x1E69 JUMP JUMPDEST SWAP3 POP POP PUSH1 0x20 PUSH2 0x22B7 DUP6 DUP3 DUP7 ADD PUSH2 0x1E69 JUMP JUMPDEST SWAP2 POP POP SWAP3 POP SWAP3 SWAP1 POP JUMP JUMPDEST PUSH32 0x676574417070726F766564000000000000000000000000000000000000000000 PUSH0 DUP3 ADD MSTORE POP JUMP JUMPDEST PUSH0 PUSH2 0x22F5 PUSH1 0xB DUP4 PUSH2 0x1CFD JUMP JUMPDEST SWAP2 POP PUSH2 0x2300 DUP3 PUSH2 0x22C1 JUMP JUMPDEST PUSH1 0x20 DUP3 ADD SWAP1 POP SWAP2 SWAP1 POP JUMP JUMPDEST PUSH0 PUSH1 0x20 DUP3 ADD SWAP1 POP DUP2 DUP2 SUB PUSH0 DUP4 ADD MSTORE PUSH2 0x2322 DUP2 PUSH2 0x22E9 JUMP JUMPDEST SWAP1 POP SWAP2 SWAP1 POP JUMP JUMPDEST PUSH32 0x617070726F766500000000000000000000000000000000000000000000000000 PUSH0 DUP3 ADD MSTORE POP JUMP JUMPDEST PUSH0 PUSH2 0x235D PUSH1 0x7 DUP4 PUSH2 0x1CFD JUMP JUMPDEST SWAP2 POP PUSH2 0x2368 DUP3 PUSH2 0x2329 JUMP JUMPDEST PUSH1 0x20 DUP3 ADD SWAP1 POP SWAP2 SWAP1 POP JUMP JUMPDEST PUSH0 PUSH1 0x20 DUP3 ADD SWAP1 POP DUP2 DUP2 SUB PUSH0 DUP4 ADD MSTORE PUSH2 0x238A DUP2 PUSH2 0x2351 JUMP JUMPDEST SWAP1 POP SWAP2 SWAP1 POP JUMP JUMPDEST PUSH32 0x7472616E7366657246726F6D0000000000000000000000000000000000000000 PUSH0 DUP3 ADD MSTORE POP JUMP JUMPDEST PUSH0 PUSH2 0x23C5 PUSH1 0xC DUP4 PUSH2 0x1CFD JUMP JUMPDEST SWAP2 POP PUSH2 0x23D0 DUP3 PUSH2 0x2391 JUMP JUMPDEST PUSH1 0x20 DUP3 ADD SWAP1 POP SWAP2 SWAP1 POP JUMP JUMPDEST PUSH0 PUSH1 0x20 DUP3 ADD SWAP1 POP DUP2 DUP2 SUB PUSH0 DUP4 ADD MSTORE PUSH2 0x23F2 DUP2 PUSH2 0x23B9 JUMP JUMPDEST SWAP1 POP SWAP2 SWAP1 POP JUMP JUMPDEST PUSH32 0x4F7574206F6620496E6465780000000000000000000000000000000000000000 PUSH0 DUP3 ADD MSTORE POP JUMP JUMPDEST PUSH0 PUSH2 0x242D PUSH1 0xC DUP4 PUSH2 0x1CFD JUMP JUMPDEST SWAP2 POP PUSH2 0x2438 DUP3 PUSH2 0x23F9 JUMP JUMPDEST PUSH1 0x20 DUP3 ADD SWAP1 POP SWAP2 SWAP1 POP JUMP JUMPDEST PUSH0 PUSH1 0x20 DUP3 ADD SWAP1 POP DUP2 DUP2 SUB PUSH0 DUP4 ADD MSTORE PUSH2 0x245A DUP2 PUSH2 0x2421 JUMP JUMPDEST SWAP1 POP SWAP2 SWAP1 POP JUMP JUMPDEST PUSH32 0x736166655472616E7366657246726F6D00000000000000000000000000000000 PUSH0 DUP3 ADD MSTORE POP JUMP JUMPDEST PUSH0 PUSH2 0x2495 PUSH1 0x10 DUP4 PUSH2 0x1CFD JUMP JUMPDEST SWAP2 POP PUSH2 0x24A0 DUP3 PUSH2 0x2461 JUMP JUMPDEST PUSH1 0x20 DUP3 ADD SWAP1 POP SWAP2 SWAP1 POP JUMP JUMPDEST PUSH0 PUSH1 0x20 DUP3 ADD SWAP1 POP DUP2 DUP2 SUB PUSH0 DUP4 ADD MSTORE PUSH2 0x24C2 DUP2 PUSH2 0x2489 JUMP JUMPDEST SWAP1 POP SWAP2 SWAP1 POP JUMP JUMPDEST PUSH0 PUSH1 0x40 DUP3 ADD SWAP1 POP PUSH2 0x24DC PUSH0 DUP4 ADD DUP6 PUSH2 0x1E2B JUMP JUMPDEST PUSH2 0x24E9 PUSH1 0x20 DUP4 ADD DUP5 PUSH2 0x1EBB JUMP JUMPDEST SWAP4 SWAP3 POP POP POP JUMP JUMPDEST PUSH32 0x736574417070726F76616C466F72416C6C000000000000000000000000000000 PUSH0 DUP3 ADD MSTORE POP JUMP JUMPDEST PUSH0 PUSH2 0x2524 PUSH1 0x11 DUP4 PUSH2 0x1CFD JUMP JUMPDEST SWAP2 POP PUSH2 0x252F DUP3 PUSH2 0x24F0 JUMP JUMPDEST PUSH1 0x20 DUP3 ADD SWAP1 POP SWAP2 SWAP1 POP JUMP JUMPDEST PUSH0 PUSH1 0x20 DUP3 ADD SWAP1 POP DUP2 DUP2 SUB PUSH0 DUP4 ADD MSTORE PUSH2 0x2551 DUP2 PUSH2 0x2518 JUMP JUMPDEST SWAP1 POP SWAP2 SWAP1 POP JUMP JUMPDEST PUSH32 0x4E487B7100000000000000000000000000000000000000000000000000000000 PUSH0 MSTORE PUSH1 0x22 PUSH1 0x4 MSTORE PUSH1 0x24 PUSH0 REVERT JUMPDEST PUSH0 PUSH1 0x2 DUP3 DIV SWAP1 POP PUSH1 0x1 DUP3 AND DUP1 PUSH2 0x259C JUMPI PUSH1 0x7F DUP3 AND SWAP2 POP JUMPDEST PUSH1 0x20 DUP3 LT DUP2 SUB PUSH2 0x25AF JUMPI PUSH2 0x25AE PUSH2 0x2558 JUMP JUMPDEST JUMPDEST POP SWAP2 SWAP1 POP JUMP JUMPDEST PUSH0 DUP2 SWAP1 POP SWAP3 SWAP2 POP POP JUMP JUMPDEST PUSH0 DUP2 SWAP1 POP DUP2 PUSH0 MSTORE PUSH1 0x20 PUSH0 KECCAK256 SWAP1 POP SWAP2 SWAP1 POP JUMP JUMPDEST PUSH0 DUP2 SLOAD PUSH2 0x25DD DUP2 PUSH2 0x2585 JUMP JUMPDEST PUSH2 0x25E7 DUP2 DUP7 PUSH2 0x25B5 JUMP JUMPDEST SWAP5 POP PUSH1 0x1 DUP3 AND PUSH0 DUP2 EQ PUSH2 0x2601 JUMPI PUSH1 0x1 DUP2 EQ PUSH2 0x2616 JUMPI PUSH2 0x2648 JUMP JUMPDEST PUSH1 0xFF NOT DUP4 AND DUP7 MSTORE DUP2 ISZERO ISZERO DUP3 MUL DUP7 ADD SWAP4 POP PUSH2 0x2648 JUMP JUMPDEST PUSH2 0x261F DUP6 PUSH2 0x25BF JUMP JUMPDEST PUSH0 JUMPDEST DUP4 DUP2 LT ISZERO PUSH2 0x2640 JUMPI DUP2 SLOAD DUP2 DUP10 ADD MSTORE PUSH1 0x1 DUP3 ADD SWAP2 POP PUSH1 0x20 DUP2 ADD SWAP1 POP PUSH2 0x2621 JUMP JUMPDEST DUP4 DUP9 ADD SWAP6 POP POP POP JUMPDEST POP POP POP SWAP3 SWAP2 POP POP JUMP JUMPDEST PUSH0 PUSH2 0x265B DUP3 PUSH2 0x1CF3 JUMP JUMPDEST PUSH2 0x2665 DUP2 DUP6 PUSH2 0x25B5 JUMP JUMPDEST SWAP4 POP PUSH2 0x2675 DUP2 DUP6 PUSH1 0x20 DUP7 ADD PUSH2 0x1D0D JUMP JUMPDEST DUP1 DUP5 ADD SWAP2 POP POP SWAP3 SWAP2 POP POP JUMP JUMPDEST PUSH32 0x3F746F6B656E547970653D000000000000000000000000000000000000000000 PUSH0 DUP3 ADD MSTORE POP JUMP JUMPDEST PUSH0 PUSH2 0x26B5 PUSH1 0xB DUP4 PUSH2 0x25B5 JUMP JUMPDEST SWAP2 POP PUSH2 0x26C0 DUP3 PUSH2 0x2681 JUMP JUMPDEST PUSH1 0xB DUP3 ADD SWAP1 POP SWAP2 SWAP1 POP JUMP JUMPDEST PUSH0 DUP2 SWAP1 POP SWAP2 SWAP1 POP JUMP JUMPDEST PUSH2 0x26E5 PUSH2 0x26E0 DUP3 PUSH2 0x1D9D JUMP JUMPDEST PUSH2 0x26CB JUMP JUMPDEST DUP3 MSTORE POP POP JUMP JUMPDEST PUSH0 PUSH2 0x26F6 DUP3 DUP7 PUSH2 0x25D1 JUMP JUMPDEST SWAP2 POP PUSH2 0x2702 DUP3 DUP6 PUSH2 0x2651 JUMP JUMPDEST SWAP2 POP PUSH2 0x270D DUP3 PUSH2 0x26A9 JUMP JUMPDEST SWAP2 POP PUSH2 0x2719 DUP3 DUP5 PUSH2 0x26D4 JUMP JUMPDEST PUSH1 0x20 DUP3 ADD SWAP2 POP DUP2 SWAP1 POP SWAP5 SWAP4 POP POP POP POP JUMP JUMPDEST PUSH0 PUSH1 0x20 PUSH1 0x1F DUP4 ADD DIV SWAP1 POP SWAP2 SWAP1 POP JUMP JUMPDEST PUSH0 DUP3 DUP3 SHL SWAP1 POP SWAP3 SWAP2 POP POP JUMP JUMPDEST PUSH0 PUSH1 0x8 DUP4 MUL PUSH2 0x2774 PUSH32 0xFFFFFFFFFFFFFFFFFFFFFFFFFFFFFFFFFFFFFFFFFFFFFFFFFFFFFFFFFFFFFFFF DUP3 PUSH2 0x2739 JUMP JUMPDEST PUSH2 0x277E DUP7 DUP4 PUSH2 0x2739 JUMP JUMPDEST SWAP6 POP DUP1 NOT DUP5 AND SWAP4 POP DUP1 DUP7 AND DUP5 OR SWAP3 POP POP POP SWAP4 SWAP3 POP POP POP JUMP JUMPDEST PUSH0 DUP2 SWAP1 POP SWAP2 SWAP1 POP JUMP JUMPDEST PUSH0 PUSH2 0x27B9 PUSH2 0x27B4 PUSH2 0x27AF DUP5 PUSH2 0x1D9D JUMP JUMPDEST PUSH2 0x2796 JUMP JUMPDEST PUSH2 0x1D9D JUMP JUMPDEST SWAP1 POP SWAP2 SWAP1 POP JUMP JUMPDEST PUSH0 DUP2 SWAP1 POP SWAP2 SWAP1 POP JUMP JUMPDEST PUSH2 0x27D2 DUP4 PUSH2 0x279F JUMP JUMPDEST PUSH2 0x27E6 PUSH2 0x27DE DUP3 PUSH2 0x27C0 JUMP JUMPDEST DUP5 DUP5 SLOAD PUSH2 0x2745 JUMP JUMPDEST DUP3 SSTORE POP POP POP POP JUMP JUMPDEST PUSH0 SWAP1 JUMP JUMPDEST PUSH2 0x27FA PUSH2 0x27EE JUMP JUMPDEST PUSH2 0x2805 DUP2 DUP5 DUP5 PUSH2 0x27C9 JUMP JUMPDEST POP POP POP JUMP JUMPDEST JUMPDEST DUP2 DUP2 LT ISZERO PUSH2 0x2828 JUMPI PUSH2 0x281D PUSH0 DUP3 PUSH2 0x27F2 JUMP JUMPDEST PUSH1 0x1 DUP2 ADD SWAP1 POP PUSH2 0x280B JUMP JUMPDEST POP POP JUMP JUMPDEST PUSH1 0x1F DUP3 GT ISZERO PUSH2 0x286D JUMPI PUSH2 0x283E DUP2 PUSH2 0x25BF JUMP JUMPDEST PUSH2 0x2847 DUP5 PUSH2 0x272A JUMP JUMPDEST DUP2 ADD PUSH1 0x20 DUP6 LT ISZERO PUSH2 0x2856 JUMPI DUP2 SWAP1 POP JUMPDEST PUSH2 0x286A PUSH2 0x2862 DUP6 PUSH2 0x272A JUMP JUMPDEST DUP4 ADD DUP3 PUSH2 0x280A JUMP JUMPDEST POP POP JUMPDEST POP POP POP JUMP JUMPDEST PUSH0 DUP3 DUP3 SHR SWAP1 POP SWAP3 SWAP2 POP POP JUMP JUMPDEST PUSH0 PUSH2 0x288D PUSH0 NOT DUP5 PUSH1 0x8 MUL PUSH2 0x2872 JUMP JUMPDEST NOT DUP1 DUP4 AND SWAP2 POP POP SWAP3 SWAP2 POP POP JUMP JUMPDEST PUSH0 PUSH2 0x28A5 DUP4 DUP4 PUSH2 0x287E JUMP JUMPDEST SWAP2 POP DUP3 PUSH1 0x2 MUL DUP3 OR SWAP1 POP SWAP3 SWAP2 POP POP JUMP JUMPDEST PUSH2 0x28BE DUP3 PUSH2 0x1CF3 JUMP JUMPDEST PUSH8 0xFFFFFFFFFFFFFFFF DUP2 GT ISZERO PUSH2 0x28D7 JUMPI PUSH2 0x28D6 PUSH2 0x2118 JUMP JUMPDEST JUMPDEST PUSH2 0x28E1 DUP3 SLOAD PUSH2 0x2585 JUMP JUMPDEST PUSH2 0x28EC DUP3 DUP3 DUP6 PUSH2 0x282C JUMP JUMPDEST PUSH0 PUSH1 0x20 SWAP1 POP PUSH1 0x1F DUP4 GT PUSH1 0x1 DUP2 EQ PUSH2 0x291D JUMPI PUSH0 DUP5 ISZERO PUSH2 0x290B JUMPI DUP3 DUP8 ADD MLOAD SWAP1 POP JUMPDEST PUSH2 0x2915 DUP6 DUP3 PUSH2 0x289A JUMP JUMPDEST DUP7 SSTORE POP PUSH2 0x297C JUMP JUMPDEST PUSH1 0x1F NOT DUP5 AND PUSH2 0x292B DUP7 PUSH2 0x25BF JUMP JUMPDEST PUSH0 JUMPDEST DUP3 DUP2 LT ISZERO PUSH2 0x2952 JUMPI DUP5 DUP10 ADD MLOAD DUP3 SSTORE PUSH1 0x1 DUP3 ADD SWAP2 POP PUSH1 0x20 DUP6 ADD SWAP5 POP PUSH1 0x20 DUP2 ADD SWAP1 POP PUSH2 0x292D JUMP JUMPDEST DUP7 DUP4 LT ISZERO PUSH2 0x296F JUMPI DUP5 DUP10 ADD MLOAD PUSH2 0x296B PUSH1 0x1F DUP10 AND DUP3 PUSH2 0x287E JUMP JUMPDEST DUP4 SSTORE POP JUMPDEST PUSH1 0x1 PUSH1 0x2 DUP9 MUL ADD DUP9 SSTORE POP POP POP JUMPDEST POP POP POP POP POP POP JUMP JUMPDEST PUSH32 0x6973417070726F766564466F72416C6C00000000000000000000000000000000 PUSH0 DUP3 ADD MSTORE POP JUMP JUMPDEST PUSH0 PUSH2 0x29B8 PUSH1 0x10 DUP4 PUSH2 0x1CFD JUMP JUMPDEST SWAP2 POP PUSH2 0x29C3 DUP3 PUSH2 0x2984 JUMP JUMPDEST PUSH1 0x20 DUP3 ADD SWAP1 POP SWAP2 SWAP1 POP JUMP JUMPDEST PUSH0 PUSH1 0x20 DUP3 ADD SWAP1 POP DUP2 DUP2 SUB PUSH0 DUP4 ADD MSTORE PUSH2 0x29E5 DUP2 PUSH2 0x29AC JUMP JUMPDEST SWAP1 POP SWAP2 SWAP1 POP JUMP JUMPDEST PUSH32 0x4F776E61626C653A206E6577206F776E657220697320746865207A65726F2061 PUSH0 DUP3 ADD MSTORE PUSH32 0x6464726573730000000000000000000000000000000000000000000000000000 PUSH1 0x20 DUP3 ADD MSTORE POP JUMP JUMPDEST PUSH0 PUSH2 0x2A46 PUSH1 0x26 DUP4 PUSH2 0x1CFD JUMP JUMPDEST SWAP2 POP PUSH2 0x2A51 DUP3 PUSH2 0x29EC JUMP JUMPDEST PUSH1 0x40 DUP3 ADD SWAP1 POP SWAP2 SWAP1 POP JUMP JUMPDEST PUSH0 PUSH1 0x20 DUP3 ADD SWAP1 POP DUP2 DUP2 SUB PUSH0 DUP4 ADD MSTORE PUSH2 0x2A73 DUP2 PUSH2 0x2A3A JUMP JUMPDEST SWAP1 POP SWAP2 SWAP1 POP JUMP JUMPDEST PUSH32 0x4F776E61626C653A2063616C6C6572206973206E6F7420746865206F776E6572 PUSH0 DUP3 ADD MSTORE POP JUMP JUMPDEST PUSH0 PUSH2 0x2AAE PUSH1 0x20 DUP4 PUSH2 0x1CFD JUMP JUMPDEST SWAP2 POP PUSH2 0x2AB9 DUP3 PUSH2 0x2A7A JUMP JUMPDEST PUSH1 0x20 DUP3 ADD SWAP1 POP SWAP2 SWAP1 POP JUMP JUMPDEST PUSH0 PUSH1 0x20 DUP3 ADD SWAP1 POP DUP2 DUP2 SUB PUSH0 DUP4 ADD MSTORE PUSH2 0x2ADB DUP2 PUSH2 0x2AA2 JUMP JUMPDEST SWAP1 POP SWAP2 SWAP1 POP JUMP JUMPDEST PUSH32 0x4552433732313A207472616E7366657220746F206E6F6E204552433732315265 PUSH0 DUP3 ADD MSTORE PUSH32 0x63656976657220696D706C656D656E7465720000000000000000000000000000 PUSH1 0x20 DUP3 ADD MSTORE POP JUMP JUMPDEST PUSH0 PUSH2 0x2B3C PUSH1 0x32 DUP4 PUSH2 0x1CFD JUMP JUMPDEST SWAP2 POP PUSH2 0x2B47 DUP3 PUSH2 0x2AE2 JUMP JUMPDEST PUSH1 0x40 DUP3 ADD SWAP1 POP SWAP2 SWAP1 POP JUMP JUMPDEST PUSH0 PUSH1 0x20 DUP3 ADD SWAP1 POP DUP2 DUP2 SUB PUSH0 DUP4 ADD MSTORE PUSH2 0x2B69 DUP2 PUSH2 0x2B30 JUMP JUMPDEST SWAP1 POP SWAP2 SWAP1 POP JUMP JUMPDEST PUSH32 0x4E487B7100000000000000000000000000000000000000000000000000000000 PUSH0 MSTORE PUSH1 0x11 PUSH1 0x4 MSTORE PUSH1 0x24 PUSH0 REVERT JUMPDEST PUSH0 PUSH2 0x2BA7 DUP3 PUSH2 0x1D9D JUMP JUMPDEST SWAP2 POP PUSH2 0x2BB2 DUP4 PUSH2 0x1D9D JUMP JUMPDEST SWAP3 POP DUP3 DUP3 ADD SWAP1 POP DUP1 DUP3 GT ISZERO PUSH2 0x2BCA JUMPI PUSH2 0x2BC9 PUSH2 0x2B70 JUMP JUMPDEST JUMPDEST SWAP3 SWAP2 POP POP JUMP JUMPDEST PUSH32 0x4E487B7100000000000000000000000000000000000000000000000000000000 PUSH0 MSTORE PUSH1 0x12 PUSH1 0x4 MSTORE PUSH1 0x24 PUSH0 REVERT JUMPDEST PUSH0 PUSH2 0x2C07 DUP3 PUSH2 0x1D9D JUMP JUMPDEST SWAP2 POP PUSH2 0x2C12 DUP4 PUSH2 0x1D9D JUMP JUMPDEST SWAP3 POP DUP3 DUP3 SUB SWAP1 POP DUP2 DUP2 GT ISZERO PUSH2 0x2C2A JUMPI PUSH2 0x2C29 PUSH2 0x2B70 JUMP JUMPDEST JUMPDEST SWAP3 SWAP2 POP POP JUMP JUMPDEST PUSH0 DUP2 MLOAD SWAP1 POP SWAP2 SWAP1 POP JUMP JUMPDEST PUSH0 DUP3 DUP3 MSTORE PUSH1 0x20 DUP3 ADD SWAP1 POP SWAP3 SWAP2 POP POP JUMP JUMPDEST PUSH0 PUSH2 0x2C54 DUP3 PUSH2 0x2C30 JUMP JUMPDEST PUSH2 0x2C5E DUP2 DUP6 PUSH2 0x2C3A JUMP JUMPDEST SWAP4 POP PUSH2 0x2C6E DUP2 DUP6 PUSH1 0x20 DUP7 ADD PUSH2 0x1D0D JUMP JUMPDEST PUSH2 0x2C77 DUP2 PUSH2 0x1D35 JUMP JUMPDEST DUP5 ADD SWAP2 POP POP SWAP3 SWAP2 POP POP JUMP JUMPDEST PUSH0 PUSH1 0x80 DUP3 ADD SWAP1 POP PUSH2 0x2C95 PUSH0 DUP4 ADD DUP8 PUSH2 0x1E2B JUMP JUMPDEST PUSH2 0x2CA2 PUSH1 0x20 DUP4 ADD DUP7 PUSH2 0x1E2B JUMP JUMPDEST PUSH2 0x2CAF PUSH1 0x40 DUP4 ADD DUP6 PUSH2 0x1EBB JUMP JUMPDEST DUP2 DUP2 SUB PUSH1 0x60 DUP4 ADD MSTORE PUSH2 0x2CC1 DUP2 DUP5 PUSH2 0x2C4A JUMP JUMPDEST SWAP1 POP SWAP6 SWAP5 POP POP POP POP POP JUMP JUMPDEST PUSH0 DUP2 MLOAD SWAP1 POP PUSH2 0x2CDA DUP2 PUSH2 0x1C6B JUMP JUMPDEST SWAP3 SWAP2 POP POP JUMP JUMPDEST PUSH0 PUSH1 0x20 DUP3 DUP5 SUB SLT ISZERO PUSH2 0x2CF5 JUMPI PUSH2 0x2CF4 PUSH2 0x1C38 JUMP JUMPDEST JUMPDEST PUSH0 PUSH2 0x2D02 DUP5 DUP3 DUP6 ADD PUSH2 0x2CCC JUMP JUMPDEST SWAP2 POP POP SWAP3 SWAP2 POP POP JUMP INVALID LOG2 PUSH5 0x6970667358 0x22 SLT KECCAK256 DUP5 MUL 0xE8 DUP11 RETURNDATASIZE 0xCC EXTCODECOPY 0xF6 MSIZE DUP5 0xE5 LOG4 0x2A SDIV 0xD5 0xAE PUSH18 0xE5DD2C5EE349AD0BF63B82A732825864736F PUSH13 0x63430008140033000000000000 "
		},
		"gasEstimates": {
			"creation": {
				"codeDepositCost": "2317000",
				"executionCost": "infinite",
				"totalCost": "infinite"
			},
			"external": {
				"approve(address,uint256)": "947",
				"balanceOf(address)": "infinite",
				"getApprovalGrowth(address,uint256)": "3274",
				"getApproved(uint256)": "777",
				"getGrowth(uint256)": "infinite",
				"getTokenType(uint256)": "infinite",
				"growUp(address,uint256)": "infinite",
				"isApprovedForAll(address,address)": "infinite",
				"isProtected(address)": "infinite",
				"mint(address,uint256)": "infinite",
				"name()": "infinite",
				"owner()": "2605",
				"ownerOf(uint256)": "infinite",
				"renounceOwnership()": "30501",
				"reset(address,uint256)": "infinite",
				"safeTransferFrom(address,address,uint256)": "infinite",
				"safeTransferFrom(address,address,uint256,bytes)": "infinite",
				"setApprovalForAll(address,bool)": "996",
				"setApprovalGrowth(uint256,bool)": "27360",
				"setProtected(bool)": "infinite",
				"setTokenURI(string)": "infinite",
				"supportsInterface(bytes4)": "764",
				"symbol()": "infinite",
				"tokenOfOwnerByIndex(address,uint256)": "infinite",
				"tokenURI(uint256)": "infinite",
				"totalSupply()": "2500",
				"totalUser()": "2476",
				"transferFrom(address,address,uint256)": "infinite",
				"transferOwnership(address)": "30819"
			}
		},
		"methodIdentifiers": {
			"approve(address,uint256)": "095ea7b3",
			"balanceOf(address)": "70a08231",
			"getApprovalGrowth(address,uint256)": "f3ba5946",
			"getApproved(uint256)": "081812fc",
			"getGrowth(uint256)": "51c18e0c",
			"getTokenType(uint256)": "76aed2e1",
			"growUp(address,uint256)": "be37e907",
			"isApprovedForAll(address,address)": "e985e9c5",
			"isProtected(address)": "ce35de95",
			"mint(address,uint256)": "40c10f19",
			"name()": "06fdde03",
			"owner()": "8da5cb5b",
			"ownerOf(uint256)": "6352211e",
			"renounceOwnership()": "715018a6",
			"reset(address,uint256)": "9b252852",
			"safeTransferFrom(address,address,uint256)": "42842e0e",
			"safeTransferFrom(address,address,uint256,bytes)": "b88d4fde",
			"setApprovalForAll(address,bool)": "a22cb465",
			"setApprovalGrowth(uint256,bool)": "8c10081f",
			"setProtected(bool)": "1c02bc31",
			"setTokenURI(string)": "e0df5b6f",
			"supportsInterface(bytes4)": "01ffc9a7",
			"symbol()": "95d89b41",
			"tokenOfOwnerByIndex(address,uint256)": "2f745c59",
			"tokenURI(uint256)": "c87b56dd",
			"totalSupply()": "18160ddd",
			"totalUser()": "e1604b70",
			"transferFrom(address,address,uint256)": "23b872dd",
			"transferOwnership(address)": "f2fde38b"
		}
	},
	"abi": [
		{
			"inputs": [],
			"stateMutability": "nonpayable",
			"type": "constructor"
		},
		{
			"inputs": [
				{
					"internalType": "uint256",
					"name": "tokenId",
					"type": "uint256"
				}
			],
			"name": "SoulSocietySBTExistToken",
			"type": "error"
		},
		{
			"inputs": [
				{
					"internalType": "address",
					"name": "sender",
					"type": "address"
				},
				{
					"internalType": "uint256",
					"name": "tokenId",
					"type": "uint256"
				},
				{
					"internalType": "address",
					"name": "owner",
					"type": "address"
				}
			],
			"name": "SoulSocietySBTIncorrectOwner",
			"type": "error"
		},
		{
			"inputs": [
				{
					"internalType": "address",
					"name": "to",
					"type": "address"
				}
			],
			"name": "SoulSocietySBTInvalidOwner",
			"type": "error"
		},
		{
			"inputs": [
				{
					"internalType": "address",
					"name": "receiver",
					"type": "address"
				}
			],
			"name": "SoulSocietySBTInvalidReceiver",
			"type": "error"
		},
		{
			"inputs": [
				{
					"internalType": "address",
					"name": "sender",
					"type": "address"
				}
			],
			"name": "SoulSocietySBTInvalidSender",
			"type": "error"
		},
		{
			"inputs": [
				{
					"internalType": "address",
					"name": "sender",
					"type": "address"
				}
			],
			"name": "SoulSocietySBTNonExist",
			"type": "error"
		},
		{
			"inputs": [
				{
					"internalType": "uint256",
					"name": "tokenId",
					"type": "uint256"
				}
			],
			"name": "SoulSocietySBTNonexistentToken",
			"type": "error"
		},
		{
			"inputs": [
				{
					"internalType": "address",
					"name": "owner",
					"type": "address"
				},
				{
					"internalType": "address",
					"name": "to",
					"type": "address"
				}
			],
			"name": "SoulSocietySBTNotOwner",
			"type": "error"
		},
		{
			"inputs": [
				{
					"internalType": "string",
					"name": "message",
					"type": "string"
				}
			],
			"name": "SoulSocietySBTNotSupported",
			"type": "error"
		},
		{
			"inputs": [
				{
					"internalType": "address",
					"name": "owner",
					"type": "address"
				},
				{
					"internalType": "uint256",
					"name": "tokenId",
					"type": "uint256"
				}
			],
			"name": "SoulSocietySBTPermissionDenied",
			"type": "error"
		},
		{
			"inputs": [
				{
					"internalType": "address",
					"name": "owner",
					"type": "address"
				}
			],
			"name": "SoulSocietySBTProtectedOwner",
			"type": "error"
		},
		{
			"anonymous": false,
			"inputs": [
				{
					"indexed": true,
					"internalType": "address",
					"name": "owner",
					"type": "address"
				},
				{
					"indexed": true,
					"internalType": "address",
					"name": "approved",
					"type": "address"
				},
				{
					"indexed": true,
					"internalType": "uint256",
					"name": "tokenId",
					"type": "uint256"
				}
			],
			"name": "Approval",
			"type": "event"
		},
		{
			"anonymous": false,
			"inputs": [
				{
					"indexed": true,
					"internalType": "address",
					"name": "owner",
					"type": "address"
				},
				{
					"indexed": true,
					"internalType": "address",
					"name": "operator",
					"type": "address"
				},
				{
					"indexed": false,
					"internalType": "bool",
					"name": "approved",
					"type": "bool"
				}
			],
			"name": "ApprovalForAll",
			"type": "event"
		},
		{
			"anonymous": false,
			"inputs": [
				{
					"indexed": true,
					"internalType": "address",
					"name": "creator",
					"type": "address"
				},
				{
					"indexed": false,
					"internalType": "uint256",
					"name": "creationTime",
					"type": "uint256"
				},
				{
					"indexed": false,
					"internalType": "string",
					"name": "name",
					"type": "string"
				},
				{
					"indexed": false,
					"internalType": "string",
					"name": "symbol",
					"type": "string"
				},
				{
					"indexed": false,
					"internalType": "string",
					"name": "uri",
					"type": "string"
				}
			],
			"name": "ContractCreated",
			"type": "event"
		},
		{
			"anonymous": false,
			"inputs": [
				{
					"indexed": true,
					"internalType": "address",
					"name": "to",
					"type": "address"
				},
				{
					"indexed": false,
					"internalType": "uint256",
					"name": "tokenId",
					"type": "uint256"
				},
				{
					"indexed": true,
					"internalType": "uint256",
					"name": "growth",
					"type": "uint256"
				}
			],
			"name": "GrowUp",
			"type": "event"
		},
		{
			"anonymous": false,
			"inputs": [
				{
					"indexed": false,
					"internalType": "address",
					"name": "from",
					"type": "address"
				},
				{
					"indexed": true,
					"internalType": "address",
					"name": "to",
					"type": "address"
				},
				{
					"indexed": true,
					"internalType": "uint256",
					"name": "tokenId",
					"type": "uint256"
				},
				{
					"indexed": true,
					"internalType": "uint256",
					"name": "tokenType",
					"type": "uint256"
				}
			],
			"name": "Mint",
			"type": "event"
		},
		{
			"anonymous": false,
			"inputs": [
				{
					"indexed": true,
					"internalType": "address",
					"name": "previousOwner",
					"type": "address"
				},
				{
					"indexed": true,
					"internalType": "address",
					"name": "newOwner",
					"type": "address"
				}
			],
			"name": "OwnershipTransferred",
			"type": "event"
		},
		{
			"anonymous": false,
			"inputs": [
				{
					"indexed": true,
					"internalType": "address",
					"name": "to",
					"type": "address"
				},
				{
					"indexed": true,
					"internalType": "uint256",
					"name": "tokenId",
					"type": "uint256"
				}
			],
			"name": "Reset",
			"type": "event"
		},
		{
			"anonymous": false,
			"inputs": [
				{
					"indexed": true,
					"internalType": "address",
					"name": "sender",
					"type": "address"
				},
				{
					"indexed": false,
					"internalType": "string",
					"name": "uri",
					"type": "string"
				}
			],
			"name": "SetTokenURI",
			"type": "event"
		},
		{
			"anonymous": false,
			"inputs": [
				{
					"indexed": true,
					"internalType": "address",
					"name": "from",
					"type": "address"
				},
				{
					"indexed": true,
					"internalType": "address",
					"name": "to",
					"type": "address"
				},
				{
					"indexed": true,
					"internalType": "uint256",
					"name": "tokenId",
					"type": "uint256"
				}
			],
			"name": "Transfer",
			"type": "event"
		},
		{
			"inputs": [
				{
					"internalType": "address",
					"name": "",
					"type": "address"
				},
				{
					"internalType": "uint256",
					"name": "",
					"type": "uint256"
				}
			],
			"name": "approve",
			"outputs": [],
			"stateMutability": "pure",
			"type": "function"
		},
		{
			"inputs": [
				{
					"internalType": "address",
					"name": "owner_",
					"type": "address"
				}
			],
			"name": "balanceOf",
			"outputs": [
				{
					"internalType": "uint256",
					"name": "",
					"type": "uint256"
				}
			],
			"stateMutability": "view",
			"type": "function"
		},
		{
			"inputs": [
				{
					"internalType": "address",
					"name": "owner_",
					"type": "address"
				},
				{
					"internalType": "uint256",
					"name": "tokenId_",
					"type": "uint256"
				}
			],
			"name": "getApprovalGrowth",
			"outputs": [
				{
					"internalType": "bool",
					"name": "",
					"type": "bool"
				}
			],
			"stateMutability": "view",
			"type": "function"
		},
		{
			"inputs": [
				{
					"internalType": "uint256",
					"name": "",
					"type": "uint256"
				}
			],
			"name": "getApproved",
			"outputs": [
				{
					"internalType": "address",
					"name": "",
					"type": "address"
				}
			],
			"stateMutability": "pure",
			"type": "function"
		},
		{
			"inputs": [
				{
					"internalType": "uint256",
					"name": "tokenId_",
					"type": "uint256"
				}
			],
			"name": "getGrowth",
			"outputs": [
				{
					"internalType": "uint256",
					"name": "",
					"type": "uint256"
				}
			],
			"stateMutability": "view",
			"type": "function"
		},
		{
			"inputs": [
				{
					"internalType": "uint256",
					"name": "tokenId_",
					"type": "uint256"
				}
			],
			"name": "getTokenType",
			"outputs": [
				{
					"internalType": "uint256",
					"name": "",
					"type": "uint256"
				}
			],
			"stateMutability": "view",
			"type": "function"
		},
		{
			"inputs": [
				{
					"internalType": "address",
					"name": "to_",
					"type": "address"
				},
				{
					"internalType": "uint256",
					"name": "tokenId_",
					"type": "uint256"
				}
			],
			"name": "growUp",
			"outputs": [
				{
					"internalType": "uint256",
					"name": "",
					"type": "uint256"
				}
			],
			"stateMutability": "nonpayable",
			"type": "function"
		},
		{
			"inputs": [
				{
					"internalType": "address",
					"name": "",
					"type": "address"
				},
				{
					"internalType": "address",
					"name": "",
					"type": "address"
				}
			],
			"name": "isApprovedForAll",
			"outputs": [
				{
					"internalType": "bool",
					"name": "",
					"type": "bool"
				}
			],
			"stateMutability": "pure",
			"type": "function"
		},
		{
			"inputs": [
				{
					"internalType": "address",
					"name": "to_",
					"type": "address"
				}
			],
			"name": "isProtected",
			"outputs": [
				{
					"internalType": "bool",
					"name": "",
					"type": "bool"
				}
			],
			"stateMutability": "view",
			"type": "function"
		},
		{
			"inputs": [
				{
					"internalType": "address",
					"name": "to_",
					"type": "address"
				},
				{
					"internalType": "uint256",
					"name": "tokenType_",
					"type": "uint256"
				}
			],
			"name": "mint",
			"outputs": [
				{
					"internalType": "uint256",
					"name": "",
					"type": "uint256"
				}
			],
			"stateMutability": "nonpayable",
			"type": "function"
		},
		{
			"inputs": [],
			"name": "name",
			"outputs": [
				{
					"internalType": "string",
					"name": "",
					"type": "string"
				}
			],
			"stateMutability": "pure",
			"type": "function"
		},
		{
			"inputs": [],
			"name": "owner",
			"outputs": [
				{
					"internalType": "address",
					"name": "",
					"type": "address"
				}
			],
			"stateMutability": "view",
			"type": "function"
		},
		{
			"inputs": [
				{
					"internalType": "uint256",
					"name": "tokenId_",
					"type": "uint256"
				}
			],
			"name": "ownerOf",
			"outputs": [
				{
					"internalType": "address",
					"name": "",
					"type": "address"
				}
			],
			"stateMutability": "view",
			"type": "function"
		},
		{
			"inputs": [],
			"name": "renounceOwnership",
			"outputs": [],
			"stateMutability": "nonpayable",
			"type": "function"
		},
		{
			"inputs": [
				{
					"internalType": "address",
					"name": "to_",
					"type": "address"
				},
				{
					"internalType": "uint256",
					"name": "tokenId_",
					"type": "uint256"
				}
			],
			"name": "reset",
			"outputs": [],
			"stateMutability": "nonpayable",
			"type": "function"
		},
		{
			"inputs": [
				{
					"internalType": "address",
					"name": "",
					"type": "address"
				},
				{
					"internalType": "address",
					"name": "",
					"type": "address"
				},
				{
					"internalType": "uint256",
					"name": "",
					"type": "uint256"
				}
			],
			"name": "safeTransferFrom",
			"outputs": [],
			"stateMutability": "pure",
			"type": "function"
		},
		{
			"inputs": [
				{
					"internalType": "address",
					"name": "",
					"type": "address"
				},
				{
					"internalType": "address",
					"name": "",
					"type": "address"
				},
				{
					"internalType": "uint256",
					"name": "",
					"type": "uint256"
				},
				{
					"internalType": "bytes",
					"name": "",
					"type": "bytes"
				}
			],
			"name": "safeTransferFrom",
			"outputs": [],
			"stateMutability": "pure",
			"type": "function"
		},
		{
			"inputs": [
				{
					"internalType": "address",
					"name": "",
					"type": "address"
				},
				{
					"internalType": "bool",
					"name": "",
					"type": "bool"
				}
			],
			"name": "setApprovalForAll",
			"outputs": [],
			"stateMutability": "pure",
			"type": "function"
		},
		{
			"inputs": [
				{
					"internalType": "uint256",
					"name": "tokenId_",
					"type": "uint256"
				},
				{
					"internalType": "bool",
					"name": "approved_",
					"type": "bool"
				}
			],
			"name": "setApprovalGrowth",
			"outputs": [],
			"stateMutability": "nonpayable",
			"type": "function"
		},
		{
			"inputs": [
				{
					"internalType": "bool",
					"name": "isProtected_",
					"type": "bool"
				}
			],
			"name": "setProtected",
			"outputs": [
				{
					"internalType": "bool",
					"name": "",
					"type": "bool"
				}
			],
			"stateMutability": "nonpayable",
			"type": "function"
		},
		{
			"inputs": [
				{
					"internalType": "string",
					"name": "tokenURI_",
					"type": "string"
				}
			],
			"name": "setTokenURI",
			"outputs": [
				{
					"internalType": "string",
					"name": "",
					"type": "string"
				}
			],
			"stateMutability": "nonpayable",
			"type": "function"
		},
		{
			"inputs": [
				{
					"internalType": "bytes4",
					"name": "interfaceId",
					"type": "bytes4"
				}
			],
			"name": "supportsInterface",
			"outputs": [
				{
					"internalType": "bool",
					"name": "",
					"type": "bool"
				}
			],
			"stateMutability": "view",
			"type": "function"
		},
		{
			"inputs": [],
			"name": "symbol",
			"outputs": [
				{
					"internalType": "string",
					"name": "",
					"type": "string"
				}
			],
			"stateMutability": "pure",
			"type": "function"
		},
		{
			"inputs": [
				{
					"internalType": "address",
					"name": "owner_",
					"type": "address"
				},
				{
					"internalType": "uint256",
					"name": "index_",
					"type": "uint256"
				}
			],
			"name": "tokenOfOwnerByIndex",
			"outputs": [
				{
					"internalType": "uint256",
					"name": "",
					"type": "uint256"
				}
			],
			"stateMutability": "view",
			"type": "function"
		},
		{
			"inputs": [
				{
					"internalType": "uint256",
					"name": "tokenId_",
					"type": "uint256"
				}
			],
			"name": "tokenURI",
			"outputs": [
				{
					"internalType": "string",
					"name": "",
					"type": "string"
				}
			],
			"stateMutability": "view",
			"type": "function"
		},
		{
			"inputs": [],
			"name": "totalSupply",
			"outputs": [
				{
					"internalType": "uint256",
					"name": "",
					"type": "uint256"
				}
			],
			"stateMutability": "view",
			"type": "function"
		},
		{
			"inputs": [],
			"name": "totalUser",
			"outputs": [
				{
					"internalType": "uint256",
					"name": "",
					"type": "uint256"
				}
			],
			"stateMutability": "view",
			"type": "function"
		},
		{
			"inputs": [
				{
					"internalType": "address",
					"name": "",
					"type": "address"
				},
				{
					"internalType": "address",
					"name": "",
					"type": "address"
				},
				{
					"internalType": "uint256",
					"name": "",
					"type": "uint256"
				}
			],
			"name": "transferFrom",
			"outputs": [],
			"stateMutability": "pure",
			"type": "function"
		},
		{
			"inputs": [
				{
					"internalType": "address",
					"name": "newOwner",
					"type": "address"
				}
			],
			"name": "transferOwnership",
			"outputs": [],
			"stateMutability": "nonpayable",
			"type": "function"
		}
	]
}