{
	"sbt-contract/src/MySoulSocietySBT.sol": {
		"MySoulContract": {
			"abi": [
				{
					"inputs": [],
					"stateMutability": "nonpayable",
					"type": "constructor"
				},
				{
					"inputs": [
						{
							"internalType": "uint256",
							"name": "tokenId",
							"type": "uint256"
						}
					],
					"name": "SoulSocietySBTExistToken",
					"type": "error"
				},
				{
					"inputs": [
						{
							"internalType": "address",
							"name": "sender",
							"type": "address"
						},
						{
							"internalType": "uint256",
							"name": "tokenId",
							"type": "uint256"
						},
						{
							"internalType": "address",
							"name": "owner",
							"type": "address"
						}
					],
					"name": "SoulSocietySBTIncorrectOwner",
					"type": "error"
				},
				{
					"inputs": [
						{
							"internalType": "address",
							"name": "to",
							"type": "address"
						}
					],
					"name": "SoulSocietySBTInvalidOwner",
					"type": "error"
				},
				{
					"inputs": [
						{
							"internalType": "address",
							"name": "receiver",
							"type": "address"
						}
					],
					"name": "SoulSocietySBTInvalidReceiver",
					"type": "error"
				},
				{
					"inputs": [
						{
							"internalType": "address",
							"name": "sender",
							"type": "address"
						}
					],
					"name": "SoulSocietySBTInvalidSender",
					"type": "error"
				},
				{
					"inputs": [
						{
							"internalType": "address",
							"name": "sender",
							"type": "address"
						}
					],
					"name": "SoulSocietySBTNonExist",
					"type": "error"
				},
				{
					"inputs": [
						{
							"internalType": "uint256",
							"name": "tokenId",
							"type": "uint256"
						}
					],
					"name": "SoulSocietySBTNonexistentToken",
					"type": "error"
				},
				{
					"inputs": [
						{
							"internalType": "address",
							"name": "owner",
							"type": "address"
						},
						{
							"internalType": "address",
							"name": "to",
							"type": "address"
						}
					],
					"name": "SoulSocietySBTNotOwner",
					"type": "error"
				},
				{
					"inputs": [
						{
							"internalType": "string",
							"name": "message",
							"type": "string"
						}
					],
					"name": "SoulSocietySBTNotSupported",
					"type": "error"
				},
				{
					"inputs": [
						{
							"internalType": "address",
							"name": "owner",
							"type": "address"
						},
						{
							"internalType": "uint256",
							"name": "tokenId",
							"type": "uint256"
						}
					],
					"name": "SoulSocietySBTPermissionDenied",
					"type": "error"
				},
				{
					"inputs": [
						{
							"internalType": "address",
							"name": "owner",
							"type": "address"
						}
					],
					"name": "SoulSocietySBTProtectedOwner",
					"type": "error"
				},
				{
					"anonymous": false,
					"inputs": [
						{
							"indexed": true,
							"internalType": "address",
							"name": "owner",
							"type": "address"
						},
						{
							"indexed": true,
							"internalType": "address",
							"name": "approved",
							"type": "address"
						},
						{
							"indexed": true,
							"internalType": "uint256",
							"name": "tokenId",
							"type": "uint256"
						}
					],
					"name": "Approval",
					"type": "event"
				},
				{
					"anonymous": false,
					"inputs": [
						{
							"indexed": true,
							"internalType": "address",
							"name": "owner",
							"type": "address"
						},
						{
							"indexed": true,
							"internalType": "address",
							"name": "operator",
							"type": "address"
						},
						{
							"indexed": false,
							"internalType": "bool",
							"name": "approved",
							"type": "bool"
						}
					],
					"name": "ApprovalForAll",
					"type": "event"
				},
				{
					"anonymous": false,
					"inputs": [
						{
							"indexed": true,
							"internalType": "address",
							"name": "creator",
							"type": "address"
						},
						{
							"indexed": false,
							"internalType": "uint256",
							"name": "creationTime",
							"type": "uint256"
						},
						{
							"indexed": false,
							"internalType": "string",
							"name": "name",
							"type": "string"
						},
						{
							"indexed": false,
							"internalType": "string",
							"name": "symbol",
							"type": "string"
						},
						{
							"indexed": false,
							"internalType": "string",
							"name": "uri",
							"type": "string"
						}
					],
					"name": "ContractCreated",
					"type": "event"
				},
				{
					"anonymous": false,
					"inputs": [
						{
							"indexed": true,
							"internalType": "address",
							"name": "to",
							"type": "address"
						},
						{
							"indexed": false,
							"internalType": "uint256",
							"name": "tokenId",
							"type": "uint256"
						},
						{
							"indexed": true,
							"internalType": "uint256",
							"name": "growth",
							"type": "uint256"
						}
					],
					"name": "GrowUp",
					"type": "event"
				},
				{
					"anonymous": false,
					"inputs": [
						{
							"indexed": false,
							"internalType": "address",
							"name": "from",
							"type": "address"
						},
						{
							"indexed": true,
							"internalType": "address",
							"name": "to",
							"type": "address"
						},
						{
							"indexed": true,
							"internalType": "uint256",
							"name": "tokenId",
							"type": "uint256"
						},
						{
							"indexed": true,
							"internalType": "uint256",
							"name": "tokenType",
							"type": "uint256"
						}
					],
					"name": "Mint",
					"type": "event"
				},
				{
					"anonymous": false,
					"inputs": [
						{
							"indexed": true,
							"internalType": "address",
							"name": "previousOwner",
							"type": "address"
						},
						{
							"indexed": true,
							"internalType": "address",
							"name": "newOwner",
							"type": "address"
						}
					],
					"name": "OwnershipTransferred",
					"type": "event"
				},
				{
					"anonymous": false,
					"inputs": [
						{
							"indexed": true,
							"internalType": "address",
							"name": "to",
							"type": "address"
						},
						{
							"indexed": true,
							"internalType": "uint256",
							"name": "tokenId",
							"type": "uint256"
						}
					],
					"name": "Reset",
					"type": "event"
				},
				{
					"anonymous": false,
					"inputs": [
						{
							"indexed": true,
							"internalType": "address",
							"name": "sender",
							"type": "address"
						},
						{
							"indexed": false,
							"internalType": "string",
							"name": "uri",
							"type": "string"
						}
					],
					"name": "SetTokenURI",
					"type": "event"
				},
				{
					"anonymous": false,
					"inputs": [
						{
							"indexed": true,
							"internalType": "address",
							"name": "from",
							"type": "address"
						},
						{
							"indexed": true,
							"internalType": "address",
							"name": "to",
							"type": "address"
						},
						{
							"indexed": true,
							"internalType": "uint256",
							"name": "tokenId",
							"type": "uint256"
						}
					],
					"name": "Transfer",
					"type": "event"
				},
				{
					"inputs": [
						{
							"internalType": "address",
							"name": "",
							"type": "address"
						},
						{
							"internalType": "uint256",
							"name": "",
							"type": "uint256"
						}
					],
					"name": "approve",
					"outputs": [],
					"stateMutability": "pure",
					"type": "function"
				},
				{
					"inputs": [
						{
							"internalType": "address",
							"name": "owner_",
							"type": "address"
						}
					],
					"name": "balanceOf",
					"outputs": [
						{
							"internalType": "uint256",
							"name": "",
							"type": "uint256"
						}
					],
					"stateMutability": "view",
					"type": "function"
				},
				{
					"inputs": [
						{
							"internalType": "address",
							"name": "owner_",
							"type": "address"
						},
						{
							"internalType": "uint256",
							"name": "tokenId_",
							"type": "uint256"
						}
					],
					"name": "getApprovalGrowth",
					"outputs": [
						{
							"internalType": "bool",
							"name": "",
							"type": "bool"
						}
					],
					"stateMutability": "view",
					"type": "function"
				},
				{
					"inputs": [
						{
							"internalType": "uint256",
							"name": "",
							"type": "uint256"
						}
					],
					"name": "getApproved",
					"outputs": [
						{
							"internalType": "address",
							"name": "",
							"type": "address"
						}
					],
					"stateMutability": "pure",
					"type": "function"
				},
				{
					"inputs": [
						{
							"internalType": "uint256",
							"name": "tokenId_",
							"type": "uint256"
						}
					],
					"name": "getGrowth",
					"outputs": [
						{
							"internalType": "uint256",
							"name": "",
							"type": "uint256"
						}
					],
					"stateMutability": "view",
					"type": "function"
				},
				{
					"inputs": [
						{
							"internalType": "uint256",
							"name": "tokenId_",
							"type": "uint256"
						}
					],
					"name": "getTokenType",
					"outputs": [
						{
							"internalType": "uint256",
							"name": "",
							"type": "uint256"
						}
					],
					"stateMutability": "view",
					"type": "function"
				},
				{
					"inputs": [
						{
							"internalType": "address",
							"name": "to_",
							"type": "address"
						},
						{
							"internalType": "uint256",
							"name": "tokenId_",
							"type": "uint256"
						}
					],
					"name": "growUp",
					"outputs": [
						{
							"internalType": "uint256",
							"name": "",
							"type": "uint256"
						}
					],
					"stateMutability": "nonpayable",
					"type": "function"
				},
				{
					"inputs": [
						{
							"internalType": "address",
							"name": "",
							"type": "address"
						},
						{
							"internalType": "address",
							"name": "",
							"type": "address"
						}
					],
					"name": "isApprovedForAll",
					"outputs": [
						{
							"internalType": "bool",
							"name": "",
							"type": "bool"
						}
					],
					"stateMutability": "pure",
					"type": "function"
				},
				{
					"inputs": [
						{
							"internalType": "address",
							"name": "to_",
							"type": "address"
						}
					],
					"name": "isProtected",
					"outputs": [
						{
							"internalType": "bool",
							"name": "",
							"type": "bool"
						}
					],
					"stateMutability": "view",
					"type": "function"
				},
				{
					"inputs": [
						{
							"internalType": "address",
							"name": "to_",
							"type": "address"
						},
						{
							"internalType": "uint256",
							"name": "tokenType_",
							"type": "uint256"
						}
					],
					"name": "mint",
					"outputs": [
						{
							"internalType": "uint256",
							"name": "",
							"type": "uint256"
						}
					],
					"stateMutability": "nonpayable",
					"type": "function"
				},
				{
					"inputs": [],
					"name": "name",
					"outputs": [
						{
							"internalType": "string",
							"name": "",
							"type": "string"
						}
					],
					"stateMutability": "pure",
					"type": "function"
				},
				{
					"inputs": [],
					"name": "owner",
					"outputs": [
						{
							"internalType": "address",
							"name": "",
							"type": "address"
						}
					],
					"stateMutability": "view",
					"type": "function"
				},
				{
					"inputs": [
						{
							"internalType": "uint256",
							"name": "tokenId_",
							"type": "uint256"
						}
					],
					"name": "ownerOf",
					"outputs": [
						{
							"internalType": "address",
							"name": "",
							"type": "address"
						}
					],
					"stateMutability": "view",
					"type": "function"
				},
				{
					"inputs": [],
					"name": "renounceOwnership",
					"outputs": [],
					"stateMutability": "nonpayable",
					"type": "function"
				},
				{
					"inputs": [
						{
							"internalType": "address",
							"name": "to_",
							"type": "address"
						},
						{
							"internalType": "uint256",
							"name": "tokenId_",
							"type": "uint256"
						}
					],
					"name": "reset",
					"outputs": [],
					"stateMutability": "nonpayable",
					"type": "function"
				},
				{
					"inputs": [
						{
							"internalType": "address",
							"name": "",
							"type": "address"
						},
						{
							"internalType": "address",
							"name": "",
							"type": "address"
						},
						{
							"internalType": "uint256",
							"name": "",
							"type": "uint256"
						}
					],
					"name": "safeTransferFrom",
					"outputs": [],
					"stateMutability": "pure",
					"type": "function"
				},
				{
					"inputs": [
						{
							"internalType": "address",
							"name": "",
							"type": "address"
						},
						{
							"internalType": "address",
							"name": "",
							"type": "address"
						},
						{
							"internalType": "uint256",
							"name": "",
							"type": "uint256"
						},
						{
							"internalType": "bytes",
							"name": "",
							"type": "bytes"
						}
					],
					"name": "safeTransferFrom",
					"outputs": [],
					"stateMutability": "pure",
					"type": "function"
				},
				{
					"inputs": [
						{
							"internalType": "address",
							"name": "",
							"type": "address"
						},
						{
							"internalType": "bool",
							"name": "",
							"type": "bool"
						}
					],
					"name": "setApprovalForAll",
					"outputs": [],
					"stateMutability": "pure",
					"type": "function"
				},
				{
					"inputs": [
						{
							"internalType": "uint256",
							"name": "tokenId_",
							"type": "uint256"
						},
						{
							"internalType": "bool",
							"name": "approved_",
							"type": "bool"
						}
					],
					"name": "setApprovalGrowth",
					"outputs": [],
					"stateMutability": "nonpayable",
					"type": "function"
				},
				{
					"inputs": [
						{
							"internalType": "bool",
							"name": "isProtected_",
							"type": "bool"
						}
					],
					"name": "setProtected",
					"outputs": [
						{
							"internalType": "bool",
							"name": "",
							"type": "bool"
						}
					],
					"stateMutability": "nonpayable",
					"type": "function"
				},
				{
					"inputs": [
						{
							"internalType": "string",
							"name": "tokenURI_",
							"type": "string"
						}
					],
					"name": "setTokenURI",
					"outputs": [
						{
							"internalType": "string",
							"name": "",
							"type": "string"
						}
					],
					"stateMutability": "nonpayable",
					"type": "function"
				},
				{
					"inputs": [
						{
							"internalType": "bytes4",
							"name": "interfaceId",
							"type": "bytes4"
						}
					],
					"name": "supportsInterface",
					"outputs": [
						{
							"internalType": "bool",
							"name": "",
							"type": "bool"
						}
					],
					"stateMutability": "view",
					"type": "function"
				},
				{
					"inputs": [],
					"name": "symbol",
					"outputs": [
						{
							"internalType": "string",
							"name": "",
							"type": "string"
						}
					],
					"stateMutability": "pure",
					"type": "function"
				},
				{
					"inputs": [
						{
							"internalType": "address",
							"name": "owner_",
							"type": "address"
						},
						{
							"internalType": "uint256",
							"name": "index_",
							"type": "uint256"
						}
					],
					"name": "tokenOfOwnerByIndex",
					"outputs": [
						{
							"internalType": "uint256",
							"name": "",
							"type": "uint256"
						}
					],
					"stateMutability": "view",
					"type": "function"
				},
				{
					"inputs": [
						{
							"internalType": "uint256",
							"name": "tokenId_",
							"type": "uint256"
						}
					],
					"name": "tokenURI",
					"outputs": [
						{
							"internalType": "string",
							"name": "",
							"type": "string"
						}
					],
					"stateMutability": "view",
					"type": "function"
				},
				{
					"inputs": [],
					"name": "totalSupply",
					"outputs": [
						{
							"internalType": "uint256",
							"name": "",
							"type": "uint256"
						}
					],
					"stateMutability": "view",
					"type": "function"
				},
				{
					"inputs": [],
					"name": "totalUser",
					"outputs": [
						{
							"internalType": "uint256",
							"name": "",
							"type": "uint256"
						}
					],
					"stateMutability": "view",
					"type": "function"
				},
				{
					"inputs": [
						{
							"internalType": "address",
							"name": "",
							"type": "address"
						},
						{
							"internalType": "address",
							"name": "",
							"type": "address"
						},
						{
							"internalType": "uint256",
							"name": "",
							"type": "uint256"
						}
					],
					"name": "transferFrom",
					"outputs": [],
					"stateMutability": "pure",
					"type": "function"
				},
				{
					"inputs": [
						{
							"internalType": "address",
							"name": "newOwner",
							"type": "address"
						}
					],
					"name": "transferOwnership",
					"outputs": [],
					"stateMutability": "nonpayable",
					"type": "function"
				}
			],
			"devdoc": {
				"errors": {
					"SoulSocietySBTIncorrectOwner(address,uint256,address)": [
						{
							"details": "Indicates an error related to the ownership over a particular token. Used in transfers.",
							"params": {
								"owner": "Address of the current owner of a token.",
								"sender": "Address whose tokens are being transferred.",
								"tokenId": "Identifier number of a token."
							}
						}
					],
					"SoulSocietySBTInvalidReceiver(address)": [
						{
							"details": "Indicates a failure with the token `receiver`. Used in transfers.",
							"params": {
								"receiver": "Address to which tokens are being transferred."
							}
						}
					],
					"SoulSocietySBTInvalidSender(address)": [
						{
							"details": "Indicates a failure with the token `sender`. Used in transfers.",
							"params": {
								"sender": "Address whose tokens are being transferred."
							}
						}
					],
					"SoulSocietySBTNonexistentToken(uint256)": [
						{
							"details": "Indicates a `tokenId` whose `owner` is the zero address.",
							"params": {
								"tokenId": "Identifier number of a token."
							}
						}
					],
					"SoulSocietySBTNotOwner(address,address)": [
						{
							"details": "Indicates an error related to the ownership over a particular token.",
							"params": {
								"owner": "Address of the current owner of a token.",
								"to": "Address whose SBT token are being used."
							}
						}
					],
					"SoulSocietySBTPermissionDenied(address,uint256)": [
						{
							"details": "Indicates an error related to the ownership over a particular token.",
							"params": {
								"owner": "Address of the current owner of a token.",
								"tokenId": "tokenId Identifier number of a token"
							}
						}
					],
					"SoulSocietySBTProtectedOwner(address)": [
						{
							"details": "Indicates protected status. Used in token.",
							"params": {
								"owner": "Address."
							}
						}
					]
				},
				"events": {
					"Approval(address,address,uint256)": {
						"details": "Emitted when `owner` enables `approved` to manage the `tokenId` token."
					},
					"ApprovalForAll(address,address,bool)": {
						"details": "Emitted when `owner` enables or disables (`approved`) `operator` to manage all of its assets."
					},
					"Mint(address,address,uint256,uint256)": {
						"details": "Emitted when `tokenId` token is minted from `from(Contract Owner)` to `to`."
					},
					"Transfer(address,address,uint256)": {
						"details": "Emitted when `tokenId` token is transferred from `from` to `to`."
					}
				},
				"kind": "dev",
				"methods": {
					"name()": {
						"details": "Returns the token collection name."
					},
					"owner()": {
						"details": "Returns the address of the current owner."
					},
					"ownerOf(uint256)": {
						"details": "Returns the owner of the `tokenId`. Does NOT revert if token doesn't exist"
					},
					"renounceOwnership()": {
						"details": "Leaves the contract without owner. It will not be possible to call `onlyOwner` functions. Can only be called by the current owner. NOTE: Renouncing ownership will leave the contract without an owner, thereby disabling any functionality that is only available to the owner."
					},
					"supportsInterface(bytes4)": {
						"details": "See {IERC165-supportsInterface}."
					},
					"symbol()": {
						"details": "Returns the token collection symbol."
					},
					"tokenOfOwnerByIndex(address,uint256)": {
						"details": "Returns a token ID owned by `owner` at a given `index` of its token list. Use along with {balanceOf} to enumerate all of ``owner``'s tokens."
					},
					"tokenURI(uint256)": {
						"details": "Returns the Uniform Resource Identifier (URI) for `tokenId` token."
					},
					"totalSupply()": {
						"details": "Returns the total amount of tokens stored by the contract."
					},
					"transferOwnership(address)": {
						"details": "Transfers ownership of the contract to a new account (`newOwner`). Can only be called by the current owner."
					}
				},
				"version": 1
			},
			"evm": {
				"assembly": "    /* \"sbt-contract/src/MySoulSocietySBT.sol\":89:206  contract MySoulContract is SoulSocietySBT {... */\n  mstore(0x40, 0x80)\n    /* \"sbt-contract/src/MySoulSocietySBT.sol\":137:204  constructor() SoulSocietySBT(\"http://api.soulsociety.gg/\") {... */\n  callvalue\n  dup1\n  iszero\n  tag_1\n  jumpi\n  0x00\n  dup1\n  revert\ntag_1:\n  pop\n    /* \"sbt-contract/src/SoulSocietySBT.sol\":1993:2136  constructor(string memory uri_) {... */\n  mload(0x40)\n  dup1\n  0x40\n  add\n  0x40\n  mstore\n  dup1\n  0x1a\n  dup2\n  mstore\n  0x20\n  add\n  0x687474703a2f2f6170692e736f756c736f63696574792e67672f000000000000\n  dup2\n  mstore\n  pop\n    /* \"@openzeppelin/contracts/access/Ownable.sol\":936:968  _transferOwnership(_msgSender()) */\n  tag_6\n    /* \"@openzeppelin/contracts/access/Ownable.sol\":955:967  _msgSender() */\n  tag_7\n    /* \"@openzeppelin/contracts/access/Ownable.sol\":955:965  _msgSender */\n  shl(0x20, tag_8)\n    /* \"@openzeppelin/contracts/access/Ownable.sol\":955:967  _msgSender() */\n  0x20\n  shr\n  jump\t// in\ntag_7:\n    /* \"@openzeppelin/contracts/access/Ownable.sol\":936:954  _transferOwnership */\n  shl(0x20, tag_9)\n    /* \"@openzeppelin/contracts/access/Ownable.sol\":936:968  _transferOwnership(_msgSender()) */\n  0x20\n  shr\n  jump\t// in\ntag_6:\n    /* \"sbt-contract/src/SoulSocietySBT.sol\":2042:2046  uri_ */\n  dup1\n    /* \"sbt-contract/src/SoulSocietySBT.sol\":2035:2039  _uri */\n  0x01\n    /* \"sbt-contract/src/SoulSocietySBT.sol\":2035:2046  _uri = uri_ */\n  swap1\n  dup2\n  tag_11\n  swap2\n  swap1\n  tag_12\n  jump\t// in\ntag_11:\n  pop\n    /* \"sbt-contract/src/SoulSocietySBT.sol\":2078:2088  msg.sender */\n  caller\n    /* \"sbt-contract/src/SoulSocietySBT.sol\":2062:2129  ContractCreated(msg.sender,  block.timestamp, _name, _symbol, uri_) */\n  0xffffffffffffffffffffffffffffffffffffffff\n  and\n  0xddb33c9627985605622b2c4e8b308152b557aeae8ba59e2f05038c9d8ed6ae84\n    /* \"sbt-contract/src/SoulSocietySBT.sol\":2091:2106  block.timestamp */\n  timestamp\n    /* \"sbt-contract/src/SoulSocietySBT.sol\":2108:2113  _name */\n  mload(0x40)\n  dup1\n  0x40\n  add\n  0x40\n  mstore\n  dup1\n  0x06\n  dup2\n  mstore\n  0x20\n  add\n  0x484f4e5342540000000000000000000000000000000000000000000000000000\n  dup2\n  mstore\n  pop\n    /* \"sbt-contract/src/SoulSocietySBT.sol\":2115:2122  _symbol */\n  mload(0x40)\n  dup1\n  0x40\n  add\n  0x40\n  mstore\n  dup1\n  0x06\n  dup2\n  mstore\n  0x20\n  add\n  0x484f4e5342540000000000000000000000000000000000000000000000000000\n  dup2\n  mstore\n  pop\n    /* \"sbt-contract/src/SoulSocietySBT.sol\":2124:2128  uri_ */\n  dup6\n    /* \"sbt-contract/src/SoulSocietySBT.sol\":2062:2129  ContractCreated(msg.sender,  block.timestamp, _name, _symbol, uri_) */\n  mload(0x40)\n  tag_13\n  swap5\n  swap4\n  swap3\n  swap2\n  swap1\n  tag_14\n  jump\t// in\ntag_13:\n  mload(0x40)\n  dup1\n  swap2\n  sub\n  swap1\n  log2\n    /* \"sbt-contract/src/SoulSocietySBT.sol\":1993:2136  constructor(string memory uri_) {... */\n  pop\n    /* \"sbt-contract/src/MySoulSocietySBT.sol\":89:206  contract MySoulContract is SoulSocietySBT {... */\n  jump(tag_16)\n    /* \"@openzeppelin/contracts/utils/Context.sol\":640:736  function _msgSender() internal view virtual returns (address) {... */\ntag_8:\n    /* \"@openzeppelin/contracts/utils/Context.sol\":693:700  address */\n  0x00\n    /* \"@openzeppelin/contracts/utils/Context.sol\":719:729  msg.sender */\n  caller\n    /* \"@openzeppelin/contracts/utils/Context.sol\":712:729  return msg.sender */\n  swap1\n  pop\n    /* \"@openzeppelin/contracts/utils/Context.sol\":640:736  function _msgSender() internal view virtual returns (address) {... */\n  swap1\n  jump\t// out\n    /* \"@openzeppelin/contracts/access/Ownable.sol\":2426:2613  function _transferOwnership(address newOwner) internal virtual {... */\ntag_9:\n    /* \"@openzeppelin/contracts/access/Ownable.sol\":2499:2515  address oldOwner */\n  0x00\n    /* \"@openzeppelin/contracts/access/Ownable.sol\":2518:2524  _owner */\n  dup1\n  0x00\n  swap1\n  sload\n  swap1\n  0x0100\n  exp\n  swap1\n  div\n  0xffffffffffffffffffffffffffffffffffffffff\n  and\n    /* \"@openzeppelin/contracts/access/Ownable.sol\":2499:2524  address oldOwner = _owner */\n  swap1\n  pop\n    /* \"@openzeppelin/contracts/access/Ownable.sol\":2543:2551  newOwner */\n  dup2\n    /* \"@openzeppelin/contracts/access/Ownable.sol\":2534:2540  _owner */\n  0x00\n  dup1\n    /* \"@openzeppelin/contracts/access/Ownable.sol\":2534:2551  _owner = newOwner */\n  0x0100\n  exp\n  dup2\n  sload\n  dup2\n  0xffffffffffffffffffffffffffffffffffffffff\n  mul\n  not\n  and\n  swap1\n  dup4\n  0xffffffffffffffffffffffffffffffffffffffff\n  and\n  mul\n  or\n  swap1\n  sstore\n  pop\n    /* \"@openzeppelin/contracts/access/Ownable.sol\":2597:2605  newOwner */\n  dup2\n    /* \"@openzeppelin/contracts/access/Ownable.sol\":2566:2606  OwnershipTransferred(oldOwner, newOwner) */\n  0xffffffffffffffffffffffffffffffffffffffff\n  and\n    /* \"@openzeppelin/contracts/access/Ownable.sol\":2587:2595  oldOwner */\n  dup2\n    /* \"@openzeppelin/contracts/access/Ownable.sol\":2566:2606  OwnershipTransferred(oldOwner, newOwner) */\n  0xffffffffffffffffffffffffffffffffffffffff\n  and\n  0x8be0079c531659141344cd1fd0a4f28419497f9722a3daafe3b4186f6b6457e0\n  mload(0x40)\n  mload(0x40)\n  dup1\n  swap2\n  sub\n  swap1\n  log3\n    /* \"@openzeppelin/contracts/access/Ownable.sol\":2489:2613  {... */\n  pop\n    /* \"@openzeppelin/contracts/access/Ownable.sol\":2426:2613  function _transferOwnership(address newOwner) internal virtual {... */\n  pop\n  jump\t// out\n    /* \"#utility.yul\":7:106   */\ntag_19:\n    /* \"#utility.yul\":59:65   */\n  0x00\n    /* \"#utility.yul\":93:98   */\n  dup2\n    /* \"#utility.yul\":87:99   */\n  mload\n    /* \"#utility.yul\":77:99   */\n  swap1\n  pop\n    /* \"#utility.yul\":7:106   */\n  swap2\n  swap1\n  pop\n  jump\t// out\n    /* \"#utility.yul\":112:292   */\ntag_20:\n    /* \"#utility.yul\":160:237   */\n  0x4e487b7100000000000000000000000000000000000000000000000000000000\n    /* \"#utility.yul\":157:158   */\n  0x00\n    /* \"#utility.yul\":150:238   */\n  mstore\n    /* \"#utility.yul\":257:261   */\n  0x41\n    /* \"#utility.yul\":254:255   */\n  0x04\n    /* \"#utility.yul\":247:262   */\n  mstore\n    /* \"#utility.yul\":281:285   */\n  0x24\n    /* \"#utility.yul\":278:279   */\n  0x00\n    /* \"#utility.yul\":271:286   */\n  revert\n    /* \"#utility.yul\":298:478   */\ntag_21:\n    /* \"#utility.yul\":346:423   */\n  0x4e487b7100000000000000000000000000000000000000000000000000000000\n    /* \"#utility.yul\":343:344   */\n  0x00\n    /* \"#utility.yul\":336:424   */\n  mstore\n    /* \"#utility.yul\":443:447   */\n  0x22\n    /* \"#utility.yul\":440:441   */\n  0x04\n    /* \"#utility.yul\":433:448   */\n  mstore\n    /* \"#utility.yul\":467:471   */\n  0x24\n    /* \"#utility.yul\":464:465   */\n  0x00\n    /* \"#utility.yul\":457:472   */\n  revert\n    /* \"#utility.yul\":484:804   */\ntag_22:\n    /* \"#utility.yul\":528:534   */\n  0x00\n    /* \"#utility.yul\":565:566   */\n  0x02\n    /* \"#utility.yul\":559:563   */\n  dup3\n    /* \"#utility.yul\":555:567   */\n  div\n    /* \"#utility.yul\":545:567   */\n  swap1\n  pop\n    /* \"#utility.yul\":612:613   */\n  0x01\n    /* \"#utility.yul\":606:610   */\n  dup3\n    /* \"#utility.yul\":602:614   */\n  and\n    /* \"#utility.yul\":633:651   */\n  dup1\n    /* \"#utility.yul\":623:704   */\n  tag_49\n  jumpi\n    /* \"#utility.yul\":689:693   */\n  0x7f\n    /* \"#utility.yul\":681:687   */\n  dup3\n    /* \"#utility.yul\":677:694   */\n  and\n    /* \"#utility.yul\":667:694   */\n  swap2\n  pop\n    /* \"#utility.yul\":623:704   */\ntag_49:\n    /* \"#utility.yul\":751:753   */\n  0x20\n    /* \"#utility.yul\":743:749   */\n  dup3\n    /* \"#utility.yul\":740:754   */\n  lt\n    /* \"#utility.yul\":720:738   */\n  dup2\n    /* \"#utility.yul\":717:755   */\n  sub\n    /* \"#utility.yul\":714:798   */\n  tag_50\n  jumpi\n    /* \"#utility.yul\":770:788   */\n  tag_51\n  tag_21\n  jump\t// in\ntag_51:\n    /* \"#utility.yul\":714:798   */\ntag_50:\n    /* \"#utility.yul\":535:804   */\n  pop\n    /* \"#utility.yul\":484:804   */\n  swap2\n  swap1\n  pop\n  jump\t// out\n    /* \"#utility.yul\":810:951   */\ntag_23:\n    /* \"#utility.yul\":859:863   */\n  0x00\n    /* \"#utility.yul\":882:885   */\n  dup2\n    /* \"#utility.yul\":874:885   */\n  swap1\n  pop\n    /* \"#utility.yul\":905:908   */\n  dup2\n    /* \"#utility.yul\":902:903   */\n  0x00\n    /* \"#utility.yul\":895:909   */\n  mstore\n    /* \"#utility.yul\":939:943   */\n  0x20\n    /* \"#utility.yul\":936:937   */\n  0x00\n    /* \"#utility.yul\":926:944   */\n  keccak256\n    /* \"#utility.yul\":918:944   */\n  swap1\n  pop\n    /* \"#utility.yul\":810:951   */\n  swap2\n  swap1\n  pop\n  jump\t// out\n    /* \"#utility.yul\":957:1050   */\ntag_24:\n    /* \"#utility.yul\":994:1000   */\n  0x00\n    /* \"#utility.yul\":1041:1043   */\n  0x20\n    /* \"#utility.yul\":1036:1038   */\n  0x1f\n    /* \"#utility.yul\":1029:1034   */\n  dup4\n    /* \"#utility.yul\":1025:1039   */\n  add\n    /* \"#utility.yul\":1021:1044   */\n  div\n    /* \"#utility.yul\":1011:1044   */\n  swap1\n  pop\n    /* \"#utility.yul\":957:1050   */\n  swap2\n  swap1\n  pop\n  jump\t// out\n    /* \"#utility.yul\":1056:1163   */\ntag_25:\n    /* \"#utility.yul\":1100:1108   */\n  0x00\n    /* \"#utility.yul\":1150:1155   */\n  dup3\n    /* \"#utility.yul\":1144:1148   */\n  dup3\n    /* \"#utility.yul\":1140:1156   */\n  shl\n    /* \"#utility.yul\":1119:1156   */\n  swap1\n  pop\n    /* \"#utility.yul\":1056:1163   */\n  swap3\n  swap2\n  pop\n  pop\n  jump\t// out\n    /* \"#utility.yul\":1169:1562   */\ntag_26:\n    /* \"#utility.yul\":1238:1244   */\n  0x00\n    /* \"#utility.yul\":1288:1289   */\n  0x08\n    /* \"#utility.yul\":1276:1286   */\n  dup4\n    /* \"#utility.yul\":1272:1290   */\n  mul\n    /* \"#utility.yul\":1311:1408   */\n  tag_56\n    /* \"#utility.yul\":1341:1407   */\n  0xffffffffffffffffffffffffffffffffffffffffffffffffffffffffffffffff\n    /* \"#utility.yul\":1330:1339   */\n  dup3\n    /* \"#utility.yul\":1311:1408   */\n  tag_25\n  jump\t// in\ntag_56:\n    /* \"#utility.yul\":1429:1468   */\n  tag_57\n    /* \"#utility.yul\":1459:1467   */\n  dup7\n    /* \"#utility.yul\":1448:1457   */\n  dup4\n    /* \"#utility.yul\":1429:1468   */\n  tag_25\n  jump\t// in\ntag_57:\n    /* \"#utility.yul\":1417:1468   */\n  swap6\n  pop\n    /* \"#utility.yul\":1501:1505   */\n  dup1\n    /* \"#utility.yul\":1497:1506   */\n  not\n    /* \"#utility.yul\":1490:1495   */\n  dup5\n    /* \"#utility.yul\":1486:1507   */\n  and\n    /* \"#utility.yul\":1477:1507   */\n  swap4\n  pop\n    /* \"#utility.yul\":1550:1554   */\n  dup1\n    /* \"#utility.yul\":1540:1548   */\n  dup7\n    /* \"#utility.yul\":1536:1555   */\n  and\n    /* \"#utility.yul\":1529:1534   */\n  dup5\n    /* \"#utility.yul\":1526:1556   */\n  or\n    /* \"#utility.yul\":1516:1556   */\n  swap3\n  pop\n    /* \"#utility.yul\":1245:1562   */\n  pop\n  pop\n    /* \"#utility.yul\":1169:1562   */\n  swap4\n  swap3\n  pop\n  pop\n  pop\n  jump\t// out\n    /* \"#utility.yul\":1568:1645   */\ntag_27:\n    /* \"#utility.yul\":1605:1612   */\n  0x00\n    /* \"#utility.yul\":1634:1639   */\n  dup2\n    /* \"#utility.yul\":1623:1639   */\n  swap1\n  pop\n    /* \"#utility.yul\":1568:1645   */\n  swap2\n  swap1\n  pop\n  jump\t// out\n    /* \"#utility.yul\":1651:1711   */\ntag_28:\n    /* \"#utility.yul\":1679:1682   */\n  0x00\n    /* \"#utility.yul\":1700:1705   */\n  dup2\n    /* \"#utility.yul\":1693:1705   */\n  swap1\n  pop\n    /* \"#utility.yul\":1651:1711   */\n  swap2\n  swap1\n  pop\n  jump\t// out\n    /* \"#utility.yul\":1717:1859   */\ntag_29:\n    /* \"#utility.yul\":1767:1776   */\n  0x00\n    /* \"#utility.yul\":1800:1853   */\n  tag_61\n    /* \"#utility.yul\":1818:1852   */\n  tag_62\n    /* \"#utility.yul\":1827:1851   */\n  tag_63\n    /* \"#utility.yul\":1845:1850   */\n  dup5\n    /* \"#utility.yul\":1827:1851   */\n  tag_27\n  jump\t// in\ntag_63:\n    /* \"#utility.yul\":1818:1852   */\n  tag_28\n  jump\t// in\ntag_62:\n    /* \"#utility.yul\":1800:1853   */\n  tag_27\n  jump\t// in\ntag_61:\n    /* \"#utility.yul\":1787:1853   */\n  swap1\n  pop\n    /* \"#utility.yul\":1717:1859   */\n  swap2\n  swap1\n  pop\n  jump\t// out\n    /* \"#utility.yul\":1865:1940   */\ntag_30:\n    /* \"#utility.yul\":1908:1911   */\n  0x00\n    /* \"#utility.yul\":1929:1934   */\n  dup2\n    /* \"#utility.yul\":1922:1934   */\n  swap1\n  pop\n    /* \"#utility.yul\":1865:1940   */\n  swap2\n  swap1\n  pop\n  jump\t// out\n    /* \"#utility.yul\":1946:2215   */\ntag_31:\n    /* \"#utility.yul\":2056:2095   */\n  tag_66\n    /* \"#utility.yul\":2087:2094   */\n  dup4\n    /* \"#utility.yul\":2056:2095   */\n  tag_29\n  jump\t// in\ntag_66:\n    /* \"#utility.yul\":2117:2208   */\n  tag_67\n    /* \"#utility.yul\":2166:2207   */\n  tag_68\n    /* \"#utility.yul\":2190:2206   */\n  dup3\n    /* \"#utility.yul\":2166:2207   */\n  tag_30\n  jump\t// in\ntag_68:\n    /* \"#utility.yul\":2158:2164   */\n  dup5\n    /* \"#utility.yul\":2151:2155   */\n  dup5\n    /* \"#utility.yul\":2145:2156   */\n  sload\n    /* \"#utility.yul\":2117:2208   */\n  tag_26\n  jump\t// in\ntag_67:\n    /* \"#utility.yul\":2111:2115   */\n  dup3\n    /* \"#utility.yul\":2104:2209   */\n  sstore\n    /* \"#utility.yul\":2022:2215   */\n  pop\n    /* \"#utility.yul\":1946:2215   */\n  pop\n  pop\n  pop\n  jump\t// out\n    /* \"#utility.yul\":2221:2294   */\ntag_32:\n    /* \"#utility.yul\":2266:2269   */\n  0x00\n    /* \"#utility.yul\":2221:2294   */\n  swap1\n  jump\t// out\n    /* \"#utility.yul\":2300:2489   */\ntag_33:\n    /* \"#utility.yul\":2377:2409   */\n  tag_71\n  tag_32\n  jump\t// in\ntag_71:\n    /* \"#utility.yul\":2418:2483   */\n  tag_72\n    /* \"#utility.yul\":2476:2482   */\n  dup2\n    /* \"#utility.yul\":2468:2474   */\n  dup5\n    /* \"#utility.yul\":2462:2466   */\n  dup5\n    /* \"#utility.yul\":2418:2483   */\n  tag_31\n  jump\t// in\ntag_72:\n    /* \"#utility.yul\":2353:2489   */\n  pop\n    /* \"#utility.yul\":2300:2489   */\n  pop\n  pop\n  jump\t// out\n    /* \"#utility.yul\":2495:2681   */\ntag_34:\n    /* \"#utility.yul\":2555:2675   */\ntag_74:\n    /* \"#utility.yul\":2572:2575   */\n  dup2\n    /* \"#utility.yul\":2565:2570   */\n  dup2\n    /* \"#utility.yul\":2562:2576   */\n  lt\n    /* \"#utility.yul\":2555:2675   */\n  iszero\n  tag_76\n  jumpi\n    /* \"#utility.yul\":2626:2665   */\n  tag_77\n    /* \"#utility.yul\":2663:2664   */\n  0x00\n    /* \"#utility.yul\":2656:2661   */\n  dup3\n    /* \"#utility.yul\":2626:2665   */\n  tag_33\n  jump\t// in\ntag_77:\n    /* \"#utility.yul\":2599:2600   */\n  0x01\n    /* \"#utility.yul\":2592:2597   */\n  dup2\n    /* \"#utility.yul\":2588:2601   */\n  add\n    /* \"#utility.yul\":2579:2601   */\n  swap1\n  pop\n    /* \"#utility.yul\":2555:2675   */\n  jump(tag_74)\ntag_76:\n    /* \"#utility.yul\":2495:2681   */\n  pop\n  pop\n  jump\t// out\n    /* \"#utility.yul\":2687:3230   */\ntag_35:\n    /* \"#utility.yul\":2788:2790   */\n  0x1f\n    /* \"#utility.yul\":2783:2786   */\n  dup3\n    /* \"#utility.yul\":2780:2791   */\n  gt\n    /* \"#utility.yul\":2777:3223   */\n  iszero\n  tag_79\n  jumpi\n    /* \"#utility.yul\":2822:2860   */\n  tag_80\n    /* \"#utility.yul\":2854:2859   */\n  dup2\n    /* \"#utility.yul\":2822:2860   */\n  tag_23\n  jump\t// in\ntag_80:\n    /* \"#utility.yul\":2906:2935   */\n  tag_81\n    /* \"#utility.yul\":2924:2934   */\n  dup5\n    /* \"#utility.yul\":2906:2935   */\n  tag_24\n  jump\t// in\ntag_81:\n    /* \"#utility.yul\":2896:2904   */\n  dup2\n    /* \"#utility.yul\":2892:2936   */\n  add\n    /* \"#utility.yul\":3089:3091   */\n  0x20\n    /* \"#utility.yul\":3077:3087   */\n  dup6\n    /* \"#utility.yul\":3074:3092   */\n  lt\n    /* \"#utility.yul\":3071:3120   */\n  iszero\n  tag_82\n  jumpi\n    /* \"#utility.yul\":3110:3118   */\n  dup2\n    /* \"#utility.yul\":3095:3118   */\n  swap1\n  pop\n    /* \"#utility.yul\":3071:3120   */\ntag_82:\n    /* \"#utility.yul\":3133:3213   */\n  tag_83\n    /* \"#utility.yul\":3189:3211   */\n  tag_84\n    /* \"#utility.yul\":3207:3210   */\n  dup6\n    /* \"#utility.yul\":3189:3211   */\n  tag_24\n  jump\t// in\ntag_84:\n    /* \"#utility.yul\":3179:3187   */\n  dup4\n    /* \"#utility.yul\":3175:3212   */\n  add\n    /* \"#utility.yul\":3162:3173   */\n  dup3\n    /* \"#utility.yul\":3133:3213   */\n  tag_34\n  jump\t// in\ntag_83:\n    /* \"#utility.yul\":2792:3223   */\n  pop\n  pop\n    /* \"#utility.yul\":2777:3223   */\ntag_79:\n    /* \"#utility.yul\":2687:3230   */\n  pop\n  pop\n  pop\n  jump\t// out\n    /* \"#utility.yul\":3236:3353   */\ntag_36:\n    /* \"#utility.yul\":3290:3298   */\n  0x00\n    /* \"#utility.yul\":3340:3345   */\n  dup3\n    /* \"#utility.yul\":3334:3338   */\n  dup3\n    /* \"#utility.yul\":3330:3346   */\n  shr\n    /* \"#utility.yul\":3309:3346   */\n  swap1\n  pop\n    /* \"#utility.yul\":3236:3353   */\n  swap3\n  swap2\n  pop\n  pop\n  jump\t// out\n    /* \"#utility.yul\":3359:3528   */\ntag_37:\n    /* \"#utility.yul\":3403:3409   */\n  0x00\n    /* \"#utility.yul\":3436:3487   */\n  tag_87\n    /* \"#utility.yul\":3484:3485   */\n  0x00\n    /* \"#utility.yul\":3480:3486   */\n  not\n    /* \"#utility.yul\":3472:3477   */\n  dup5\n    /* \"#utility.yul\":3469:3470   */\n  0x08\n    /* \"#utility.yul\":3465:3478   */\n  mul\n    /* \"#utility.yul\":3436:3487   */\n  tag_36\n  jump\t// in\ntag_87:\n    /* \"#utility.yul\":3432:3488   */\n  not\n    /* \"#utility.yul\":3517:3521   */\n  dup1\n    /* \"#utility.yul\":3511:3515   */\n  dup4\n    /* \"#utility.yul\":3507:3522   */\n  and\n    /* \"#utility.yul\":3497:3522   */\n  swap2\n  pop\n    /* \"#utility.yul\":3410:3528   */\n  pop\n    /* \"#utility.yul\":3359:3528   */\n  swap3\n  swap2\n  pop\n  pop\n  jump\t// out\n    /* \"#utility.yul\":3533:3828   */\ntag_38:\n    /* \"#utility.yul\":3609:3613   */\n  0x00\n    /* \"#utility.yul\":3755:3784   */\n  tag_89\n    /* \"#utility.yul\":3780:3783   */\n  dup4\n    /* \"#utility.yul\":3774:3778   */\n  dup4\n    /* \"#utility.yul\":3755:3784   */\n  tag_37\n  jump\t// in\ntag_89:\n    /* \"#utility.yul\":3747:3784   */\n  swap2\n  pop\n    /* \"#utility.yul\":3817:3820   */\n  dup3\n    /* \"#utility.yul\":3814:3815   */\n  0x02\n    /* \"#utility.yul\":3810:3821   */\n  mul\n    /* \"#utility.yul\":3804:3808   */\n  dup3\n    /* \"#utility.yul\":3801:3822   */\n  or\n    /* \"#utility.yul\":3793:3822   */\n  swap1\n  pop\n    /* \"#utility.yul\":3533:3828   */\n  swap3\n  swap2\n  pop\n  pop\n  jump\t// out\n    /* \"#utility.yul\":3833:5228   */\ntag_12:\n    /* \"#utility.yul\":3950:3987   */\n  tag_91\n    /* \"#utility.yul\":3983:3986   */\n  dup3\n    /* \"#utility.yul\":3950:3987   */\n  tag_19\n  jump\t// in\ntag_91:\n    /* \"#utility.yul\":4052:4070   */\n  0xffffffffffffffff\n    /* \"#utility.yul\":4044:4050   */\n  dup2\n    /* \"#utility.yul\":4041:4071   */\n  gt\n    /* \"#utility.yul\":4038:4094   */\n  iszero\n  tag_92\n  jumpi\n    /* \"#utility.yul\":4074:4092   */\n  tag_93\n  tag_20\n  jump\t// in\ntag_93:\n    /* \"#utility.yul\":4038:4094   */\ntag_92:\n    /* \"#utility.yul\":4118:4156   */\n  tag_94\n    /* \"#utility.yul\":4150:4154   */\n  dup3\n    /* \"#utility.yul\":4144:4155   */\n  sload\n    /* \"#utility.yul\":4118:4156   */\n  tag_22\n  jump\t// in\ntag_94:\n    /* \"#utility.yul\":4203:4270   */\n  tag_95\n    /* \"#utility.yul\":4263:4269   */\n  dup3\n    /* \"#utility.yul\":4255:4261   */\n  dup3\n    /* \"#utility.yul\":4249:4253   */\n  dup6\n    /* \"#utility.yul\":4203:4270   */\n  tag_35\n  jump\t// in\ntag_95:\n    /* \"#utility.yul\":4297:4298   */\n  0x00\n    /* \"#utility.yul\":4321:4325   */\n  0x20\n    /* \"#utility.yul\":4308:4325   */\n  swap1\n  pop\n    /* \"#utility.yul\":4353:4355   */\n  0x1f\n    /* \"#utility.yul\":4345:4351   */\n  dup4\n    /* \"#utility.yul\":4342:4356   */\n  gt\n    /* \"#utility.yul\":4370:4371   */\n  0x01\n    /* \"#utility.yul\":4365:4983   */\n  dup2\n  eq\n  tag_97\n  jumpi\n    /* \"#utility.yul\":5027:5028   */\n  0x00\n    /* \"#utility.yul\":5044:5050   */\n  dup5\n    /* \"#utility.yul\":5041:5118   */\n  iszero\n  tag_98\n  jumpi\n    /* \"#utility.yul\":5093:5102   */\n  dup3\n    /* \"#utility.yul\":5088:5091   */\n  dup8\n    /* \"#utility.yul\":5084:5103   */\n  add\n    /* \"#utility.yul\":5078:5104   */\n  mload\n    /* \"#utility.yul\":5069:5104   */\n  swap1\n  pop\n    /* \"#utility.yul\":5041:5118   */\ntag_98:\n    /* \"#utility.yul\":5144:5211   */\n  tag_99\n    /* \"#utility.yul\":5204:5210   */\n  dup6\n    /* \"#utility.yul\":5197:5202   */\n  dup3\n    /* \"#utility.yul\":5144:5211   */\n  tag_38\n  jump\t// in\ntag_99:\n    /* \"#utility.yul\":5138:5142   */\n  dup7\n    /* \"#utility.yul\":5131:5212   */\n  sstore\n    /* \"#utility.yul\":5000:5222   */\n  pop\n    /* \"#utility.yul\":4335:5222   */\n  jump(tag_96)\n    /* \"#utility.yul\":4365:4983   */\ntag_97:\n    /* \"#utility.yul\":4417:4421   */\n  0x1f\n    /* \"#utility.yul\":4413:4422   */\n  not\n    /* \"#utility.yul\":4405:4411   */\n  dup5\n    /* \"#utility.yul\":4401:4423   */\n  and\n    /* \"#utility.yul\":4451:4488   */\n  tag_100\n    /* \"#utility.yul\":4483:4487   */\n  dup7\n    /* \"#utility.yul\":4451:4488   */\n  tag_23\n  jump\t// in\ntag_100:\n    /* \"#utility.yul\":4510:4511   */\n  0x00\n    /* \"#utility.yul\":4524:4732   */\ntag_101:\n    /* \"#utility.yul\":4538:4545   */\n  dup3\n    /* \"#utility.yul\":4535:4536   */\n  dup2\n    /* \"#utility.yul\":4532:4546   */\n  lt\n    /* \"#utility.yul\":4524:4732   */\n  iszero\n  tag_103\n  jumpi\n    /* \"#utility.yul\":4617:4626   */\n  dup5\n    /* \"#utility.yul\":4612:4615   */\n  dup10\n    /* \"#utility.yul\":4608:4627   */\n  add\n    /* \"#utility.yul\":4602:4628   */\n  mload\n    /* \"#utility.yul\":4594:4600   */\n  dup3\n    /* \"#utility.yul\":4587:4629   */\n  sstore\n    /* \"#utility.yul\":4668:4669   */\n  0x01\n    /* \"#utility.yul\":4660:4666   */\n  dup3\n    /* \"#utility.yul\":4656:4670   */\n  add\n    /* \"#utility.yul\":4646:4670   */\n  swap2\n  pop\n    /* \"#utility.yul\":4715:4717   */\n  0x20\n    /* \"#utility.yul\":4704:4713   */\n  dup6\n    /* \"#utility.yul\":4700:4718   */\n  add\n    /* \"#utility.yul\":4687:4718   */\n  swap5\n  pop\n    /* \"#utility.yul\":4561:4565   */\n  0x20\n    /* \"#utility.yul\":4558:4559   */\n  dup2\n    /* \"#utility.yul\":4554:4566   */\n  add\n    /* \"#utility.yul\":4549:4566   */\n  swap1\n  pop\n    /* \"#utility.yul\":4524:4732   */\n  jump(tag_101)\ntag_103:\n    /* \"#utility.yul\":4760:4766   */\n  dup7\n    /* \"#utility.yul\":4751:4758   */\n  dup4\n    /* \"#utility.yul\":4748:4767   */\n  lt\n    /* \"#utility.yul\":4745:4924   */\n  iszero\n  tag_104\n  jumpi\n    /* \"#utility.yul\":4818:4827   */\n  dup5\n    /* \"#utility.yul\":4813:4816   */\n  dup10\n    /* \"#utility.yul\":4809:4828   */\n  add\n    /* \"#utility.yul\":4803:4829   */\n  mload\n    /* \"#utility.yul\":4861:4909   */\n  tag_105\n    /* \"#utility.yul\":4903:4907   */\n  0x1f\n    /* \"#utility.yul\":4895:4901   */\n  dup10\n    /* \"#utility.yul\":4891:4908   */\n  and\n    /* \"#utility.yul\":4880:4889   */\n  dup3\n    /* \"#utility.yul\":4861:4909   */\n  tag_37\n  jump\t// in\ntag_105:\n    /* \"#utility.yul\":4853:4859   */\n  dup4\n    /* \"#utility.yul\":4846:4910   */\n  sstore\n    /* \"#utility.yul\":4768:4924   */\n  pop\n    /* \"#utility.yul\":4745:4924   */\ntag_104:\n    /* \"#utility.yul\":4970:4971   */\n  0x01\n    /* \"#utility.yul\":4966:4967   */\n  0x02\n    /* \"#utility.yul\":4958:4964   */\n  dup9\n    /* \"#utility.yul\":4954:4968   */\n  mul\n    /* \"#utility.yul\":4950:4972   */\n  add\n    /* \"#utility.yul\":4944:4948   */\n  dup9\n    /* \"#utility.yul\":4937:4973   */\n  sstore\n    /* \"#utility.yul\":4372:4983   */\n  pop\n  pop\n  pop\n    /* \"#utility.yul\":4335:5222   */\ntag_96:\n  pop\n    /* \"#utility.yul\":3925:5228   */\n  pop\n  pop\n  pop\n    /* \"#utility.yul\":3833:5228   */\n  pop\n  pop\n  jump\t// out\n    /* \"#utility.yul\":5234:5352   */\ntag_39:\n    /* \"#utility.yul\":5321:5345   */\n  tag_107\n    /* \"#utility.yul\":5339:5344   */\n  dup2\n    /* \"#utility.yul\":5321:5345   */\n  tag_27\n  jump\t// in\ntag_107:\n    /* \"#utility.yul\":5316:5319   */\n  dup3\n    /* \"#utility.yul\":5309:5346   */\n  mstore\n    /* \"#utility.yul\":5234:5352   */\n  pop\n  pop\n  jump\t// out\n    /* \"#utility.yul\":5358:5527   */\ntag_40:\n    /* \"#utility.yul\":5442:5453   */\n  0x00\n    /* \"#utility.yul\":5476:5482   */\n  dup3\n    /* \"#utility.yul\":5471:5474   */\n  dup3\n    /* \"#utility.yul\":5464:5483   */\n  mstore\n    /* \"#utility.yul\":5516:5520   */\n  0x20\n    /* \"#utility.yul\":5511:5514   */\n  dup3\n    /* \"#utility.yul\":5507:5521   */\n  add\n    /* \"#utility.yul\":5492:5521   */\n  swap1\n  pop\n    /* \"#utility.yul\":5358:5527   */\n  swap3\n  swap2\n  pop\n  pop\n  jump\t// out\n    /* \"#utility.yul\":5533:5779   */\ntag_41:\n    /* \"#utility.yul\":5614:5615   */\n  0x00\n    /* \"#utility.yul\":5624:5737   */\ntag_110:\n    /* \"#utility.yul\":5638:5644   */\n  dup4\n    /* \"#utility.yul\":5635:5636   */\n  dup2\n    /* \"#utility.yul\":5632:5645   */\n  lt\n    /* \"#utility.yul\":5624:5737   */\n  iszero\n  tag_112\n  jumpi\n    /* \"#utility.yul\":5723:5724   */\n  dup1\n    /* \"#utility.yul\":5718:5721   */\n  dup3\n    /* \"#utility.yul\":5714:5725   */\n  add\n    /* \"#utility.yul\":5708:5726   */\n  mload\n    /* \"#utility.yul\":5704:5705   */\n  dup2\n    /* \"#utility.yul\":5699:5702   */\n  dup5\n    /* \"#utility.yul\":5695:5706   */\n  add\n    /* \"#utility.yul\":5688:5727   */\n  mstore\n    /* \"#utility.yul\":5660:5662   */\n  0x20\n    /* \"#utility.yul\":5657:5658   */\n  dup2\n    /* \"#utility.yul\":5653:5663   */\n  add\n    /* \"#utility.yul\":5648:5663   */\n  swap1\n  pop\n    /* \"#utility.yul\":5624:5737   */\n  jump(tag_110)\ntag_112:\n    /* \"#utility.yul\":5771:5772   */\n  0x00\n    /* \"#utility.yul\":5762:5768   */\n  dup5\n    /* \"#utility.yul\":5757:5760   */\n  dup5\n    /* \"#utility.yul\":5753:5769   */\n  add\n    /* \"#utility.yul\":5746:5773   */\n  mstore\n    /* \"#utility.yul\":5595:5779   */\n  pop\n    /* \"#utility.yul\":5533:5779   */\n  pop\n  pop\n  pop\n  jump\t// out\n    /* \"#utility.yul\":5785:5887   */\ntag_42:\n    /* \"#utility.yul\":5826:5832   */\n  0x00\n    /* \"#utility.yul\":5877:5879   */\n  0x1f\n    /* \"#utility.yul\":5873:5880   */\n  not\n    /* \"#utility.yul\":5868:5870   */\n  0x1f\n    /* \"#utility.yul\":5861:5866   */\n  dup4\n    /* \"#utility.yul\":5857:5871   */\n  add\n    /* \"#utility.yul\":5853:5881   */\n  and\n    /* \"#utility.yul\":5843:5881   */\n  swap1\n  pop\n    /* \"#utility.yul\":5785:5887   */\n  swap2\n  swap1\n  pop\n  jump\t// out\n    /* \"#utility.yul\":5893:6270   */\ntag_43:\n    /* \"#utility.yul\":5981:5984   */\n  0x00\n    /* \"#utility.yul\":6009:6048   */\n  tag_115\n    /* \"#utility.yul\":6042:6047   */\n  dup3\n    /* \"#utility.yul\":6009:6048   */\n  tag_19\n  jump\t// in\ntag_115:\n    /* \"#utility.yul\":6064:6135   */\n  tag_116\n    /* \"#utility.yul\":6128:6134   */\n  dup2\n    /* \"#utility.yul\":6123:6126   */\n  dup6\n    /* \"#utility.yul\":6064:6135   */\n  tag_40\n  jump\t// in\ntag_116:\n    /* \"#utility.yul\":6057:6135   */\n  swap4\n  pop\n    /* \"#utility.yul\":6144:6209   */\n  tag_117\n    /* \"#utility.yul\":6202:6208   */\n  dup2\n    /* \"#utility.yul\":6197:6200   */\n  dup6\n    /* \"#utility.yul\":6190:6194   */\n  0x20\n    /* \"#utility.yul\":6183:6188   */\n  dup7\n    /* \"#utility.yul\":6179:6195   */\n  add\n    /* \"#utility.yul\":6144:6209   */\n  tag_41\n  jump\t// in\ntag_117:\n    /* \"#utility.yul\":6234:6263   */\n  tag_118\n    /* \"#utility.yul\":6256:6262   */\n  dup2\n    /* \"#utility.yul\":6234:6263   */\n  tag_42\n  jump\t// in\ntag_118:\n    /* \"#utility.yul\":6229:6232   */\n  dup5\n    /* \"#utility.yul\":6225:6264   */\n  add\n    /* \"#utility.yul\":6218:6264   */\n  swap2\n  pop\n    /* \"#utility.yul\":5985:6270   */\n  pop\n    /* \"#utility.yul\":5893:6270   */\n  swap3\n  swap2\n  pop\n  pop\n  jump\t// out\n    /* \"#utility.yul\":6276:7102   */\ntag_14:\n    /* \"#utility.yul\":6513:6517   */\n  0x00\n    /* \"#utility.yul\":6551:6554   */\n  0x80\n    /* \"#utility.yul\":6540:6549   */\n  dup3\n    /* \"#utility.yul\":6536:6555   */\n  add\n    /* \"#utility.yul\":6528:6555   */\n  swap1\n  pop\n    /* \"#utility.yul\":6565:6636   */\n  tag_120\n    /* \"#utility.yul\":6633:6634   */\n  0x00\n    /* \"#utility.yul\":6622:6631   */\n  dup4\n    /* \"#utility.yul\":6618:6635   */\n  add\n    /* \"#utility.yul\":6609:6615   */\n  dup8\n    /* \"#utility.yul\":6565:6636   */\n  tag_39\n  jump\t// in\ntag_120:\n    /* \"#utility.yul\":6683:6692   */\n  dup2\n    /* \"#utility.yul\":6677:6681   */\n  dup2\n    /* \"#utility.yul\":6673:6693   */\n  sub\n    /* \"#utility.yul\":6668:6670   */\n  0x20\n    /* \"#utility.yul\":6657:6666   */\n  dup4\n    /* \"#utility.yul\":6653:6671   */\n  add\n    /* \"#utility.yul\":6646:6694   */\n  mstore\n    /* \"#utility.yul\":6711:6789   */\n  tag_121\n    /* \"#utility.yul\":6784:6788   */\n  dup2\n    /* \"#utility.yul\":6775:6781   */\n  dup7\n    /* \"#utility.yul\":6711:6789   */\n  tag_43\n  jump\t// in\ntag_121:\n    /* \"#utility.yul\":6703:6789   */\n  swap1\n  pop\n    /* \"#utility.yul\":6836:6845   */\n  dup2\n    /* \"#utility.yul\":6830:6834   */\n  dup2\n    /* \"#utility.yul\":6826:6846   */\n  sub\n    /* \"#utility.yul\":6821:6823   */\n  0x40\n    /* \"#utility.yul\":6810:6819   */\n  dup4\n    /* \"#utility.yul\":6806:6824   */\n  add\n    /* \"#utility.yul\":6799:6847   */\n  mstore\n    /* \"#utility.yul\":6864:6942   */\n  tag_122\n    /* \"#utility.yul\":6937:6941   */\n  dup2\n    /* \"#utility.yul\":6928:6934   */\n  dup6\n    /* \"#utility.yul\":6864:6942   */\n  tag_43\n  jump\t// in\ntag_122:\n    /* \"#utility.yul\":6856:6942   */\n  swap1\n  pop\n    /* \"#utility.yul\":6989:6998   */\n  dup2\n    /* \"#utility.yul\":6983:6987   */\n  dup2\n    /* \"#utility.yul\":6979:6999   */\n  sub\n    /* \"#utility.yul\":6974:6976   */\n  0x60\n    /* \"#utility.yul\":6963:6972   */\n  dup4\n    /* \"#utility.yul\":6959:6977   */\n  add\n    /* \"#utility.yul\":6952:7000   */\n  mstore\n    /* \"#utility.yul\":7017:7095   */\n  tag_123\n    /* \"#utility.yul\":7090:7094   */\n  dup2\n    /* \"#utility.yul\":7081:7087   */\n  dup5\n    /* \"#utility.yul\":7017:7095   */\n  tag_43\n  jump\t// in\ntag_123:\n    /* \"#utility.yul\":7009:7095   */\n  swap1\n  pop\n    /* \"#utility.yul\":6276:7102   */\n  swap6\n  swap5\n  pop\n  pop\n  pop\n  pop\n  pop\n  jump\t// out\n    /* \"sbt-contract/src/MySoulSocietySBT.sol\":89:206  contract MySoulContract is SoulSocietySBT {... */\ntag_16:\n  dataSize(sub_0)\n  dup1\n  dataOffset(sub_0)\n  0x00\n  codecopy\n  0x00\n  return\nstop\n\nsub_0: assembly {\n        /* \"sbt-contract/src/MySoulSocietySBT.sol\":89:206  contract MySoulContract is SoulSocietySBT {... */\n      mstore(0x40, 0x80)\n      callvalue\n      dup1\n      iszero\n      tag_1\n      jumpi\n      0x00\n      dup1\n      revert\n    tag_1:\n      pop\n      jumpi(tag_2, lt(calldatasize, 0x04))\n      shr(0xe0, calldataload(0x00))\n      dup1\n      0x76aed2e1\n      gt\n      tag_32\n      jumpi\n      dup1\n      0xbe37e907\n      gt\n      tag_33\n      jumpi\n      dup1\n      0xe1604b70\n      gt\n      tag_34\n      jumpi\n      dup1\n      0xe1604b70\n      eq\n      tag_28\n      jumpi\n      dup1\n      0xe985e9c5\n      eq\n      tag_29\n      jumpi\n      dup1\n      0xf2fde38b\n      eq\n      tag_30\n      jumpi\n      dup1\n      0xf3ba5946\n      eq\n      tag_31\n      jumpi\n      jump(tag_2)\n    tag_34:\n      dup1\n      0xbe37e907\n      eq\n      tag_24\n      jumpi\n      dup1\n      0xc87b56dd\n      eq\n      tag_25\n      jumpi\n      dup1\n      0xce35de95\n      eq\n      tag_26\n      jumpi\n      dup1\n      0xe0df5b6f\n      eq\n      tag_27\n      jumpi\n      jump(tag_2)\n    tag_33:\n      dup1\n      0x95d89b41\n      gt\n      tag_35\n      jumpi\n      dup1\n      0x95d89b41\n      eq\n      tag_20\n      jumpi\n      dup1\n      0x9b252852\n      eq\n      tag_21\n      jumpi\n      dup1\n      0xa22cb465\n      eq\n      tag_22\n      jumpi\n      dup1\n      0xb88d4fde\n      eq\n      tag_23\n      jumpi\n      jump(tag_2)\n    tag_35:\n      dup1\n      0x76aed2e1\n      eq\n      tag_17\n      jumpi\n      dup1\n      0x8c10081f\n      eq\n      tag_18\n      jumpi\n      dup1\n      0x8da5cb5b\n      eq\n      tag_19\n      jumpi\n      jump(tag_2)\n    tag_32:\n      dup1\n      0x2f745c59\n      gt\n      tag_36\n      jumpi\n      dup1\n      0x51c18e0c\n      gt\n      tag_37\n      jumpi\n      dup1\n      0x51c18e0c\n      eq\n      tag_13\n      jumpi\n      dup1\n      0x6352211e\n      eq\n      tag_14\n      jumpi\n      dup1\n      0x70a08231\n      eq\n      tag_15\n      jumpi\n      dup1\n      0x715018a6\n      eq\n      tag_16\n      jumpi\n      jump(tag_2)\n    tag_37:\n      dup1\n      0x2f745c59\n      eq\n      tag_10\n      jumpi\n      dup1\n      0x40c10f19\n      eq\n      tag_11\n      jumpi\n      dup1\n      0x42842e0e\n      eq\n      tag_12\n      jumpi\n      jump(tag_2)\n    tag_36:\n      dup1\n      0x095ea7b3\n      gt\n      tag_38\n      jumpi\n      dup1\n      0x095ea7b3\n      eq\n      tag_6\n      jumpi\n      dup1\n      0x18160ddd\n      eq\n      tag_7\n      jumpi\n      dup1\n      0x1c02bc31\n      eq\n      tag_8\n      jumpi\n      dup1\n      0x23b872dd\n      eq\n      tag_9\n      jumpi\n      jump(tag_2)\n    tag_38:\n      dup1\n      0x01ffc9a7\n      eq\n      tag_3\n      jumpi\n      dup1\n      0x06fdde03\n      eq\n      tag_4\n      jumpi\n      dup1\n      0x081812fc\n      eq\n      tag_5\n      jumpi\n    tag_2:\n      0x00\n      dup1\n      revert\n        /* \"sbt-contract/src/SoulSocietySBT.sol\":8092:8329  function supportsInterface(bytes4 interfaceId) public view virtual override(ERC165, IERC165) returns (bool) {... */\n    tag_3:\n      tag_39\n      0x04\n      dup1\n      calldatasize\n      sub\n      dup2\n      add\n      swap1\n      tag_40\n      swap2\n      swap1\n      tag_41\n      jump\t// in\n    tag_40:\n      tag_42\n      jump\t// in\n    tag_39:\n      mload(0x40)\n      tag_43\n      swap2\n      swap1\n      tag_44\n      jump\t// in\n    tag_43:\n      mload(0x40)\n      dup1\n      swap2\n      sub\n      swap1\n      return\n        /* \"sbt-contract/src/SoulSocietySBT.sol\":4270:4361  function name() external pure virtual returns (string memory) {... */\n    tag_4:\n      tag_45\n      tag_46\n      jump\t// in\n    tag_45:\n      mload(0x40)\n      tag_47\n      swap2\n      swap1\n      tag_48\n      jump\t// in\n    tag_47:\n      mload(0x40)\n      dup1\n      swap2\n      sub\n      swap1\n      return\n        /* \"sbt-contract/src/SoulSocietySBT.sol\":7744:7874  function getApproved(uint256 ) external pure returns (address )  {... */\n    tag_5:\n      tag_49\n      0x04\n      dup1\n      calldatasize\n      sub\n      dup2\n      add\n      swap1\n      tag_50\n      swap2\n      swap1\n      tag_51\n      jump\t// in\n    tag_50:\n      tag_52\n      jump\t// in\n    tag_49:\n      mload(0x40)\n      tag_53\n      swap2\n      swap1\n      tag_54\n      jump\t// in\n    tag_53:\n      mload(0x40)\n      dup1\n      swap2\n      sub\n      swap1\n      return\n        /* \"sbt-contract/src/SoulSocietySBT.sol\":7492:7603  function approve(address , uint256 ) external pure{... */\n    tag_6:\n      tag_55\n      0x04\n      dup1\n      calldatasize\n      sub\n      dup2\n      add\n      swap1\n      tag_56\n      swap2\n      swap1\n      tag_57\n      jump\t// in\n    tag_56:\n      tag_58\n      jump\t// in\n    tag_55:\n      stop\n        /* \"sbt-contract/src/SoulSocietySBT.sol\":4996:5087  function totalSupply() external view  returns (uint256) {... */\n    tag_7:\n      tag_59\n      tag_60\n      jump\t// in\n    tag_59:\n      mload(0x40)\n      tag_61\n      swap2\n      swap1\n      tag_62\n      jump\t// in\n    tag_61:\n      mload(0x40)\n      dup1\n      swap2\n      sub\n      swap1\n      return\n        /* \"sbt-contract/src/SoulSocietySBT.sol\":2801:3078  function setProtected( bool isProtected_) external  returns (bool) {... */\n    tag_8:\n      tag_63\n      0x04\n      dup1\n      calldatasize\n      sub\n      dup2\n      add\n      swap1\n      tag_64\n      swap2\n      swap1\n      tag_65\n      jump\t// in\n    tag_64:\n      tag_66\n      jump\t// in\n    tag_63:\n      mload(0x40)\n      tag_67\n      swap2\n      swap1\n      tag_44\n      jump\t// in\n    tag_67:\n      mload(0x40)\n      dup1\n      swap2\n      sub\n      swap1\n      return\n        /* \"sbt-contract/src/SoulSocietySBT.sol\":7354:7486  function transferFrom(address , address , uint256 ) external pure {... */\n    tag_9:\n      tag_68\n      0x04\n      dup1\n      calldatasize\n      sub\n      dup2\n      add\n      swap1\n      tag_69\n      swap2\n      swap1\n      tag_70\n      jump\t// in\n    tag_69:\n      tag_71\n      jump\t// in\n    tag_68:\n      stop\n        /* \"sbt-contract/src/SoulSocietySBT.sol\":6519:6979  function tokenOfOwnerByIndex(address owner_, uint256 index_) external view returns (uint256) {... */\n    tag_10:\n      tag_72\n      0x04\n      dup1\n      calldatasize\n      sub\n      dup2\n      add\n      swap1\n      tag_73\n      swap2\n      swap1\n      tag_57\n      jump\t// in\n    tag_73:\n      tag_74\n      jump\t// in\n    tag_72:\n      mload(0x40)\n      tag_75\n      swap2\n      swap1\n      tag_62\n      jump\t// in\n    tag_75:\n      mload(0x40)\n      dup1\n      swap2\n      sub\n      swap1\n      return\n        /* \"sbt-contract/src/SoulSocietySBT.sol\":3511:3652  function mint(address to_, uint256 tokenType_) external virtual onlyOwner returns(uint256) {... */\n    tag_11:\n      tag_76\n      0x04\n      dup1\n      calldatasize\n      sub\n      dup2\n      add\n      swap1\n      tag_77\n      swap2\n      swap1\n      tag_57\n      jump\t// in\n    tag_77:\n      tag_78\n      jump\t// in\n    tag_76:\n      mload(0x40)\n      tag_79\n      swap2\n      swap1\n      tag_62\n      jump\t// in\n    tag_79:\n      mload(0x40)\n      dup1\n      swap2\n      sub\n      swap1\n      return\n        /* \"sbt-contract/src/SoulSocietySBT.sol\":7208:7348  function safeTransferFrom(address , address , uint256 ) external pure {... */\n    tag_12:\n      tag_80\n      0x04\n      dup1\n      calldatasize\n      sub\n      dup2\n      add\n      swap1\n      tag_81\n      swap2\n      swap1\n      tag_70\n      jump\t// in\n    tag_81:\n      tag_82\n      jump\t// in\n    tag_80:\n      stop\n        /* \"sbt-contract/src/SoulSocietySBT.sol\":6104:6337  function getGrowth(uint256 tokenId_) external view  returns (uint256) {... */\n    tag_13:\n      tag_83\n      0x04\n      dup1\n      calldatasize\n      sub\n      dup2\n      add\n      swap1\n      tag_84\n      swap2\n      swap1\n      tag_51\n      jump\t// in\n    tag_84:\n      tag_85\n      jump\t// in\n    tag_83:\n      mload(0x40)\n      tag_86\n      swap2\n      swap1\n      tag_62\n      jump\t// in\n    tag_86:\n      mload(0x40)\n      dup1\n      swap2\n      sub\n      swap1\n      return\n        /* \"sbt-contract/src/SoulSocietySBT.sol\":5628:5865  function ownerOf(uint256 tokenId_) external  view  override  returns (address) {... */\n    tag_14:\n      tag_87\n      0x04\n      dup1\n      calldatasize\n      sub\n      dup2\n      add\n      swap1\n      tag_88\n      swap2\n      swap1\n      tag_51\n      jump\t// in\n    tag_88:\n      tag_89\n      jump\t// in\n    tag_87:\n      mload(0x40)\n      tag_90\n      swap2\n      swap1\n      tag_54\n      jump\t// in\n    tag_90:\n      mload(0x40)\n      dup1\n      swap2\n      sub\n      swap1\n      return\n        /* \"sbt-contract/src/SoulSocietySBT.sol\":5871:6098  function balanceOf(address owner_) external  view  returns (uint256) {... */\n    tag_15:\n      tag_91\n      0x04\n      dup1\n      calldatasize\n      sub\n      dup2\n      add\n      swap1\n      tag_92\n      swap2\n      swap1\n      tag_93\n      jump\t// in\n    tag_92:\n      tag_94\n      jump\t// in\n    tag_91:\n      mload(0x40)\n      tag_95\n      swap2\n      swap1\n      tag_62\n      jump\t// in\n    tag_95:\n      mload(0x40)\n      dup1\n      swap2\n      sub\n      swap1\n      return\n        /* \"@openzeppelin/contracts/access/Ownable.sol\":1824:1925  function renounceOwnership() public virtual onlyOwner {... */\n    tag_16:\n      tag_96\n      tag_97\n      jump\t// in\n    tag_96:\n      stop\n        /* \"sbt-contract/src/SoulSocietySBT.sol\":5094:5252  function getTokenType(uint256 tokenId_) external view returns (uint256) {... */\n    tag_17:\n      tag_98\n      0x04\n      dup1\n      calldatasize\n      sub\n      dup2\n      add\n      swap1\n      tag_99\n      swap2\n      swap1\n      tag_51\n      jump\t// in\n    tag_99:\n      tag_100\n      jump\t// in\n    tag_98:\n      mload(0x40)\n      tag_101\n      swap2\n      swap1\n      tag_62\n      jump\t// in\n    tag_101:\n      mload(0x40)\n      dup1\n      swap2\n      sub\n      swap1\n      return\n        /* \"sbt-contract/src/SoulSocietySBT.sol\":3084:3321  function setApprovalGrowth(uint256 tokenId_, bool approved_) external {... */\n    tag_18:\n      tag_102\n      0x04\n      dup1\n      calldatasize\n      sub\n      dup2\n      add\n      swap1\n      tag_103\n      swap2\n      swap1\n      tag_104\n      jump\t// in\n    tag_103:\n      tag_105\n      jump\t// in\n    tag_102:\n      stop\n        /* \"@openzeppelin/contracts/access/Ownable.sol\":1201:1286  function owner() public view virtual returns (address) {... */\n    tag_19:\n      tag_106\n      tag_107\n      jump\t// in\n    tag_106:\n      mload(0x40)\n      tag_108\n      swap2\n      swap1\n      tag_54\n      jump\t// in\n    tag_108:\n      mload(0x40)\n      dup1\n      swap2\n      sub\n      swap1\n      return\n        /* \"sbt-contract/src/SoulSocietySBT.sol\":4387:4482  function symbol() external pure virtual returns (string memory) {... */\n    tag_20:\n      tag_109\n      tag_110\n      jump\t// in\n    tag_109:\n      mload(0x40)\n      tag_111\n      swap2\n      swap1\n      tag_48\n      jump\t// in\n    tag_111:\n      mload(0x40)\n      dup1\n      swap2\n      sub\n      swap1\n      return\n        /* \"sbt-contract/src/SoulSocietySBT.sol\":3658:3898  function reset(address to_, uint256 tokenId_) external onlyOwner  {... */\n    tag_21:\n      tag_112\n      0x04\n      dup1\n      calldatasize\n      sub\n      dup2\n      add\n      swap1\n      tag_113\n      swap2\n      swap1\n      tag_57\n      jump\t// in\n    tag_113:\n      tag_114\n      jump\t// in\n    tag_112:\n      stop\n        /* \"sbt-contract/src/SoulSocietySBT.sol\":7609:7738  function setApprovalForAll(address , bool ) external pure {... */\n    tag_22:\n      tag_115\n      0x04\n      dup1\n      calldatasize\n      sub\n      dup2\n      add\n      swap1\n      tag_116\n      swap2\n      swap1\n      tag_117\n      jump\t// in\n    tag_116:\n      tag_118\n      jump\t// in\n    tag_115:\n      stop\n        /* \"sbt-contract/src/SoulSocietySBT.sol\":7046:7202  function safeTransferFrom(address , address , uint256 , bytes calldata) external pure {... */\n    tag_23:\n      tag_119\n      0x04\n      dup1\n      calldatasize\n      sub\n      dup2\n      add\n      swap1\n      tag_120\n      swap2\n      swap1\n      tag_121\n      jump\t// in\n    tag_120:\n      tag_122\n      jump\t// in\n    tag_119:\n      stop\n        /* \"sbt-contract/src/SoulSocietySBT.sol\":3950:4207  function growUp(address to_, uint256 tokenId_) external  onlyOwner returns(uint256) {... */\n    tag_24:\n      tag_123\n      0x04\n      dup1\n      calldatasize\n      sub\n      dup2\n      add\n      swap1\n      tag_124\n      swap2\n      swap1\n      tag_57\n      jump\t// in\n    tag_124:\n      tag_125\n      jump\t// in\n    tag_123:\n      mload(0x40)\n      tag_126\n      swap2\n      swap1\n      tag_62\n      jump\t// in\n    tag_126:\n      mload(0x40)\n      dup1\n      swap2\n      sub\n      swap1\n      return\n        /* \"sbt-contract/src/SoulSocietySBT.sol\":4583:4896  function tokenURI(uint256 tokenId_) external view virtual  returns (string memory) {    ... */\n    tag_25:\n      tag_127\n      0x04\n      dup1\n      calldatasize\n      sub\n      dup2\n      add\n      swap1\n      tag_128\n      swap2\n      swap1\n      tag_51\n      jump\t// in\n    tag_128:\n      tag_129\n      jump\t// in\n    tag_127:\n      mload(0x40)\n      tag_130\n      swap2\n      swap1\n      tag_48\n      jump\t// in\n    tag_130:\n      mload(0x40)\n      dup1\n      swap2\n      sub\n      swap1\n      return\n        /* \"sbt-contract/src/SoulSocietySBT.sol\":5258:5362  function isProtected(address to_) external view returns (bool) {... */\n    tag_26:\n      tag_131\n      0x04\n      dup1\n      calldatasize\n      sub\n      dup2\n      add\n      swap1\n      tag_132\n      swap2\n      swap1\n      tag_93\n      jump\t// in\n    tag_132:\n      tag_133\n      jump\t// in\n    tag_131:\n      mload(0x40)\n      tag_134\n      swap2\n      swap1\n      tag_44\n      jump\t// in\n    tag_134:\n      mload(0x40)\n      dup1\n      swap2\n      sub\n      swap1\n      return\n        /* \"sbt-contract/src/SoulSocietySBT.sol\":2374:2567  function setTokenURI(string memory tokenURI_) external onlyOwner returns(string memory) {... */\n    tag_27:\n      tag_135\n      0x04\n      dup1\n      calldatasize\n      sub\n      dup2\n      add\n      swap1\n      tag_136\n      swap2\n      swap1\n      tag_137\n      jump\t// in\n    tag_136:\n      tag_138\n      jump\t// in\n    tag_135:\n      mload(0x40)\n      tag_139\n      swap2\n      swap1\n      tag_48\n      jump\t// in\n    tag_139:\n      mload(0x40)\n      dup1\n      swap2\n      sub\n      swap1\n      return\n        /* \"sbt-contract/src/SoulSocietySBT.sol\":4902:4990  function totalUser() external view  returns (uint256) {... */\n    tag_28:\n      tag_140\n      tag_141\n      jump\t// in\n    tag_140:\n      mload(0x40)\n      tag_142\n      swap2\n      swap1\n      tag_62\n      jump\t// in\n    tag_142:\n      mload(0x40)\n      dup1\n      swap2\n      sub\n      swap1\n      return\n        /* \"sbt-contract/src/SoulSocietySBT.sol\":7880:8025  function isApprovedForAll(address , address ) external pure returns (bool) {... */\n    tag_29:\n      tag_143\n      0x04\n      dup1\n      calldatasize\n      sub\n      dup2\n      add\n      swap1\n      tag_144\n      swap2\n      swap1\n      tag_145\n      jump\t// in\n    tag_144:\n      tag_146\n      jump\t// in\n    tag_143:\n      mload(0x40)\n      tag_147\n      swap2\n      swap1\n      tag_44\n      jump\t// in\n    tag_147:\n      mload(0x40)\n      dup1\n      swap2\n      sub\n      swap1\n      return\n        /* \"@openzeppelin/contracts/access/Ownable.sol\":2074:2272  function transferOwnership(address newOwner) public virtual onlyOwner {... */\n    tag_30:\n      tag_148\n      0x04\n      dup1\n      calldatasize\n      sub\n      dup2\n      add\n      swap1\n      tag_149\n      swap2\n      swap1\n      tag_93\n      jump\t// in\n    tag_149:\n      tag_150\n      jump\t// in\n    tag_148:\n      stop\n        /* \"sbt-contract/src/SoulSocietySBT.sol\":5368:5518  function getApprovalGrowth(address owner_, uint256 tokenId_ ) external view returns(bool) {... */\n    tag_31:\n      tag_151\n      0x04\n      dup1\n      calldatasize\n      sub\n      dup2\n      add\n      swap1\n      tag_152\n      swap2\n      swap1\n      tag_57\n      jump\t// in\n    tag_152:\n      tag_153\n      jump\t// in\n    tag_151:\n      mload(0x40)\n      tag_154\n      swap2\n      swap1\n      tag_44\n      jump\t// in\n    tag_154:\n      mload(0x40)\n      dup1\n      swap2\n      sub\n      swap1\n      return\n        /* \"sbt-contract/src/SoulSocietySBT.sol\":8092:8329  function supportsInterface(bytes4 interfaceId) public view virtual override(ERC165, IERC165) returns (bool) {... */\n    tag_42:\n        /* \"sbt-contract/src/SoulSocietySBT.sol\":8194:8198  bool */\n      0x00\n        /* \"sbt-contract/src/SoulSocietySBT.sol\":8245:8270  type(IERC721).interfaceId */\n      0x80ac58cd00000000000000000000000000000000000000000000000000000000\n        /* \"sbt-contract/src/SoulSocietySBT.sol\":8230:8270  interfaceId == type(IERC721).interfaceId */\n      not(0xffffffffffffffffffffffffffffffffffffffffffffffffffffffff)\n      and\n        /* \"sbt-contract/src/SoulSocietySBT.sol\":8230:8241  interfaceId */\n      dup3\n        /* \"sbt-contract/src/SoulSocietySBT.sol\":8230:8270  interfaceId == type(IERC721).interfaceId */\n      not(0xffffffffffffffffffffffffffffffffffffffffffffffffffffffff)\n      and\n      eq\n        /* \"sbt-contract/src/SoulSocietySBT.sol\":8230:8322  interfaceId == type(IERC721).interfaceId ||... */\n      dup1\n      tag_156\n      jumpi\n      pop\n        /* \"sbt-contract/src/SoulSocietySBT.sol\":8286:8322  super.supportsInterface(interfaceId) */\n      tag_157\n        /* \"sbt-contract/src/SoulSocietySBT.sol\":8310:8321  interfaceId */\n      dup3\n        /* \"sbt-contract/src/SoulSocietySBT.sol\":8286:8309  super.supportsInterface */\n      tag_158\n        /* \"sbt-contract/src/SoulSocietySBT.sol\":8286:8322  super.supportsInterface(interfaceId) */\n      jump\t// in\n    tag_157:\n        /* \"sbt-contract/src/SoulSocietySBT.sol\":8230:8322  interfaceId == type(IERC721).interfaceId ||... */\n    tag_156:\n        /* \"sbt-contract/src/SoulSocietySBT.sol\":8210:8322  return ... */\n      swap1\n      pop\n        /* \"sbt-contract/src/SoulSocietySBT.sol\":8092:8329  function supportsInterface(bytes4 interfaceId) public view virtual override(ERC165, IERC165) returns (bool) {... */\n      swap2\n      swap1\n      pop\n      jump\t// out\n        /* \"sbt-contract/src/SoulSocietySBT.sol\":4270:4361  function name() external pure virtual returns (string memory) {... */\n    tag_46:\n        /* \"sbt-contract/src/SoulSocietySBT.sol\":4317:4330  string memory */\n      0x60\n        /* \"sbt-contract/src/SoulSocietySBT.sol\":4349:4354  _name */\n      mload(0x40)\n      dup1\n      0x40\n      add\n      0x40\n      mstore\n      dup1\n      0x06\n      dup2\n      mstore\n      0x20\n      add\n      0x484f4e5342540000000000000000000000000000000000000000000000000000\n      dup2\n      mstore\n      pop\n        /* \"sbt-contract/src/SoulSocietySBT.sol\":4342:4354  return _name */\n      swap1\n      pop\n        /* \"sbt-contract/src/SoulSocietySBT.sol\":4270:4361  function name() external pure virtual returns (string memory) {... */\n      swap1\n      jump\t// out\n        /* \"sbt-contract/src/SoulSocietySBT.sol\":7744:7874  function getApproved(uint256 ) external pure returns (address )  {... */\n    tag_52:\n        /* \"sbt-contract/src/SoulSocietySBT.sol\":7798:7805  address */\n      0x00\n        /* \"sbt-contract/src/SoulSocietySBT.sol\":7826:7867  SoulSocietySBTNotSupported(\"getApproved\") */\n      mload(0x40)\n      0x9fc6e75800000000000000000000000000000000000000000000000000000000\n      dup2\n      mstore\n      0x04\n      add\n      tag_161\n      swap1\n      tag_162\n      jump\t// in\n    tag_161:\n      mload(0x40)\n      dup1\n      swap2\n      sub\n      swap1\n      revert\n        /* \"sbt-contract/src/SoulSocietySBT.sol\":7492:7603  function approve(address , uint256 ) external pure{... */\n    tag_58:\n        /* \"sbt-contract/src/SoulSocietySBT.sol\":7559:7596  SoulSocietySBTNotSupported(\"approve\") */\n      mload(0x40)\n      0x9fc6e75800000000000000000000000000000000000000000000000000000000\n      dup2\n      mstore\n      0x04\n      add\n      tag_164\n      swap1\n      tag_165\n      jump\t// in\n    tag_164:\n      mload(0x40)\n      dup1\n      swap2\n      sub\n      swap1\n      revert\n        /* \"sbt-contract/src/SoulSocietySBT.sol\":4996:5087  function totalSupply() external view  returns (uint256) {... */\n    tag_60:\n        /* \"sbt-contract/src/SoulSocietySBT.sol\":5043:5050  uint256 */\n      0x00\n        /* \"sbt-contract/src/SoulSocietySBT.sol\":5069:5080  _totalCount */\n      sload(0x03)\n        /* \"sbt-contract/src/SoulSocietySBT.sol\":5062:5080  return _totalCount */\n      swap1\n      pop\n        /* \"sbt-contract/src/SoulSocietySBT.sol\":4996:5087  function totalSupply() external view  returns (uint256) {... */\n      swap1\n      jump\t// out\n        /* \"sbt-contract/src/SoulSocietySBT.sol\":2801:3078  function setProtected( bool isProtected_) external  returns (bool) {... */\n    tag_66:\n        /* \"sbt-contract/src/SoulSocietySBT.sol\":2862:2866  bool */\n      0x00\n        /* \"sbt-contract/src/SoulSocietySBT.sol\":2909:2910  0 */\n      dup1\n        /* \"sbt-contract/src/SoulSocietySBT.sol\":2884:2906  _balanceOf(msg.sender) */\n      tag_168\n        /* \"sbt-contract/src/SoulSocietySBT.sol\":2895:2905  msg.sender */\n      caller\n        /* \"sbt-contract/src/SoulSocietySBT.sol\":2884:2894  _balanceOf */\n      tag_169\n        /* \"sbt-contract/src/SoulSocietySBT.sol\":2884:2906  _balanceOf(msg.sender) */\n      jump\t// in\n    tag_168:\n        /* \"sbt-contract/src/SoulSocietySBT.sol\":2884:2910  _balanceOf(msg.sender) > 0 */\n      gt\n        /* \"sbt-contract/src/SoulSocietySBT.sol\":2878:2979  if (!(_balanceOf(msg.sender) > 0)) {... */\n      tag_170\n      jumpi\n        /* \"sbt-contract/src/SoulSocietySBT.sol\":2957:2967  msg.sender */\n      caller\n        /* \"sbt-contract/src/SoulSocietySBT.sol\":2934:2968  SoulSocietySBTNonExist(msg.sender) */\n      mload(0x40)\n      0xfaceffef00000000000000000000000000000000000000000000000000000000\n      dup2\n      mstore\n      0x04\n      add\n      tag_171\n      swap2\n      swap1\n      tag_54\n      jump\t// in\n    tag_171:\n      mload(0x40)\n      dup1\n      swap2\n      sub\n      swap1\n      revert\n        /* \"sbt-contract/src/SoulSocietySBT.sol\":2878:2979  if (!(_balanceOf(msg.sender) > 0)) {... */\n    tag_170:\n        /* \"sbt-contract/src/SoulSocietySBT.sol\":3017:3029  isProtected_ */\n      dup2\n        /* \"sbt-contract/src/SoulSocietySBT.sol\":2989:3002  _userProtects */\n      0x08\n        /* \"sbt-contract/src/SoulSocietySBT.sol\":2989:3014  _userProtects[msg.sender] */\n      0x00\n        /* \"sbt-contract/src/SoulSocietySBT.sol\":3003:3013  msg.sender */\n      caller\n        /* \"sbt-contract/src/SoulSocietySBT.sol\":2989:3014  _userProtects[msg.sender] */\n      0xffffffffffffffffffffffffffffffffffffffff\n      and\n      0xffffffffffffffffffffffffffffffffffffffff\n      and\n      dup2\n      mstore\n      0x20\n      add\n      swap1\n      dup2\n      mstore\n      0x20\n      add\n      0x00\n      keccak256\n      0x00\n        /* \"sbt-contract/src/SoulSocietySBT.sol\":2989:3029  _userProtects[msg.sender] = isProtected_ */\n      0x0100\n      exp\n      dup2\n      sload\n      dup2\n      0xff\n      mul\n      not\n      and\n      swap1\n      dup4\n      iszero\n      iszero\n      mul\n      or\n      swap1\n      sstore\n      pop\n        /* \"sbt-contract/src/SoulSocietySBT.sol\":3047:3071  getProtected(msg.sender) */\n      tag_172\n        /* \"sbt-contract/src/SoulSocietySBT.sol\":3060:3070  msg.sender */\n      caller\n        /* \"sbt-contract/src/SoulSocietySBT.sol\":3047:3059  getProtected */\n      tag_173\n        /* \"sbt-contract/src/SoulSocietySBT.sol\":3047:3071  getProtected(msg.sender) */\n      jump\t// in\n    tag_172:\n        /* \"sbt-contract/src/SoulSocietySBT.sol\":3040:3071  return getProtected(msg.sender) */\n      swap1\n      pop\n        /* \"sbt-contract/src/SoulSocietySBT.sol\":2801:3078  function setProtected( bool isProtected_) external  returns (bool) {... */\n      swap2\n      swap1\n      pop\n      jump\t// out\n        /* \"sbt-contract/src/SoulSocietySBT.sol\":7354:7486  function transferFrom(address , address , uint256 ) external pure {... */\n    tag_71:\n        /* \"sbt-contract/src/SoulSocietySBT.sol\":7437:7479  SoulSocietySBTNotSupported(\"transferFrom\") */\n      mload(0x40)\n      0x9fc6e75800000000000000000000000000000000000000000000000000000000\n      dup2\n      mstore\n      0x04\n      add\n      tag_175\n      swap1\n      tag_176\n      jump\t// in\n    tag_175:\n      mload(0x40)\n      dup1\n      swap2\n      sub\n      swap1\n      revert\n        /* \"sbt-contract/src/SoulSocietySBT.sol\":6519:6979  function tokenOfOwnerByIndex(address owner_, uint256 index_) external view returns (uint256) {... */\n    tag_74:\n        /* \"sbt-contract/src/SoulSocietySBT.sol\":6603:6610  uint256 */\n      0x00\n        /* \"sbt-contract/src/SoulSocietySBT.sol\":6697:6717  _isProtected(owner_) */\n      tag_178\n        /* \"sbt-contract/src/SoulSocietySBT.sol\":6710:6716  owner_ */\n      dup4\n        /* \"sbt-contract/src/SoulSocietySBT.sol\":6697:6709  _isProtected */\n      tag_179\n        /* \"sbt-contract/src/SoulSocietySBT.sol\":6697:6717  _isProtected(owner_) */\n      jump\t// in\n    tag_178:\n      pop\n        /* \"sbt-contract/src/SoulSocietySBT.sol\":6745:6763  _balanceOf(owner_) */\n      tag_180\n        /* \"sbt-contract/src/SoulSocietySBT.sol\":6756:6762  owner_ */\n      dup4\n        /* \"sbt-contract/src/SoulSocietySBT.sol\":6745:6755  _balanceOf */\n      tag_169\n        /* \"sbt-contract/src/SoulSocietySBT.sol\":6745:6763  _balanceOf(owner_) */\n      jump\t// in\n    tag_180:\n        /* \"sbt-contract/src/SoulSocietySBT.sol\":6736:6742  index_ */\n      dup3\n        /* \"sbt-contract/src/SoulSocietySBT.sol\":6736:6763  index_ < _balanceOf(owner_) */\n      lt\n        /* \"sbt-contract/src/SoulSocietySBT.sol\":6728:6780  require(index_ < _balanceOf(owner_), \"Out of Index\") */\n      tag_181\n      jumpi\n      mload(0x40)\n      0x08c379a000000000000000000000000000000000000000000000000000000000\n      dup2\n      mstore\n      0x04\n      add\n      tag_182\n      swap1\n      tag_183\n      jump\t// in\n    tag_182:\n      mload(0x40)\n      dup1\n      swap2\n      sub\n      swap1\n      revert\n    tag_181:\n        /* \"sbt-contract/src/SoulSocietySBT.sol\":6813:6814  0 */\n      0x00\n        /* \"sbt-contract/src/SoulSocietySBT.sol\":6795:6815  owner_ == address(0) */\n      0xffffffffffffffffffffffffffffffffffffffff\n      and\n        /* \"sbt-contract/src/SoulSocietySBT.sol\":6795:6801  owner_ */\n      dup4\n        /* \"sbt-contract/src/SoulSocietySBT.sol\":6795:6815  owner_ == address(0) */\n      0xffffffffffffffffffffffffffffffffffffffff\n      and\n      sub\n        /* \"sbt-contract/src/SoulSocietySBT.sol\":6791:6890  if (owner_ == address(0)) {... */\n      tag_184\n      jumpi\n        /* \"sbt-contract/src/SoulSocietySBT.sol\":6876:6877  0 */\n      0x00\n        /* \"sbt-contract/src/SoulSocietySBT.sol\":6838:6879  SoulSocietySBTInvalidReceiver(address(0)) */\n      mload(0x40)\n      0x74f5e87d00000000000000000000000000000000000000000000000000000000\n      dup2\n      mstore\n      0x04\n      add\n      tag_185\n      swap2\n      swap1\n      tag_54\n      jump\t// in\n    tag_185:\n      mload(0x40)\n      dup1\n      swap2\n      sub\n      swap1\n      revert\n        /* \"sbt-contract/src/SoulSocietySBT.sol\":6791:6890  if (owner_ == address(0)) {... */\n    tag_184:\n        /* \"sbt-contract/src/SoulSocietySBT.sol\":6900:6915  uint256 tokenId */\n      0x00\n        /* \"sbt-contract/src/SoulSocietySBT.sol\":6918:6930  _ownedTokens */\n      0x09\n        /* \"sbt-contract/src/SoulSocietySBT.sol\":6918:6938  _ownedTokens[owner_] */\n      0x00\n        /* \"sbt-contract/src/SoulSocietySBT.sol\":6931:6937  owner_ */\n      dup6\n        /* \"sbt-contract/src/SoulSocietySBT.sol\":6918:6938  _ownedTokens[owner_] */\n      0xffffffffffffffffffffffffffffffffffffffff\n      and\n      0xffffffffffffffffffffffffffffffffffffffff\n      and\n      dup2\n      mstore\n      0x20\n      add\n      swap1\n      dup2\n      mstore\n      0x20\n      add\n      0x00\n      keccak256\n        /* \"sbt-contract/src/SoulSocietySBT.sol\":6918:6946  _ownedTokens[owner_][index_] */\n      0x00\n        /* \"sbt-contract/src/SoulSocietySBT.sol\":6939:6945  index_ */\n      dup5\n        /* \"sbt-contract/src/SoulSocietySBT.sol\":6918:6946  _ownedTokens[owner_][index_] */\n      dup2\n      mstore\n      0x20\n      add\n      swap1\n      dup2\n      mstore\n      0x20\n      add\n      0x00\n      keccak256\n      sload\n        /* \"sbt-contract/src/SoulSocietySBT.sol\":6900:6946  uint256 tokenId = _ownedTokens[owner_][index_] */\n      swap1\n      pop\n        /* \"sbt-contract/src/SoulSocietySBT.sol\":6964:6971  tokenId */\n      dup1\n        /* \"sbt-contract/src/SoulSocietySBT.sol\":6957:6971  return tokenId */\n      swap2\n      pop\n      pop\n        /* \"sbt-contract/src/SoulSocietySBT.sol\":6519:6979  function tokenOfOwnerByIndex(address owner_, uint256 index_) external view returns (uint256) {... */\n      swap3\n      swap2\n      pop\n      pop\n      jump\t// out\n        /* \"sbt-contract/src/SoulSocietySBT.sol\":3511:3652  function mint(address to_, uint256 tokenType_) external virtual onlyOwner returns(uint256) {... */\n    tag_78:\n        /* \"sbt-contract/src/SoulSocietySBT.sol\":3593:3600  uint256 */\n      0x00\n        /* \"@openzeppelin/contracts/access/Ownable.sol\":1094:1107  _checkOwner() */\n      tag_187\n        /* \"@openzeppelin/contracts/access/Ownable.sol\":1094:1105  _checkOwner */\n      tag_188\n        /* \"@openzeppelin/contracts/access/Ownable.sol\":1094:1107  _checkOwner() */\n      jump\t// in\n    tag_187:\n        /* \"sbt-contract/src/SoulSocietySBT.sol\":3619:3645  _safeMint(to_, tokenType_) */\n      tag_190\n        /* \"sbt-contract/src/SoulSocietySBT.sol\":3629:3632  to_ */\n      dup4\n        /* \"sbt-contract/src/SoulSocietySBT.sol\":3634:3644  tokenType_ */\n      dup4\n        /* \"sbt-contract/src/SoulSocietySBT.sol\":3619:3628  _safeMint */\n      tag_191\n        /* \"sbt-contract/src/SoulSocietySBT.sol\":3619:3645  _safeMint(to_, tokenType_) */\n      jump\t// in\n    tag_190:\n        /* \"sbt-contract/src/SoulSocietySBT.sol\":3612:3645  return _safeMint(to_, tokenType_) */\n      swap1\n      pop\n        /* \"sbt-contract/src/SoulSocietySBT.sol\":3511:3652  function mint(address to_, uint256 tokenType_) external virtual onlyOwner returns(uint256) {... */\n      swap3\n      swap2\n      pop\n      pop\n      jump\t// out\n        /* \"sbt-contract/src/SoulSocietySBT.sol\":7208:7348  function safeTransferFrom(address , address , uint256 ) external pure {... */\n    tag_82:\n        /* \"sbt-contract/src/SoulSocietySBT.sol\":7295:7341  SoulSocietySBTNotSupported(\"safeTransferFrom\") */\n      mload(0x40)\n      0x9fc6e75800000000000000000000000000000000000000000000000000000000\n      dup2\n      mstore\n      0x04\n      add\n      tag_193\n      swap1\n      tag_194\n      jump\t// in\n    tag_193:\n      mload(0x40)\n      dup1\n      swap2\n      sub\n      swap1\n      revert\n        /* \"sbt-contract/src/SoulSocietySBT.sol\":6104:6337  function getGrowth(uint256 tokenId_) external view  returns (uint256) {... */\n    tag_85:\n        /* \"sbt-contract/src/SoulSocietySBT.sol\":6165:6172  uint256 */\n      0x00\n        /* \"sbt-contract/src/SoulSocietySBT.sol\":6260:6289  _isProtectedTokenId(tokenId_) */\n      tag_196\n        /* \"sbt-contract/src/SoulSocietySBT.sol\":6280:6288  tokenId_ */\n      dup3\n        /* \"sbt-contract/src/SoulSocietySBT.sol\":6260:6279  _isProtectedTokenId */\n      tag_197\n        /* \"sbt-contract/src/SoulSocietySBT.sol\":6260:6289  _isProtectedTokenId(tokenId_) */\n      jump\t// in\n    tag_196:\n        /* \"sbt-contract/src/SoulSocietySBT.sol\":6307:6320  _tokenGrowths */\n      0x06\n        /* \"sbt-contract/src/SoulSocietySBT.sol\":6307:6330  _tokenGrowths[tokenId_] */\n      0x00\n        /* \"sbt-contract/src/SoulSocietySBT.sol\":6321:6329  tokenId_ */\n      dup4\n        /* \"sbt-contract/src/SoulSocietySBT.sol\":6307:6330  _tokenGrowths[tokenId_] */\n      dup2\n      mstore\n      0x20\n      add\n      swap1\n      dup2\n      mstore\n      0x20\n      add\n      0x00\n      keccak256\n      sload\n        /* \"sbt-contract/src/SoulSocietySBT.sol\":6300:6330  return _tokenGrowths[tokenId_] */\n      swap1\n      pop\n        /* \"sbt-contract/src/SoulSocietySBT.sol\":6104:6337  function getGrowth(uint256 tokenId_) external view  returns (uint256) {... */\n      swap2\n      swap1\n      pop\n      jump\t// out\n        /* \"sbt-contract/src/SoulSocietySBT.sol\":5628:5865  function ownerOf(uint256 tokenId_) external  view  override  returns (address) {... */\n    tag_89:\n        /* \"sbt-contract/src/SoulSocietySBT.sol\":5698:5705  address */\n      0x00\n        /* \"sbt-contract/src/SoulSocietySBT.sol\":5794:5823  _isProtectedTokenId(tokenId_) */\n      tag_199\n        /* \"sbt-contract/src/SoulSocietySBT.sol\":5814:5822  tokenId_ */\n      dup3\n        /* \"sbt-contract/src/SoulSocietySBT.sol\":5794:5813  _isProtectedTokenId */\n      tag_197\n        /* \"sbt-contract/src/SoulSocietySBT.sol\":5794:5823  _isProtectedTokenId(tokenId_) */\n      jump\t// in\n    tag_199:\n        /* \"sbt-contract/src/SoulSocietySBT.sol\":5841:5848  _owners */\n      0x04\n        /* \"sbt-contract/src/SoulSocietySBT.sol\":5841:5858  _owners[tokenId_] */\n      0x00\n        /* \"sbt-contract/src/SoulSocietySBT.sol\":5849:5857  tokenId_ */\n      dup4\n        /* \"sbt-contract/src/SoulSocietySBT.sol\":5841:5858  _owners[tokenId_] */\n      dup2\n      mstore\n      0x20\n      add\n      swap1\n      dup2\n      mstore\n      0x20\n      add\n      0x00\n      keccak256\n      0x00\n      swap1\n      sload\n      swap1\n      0x0100\n      exp\n      swap1\n      div\n      0xffffffffffffffffffffffffffffffffffffffff\n      and\n        /* \"sbt-contract/src/SoulSocietySBT.sol\":5834:5858  return _owners[tokenId_] */\n      swap1\n      pop\n        /* \"sbt-contract/src/SoulSocietySBT.sol\":5628:5865  function ownerOf(uint256 tokenId_) external  view  override  returns (address) {... */\n      swap2\n      swap1\n      pop\n      jump\t// out\n        /* \"sbt-contract/src/SoulSocietySBT.sol\":5871:6098  function balanceOf(address owner_) external  view  returns (uint256) {... */\n    tag_94:\n        /* \"sbt-contract/src/SoulSocietySBT.sol\":5931:5938  uint256 */\n      0x00\n        /* \"sbt-contract/src/SoulSocietySBT.sol\":6027:6047  _isProtected(owner_) */\n      tag_201\n        /* \"sbt-contract/src/SoulSocietySBT.sol\":6040:6046  owner_ */\n      dup3\n        /* \"sbt-contract/src/SoulSocietySBT.sol\":6027:6039  _isProtected */\n      tag_179\n        /* \"sbt-contract/src/SoulSocietySBT.sol\":6027:6047  _isProtected(owner_) */\n      jump\t// in\n    tag_201:\n      pop\n        /* \"sbt-contract/src/SoulSocietySBT.sol\":6073:6091  _balanceOf(owner_) */\n      tag_202\n        /* \"sbt-contract/src/SoulSocietySBT.sol\":6084:6090  owner_ */\n      dup3\n        /* \"sbt-contract/src/SoulSocietySBT.sol\":6073:6083  _balanceOf */\n      tag_169\n        /* \"sbt-contract/src/SoulSocietySBT.sol\":6073:6091  _balanceOf(owner_) */\n      jump\t// in\n    tag_202:\n        /* \"sbt-contract/src/SoulSocietySBT.sol\":6066:6091  return _balanceOf(owner_) */\n      swap1\n      pop\n        /* \"sbt-contract/src/SoulSocietySBT.sol\":5871:6098  function balanceOf(address owner_) external  view  returns (uint256) {... */\n      swap2\n      swap1\n      pop\n      jump\t// out\n        /* \"@openzeppelin/contracts/access/Ownable.sol\":1824:1925  function renounceOwnership() public virtual onlyOwner {... */\n    tag_97:\n        /* \"@openzeppelin/contracts/access/Ownable.sol\":1094:1107  _checkOwner() */\n      tag_204\n        /* \"@openzeppelin/contracts/access/Ownable.sol\":1094:1105  _checkOwner */\n      tag_188\n        /* \"@openzeppelin/contracts/access/Ownable.sol\":1094:1107  _checkOwner() */\n      jump\t// in\n    tag_204:\n        /* \"@openzeppelin/contracts/access/Ownable.sol\":1888:1918  _transferOwnership(address(0)) */\n      tag_206\n        /* \"@openzeppelin/contracts/access/Ownable.sol\":1915:1916  0 */\n      0x00\n        /* \"@openzeppelin/contracts/access/Ownable.sol\":1888:1906  _transferOwnership */\n      tag_207\n        /* \"@openzeppelin/contracts/access/Ownable.sol\":1888:1918  _transferOwnership(address(0)) */\n      jump\t// in\n    tag_206:\n        /* \"@openzeppelin/contracts/access/Ownable.sol\":1824:1925  function renounceOwnership() public virtual onlyOwner {... */\n      jump\t// out\n        /* \"sbt-contract/src/SoulSocietySBT.sol\":5094:5252  function getTokenType(uint256 tokenId_) external view returns (uint256) {... */\n    tag_100:\n        /* \"sbt-contract/src/SoulSocietySBT.sol\":5157:5164  uint256 */\n      0x00\n        /* \"sbt-contract/src/SoulSocietySBT.sol\":5177:5206  _isProtectedTokenId(tokenId_) */\n      tag_209\n        /* \"sbt-contract/src/SoulSocietySBT.sol\":5197:5205  tokenId_ */\n      dup3\n        /* \"sbt-contract/src/SoulSocietySBT.sol\":5177:5196  _isProtectedTokenId */\n      tag_197\n        /* \"sbt-contract/src/SoulSocietySBT.sol\":5177:5206  _isProtectedTokenId(tokenId_) */\n      jump\t// in\n    tag_209:\n        /* \"sbt-contract/src/SoulSocietySBT.sol\":5224:5235  _tokenTypes */\n      0x05\n        /* \"sbt-contract/src/SoulSocietySBT.sol\":5224:5245  _tokenTypes[tokenId_] */\n      0x00\n        /* \"sbt-contract/src/SoulSocietySBT.sol\":5236:5244  tokenId_ */\n      dup4\n        /* \"sbt-contract/src/SoulSocietySBT.sol\":5224:5245  _tokenTypes[tokenId_] */\n      dup2\n      mstore\n      0x20\n      add\n      swap1\n      dup2\n      mstore\n      0x20\n      add\n      0x00\n      keccak256\n      sload\n        /* \"sbt-contract/src/SoulSocietySBT.sol\":5217:5245  return _tokenTypes[tokenId_] */\n      swap1\n      pop\n        /* \"sbt-contract/src/SoulSocietySBT.sol\":5094:5252  function getTokenType(uint256 tokenId_) external view returns (uint256) {... */\n      swap2\n      swap1\n      pop\n      jump\t// out\n        /* \"sbt-contract/src/SoulSocietySBT.sol\":3084:3321  function setApprovalGrowth(uint256 tokenId_, bool approved_) external {... */\n    tag_105:\n        /* \"sbt-contract/src/SoulSocietySBT.sol\":3195:3196  0 */\n      0x00\n        /* \"sbt-contract/src/SoulSocietySBT.sol\":3170:3192  _balanceOf(msg.sender) */\n      tag_211\n        /* \"sbt-contract/src/SoulSocietySBT.sol\":3181:3191  msg.sender */\n      caller\n        /* \"sbt-contract/src/SoulSocietySBT.sol\":3170:3180  _balanceOf */\n      tag_169\n        /* \"sbt-contract/src/SoulSocietySBT.sol\":3170:3192  _balanceOf(msg.sender) */\n      jump\t// in\n    tag_211:\n        /* \"sbt-contract/src/SoulSocietySBT.sol\":3170:3196  _balanceOf(msg.sender) > 0 */\n      gt\n        /* \"sbt-contract/src/SoulSocietySBT.sol\":3164:3265  if (!(_balanceOf(msg.sender) > 0)) {... */\n      tag_212\n      jumpi\n        /* \"sbt-contract/src/SoulSocietySBT.sol\":3243:3253  msg.sender */\n      caller\n        /* \"sbt-contract/src/SoulSocietySBT.sol\":3220:3254  SoulSocietySBTNonExist(msg.sender) */\n      mload(0x40)\n      0xfaceffef00000000000000000000000000000000000000000000000000000000\n      dup2\n      mstore\n      0x04\n      add\n      tag_213\n      swap2\n      swap1\n      tag_54\n      jump\t// in\n    tag_213:\n      mload(0x40)\n      dup1\n      swap2\n      sub\n      swap1\n      revert\n        /* \"sbt-contract/src/SoulSocietySBT.sol\":3164:3265  if (!(_balanceOf(msg.sender) > 0)) {... */\n    tag_212:\n        /* \"sbt-contract/src/SoulSocietySBT.sol\":3274:3314  _setApprovalGrowth( tokenId_, approved_) */\n      tag_214\n        /* \"sbt-contract/src/SoulSocietySBT.sol\":3294:3302  tokenId_ */\n      dup3\n        /* \"sbt-contract/src/SoulSocietySBT.sol\":3304:3313  approved_ */\n      dup3\n        /* \"sbt-contract/src/SoulSocietySBT.sol\":3274:3292  _setApprovalGrowth */\n      tag_215\n        /* \"sbt-contract/src/SoulSocietySBT.sol\":3274:3314  _setApprovalGrowth( tokenId_, approved_) */\n      jump\t// in\n    tag_214:\n        /* \"sbt-contract/src/SoulSocietySBT.sol\":3084:3321  function setApprovalGrowth(uint256 tokenId_, bool approved_) external {... */\n      pop\n      pop\n      jump\t// out\n        /* \"@openzeppelin/contracts/access/Ownable.sol\":1201:1286  function owner() public view virtual returns (address) {... */\n    tag_107:\n        /* \"@openzeppelin/contracts/access/Ownable.sol\":1247:1254  address */\n      0x00\n        /* \"@openzeppelin/contracts/access/Ownable.sol\":1273:1279  _owner */\n      dup1\n      0x00\n      swap1\n      sload\n      swap1\n      0x0100\n      exp\n      swap1\n      div\n      0xffffffffffffffffffffffffffffffffffffffff\n      and\n        /* \"@openzeppelin/contracts/access/Ownable.sol\":1266:1279  return _owner */\n      swap1\n      pop\n        /* \"@openzeppelin/contracts/access/Ownable.sol\":1201:1286  function owner() public view virtual returns (address) {... */\n      swap1\n      jump\t// out\n        /* \"sbt-contract/src/SoulSocietySBT.sol\":4387:4482  function symbol() external pure virtual returns (string memory) {... */\n    tag_110:\n        /* \"sbt-contract/src/SoulSocietySBT.sol\":4436:4449  string memory */\n      0x60\n        /* \"sbt-contract/src/SoulSocietySBT.sol\":4468:4475  _symbol */\n      mload(0x40)\n      dup1\n      0x40\n      add\n      0x40\n      mstore\n      dup1\n      0x06\n      dup2\n      mstore\n      0x20\n      add\n      0x484f4e5342540000000000000000000000000000000000000000000000000000\n      dup2\n      mstore\n      pop\n        /* \"sbt-contract/src/SoulSocietySBT.sol\":4461:4475  return _symbol */\n      swap1\n      pop\n        /* \"sbt-contract/src/SoulSocietySBT.sol\":4387:4482  function symbol() external pure virtual returns (string memory) {... */\n      swap1\n      jump\t// out\n        /* \"sbt-contract/src/SoulSocietySBT.sol\":3658:3898  function reset(address to_, uint256 tokenId_) external onlyOwner  {... */\n    tag_114:\n        /* \"@openzeppelin/contracts/access/Ownable.sol\":1094:1107  _checkOwner() */\n      tag_219\n        /* \"@openzeppelin/contracts/access/Ownable.sol\":1094:1105  _checkOwner */\n      tag_188\n        /* \"@openzeppelin/contracts/access/Ownable.sol\":1094:1107  _checkOwner() */\n      jump\t// in\n    tag_219:\n        /* \"sbt-contract/src/SoulSocietySBT.sol\":3739:3772  _getApprovalGrowth(to_, tokenId_) */\n      tag_221\n        /* \"sbt-contract/src/SoulSocietySBT.sol\":3758:3761  to_ */\n      dup3\n        /* \"sbt-contract/src/SoulSocietySBT.sol\":3763:3771  tokenId_ */\n      dup3\n        /* \"sbt-contract/src/SoulSocietySBT.sol\":3739:3757  _getApprovalGrowth */\n      tag_222\n        /* \"sbt-contract/src/SoulSocietySBT.sol\":3739:3772  _getApprovalGrowth(to_, tokenId_) */\n      jump\t// in\n    tag_221:\n        /* \"sbt-contract/src/SoulSocietySBT.sol\":3734:3851  if (!_getApprovalGrowth(to_, tokenId_)) {... */\n      tag_223\n      jumpi\n        /* \"sbt-contract/src/SoulSocietySBT.sol\":3826:3829  to_ */\n      dup2\n        /* \"sbt-contract/src/SoulSocietySBT.sol\":3831:3839  tokenId_ */\n      dup2\n        /* \"sbt-contract/src/SoulSocietySBT.sol\":3795:3840  SoulSocietySBTPermissionDenied(to_, tokenId_) */\n      mload(0x40)\n      0x9960858d00000000000000000000000000000000000000000000000000000000\n      dup2\n      mstore\n      0x04\n      add\n      tag_224\n      swap3\n      swap2\n      swap1\n      tag_225\n      jump\t// in\n    tag_224:\n      mload(0x40)\n      dup1\n      swap2\n      sub\n      swap1\n      revert\n        /* \"sbt-contract/src/SoulSocietySBT.sol\":3734:3851  if (!_getApprovalGrowth(to_, tokenId_)) {... */\n    tag_223:\n        /* \"sbt-contract/src/SoulSocietySBT.sol\":3860:3891  _setGrowthToZero(to_, tokenId_) */\n      tag_226\n        /* \"sbt-contract/src/SoulSocietySBT.sol\":3877:3880  to_ */\n      dup3\n        /* \"sbt-contract/src/SoulSocietySBT.sol\":3882:3890  tokenId_ */\n      dup3\n        /* \"sbt-contract/src/SoulSocietySBT.sol\":3860:3876  _setGrowthToZero */\n      tag_227\n        /* \"sbt-contract/src/SoulSocietySBT.sol\":3860:3891  _setGrowthToZero(to_, tokenId_) */\n      jump\t// in\n    tag_226:\n        /* \"sbt-contract/src/SoulSocietySBT.sol\":3658:3898  function reset(address to_, uint256 tokenId_) external onlyOwner  {... */\n      pop\n      pop\n      jump\t// out\n        /* \"sbt-contract/src/SoulSocietySBT.sol\":7609:7738  function setApprovalForAll(address , bool ) external pure {... */\n    tag_118:\n        /* \"sbt-contract/src/SoulSocietySBT.sol\":7684:7731  SoulSocietySBTNotSupported(\"setApprovalForAll\") */\n      mload(0x40)\n      0x9fc6e75800000000000000000000000000000000000000000000000000000000\n      dup2\n      mstore\n      0x04\n      add\n      tag_229\n      swap1\n      tag_230\n      jump\t// in\n    tag_229:\n      mload(0x40)\n      dup1\n      swap2\n      sub\n      swap1\n      revert\n        /* \"sbt-contract/src/SoulSocietySBT.sol\":7046:7202  function safeTransferFrom(address , address , uint256 , bytes calldata) external pure {... */\n    tag_122:\n        /* \"sbt-contract/src/SoulSocietySBT.sol\":7149:7195  SoulSocietySBTNotSupported(\"safeTransferFrom\") */\n      mload(0x40)\n      0x9fc6e75800000000000000000000000000000000000000000000000000000000\n      dup2\n      mstore\n      0x04\n      add\n      tag_232\n      swap1\n      tag_194\n      jump\t// in\n    tag_232:\n      mload(0x40)\n      dup1\n      swap2\n      sub\n      swap1\n      revert\n        /* \"sbt-contract/src/SoulSocietySBT.sol\":3950:4207  function growUp(address to_, uint256 tokenId_) external  onlyOwner returns(uint256) {... */\n    tag_125:\n        /* \"sbt-contract/src/SoulSocietySBT.sol\":4025:4032  uint256 */\n      0x00\n        /* \"@openzeppelin/contracts/access/Ownable.sol\":1094:1107  _checkOwner() */\n      tag_234\n        /* \"@openzeppelin/contracts/access/Ownable.sol\":1094:1105  _checkOwner */\n      tag_188\n        /* \"@openzeppelin/contracts/access/Ownable.sol\":1094:1107  _checkOwner() */\n      jump\t// in\n    tag_234:\n        /* \"sbt-contract/src/SoulSocietySBT.sol\":4049:4082  _getApprovalGrowth(to_, tokenId_) */\n      tag_236\n        /* \"sbt-contract/src/SoulSocietySBT.sol\":4068:4071  to_ */\n      dup4\n        /* \"sbt-contract/src/SoulSocietySBT.sol\":4073:4081  tokenId_ */\n      dup4\n        /* \"sbt-contract/src/SoulSocietySBT.sol\":4049:4067  _getApprovalGrowth */\n      tag_222\n        /* \"sbt-contract/src/SoulSocietySBT.sol\":4049:4082  _getApprovalGrowth(to_, tokenId_) */\n      jump\t// in\n    tag_236:\n        /* \"sbt-contract/src/SoulSocietySBT.sol\":4044:4161  if (!_getApprovalGrowth(to_, tokenId_)) {... */\n      tag_237\n      jumpi\n        /* \"sbt-contract/src/SoulSocietySBT.sol\":4136:4139  to_ */\n      dup3\n        /* \"sbt-contract/src/SoulSocietySBT.sol\":4141:4149  tokenId_ */\n      dup3\n        /* \"sbt-contract/src/SoulSocietySBT.sol\":4105:4150  SoulSocietySBTPermissionDenied(to_, tokenId_) */\n      mload(0x40)\n      0x9960858d00000000000000000000000000000000000000000000000000000000\n      dup2\n      mstore\n      0x04\n      add\n      tag_238\n      swap3\n      swap2\n      swap1\n      tag_225\n      jump\t// in\n    tag_238:\n      mload(0x40)\n      dup1\n      swap2\n      sub\n      swap1\n      revert\n        /* \"sbt-contract/src/SoulSocietySBT.sol\":4044:4161  if (!_getApprovalGrowth(to_, tokenId_)) {... */\n    tag_237:\n        /* \"sbt-contract/src/SoulSocietySBT.sol\":4178:4200  _growUp(to_, tokenId_) */\n      tag_239\n        /* \"sbt-contract/src/SoulSocietySBT.sol\":4186:4189  to_ */\n      dup4\n        /* \"sbt-contract/src/SoulSocietySBT.sol\":4191:4199  tokenId_ */\n      dup4\n        /* \"sbt-contract/src/SoulSocietySBT.sol\":4178:4185  _growUp */\n      tag_240\n        /* \"sbt-contract/src/SoulSocietySBT.sol\":4178:4200  _growUp(to_, tokenId_) */\n      jump\t// in\n    tag_239:\n        /* \"sbt-contract/src/SoulSocietySBT.sol\":4171:4200  return _growUp(to_, tokenId_) */\n      swap1\n      pop\n        /* \"sbt-contract/src/SoulSocietySBT.sol\":3950:4207  function growUp(address to_, uint256 tokenId_) external  onlyOwner returns(uint256) {... */\n      swap3\n      swap2\n      pop\n      pop\n      jump\t// out\n        /* \"sbt-contract/src/SoulSocietySBT.sol\":4583:4896  function tokenURI(uint256 tokenId_) external view virtual  returns (string memory) {    ... */\n    tag_129:\n        /* \"sbt-contract/src/SoulSocietySBT.sol\":4651:4664  string memory */\n      0x60\n        /* \"sbt-contract/src/SoulSocietySBT.sol\":4715:4744  _isProtectedTokenId(tokenId_) */\n      tag_242\n        /* \"sbt-contract/src/SoulSocietySBT.sol\":4735:4743  tokenId_ */\n      dup3\n        /* \"sbt-contract/src/SoulSocietySBT.sol\":4715:4734  _isProtectedTokenId */\n      tag_197\n        /* \"sbt-contract/src/SoulSocietySBT.sol\":4715:4744  _isProtectedTokenId(tokenId_) */\n      jump\t// in\n    tag_242:\n        /* \"sbt-contract/src/SoulSocietySBT.sol\":4783:4784  0 */\n      0x00\n        /* \"sbt-contract/src/SoulSocietySBT.sol\":4768:4772  _uri */\n      0x01\n        /* \"sbt-contract/src/SoulSocietySBT.sol\":4762:4780  bytes(_uri).length */\n      dup1\n      sload\n      tag_243\n      swap1\n      tag_244\n      jump\t// in\n    tag_243:\n      swap1\n      pop\n        /* \"sbt-contract/src/SoulSocietySBT.sol\":4762:4784  bytes(_uri).length > 0 */\n      gt\n        /* \"sbt-contract/src/SoulSocietySBT.sol\":4762:4881  bytes(_uri).length > 0 ? string(abi.encodePacked(_uri, tokenId_.toString(), \"?tokenType=\", _tokenTypes[tokenId_])) : \"\" */\n      tag_245\n      jumpi\n      mload(0x40)\n      dup1\n      0x20\n      add\n      0x40\n      mstore\n      dup1\n      0x00\n      dup2\n      mstore\n      pop\n      jump(tag_246)\n    tag_245:\n        /* \"sbt-contract/src/SoulSocietySBT.sol\":4811:4815  _uri */\n      0x01\n        /* \"sbt-contract/src/SoulSocietySBT.sol\":4817:4836  tokenId_.toString() */\n      tag_247\n        /* \"sbt-contract/src/SoulSocietySBT.sol\":4817:4825  tokenId_ */\n      dup4\n        /* \"sbt-contract/src/SoulSocietySBT.sol\":4817:4834  tokenId_.toString */\n      tag_248\n        /* \"sbt-contract/src/SoulSocietySBT.sol\":4817:4836  tokenId_.toString() */\n      jump\t// in\n    tag_247:\n        /* \"sbt-contract/src/SoulSocietySBT.sol\":4853:4864  _tokenTypes */\n      0x05\n        /* \"sbt-contract/src/SoulSocietySBT.sol\":4853:4874  _tokenTypes[tokenId_] */\n      0x00\n        /* \"sbt-contract/src/SoulSocietySBT.sol\":4865:4873  tokenId_ */\n      dup6\n        /* \"sbt-contract/src/SoulSocietySBT.sol\":4853:4874  _tokenTypes[tokenId_] */\n      dup2\n      mstore\n      0x20\n      add\n      swap1\n      dup2\n      mstore\n      0x20\n      add\n      0x00\n      keccak256\n      sload\n        /* \"sbt-contract/src/SoulSocietySBT.sol\":4794:4875  abi.encodePacked(_uri, tokenId_.toString(), \"?tokenType=\", _tokenTypes[tokenId_]) */\n      add(0x20, mload(0x40))\n      tag_249\n      swap4\n      swap3\n      swap2\n      swap1\n      tag_250\n      jump\t// in\n    tag_249:\n      mload(0x40)\n      0x20\n      dup2\n      dup4\n      sub\n      sub\n      dup2\n      mstore\n      swap1\n      0x40\n      mstore\n        /* \"sbt-contract/src/SoulSocietySBT.sol\":4762:4881  bytes(_uri).length > 0 ? string(abi.encodePacked(_uri, tokenId_.toString(), \"?tokenType=\", _tokenTypes[tokenId_])) : \"\" */\n    tag_246:\n        /* \"sbt-contract/src/SoulSocietySBT.sol\":4755:4881  return bytes(_uri).length > 0 ? string(abi.encodePacked(_uri, tokenId_.toString(), \"?tokenType=\", _tokenTypes[tokenId_])) : \"\" */\n      swap1\n      pop\n        /* \"sbt-contract/src/SoulSocietySBT.sol\":4583:4896  function tokenURI(uint256 tokenId_) external view virtual  returns (string memory) {    ... */\n      swap2\n      swap1\n      pop\n      jump\t// out\n        /* \"sbt-contract/src/SoulSocietySBT.sol\":5258:5362  function isProtected(address to_) external view returns (bool) {... */\n    tag_133:\n        /* \"sbt-contract/src/SoulSocietySBT.sol\":5315:5319  bool */\n      0x00\n        /* \"sbt-contract/src/SoulSocietySBT.sol\":5338:5355  _isProtected(to_) */\n      tag_252\n        /* \"sbt-contract/src/SoulSocietySBT.sol\":5351:5354  to_ */\n      dup3\n        /* \"sbt-contract/src/SoulSocietySBT.sol\":5338:5350  _isProtected */\n      tag_179\n        /* \"sbt-contract/src/SoulSocietySBT.sol\":5338:5355  _isProtected(to_) */\n      jump\t// in\n    tag_252:\n        /* \"sbt-contract/src/SoulSocietySBT.sol\":5331:5355  return _isProtected(to_) */\n      swap1\n      pop\n        /* \"sbt-contract/src/SoulSocietySBT.sol\":5258:5362  function isProtected(address to_) external view returns (bool) {... */\n      swap2\n      swap1\n      pop\n      jump\t// out\n        /* \"sbt-contract/src/SoulSocietySBT.sol\":2374:2567  function setTokenURI(string memory tokenURI_) external onlyOwner returns(string memory) {... */\n    tag_138:\n        /* \"sbt-contract/src/SoulSocietySBT.sol\":2447:2460  string memory */\n      0x60\n        /* \"@openzeppelin/contracts/access/Ownable.sol\":1094:1107  _checkOwner() */\n      tag_254\n        /* \"@openzeppelin/contracts/access/Ownable.sol\":1094:1105  _checkOwner */\n      tag_188\n        /* \"@openzeppelin/contracts/access/Ownable.sol\":1094:1107  _checkOwner() */\n      jump\t// in\n    tag_254:\n        /* \"sbt-contract/src/SoulSocietySBT.sol\":2479:2488  tokenURI_ */\n      dup2\n        /* \"sbt-contract/src/SoulSocietySBT.sol\":2472:2476  _uri */\n      0x01\n        /* \"sbt-contract/src/SoulSocietySBT.sol\":2472:2488  _uri = tokenURI_ */\n      swap1\n      dup2\n      tag_256\n      swap2\n      swap1\n      tag_257\n      jump\t// in\n    tag_256:\n      pop\n        /* \"sbt-contract/src/SoulSocietySBT.sol\":2516:2526  msg.sender */\n      caller\n        /* \"sbt-contract/src/SoulSocietySBT.sol\":2504:2538  SetTokenURI(msg.sender, tokenURI_) */\n      0xffffffffffffffffffffffffffffffffffffffff\n      and\n      0x70e6a9dc20d331ce8e747d7de8444f26f544d9003beb11d8c46e802ab8d36fc9\n        /* \"sbt-contract/src/SoulSocietySBT.sol\":2528:2537  tokenURI_ */\n      dup4\n        /* \"sbt-contract/src/SoulSocietySBT.sol\":2504:2538  SetTokenURI(msg.sender, tokenURI_) */\n      mload(0x40)\n      tag_258\n      swap2\n      swap1\n      tag_48\n      jump\t// in\n    tag_258:\n      mload(0x40)\n      dup1\n      swap2\n      sub\n      swap1\n      log2\n        /* \"sbt-contract/src/SoulSocietySBT.sol\":2556:2560  _uri */\n      0x01\n        /* \"sbt-contract/src/SoulSocietySBT.sol\":2549:2560  return _uri */\n      dup1\n      sload\n      tag_259\n      swap1\n      tag_244\n      jump\t// in\n    tag_259:\n      dup1\n      0x1f\n      add\n      0x20\n      dup1\n      swap2\n      div\n      mul\n      0x20\n      add\n      mload(0x40)\n      swap1\n      dup2\n      add\n      0x40\n      mstore\n      dup1\n      swap3\n      swap2\n      swap1\n      dup2\n      dup2\n      mstore\n      0x20\n      add\n      dup3\n      dup1\n      sload\n      tag_260\n      swap1\n      tag_244\n      jump\t// in\n    tag_260:\n      dup1\n      iszero\n      tag_261\n      jumpi\n      dup1\n      0x1f\n      lt\n      tag_262\n      jumpi\n      0x0100\n      dup1\n      dup4\n      sload\n      div\n      mul\n      dup4\n      mstore\n      swap2\n      0x20\n      add\n      swap2\n      jump(tag_261)\n    tag_262:\n      dup3\n      add\n      swap2\n      swap1\n      0x00\n      mstore\n      keccak256(0x00, 0x20)\n      swap1\n    tag_263:\n      dup2\n      sload\n      dup2\n      mstore\n      swap1\n      0x01\n      add\n      swap1\n      0x20\n      add\n      dup1\n      dup4\n      gt\n      tag_263\n      jumpi\n      dup3\n      swap1\n      sub\n      0x1f\n      and\n      dup3\n      add\n      swap2\n    tag_261:\n      pop\n      pop\n      pop\n      pop\n      pop\n      swap1\n      pop\n        /* \"sbt-contract/src/SoulSocietySBT.sol\":2374:2567  function setTokenURI(string memory tokenURI_) external onlyOwner returns(string memory) {... */\n      swap2\n      swap1\n      pop\n      jump\t// out\n        /* \"sbt-contract/src/SoulSocietySBT.sol\":4902:4990  function totalUser() external view  returns (uint256) {... */\n    tag_141:\n        /* \"sbt-contract/src/SoulSocietySBT.sol\":4947:4954  uint256 */\n      0x00\n        /* \"sbt-contract/src/SoulSocietySBT.sol\":4973:4983  _totalUser */\n      sload(0x02)\n        /* \"sbt-contract/src/SoulSocietySBT.sol\":4966:4983  return _totalUser */\n      swap1\n      pop\n        /* \"sbt-contract/src/SoulSocietySBT.sol\":4902:4990  function totalUser() external view  returns (uint256) {... */\n      swap1\n      jump\t// out\n        /* \"sbt-contract/src/SoulSocietySBT.sol\":7880:8025  function isApprovedForAll(address , address ) external pure returns (bool) {... */\n    tag_146:\n        /* \"sbt-contract/src/SoulSocietySBT.sol\":7949:7953  bool */\n      0x00\n        /* \"sbt-contract/src/SoulSocietySBT.sol\":7972:8018  SoulSocietySBTNotSupported(\"isApprovedForAll\") */\n      mload(0x40)\n      0x9fc6e75800000000000000000000000000000000000000000000000000000000\n      dup2\n      mstore\n      0x04\n      add\n      tag_266\n      swap1\n      tag_267\n      jump\t// in\n    tag_266:\n      mload(0x40)\n      dup1\n      swap2\n      sub\n      swap1\n      revert\n        /* \"@openzeppelin/contracts/access/Ownable.sol\":2074:2272  function transferOwnership(address newOwner) public virtual onlyOwner {... */\n    tag_150:\n        /* \"@openzeppelin/contracts/access/Ownable.sol\":1094:1107  _checkOwner() */\n      tag_269\n        /* \"@openzeppelin/contracts/access/Ownable.sol\":1094:1105  _checkOwner */\n      tag_188\n        /* \"@openzeppelin/contracts/access/Ownable.sol\":1094:1107  _checkOwner() */\n      jump\t// in\n    tag_269:\n        /* \"@openzeppelin/contracts/access/Ownable.sol\":2182:2183  0 */\n      0x00\n        /* \"@openzeppelin/contracts/access/Ownable.sol\":2162:2184  newOwner != address(0) */\n      0xffffffffffffffffffffffffffffffffffffffff\n      and\n        /* \"@openzeppelin/contracts/access/Ownable.sol\":2162:2170  newOwner */\n      dup2\n        /* \"@openzeppelin/contracts/access/Ownable.sol\":2162:2184  newOwner != address(0) */\n      0xffffffffffffffffffffffffffffffffffffffff\n      and\n      sub\n        /* \"@openzeppelin/contracts/access/Ownable.sol\":2154:2227  require(newOwner != address(0), \"Ownable: new owner is the zero address\") */\n      tag_271\n      jumpi\n      mload(0x40)\n      0x08c379a000000000000000000000000000000000000000000000000000000000\n      dup2\n      mstore\n      0x04\n      add\n      tag_272\n      swap1\n      tag_273\n      jump\t// in\n    tag_272:\n      mload(0x40)\n      dup1\n      swap2\n      sub\n      swap1\n      revert\n    tag_271:\n        /* \"@openzeppelin/contracts/access/Ownable.sol\":2237:2265  _transferOwnership(newOwner) */\n      tag_274\n        /* \"@openzeppelin/contracts/access/Ownable.sol\":2256:2264  newOwner */\n      dup2\n        /* \"@openzeppelin/contracts/access/Ownable.sol\":2237:2255  _transferOwnership */\n      tag_207\n        /* \"@openzeppelin/contracts/access/Ownable.sol\":2237:2265  _transferOwnership(newOwner) */\n      jump\t// in\n    tag_274:\n        /* \"@openzeppelin/contracts/access/Ownable.sol\":2074:2272  function transferOwnership(address newOwner) public virtual onlyOwner {... */\n      pop\n      jump\t// out\n        /* \"sbt-contract/src/SoulSocietySBT.sol\":5368:5518  function getApprovalGrowth(address owner_, uint256 tokenId_ ) external view returns(bool) {... */\n    tag_153:\n        /* \"sbt-contract/src/SoulSocietySBT.sol\":5452:5456  bool */\n      0x00\n        /* \"sbt-contract/src/SoulSocietySBT.sol\":5475:5511  _getApprovalGrowth(owner_, tokenId_) */\n      tag_276\n        /* \"sbt-contract/src/SoulSocietySBT.sol\":5494:5500  owner_ */\n      dup4\n        /* \"sbt-contract/src/SoulSocietySBT.sol\":5502:5510  tokenId_ */\n      dup4\n        /* \"sbt-contract/src/SoulSocietySBT.sol\":5475:5493  _getApprovalGrowth */\n      tag_222\n        /* \"sbt-contract/src/SoulSocietySBT.sol\":5475:5511  _getApprovalGrowth(owner_, tokenId_) */\n      jump\t// in\n    tag_276:\n        /* \"sbt-contract/src/SoulSocietySBT.sol\":5468:5511  return _getApprovalGrowth(owner_, tokenId_) */\n      swap1\n      pop\n        /* \"sbt-contract/src/SoulSocietySBT.sol\":5368:5518  function getApprovalGrowth(address owner_, uint256 tokenId_ ) external view returns(bool) {... */\n      swap3\n      swap2\n      pop\n      pop\n      jump\t// out\n        /* \"@openzeppelin/contracts/utils/introspection/ERC165.sol\":829:984  function supportsInterface(bytes4 interfaceId) public view virtual override returns (bool) {... */\n    tag_158:\n        /* \"@openzeppelin/contracts/utils/introspection/ERC165.sol\":914:918  bool */\n      0x00\n        /* \"@openzeppelin/contracts/utils/introspection/ERC165.sol\":952:977  type(IERC165).interfaceId */\n      0x01ffc9a700000000000000000000000000000000000000000000000000000000\n        /* \"@openzeppelin/contracts/utils/introspection/ERC165.sol\":937:977  interfaceId == type(IERC165).interfaceId */\n      not(0xffffffffffffffffffffffffffffffffffffffffffffffffffffffff)\n      and\n        /* \"@openzeppelin/contracts/utils/introspection/ERC165.sol\":937:948  interfaceId */\n      dup3\n        /* \"@openzeppelin/contracts/utils/introspection/ERC165.sol\":937:977  interfaceId == type(IERC165).interfaceId */\n      not(0xffffffffffffffffffffffffffffffffffffffffffffffffffffffff)\n      and\n      eq\n        /* \"@openzeppelin/contracts/utils/introspection/ERC165.sol\":930:977  return interfaceId == type(IERC165).interfaceId */\n      swap1\n      pop\n        /* \"@openzeppelin/contracts/utils/introspection/ERC165.sol\":829:984  function supportsInterface(bytes4 interfaceId) public view virtual override returns (bool) {... */\n      swap2\n      swap1\n      pop\n      jump\t// out\n        /* \"sbt-contract/src/SoulSocietySBT.sol\":11857:11970  function _balanceOf(address owner_) internal view returns (uint256) {... */\n    tag_169:\n        /* \"sbt-contract/src/SoulSocietySBT.sol\":11916:11923  uint256 */\n      0x00\n        /* \"sbt-contract/src/SoulSocietySBT.sol\":11946:11955  _balances */\n      0x07\n        /* \"sbt-contract/src/SoulSocietySBT.sol\":11946:11963  _balances[owner_] */\n      0x00\n        /* \"sbt-contract/src/SoulSocietySBT.sol\":11956:11962  owner_ */\n      dup4\n        /* \"sbt-contract/src/SoulSocietySBT.sol\":11946:11963  _balances[owner_] */\n      0xffffffffffffffffffffffffffffffffffffffff\n      and\n      0xffffffffffffffffffffffffffffffffffffffff\n      and\n      dup2\n      mstore\n      0x20\n      add\n      swap1\n      dup2\n      mstore\n      0x20\n      add\n      0x00\n      keccak256\n      sload\n        /* \"sbt-contract/src/SoulSocietySBT.sol\":11939:11963  return _balances[owner_] */\n      swap1\n      pop\n        /* \"sbt-contract/src/SoulSocietySBT.sol\":11857:11970  function _balanceOf(address owner_) internal view returns (uint256) {... */\n      swap2\n      swap1\n      pop\n      jump\t// out\n        /* \"sbt-contract/src/SoulSocietySBT.sol\":10541:10646  function getProtected(address to_) internal view returns(bool) {... */\n    tag_173:\n        /* \"sbt-contract/src/SoulSocietySBT.sol\":10598:10602  bool */\n      0x00\n        /* \"sbt-contract/src/SoulSocietySBT.sol\":10621:10639  _getProtected(to_) */\n      tag_280\n        /* \"sbt-contract/src/SoulSocietySBT.sol\":10635:10638  to_ */\n      dup3\n        /* \"sbt-contract/src/SoulSocietySBT.sol\":10621:10634  _getProtected */\n      tag_281\n        /* \"sbt-contract/src/SoulSocietySBT.sol\":10621:10639  _getProtected(to_) */\n      jump\t// in\n    tag_280:\n        /* \"sbt-contract/src/SoulSocietySBT.sol\":10614:10639  return _getProtected(to_) */\n      swap1\n      pop\n        /* \"sbt-contract/src/SoulSocietySBT.sol\":10541:10646  function getProtected(address to_) internal view returns(bool) {... */\n      swap2\n      swap1\n      pop\n      jump\t// out\n        /* \"sbt-contract/src/SoulSocietySBT.sol\":10822:11026  function _isProtected(address to_) internal view returns (bool) {        ... */\n    tag_179:\n        /* \"sbt-contract/src/SoulSocietySBT.sol\":10880:10884  bool */\n      0x00\n        /* \"sbt-contract/src/SoulSocietySBT.sol\":10930:10934  true */\n      0x01\n        /* \"sbt-contract/src/SoulSocietySBT.sol\":10908:10934  _userProtects[to_] == true */\n      iszero\n      iszero\n        /* \"sbt-contract/src/SoulSocietySBT.sol\":10908:10921  _userProtects */\n      0x08\n        /* \"sbt-contract/src/SoulSocietySBT.sol\":10908:10926  _userProtects[to_] */\n      0x00\n        /* \"sbt-contract/src/SoulSocietySBT.sol\":10922:10925  to_ */\n      dup5\n        /* \"sbt-contract/src/SoulSocietySBT.sol\":10908:10926  _userProtects[to_] */\n      0xffffffffffffffffffffffffffffffffffffffff\n      and\n      0xffffffffffffffffffffffffffffffffffffffff\n      and\n      dup2\n      mstore\n      0x20\n      add\n      swap1\n      dup2\n      mstore\n      0x20\n      add\n      0x00\n      keccak256\n      0x00\n      swap1\n      sload\n      swap1\n      0x0100\n      exp\n      swap1\n      div\n      0xff\n      and\n        /* \"sbt-contract/src/SoulSocietySBT.sol\":10908:10934  _userProtects[to_] == true */\n      iszero\n      iszero\n      sub\n        /* \"sbt-contract/src/SoulSocietySBT.sol\":10904:10988  if (_userProtects[to_] == true)... */\n      tag_283\n      jumpi\n        /* \"sbt-contract/src/SoulSocietySBT.sol\":10984:10987  to_ */\n      dup2\n        /* \"sbt-contract/src/SoulSocietySBT.sol\":10955:10988  SoulSocietySBTProtectedOwner(to_) */\n      mload(0x40)\n      0x904e928b00000000000000000000000000000000000000000000000000000000\n      dup2\n      mstore\n      0x04\n      add\n      tag_284\n      swap2\n      swap1\n      tag_54\n      jump\t// in\n    tag_284:\n      mload(0x40)\n      dup1\n      swap2\n      sub\n      swap1\n      revert\n        /* \"sbt-contract/src/SoulSocietySBT.sol\":10904:10988  if (_userProtects[to_] == true)... */\n    tag_283:\n        /* \"sbt-contract/src/SoulSocietySBT.sol\":11014:11019  false */\n      0x00\n        /* \"sbt-contract/src/SoulSocietySBT.sol\":11007:11019  return false */\n      swap1\n      pop\n        /* \"sbt-contract/src/SoulSocietySBT.sol\":10822:11026  function _isProtected(address to_) internal view returns (bool) {        ... */\n      swap2\n      swap1\n      pop\n      jump\t// out\n        /* \"@openzeppelin/contracts/access/Ownable.sol\":1359:1489  function _checkOwner() internal view virtual {... */\n    tag_188:\n        /* \"@openzeppelin/contracts/access/Ownable.sol\":1433:1445  _msgSender() */\n      tag_286\n        /* \"@openzeppelin/contracts/access/Ownable.sol\":1433:1443  _msgSender */\n      tag_287\n        /* \"@openzeppelin/contracts/access/Ownable.sol\":1433:1445  _msgSender() */\n      jump\t// in\n    tag_286:\n        /* \"@openzeppelin/contracts/access/Ownable.sol\":1422:1445  owner() == _msgSender() */\n      0xffffffffffffffffffffffffffffffffffffffff\n      and\n        /* \"@openzeppelin/contracts/access/Ownable.sol\":1422:1429  owner() */\n      tag_288\n        /* \"@openzeppelin/contracts/access/Ownable.sol\":1422:1427  owner */\n      tag_107\n        /* \"@openzeppelin/contracts/access/Ownable.sol\":1422:1429  owner() */\n      jump\t// in\n    tag_288:\n        /* \"@openzeppelin/contracts/access/Ownable.sol\":1422:1445  owner() == _msgSender() */\n      0xffffffffffffffffffffffffffffffffffffffff\n      and\n      eq\n        /* \"@openzeppelin/contracts/access/Ownable.sol\":1414:1482  require(owner() == _msgSender(), \"Ownable: caller is not the owner\") */\n      tag_289\n      jumpi\n      mload(0x40)\n      0x08c379a000000000000000000000000000000000000000000000000000000000\n      dup2\n      mstore\n      0x04\n      add\n      tag_290\n      swap1\n      tag_291\n      jump\t// in\n    tag_290:\n      mload(0x40)\n      dup1\n      swap2\n      sub\n      swap1\n      revert\n    tag_289:\n        /* \"@openzeppelin/contracts/access/Ownable.sol\":1359:1489  function _checkOwner() internal view virtual {... */\n      jump\t// out\n        /* \"sbt-contract/src/SoulSocietySBT.sol\":8362:8696  function _safeMint(address to_, uint256 tokenType_) internal virtual returns(uint256) {... */\n    tag_191:\n        /* \"sbt-contract/src/SoulSocietySBT.sol\":8439:8446  uint256 */\n      0x00\n        /* \"sbt-contract/src/SoulSocietySBT.sol\":8458:8473  uint256 tokenId */\n      dup1\n        /* \"sbt-contract/src/SoulSocietySBT.sol\":8476:8498  _mint(to_, tokenType_) */\n      tag_293\n        /* \"sbt-contract/src/SoulSocietySBT.sol\":8482:8485  to_ */\n      dup5\n        /* \"sbt-contract/src/SoulSocietySBT.sol\":8487:8497  tokenType_ */\n      dup5\n        /* \"sbt-contract/src/SoulSocietySBT.sol\":8476:8481  _mint */\n      tag_294\n        /* \"sbt-contract/src/SoulSocietySBT.sol\":8476:8498  _mint(to_, tokenType_) */\n      jump\t// in\n    tag_293:\n        /* \"sbt-contract/src/SoulSocietySBT.sol\":8458:8498  uint256 tokenId = _mint(to_, tokenType_) */\n      swap1\n      pop\n        /* \"sbt-contract/src/SoulSocietySBT.sol\":8528:8588  _checkOnERC721Received(address(0), to_, tokenId, \"Mint SBT\") */\n      tag_295\n        /* \"sbt-contract/src/SoulSocietySBT.sol\":8559:8560  0 */\n      0x00\n        /* \"sbt-contract/src/SoulSocietySBT.sol\":8563:8566  to_ */\n      dup6\n        /* \"sbt-contract/src/SoulSocietySBT.sol\":8568:8575  tokenId */\n      dup4\n        /* \"sbt-contract/src/SoulSocietySBT.sol\":8528:8588  _checkOnERC721Received(address(0), to_, tokenId, \"Mint SBT\") */\n      mload(0x40)\n      dup1\n      0x40\n      add\n      0x40\n      mstore\n      dup1\n      0x08\n      dup2\n      mstore\n      0x20\n      add\n      0x4d696e7420534254000000000000000000000000000000000000000000000000\n      dup2\n      mstore\n      pop\n        /* \"sbt-contract/src/SoulSocietySBT.sol\":8528:8550  _checkOnERC721Received */\n      tag_296\n        /* \"sbt-contract/src/SoulSocietySBT.sol\":8528:8588  _checkOnERC721Received(address(0), to_, tokenId, \"Mint SBT\") */\n      jump\t// in\n    tag_295:\n        /* \"sbt-contract/src/SoulSocietySBT.sol\":8508:8663  require(... */\n      tag_297\n      jumpi\n      mload(0x40)\n      0x08c379a000000000000000000000000000000000000000000000000000000000\n      dup2\n      mstore\n      0x04\n      add\n      tag_298\n      swap1\n      tag_299\n      jump\t// in\n    tag_298:\n      mload(0x40)\n      dup1\n      swap2\n      sub\n      swap1\n      revert\n    tag_297:\n        /* \"sbt-contract/src/SoulSocietySBT.sol\":8682:8689  tokenId */\n      dup1\n        /* \"sbt-contract/src/SoulSocietySBT.sol\":8675:8689  return tokenId */\n      swap2\n      pop\n      pop\n        /* \"sbt-contract/src/SoulSocietySBT.sol\":8362:8696  function _safeMint(address to_, uint256 tokenType_) internal virtual returns(uint256) {... */\n      swap3\n      swap2\n      pop\n      pop\n      jump\t// out\n        /* \"sbt-contract/src/SoulSocietySBT.sol\":11032:11324  function _isProtectedTokenId(uint256 tokenId_) internal view {... */\n    tag_197:\n        /* \"sbt-contract/src/SoulSocietySBT.sol\":11185:11202  _exists(tokenId_) */\n      tag_301\n        /* \"sbt-contract/src/SoulSocietySBT.sol\":11193:11201  tokenId_ */\n      dup2\n        /* \"sbt-contract/src/SoulSocietySBT.sol\":11185:11192  _exists */\n      tag_302\n        /* \"sbt-contract/src/SoulSocietySBT.sol\":11185:11202  _exists(tokenId_) */\n      jump\t// in\n    tag_301:\n        /* \"sbt-contract/src/SoulSocietySBT.sol\":11180:11276  if (!_exists(tokenId_)) {... */\n      tag_303\n      jumpi\n        /* \"sbt-contract/src/SoulSocietySBT.sol\":11256:11264  tokenId_ */\n      dup1\n        /* \"sbt-contract/src/SoulSocietySBT.sol\":11225:11265  SoulSocietySBTNonexistentToken(tokenId_) */\n      mload(0x40)\n      0x24476a3f00000000000000000000000000000000000000000000000000000000\n      dup2\n      mstore\n      0x04\n      add\n      tag_304\n      swap2\n      swap1\n      tag_62\n      jump\t// in\n    tag_304:\n      mload(0x40)\n      dup1\n      swap2\n      sub\n      swap1\n      revert\n        /* \"sbt-contract/src/SoulSocietySBT.sol\":11180:11276  if (!_exists(tokenId_)) {... */\n    tag_303:\n        /* \"sbt-contract/src/SoulSocietySBT.sol\":11286:11317  _isProtected(_owners[tokenId_]) */\n      tag_305\n        /* \"sbt-contract/src/SoulSocietySBT.sol\":11299:11306  _owners */\n      0x04\n        /* \"sbt-contract/src/SoulSocietySBT.sol\":11299:11316  _owners[tokenId_] */\n      0x00\n        /* \"sbt-contract/src/SoulSocietySBT.sol\":11307:11315  tokenId_ */\n      dup4\n        /* \"sbt-contract/src/SoulSocietySBT.sol\":11299:11316  _owners[tokenId_] */\n      dup2\n      mstore\n      0x20\n      add\n      swap1\n      dup2\n      mstore\n      0x20\n      add\n      0x00\n      keccak256\n      0x00\n      swap1\n      sload\n      swap1\n      0x0100\n      exp\n      swap1\n      div\n      0xffffffffffffffffffffffffffffffffffffffff\n      and\n        /* \"sbt-contract/src/SoulSocietySBT.sol\":11286:11298  _isProtected */\n      tag_179\n        /* \"sbt-contract/src/SoulSocietySBT.sol\":11286:11317  _isProtected(_owners[tokenId_]) */\n      jump\t// in\n    tag_305:\n      pop\n        /* \"sbt-contract/src/SoulSocietySBT.sol\":11032:11324  function _isProtectedTokenId(uint256 tokenId_) internal view {... */\n      pop\n      jump\t// out\n        /* \"@openzeppelin/contracts/access/Ownable.sol\":2426:2613  function _transferOwnership(address newOwner) internal virtual {... */\n    tag_207:\n        /* \"@openzeppelin/contracts/access/Ownable.sol\":2499:2515  address oldOwner */\n      0x00\n        /* \"@openzeppelin/contracts/access/Ownable.sol\":2518:2524  _owner */\n      dup1\n      0x00\n      swap1\n      sload\n      swap1\n      0x0100\n      exp\n      swap1\n      div\n      0xffffffffffffffffffffffffffffffffffffffff\n      and\n        /* \"@openzeppelin/contracts/access/Ownable.sol\":2499:2524  address oldOwner = _owner */\n      swap1\n      pop\n        /* \"@openzeppelin/contracts/access/Ownable.sol\":2543:2551  newOwner */\n      dup2\n        /* \"@openzeppelin/contracts/access/Ownable.sol\":2534:2540  _owner */\n      0x00\n      dup1\n        /* \"@openzeppelin/contracts/access/Ownable.sol\":2534:2551  _owner = newOwner */\n      0x0100\n      exp\n      dup2\n      sload\n      dup2\n      0xffffffffffffffffffffffffffffffffffffffff\n      mul\n      not\n      and\n      swap1\n      dup4\n      0xffffffffffffffffffffffffffffffffffffffff\n      and\n      mul\n      or\n      swap1\n      sstore\n      pop\n        /* \"@openzeppelin/contracts/access/Ownable.sol\":2597:2605  newOwner */\n      dup2\n        /* \"@openzeppelin/contracts/access/Ownable.sol\":2566:2606  OwnershipTransferred(oldOwner, newOwner) */\n      0xffffffffffffffffffffffffffffffffffffffff\n      and\n        /* \"@openzeppelin/contracts/access/Ownable.sol\":2587:2595  oldOwner */\n      dup2\n        /* \"@openzeppelin/contracts/access/Ownable.sol\":2566:2606  OwnershipTransferred(oldOwner, newOwner) */\n      0xffffffffffffffffffffffffffffffffffffffff\n      and\n      0x8be0079c531659141344cd1fd0a4f28419497f9722a3daafe3b4186f6b6457e0\n      mload(0x40)\n      mload(0x40)\n      dup1\n      swap2\n      sub\n      swap1\n      log3\n        /* \"@openzeppelin/contracts/access/Ownable.sol\":2489:2613  {... */\n      pop\n        /* \"@openzeppelin/contracts/access/Ownable.sol\":2426:2613  function _transferOwnership(address newOwner) internal virtual {... */\n      pop\n      jump\t// out\n        /* \"sbt-contract/src/SoulSocietySBT.sol\":11330:11473  function _setApprovalGrowth(uint256 tokenId_, bool approved_) internal {... */\n    tag_215:\n        /* \"sbt-contract/src/SoulSocietySBT.sol\":11457:11466  approved_ */\n      dup1\n        /* \"sbt-contract/src/SoulSocietySBT.sol\":11411:11432  _approvalUpdateGrowth */\n      0x0a\n        /* \"sbt-contract/src/SoulSocietySBT.sol\":11411:11444  _approvalUpdateGrowth[msg.sender] */\n      0x00\n        /* \"sbt-contract/src/SoulSocietySBT.sol\":11433:11443  msg.sender */\n      caller\n        /* \"sbt-contract/src/SoulSocietySBT.sol\":11411:11444  _approvalUpdateGrowth[msg.sender] */\n      0xffffffffffffffffffffffffffffffffffffffff\n      and\n      0xffffffffffffffffffffffffffffffffffffffff\n      and\n      dup2\n      mstore\n      0x20\n      add\n      swap1\n      dup2\n      mstore\n      0x20\n      add\n      0x00\n      keccak256\n        /* \"sbt-contract/src/SoulSocietySBT.sol\":11411:11454  _approvalUpdateGrowth[msg.sender][tokenId_] */\n      0x00\n        /* \"sbt-contract/src/SoulSocietySBT.sol\":11445:11453  tokenId_ */\n      dup5\n        /* \"sbt-contract/src/SoulSocietySBT.sol\":11411:11454  _approvalUpdateGrowth[msg.sender][tokenId_] */\n      dup2\n      mstore\n      0x20\n      add\n      swap1\n      dup2\n      mstore\n      0x20\n      add\n      0x00\n      keccak256\n      0x00\n        /* \"sbt-contract/src/SoulSocietySBT.sol\":11411:11466  _approvalUpdateGrowth[msg.sender][tokenId_] = approved_ */\n      0x0100\n      exp\n      dup2\n      sload\n      dup2\n      0xff\n      mul\n      not\n      and\n      swap1\n      dup4\n      iszero\n      iszero\n      mul\n      or\n      swap1\n      sstore\n      pop\n        /* \"sbt-contract/src/SoulSocietySBT.sol\":11330:11473  function _setApprovalGrowth(uint256 tokenId_, bool approved_) internal {... */\n      pop\n      pop\n      jump\t// out\n        /* \"sbt-contract/src/SoulSocietySBT.sol\":11479:11632  function _getApprovalGrowth(address owner_, uint256 tokenId_) internal view returns(bool) {... */\n    tag_222:\n        /* \"sbt-contract/src/SoulSocietySBT.sol\":11563:11567  bool */\n      0x00\n        /* \"sbt-contract/src/SoulSocietySBT.sol\":11586:11607  _approvalUpdateGrowth */\n      0x0a\n        /* \"sbt-contract/src/SoulSocietySBT.sol\":11586:11615  _approvalUpdateGrowth[owner_] */\n      0x00\n        /* \"sbt-contract/src/SoulSocietySBT.sol\":11608:11614  owner_ */\n      dup5\n        /* \"sbt-contract/src/SoulSocietySBT.sol\":11586:11615  _approvalUpdateGrowth[owner_] */\n      0xffffffffffffffffffffffffffffffffffffffff\n      and\n      0xffffffffffffffffffffffffffffffffffffffff\n      and\n      dup2\n      mstore\n      0x20\n      add\n      swap1\n      dup2\n      mstore\n      0x20\n      add\n      0x00\n      keccak256\n        /* \"sbt-contract/src/SoulSocietySBT.sol\":11586:11625  _approvalUpdateGrowth[owner_][tokenId_] */\n      0x00\n        /* \"sbt-contract/src/SoulSocietySBT.sol\":11616:11624  tokenId_ */\n      dup4\n        /* \"sbt-contract/src/SoulSocietySBT.sol\":11586:11625  _approvalUpdateGrowth[owner_][tokenId_] */\n      dup2\n      mstore\n      0x20\n      add\n      swap1\n      dup2\n      mstore\n      0x20\n      add\n      0x00\n      keccak256\n      0x00\n      swap1\n      sload\n      swap1\n      0x0100\n      exp\n      swap1\n      div\n      0xff\n      and\n        /* \"sbt-contract/src/SoulSocietySBT.sol\":11579:11625  return _approvalUpdateGrowth[owner_][tokenId_] */\n      swap1\n      pop\n        /* \"sbt-contract/src/SoulSocietySBT.sol\":11479:11632  function _getApprovalGrowth(address owner_, uint256 tokenId_) internal view returns(bool) {... */\n      swap3\n      swap2\n      pop\n      pop\n      jump\t// out\n        /* \"sbt-contract/src/SoulSocietySBT.sol\":9950:10180  function _setGrowthToZero(address to_, uint tokenId_) internal  {... */\n    tag_227:\n        /* \"sbt-contract/src/SoulSocietySBT.sol\":10068:10099  _requireMintedOf(to_, tokenId_) */\n      tag_310\n        /* \"sbt-contract/src/SoulSocietySBT.sol\":10085:10088  to_ */\n      dup3\n        /* \"sbt-contract/src/SoulSocietySBT.sol\":10090:10098  tokenId_ */\n      dup3\n        /* \"sbt-contract/src/SoulSocietySBT.sol\":10068:10084  _requireMintedOf */\n      tag_311\n        /* \"sbt-contract/src/SoulSocietySBT.sol\":10068:10099  _requireMintedOf(to_, tokenId_) */\n      jump\t// in\n    tag_310:\n        /* \"sbt-contract/src/SoulSocietySBT.sol\":10136:10137  0 */\n      0x00\n        /* \"sbt-contract/src/SoulSocietySBT.sol\":10110:10123  _tokenGrowths */\n      0x06\n        /* \"sbt-contract/src/SoulSocietySBT.sol\":10110:10133  _tokenGrowths[tokenId_] */\n      0x00\n        /* \"sbt-contract/src/SoulSocietySBT.sol\":10124:10132  tokenId_ */\n      dup4\n        /* \"sbt-contract/src/SoulSocietySBT.sol\":10110:10133  _tokenGrowths[tokenId_] */\n      dup2\n      mstore\n      0x20\n      add\n      swap1\n      dup2\n      mstore\n      0x20\n      add\n      0x00\n      keccak256\n        /* \"sbt-contract/src/SoulSocietySBT.sol\":10110:10137  _tokenGrowths[tokenId_] = 0 */\n      dup2\n      swap1\n      sstore\n      pop\n        /* \"sbt-contract/src/SoulSocietySBT.sol\":10164:10172  tokenId_ */\n      dup1\n        /* \"sbt-contract/src/SoulSocietySBT.sol\":10159:10162  to_ */\n      dup3\n        /* \"sbt-contract/src/SoulSocietySBT.sol\":10153:10173  Reset(to_, tokenId_) */\n      0xffffffffffffffffffffffffffffffffffffffff\n      and\n      0x154fa90f2d3692df165afacdcd7755b2e9d98a892a80cc1dda63f3a9cc1e64a4\n      mload(0x40)\n      mload(0x40)\n      dup1\n      swap2\n      sub\n      swap1\n      log3\n        /* \"sbt-contract/src/SoulSocietySBT.sol\":9950:10180  function _setGrowthToZero(address to_, uint tokenId_) internal  {... */\n      pop\n      pop\n      jump\t// out\n        /* \"sbt-contract/src/SoulSocietySBT.sol\":10186:10535  function _growUp(address to_, uint256 tokenId_) internal returns(uint256) {... */\n    tag_240:\n        /* \"sbt-contract/src/SoulSocietySBT.sol\":10251:10258  uint256 */\n      0x00\n        /* \"sbt-contract/src/SoulSocietySBT.sol\":10323:10354  _requireMintedOf(to_, tokenId_) */\n      tag_313\n        /* \"sbt-contract/src/SoulSocietySBT.sol\":10340:10343  to_ */\n      dup4\n        /* \"sbt-contract/src/SoulSocietySBT.sol\":10345:10353  tokenId_ */\n      dup4\n        /* \"sbt-contract/src/SoulSocietySBT.sol\":10323:10339  _requireMintedOf */\n      tag_311\n        /* \"sbt-contract/src/SoulSocietySBT.sol\":10323:10354  _requireMintedOf(to_, tokenId_) */\n      jump\t// in\n    tag_313:\n        /* \"sbt-contract/src/SoulSocietySBT.sol\":10392:10393  1 */\n      0x01\n        /* \"sbt-contract/src/SoulSocietySBT.sol\":10365:10378  _tokenGrowths */\n      0x06\n        /* \"sbt-contract/src/SoulSocietySBT.sol\":10365:10388  _tokenGrowths[tokenId_] */\n      0x00\n        /* \"sbt-contract/src/SoulSocietySBT.sol\":10379:10387  tokenId_ */\n      dup5\n        /* \"sbt-contract/src/SoulSocietySBT.sol\":10365:10388  _tokenGrowths[tokenId_] */\n      dup2\n      mstore\n      0x20\n      add\n      swap1\n      dup2\n      mstore\n      0x20\n      add\n      0x00\n      keccak256\n      0x00\n        /* \"sbt-contract/src/SoulSocietySBT.sol\":10365:10393  _tokenGrowths[tokenId_] += 1 */\n      dup3\n      dup3\n      sload\n      tag_314\n      swap2\n      swap1\n      tag_315\n      jump\t// in\n    tag_314:\n      swap3\n      pop\n      pop\n      dup2\n      swap1\n      sstore\n      pop\n        /* \"sbt-contract/src/SoulSocietySBT.sol\":10404:10423  uint256 tokenGrowth */\n      0x00\n        /* \"sbt-contract/src/SoulSocietySBT.sol\":10426:10439  _tokenGrowths */\n      0x06\n        /* \"sbt-contract/src/SoulSocietySBT.sol\":10426:10449  _tokenGrowths[tokenId_] */\n      0x00\n        /* \"sbt-contract/src/SoulSocietySBT.sol\":10440:10448  tokenId_ */\n      dup5\n        /* \"sbt-contract/src/SoulSocietySBT.sol\":10426:10449  _tokenGrowths[tokenId_] */\n      dup2\n      mstore\n      0x20\n      add\n      swap1\n      dup2\n      mstore\n      0x20\n      add\n      0x00\n      keccak256\n      sload\n        /* \"sbt-contract/src/SoulSocietySBT.sol\":10404:10449  uint256 tokenGrowth = _tokenGrowths[tokenId_] */\n      swap1\n      pop\n        /* \"sbt-contract/src/SoulSocietySBT.sol\":10487:10498  tokenGrowth */\n      dup1\n        /* \"sbt-contract/src/SoulSocietySBT.sol\":10472:10475  to_ */\n      dup5\n        /* \"sbt-contract/src/SoulSocietySBT.sol\":10465:10499  GrowUp(to_, tokenId_, tokenGrowth) */\n      0xffffffffffffffffffffffffffffffffffffffff\n      and\n      0x48ffd7fdb1c1a0561a2d410317f6bb839aab64898de6fc73ee703a9c0dc0a36c\n        /* \"sbt-contract/src/SoulSocietySBT.sol\":10477:10485  tokenId_ */\n      dup6\n        /* \"sbt-contract/src/SoulSocietySBT.sol\":10465:10499  GrowUp(to_, tokenId_, tokenGrowth) */\n      mload(0x40)\n      tag_316\n      swap2\n      swap1\n      tag_62\n      jump\t// in\n    tag_316:\n      mload(0x40)\n      dup1\n      swap2\n      sub\n      swap1\n      log3\n        /* \"sbt-contract/src/SoulSocietySBT.sol\":10517:10528  tokenGrowth */\n      dup1\n        /* \"sbt-contract/src/SoulSocietySBT.sol\":10510:10528  return tokenGrowth */\n      swap2\n      pop\n      pop\n        /* \"sbt-contract/src/SoulSocietySBT.sol\":10186:10535  function _growUp(address to_, uint256 tokenId_) internal returns(uint256) {... */\n      swap3\n      swap2\n      pop\n      pop\n      jump\t// out\n        /* \"@openzeppelin/contracts/utils/Strings.sol\":447:1143  function toString(uint256 value) internal pure returns (string memory) {... */\n    tag_248:\n        /* \"@openzeppelin/contracts/utils/Strings.sol\":503:516  string memory */\n      0x60\n        /* \"@openzeppelin/contracts/utils/Strings.sol\":552:566  uint256 length */\n      0x00\n        /* \"@openzeppelin/contracts/utils/Strings.sol\":589:590  1 */\n      0x01\n        /* \"@openzeppelin/contracts/utils/Strings.sol\":569:586  Math.log10(value) */\n      tag_318\n        /* \"@openzeppelin/contracts/utils/Strings.sol\":580:585  value */\n      dup5\n        /* \"@openzeppelin/contracts/utils/Strings.sol\":569:579  Math.log10 */\n      tag_319\n        /* \"@openzeppelin/contracts/utils/Strings.sol\":569:586  Math.log10(value) */\n      jump\t// in\n    tag_318:\n        /* \"@openzeppelin/contracts/utils/Strings.sol\":569:590  Math.log10(value) + 1 */\n      add\n        /* \"@openzeppelin/contracts/utils/Strings.sol\":552:590  uint256 length = Math.log10(value) + 1 */\n      swap1\n      pop\n        /* \"@openzeppelin/contracts/utils/Strings.sol\":604:624  string memory buffer */\n      0x00\n        /* \"@openzeppelin/contracts/utils/Strings.sol\":638:644  length */\n      dup2\n        /* \"@openzeppelin/contracts/utils/Strings.sol\":627:645  new string(length) */\n      0xffffffffffffffff\n      dup2\n      gt\n      iszero\n      tag_320\n      jumpi\n      tag_321\n      tag_322\n      jump\t// in\n    tag_321:\n    tag_320:\n      mload(0x40)\n      swap1\n      dup1\n      dup3\n      mstore\n      dup1\n      0x1f\n      add\n      not(0x1f)\n      and\n      0x20\n      add\n      dup3\n      add\n      0x40\n      mstore\n      dup1\n      iszero\n      tag_323\n      jumpi\n      dup2\n      0x20\n      add\n      0x01\n      dup3\n      mul\n      dup1\n      calldatasize\n      dup4\n      calldatacopy\n      dup1\n      dup3\n      add\n      swap2\n      pop\n      pop\n      swap1\n      pop\n    tag_323:\n      pop\n        /* \"@openzeppelin/contracts/utils/Strings.sol\":604:645  string memory buffer = new string(length) */\n      swap1\n      pop\n        /* \"@openzeppelin/contracts/utils/Strings.sol\":659:670  uint256 ptr */\n      0x00\n        /* \"@openzeppelin/contracts/utils/Strings.sol\":785:791  length */\n      dup3\n        /* \"@openzeppelin/contracts/utils/Strings.sol\":781:783  32 */\n      0x20\n        /* \"@openzeppelin/contracts/utils/Strings.sol\":777:792  add(32, length) */\n      add\n        /* \"@openzeppelin/contracts/utils/Strings.sol\":769:775  buffer */\n      dup3\n        /* \"@openzeppelin/contracts/utils/Strings.sol\":765:793  add(buffer, add(32, length)) */\n      add\n        /* \"@openzeppelin/contracts/utils/Strings.sol\":758:793  ptr := add(buffer, add(32, length)) */\n      swap1\n      pop\n        /* \"@openzeppelin/contracts/utils/Strings.sol\":820:1100  while (true) {... */\n    tag_324:\n        /* \"@openzeppelin/contracts/utils/Strings.sol\":827:831  true */\n      0x01\n        /* \"@openzeppelin/contracts/utils/Strings.sol\":820:1100  while (true) {... */\n      iszero\n      tag_325\n      jumpi\n        /* \"@openzeppelin/contracts/utils/Strings.sol\":851:856  ptr-- */\n      dup1\n      dup1\n      0x01\n      swap1\n      sub\n      swap2\n      pop\n      pop\n        /* \"@openzeppelin/contracts/utils/Strings.sol\":990:998  _SYMBOLS */\n      0x3031323334353637383961626364656600000000000000000000000000000000\n        /* \"@openzeppelin/contracts/utils/Strings.sol\":985:987  10 */\n      0x0a\n        /* \"@openzeppelin/contracts/utils/Strings.sol\":978:983  value */\n      dup7\n        /* \"@openzeppelin/contracts/utils/Strings.sol\":974:988  mod(value, 10) */\n      mod\n        /* \"@openzeppelin/contracts/utils/Strings.sol\":969:999  byte(mod(value, 10), _SYMBOLS) */\n      byte\n        /* \"@openzeppelin/contracts/utils/Strings.sol\":964:967  ptr */\n      dup2\n        /* \"@openzeppelin/contracts/utils/Strings.sol\":956:1000  mstore8(ptr, byte(mod(value, 10), _SYMBOLS)) */\n      mstore8\n        /* \"@openzeppelin/contracts/utils/Strings.sol\":1044:1046  10 */\n      0x0a\n        /* \"@openzeppelin/contracts/utils/Strings.sol\":1035:1046  value /= 10 */\n      dup6\n      dup2\n      tag_326\n      jumpi\n      tag_327\n      tag_328\n      jump\t// in\n    tag_327:\n    tag_326:\n      div\n      swap5\n      pop\n        /* \"@openzeppelin/contracts/utils/Strings.sol\":1077:1078  0 */\n      0x00\n        /* \"@openzeppelin/contracts/utils/Strings.sol\":1068:1073  value */\n      dup6\n        /* \"@openzeppelin/contracts/utils/Strings.sol\":1068:1078  value == 0 */\n      sub\n        /* \"@openzeppelin/contracts/utils/Strings.sol\":820:1100  while (true) {... */\n      tag_324\n        /* \"@openzeppelin/contracts/utils/Strings.sol\":1064:1085  if (value == 0) break */\n      jumpi\n        /* \"@openzeppelin/contracts/utils/Strings.sol\":820:1100  while (true) {... */\n    tag_325:\n        /* \"@openzeppelin/contracts/utils/Strings.sol\":1120:1126  buffer */\n      dup2\n        /* \"@openzeppelin/contracts/utils/Strings.sol\":1113:1126  return buffer */\n      swap4\n      pop\n      pop\n      pop\n      pop\n        /* \"@openzeppelin/contracts/utils/Strings.sol\":447:1143  function toString(uint256 value) internal pure returns (string memory) {... */\n      swap2\n      swap1\n      pop\n      jump\t// out\n        /* \"sbt-contract/src/SoulSocietySBT.sol\":10652:10816  function _getProtected(address to_) internal  view returns(bool) {... */\n    tag_281:\n        /* \"sbt-contract/src/SoulSocietySBT.sol\":10711:10715  bool */\n      0x00\n        /* \"sbt-contract/src/SoulSocietySBT.sol\":10791:10804  _userProtects */\n      0x08\n        /* \"sbt-contract/src/SoulSocietySBT.sol\":10791:10809  _userProtects[to_] */\n      0x00\n        /* \"sbt-contract/src/SoulSocietySBT.sol\":10805:10808  to_ */\n      dup4\n        /* \"sbt-contract/src/SoulSocietySBT.sol\":10791:10809  _userProtects[to_] */\n      0xffffffffffffffffffffffffffffffffffffffff\n      and\n      0xffffffffffffffffffffffffffffffffffffffff\n      and\n      dup2\n      mstore\n      0x20\n      add\n      swap1\n      dup2\n      mstore\n      0x20\n      add\n      0x00\n      keccak256\n      0x00\n      swap1\n      sload\n      swap1\n      0x0100\n      exp\n      swap1\n      div\n      0xff\n      and\n        /* \"sbt-contract/src/SoulSocietySBT.sol\":10784:10809  return _userProtects[to_] */\n      swap1\n      pop\n        /* \"sbt-contract/src/SoulSocietySBT.sol\":10652:10816  function _getProtected(address to_) internal  view returns(bool) {... */\n      swap2\n      swap1\n      pop\n      jump\t// out\n        /* \"@openzeppelin/contracts/utils/Context.sol\":640:736  function _msgSender() internal view virtual returns (address) {... */\n    tag_287:\n        /* \"@openzeppelin/contracts/utils/Context.sol\":693:700  address */\n      0x00\n        /* \"@openzeppelin/contracts/utils/Context.sol\":719:729  msg.sender */\n      caller\n        /* \"@openzeppelin/contracts/utils/Context.sol\":712:729  return msg.sender */\n      swap1\n      pop\n        /* \"@openzeppelin/contracts/utils/Context.sol\":640:736  function _msgSender() internal view virtual returns (address) {... */\n      swap1\n      jump\t// out\n        /* \"sbt-contract/src/SoulSocietySBT.sol\":8702:9943  function _mint(address to_, uint256 tokenType_) internal virtual returns(uint256) {... */\n    tag_294:\n        /* \"sbt-contract/src/SoulSocietySBT.sol\":8775:8782  uint256 */\n      0x00\n        /* \"sbt-contract/src/SoulSocietySBT.sol\":8794:8809  uint256 tokenId */\n      dup1\n        /* \"sbt-contract/src/SoulSocietySBT.sol\":8826:8827  1 */\n      0x01\n        /* \"sbt-contract/src/SoulSocietySBT.sol\":8812:8823  _totalCount */\n      sload(0x03)\n        /* \"sbt-contract/src/SoulSocietySBT.sol\":8812:8827  _totalCount + 1 */\n      tag_333\n      swap2\n      swap1\n      tag_315\n      jump\t// in\n    tag_333:\n        /* \"sbt-contract/src/SoulSocietySBT.sol\":8794:8827  uint256 tokenId = _totalCount + 1 */\n      swap1\n      pop\n        /* \"sbt-contract/src/SoulSocietySBT.sol\":8861:8862  0 */\n      0x00\n        /* \"sbt-contract/src/SoulSocietySBT.sol\":8846:8863  to_ == address(0) */\n      0xffffffffffffffffffffffffffffffffffffffff\n      and\n        /* \"sbt-contract/src/SoulSocietySBT.sol\":8846:8849  to_ */\n      dup5\n        /* \"sbt-contract/src/SoulSocietySBT.sol\":8846:8863  to_ == address(0) */\n      0xffffffffffffffffffffffffffffffffffffffff\n      and\n      sub\n        /* \"sbt-contract/src/SoulSocietySBT.sol\":8842:8938  if (to_ == address(0)) {... */\n      tag_334\n      jumpi\n        /* \"sbt-contract/src/SoulSocietySBT.sol\":8924:8925  0 */\n      0x00\n        /* \"sbt-contract/src/SoulSocietySBT.sol\":8886:8927  SoulSocietySBTInvalidReceiver(address(0)) */\n      mload(0x40)\n      0x74f5e87d00000000000000000000000000000000000000000000000000000000\n      dup2\n      mstore\n      0x04\n      add\n      tag_335\n      swap2\n      swap1\n      tag_54\n      jump\t// in\n    tag_335:\n      mload(0x40)\n      dup1\n      swap2\n      sub\n      swap1\n      revert\n        /* \"sbt-contract/src/SoulSocietySBT.sol\":8842:8938  if (to_ == address(0)) {... */\n    tag_334:\n        /* \"sbt-contract/src/SoulSocietySBT.sol\":8952:8968  _exists(tokenId) */\n      tag_336\n        /* \"sbt-contract/src/SoulSocietySBT.sol\":8960:8967  tokenId */\n      dup2\n        /* \"sbt-contract/src/SoulSocietySBT.sol\":8952:8959  _exists */\n      tag_302\n        /* \"sbt-contract/src/SoulSocietySBT.sol\":8952:8968  _exists(tokenId) */\n      jump\t// in\n    tag_336:\n        /* \"sbt-contract/src/SoulSocietySBT.sol\":8948:9035  if (_exists(tokenId)) {... */\n      iszero\n      tag_337\n      jumpi\n        /* \"sbt-contract/src/SoulSocietySBT.sol\":9016:9023  tokenId */\n      dup1\n        /* \"sbt-contract/src/SoulSocietySBT.sol\":8991:9024  SoulSocietySBTExistToken(tokenId) */\n      mload(0x40)\n      0xf342bdc200000000000000000000000000000000000000000000000000000000\n      dup2\n      mstore\n      0x04\n      add\n      tag_338\n      swap2\n      swap1\n      tag_62\n      jump\t// in\n    tag_338:\n      mload(0x40)\n      dup1\n      swap2\n      sub\n      swap1\n      revert\n        /* \"sbt-contract/src/SoulSocietySBT.sol\":8948:9035  if (_exists(tokenId)) {... */\n    tag_337:\n        /* \"sbt-contract/src/SoulSocietySBT.sol\":9100:9117  _existsOwner(to_) */\n      tag_339\n        /* \"sbt-contract/src/SoulSocietySBT.sol\":9113:9116  to_ */\n      dup5\n        /* \"sbt-contract/src/SoulSocietySBT.sol\":9100:9112  _existsOwner */\n      tag_340\n        /* \"sbt-contract/src/SoulSocietySBT.sol\":9100:9117  _existsOwner(to_) */\n      jump\t// in\n    tag_339:\n        /* \"sbt-contract/src/SoulSocietySBT.sol\":9096:9159  if(!_existsOwner(to_)) {... */\n      tag_341\n      jumpi\n        /* \"sbt-contract/src/SoulSocietySBT.sol\":9147:9148  1 */\n      0x01\n        /* \"sbt-contract/src/SoulSocietySBT.sol\":9133:9143  _totalUser */\n      0x02\n      0x00\n        /* \"sbt-contract/src/SoulSocietySBT.sol\":9133:9148  _totalUser += 1 */\n      dup3\n      dup3\n      sload\n      tag_342\n      swap2\n      swap1\n      tag_315\n      jump\t// in\n    tag_342:\n      swap3\n      pop\n      pop\n      dup2\n      swap1\n      sstore\n      pop\n        /* \"sbt-contract/src/SoulSocietySBT.sol\":9096:9159  if(!_existsOwner(to_)) {... */\n    tag_341:\n        /* \"sbt-contract/src/SoulSocietySBT.sol\":9502:9503  1 */\n      0x01\n        /* \"sbt-contract/src/SoulSocietySBT.sol\":9484:9493  _balances */\n      0x07\n        /* \"sbt-contract/src/SoulSocietySBT.sol\":9484:9498  _balances[to_] */\n      0x00\n        /* \"sbt-contract/src/SoulSocietySBT.sol\":9494:9497  to_ */\n      dup7\n        /* \"sbt-contract/src/SoulSocietySBT.sol\":9484:9498  _balances[to_] */\n      0xffffffffffffffffffffffffffffffffffffffff\n      and\n      0xffffffffffffffffffffffffffffffffffffffff\n      and\n      dup2\n      mstore\n      0x20\n      add\n      swap1\n      dup2\n      mstore\n      0x20\n      add\n      0x00\n      keccak256\n      0x00\n        /* \"sbt-contract/src/SoulSocietySBT.sol\":9484:9503  _balances[to_] += 1 */\n      dup3\n      dup3\n      sload\n      add\n      swap3\n      pop\n      pop\n      dup2\n      swap1\n      sstore\n      pop\n        /* \"sbt-contract/src/SoulSocietySBT.sol\":9532:9533  1 */\n      0x01\n        /* \"sbt-contract/src/SoulSocietySBT.sol\":9517:9528  _totalCount */\n      0x03\n      0x00\n        /* \"sbt-contract/src/SoulSocietySBT.sol\":9517:9533  _totalCount += 1 */\n      dup3\n      dup3\n      sload\n      add\n      swap3\n      pop\n      pop\n      dup2\n      swap1\n      sstore\n      pop\n        /* \"sbt-contract/src/SoulSocietySBT.sol\":9586:9589  to_ */\n      dup4\n        /* \"sbt-contract/src/SoulSocietySBT.sol\":9567:9574  _owners */\n      0x04\n        /* \"sbt-contract/src/SoulSocietySBT.sol\":9567:9583  _owners[tokenId] */\n      0x00\n        /* \"sbt-contract/src/SoulSocietySBT.sol\":9575:9582  tokenId */\n      dup4\n        /* \"sbt-contract/src/SoulSocietySBT.sol\":9567:9583  _owners[tokenId] */\n      dup2\n      mstore\n      0x20\n      add\n      swap1\n      dup2\n      mstore\n      0x20\n      add\n      0x00\n      keccak256\n      0x00\n        /* \"sbt-contract/src/SoulSocietySBT.sol\":9567:9589  _owners[tokenId] = to_ */\n      0x0100\n      exp\n      dup2\n      sload\n      dup2\n      0xffffffffffffffffffffffffffffffffffffffff\n      mul\n      not\n      and\n      swap1\n      dup4\n      0xffffffffffffffffffffffffffffffffffffffff\n      and\n      mul\n      or\n      swap1\n      sstore\n      pop\n        /* \"sbt-contract/src/SoulSocietySBT.sol\":9622:9632  tokenType_ */\n      dup3\n        /* \"sbt-contract/src/SoulSocietySBT.sol\":9599:9610  _tokenTypes */\n      0x05\n        /* \"sbt-contract/src/SoulSocietySBT.sol\":9599:9619  _tokenTypes[tokenId] */\n      0x00\n        /* \"sbt-contract/src/SoulSocietySBT.sol\":9611:9618  tokenId */\n      dup4\n        /* \"sbt-contract/src/SoulSocietySBT.sol\":9599:9619  _tokenTypes[tokenId] */\n      dup2\n      mstore\n      0x20\n      add\n      swap1\n      dup2\n      mstore\n      0x20\n      add\n      0x00\n      keccak256\n        /* \"sbt-contract/src/SoulSocietySBT.sol\":9599:9632  _tokenTypes[tokenId] = tokenType_ */\n      dup2\n      swap1\n      sstore\n      pop\n        /* \"sbt-contract/src/SoulSocietySBT.sol\":9667:9668  1 */\n      0x01\n        /* \"sbt-contract/src/SoulSocietySBT.sol\":9642:9655  _tokenGrowths */\n      0x06\n        /* \"sbt-contract/src/SoulSocietySBT.sol\":9642:9664  _tokenGrowths[tokenId] */\n      0x00\n        /* \"sbt-contract/src/SoulSocietySBT.sol\":9656:9663  tokenId */\n      dup4\n        /* \"sbt-contract/src/SoulSocietySBT.sol\":9642:9664  _tokenGrowths[tokenId] */\n      dup2\n      mstore\n      0x20\n      add\n      swap1\n      dup2\n      mstore\n      0x20\n      add\n      0x00\n      keccak256\n        /* \"sbt-contract/src/SoulSocietySBT.sol\":9642:9668  _tokenGrowths[tokenId] = 1 */\n      dup2\n      swap1\n      sstore\n      pop\n        /* \"sbt-contract/src/SoulSocietySBT.sol\":9778:9782  true */\n      0x01\n        /* \"sbt-contract/src/SoulSocietySBT.sol\":9740:9761  _approvalUpdateGrowth */\n      0x0a\n        /* \"sbt-contract/src/SoulSocietySBT.sol\":9740:9766  _approvalUpdateGrowth[to_] */\n      0x00\n        /* \"sbt-contract/src/SoulSocietySBT.sol\":9762:9765  to_ */\n      dup7\n        /* \"sbt-contract/src/SoulSocietySBT.sol\":9740:9766  _approvalUpdateGrowth[to_] */\n      0xffffffffffffffffffffffffffffffffffffffff\n      and\n      0xffffffffffffffffffffffffffffffffffffffff\n      and\n      dup2\n      mstore\n      0x20\n      add\n      swap1\n      dup2\n      mstore\n      0x20\n      add\n      0x00\n      keccak256\n        /* \"sbt-contract/src/SoulSocietySBT.sol\":9740:9775  _approvalUpdateGrowth[to_][tokenId] */\n      0x00\n        /* \"sbt-contract/src/SoulSocietySBT.sol\":9767:9774  tokenId */\n      dup4\n        /* \"sbt-contract/src/SoulSocietySBT.sol\":9740:9775  _approvalUpdateGrowth[to_][tokenId] */\n      dup2\n      mstore\n      0x20\n      add\n      swap1\n      dup2\n      mstore\n      0x20\n      add\n      0x00\n      keccak256\n      0x00\n        /* \"sbt-contract/src/SoulSocietySBT.sol\":9740:9782  _approvalUpdateGrowth[to_][tokenId] = true */\n      0x0100\n      exp\n      dup2\n      sload\n      dup2\n      0xff\n      mul\n      not\n      and\n      swap1\n      dup4\n      iszero\n      iszero\n      mul\n      or\n      swap1\n      sstore\n      pop\n        /* \"sbt-contract/src/SoulSocietySBT.sol\":9830:9837  tokenId */\n      dup1\n        /* \"sbt-contract/src/SoulSocietySBT.sol\":9792:9804  _ownedTokens */\n      0x09\n        /* \"sbt-contract/src/SoulSocietySBT.sol\":9792:9809  _ownedTokens[to_] */\n      0x00\n        /* \"sbt-contract/src/SoulSocietySBT.sol\":9805:9808  to_ */\n      dup7\n        /* \"sbt-contract/src/SoulSocietySBT.sol\":9792:9809  _ownedTokens[to_] */\n      0xffffffffffffffffffffffffffffffffffffffff\n      and\n      0xffffffffffffffffffffffffffffffffffffffff\n      and\n      dup2\n      mstore\n      0x20\n      add\n      swap1\n      dup2\n      mstore\n      0x20\n      add\n      0x00\n      keccak256\n        /* \"sbt-contract/src/SoulSocietySBT.sol\":9792:9827  _ownedTokens[to_][_balances[to_]-1] */\n      0x00\n        /* \"sbt-contract/src/SoulSocietySBT.sol\":9825:9826  1 */\n      0x01\n        /* \"sbt-contract/src/SoulSocietySBT.sol\":9810:9819  _balances */\n      0x07\n        /* \"sbt-contract/src/SoulSocietySBT.sol\":9810:9824  _balances[to_] */\n      0x00\n        /* \"sbt-contract/src/SoulSocietySBT.sol\":9820:9823  to_ */\n      dup10\n        /* \"sbt-contract/src/SoulSocietySBT.sol\":9810:9824  _balances[to_] */\n      0xffffffffffffffffffffffffffffffffffffffff\n      and\n      0xffffffffffffffffffffffffffffffffffffffff\n      and\n      dup2\n      mstore\n      0x20\n      add\n      swap1\n      dup2\n      mstore\n      0x20\n      add\n      0x00\n      keccak256\n      sload\n        /* \"sbt-contract/src/SoulSocietySBT.sol\":9810:9826  _balances[to_]-1 */\n      tag_343\n      swap2\n      swap1\n      tag_344\n      jump\t// in\n    tag_343:\n        /* \"sbt-contract/src/SoulSocietySBT.sol\":9792:9827  _ownedTokens[to_][_balances[to_]-1] */\n      dup2\n      mstore\n      0x20\n      add\n      swap1\n      dup2\n      mstore\n      0x20\n      add\n      0x00\n      keccak256\n        /* \"sbt-contract/src/SoulSocietySBT.sol\":9792:9837  _ownedTokens[to_][_balances[to_]-1] = tokenId */\n      dup2\n      swap1\n      sstore\n      pop\n        /* \"sbt-contract/src/SoulSocietySBT.sol\":9900:9910  tokenType_ */\n      dup3\n        /* \"sbt-contract/src/SoulSocietySBT.sol\":9891:9898  tokenId */\n      dup2\n        /* \"sbt-contract/src/SoulSocietySBT.sol\":9886:9889  to_ */\n      dup6\n        /* \"sbt-contract/src/SoulSocietySBT.sol\":9869:9911  Mint(address(0), to_, tokenId, tokenType_) */\n      0xffffffffffffffffffffffffffffffffffffffff\n      and\n      0x2f00e3cdd69a77be7ed215ec7b2a36784dd158f921fca79ac29deffa353fe6ee\n        /* \"sbt-contract/src/SoulSocietySBT.sol\":9882:9883  0 */\n      0x00\n        /* \"sbt-contract/src/SoulSocietySBT.sol\":9869:9911  Mint(address(0), to_, tokenId, tokenType_) */\n      mload(0x40)\n      tag_345\n      swap2\n      swap1\n      tag_54\n      jump\t// in\n    tag_345:\n      mload(0x40)\n      dup1\n      swap2\n      sub\n      swap1\n      log4\n        /* \"sbt-contract/src/SoulSocietySBT.sol\":9929:9936  tokenId */\n      dup1\n        /* \"sbt-contract/src/SoulSocietySBT.sol\":9922:9936  return tokenId */\n      swap2\n      pop\n      pop\n        /* \"sbt-contract/src/SoulSocietySBT.sol\":8702:9943  function _mint(address to_, uint256 tokenType_) internal virtual returns(uint256) {... */\n      swap3\n      swap2\n      pop\n      pop\n      jump\t// out\n        /* \"sbt-contract/src/SoulSocietySBT.sol\":13049:13414  function _checkOnERC721Received(address from, address to, uint256 tokenId, bytes memory _data) private returns (bool)... */\n    tag_296:\n        /* \"sbt-contract/src/SoulSocietySBT.sol\":13161:13165  bool */\n      0x00\n        /* \"sbt-contract/src/SoulSocietySBT.sol\":13186:13200  isContract(to) */\n      tag_347\n        /* \"sbt-contract/src/SoulSocietySBT.sol\":13197:13199  to */\n      dup5\n        /* \"sbt-contract/src/SoulSocietySBT.sol\":13186:13196  isContract */\n      tag_348\n        /* \"sbt-contract/src/SoulSocietySBT.sol\":13186:13200  isContract(to) */\n      jump\t// in\n    tag_347:\n        /* \"sbt-contract/src/SoulSocietySBT.sol\":13181:13238  if (!isContract(to)) {... */\n      tag_349\n      jumpi\n        /* \"sbt-contract/src/SoulSocietySBT.sol\":13223:13227  true */\n      0x01\n        /* \"sbt-contract/src/SoulSocietySBT.sol\":13216:13227  return true */\n      swap1\n      pop\n      jump(tag_346)\n        /* \"sbt-contract/src/SoulSocietySBT.sol\":13181:13238  if (!isContract(to)) {... */\n    tag_349:\n        /* \"sbt-contract/src/SoulSocietySBT.sol\":13247:13260  bytes4 retval */\n      0x00\n        /* \"sbt-contract/src/SoulSocietySBT.sol\":13279:13281  to */\n      dup5\n        /* \"sbt-contract/src/SoulSocietySBT.sol\":13263:13299  IERC721Receiver(to).onERC721Received */\n      0xffffffffffffffffffffffffffffffffffffffff\n      and\n      0x150b7a02\n        /* \"sbt-contract/src/SoulSocietySBT.sol\":13300:13310  msg.sender */\n      caller\n        /* \"sbt-contract/src/SoulSocietySBT.sol\":13312:13316  from */\n      dup9\n        /* \"sbt-contract/src/SoulSocietySBT.sol\":13318:13325  tokenId */\n      dup8\n        /* \"sbt-contract/src/SoulSocietySBT.sol\":13327:13332  _data */\n      dup8\n        /* \"sbt-contract/src/SoulSocietySBT.sol\":13263:13333  IERC721Receiver(to).onERC721Received(msg.sender, from, tokenId, _data) */\n      mload(0x40)\n      dup6\n      0xffffffff\n      and\n      0xe0\n      shl\n      dup2\n      mstore\n      0x04\n      add\n      tag_350\n      swap5\n      swap4\n      swap3\n      swap2\n      swap1\n      tag_351\n      jump\t// in\n    tag_350:\n      0x20\n      mload(0x40)\n      dup1\n      dup4\n      sub\n      dup2\n      0x00\n      dup8\n      gas\n      call\n      iszero\n      dup1\n      iszero\n      tag_353\n      jumpi\n      returndatasize\n      0x00\n      dup1\n      returndatacopy\n      revert(0x00, returndatasize)\n    tag_353:\n      pop\n      pop\n      pop\n      pop\n      mload(0x40)\n      returndatasize\n      not(0x1f)\n      0x1f\n      dup3\n      add\n      and\n      dup3\n      add\n      dup1\n      0x40\n      mstore\n      pop\n      dup2\n      add\n      swap1\n      tag_354\n      swap2\n      swap1\n      tag_355\n      jump\t// in\n    tag_354:\n        /* \"sbt-contract/src/SoulSocietySBT.sol\":13247:13333  bytes4 retval = IERC721Receiver(to).onERC721Received(msg.sender, from, tokenId, _data) */\n      swap1\n      pop\n        /* \"sbt-contract/src/SoulSocietySBT.sol\":13361:13406  IERC721Receiver(to).onERC721Received.selector */\n      shl(0xe0, 0x150b7a02)\n        /* \"sbt-contract/src/SoulSocietySBT.sol\":13351:13406  retval == IERC721Receiver(to).onERC721Received.selector */\n      not(0xffffffffffffffffffffffffffffffffffffffffffffffffffffffff)\n      and\n        /* \"sbt-contract/src/SoulSocietySBT.sol\":13351:13357  retval */\n      dup2\n        /* \"sbt-contract/src/SoulSocietySBT.sol\":13351:13406  retval == IERC721Receiver(to).onERC721Received.selector */\n      not(0xffffffffffffffffffffffffffffffffffffffffffffffffffffffff)\n      and\n      eq\n        /* \"sbt-contract/src/SoulSocietySBT.sol\":13343:13407  return (retval == IERC721Receiver(to).onERC721Received.selector) */\n      swap2\n      pop\n      pop\n        /* \"sbt-contract/src/SoulSocietySBT.sol\":13049:13414  function _checkOnERC721Received(address from, address to, uint256 tokenId, bytes memory _data) private returns (bool)... */\n    tag_346:\n      swap5\n      swap4\n      pop\n      pop\n      pop\n      pop\n      jump\t// out\n        /* \"sbt-contract/src/SoulSocietySBT.sol\":12038:12164  function _exists(uint256 tokenId) internal view virtual returns (bool) {... */\n    tag_302:\n        /* \"sbt-contract/src/SoulSocietySBT.sol\":12103:12107  bool */\n      0x00\n        /* \"sbt-contract/src/SoulSocietySBT.sol\":12155:12156  0 */\n      dup1\n        /* \"sbt-contract/src/SoulSocietySBT.sol\":12126:12157  _ownerOf(tokenId) != address(0) */\n      0xffffffffffffffffffffffffffffffffffffffff\n      and\n        /* \"sbt-contract/src/SoulSocietySBT.sol\":12126:12143  _ownerOf(tokenId) */\n      tag_357\n        /* \"sbt-contract/src/SoulSocietySBT.sol\":12135:12142  tokenId */\n      dup4\n        /* \"sbt-contract/src/SoulSocietySBT.sol\":12126:12134  _ownerOf */\n      tag_358\n        /* \"sbt-contract/src/SoulSocietySBT.sol\":12126:12143  _ownerOf(tokenId) */\n      jump\t// in\n    tag_357:\n        /* \"sbt-contract/src/SoulSocietySBT.sol\":12126:12157  _ownerOf(tokenId) != address(0) */\n      0xffffffffffffffffffffffffffffffffffffffff\n      and\n      eq\n      iszero\n        /* \"sbt-contract/src/SoulSocietySBT.sol\":12119:12157  return _ownerOf(tokenId) != address(0) */\n      swap1\n      pop\n        /* \"sbt-contract/src/SoulSocietySBT.sol\":12038:12164  function _exists(uint256 tokenId) internal view virtual returns (bool) {... */\n      swap2\n      swap1\n      pop\n      jump\t// out\n        /* \"sbt-contract/src/SoulSocietySBT.sol\":12667:12850  function _requireMintedOf(address to, uint256 tokenId) internal view virtual {... */\n    tag_311:\n        /* \"sbt-contract/src/SoulSocietySBT.sol\":12778:12780  to */\n      dup2\n        /* \"sbt-contract/src/SoulSocietySBT.sol\":12757:12780  _ownerOf(tokenId) != to */\n      0xffffffffffffffffffffffffffffffffffffffff\n      and\n        /* \"sbt-contract/src/SoulSocietySBT.sol\":12757:12774  _ownerOf(tokenId) */\n      tag_360\n        /* \"sbt-contract/src/SoulSocietySBT.sol\":12766:12773  tokenId */\n      dup3\n        /* \"sbt-contract/src/SoulSocietySBT.sol\":12757:12765  _ownerOf */\n      tag_358\n        /* \"sbt-contract/src/SoulSocietySBT.sol\":12757:12774  _ownerOf(tokenId) */\n      jump\t// in\n    tag_360:\n        /* \"sbt-contract/src/SoulSocietySBT.sol\":12757:12780  _ownerOf(tokenId) != to */\n      0xffffffffffffffffffffffffffffffffffffffff\n      and\n      eq\n        /* \"sbt-contract/src/SoulSocietySBT.sol\":12754:12844  if(_ownerOf(tokenId) != to) {... */\n      tag_361\n      jumpi\n        /* \"sbt-contract/src/SoulSocietySBT.sol\":12830:12832  to */\n      dup2\n        /* \"sbt-contract/src/SoulSocietySBT.sol\":12803:12833  SoulSocietySBTInvalidOwner(to) */\n      mload(0x40)\n      0x5015929900000000000000000000000000000000000000000000000000000000\n      dup2\n      mstore\n      0x04\n      add\n      tag_362\n      swap2\n      swap1\n      tag_54\n      jump\t// in\n    tag_362:\n      mload(0x40)\n      dup1\n      swap2\n      sub\n      swap1\n      revert\n        /* \"sbt-contract/src/SoulSocietySBT.sol\":12754:12844  if(_ownerOf(tokenId) != to) {... */\n    tag_361:\n        /* \"sbt-contract/src/SoulSocietySBT.sol\":12667:12850  function _requireMintedOf(address to, uint256 tokenId) internal view virtual {... */\n      pop\n      pop\n      jump\t// out\n        /* \"@openzeppelin/contracts/utils/math/Math.sol\":10139:11055  function log10(uint256 value) internal pure returns (uint256) {... */\n    tag_319:\n        /* \"@openzeppelin/contracts/utils/math/Math.sol\":10192:10199  uint256 */\n      0x00\n        /* \"@openzeppelin/contracts/utils/math/Math.sol\":10211:10225  uint256 result */\n      dup1\n        /* \"@openzeppelin/contracts/utils/math/Math.sol\":10228:10229  0 */\n      0x00\n        /* \"@openzeppelin/contracts/utils/math/Math.sol\":10211:10229  uint256 result = 0 */\n      swap1\n      pop\n        /* \"@openzeppelin/contracts/utils/math/Math.sol\":10276:10284  10 ** 64 */\n      0x184f03e93ff9f4daa797ed6e38ed64bf6a1f010000000000000000\n        /* \"@openzeppelin/contracts/utils/math/Math.sol\":10267:10272  value */\n      dup4\n        /* \"@openzeppelin/contracts/utils/math/Math.sol\":10267:10284  value >= 10 ** 64 */\n      lt\n        /* \"@openzeppelin/contracts/utils/math/Math.sol\":10263:10366  if (value >= 10 ** 64) {... */\n      tag_364\n      jumpi\n        /* \"@openzeppelin/contracts/utils/math/Math.sol\":10313:10321  10 ** 64 */\n      0x184f03e93ff9f4daa797ed6e38ed64bf6a1f010000000000000000\n        /* \"@openzeppelin/contracts/utils/math/Math.sol\":10304:10321  value /= 10 ** 64 */\n      dup4\n      dup2\n      tag_365\n      jumpi\n      tag_366\n      tag_328\n      jump\t// in\n    tag_366:\n    tag_365:\n      div\n      swap3\n      pop\n        /* \"@openzeppelin/contracts/utils/math/Math.sol\":10349:10351  64 */\n      0x40\n        /* \"@openzeppelin/contracts/utils/math/Math.sol\":10339:10351  result += 64 */\n      dup2\n      add\n      swap1\n      pop\n        /* \"@openzeppelin/contracts/utils/math/Math.sol\":10263:10366  if (value >= 10 ** 64) {... */\n    tag_364:\n        /* \"@openzeppelin/contracts/utils/math/Math.sol\":10392:10400  10 ** 32 */\n      0x04ee2d6d415b85acef8100000000\n        /* \"@openzeppelin/contracts/utils/math/Math.sol\":10383:10388  value */\n      dup4\n        /* \"@openzeppelin/contracts/utils/math/Math.sol\":10383:10400  value >= 10 ** 32 */\n      lt\n        /* \"@openzeppelin/contracts/utils/math/Math.sol\":10379:10482  if (value >= 10 ** 32) {... */\n      tag_367\n      jumpi\n        /* \"@openzeppelin/contracts/utils/math/Math.sol\":10429:10437  10 ** 32 */\n      0x04ee2d6d415b85acef8100000000\n        /* \"@openzeppelin/contracts/utils/math/Math.sol\":10420:10437  value /= 10 ** 32 */\n      dup4\n      dup2\n      tag_368\n      jumpi\n      tag_369\n      tag_328\n      jump\t// in\n    tag_369:\n    tag_368:\n      div\n      swap3\n      pop\n        /* \"@openzeppelin/contracts/utils/math/Math.sol\":10465:10467  32 */\n      0x20\n        /* \"@openzeppelin/contracts/utils/math/Math.sol\":10455:10467  result += 32 */\n      dup2\n      add\n      swap1\n      pop\n        /* \"@openzeppelin/contracts/utils/math/Math.sol\":10379:10482  if (value >= 10 ** 32) {... */\n    tag_367:\n        /* \"@openzeppelin/contracts/utils/math/Math.sol\":10508:10516  10 ** 16 */\n      0x2386f26fc10000\n        /* \"@openzeppelin/contracts/utils/math/Math.sol\":10499:10504  value */\n      dup4\n        /* \"@openzeppelin/contracts/utils/math/Math.sol\":10499:10516  value >= 10 ** 16 */\n      lt\n        /* \"@openzeppelin/contracts/utils/math/Math.sol\":10495:10598  if (value >= 10 ** 16) {... */\n      tag_370\n      jumpi\n        /* \"@openzeppelin/contracts/utils/math/Math.sol\":10545:10553  10 ** 16 */\n      0x2386f26fc10000\n        /* \"@openzeppelin/contracts/utils/math/Math.sol\":10536:10553  value /= 10 ** 16 */\n      dup4\n      dup2\n      tag_371\n      jumpi\n      tag_372\n      tag_328\n      jump\t// in\n    tag_372:\n    tag_371:\n      div\n      swap3\n      pop\n        /* \"@openzeppelin/contracts/utils/math/Math.sol\":10581:10583  16 */\n      0x10\n        /* \"@openzeppelin/contracts/utils/math/Math.sol\":10571:10583  result += 16 */\n      dup2\n      add\n      swap1\n      pop\n        /* \"@openzeppelin/contracts/utils/math/Math.sol\":10495:10598  if (value >= 10 ** 16) {... */\n    tag_370:\n        /* \"@openzeppelin/contracts/utils/math/Math.sol\":10624:10631  10 ** 8 */\n      0x05f5e100\n        /* \"@openzeppelin/contracts/utils/math/Math.sol\":10615:10620  value */\n      dup4\n        /* \"@openzeppelin/contracts/utils/math/Math.sol\":10615:10631  value >= 10 ** 8 */\n      lt\n        /* \"@openzeppelin/contracts/utils/math/Math.sol\":10611:10711  if (value >= 10 ** 8) {... */\n      tag_373\n      jumpi\n        /* \"@openzeppelin/contracts/utils/math/Math.sol\":10660:10667  10 ** 8 */\n      0x05f5e100\n        /* \"@openzeppelin/contracts/utils/math/Math.sol\":10651:10667  value /= 10 ** 8 */\n      dup4\n      dup2\n      tag_374\n      jumpi\n      tag_375\n      tag_328\n      jump\t// in\n    tag_375:\n    tag_374:\n      div\n      swap3\n      pop\n        /* \"@openzeppelin/contracts/utils/math/Math.sol\":10695:10696  8 */\n      0x08\n        /* \"@openzeppelin/contracts/utils/math/Math.sol\":10685:10696  result += 8 */\n      dup2\n      add\n      swap1\n      pop\n        /* \"@openzeppelin/contracts/utils/math/Math.sol\":10611:10711  if (value >= 10 ** 8) {... */\n    tag_373:\n        /* \"@openzeppelin/contracts/utils/math/Math.sol\":10737:10744  10 ** 4 */\n      0x2710\n        /* \"@openzeppelin/contracts/utils/math/Math.sol\":10728:10733  value */\n      dup4\n        /* \"@openzeppelin/contracts/utils/math/Math.sol\":10728:10744  value >= 10 ** 4 */\n      lt\n        /* \"@openzeppelin/contracts/utils/math/Math.sol\":10724:10824  if (value >= 10 ** 4) {... */\n      tag_376\n      jumpi\n        /* \"@openzeppelin/contracts/utils/math/Math.sol\":10773:10780  10 ** 4 */\n      0x2710\n        /* \"@openzeppelin/contracts/utils/math/Math.sol\":10764:10780  value /= 10 ** 4 */\n      dup4\n      dup2\n      tag_377\n      jumpi\n      tag_378\n      tag_328\n      jump\t// in\n    tag_378:\n    tag_377:\n      div\n      swap3\n      pop\n        /* \"@openzeppelin/contracts/utils/math/Math.sol\":10808:10809  4 */\n      0x04\n        /* \"@openzeppelin/contracts/utils/math/Math.sol\":10798:10809  result += 4 */\n      dup2\n      add\n      swap1\n      pop\n        /* \"@openzeppelin/contracts/utils/math/Math.sol\":10724:10824  if (value >= 10 ** 4) {... */\n    tag_376:\n        /* \"@openzeppelin/contracts/utils/math/Math.sol\":10850:10857  10 ** 2 */\n      0x64\n        /* \"@openzeppelin/contracts/utils/math/Math.sol\":10841:10846  value */\n      dup4\n        /* \"@openzeppelin/contracts/utils/math/Math.sol\":10841:10857  value >= 10 ** 2 */\n      lt\n        /* \"@openzeppelin/contracts/utils/math/Math.sol\":10837:10937  if (value >= 10 ** 2) {... */\n      tag_379\n      jumpi\n        /* \"@openzeppelin/contracts/utils/math/Math.sol\":10886:10893  10 ** 2 */\n      0x64\n        /* \"@openzeppelin/contracts/utils/math/Math.sol\":10877:10893  value /= 10 ** 2 */\n      dup4\n      dup2\n      tag_380\n      jumpi\n      tag_381\n      tag_328\n      jump\t// in\n    tag_381:\n    tag_380:\n      div\n      swap3\n      pop\n        /* \"@openzeppelin/contracts/utils/math/Math.sol\":10921:10922  2 */\n      0x02\n        /* \"@openzeppelin/contracts/utils/math/Math.sol\":10911:10922  result += 2 */\n      dup2\n      add\n      swap1\n      pop\n        /* \"@openzeppelin/contracts/utils/math/Math.sol\":10837:10937  if (value >= 10 ** 2) {... */\n    tag_379:\n        /* \"@openzeppelin/contracts/utils/math/Math.sol\":10963:10970  10 ** 1 */\n      0x0a\n        /* \"@openzeppelin/contracts/utils/math/Math.sol\":10954:10959  value */\n      dup4\n        /* \"@openzeppelin/contracts/utils/math/Math.sol\":10954:10970  value >= 10 ** 1 */\n      lt\n        /* \"@openzeppelin/contracts/utils/math/Math.sol\":10950:11016  if (value >= 10 ** 1) {... */\n      tag_382\n      jumpi\n        /* \"@openzeppelin/contracts/utils/math/Math.sol\":11000:11001  1 */\n      0x01\n        /* \"@openzeppelin/contracts/utils/math/Math.sol\":10990:11001  result += 1 */\n      dup2\n      add\n      swap1\n      pop\n        /* \"@openzeppelin/contracts/utils/math/Math.sol\":10950:11016  if (value >= 10 ** 1) {... */\n    tag_382:\n        /* \"@openzeppelin/contracts/utils/math/Math.sol\":11042:11048  result */\n      dup1\n        /* \"@openzeppelin/contracts/utils/math/Math.sol\":11035:11048  return result */\n      swap2\n      pop\n      pop\n        /* \"@openzeppelin/contracts/utils/math/Math.sol\":10139:11055  function log10(uint256 value) internal pure returns (uint256) {... */\n      swap2\n      swap1\n      pop\n      jump\t// out\n        /* \"sbt-contract/src/SoulSocietySBT.sol\":12170:12283  function _existsOwner(address to) internal view virtual returns (bool) {... */\n    tag_340:\n        /* \"sbt-contract/src/SoulSocietySBT.sol\":12235:12239  bool */\n      0x00\n        /* \"sbt-contract/src/SoulSocietySBT.sol\":12275:12276  0 */\n      dup1\n        /* \"sbt-contract/src/SoulSocietySBT.sol\":12258:12267  _balances */\n      0x07\n        /* \"sbt-contract/src/SoulSocietySBT.sol\":12258:12271  _balances[to] */\n      0x00\n        /* \"sbt-contract/src/SoulSocietySBT.sol\":12268:12270  to */\n      dup5\n        /* \"sbt-contract/src/SoulSocietySBT.sol\":12258:12271  _balances[to] */\n      0xffffffffffffffffffffffffffffffffffffffff\n      and\n      0xffffffffffffffffffffffffffffffffffffffff\n      and\n      dup2\n      mstore\n      0x20\n      add\n      swap1\n      dup2\n      mstore\n      0x20\n      add\n      0x00\n      keccak256\n      sload\n        /* \"sbt-contract/src/SoulSocietySBT.sol\":12258:12276  _balances[to] != 0 */\n      eq\n      iszero\n        /* \"sbt-contract/src/SoulSocietySBT.sol\":12251:12276  return _balances[to] != 0 */\n      swap1\n      pop\n        /* \"sbt-contract/src/SoulSocietySBT.sol\":12170:12283  function _existsOwner(address to) internal view virtual returns (bool) {... */\n      swap2\n      swap1\n      pop\n      jump\t// out\n        /* \"sbt-contract/src/SoulSocietySBT.sol\":12856:13043  function isContract(address _addr) internal view returns (bool) {... */\n    tag_348:\n        /* \"sbt-contract/src/SoulSocietySBT.sol\":12914:12918  bool */\n      0x00\n        /* \"sbt-contract/src/SoulSocietySBT.sol\":12930:12941  uint32 size */\n      dup1\n        /* \"sbt-contract/src/SoulSocietySBT.sol\":12994:12999  _addr */\n      dup3\n        /* \"sbt-contract/src/SoulSocietySBT.sol\":12982:13000  extcodesize(_addr) */\n      extcodesize\n        /* \"sbt-contract/src/SoulSocietySBT.sol\":12974:13000  size := extcodesize(_addr) */\n      swap1\n      pop\n        /* \"sbt-contract/src/SoulSocietySBT.sol\":13034:13035  0 */\n      0x00\n        /* \"sbt-contract/src/SoulSocietySBT.sol\":13027:13031  size */\n      dup2\n        /* \"sbt-contract/src/SoulSocietySBT.sol\":13027:13035  size > 0 */\n      0xffffffff\n      and\n      gt\n        /* \"sbt-contract/src/SoulSocietySBT.sol\":13019:13036  return (size > 0) */\n      swap2\n      pop\n      pop\n        /* \"sbt-contract/src/SoulSocietySBT.sol\":12856:13043  function isContract(address _addr) internal view returns (bool) {... */\n      swap2\n      swap1\n      pop\n      jump\t// out\n        /* \"sbt-contract/src/SoulSocietySBT.sol\":11741:11851  function _ownerOf(uint256 tokenId_) internal view  returns (address) {... */\n    tag_358:\n        /* \"sbt-contract/src/SoulSocietySBT.sol\":11801:11808  address */\n      0x00\n        /* \"sbt-contract/src/SoulSocietySBT.sol\":11827:11834  _owners */\n      0x04\n        /* \"sbt-contract/src/SoulSocietySBT.sol\":11827:11844  _owners[tokenId_] */\n      0x00\n        /* \"sbt-contract/src/SoulSocietySBT.sol\":11835:11843  tokenId_ */\n      dup4\n        /* \"sbt-contract/src/SoulSocietySBT.sol\":11827:11844  _owners[tokenId_] */\n      dup2\n      mstore\n      0x20\n      add\n      swap1\n      dup2\n      mstore\n      0x20\n      add\n      0x00\n      keccak256\n      0x00\n      swap1\n      sload\n      swap1\n      0x0100\n      exp\n      swap1\n      div\n      0xffffffffffffffffffffffffffffffffffffffff\n      and\n        /* \"sbt-contract/src/SoulSocietySBT.sol\":11820:11844  return _owners[tokenId_] */\n      swap1\n      pop\n        /* \"sbt-contract/src/SoulSocietySBT.sol\":11741:11851  function _ownerOf(uint256 tokenId_) internal view  returns (address) {... */\n      swap2\n      swap1\n      pop\n      jump\t// out\n        /* \"#utility.yul\":7:82   */\n    tag_386:\n        /* \"#utility.yul\":40:46   */\n      0x00\n        /* \"#utility.yul\":73:75   */\n      0x40\n        /* \"#utility.yul\":67:76   */\n      mload\n        /* \"#utility.yul\":57:76   */\n      swap1\n      pop\n        /* \"#utility.yul\":7:82   */\n      swap1\n      jump\t// out\n        /* \"#utility.yul\":88:205   */\n    tag_387:\n        /* \"#utility.yul\":197:198   */\n      0x00\n        /* \"#utility.yul\":194:195   */\n      dup1\n        /* \"#utility.yul\":187:199   */\n      revert\n        /* \"#utility.yul\":211:328   */\n    tag_388:\n        /* \"#utility.yul\":320:321   */\n      0x00\n        /* \"#utility.yul\":317:318   */\n      dup1\n        /* \"#utility.yul\":310:322   */\n      revert\n        /* \"#utility.yul\":334:483   */\n    tag_389:\n        /* \"#utility.yul\":370:377   */\n      0x00\n        /* \"#utility.yul\":410:476   */\n      0xffffffff00000000000000000000000000000000000000000000000000000000\n        /* \"#utility.yul\":403:408   */\n      dup3\n        /* \"#utility.yul\":399:477   */\n      and\n        /* \"#utility.yul\":388:477   */\n      swap1\n      pop\n        /* \"#utility.yul\":334:483   */\n      swap2\n      swap1\n      pop\n      jump\t// out\n        /* \"#utility.yul\":489:609   */\n    tag_390:\n        /* \"#utility.yul\":561:584   */\n      tag_475\n        /* \"#utility.yul\":578:583   */\n      dup2\n        /* \"#utility.yul\":561:584   */\n      tag_389\n      jump\t// in\n    tag_475:\n        /* \"#utility.yul\":554:559   */\n      dup2\n        /* \"#utility.yul\":551:585   */\n      eq\n        /* \"#utility.yul\":541:603   */\n      tag_476\n      jumpi\n        /* \"#utility.yul\":599:600   */\n      0x00\n        /* \"#utility.yul\":596:597   */\n      dup1\n        /* \"#utility.yul\":589:601   */\n      revert\n        /* \"#utility.yul\":541:603   */\n    tag_476:\n        /* \"#utility.yul\":489:609   */\n      pop\n      jump\t// out\n        /* \"#utility.yul\":615:752   */\n    tag_391:\n        /* \"#utility.yul\":660:665   */\n      0x00\n        /* \"#utility.yul\":698:704   */\n      dup2\n        /* \"#utility.yul\":685:705   */\n      calldataload\n        /* \"#utility.yul\":676:705   */\n      swap1\n      pop\n        /* \"#utility.yul\":714:746   */\n      tag_478\n        /* \"#utility.yul\":740:745   */\n      dup2\n        /* \"#utility.yul\":714:746   */\n      tag_390\n      jump\t// in\n    tag_478:\n        /* \"#utility.yul\":615:752   */\n      swap3\n      swap2\n      pop\n      pop\n      jump\t// out\n        /* \"#utility.yul\":758:1085   */\n    tag_41:\n        /* \"#utility.yul\":816:822   */\n      0x00\n        /* \"#utility.yul\":865:867   */\n      0x20\n        /* \"#utility.yul\":853:862   */\n      dup3\n        /* \"#utility.yul\":844:851   */\n      dup5\n        /* \"#utility.yul\":840:863   */\n      sub\n        /* \"#utility.yul\":836:868   */\n      slt\n        /* \"#utility.yul\":833:952   */\n      iszero\n      tag_480\n      jumpi\n        /* \"#utility.yul\":871:950   */\n      tag_481\n      tag_387\n      jump\t// in\n    tag_481:\n        /* \"#utility.yul\":833:952   */\n    tag_480:\n        /* \"#utility.yul\":991:992   */\n      0x00\n        /* \"#utility.yul\":1016:1068   */\n      tag_482\n        /* \"#utility.yul\":1060:1067   */\n      dup5\n        /* \"#utility.yul\":1051:1057   */\n      dup3\n        /* \"#utility.yul\":1040:1049   */\n      dup6\n        /* \"#utility.yul\":1036:1058   */\n      add\n        /* \"#utility.yul\":1016:1068   */\n      tag_391\n      jump\t// in\n    tag_482:\n        /* \"#utility.yul\":1006:1068   */\n      swap2\n      pop\n        /* \"#utility.yul\":962:1078   */\n      pop\n        /* \"#utility.yul\":758:1085   */\n      swap3\n      swap2\n      pop\n      pop\n      jump\t// out\n        /* \"#utility.yul\":1091:1181   */\n    tag_392:\n        /* \"#utility.yul\":1125:1132   */\n      0x00\n        /* \"#utility.yul\":1168:1173   */\n      dup2\n        /* \"#utility.yul\":1161:1174   */\n      iszero\n        /* \"#utility.yul\":1154:1175   */\n      iszero\n        /* \"#utility.yul\":1143:1175   */\n      swap1\n      pop\n        /* \"#utility.yul\":1091:1181   */\n      swap2\n      swap1\n      pop\n      jump\t// out\n        /* \"#utility.yul\":1187:1296   */\n    tag_393:\n        /* \"#utility.yul\":1268:1289   */\n      tag_485\n        /* \"#utility.yul\":1283:1288   */\n      dup2\n        /* \"#utility.yul\":1268:1289   */\n      tag_392\n      jump\t// in\n    tag_485:\n        /* \"#utility.yul\":1263:1266   */\n      dup3\n        /* \"#utility.yul\":1256:1290   */\n      mstore\n        /* \"#utility.yul\":1187:1296   */\n      pop\n      pop\n      jump\t// out\n        /* \"#utility.yul\":1302:1512   */\n    tag_44:\n        /* \"#utility.yul\":1389:1393   */\n      0x00\n        /* \"#utility.yul\":1427:1429   */\n      0x20\n        /* \"#utility.yul\":1416:1425   */\n      dup3\n        /* \"#utility.yul\":1412:1430   */\n      add\n        /* \"#utility.yul\":1404:1430   */\n      swap1\n      pop\n        /* \"#utility.yul\":1440:1505   */\n      tag_487\n        /* \"#utility.yul\":1502:1503   */\n      0x00\n        /* \"#utility.yul\":1491:1500   */\n      dup4\n        /* \"#utility.yul\":1487:1504   */\n      add\n        /* \"#utility.yul\":1478:1484   */\n      dup5\n        /* \"#utility.yul\":1440:1505   */\n      tag_393\n      jump\t// in\n    tag_487:\n        /* \"#utility.yul\":1302:1512   */\n      swap3\n      swap2\n      pop\n      pop\n      jump\t// out\n        /* \"#utility.yul\":1518:1617   */\n    tag_394:\n        /* \"#utility.yul\":1570:1576   */\n      0x00\n        /* \"#utility.yul\":1604:1609   */\n      dup2\n        /* \"#utility.yul\":1598:1610   */\n      mload\n        /* \"#utility.yul\":1588:1610   */\n      swap1\n      pop\n        /* \"#utility.yul\":1518:1617   */\n      swap2\n      swap1\n      pop\n      jump\t// out\n        /* \"#utility.yul\":1623:1792   */\n    tag_395:\n        /* \"#utility.yul\":1707:1718   */\n      0x00\n        /* \"#utility.yul\":1741:1747   */\n      dup3\n        /* \"#utility.yul\":1736:1739   */\n      dup3\n        /* \"#utility.yul\":1729:1748   */\n      mstore\n        /* \"#utility.yul\":1781:1785   */\n      0x20\n        /* \"#utility.yul\":1776:1779   */\n      dup3\n        /* \"#utility.yul\":1772:1786   */\n      add\n        /* \"#utility.yul\":1757:1786   */\n      swap1\n      pop\n        /* \"#utility.yul\":1623:1792   */\n      swap3\n      swap2\n      pop\n      pop\n      jump\t// out\n        /* \"#utility.yul\":1798:2044   */\n    tag_396:\n        /* \"#utility.yul\":1879:1880   */\n      0x00\n        /* \"#utility.yul\":1889:2002   */\n    tag_491:\n        /* \"#utility.yul\":1903:1909   */\n      dup4\n        /* \"#utility.yul\":1900:1901   */\n      dup2\n        /* \"#utility.yul\":1897:1910   */\n      lt\n        /* \"#utility.yul\":1889:2002   */\n      iszero\n      tag_493\n      jumpi\n        /* \"#utility.yul\":1988:1989   */\n      dup1\n        /* \"#utility.yul\":1983:1986   */\n      dup3\n        /* \"#utility.yul\":1979:1990   */\n      add\n        /* \"#utility.yul\":1973:1991   */\n      mload\n        /* \"#utility.yul\":1969:1970   */\n      dup2\n        /* \"#utility.yul\":1964:1967   */\n      dup5\n        /* \"#utility.yul\":1960:1971   */\n      add\n        /* \"#utility.yul\":1953:1992   */\n      mstore\n        /* \"#utility.yul\":1925:1927   */\n      0x20\n        /* \"#utility.yul\":1922:1923   */\n      dup2\n        /* \"#utility.yul\":1918:1928   */\n      add\n        /* \"#utility.yul\":1913:1928   */\n      swap1\n      pop\n        /* \"#utility.yul\":1889:2002   */\n      jump(tag_491)\n    tag_493:\n        /* \"#utility.yul\":2036:2037   */\n      0x00\n        /* \"#utility.yul\":2027:2033   */\n      dup5\n        /* \"#utility.yul\":2022:2025   */\n      dup5\n        /* \"#utility.yul\":2018:2034   */\n      add\n        /* \"#utility.yul\":2011:2038   */\n      mstore\n        /* \"#utility.yul\":1860:2044   */\n      pop\n        /* \"#utility.yul\":1798:2044   */\n      pop\n      pop\n      pop\n      jump\t// out\n        /* \"#utility.yul\":2050:2152   */\n    tag_397:\n        /* \"#utility.yul\":2091:2097   */\n      0x00\n        /* \"#utility.yul\":2142:2144   */\n      0x1f\n        /* \"#utility.yul\":2138:2145   */\n      not\n        /* \"#utility.yul\":2133:2135   */\n      0x1f\n        /* \"#utility.yul\":2126:2131   */\n      dup4\n        /* \"#utility.yul\":2122:2136   */\n      add\n        /* \"#utility.yul\":2118:2146   */\n      and\n        /* \"#utility.yul\":2108:2146   */\n      swap1\n      pop\n        /* \"#utility.yul\":2050:2152   */\n      swap2\n      swap1\n      pop\n      jump\t// out\n        /* \"#utility.yul\":2158:2535   */\n    tag_398:\n        /* \"#utility.yul\":2246:2249   */\n      0x00\n        /* \"#utility.yul\":2274:2313   */\n      tag_496\n        /* \"#utility.yul\":2307:2312   */\n      dup3\n        /* \"#utility.yul\":2274:2313   */\n      tag_394\n      jump\t// in\n    tag_496:\n        /* \"#utility.yul\":2329:2400   */\n      tag_497\n        /* \"#utility.yul\":2393:2399   */\n      dup2\n        /* \"#utility.yul\":2388:2391   */\n      dup6\n        /* \"#utility.yul\":2329:2400   */\n      tag_395\n      jump\t// in\n    tag_497:\n        /* \"#utility.yul\":2322:2400   */\n      swap4\n      pop\n        /* \"#utility.yul\":2409:2474   */\n      tag_498\n        /* \"#utility.yul\":2467:2473   */\n      dup2\n        /* \"#utility.yul\":2462:2465   */\n      dup6\n        /* \"#utility.yul\":2455:2459   */\n      0x20\n        /* \"#utility.yul\":2448:2453   */\n      dup7\n        /* \"#utility.yul\":2444:2460   */\n      add\n        /* \"#utility.yul\":2409:2474   */\n      tag_396\n      jump\t// in\n    tag_498:\n        /* \"#utility.yul\":2499:2528   */\n      tag_499\n        /* \"#utility.yul\":2521:2527   */\n      dup2\n        /* \"#utility.yul\":2499:2528   */\n      tag_397\n      jump\t// in\n    tag_499:\n        /* \"#utility.yul\":2494:2497   */\n      dup5\n        /* \"#utility.yul\":2490:2529   */\n      add\n        /* \"#utility.yul\":2483:2529   */\n      swap2\n      pop\n        /* \"#utility.yul\":2250:2535   */\n      pop\n        /* \"#utility.yul\":2158:2535   */\n      swap3\n      swap2\n      pop\n      pop\n      jump\t// out\n        /* \"#utility.yul\":2541:2854   */\n    tag_48:\n        /* \"#utility.yul\":2654:2658   */\n      0x00\n        /* \"#utility.yul\":2692:2694   */\n      0x20\n        /* \"#utility.yul\":2681:2690   */\n      dup3\n        /* \"#utility.yul\":2677:2695   */\n      add\n        /* \"#utility.yul\":2669:2695   */\n      swap1\n      pop\n        /* \"#utility.yul\":2741:2750   */\n      dup2\n        /* \"#utility.yul\":2735:2739   */\n      dup2\n        /* \"#utility.yul\":2731:2751   */\n      sub\n        /* \"#utility.yul\":2727:2728   */\n      0x00\n        /* \"#utility.yul\":2716:2725   */\n      dup4\n        /* \"#utility.yul\":2712:2729   */\n      add\n        /* \"#utility.yul\":2705:2752   */\n      mstore\n        /* \"#utility.yul\":2769:2847   */\n      tag_501\n        /* \"#utility.yul\":2842:2846   */\n      dup2\n        /* \"#utility.yul\":2833:2839   */\n      dup5\n        /* \"#utility.yul\":2769:2847   */\n      tag_398\n      jump\t// in\n    tag_501:\n        /* \"#utility.yul\":2761:2847   */\n      swap1\n      pop\n        /* \"#utility.yul\":2541:2854   */\n      swap3\n      swap2\n      pop\n      pop\n      jump\t// out\n        /* \"#utility.yul\":2860:2937   */\n    tag_399:\n        /* \"#utility.yul\":2897:2904   */\n      0x00\n        /* \"#utility.yul\":2926:2931   */\n      dup2\n        /* \"#utility.yul\":2915:2931   */\n      swap1\n      pop\n        /* \"#utility.yul\":2860:2937   */\n      swap2\n      swap1\n      pop\n      jump\t// out\n        /* \"#utility.yul\":2943:3065   */\n    tag_400:\n        /* \"#utility.yul\":3016:3040   */\n      tag_504\n        /* \"#utility.yul\":3034:3039   */\n      dup2\n        /* \"#utility.yul\":3016:3040   */\n      tag_399\n      jump\t// in\n    tag_504:\n        /* \"#utility.yul\":3009:3014   */\n      dup2\n        /* \"#utility.yul\":3006:3041   */\n      eq\n        /* \"#utility.yul\":2996:3059   */\n      tag_505\n      jumpi\n        /* \"#utility.yul\":3055:3056   */\n      0x00\n        /* \"#utility.yul\":3052:3053   */\n      dup1\n        /* \"#utility.yul\":3045:3057   */\n      revert\n        /* \"#utility.yul\":2996:3059   */\n    tag_505:\n        /* \"#utility.yul\":2943:3065   */\n      pop\n      jump\t// out\n        /* \"#utility.yul\":3071:3210   */\n    tag_401:\n        /* \"#utility.yul\":3117:3122   */\n      0x00\n        /* \"#utility.yul\":3155:3161   */\n      dup2\n        /* \"#utility.yul\":3142:3162   */\n      calldataload\n        /* \"#utility.yul\":3133:3162   */\n      swap1\n      pop\n        /* \"#utility.yul\":3171:3204   */\n      tag_507\n        /* \"#utility.yul\":3198:3203   */\n      dup2\n        /* \"#utility.yul\":3171:3204   */\n      tag_400\n      jump\t// in\n    tag_507:\n        /* \"#utility.yul\":3071:3210   */\n      swap3\n      swap2\n      pop\n      pop\n      jump\t// out\n        /* \"#utility.yul\":3216:3545   */\n    tag_51:\n        /* \"#utility.yul\":3275:3281   */\n      0x00\n        /* \"#utility.yul\":3324:3326   */\n      0x20\n        /* \"#utility.yul\":3312:3321   */\n      dup3\n        /* \"#utility.yul\":3303:3310   */\n      dup5\n        /* \"#utility.yul\":3299:3322   */\n      sub\n        /* \"#utility.yul\":3295:3327   */\n      slt\n        /* \"#utility.yul\":3292:3411   */\n      iszero\n      tag_509\n      jumpi\n        /* \"#utility.yul\":3330:3409   */\n      tag_510\n      tag_387\n      jump\t// in\n    tag_510:\n        /* \"#utility.yul\":3292:3411   */\n    tag_509:\n        /* \"#utility.yul\":3450:3451   */\n      0x00\n        /* \"#utility.yul\":3475:3528   */\n      tag_511\n        /* \"#utility.yul\":3520:3527   */\n      dup5\n        /* \"#utility.yul\":3511:3517   */\n      dup3\n        /* \"#utility.yul\":3500:3509   */\n      dup6\n        /* \"#utility.yul\":3496:3518   */\n      add\n        /* \"#utility.yul\":3475:3528   */\n      tag_401\n      jump\t// in\n    tag_511:\n        /* \"#utility.yul\":3465:3528   */\n      swap2\n      pop\n        /* \"#utility.yul\":3421:3538   */\n      pop\n        /* \"#utility.yul\":3216:3545   */\n      swap3\n      swap2\n      pop\n      pop\n      jump\t// out\n        /* \"#utility.yul\":3551:3677   */\n    tag_402:\n        /* \"#utility.yul\":3588:3595   */\n      0x00\n        /* \"#utility.yul\":3628:3670   */\n      0xffffffffffffffffffffffffffffffffffffffff\n        /* \"#utility.yul\":3621:3626   */\n      dup3\n        /* \"#utility.yul\":3617:3671   */\n      and\n        /* \"#utility.yul\":3606:3671   */\n      swap1\n      pop\n        /* \"#utility.yul\":3551:3677   */\n      swap2\n      swap1\n      pop\n      jump\t// out\n        /* \"#utility.yul\":3683:3779   */\n    tag_403:\n        /* \"#utility.yul\":3720:3727   */\n      0x00\n        /* \"#utility.yul\":3749:3773   */\n      tag_514\n        /* \"#utility.yul\":3767:3772   */\n      dup3\n        /* \"#utility.yul\":3749:3773   */\n      tag_402\n      jump\t// in\n    tag_514:\n        /* \"#utility.yul\":3738:3773   */\n      swap1\n      pop\n        /* \"#utility.yul\":3683:3779   */\n      swap2\n      swap1\n      pop\n      jump\t// out\n        /* \"#utility.yul\":3785:3903   */\n    tag_404:\n        /* \"#utility.yul\":3872:3896   */\n      tag_516\n        /* \"#utility.yul\":3890:3895   */\n      dup2\n        /* \"#utility.yul\":3872:3896   */\n      tag_403\n      jump\t// in\n    tag_516:\n        /* \"#utility.yul\":3867:3870   */\n      dup3\n        /* \"#utility.yul\":3860:3897   */\n      mstore\n        /* \"#utility.yul\":3785:3903   */\n      pop\n      pop\n      jump\t// out\n        /* \"#utility.yul\":3909:4131   */\n    tag_54:\n        /* \"#utility.yul\":4002:4006   */\n      0x00\n        /* \"#utility.yul\":4040:4042   */\n      0x20\n        /* \"#utility.yul\":4029:4038   */\n      dup3\n        /* \"#utility.yul\":4025:4043   */\n      add\n        /* \"#utility.yul\":4017:4043   */\n      swap1\n      pop\n        /* \"#utility.yul\":4053:4124   */\n      tag_518\n        /* \"#utility.yul\":4121:4122   */\n      0x00\n        /* \"#utility.yul\":4110:4119   */\n      dup4\n        /* \"#utility.yul\":4106:4123   */\n      add\n        /* \"#utility.yul\":4097:4103   */\n      dup5\n        /* \"#utility.yul\":4053:4124   */\n      tag_404\n      jump\t// in\n    tag_518:\n        /* \"#utility.yul\":3909:4131   */\n      swap3\n      swap2\n      pop\n      pop\n      jump\t// out\n        /* \"#utility.yul\":4137:4259   */\n    tag_405:\n        /* \"#utility.yul\":4210:4234   */\n      tag_520\n        /* \"#utility.yul\":4228:4233   */\n      dup2\n        /* \"#utility.yul\":4210:4234   */\n      tag_403\n      jump\t// in\n    tag_520:\n        /* \"#utility.yul\":4203:4208   */\n      dup2\n        /* \"#utility.yul\":4200:4235   */\n      eq\n        /* \"#utility.yul\":4190:4253   */\n      tag_521\n      jumpi\n        /* \"#utility.yul\":4249:4250   */\n      0x00\n        /* \"#utility.yul\":4246:4247   */\n      dup1\n        /* \"#utility.yul\":4239:4251   */\n      revert\n        /* \"#utility.yul\":4190:4253   */\n    tag_521:\n        /* \"#utility.yul\":4137:4259   */\n      pop\n      jump\t// out\n        /* \"#utility.yul\":4265:4404   */\n    tag_406:\n        /* \"#utility.yul\":4311:4316   */\n      0x00\n        /* \"#utility.yul\":4349:4355   */\n      dup2\n        /* \"#utility.yul\":4336:4356   */\n      calldataload\n        /* \"#utility.yul\":4327:4356   */\n      swap1\n      pop\n        /* \"#utility.yul\":4365:4398   */\n      tag_523\n        /* \"#utility.yul\":4392:4397   */\n      dup2\n        /* \"#utility.yul\":4365:4398   */\n      tag_405\n      jump\t// in\n    tag_523:\n        /* \"#utility.yul\":4265:4404   */\n      swap3\n      swap2\n      pop\n      pop\n      jump\t// out\n        /* \"#utility.yul\":4410:4884   */\n    tag_57:\n        /* \"#utility.yul\":4478:4484   */\n      0x00\n        /* \"#utility.yul\":4486:4492   */\n      dup1\n        /* \"#utility.yul\":4535:4537   */\n      0x40\n        /* \"#utility.yul\":4523:4532   */\n      dup4\n        /* \"#utility.yul\":4514:4521   */\n      dup6\n        /* \"#utility.yul\":4510:4533   */\n      sub\n        /* \"#utility.yul\":4506:4538   */\n      slt\n        /* \"#utility.yul\":4503:4622   */\n      iszero\n      tag_525\n      jumpi\n        /* \"#utility.yul\":4541:4620   */\n      tag_526\n      tag_387\n      jump\t// in\n    tag_526:\n        /* \"#utility.yul\":4503:4622   */\n    tag_525:\n        /* \"#utility.yul\":4661:4662   */\n      0x00\n        /* \"#utility.yul\":4686:4739   */\n      tag_527\n        /* \"#utility.yul\":4731:4738   */\n      dup6\n        /* \"#utility.yul\":4722:4728   */\n      dup3\n        /* \"#utility.yul\":4711:4720   */\n      dup7\n        /* \"#utility.yul\":4707:4729   */\n      add\n        /* \"#utility.yul\":4686:4739   */\n      tag_406\n      jump\t// in\n    tag_527:\n        /* \"#utility.yul\":4676:4739   */\n      swap3\n      pop\n        /* \"#utility.yul\":4632:4749   */\n      pop\n        /* \"#utility.yul\":4788:4790   */\n      0x20\n        /* \"#utility.yul\":4814:4867   */\n      tag_528\n        /* \"#utility.yul\":4859:4866   */\n      dup6\n        /* \"#utility.yul\":4850:4856   */\n      dup3\n        /* \"#utility.yul\":4839:4848   */\n      dup7\n        /* \"#utility.yul\":4835:4857   */\n      add\n        /* \"#utility.yul\":4814:4867   */\n      tag_401\n      jump\t// in\n    tag_528:\n        /* \"#utility.yul\":4804:4867   */\n      swap2\n      pop\n        /* \"#utility.yul\":4759:4877   */\n      pop\n        /* \"#utility.yul\":4410:4884   */\n      swap3\n      pop\n      swap3\n      swap1\n      pop\n      jump\t// out\n        /* \"#utility.yul\":4890:5008   */\n    tag_407:\n        /* \"#utility.yul\":4977:5001   */\n      tag_530\n        /* \"#utility.yul\":4995:5000   */\n      dup2\n        /* \"#utility.yul\":4977:5001   */\n      tag_399\n      jump\t// in\n    tag_530:\n        /* \"#utility.yul\":4972:4975   */\n      dup3\n        /* \"#utility.yul\":4965:5002   */\n      mstore\n        /* \"#utility.yul\":4890:5008   */\n      pop\n      pop\n      jump\t// out\n        /* \"#utility.yul\":5014:5236   */\n    tag_62:\n        /* \"#utility.yul\":5107:5111   */\n      0x00\n        /* \"#utility.yul\":5145:5147   */\n      0x20\n        /* \"#utility.yul\":5134:5143   */\n      dup3\n        /* \"#utility.yul\":5130:5148   */\n      add\n        /* \"#utility.yul\":5122:5148   */\n      swap1\n      pop\n        /* \"#utility.yul\":5158:5229   */\n      tag_532\n        /* \"#utility.yul\":5226:5227   */\n      0x00\n        /* \"#utility.yul\":5215:5224   */\n      dup4\n        /* \"#utility.yul\":5211:5228   */\n      add\n        /* \"#utility.yul\":5202:5208   */\n      dup5\n        /* \"#utility.yul\":5158:5229   */\n      tag_407\n      jump\t// in\n    tag_532:\n        /* \"#utility.yul\":5014:5236   */\n      swap3\n      swap2\n      pop\n      pop\n      jump\t// out\n        /* \"#utility.yul\":5242:5358   */\n    tag_408:\n        /* \"#utility.yul\":5312:5333   */\n      tag_534\n        /* \"#utility.yul\":5327:5332   */\n      dup2\n        /* \"#utility.yul\":5312:5333   */\n      tag_392\n      jump\t// in\n    tag_534:\n        /* \"#utility.yul\":5305:5310   */\n      dup2\n        /* \"#utility.yul\":5302:5334   */\n      eq\n        /* \"#utility.yul\":5292:5352   */\n      tag_535\n      jumpi\n        /* \"#utility.yul\":5348:5349   */\n      0x00\n        /* \"#utility.yul\":5345:5346   */\n      dup1\n        /* \"#utility.yul\":5338:5350   */\n      revert\n        /* \"#utility.yul\":5292:5352   */\n    tag_535:\n        /* \"#utility.yul\":5242:5358   */\n      pop\n      jump\t// out\n        /* \"#utility.yul\":5364:5497   */\n    tag_409:\n        /* \"#utility.yul\":5407:5412   */\n      0x00\n        /* \"#utility.yul\":5445:5451   */\n      dup2\n        /* \"#utility.yul\":5432:5452   */\n      calldataload\n        /* \"#utility.yul\":5423:5452   */\n      swap1\n      pop\n        /* \"#utility.yul\":5461:5491   */\n      tag_537\n        /* \"#utility.yul\":5485:5490   */\n      dup2\n        /* \"#utility.yul\":5461:5491   */\n      tag_408\n      jump\t// in\n    tag_537:\n        /* \"#utility.yul\":5364:5497   */\n      swap3\n      swap2\n      pop\n      pop\n      jump\t// out\n        /* \"#utility.yul\":5503:5826   */\n    tag_65:\n        /* \"#utility.yul\":5559:5565   */\n      0x00\n        /* \"#utility.yul\":5608:5610   */\n      0x20\n        /* \"#utility.yul\":5596:5605   */\n      dup3\n        /* \"#utility.yul\":5587:5594   */\n      dup5\n        /* \"#utility.yul\":5583:5606   */\n      sub\n        /* \"#utility.yul\":5579:5611   */\n      slt\n        /* \"#utility.yul\":5576:5695   */\n      iszero\n      tag_539\n      jumpi\n        /* \"#utility.yul\":5614:5693   */\n      tag_540\n      tag_387\n      jump\t// in\n    tag_540:\n        /* \"#utility.yul\":5576:5695   */\n    tag_539:\n        /* \"#utility.yul\":5734:5735   */\n      0x00\n        /* \"#utility.yul\":5759:5809   */\n      tag_541\n        /* \"#utility.yul\":5801:5808   */\n      dup5\n        /* \"#utility.yul\":5792:5798   */\n      dup3\n        /* \"#utility.yul\":5781:5790   */\n      dup6\n        /* \"#utility.yul\":5777:5799   */\n      add\n        /* \"#utility.yul\":5759:5809   */\n      tag_409\n      jump\t// in\n    tag_541:\n        /* \"#utility.yul\":5749:5809   */\n      swap2\n      pop\n        /* \"#utility.yul\":5705:5819   */\n      pop\n        /* \"#utility.yul\":5503:5826   */\n      swap3\n      swap2\n      pop\n      pop\n      jump\t// out\n        /* \"#utility.yul\":5832:6451   */\n    tag_70:\n        /* \"#utility.yul\":5909:5915   */\n      0x00\n        /* \"#utility.yul\":5917:5923   */\n      dup1\n        /* \"#utility.yul\":5925:5931   */\n      0x00\n        /* \"#utility.yul\":5974:5976   */\n      0x60\n        /* \"#utility.yul\":5962:5971   */\n      dup5\n        /* \"#utility.yul\":5953:5960   */\n      dup7\n        /* \"#utility.yul\":5949:5972   */\n      sub\n        /* \"#utility.yul\":5945:5977   */\n      slt\n        /* \"#utility.yul\":5942:6061   */\n      iszero\n      tag_543\n      jumpi\n        /* \"#utility.yul\":5980:6059   */\n      tag_544\n      tag_387\n      jump\t// in\n    tag_544:\n        /* \"#utility.yul\":5942:6061   */\n    tag_543:\n        /* \"#utility.yul\":6100:6101   */\n      0x00\n        /* \"#utility.yul\":6125:6178   */\n      tag_545\n        /* \"#utility.yul\":6170:6177   */\n      dup7\n        /* \"#utility.yul\":6161:6167   */\n      dup3\n        /* \"#utility.yul\":6150:6159   */\n      dup8\n        /* \"#utility.yul\":6146:6168   */\n      add\n        /* \"#utility.yul\":6125:6178   */\n      tag_406\n      jump\t// in\n    tag_545:\n        /* \"#utility.yul\":6115:6178   */\n      swap4\n      pop\n        /* \"#utility.yul\":6071:6188   */\n      pop\n        /* \"#utility.yul\":6227:6229   */\n      0x20\n        /* \"#utility.yul\":6253:6306   */\n      tag_546\n        /* \"#utility.yul\":6298:6305   */\n      dup7\n        /* \"#utility.yul\":6289:6295   */\n      dup3\n        /* \"#utility.yul\":6278:6287   */\n      dup8\n        /* \"#utility.yul\":6274:6296   */\n      add\n        /* \"#utility.yul\":6253:6306   */\n      tag_406\n      jump\t// in\n    tag_546:\n        /* \"#utility.yul\":6243:6306   */\n      swap3\n      pop\n        /* \"#utility.yul\":6198:6316   */\n      pop\n        /* \"#utility.yul\":6355:6357   */\n      0x40\n        /* \"#utility.yul\":6381:6434   */\n      tag_547\n        /* \"#utility.yul\":6426:6433   */\n      dup7\n        /* \"#utility.yul\":6417:6423   */\n      dup3\n        /* \"#utility.yul\":6406:6415   */\n      dup8\n        /* \"#utility.yul\":6402:6424   */\n      add\n        /* \"#utility.yul\":6381:6434   */\n      tag_401\n      jump\t// in\n    tag_547:\n        /* \"#utility.yul\":6371:6434   */\n      swap2\n      pop\n        /* \"#utility.yul\":6326:6444   */\n      pop\n        /* \"#utility.yul\":5832:6451   */\n      swap3\n      pop\n      swap3\n      pop\n      swap3\n      jump\t// out\n        /* \"#utility.yul\":6457:6786   */\n    tag_93:\n        /* \"#utility.yul\":6516:6522   */\n      0x00\n        /* \"#utility.yul\":6565:6567   */\n      0x20\n        /* \"#utility.yul\":6553:6562   */\n      dup3\n        /* \"#utility.yul\":6544:6551   */\n      dup5\n        /* \"#utility.yul\":6540:6563   */\n      sub\n        /* \"#utility.yul\":6536:6568   */\n      slt\n        /* \"#utility.yul\":6533:6652   */\n      iszero\n      tag_549\n      jumpi\n        /* \"#utility.yul\":6571:6650   */\n      tag_550\n      tag_387\n      jump\t// in\n    tag_550:\n        /* \"#utility.yul\":6533:6652   */\n    tag_549:\n        /* \"#utility.yul\":6691:6692   */\n      0x00\n        /* \"#utility.yul\":6716:6769   */\n      tag_551\n        /* \"#utility.yul\":6761:6768   */\n      dup5\n        /* \"#utility.yul\":6752:6758   */\n      dup3\n        /* \"#utility.yul\":6741:6750   */\n      dup6\n        /* \"#utility.yul\":6737:6759   */\n      add\n        /* \"#utility.yul\":6716:6769   */\n      tag_406\n      jump\t// in\n    tag_551:\n        /* \"#utility.yul\":6706:6769   */\n      swap2\n      pop\n        /* \"#utility.yul\":6662:6779   */\n      pop\n        /* \"#utility.yul\":6457:6786   */\n      swap3\n      swap2\n      pop\n      pop\n      jump\t// out\n        /* \"#utility.yul\":6792:7260   */\n    tag_104:\n        /* \"#utility.yul\":6857:6863   */\n      0x00\n        /* \"#utility.yul\":6865:6871   */\n      dup1\n        /* \"#utility.yul\":6914:6916   */\n      0x40\n        /* \"#utility.yul\":6902:6911   */\n      dup4\n        /* \"#utility.yul\":6893:6900   */\n      dup6\n        /* \"#utility.yul\":6889:6912   */\n      sub\n        /* \"#utility.yul\":6885:6917   */\n      slt\n        /* \"#utility.yul\":6882:7001   */\n      iszero\n      tag_553\n      jumpi\n        /* \"#utility.yul\":6920:6999   */\n      tag_554\n      tag_387\n      jump\t// in\n    tag_554:\n        /* \"#utility.yul\":6882:7001   */\n    tag_553:\n        /* \"#utility.yul\":7040:7041   */\n      0x00\n        /* \"#utility.yul\":7065:7118   */\n      tag_555\n        /* \"#utility.yul\":7110:7117   */\n      dup6\n        /* \"#utility.yul\":7101:7107   */\n      dup3\n        /* \"#utility.yul\":7090:7099   */\n      dup7\n        /* \"#utility.yul\":7086:7108   */\n      add\n        /* \"#utility.yul\":7065:7118   */\n      tag_401\n      jump\t// in\n    tag_555:\n        /* \"#utility.yul\":7055:7118   */\n      swap3\n      pop\n        /* \"#utility.yul\":7011:7128   */\n      pop\n        /* \"#utility.yul\":7167:7169   */\n      0x20\n        /* \"#utility.yul\":7193:7243   */\n      tag_556\n        /* \"#utility.yul\":7235:7242   */\n      dup6\n        /* \"#utility.yul\":7226:7232   */\n      dup3\n        /* \"#utility.yul\":7215:7224   */\n      dup7\n        /* \"#utility.yul\":7211:7233   */\n      add\n        /* \"#utility.yul\":7193:7243   */\n      tag_409\n      jump\t// in\n    tag_556:\n        /* \"#utility.yul\":7183:7243   */\n      swap2\n      pop\n        /* \"#utility.yul\":7138:7253   */\n      pop\n        /* \"#utility.yul\":6792:7260   */\n      swap3\n      pop\n      swap3\n      swap1\n      pop\n      jump\t// out\n        /* \"#utility.yul\":7266:7734   */\n    tag_117:\n        /* \"#utility.yul\":7331:7337   */\n      0x00\n        /* \"#utility.yul\":7339:7345   */\n      dup1\n        /* \"#utility.yul\":7388:7390   */\n      0x40\n        /* \"#utility.yul\":7376:7385   */\n      dup4\n        /* \"#utility.yul\":7367:7374   */\n      dup6\n        /* \"#utility.yul\":7363:7386   */\n      sub\n        /* \"#utility.yul\":7359:7391   */\n      slt\n        /* \"#utility.yul\":7356:7475   */\n      iszero\n      tag_558\n      jumpi\n        /* \"#utility.yul\":7394:7473   */\n      tag_559\n      tag_387\n      jump\t// in\n    tag_559:\n        /* \"#utility.yul\":7356:7475   */\n    tag_558:\n        /* \"#utility.yul\":7514:7515   */\n      0x00\n        /* \"#utility.yul\":7539:7592   */\n      tag_560\n        /* \"#utility.yul\":7584:7591   */\n      dup6\n        /* \"#utility.yul\":7575:7581   */\n      dup3\n        /* \"#utility.yul\":7564:7573   */\n      dup7\n        /* \"#utility.yul\":7560:7582   */\n      add\n        /* \"#utility.yul\":7539:7592   */\n      tag_406\n      jump\t// in\n    tag_560:\n        /* \"#utility.yul\":7529:7592   */\n      swap3\n      pop\n        /* \"#utility.yul\":7485:7602   */\n      pop\n        /* \"#utility.yul\":7641:7643   */\n      0x20\n        /* \"#utility.yul\":7667:7717   */\n      tag_561\n        /* \"#utility.yul\":7709:7716   */\n      dup6\n        /* \"#utility.yul\":7700:7706   */\n      dup3\n        /* \"#utility.yul\":7689:7698   */\n      dup7\n        /* \"#utility.yul\":7685:7707   */\n      add\n        /* \"#utility.yul\":7667:7717   */\n      tag_409\n      jump\t// in\n    tag_561:\n        /* \"#utility.yul\":7657:7717   */\n      swap2\n      pop\n        /* \"#utility.yul\":7612:7727   */\n      pop\n        /* \"#utility.yul\":7266:7734   */\n      swap3\n      pop\n      swap3\n      swap1\n      pop\n      jump\t// out\n        /* \"#utility.yul\":7740:7857   */\n    tag_410:\n        /* \"#utility.yul\":7849:7850   */\n      0x00\n        /* \"#utility.yul\":7846:7847   */\n      dup1\n        /* \"#utility.yul\":7839:7851   */\n      revert\n        /* \"#utility.yul\":7863:7980   */\n    tag_411:\n        /* \"#utility.yul\":7972:7973   */\n      0x00\n        /* \"#utility.yul\":7969:7970   */\n      dup1\n        /* \"#utility.yul\":7962:7974   */\n      revert\n        /* \"#utility.yul\":7986:8103   */\n    tag_412:\n        /* \"#utility.yul\":8095:8096   */\n      0x00\n        /* \"#utility.yul\":8092:8093   */\n      dup1\n        /* \"#utility.yul\":8085:8097   */\n      revert\n        /* \"#utility.yul\":8122:8674   */\n    tag_413:\n        /* \"#utility.yul\":8179:8187   */\n      0x00\n        /* \"#utility.yul\":8189:8195   */\n      dup1\n        /* \"#utility.yul\":8239:8242   */\n      dup4\n        /* \"#utility.yul\":8232:8236   */\n      0x1f\n        /* \"#utility.yul\":8224:8230   */\n      dup5\n        /* \"#utility.yul\":8220:8237   */\n      add\n        /* \"#utility.yul\":8216:8243   */\n      slt\n        /* \"#utility.yul\":8206:8328   */\n      tag_566\n      jumpi\n        /* \"#utility.yul\":8247:8326   */\n      tag_567\n      tag_410\n      jump\t// in\n    tag_567:\n        /* \"#utility.yul\":8206:8328   */\n    tag_566:\n        /* \"#utility.yul\":8360:8366   */\n      dup3\n        /* \"#utility.yul\":8347:8367   */\n      calldataload\n        /* \"#utility.yul\":8337:8367   */\n      swap1\n      pop\n        /* \"#utility.yul\":8390:8408   */\n      0xffffffffffffffff\n        /* \"#utility.yul\":8382:8388   */\n      dup2\n        /* \"#utility.yul\":8379:8409   */\n      gt\n        /* \"#utility.yul\":8376:8493   */\n      iszero\n      tag_568\n      jumpi\n        /* \"#utility.yul\":8412:8491   */\n      tag_569\n      tag_411\n      jump\t// in\n    tag_569:\n        /* \"#utility.yul\":8376:8493   */\n    tag_568:\n        /* \"#utility.yul\":8526:8530   */\n      0x20\n        /* \"#utility.yul\":8518:8524   */\n      dup4\n        /* \"#utility.yul\":8514:8531   */\n      add\n        /* \"#utility.yul\":8502:8531   */\n      swap2\n      pop\n        /* \"#utility.yul\":8580:8583   */\n      dup4\n        /* \"#utility.yul\":8572:8576   */\n      0x01\n        /* \"#utility.yul\":8564:8570   */\n      dup3\n        /* \"#utility.yul\":8560:8577   */\n      mul\n        /* \"#utility.yul\":8550:8558   */\n      dup4\n        /* \"#utility.yul\":8546:8578   */\n      add\n        /* \"#utility.yul\":8543:8584   */\n      gt\n        /* \"#utility.yul\":8540:8668   */\n      iszero\n      tag_570\n      jumpi\n        /* \"#utility.yul\":8587:8666   */\n      tag_571\n      tag_412\n      jump\t// in\n    tag_571:\n        /* \"#utility.yul\":8540:8668   */\n    tag_570:\n        /* \"#utility.yul\":8122:8674   */\n      swap3\n      pop\n      swap3\n      swap1\n      pop\n      jump\t// out\n        /* \"#utility.yul\":8680:9643   */\n    tag_121:\n        /* \"#utility.yul\":8777:8783   */\n      0x00\n        /* \"#utility.yul\":8785:8791   */\n      dup1\n        /* \"#utility.yul\":8793:8799   */\n      0x00\n        /* \"#utility.yul\":8801:8807   */\n      dup1\n        /* \"#utility.yul\":8809:8815   */\n      0x00\n        /* \"#utility.yul\":8858:8861   */\n      0x80\n        /* \"#utility.yul\":8846:8855   */\n      dup7\n        /* \"#utility.yul\":8837:8844   */\n      dup9\n        /* \"#utility.yul\":8833:8856   */\n      sub\n        /* \"#utility.yul\":8829:8862   */\n      slt\n        /* \"#utility.yul\":8826:8946   */\n      iszero\n      tag_573\n      jumpi\n        /* \"#utility.yul\":8865:8944   */\n      tag_574\n      tag_387\n      jump\t// in\n    tag_574:\n        /* \"#utility.yul\":8826:8946   */\n    tag_573:\n        /* \"#utility.yul\":8985:8986   */\n      0x00\n        /* \"#utility.yul\":9010:9063   */\n      tag_575\n        /* \"#utility.yul\":9055:9062   */\n      dup9\n        /* \"#utility.yul\":9046:9052   */\n      dup3\n        /* \"#utility.yul\":9035:9044   */\n      dup10\n        /* \"#utility.yul\":9031:9053   */\n      add\n        /* \"#utility.yul\":9010:9063   */\n      tag_406\n      jump\t// in\n    tag_575:\n        /* \"#utility.yul\":9000:9063   */\n      swap6\n      pop\n        /* \"#utility.yul\":8956:9073   */\n      pop\n        /* \"#utility.yul\":9112:9114   */\n      0x20\n        /* \"#utility.yul\":9138:9191   */\n      tag_576\n        /* \"#utility.yul\":9183:9190   */\n      dup9\n        /* \"#utility.yul\":9174:9180   */\n      dup3\n        /* \"#utility.yul\":9163:9172   */\n      dup10\n        /* \"#utility.yul\":9159:9181   */\n      add\n        /* \"#utility.yul\":9138:9191   */\n      tag_406\n      jump\t// in\n    tag_576:\n        /* \"#utility.yul\":9128:9191   */\n      swap5\n      pop\n        /* \"#utility.yul\":9083:9201   */\n      pop\n        /* \"#utility.yul\":9240:9242   */\n      0x40\n        /* \"#utility.yul\":9266:9319   */\n      tag_577\n        /* \"#utility.yul\":9311:9318   */\n      dup9\n        /* \"#utility.yul\":9302:9308   */\n      dup3\n        /* \"#utility.yul\":9291:9300   */\n      dup10\n        /* \"#utility.yul\":9287:9309   */\n      add\n        /* \"#utility.yul\":9266:9319   */\n      tag_401\n      jump\t// in\n    tag_577:\n        /* \"#utility.yul\":9256:9319   */\n      swap4\n      pop\n        /* \"#utility.yul\":9211:9329   */\n      pop\n        /* \"#utility.yul\":9396:9398   */\n      0x60\n        /* \"#utility.yul\":9385:9394   */\n      dup7\n        /* \"#utility.yul\":9381:9399   */\n      add\n        /* \"#utility.yul\":9368:9400   */\n      calldataload\n        /* \"#utility.yul\":9427:9445   */\n      0xffffffffffffffff\n        /* \"#utility.yul\":9419:9425   */\n      dup2\n        /* \"#utility.yul\":9416:9446   */\n      gt\n        /* \"#utility.yul\":9413:9530   */\n      iszero\n      tag_578\n      jumpi\n        /* \"#utility.yul\":9449:9528   */\n      tag_579\n      tag_388\n      jump\t// in\n    tag_579:\n        /* \"#utility.yul\":9413:9530   */\n    tag_578:\n        /* \"#utility.yul\":9562:9626   */\n      tag_580\n        /* \"#utility.yul\":9618:9625   */\n      dup9\n        /* \"#utility.yul\":9609:9615   */\n      dup3\n        /* \"#utility.yul\":9598:9607   */\n      dup10\n        /* \"#utility.yul\":9594:9616   */\n      add\n        /* \"#utility.yul\":9562:9626   */\n      tag_413\n      jump\t// in\n    tag_580:\n        /* \"#utility.yul\":9544:9626   */\n      swap3\n      pop\n      swap3\n      pop\n        /* \"#utility.yul\":9339:9636   */\n      pop\n        /* \"#utility.yul\":8680:9643   */\n      swap3\n      swap6\n      pop\n      swap3\n      swap6\n      swap1\n      swap4\n      pop\n      jump\t// out\n        /* \"#utility.yul\":9649:9766   */\n    tag_414:\n        /* \"#utility.yul\":9758:9759   */\n      0x00\n        /* \"#utility.yul\":9755:9756   */\n      dup1\n        /* \"#utility.yul\":9748:9760   */\n      revert\n        /* \"#utility.yul\":9772:9952   */\n    tag_322:\n        /* \"#utility.yul\":9820:9897   */\n      0x4e487b7100000000000000000000000000000000000000000000000000000000\n        /* \"#utility.yul\":9817:9818   */\n      0x00\n        /* \"#utility.yul\":9810:9898   */\n      mstore\n        /* \"#utility.yul\":9917:9921   */\n      0x41\n        /* \"#utility.yul\":9914:9915   */\n      0x04\n        /* \"#utility.yul\":9907:9922   */\n      mstore\n        /* \"#utility.yul\":9941:9945   */\n      0x24\n        /* \"#utility.yul\":9938:9939   */\n      0x00\n        /* \"#utility.yul\":9931:9946   */\n      revert\n        /* \"#utility.yul\":9958:10239   */\n    tag_415:\n        /* \"#utility.yul\":10041:10068   */\n      tag_584\n        /* \"#utility.yul\":10063:10067   */\n      dup3\n        /* \"#utility.yul\":10041:10068   */\n      tag_397\n      jump\t// in\n    tag_584:\n        /* \"#utility.yul\":10033:10039   */\n      dup2\n        /* \"#utility.yul\":10029:10069   */\n      add\n        /* \"#utility.yul\":10171:10177   */\n      dup2\n        /* \"#utility.yul\":10159:10169   */\n      dup2\n        /* \"#utility.yul\":10156:10178   */\n      lt\n        /* \"#utility.yul\":10135:10153   */\n      0xffffffffffffffff\n        /* \"#utility.yul\":10123:10133   */\n      dup3\n        /* \"#utility.yul\":10120:10154   */\n      gt\n        /* \"#utility.yul\":10117:10179   */\n      or\n        /* \"#utility.yul\":10114:10202   */\n      iszero\n      tag_585\n      jumpi\n        /* \"#utility.yul\":10182:10200   */\n      tag_586\n      tag_322\n      jump\t// in\n    tag_586:\n        /* \"#utility.yul\":10114:10202   */\n    tag_585:\n        /* \"#utility.yul\":10222:10232   */\n      dup1\n        /* \"#utility.yul\":10218:10220   */\n      0x40\n        /* \"#utility.yul\":10211:10233   */\n      mstore\n        /* \"#utility.yul\":10001:10239   */\n      pop\n        /* \"#utility.yul\":9958:10239   */\n      pop\n      pop\n      jump\t// out\n        /* \"#utility.yul\":10245:10374   */\n    tag_416:\n        /* \"#utility.yul\":10279:10285   */\n      0x00\n        /* \"#utility.yul\":10306:10326   */\n      tag_588\n      tag_386\n      jump\t// in\n    tag_588:\n        /* \"#utility.yul\":10296:10326   */\n      swap1\n      pop\n        /* \"#utility.yul\":10335:10368   */\n      tag_589\n        /* \"#utility.yul\":10363:10367   */\n      dup3\n        /* \"#utility.yul\":10355:10361   */\n      dup3\n        /* \"#utility.yul\":10335:10368   */\n      tag_415\n      jump\t// in\n    tag_589:\n        /* \"#utility.yul\":10245:10374   */\n      swap2\n      swap1\n      pop\n      jump\t// out\n        /* \"#utility.yul\":10380:10688   */\n    tag_417:\n        /* \"#utility.yul\":10442:10446   */\n      0x00\n        /* \"#utility.yul\":10532:10550   */\n      0xffffffffffffffff\n        /* \"#utility.yul\":10524:10530   */\n      dup3\n        /* \"#utility.yul\":10521:10551   */\n      gt\n        /* \"#utility.yul\":10518:10574   */\n      iszero\n      tag_591\n      jumpi\n        /* \"#utility.yul\":10554:10572   */\n      tag_592\n      tag_322\n      jump\t// in\n    tag_592:\n        /* \"#utility.yul\":10518:10574   */\n    tag_591:\n        /* \"#utility.yul\":10592:10621   */\n      tag_593\n        /* \"#utility.yul\":10614:10620   */\n      dup3\n        /* \"#utility.yul\":10592:10621   */\n      tag_397\n      jump\t// in\n    tag_593:\n        /* \"#utility.yul\":10584:10621   */\n      swap1\n      pop\n        /* \"#utility.yul\":10676:10680   */\n      0x20\n        /* \"#utility.yul\":10670:10674   */\n      dup2\n        /* \"#utility.yul\":10666:10681   */\n      add\n        /* \"#utility.yul\":10658:10681   */\n      swap1\n      pop\n        /* \"#utility.yul\":10380:10688   */\n      swap2\n      swap1\n      pop\n      jump\t// out\n        /* \"#utility.yul\":10694:10840   */\n    tag_418:\n        /* \"#utility.yul\":10791:10797   */\n      dup3\n        /* \"#utility.yul\":10786:10789   */\n      dup2\n        /* \"#utility.yul\":10781:10784   */\n      dup4\n        /* \"#utility.yul\":10768:10798   */\n      calldatacopy\n        /* \"#utility.yul\":10832:10833   */\n      0x00\n        /* \"#utility.yul\":10823:10829   */\n      dup4\n        /* \"#utility.yul\":10818:10821   */\n      dup4\n        /* \"#utility.yul\":10814:10830   */\n      add\n        /* \"#utility.yul\":10807:10834   */\n      mstore\n        /* \"#utility.yul\":10694:10840   */\n      pop\n      pop\n      pop\n      jump\t// out\n        /* \"#utility.yul\":10846:11271   */\n    tag_419:\n        /* \"#utility.yul\":10924:10929   */\n      0x00\n        /* \"#utility.yul\":10949:11015   */\n      tag_596\n        /* \"#utility.yul\":10965:11014   */\n      tag_597\n        /* \"#utility.yul\":11007:11013   */\n      dup5\n        /* \"#utility.yul\":10965:11014   */\n      tag_417\n      jump\t// in\n    tag_597:\n        /* \"#utility.yul\":10949:11015   */\n      tag_416\n      jump\t// in\n    tag_596:\n        /* \"#utility.yul\":10940:11015   */\n      swap1\n      pop\n        /* \"#utility.yul\":11038:11044   */\n      dup3\n        /* \"#utility.yul\":11031:11036   */\n      dup2\n        /* \"#utility.yul\":11024:11045   */\n      mstore\n        /* \"#utility.yul\":11076:11080   */\n      0x20\n        /* \"#utility.yul\":11069:11074   */\n      dup2\n        /* \"#utility.yul\":11065:11081   */\n      add\n        /* \"#utility.yul\":11114:11117   */\n      dup5\n        /* \"#utility.yul\":11105:11111   */\n      dup5\n        /* \"#utility.yul\":11100:11103   */\n      dup5\n        /* \"#utility.yul\":11096:11112   */\n      add\n        /* \"#utility.yul\":11093:11118   */\n      gt\n        /* \"#utility.yul\":11090:11202   */\n      iszero\n      tag_598\n      jumpi\n        /* \"#utility.yul\":11121:11200   */\n      tag_599\n      tag_414\n      jump\t// in\n    tag_599:\n        /* \"#utility.yul\":11090:11202   */\n    tag_598:\n        /* \"#utility.yul\":11211:11265   */\n      tag_600\n        /* \"#utility.yul\":11258:11264   */\n      dup5\n        /* \"#utility.yul\":11253:11256   */\n      dup3\n        /* \"#utility.yul\":11248:11251   */\n      dup6\n        /* \"#utility.yul\":11211:11265   */\n      tag_418\n      jump\t// in\n    tag_600:\n        /* \"#utility.yul\":10930:11271   */\n      pop\n        /* \"#utility.yul\":10846:11271   */\n      swap4\n      swap3\n      pop\n      pop\n      pop\n      jump\t// out\n        /* \"#utility.yul\":11291:11631   */\n    tag_420:\n        /* \"#utility.yul\":11347:11352   */\n      0x00\n        /* \"#utility.yul\":11396:11399   */\n      dup3\n        /* \"#utility.yul\":11389:11393   */\n      0x1f\n        /* \"#utility.yul\":11381:11387   */\n      dup4\n        /* \"#utility.yul\":11377:11394   */\n      add\n        /* \"#utility.yul\":11373:11400   */\n      slt\n        /* \"#utility.yul\":11363:11485   */\n      tag_602\n      jumpi\n        /* \"#utility.yul\":11404:11483   */\n      tag_603\n      tag_410\n      jump\t// in\n    tag_603:\n        /* \"#utility.yul\":11363:11485   */\n    tag_602:\n        /* \"#utility.yul\":11521:11527   */\n      dup2\n        /* \"#utility.yul\":11508:11528   */\n      calldataload\n        /* \"#utility.yul\":11546:11625   */\n      tag_604\n        /* \"#utility.yul\":11621:11624   */\n      dup5\n        /* \"#utility.yul\":11613:11619   */\n      dup3\n        /* \"#utility.yul\":11606:11610   */\n      0x20\n        /* \"#utility.yul\":11598:11604   */\n      dup7\n        /* \"#utility.yul\":11594:11611   */\n      add\n        /* \"#utility.yul\":11546:11625   */\n      tag_419\n      jump\t// in\n    tag_604:\n        /* \"#utility.yul\":11537:11625   */\n      swap2\n      pop\n        /* \"#utility.yul\":11353:11631   */\n      pop\n        /* \"#utility.yul\":11291:11631   */\n      swap3\n      swap2\n      pop\n      pop\n      jump\t// out\n        /* \"#utility.yul\":11637:12146   */\n    tag_137:\n        /* \"#utility.yul\":11706:11712   */\n      0x00\n        /* \"#utility.yul\":11755:11757   */\n      0x20\n        /* \"#utility.yul\":11743:11752   */\n      dup3\n        /* \"#utility.yul\":11734:11741   */\n      dup5\n        /* \"#utility.yul\":11730:11753   */\n      sub\n        /* \"#utility.yul\":11726:11758   */\n      slt\n        /* \"#utility.yul\":11723:11842   */\n      iszero\n      tag_606\n      jumpi\n        /* \"#utility.yul\":11761:11840   */\n      tag_607\n      tag_387\n      jump\t// in\n    tag_607:\n        /* \"#utility.yul\":11723:11842   */\n    tag_606:\n        /* \"#utility.yul\":11909:11910   */\n      0x00\n        /* \"#utility.yul\":11898:11907   */\n      dup3\n        /* \"#utility.yul\":11894:11911   */\n      add\n        /* \"#utility.yul\":11881:11912   */\n      calldataload\n        /* \"#utility.yul\":11939:11957   */\n      0xffffffffffffffff\n        /* \"#utility.yul\":11931:11937   */\n      dup2\n        /* \"#utility.yul\":11928:11958   */\n      gt\n        /* \"#utility.yul\":11925:12042   */\n      iszero\n      tag_608\n      jumpi\n        /* \"#utility.yul\":11961:12040   */\n      tag_609\n      tag_388\n      jump\t// in\n    tag_609:\n        /* \"#utility.yul\":11925:12042   */\n    tag_608:\n        /* \"#utility.yul\":12066:12129   */\n      tag_610\n        /* \"#utility.yul\":12121:12128   */\n      dup5\n        /* \"#utility.yul\":12112:12118   */\n      dup3\n        /* \"#utility.yul\":12101:12110   */\n      dup6\n        /* \"#utility.yul\":12097:12119   */\n      add\n        /* \"#utility.yul\":12066:12129   */\n      tag_420\n      jump\t// in\n    tag_610:\n        /* \"#utility.yul\":12056:12129   */\n      swap2\n      pop\n        /* \"#utility.yul\":11852:12139   */\n      pop\n        /* \"#utility.yul\":11637:12146   */\n      swap3\n      swap2\n      pop\n      pop\n      jump\t// out\n        /* \"#utility.yul\":12152:12626   */\n    tag_145:\n        /* \"#utility.yul\":12220:12226   */\n      0x00\n        /* \"#utility.yul\":12228:12234   */\n      dup1\n        /* \"#utility.yul\":12277:12279   */\n      0x40\n        /* \"#utility.yul\":12265:12274   */\n      dup4\n        /* \"#utility.yul\":12256:12263   */\n      dup6\n        /* \"#utility.yul\":12252:12275   */\n      sub\n        /* \"#utility.yul\":12248:12280   */\n      slt\n        /* \"#utility.yul\":12245:12364   */\n      iszero\n      tag_612\n      jumpi\n        /* \"#utility.yul\":12283:12362   */\n      tag_613\n      tag_387\n      jump\t// in\n    tag_613:\n        /* \"#utility.yul\":12245:12364   */\n    tag_612:\n        /* \"#utility.yul\":12403:12404   */\n      0x00\n        /* \"#utility.yul\":12428:12481   */\n      tag_614\n        /* \"#utility.yul\":12473:12480   */\n      dup6\n        /* \"#utility.yul\":12464:12470   */\n      dup3\n        /* \"#utility.yul\":12453:12462   */\n      dup7\n        /* \"#utility.yul\":12449:12471   */\n      add\n        /* \"#utility.yul\":12428:12481   */\n      tag_406\n      jump\t// in\n    tag_614:\n        /* \"#utility.yul\":12418:12481   */\n      swap3\n      pop\n        /* \"#utility.yul\":12374:12491   */\n      pop\n        /* \"#utility.yul\":12530:12532   */\n      0x20\n        /* \"#utility.yul\":12556:12609   */\n      tag_615\n        /* \"#utility.yul\":12601:12608   */\n      dup6\n        /* \"#utility.yul\":12592:12598   */\n      dup3\n        /* \"#utility.yul\":12581:12590   */\n      dup7\n        /* \"#utility.yul\":12577:12599   */\n      add\n        /* \"#utility.yul\":12556:12609   */\n      tag_406\n      jump\t// in\n    tag_615:\n        /* \"#utility.yul\":12546:12609   */\n      swap2\n      pop\n        /* \"#utility.yul\":12501:12619   */\n      pop\n        /* \"#utility.yul\":12152:12626   */\n      swap3\n      pop\n      swap3\n      swap1\n      pop\n      jump\t// out\n        /* \"#utility.yul\":12632:12793   */\n    tag_421:\n        /* \"#utility.yul\":12772:12785   */\n      0x676574417070726f766564000000000000000000000000000000000000000000\n        /* \"#utility.yul\":12768:12769   */\n      0x00\n        /* \"#utility.yul\":12760:12766   */\n      dup3\n        /* \"#utility.yul\":12756:12770   */\n      add\n        /* \"#utility.yul\":12749:12786   */\n      mstore\n        /* \"#utility.yul\":12632:12793   */\n      pop\n      jump\t// out\n        /* \"#utility.yul\":12799:13165   */\n    tag_422:\n        /* \"#utility.yul\":12941:12944   */\n      0x00\n        /* \"#utility.yul\":12962:13029   */\n      tag_618\n        /* \"#utility.yul\":13026:13028   */\n      0x0b\n        /* \"#utility.yul\":13021:13024   */\n      dup4\n        /* \"#utility.yul\":12962:13029   */\n      tag_395\n      jump\t// in\n    tag_618:\n        /* \"#utility.yul\":12955:13029   */\n      swap2\n      pop\n        /* \"#utility.yul\":13038:13131   */\n      tag_619\n        /* \"#utility.yul\":13127:13130   */\n      dup3\n        /* \"#utility.yul\":13038:13131   */\n      tag_421\n      jump\t// in\n    tag_619:\n        /* \"#utility.yul\":13156:13158   */\n      0x20\n        /* \"#utility.yul\":13151:13154   */\n      dup3\n        /* \"#utility.yul\":13147:13159   */\n      add\n        /* \"#utility.yul\":13140:13159   */\n      swap1\n      pop\n        /* \"#utility.yul\":12799:13165   */\n      swap2\n      swap1\n      pop\n      jump\t// out\n        /* \"#utility.yul\":13171:13590   */\n    tag_162:\n        /* \"#utility.yul\":13337:13341   */\n      0x00\n        /* \"#utility.yul\":13375:13377   */\n      0x20\n        /* \"#utility.yul\":13364:13373   */\n      dup3\n        /* \"#utility.yul\":13360:13378   */\n      add\n        /* \"#utility.yul\":13352:13378   */\n      swap1\n      pop\n        /* \"#utility.yul\":13424:13433   */\n      dup2\n        /* \"#utility.yul\":13418:13422   */\n      dup2\n        /* \"#utility.yul\":13414:13434   */\n      sub\n        /* \"#utility.yul\":13410:13411   */\n      0x00\n        /* \"#utility.yul\":13399:13408   */\n      dup4\n        /* \"#utility.yul\":13395:13412   */\n      add\n        /* \"#utility.yul\":13388:13435   */\n      mstore\n        /* \"#utility.yul\":13452:13583   */\n      tag_621\n        /* \"#utility.yul\":13578:13582   */\n      dup2\n        /* \"#utility.yul\":13452:13583   */\n      tag_422\n      jump\t// in\n    tag_621:\n        /* \"#utility.yul\":13444:13583   */\n      swap1\n      pop\n        /* \"#utility.yul\":13171:13590   */\n      swap2\n      swap1\n      pop\n      jump\t// out\n        /* \"#utility.yul\":13596:13753   */\n    tag_423:\n        /* \"#utility.yul\":13736:13745   */\n      0x617070726f766500000000000000000000000000000000000000000000000000\n        /* \"#utility.yul\":13732:13733   */\n      0x00\n        /* \"#utility.yul\":13724:13730   */\n      dup3\n        /* \"#utility.yul\":13720:13734   */\n      add\n        /* \"#utility.yul\":13713:13746   */\n      mstore\n        /* \"#utility.yul\":13596:13753   */\n      pop\n      jump\t// out\n        /* \"#utility.yul\":13759:14124   */\n    tag_424:\n        /* \"#utility.yul\":13901:13904   */\n      0x00\n        /* \"#utility.yul\":13922:13988   */\n      tag_624\n        /* \"#utility.yul\":13986:13987   */\n      0x07\n        /* \"#utility.yul\":13981:13984   */\n      dup4\n        /* \"#utility.yul\":13922:13988   */\n      tag_395\n      jump\t// in\n    tag_624:\n        /* \"#utility.yul\":13915:13988   */\n      swap2\n      pop\n        /* \"#utility.yul\":13997:14090   */\n      tag_625\n        /* \"#utility.yul\":14086:14089   */\n      dup3\n        /* \"#utility.yul\":13997:14090   */\n      tag_423\n      jump\t// in\n    tag_625:\n        /* \"#utility.yul\":14115:14117   */\n      0x20\n        /* \"#utility.yul\":14110:14113   */\n      dup3\n        /* \"#utility.yul\":14106:14118   */\n      add\n        /* \"#utility.yul\":14099:14118   */\n      swap1\n      pop\n        /* \"#utility.yul\":13759:14124   */\n      swap2\n      swap1\n      pop\n      jump\t// out\n        /* \"#utility.yul\":14130:14549   */\n    tag_165:\n        /* \"#utility.yul\":14296:14300   */\n      0x00\n        /* \"#utility.yul\":14334:14336   */\n      0x20\n        /* \"#utility.yul\":14323:14332   */\n      dup3\n        /* \"#utility.yul\":14319:14337   */\n      add\n        /* \"#utility.yul\":14311:14337   */\n      swap1\n      pop\n        /* \"#utility.yul\":14383:14392   */\n      dup2\n        /* \"#utility.yul\":14377:14381   */\n      dup2\n        /* \"#utility.yul\":14373:14393   */\n      sub\n        /* \"#utility.yul\":14369:14370   */\n      0x00\n        /* \"#utility.yul\":14358:14367   */\n      dup4\n        /* \"#utility.yul\":14354:14371   */\n      add\n        /* \"#utility.yul\":14347:14394   */\n      mstore\n        /* \"#utility.yul\":14411:14542   */\n      tag_627\n        /* \"#utility.yul\":14537:14541   */\n      dup2\n        /* \"#utility.yul\":14411:14542   */\n      tag_424\n      jump\t// in\n    tag_627:\n        /* \"#utility.yul\":14403:14542   */\n      swap1\n      pop\n        /* \"#utility.yul\":14130:14549   */\n      swap2\n      swap1\n      pop\n      jump\t// out\n        /* \"#utility.yul\":14555:14717   */\n    tag_425:\n        /* \"#utility.yul\":14695:14709   */\n      0x7472616e7366657246726f6d0000000000000000000000000000000000000000\n        /* \"#utility.yul\":14691:14692   */\n      0x00\n        /* \"#utility.yul\":14683:14689   */\n      dup3\n        /* \"#utility.yul\":14679:14693   */\n      add\n        /* \"#utility.yul\":14672:14710   */\n      mstore\n        /* \"#utility.yul\":14555:14717   */\n      pop\n      jump\t// out\n        /* \"#utility.yul\":14723:15089   */\n    tag_426:\n        /* \"#utility.yul\":14865:14868   */\n      0x00\n        /* \"#utility.yul\":14886:14953   */\n      tag_630\n        /* \"#utility.yul\":14950:14952   */\n      0x0c\n        /* \"#utility.yul\":14945:14948   */\n      dup4\n        /* \"#utility.yul\":14886:14953   */\n      tag_395\n      jump\t// in\n    tag_630:\n        /* \"#utility.yul\":14879:14953   */\n      swap2\n      pop\n        /* \"#utility.yul\":14962:15055   */\n      tag_631\n        /* \"#utility.yul\":15051:15054   */\n      dup3\n        /* \"#utility.yul\":14962:15055   */\n      tag_425\n      jump\t// in\n    tag_631:\n        /* \"#utility.yul\":15080:15082   */\n      0x20\n        /* \"#utility.yul\":15075:15078   */\n      dup3\n        /* \"#utility.yul\":15071:15083   */\n      add\n        /* \"#utility.yul\":15064:15083   */\n      swap1\n      pop\n        /* \"#utility.yul\":14723:15089   */\n      swap2\n      swap1\n      pop\n      jump\t// out\n        /* \"#utility.yul\":15095:15514   */\n    tag_176:\n        /* \"#utility.yul\":15261:15265   */\n      0x00\n        /* \"#utility.yul\":15299:15301   */\n      0x20\n        /* \"#utility.yul\":15288:15297   */\n      dup3\n        /* \"#utility.yul\":15284:15302   */\n      add\n        /* \"#utility.yul\":15276:15302   */\n      swap1\n      pop\n        /* \"#utility.yul\":15348:15357   */\n      dup2\n        /* \"#utility.yul\":15342:15346   */\n      dup2\n        /* \"#utility.yul\":15338:15358   */\n      sub\n        /* \"#utility.yul\":15334:15335   */\n      0x00\n        /* \"#utility.yul\":15323:15332   */\n      dup4\n        /* \"#utility.yul\":15319:15336   */\n      add\n        /* \"#utility.yul\":15312:15359   */\n      mstore\n        /* \"#utility.yul\":15376:15507   */\n      tag_633\n        /* \"#utility.yul\":15502:15506   */\n      dup2\n        /* \"#utility.yul\":15376:15507   */\n      tag_426\n      jump\t// in\n    tag_633:\n        /* \"#utility.yul\":15368:15507   */\n      swap1\n      pop\n        /* \"#utility.yul\":15095:15514   */\n      swap2\n      swap1\n      pop\n      jump\t// out\n        /* \"#utility.yul\":15520:15682   */\n    tag_427:\n        /* \"#utility.yul\":15660:15674   */\n      0x4f7574206f6620496e6465780000000000000000000000000000000000000000\n        /* \"#utility.yul\":15656:15657   */\n      0x00\n        /* \"#utility.yul\":15648:15654   */\n      dup3\n        /* \"#utility.yul\":15644:15658   */\n      add\n        /* \"#utility.yul\":15637:15675   */\n      mstore\n        /* \"#utility.yul\":15520:15682   */\n      pop\n      jump\t// out\n        /* \"#utility.yul\":15688:16054   */\n    tag_428:\n        /* \"#utility.yul\":15830:15833   */\n      0x00\n        /* \"#utility.yul\":15851:15918   */\n      tag_636\n        /* \"#utility.yul\":15915:15917   */\n      0x0c\n        /* \"#utility.yul\":15910:15913   */\n      dup4\n        /* \"#utility.yul\":15851:15918   */\n      tag_395\n      jump\t// in\n    tag_636:\n        /* \"#utility.yul\":15844:15918   */\n      swap2\n      pop\n        /* \"#utility.yul\":15927:16020   */\n      tag_637\n        /* \"#utility.yul\":16016:16019   */\n      dup3\n        /* \"#utility.yul\":15927:16020   */\n      tag_427\n      jump\t// in\n    tag_637:\n        /* \"#utility.yul\":16045:16047   */\n      0x20\n        /* \"#utility.yul\":16040:16043   */\n      dup3\n        /* \"#utility.yul\":16036:16048   */\n      add\n        /* \"#utility.yul\":16029:16048   */\n      swap1\n      pop\n        /* \"#utility.yul\":15688:16054   */\n      swap2\n      swap1\n      pop\n      jump\t// out\n        /* \"#utility.yul\":16060:16479   */\n    tag_183:\n        /* \"#utility.yul\":16226:16230   */\n      0x00\n        /* \"#utility.yul\":16264:16266   */\n      0x20\n        /* \"#utility.yul\":16253:16262   */\n      dup3\n        /* \"#utility.yul\":16249:16267   */\n      add\n        /* \"#utility.yul\":16241:16267   */\n      swap1\n      pop\n        /* \"#utility.yul\":16313:16322   */\n      dup2\n        /* \"#utility.yul\":16307:16311   */\n      dup2\n        /* \"#utility.yul\":16303:16323   */\n      sub\n        /* \"#utility.yul\":16299:16300   */\n      0x00\n        /* \"#utility.yul\":16288:16297   */\n      dup4\n        /* \"#utility.yul\":16284:16301   */\n      add\n        /* \"#utility.yul\":16277:16324   */\n      mstore\n        /* \"#utility.yul\":16341:16472   */\n      tag_639\n        /* \"#utility.yul\":16467:16471   */\n      dup2\n        /* \"#utility.yul\":16341:16472   */\n      tag_428\n      jump\t// in\n    tag_639:\n        /* \"#utility.yul\":16333:16472   */\n      swap1\n      pop\n        /* \"#utility.yul\":16060:16479   */\n      swap2\n      swap1\n      pop\n      jump\t// out\n        /* \"#utility.yul\":16485:16651   */\n    tag_429:\n        /* \"#utility.yul\":16625:16643   */\n      0x736166655472616e7366657246726f6d00000000000000000000000000000000\n        /* \"#utility.yul\":16621:16622   */\n      0x00\n        /* \"#utility.yul\":16613:16619   */\n      dup3\n        /* \"#utility.yul\":16609:16623   */\n      add\n        /* \"#utility.yul\":16602:16644   */\n      mstore\n        /* \"#utility.yul\":16485:16651   */\n      pop\n      jump\t// out\n        /* \"#utility.yul\":16657:17023   */\n    tag_430:\n        /* \"#utility.yul\":16799:16802   */\n      0x00\n        /* \"#utility.yul\":16820:16887   */\n      tag_642\n        /* \"#utility.yul\":16884:16886   */\n      0x10\n        /* \"#utility.yul\":16879:16882   */\n      dup4\n        /* \"#utility.yul\":16820:16887   */\n      tag_395\n      jump\t// in\n    tag_642:\n        /* \"#utility.yul\":16813:16887   */\n      swap2\n      pop\n        /* \"#utility.yul\":16896:16989   */\n      tag_643\n        /* \"#utility.yul\":16985:16988   */\n      dup3\n        /* \"#utility.yul\":16896:16989   */\n      tag_429\n      jump\t// in\n    tag_643:\n        /* \"#utility.yul\":17014:17016   */\n      0x20\n        /* \"#utility.yul\":17009:17012   */\n      dup3\n        /* \"#utility.yul\":17005:17017   */\n      add\n        /* \"#utility.yul\":16998:17017   */\n      swap1\n      pop\n        /* \"#utility.yul\":16657:17023   */\n      swap2\n      swap1\n      pop\n      jump\t// out\n        /* \"#utility.yul\":17029:17448   */\n    tag_194:\n        /* \"#utility.yul\":17195:17199   */\n      0x00\n        /* \"#utility.yul\":17233:17235   */\n      0x20\n        /* \"#utility.yul\":17222:17231   */\n      dup3\n        /* \"#utility.yul\":17218:17236   */\n      add\n        /* \"#utility.yul\":17210:17236   */\n      swap1\n      pop\n        /* \"#utility.yul\":17282:17291   */\n      dup2\n        /* \"#utility.yul\":17276:17280   */\n      dup2\n        /* \"#utility.yul\":17272:17292   */\n      sub\n        /* \"#utility.yul\":17268:17269   */\n      0x00\n        /* \"#utility.yul\":17257:17266   */\n      dup4\n        /* \"#utility.yul\":17253:17270   */\n      add\n        /* \"#utility.yul\":17246:17293   */\n      mstore\n        /* \"#utility.yul\":17310:17441   */\n      tag_645\n        /* \"#utility.yul\":17436:17440   */\n      dup2\n        /* \"#utility.yul\":17310:17441   */\n      tag_430\n      jump\t// in\n    tag_645:\n        /* \"#utility.yul\":17302:17441   */\n      swap1\n      pop\n        /* \"#utility.yul\":17029:17448   */\n      swap2\n      swap1\n      pop\n      jump\t// out\n        /* \"#utility.yul\":17454:17786   */\n    tag_225:\n        /* \"#utility.yul\":17575:17579   */\n      0x00\n        /* \"#utility.yul\":17613:17615   */\n      0x40\n        /* \"#utility.yul\":17602:17611   */\n      dup3\n        /* \"#utility.yul\":17598:17616   */\n      add\n        /* \"#utility.yul\":17590:17616   */\n      swap1\n      pop\n        /* \"#utility.yul\":17626:17697   */\n      tag_647\n        /* \"#utility.yul\":17694:17695   */\n      0x00\n        /* \"#utility.yul\":17683:17692   */\n      dup4\n        /* \"#utility.yul\":17679:17696   */\n      add\n        /* \"#utility.yul\":17670:17676   */\n      dup6\n        /* \"#utility.yul\":17626:17697   */\n      tag_404\n      jump\t// in\n    tag_647:\n        /* \"#utility.yul\":17707:17779   */\n      tag_648\n        /* \"#utility.yul\":17775:17777   */\n      0x20\n        /* \"#utility.yul\":17764:17773   */\n      dup4\n        /* \"#utility.yul\":17760:17778   */\n      add\n        /* \"#utility.yul\":17751:17757   */\n      dup5\n        /* \"#utility.yul\":17707:17779   */\n      tag_407\n      jump\t// in\n    tag_648:\n        /* \"#utility.yul\":17454:17786   */\n      swap4\n      swap3\n      pop\n      pop\n      pop\n      jump\t// out\n        /* \"#utility.yul\":17792:17959   */\n    tag_431:\n        /* \"#utility.yul\":17932:17951   */\n      0x736574417070726f76616c466f72416c6c000000000000000000000000000000\n        /* \"#utility.yul\":17928:17929   */\n      0x00\n        /* \"#utility.yul\":17920:17926   */\n      dup3\n        /* \"#utility.yul\":17916:17930   */\n      add\n        /* \"#utility.yul\":17909:17952   */\n      mstore\n        /* \"#utility.yul\":17792:17959   */\n      pop\n      jump\t// out\n        /* \"#utility.yul\":17965:18331   */\n    tag_432:\n        /* \"#utility.yul\":18107:18110   */\n      0x00\n        /* \"#utility.yul\":18128:18195   */\n      tag_651\n        /* \"#utility.yul\":18192:18194   */\n      0x11\n        /* \"#utility.yul\":18187:18190   */\n      dup4\n        /* \"#utility.yul\":18128:18195   */\n      tag_395\n      jump\t// in\n    tag_651:\n        /* \"#utility.yul\":18121:18195   */\n      swap2\n      pop\n        /* \"#utility.yul\":18204:18297   */\n      tag_652\n        /* \"#utility.yul\":18293:18296   */\n      dup3\n        /* \"#utility.yul\":18204:18297   */\n      tag_431\n      jump\t// in\n    tag_652:\n        /* \"#utility.yul\":18322:18324   */\n      0x20\n        /* \"#utility.yul\":18317:18320   */\n      dup3\n        /* \"#utility.yul\":18313:18325   */\n      add\n        /* \"#utility.yul\":18306:18325   */\n      swap1\n      pop\n        /* \"#utility.yul\":17965:18331   */\n      swap2\n      swap1\n      pop\n      jump\t// out\n        /* \"#utility.yul\":18337:18756   */\n    tag_230:\n        /* \"#utility.yul\":18503:18507   */\n      0x00\n        /* \"#utility.yul\":18541:18543   */\n      0x20\n        /* \"#utility.yul\":18530:18539   */\n      dup3\n        /* \"#utility.yul\":18526:18544   */\n      add\n        /* \"#utility.yul\":18518:18544   */\n      swap1\n      pop\n        /* \"#utility.yul\":18590:18599   */\n      dup2\n        /* \"#utility.yul\":18584:18588   */\n      dup2\n        /* \"#utility.yul\":18580:18600   */\n      sub\n        /* \"#utility.yul\":18576:18577   */\n      0x00\n        /* \"#utility.yul\":18565:18574   */\n      dup4\n        /* \"#utility.yul\":18561:18578   */\n      add\n        /* \"#utility.yul\":18554:18601   */\n      mstore\n        /* \"#utility.yul\":18618:18749   */\n      tag_654\n        /* \"#utility.yul\":18744:18748   */\n      dup2\n        /* \"#utility.yul\":18618:18749   */\n      tag_432\n      jump\t// in\n    tag_654:\n        /* \"#utility.yul\":18610:18749   */\n      swap1\n      pop\n        /* \"#utility.yul\":18337:18756   */\n      swap2\n      swap1\n      pop\n      jump\t// out\n        /* \"#utility.yul\":18762:18942   */\n    tag_433:\n        /* \"#utility.yul\":18810:18887   */\n      0x4e487b7100000000000000000000000000000000000000000000000000000000\n        /* \"#utility.yul\":18807:18808   */\n      0x00\n        /* \"#utility.yul\":18800:18888   */\n      mstore\n        /* \"#utility.yul\":18907:18911   */\n      0x22\n        /* \"#utility.yul\":18904:18905   */\n      0x04\n        /* \"#utility.yul\":18897:18912   */\n      mstore\n        /* \"#utility.yul\":18931:18935   */\n      0x24\n        /* \"#utility.yul\":18928:18929   */\n      0x00\n        /* \"#utility.yul\":18921:18936   */\n      revert\n        /* \"#utility.yul\":18948:19268   */\n    tag_244:\n        /* \"#utility.yul\":18992:18998   */\n      0x00\n        /* \"#utility.yul\":19029:19030   */\n      0x02\n        /* \"#utility.yul\":19023:19027   */\n      dup3\n        /* \"#utility.yul\":19019:19031   */\n      div\n        /* \"#utility.yul\":19009:19031   */\n      swap1\n      pop\n        /* \"#utility.yul\":19076:19077   */\n      0x01\n        /* \"#utility.yul\":19070:19074   */\n      dup3\n        /* \"#utility.yul\":19066:19078   */\n      and\n        /* \"#utility.yul\":19097:19115   */\n      dup1\n        /* \"#utility.yul\":19087:19168   */\n      tag_657\n      jumpi\n        /* \"#utility.yul\":19153:19157   */\n      0x7f\n        /* \"#utility.yul\":19145:19151   */\n      dup3\n        /* \"#utility.yul\":19141:19158   */\n      and\n        /* \"#utility.yul\":19131:19158   */\n      swap2\n      pop\n        /* \"#utility.yul\":19087:19168   */\n    tag_657:\n        /* \"#utility.yul\":19215:19217   */\n      0x20\n        /* \"#utility.yul\":19207:19213   */\n      dup3\n        /* \"#utility.yul\":19204:19218   */\n      lt\n        /* \"#utility.yul\":19184:19202   */\n      dup2\n        /* \"#utility.yul\":19181:19219   */\n      sub\n        /* \"#utility.yul\":19178:19262   */\n      tag_658\n      jumpi\n        /* \"#utility.yul\":19234:19252   */\n      tag_659\n      tag_433\n      jump\t// in\n    tag_659:\n        /* \"#utility.yul\":19178:19262   */\n    tag_658:\n        /* \"#utility.yul\":18999:19268   */\n      pop\n        /* \"#utility.yul\":18948:19268   */\n      swap2\n      swap1\n      pop\n      jump\t// out\n        /* \"#utility.yul\":19274:19422   */\n    tag_434:\n        /* \"#utility.yul\":19376:19387   */\n      0x00\n        /* \"#utility.yul\":19413:19416   */\n      dup2\n        /* \"#utility.yul\":19398:19416   */\n      swap1\n      pop\n        /* \"#utility.yul\":19274:19422   */\n      swap3\n      swap2\n      pop\n      pop\n      jump\t// out\n        /* \"#utility.yul\":19428:19569   */\n    tag_435:\n        /* \"#utility.yul\":19477:19481   */\n      0x00\n        /* \"#utility.yul\":19500:19503   */\n      dup2\n        /* \"#utility.yul\":19492:19503   */\n      swap1\n      pop\n        /* \"#utility.yul\":19523:19526   */\n      dup2\n        /* \"#utility.yul\":19520:19521   */\n      0x00\n        /* \"#utility.yul\":19513:19527   */\n      mstore\n        /* \"#utility.yul\":19557:19561   */\n      0x20\n        /* \"#utility.yul\":19554:19555   */\n      0x00\n        /* \"#utility.yul\":19544:19562   */\n      keccak256\n        /* \"#utility.yul\":19536:19562   */\n      swap1\n      pop\n        /* \"#utility.yul\":19428:19569   */\n      swap2\n      swap1\n      pop\n      jump\t// out\n        /* \"#utility.yul\":19599:20473   */\n    tag_436:\n        /* \"#utility.yul\":19702:19705   */\n      0x00\n        /* \"#utility.yul\":19739:19744   */\n      dup2\n        /* \"#utility.yul\":19733:19745   */\n      sload\n        /* \"#utility.yul\":19768:19804   */\n      tag_663\n        /* \"#utility.yul\":19794:19803   */\n      dup2\n        /* \"#utility.yul\":19768:19804   */\n      tag_244\n      jump\t// in\n    tag_663:\n        /* \"#utility.yul\":19820:19909   */\n      tag_664\n        /* \"#utility.yul\":19902:19908   */\n      dup2\n        /* \"#utility.yul\":19897:19900   */\n      dup7\n        /* \"#utility.yul\":19820:19909   */\n      tag_434\n      jump\t// in\n    tag_664:\n        /* \"#utility.yul\":19813:19909   */\n      swap5\n      pop\n        /* \"#utility.yul\":19940:19941   */\n      0x01\n        /* \"#utility.yul\":19929:19938   */\n      dup3\n        /* \"#utility.yul\":19925:19942   */\n      and\n        /* \"#utility.yul\":19956:19957   */\n      0x00\n        /* \"#utility.yul\":19951:20117   */\n      dup2\n      eq\n      tag_666\n      jumpi\n        /* \"#utility.yul\":20131:20132   */\n      0x01\n        /* \"#utility.yul\":20126:20467   */\n      dup2\n      eq\n      tag_667\n      jumpi\n        /* \"#utility.yul\":19918:20467   */\n      jump(tag_665)\n        /* \"#utility.yul\":19951:20117   */\n    tag_666:\n        /* \"#utility.yul\":20035:20039   */\n      0xff\n        /* \"#utility.yul\":20031:20040   */\n      not\n        /* \"#utility.yul\":20020:20029   */\n      dup4\n        /* \"#utility.yul\":20016:20041   */\n      and\n        /* \"#utility.yul\":20011:20014   */\n      dup7\n        /* \"#utility.yul\":20004:20042   */\n      mstore\n        /* \"#utility.yul\":20097:20103   */\n      dup2\n        /* \"#utility.yul\":20090:20104   */\n      iszero\n        /* \"#utility.yul\":20083:20105   */\n      iszero\n        /* \"#utility.yul\":20075:20081   */\n      dup3\n        /* \"#utility.yul\":20071:20106   */\n      mul\n        /* \"#utility.yul\":20066:20069   */\n      dup7\n        /* \"#utility.yul\":20062:20107   */\n      add\n        /* \"#utility.yul\":20055:20107   */\n      swap4\n      pop\n        /* \"#utility.yul\":19951:20117   */\n      jump(tag_665)\n        /* \"#utility.yul\":20126:20467   */\n    tag_667:\n        /* \"#utility.yul\":20193:20231   */\n      tag_668\n        /* \"#utility.yul\":20225:20230   */\n      dup6\n        /* \"#utility.yul\":20193:20231   */\n      tag_435\n      jump\t// in\n    tag_668:\n        /* \"#utility.yul\":20253:20254   */\n      0x00\n        /* \"#utility.yul\":20267:20421   */\n    tag_669:\n        /* \"#utility.yul\":20281:20287   */\n      dup4\n        /* \"#utility.yul\":20278:20279   */\n      dup2\n        /* \"#utility.yul\":20275:20288   */\n      lt\n        /* \"#utility.yul\":20267:20421   */\n      iszero\n      tag_671\n      jumpi\n        /* \"#utility.yul\":20355:20362   */\n      dup2\n        /* \"#utility.yul\":20349:20363   */\n      sload\n        /* \"#utility.yul\":20345:20346   */\n      dup2\n        /* \"#utility.yul\":20340:20343   */\n      dup10\n        /* \"#utility.yul\":20336:20347   */\n      add\n        /* \"#utility.yul\":20329:20364   */\n      mstore\n        /* \"#utility.yul\":20405:20406   */\n      0x01\n        /* \"#utility.yul\":20396:20403   */\n      dup3\n        /* \"#utility.yul\":20392:20407   */\n      add\n        /* \"#utility.yul\":20381:20407   */\n      swap2\n      pop\n        /* \"#utility.yul\":20303:20307   */\n      0x20\n        /* \"#utility.yul\":20300:20301   */\n      dup2\n        /* \"#utility.yul\":20296:20308   */\n      add\n        /* \"#utility.yul\":20291:20308   */\n      swap1\n      pop\n        /* \"#utility.yul\":20267:20421   */\n      jump(tag_669)\n    tag_671:\n        /* \"#utility.yul\":20450:20456   */\n      dup4\n        /* \"#utility.yul\":20445:20448   */\n      dup9\n        /* \"#utility.yul\":20441:20457   */\n      add\n        /* \"#utility.yul\":20434:20457   */\n      swap6\n      pop\n        /* \"#utility.yul\":20133:20467   */\n      pop\n      pop\n        /* \"#utility.yul\":19918:20467   */\n    tag_665:\n      pop\n        /* \"#utility.yul\":19706:20473   */\n      pop\n      pop\n        /* \"#utility.yul\":19599:20473   */\n      swap3\n      swap2\n      pop\n      pop\n      jump\t// out\n        /* \"#utility.yul\":20479:20869   */\n    tag_437:\n        /* \"#utility.yul\":20585:20588   */\n      0x00\n        /* \"#utility.yul\":20613:20652   */\n      tag_673\n        /* \"#utility.yul\":20646:20651   */\n      dup3\n        /* \"#utility.yul\":20613:20652   */\n      tag_394\n      jump\t// in\n    tag_673:\n        /* \"#utility.yul\":20668:20757   */\n      tag_674\n        /* \"#utility.yul\":20750:20756   */\n      dup2\n        /* \"#utility.yul\":20745:20748   */\n      dup6\n        /* \"#utility.yul\":20668:20757   */\n      tag_434\n      jump\t// in\n    tag_674:\n        /* \"#utility.yul\":20661:20757   */\n      swap4\n      pop\n        /* \"#utility.yul\":20766:20831   */\n      tag_675\n        /* \"#utility.yul\":20824:20830   */\n      dup2\n        /* \"#utility.yul\":20819:20822   */\n      dup6\n        /* \"#utility.yul\":20812:20816   */\n      0x20\n        /* \"#utility.yul\":20805:20810   */\n      dup7\n        /* \"#utility.yul\":20801:20817   */\n      add\n        /* \"#utility.yul\":20766:20831   */\n      tag_396\n      jump\t// in\n    tag_675:\n        /* \"#utility.yul\":20856:20862   */\n      dup1\n        /* \"#utility.yul\":20851:20854   */\n      dup5\n        /* \"#utility.yul\":20847:20863   */\n      add\n        /* \"#utility.yul\":20840:20863   */\n      swap2\n      pop\n        /* \"#utility.yul\":20589:20869   */\n      pop\n        /* \"#utility.yul\":20479:20869   */\n      swap3\n      swap2\n      pop\n      pop\n      jump\t// out\n        /* \"#utility.yul\":20875:21036   */\n    tag_438:\n        /* \"#utility.yul\":21015:21028   */\n      0x3f746f6b656e547970653d000000000000000000000000000000000000000000\n        /* \"#utility.yul\":21011:21012   */\n      0x00\n        /* \"#utility.yul\":21003:21009   */\n      dup3\n        /* \"#utility.yul\":20999:21013   */\n      add\n        /* \"#utility.yul\":20992:21029   */\n      mstore\n        /* \"#utility.yul\":20875:21036   */\n      pop\n      jump\t// out\n        /* \"#utility.yul\":21042:21444   */\n    tag_439:\n        /* \"#utility.yul\":21202:21205   */\n      0x00\n        /* \"#utility.yul\":21223:21308   */\n      tag_678\n        /* \"#utility.yul\":21305:21307   */\n      0x0b\n        /* \"#utility.yul\":21300:21303   */\n      dup4\n        /* \"#utility.yul\":21223:21308   */\n      tag_434\n      jump\t// in\n    tag_678:\n        /* \"#utility.yul\":21216:21308   */\n      swap2\n      pop\n        /* \"#utility.yul\":21317:21410   */\n      tag_679\n        /* \"#utility.yul\":21406:21409   */\n      dup3\n        /* \"#utility.yul\":21317:21410   */\n      tag_438\n      jump\t// in\n    tag_679:\n        /* \"#utility.yul\":21435:21437   */\n      0x0b\n        /* \"#utility.yul\":21430:21433   */\n      dup3\n        /* \"#utility.yul\":21426:21438   */\n      add\n        /* \"#utility.yul\":21419:21438   */\n      swap1\n      pop\n        /* \"#utility.yul\":21042:21444   */\n      swap2\n      swap1\n      pop\n      jump\t// out\n        /* \"#utility.yul\":21450:21529   */\n    tag_440:\n        /* \"#utility.yul\":21489:21496   */\n      0x00\n        /* \"#utility.yul\":21518:21523   */\n      dup2\n        /* \"#utility.yul\":21507:21523   */\n      swap1\n      pop\n        /* \"#utility.yul\":21450:21529   */\n      swap2\n      swap1\n      pop\n      jump\t// out\n        /* \"#utility.yul\":21535:21692   */\n    tag_441:\n        /* \"#utility.yul\":21640:21685   */\n      tag_682\n        /* \"#utility.yul\":21660:21684   */\n      tag_683\n        /* \"#utility.yul\":21678:21683   */\n      dup3\n        /* \"#utility.yul\":21660:21684   */\n      tag_399\n      jump\t// in\n    tag_683:\n        /* \"#utility.yul\":21640:21685   */\n      tag_440\n      jump\t// in\n    tag_682:\n        /* \"#utility.yul\":21635:21638   */\n      dup3\n        /* \"#utility.yul\":21628:21686   */\n      mstore\n        /* \"#utility.yul\":21535:21692   */\n      pop\n      pop\n      jump\t// out\n        /* \"#utility.yul\":21698:22534   */\n    tag_250:\n        /* \"#utility.yul\":22004:22007   */\n      0x00\n        /* \"#utility.yul\":22026:22118   */\n      tag_685\n        /* \"#utility.yul\":22114:22117   */\n      dup3\n        /* \"#utility.yul\":22105:22111   */\n      dup7\n        /* \"#utility.yul\":22026:22118   */\n      tag_436\n      jump\t// in\n    tag_685:\n        /* \"#utility.yul\":22019:22118   */\n      swap2\n      pop\n        /* \"#utility.yul\":22135:22230   */\n      tag_686\n        /* \"#utility.yul\":22226:22229   */\n      dup3\n        /* \"#utility.yul\":22217:22223   */\n      dup6\n        /* \"#utility.yul\":22135:22230   */\n      tag_437\n      jump\t// in\n    tag_686:\n        /* \"#utility.yul\":22128:22230   */\n      swap2\n      pop\n        /* \"#utility.yul\":22247:22395   */\n      tag_687\n        /* \"#utility.yul\":22391:22394   */\n      dup3\n        /* \"#utility.yul\":22247:22395   */\n      tag_439\n      jump\t// in\n    tag_687:\n        /* \"#utility.yul\":22240:22395   */\n      swap2\n      pop\n        /* \"#utility.yul\":22405:22480   */\n      tag_688\n        /* \"#utility.yul\":22476:22479   */\n      dup3\n        /* \"#utility.yul\":22467:22473   */\n      dup5\n        /* \"#utility.yul\":22405:22480   */\n      tag_441\n      jump\t// in\n    tag_688:\n        /* \"#utility.yul\":22505:22507   */\n      0x20\n        /* \"#utility.yul\":22500:22503   */\n      dup3\n        /* \"#utility.yul\":22496:22508   */\n      add\n        /* \"#utility.yul\":22489:22508   */\n      swap2\n      pop\n        /* \"#utility.yul\":22525:22528   */\n      dup2\n        /* \"#utility.yul\":22518:22528   */\n      swap1\n      pop\n        /* \"#utility.yul\":21698:22534   */\n      swap5\n      swap4\n      pop\n      pop\n      pop\n      pop\n      jump\t// out\n        /* \"#utility.yul\":22540:22633   */\n    tag_442:\n        /* \"#utility.yul\":22577:22583   */\n      0x00\n        /* \"#utility.yul\":22624:22626   */\n      0x20\n        /* \"#utility.yul\":22619:22621   */\n      0x1f\n        /* \"#utility.yul\":22612:22617   */\n      dup4\n        /* \"#utility.yul\":22608:22622   */\n      add\n        /* \"#utility.yul\":22604:22627   */\n      div\n        /* \"#utility.yul\":22594:22627   */\n      swap1\n      pop\n        /* \"#utility.yul\":22540:22633   */\n      swap2\n      swap1\n      pop\n      jump\t// out\n        /* \"#utility.yul\":22639:22746   */\n    tag_443:\n        /* \"#utility.yul\":22683:22691   */\n      0x00\n        /* \"#utility.yul\":22733:22738   */\n      dup3\n        /* \"#utility.yul\":22727:22731   */\n      dup3\n        /* \"#utility.yul\":22723:22739   */\n      shl\n        /* \"#utility.yul\":22702:22739   */\n      swap1\n      pop\n        /* \"#utility.yul\":22639:22746   */\n      swap3\n      swap2\n      pop\n      pop\n      jump\t// out\n        /* \"#utility.yul\":22752:23145   */\n    tag_444:\n        /* \"#utility.yul\":22821:22827   */\n      0x00\n        /* \"#utility.yul\":22871:22872   */\n      0x08\n        /* \"#utility.yul\":22859:22869   */\n      dup4\n        /* \"#utility.yul\":22855:22873   */\n      mul\n        /* \"#utility.yul\":22894:22991   */\n      tag_692\n        /* \"#utility.yul\":22924:22990   */\n      0xffffffffffffffffffffffffffffffffffffffffffffffffffffffffffffffff\n        /* \"#utility.yul\":22913:22922   */\n      dup3\n        /* \"#utility.yul\":22894:22991   */\n      tag_443\n      jump\t// in\n    tag_692:\n        /* \"#utility.yul\":23012:23051   */\n      tag_693\n        /* \"#utility.yul\":23042:23050   */\n      dup7\n        /* \"#utility.yul\":23031:23040   */\n      dup4\n        /* \"#utility.yul\":23012:23051   */\n      tag_443\n      jump\t// in\n    tag_693:\n        /* \"#utility.yul\":23000:23051   */\n      swap6\n      pop\n        /* \"#utility.yul\":23084:23088   */\n      dup1\n        /* \"#utility.yul\":23080:23089   */\n      not\n        /* \"#utility.yul\":23073:23078   */\n      dup5\n        /* \"#utility.yul\":23069:23090   */\n      and\n        /* \"#utility.yul\":23060:23090   */\n      swap4\n      pop\n        /* \"#utility.yul\":23133:23137   */\n      dup1\n        /* \"#utility.yul\":23123:23131   */\n      dup7\n        /* \"#utility.yul\":23119:23138   */\n      and\n        /* \"#utility.yul\":23112:23117   */\n      dup5\n        /* \"#utility.yul\":23109:23139   */\n      or\n        /* \"#utility.yul\":23099:23139   */\n      swap3\n      pop\n        /* \"#utility.yul\":22828:23145   */\n      pop\n      pop\n        /* \"#utility.yul\":22752:23145   */\n      swap4\n      swap3\n      pop\n      pop\n      pop\n      jump\t// out\n        /* \"#utility.yul\":23151:23211   */\n    tag_445:\n        /* \"#utility.yul\":23179:23182   */\n      0x00\n        /* \"#utility.yul\":23200:23205   */\n      dup2\n        /* \"#utility.yul\":23193:23205   */\n      swap1\n      pop\n        /* \"#utility.yul\":23151:23211   */\n      swap2\n      swap1\n      pop\n      jump\t// out\n        /* \"#utility.yul\":23217:23359   */\n    tag_446:\n        /* \"#utility.yul\":23267:23276   */\n      0x00\n        /* \"#utility.yul\":23300:23353   */\n      tag_696\n        /* \"#utility.yul\":23318:23352   */\n      tag_697\n        /* \"#utility.yul\":23327:23351   */\n      tag_698\n        /* \"#utility.yul\":23345:23350   */\n      dup5\n        /* \"#utility.yul\":23327:23351   */\n      tag_399\n      jump\t// in\n    tag_698:\n        /* \"#utility.yul\":23318:23352   */\n      tag_445\n      jump\t// in\n    tag_697:\n        /* \"#utility.yul\":23300:23353   */\n      tag_399\n      jump\t// in\n    tag_696:\n        /* \"#utility.yul\":23287:23353   */\n      swap1\n      pop\n        /* \"#utility.yul\":23217:23359   */\n      swap2\n      swap1\n      pop\n      jump\t// out\n        /* \"#utility.yul\":23365:23440   */\n    tag_447:\n        /* \"#utility.yul\":23408:23411   */\n      0x00\n        /* \"#utility.yul\":23429:23434   */\n      dup2\n        /* \"#utility.yul\":23422:23434   */\n      swap1\n      pop\n        /* \"#utility.yul\":23365:23440   */\n      swap2\n      swap1\n      pop\n      jump\t// out\n        /* \"#utility.yul\":23446:23715   */\n    tag_448:\n        /* \"#utility.yul\":23556:23595   */\n      tag_701\n        /* \"#utility.yul\":23587:23594   */\n      dup4\n        /* \"#utility.yul\":23556:23595   */\n      tag_446\n      jump\t// in\n    tag_701:\n        /* \"#utility.yul\":23617:23708   */\n      tag_702\n        /* \"#utility.yul\":23666:23707   */\n      tag_703\n        /* \"#utility.yul\":23690:23706   */\n      dup3\n        /* \"#utility.yul\":23666:23707   */\n      tag_447\n      jump\t// in\n    tag_703:\n        /* \"#utility.yul\":23658:23664   */\n      dup5\n        /* \"#utility.yul\":23651:23655   */\n      dup5\n        /* \"#utility.yul\":23645:23656   */\n      sload\n        /* \"#utility.yul\":23617:23708   */\n      tag_444\n      jump\t// in\n    tag_702:\n        /* \"#utility.yul\":23611:23615   */\n      dup3\n        /* \"#utility.yul\":23604:23709   */\n      sstore\n        /* \"#utility.yul\":23522:23715   */\n      pop\n        /* \"#utility.yul\":23446:23715   */\n      pop\n      pop\n      pop\n      jump\t// out\n        /* \"#utility.yul\":23721:23794   */\n    tag_449:\n        /* \"#utility.yul\":23766:23769   */\n      0x00\n        /* \"#utility.yul\":23721:23794   */\n      swap1\n      jump\t// out\n        /* \"#utility.yul\":23800:23989   */\n    tag_450:\n        /* \"#utility.yul\":23877:23909   */\n      tag_706\n      tag_449\n      jump\t// in\n    tag_706:\n        /* \"#utility.yul\":23918:23983   */\n      tag_707\n        /* \"#utility.yul\":23976:23982   */\n      dup2\n        /* \"#utility.yul\":23968:23974   */\n      dup5\n        /* \"#utility.yul\":23962:23966   */\n      dup5\n        /* \"#utility.yul\":23918:23983   */\n      tag_448\n      jump\t// in\n    tag_707:\n        /* \"#utility.yul\":23853:23989   */\n      pop\n        /* \"#utility.yul\":23800:23989   */\n      pop\n      pop\n      jump\t// out\n        /* \"#utility.yul\":23995:24181   */\n    tag_451:\n        /* \"#utility.yul\":24055:24175   */\n    tag_709:\n        /* \"#utility.yul\":24072:24075   */\n      dup2\n        /* \"#utility.yul\":24065:24070   */\n      dup2\n        /* \"#utility.yul\":24062:24076   */\n      lt\n        /* \"#utility.yul\":24055:24175   */\n      iszero\n      tag_711\n      jumpi\n        /* \"#utility.yul\":24126:24165   */\n      tag_712\n        /* \"#utility.yul\":24163:24164   */\n      0x00\n        /* \"#utility.yul\":24156:24161   */\n      dup3\n        /* \"#utility.yul\":24126:24165   */\n      tag_450\n      jump\t// in\n    tag_712:\n        /* \"#utility.yul\":24099:24100   */\n      0x01\n        /* \"#utility.yul\":24092:24097   */\n      dup2\n        /* \"#utility.yul\":24088:24101   */\n      add\n        /* \"#utility.yul\":24079:24101   */\n      swap1\n      pop\n        /* \"#utility.yul\":24055:24175   */\n      jump(tag_709)\n    tag_711:\n        /* \"#utility.yul\":23995:24181   */\n      pop\n      pop\n      jump\t// out\n        /* \"#utility.yul\":24187:24730   */\n    tag_452:\n        /* \"#utility.yul\":24288:24290   */\n      0x1f\n        /* \"#utility.yul\":24283:24286   */\n      dup3\n        /* \"#utility.yul\":24280:24291   */\n      gt\n        /* \"#utility.yul\":24277:24723   */\n      iszero\n      tag_714\n      jumpi\n        /* \"#utility.yul\":24322:24360   */\n      tag_715\n        /* \"#utility.yul\":24354:24359   */\n      dup2\n        /* \"#utility.yul\":24322:24360   */\n      tag_435\n      jump\t// in\n    tag_715:\n        /* \"#utility.yul\":24406:24435   */\n      tag_716\n        /* \"#utility.yul\":24424:24434   */\n      dup5\n        /* \"#utility.yul\":24406:24435   */\n      tag_442\n      jump\t// in\n    tag_716:\n        /* \"#utility.yul\":24396:24404   */\n      dup2\n        /* \"#utility.yul\":24392:24436   */\n      add\n        /* \"#utility.yul\":24589:24591   */\n      0x20\n        /* \"#utility.yul\":24577:24587   */\n      dup6\n        /* \"#utility.yul\":24574:24592   */\n      lt\n        /* \"#utility.yul\":24571:24620   */\n      iszero\n      tag_717\n      jumpi\n        /* \"#utility.yul\":24610:24618   */\n      dup2\n        /* \"#utility.yul\":24595:24618   */\n      swap1\n      pop\n        /* \"#utility.yul\":24571:24620   */\n    tag_717:\n        /* \"#utility.yul\":24633:24713   */\n      tag_718\n        /* \"#utility.yul\":24689:24711   */\n      tag_719\n        /* \"#utility.yul\":24707:24710   */\n      dup6\n        /* \"#utility.yul\":24689:24711   */\n      tag_442\n      jump\t// in\n    tag_719:\n        /* \"#utility.yul\":24679:24687   */\n      dup4\n        /* \"#utility.yul\":24675:24712   */\n      add\n        /* \"#utility.yul\":24662:24673   */\n      dup3\n        /* \"#utility.yul\":24633:24713   */\n      tag_451\n      jump\t// in\n    tag_718:\n        /* \"#utility.yul\":24292:24723   */\n      pop\n      pop\n        /* \"#utility.yul\":24277:24723   */\n    tag_714:\n        /* \"#utility.yul\":24187:24730   */\n      pop\n      pop\n      pop\n      jump\t// out\n        /* \"#utility.yul\":24736:24853   */\n    tag_453:\n        /* \"#utility.yul\":24790:24798   */\n      0x00\n        /* \"#utility.yul\":24840:24845   */\n      dup3\n        /* \"#utility.yul\":24834:24838   */\n      dup3\n        /* \"#utility.yul\":24830:24846   */\n      shr\n        /* \"#utility.yul\":24809:24846   */\n      swap1\n      pop\n        /* \"#utility.yul\":24736:24853   */\n      swap3\n      swap2\n      pop\n      pop\n      jump\t// out\n        /* \"#utility.yul\":24859:25028   */\n    tag_454:\n        /* \"#utility.yul\":24903:24909   */\n      0x00\n        /* \"#utility.yul\":24936:24987   */\n      tag_722\n        /* \"#utility.yul\":24984:24985   */\n      0x00\n        /* \"#utility.yul\":24980:24986   */\n      not\n        /* \"#utility.yul\":24972:24977   */\n      dup5\n        /* \"#utility.yul\":24969:24970   */\n      0x08\n        /* \"#utility.yul\":24965:24978   */\n      mul\n        /* \"#utility.yul\":24936:24987   */\n      tag_453\n      jump\t// in\n    tag_722:\n        /* \"#utility.yul\":24932:24988   */\n      not\n        /* \"#utility.yul\":25017:25021   */\n      dup1\n        /* \"#utility.yul\":25011:25015   */\n      dup4\n        /* \"#utility.yul\":25007:25022   */\n      and\n        /* \"#utility.yul\":24997:25022   */\n      swap2\n      pop\n        /* \"#utility.yul\":24910:25028   */\n      pop\n        /* \"#utility.yul\":24859:25028   */\n      swap3\n      swap2\n      pop\n      pop\n      jump\t// out\n        /* \"#utility.yul\":25033:25328   */\n    tag_455:\n        /* \"#utility.yul\":25109:25113   */\n      0x00\n        /* \"#utility.yul\":25255:25284   */\n      tag_724\n        /* \"#utility.yul\":25280:25283   */\n      dup4\n        /* \"#utility.yul\":25274:25278   */\n      dup4\n        /* \"#utility.yul\":25255:25284   */\n      tag_454\n      jump\t// in\n    tag_724:\n        /* \"#utility.yul\":25247:25284   */\n      swap2\n      pop\n        /* \"#utility.yul\":25317:25320   */\n      dup3\n        /* \"#utility.yul\":25314:25315   */\n      0x02\n        /* \"#utility.yul\":25310:25321   */\n      mul\n        /* \"#utility.yul\":25304:25308   */\n      dup3\n        /* \"#utility.yul\":25301:25322   */\n      or\n        /* \"#utility.yul\":25293:25322   */\n      swap1\n      pop\n        /* \"#utility.yul\":25033:25328   */\n      swap3\n      swap2\n      pop\n      pop\n      jump\t// out\n        /* \"#utility.yul\":25333:26728   */\n    tag_257:\n        /* \"#utility.yul\":25450:25487   */\n      tag_726\n        /* \"#utility.yul\":25483:25486   */\n      dup3\n        /* \"#utility.yul\":25450:25487   */\n      tag_394\n      jump\t// in\n    tag_726:\n        /* \"#utility.yul\":25552:25570   */\n      0xffffffffffffffff\n        /* \"#utility.yul\":25544:25550   */\n      dup2\n        /* \"#utility.yul\":25541:25571   */\n      gt\n        /* \"#utility.yul\":25538:25594   */\n      iszero\n      tag_727\n      jumpi\n        /* \"#utility.yul\":25574:25592   */\n      tag_728\n      tag_322\n      jump\t// in\n    tag_728:\n        /* \"#utility.yul\":25538:25594   */\n    tag_727:\n        /* \"#utility.yul\":25618:25656   */\n      tag_729\n        /* \"#utility.yul\":25650:25654   */\n      dup3\n        /* \"#utility.yul\":25644:25655   */\n      sload\n        /* \"#utility.yul\":25618:25656   */\n      tag_244\n      jump\t// in\n    tag_729:\n        /* \"#utility.yul\":25703:25770   */\n      tag_730\n        /* \"#utility.yul\":25763:25769   */\n      dup3\n        /* \"#utility.yul\":25755:25761   */\n      dup3\n        /* \"#utility.yul\":25749:25753   */\n      dup6\n        /* \"#utility.yul\":25703:25770   */\n      tag_452\n      jump\t// in\n    tag_730:\n        /* \"#utility.yul\":25797:25798   */\n      0x00\n        /* \"#utility.yul\":25821:25825   */\n      0x20\n        /* \"#utility.yul\":25808:25825   */\n      swap1\n      pop\n        /* \"#utility.yul\":25853:25855   */\n      0x1f\n        /* \"#utility.yul\":25845:25851   */\n      dup4\n        /* \"#utility.yul\":25842:25856   */\n      gt\n        /* \"#utility.yul\":25870:25871   */\n      0x01\n        /* \"#utility.yul\":25865:26483   */\n      dup2\n      eq\n      tag_732\n      jumpi\n        /* \"#utility.yul\":26527:26528   */\n      0x00\n        /* \"#utility.yul\":26544:26550   */\n      dup5\n        /* \"#utility.yul\":26541:26618   */\n      iszero\n      tag_733\n      jumpi\n        /* \"#utility.yul\":26593:26602   */\n      dup3\n        /* \"#utility.yul\":26588:26591   */\n      dup8\n        /* \"#utility.yul\":26584:26603   */\n      add\n        /* \"#utility.yul\":26578:26604   */\n      mload\n        /* \"#utility.yul\":26569:26604   */\n      swap1\n      pop\n        /* \"#utility.yul\":26541:26618   */\n    tag_733:\n        /* \"#utility.yul\":26644:26711   */\n      tag_734\n        /* \"#utility.yul\":26704:26710   */\n      dup6\n        /* \"#utility.yul\":26697:26702   */\n      dup3\n        /* \"#utility.yul\":26644:26711   */\n      tag_455\n      jump\t// in\n    tag_734:\n        /* \"#utility.yul\":26638:26642   */\n      dup7\n        /* \"#utility.yul\":26631:26712   */\n      sstore\n        /* \"#utility.yul\":26500:26722   */\n      pop\n        /* \"#utility.yul\":25835:26722   */\n      jump(tag_731)\n        /* \"#utility.yul\":25865:26483   */\n    tag_732:\n        /* \"#utility.yul\":25917:25921   */\n      0x1f\n        /* \"#utility.yul\":25913:25922   */\n      not\n        /* \"#utility.yul\":25905:25911   */\n      dup5\n        /* \"#utility.yul\":25901:25923   */\n      and\n        /* \"#utility.yul\":25951:25988   */\n      tag_735\n        /* \"#utility.yul\":25983:25987   */\n      dup7\n        /* \"#utility.yul\":25951:25988   */\n      tag_435\n      jump\t// in\n    tag_735:\n        /* \"#utility.yul\":26010:26011   */\n      0x00\n        /* \"#utility.yul\":26024:26232   */\n    tag_736:\n        /* \"#utility.yul\":26038:26045   */\n      dup3\n        /* \"#utility.yul\":26035:26036   */\n      dup2\n        /* \"#utility.yul\":26032:26046   */\n      lt\n        /* \"#utility.yul\":26024:26232   */\n      iszero\n      tag_738\n      jumpi\n        /* \"#utility.yul\":26117:26126   */\n      dup5\n        /* \"#utility.yul\":26112:26115   */\n      dup10\n        /* \"#utility.yul\":26108:26127   */\n      add\n        /* \"#utility.yul\":26102:26128   */\n      mload\n        /* \"#utility.yul\":26094:26100   */\n      dup3\n        /* \"#utility.yul\":26087:26129   */\n      sstore\n        /* \"#utility.yul\":26168:26169   */\n      0x01\n        /* \"#utility.yul\":26160:26166   */\n      dup3\n        /* \"#utility.yul\":26156:26170   */\n      add\n        /* \"#utility.yul\":26146:26170   */\n      swap2\n      pop\n        /* \"#utility.yul\":26215:26217   */\n      0x20\n        /* \"#utility.yul\":26204:26213   */\n      dup6\n        /* \"#utility.yul\":26200:26218   */\n      add\n        /* \"#utility.yul\":26187:26218   */\n      swap5\n      pop\n        /* \"#utility.yul\":26061:26065   */\n      0x20\n        /* \"#utility.yul\":26058:26059   */\n      dup2\n        /* \"#utility.yul\":26054:26066   */\n      add\n        /* \"#utility.yul\":26049:26066   */\n      swap1\n      pop\n        /* \"#utility.yul\":26024:26232   */\n      jump(tag_736)\n    tag_738:\n        /* \"#utility.yul\":26260:26266   */\n      dup7\n        /* \"#utility.yul\":26251:26258   */\n      dup4\n        /* \"#utility.yul\":26248:26267   */\n      lt\n        /* \"#utility.yul\":26245:26424   */\n      iszero\n      tag_739\n      jumpi\n        /* \"#utility.yul\":26318:26327   */\n      dup5\n        /* \"#utility.yul\":26313:26316   */\n      dup10\n        /* \"#utility.yul\":26309:26328   */\n      add\n        /* \"#utility.yul\":26303:26329   */\n      mload\n        /* \"#utility.yul\":26361:26409   */\n      tag_740\n        /* \"#utility.yul\":26403:26407   */\n      0x1f\n        /* \"#utility.yul\":26395:26401   */\n      dup10\n        /* \"#utility.yul\":26391:26408   */\n      and\n        /* \"#utility.yul\":26380:26389   */\n      dup3\n        /* \"#utility.yul\":26361:26409   */\n      tag_454\n      jump\t// in\n    tag_740:\n        /* \"#utility.yul\":26353:26359   */\n      dup4\n        /* \"#utility.yul\":26346:26410   */\n      sstore\n        /* \"#utility.yul\":26268:26424   */\n      pop\n        /* \"#utility.yul\":26245:26424   */\n    tag_739:\n        /* \"#utility.yul\":26470:26471   */\n      0x01\n        /* \"#utility.yul\":26466:26467   */\n      0x02\n        /* \"#utility.yul\":26458:26464   */\n      dup9\n        /* \"#utility.yul\":26454:26468   */\n      mul\n        /* \"#utility.yul\":26450:26472   */\n      add\n        /* \"#utility.yul\":26444:26448   */\n      dup9\n        /* \"#utility.yul\":26437:26473   */\n      sstore\n        /* \"#utility.yul\":25872:26483   */\n      pop\n      pop\n      pop\n        /* \"#utility.yul\":25835:26722   */\n    tag_731:\n      pop\n        /* \"#utility.yul\":25425:26728   */\n      pop\n      pop\n      pop\n        /* \"#utility.yul\":25333:26728   */\n      pop\n      pop\n      jump\t// out\n        /* \"#utility.yul\":26734:26900   */\n    tag_456:\n        /* \"#utility.yul\":26874:26892   */\n      0x6973417070726f766564466f72416c6c00000000000000000000000000000000\n        /* \"#utility.yul\":26870:26871   */\n      0x00\n        /* \"#utility.yul\":26862:26868   */\n      dup3\n        /* \"#utility.yul\":26858:26872   */\n      add\n        /* \"#utility.yul\":26851:26893   */\n      mstore\n        /* \"#utility.yul\":26734:26900   */\n      pop\n      jump\t// out\n        /* \"#utility.yul\":26906:27272   */\n    tag_457:\n        /* \"#utility.yul\":27048:27051   */\n      0x00\n        /* \"#utility.yul\":27069:27136   */\n      tag_743\n        /* \"#utility.yul\":27133:27135   */\n      0x10\n        /* \"#utility.yul\":27128:27131   */\n      dup4\n        /* \"#utility.yul\":27069:27136   */\n      tag_395\n      jump\t// in\n    tag_743:\n        /* \"#utility.yul\":27062:27136   */\n      swap2\n      pop\n        /* \"#utility.yul\":27145:27238   */\n      tag_744\n        /* \"#utility.yul\":27234:27237   */\n      dup3\n        /* \"#utility.yul\":27145:27238   */\n      tag_456\n      jump\t// in\n    tag_744:\n        /* \"#utility.yul\":27263:27265   */\n      0x20\n        /* \"#utility.yul\":27258:27261   */\n      dup3\n        /* \"#utility.yul\":27254:27266   */\n      add\n        /* \"#utility.yul\":27247:27266   */\n      swap1\n      pop\n        /* \"#utility.yul\":26906:27272   */\n      swap2\n      swap1\n      pop\n      jump\t// out\n        /* \"#utility.yul\":27278:27697   */\n    tag_267:\n        /* \"#utility.yul\":27444:27448   */\n      0x00\n        /* \"#utility.yul\":27482:27484   */\n      0x20\n        /* \"#utility.yul\":27471:27480   */\n      dup3\n        /* \"#utility.yul\":27467:27485   */\n      add\n        /* \"#utility.yul\":27459:27485   */\n      swap1\n      pop\n        /* \"#utility.yul\":27531:27540   */\n      dup2\n        /* \"#utility.yul\":27525:27529   */\n      dup2\n        /* \"#utility.yul\":27521:27541   */\n      sub\n        /* \"#utility.yul\":27517:27518   */\n      0x00\n        /* \"#utility.yul\":27506:27515   */\n      dup4\n        /* \"#utility.yul\":27502:27519   */\n      add\n        /* \"#utility.yul\":27495:27542   */\n      mstore\n        /* \"#utility.yul\":27559:27690   */\n      tag_746\n        /* \"#utility.yul\":27685:27689   */\n      dup2\n        /* \"#utility.yul\":27559:27690   */\n      tag_457\n      jump\t// in\n    tag_746:\n        /* \"#utility.yul\":27551:27690   */\n      swap1\n      pop\n        /* \"#utility.yul\":27278:27697   */\n      swap2\n      swap1\n      pop\n      jump\t// out\n        /* \"#utility.yul\":27703:27928   */\n    tag_458:\n        /* \"#utility.yul\":27843:27877   */\n      0x4f776e61626c653a206e6577206f776e657220697320746865207a65726f2061\n        /* \"#utility.yul\":27839:27840   */\n      0x00\n        /* \"#utility.yul\":27831:27837   */\n      dup3\n        /* \"#utility.yul\":27827:27841   */\n      add\n        /* \"#utility.yul\":27820:27878   */\n      mstore\n        /* \"#utility.yul\":27912:27920   */\n      0x6464726573730000000000000000000000000000000000000000000000000000\n        /* \"#utility.yul\":27907:27909   */\n      0x20\n        /* \"#utility.yul\":27899:27905   */\n      dup3\n        /* \"#utility.yul\":27895:27910   */\n      add\n        /* \"#utility.yul\":27888:27921   */\n      mstore\n        /* \"#utility.yul\":27703:27928   */\n      pop\n      jump\t// out\n        /* \"#utility.yul\":27934:28300   */\n    tag_459:\n        /* \"#utility.yul\":28076:28079   */\n      0x00\n        /* \"#utility.yul\":28097:28164   */\n      tag_749\n        /* \"#utility.yul\":28161:28163   */\n      0x26\n        /* \"#utility.yul\":28156:28159   */\n      dup4\n        /* \"#utility.yul\":28097:28164   */\n      tag_395\n      jump\t// in\n    tag_749:\n        /* \"#utility.yul\":28090:28164   */\n      swap2\n      pop\n        /* \"#utility.yul\":28173:28266   */\n      tag_750\n        /* \"#utility.yul\":28262:28265   */\n      dup3\n        /* \"#utility.yul\":28173:28266   */\n      tag_458\n      jump\t// in\n    tag_750:\n        /* \"#utility.yul\":28291:28293   */\n      0x40\n        /* \"#utility.yul\":28286:28289   */\n      dup3\n        /* \"#utility.yul\":28282:28294   */\n      add\n        /* \"#utility.yul\":28275:28294   */\n      swap1\n      pop\n        /* \"#utility.yul\":27934:28300   */\n      swap2\n      swap1\n      pop\n      jump\t// out\n        /* \"#utility.yul\":28306:28725   */\n    tag_273:\n        /* \"#utility.yul\":28472:28476   */\n      0x00\n        /* \"#utility.yul\":28510:28512   */\n      0x20\n        /* \"#utility.yul\":28499:28508   */\n      dup3\n        /* \"#utility.yul\":28495:28513   */\n      add\n        /* \"#utility.yul\":28487:28513   */\n      swap1\n      pop\n        /* \"#utility.yul\":28559:28568   */\n      dup2\n        /* \"#utility.yul\":28553:28557   */\n      dup2\n        /* \"#utility.yul\":28549:28569   */\n      sub\n        /* \"#utility.yul\":28545:28546   */\n      0x00\n        /* \"#utility.yul\":28534:28543   */\n      dup4\n        /* \"#utility.yul\":28530:28547   */\n      add\n        /* \"#utility.yul\":28523:28570   */\n      mstore\n        /* \"#utility.yul\":28587:28718   */\n      tag_752\n        /* \"#utility.yul\":28713:28717   */\n      dup2\n        /* \"#utility.yul\":28587:28718   */\n      tag_459\n      jump\t// in\n    tag_752:\n        /* \"#utility.yul\":28579:28718   */\n      swap1\n      pop\n        /* \"#utility.yul\":28306:28725   */\n      swap2\n      swap1\n      pop\n      jump\t// out\n        /* \"#utility.yul\":28731:28913   */\n    tag_460:\n        /* \"#utility.yul\":28871:28905   */\n      0x4f776e61626c653a2063616c6c6572206973206e6f7420746865206f776e6572\n        /* \"#utility.yul\":28867:28868   */\n      0x00\n        /* \"#utility.yul\":28859:28865   */\n      dup3\n        /* \"#utility.yul\":28855:28869   */\n      add\n        /* \"#utility.yul\":28848:28906   */\n      mstore\n        /* \"#utility.yul\":28731:28913   */\n      pop\n      jump\t// out\n        /* \"#utility.yul\":28919:29285   */\n    tag_461:\n        /* \"#utility.yul\":29061:29064   */\n      0x00\n        /* \"#utility.yul\":29082:29149   */\n      tag_755\n        /* \"#utility.yul\":29146:29148   */\n      0x20\n        /* \"#utility.yul\":29141:29144   */\n      dup4\n        /* \"#utility.yul\":29082:29149   */\n      tag_395\n      jump\t// in\n    tag_755:\n        /* \"#utility.yul\":29075:29149   */\n      swap2\n      pop\n        /* \"#utility.yul\":29158:29251   */\n      tag_756\n        /* \"#utility.yul\":29247:29250   */\n      dup3\n        /* \"#utility.yul\":29158:29251   */\n      tag_460\n      jump\t// in\n    tag_756:\n        /* \"#utility.yul\":29276:29278   */\n      0x20\n        /* \"#utility.yul\":29271:29274   */\n      dup3\n        /* \"#utility.yul\":29267:29279   */\n      add\n        /* \"#utility.yul\":29260:29279   */\n      swap1\n      pop\n        /* \"#utility.yul\":28919:29285   */\n      swap2\n      swap1\n      pop\n      jump\t// out\n        /* \"#utility.yul\":29291:29710   */\n    tag_291:\n        /* \"#utility.yul\":29457:29461   */\n      0x00\n        /* \"#utility.yul\":29495:29497   */\n      0x20\n        /* \"#utility.yul\":29484:29493   */\n      dup3\n        /* \"#utility.yul\":29480:29498   */\n      add\n        /* \"#utility.yul\":29472:29498   */\n      swap1\n      pop\n        /* \"#utility.yul\":29544:29553   */\n      dup2\n        /* \"#utility.yul\":29538:29542   */\n      dup2\n        /* \"#utility.yul\":29534:29554   */\n      sub\n        /* \"#utility.yul\":29530:29531   */\n      0x00\n        /* \"#utility.yul\":29519:29528   */\n      dup4\n        /* \"#utility.yul\":29515:29532   */\n      add\n        /* \"#utility.yul\":29508:29555   */\n      mstore\n        /* \"#utility.yul\":29572:29703   */\n      tag_758\n        /* \"#utility.yul\":29698:29702   */\n      dup2\n        /* \"#utility.yul\":29572:29703   */\n      tag_461\n      jump\t// in\n    tag_758:\n        /* \"#utility.yul\":29564:29703   */\n      swap1\n      pop\n        /* \"#utility.yul\":29291:29710   */\n      swap2\n      swap1\n      pop\n      jump\t// out\n        /* \"#utility.yul\":29716:29953   */\n    tag_462:\n        /* \"#utility.yul\":29856:29890   */\n      0x4552433732313a207472616e7366657220746f206e6f6e204552433732315265\n        /* \"#utility.yul\":29852:29853   */\n      0x00\n        /* \"#utility.yul\":29844:29850   */\n      dup3\n        /* \"#utility.yul\":29840:29854   */\n      add\n        /* \"#utility.yul\":29833:29891   */\n      mstore\n        /* \"#utility.yul\":29925:29945   */\n      0x63656976657220696d706c656d656e7465720000000000000000000000000000\n        /* \"#utility.yul\":29920:29922   */\n      0x20\n        /* \"#utility.yul\":29912:29918   */\n      dup3\n        /* \"#utility.yul\":29908:29923   */\n      add\n        /* \"#utility.yul\":29901:29946   */\n      mstore\n        /* \"#utility.yul\":29716:29953   */\n      pop\n      jump\t// out\n        /* \"#utility.yul\":29959:30325   */\n    tag_463:\n        /* \"#utility.yul\":30101:30104   */\n      0x00\n        /* \"#utility.yul\":30122:30189   */\n      tag_761\n        /* \"#utility.yul\":30186:30188   */\n      0x32\n        /* \"#utility.yul\":30181:30184   */\n      dup4\n        /* \"#utility.yul\":30122:30189   */\n      tag_395\n      jump\t// in\n    tag_761:\n        /* \"#utility.yul\":30115:30189   */\n      swap2\n      pop\n        /* \"#utility.yul\":30198:30291   */\n      tag_762\n        /* \"#utility.yul\":30287:30290   */\n      dup3\n        /* \"#utility.yul\":30198:30291   */\n      tag_462\n      jump\t// in\n    tag_762:\n        /* \"#utility.yul\":30316:30318   */\n      0x40\n        /* \"#utility.yul\":30311:30314   */\n      dup3\n        /* \"#utility.yul\":30307:30319   */\n      add\n        /* \"#utility.yul\":30300:30319   */\n      swap1\n      pop\n        /* \"#utility.yul\":29959:30325   */\n      swap2\n      swap1\n      pop\n      jump\t// out\n        /* \"#utility.yul\":30331:30750   */\n    tag_299:\n        /* \"#utility.yul\":30497:30501   */\n      0x00\n        /* \"#utility.yul\":30535:30537   */\n      0x20\n        /* \"#utility.yul\":30524:30533   */\n      dup3\n        /* \"#utility.yul\":30520:30538   */\n      add\n        /* \"#utility.yul\":30512:30538   */\n      swap1\n      pop\n        /* \"#utility.yul\":30584:30593   */\n      dup2\n        /* \"#utility.yul\":30578:30582   */\n      dup2\n        /* \"#utility.yul\":30574:30594   */\n      sub\n        /* \"#utility.yul\":30570:30571   */\n      0x00\n        /* \"#utility.yul\":30559:30568   */\n      dup4\n        /* \"#utility.yul\":30555:30572   */\n      add\n        /* \"#utility.yul\":30548:30595   */\n      mstore\n        /* \"#utility.yul\":30612:30743   */\n      tag_764\n        /* \"#utility.yul\":30738:30742   */\n      dup2\n        /* \"#utility.yul\":30612:30743   */\n      tag_463\n      jump\t// in\n    tag_764:\n        /* \"#utility.yul\":30604:30743   */\n      swap1\n      pop\n        /* \"#utility.yul\":30331:30750   */\n      swap2\n      swap1\n      pop\n      jump\t// out\n        /* \"#utility.yul\":30756:30936   */\n    tag_464:\n        /* \"#utility.yul\":30804:30881   */\n      0x4e487b7100000000000000000000000000000000000000000000000000000000\n        /* \"#utility.yul\":30801:30802   */\n      0x00\n        /* \"#utility.yul\":30794:30882   */\n      mstore\n        /* \"#utility.yul\":30901:30905   */\n      0x11\n        /* \"#utility.yul\":30898:30899   */\n      0x04\n        /* \"#utility.yul\":30891:30906   */\n      mstore\n        /* \"#utility.yul\":30925:30929   */\n      0x24\n        /* \"#utility.yul\":30922:30923   */\n      0x00\n        /* \"#utility.yul\":30915:30930   */\n      revert\n        /* \"#utility.yul\":30942:31133   */\n    tag_315:\n        /* \"#utility.yul\":30982:30985   */\n      0x00\n        /* \"#utility.yul\":31001:31021   */\n      tag_767\n        /* \"#utility.yul\":31019:31020   */\n      dup3\n        /* \"#utility.yul\":31001:31021   */\n      tag_399\n      jump\t// in\n    tag_767:\n        /* \"#utility.yul\":30996:31021   */\n      swap2\n      pop\n        /* \"#utility.yul\":31035:31055   */\n      tag_768\n        /* \"#utility.yul\":31053:31054   */\n      dup4\n        /* \"#utility.yul\":31035:31055   */\n      tag_399\n      jump\t// in\n    tag_768:\n        /* \"#utility.yul\":31030:31055   */\n      swap3\n      pop\n        /* \"#utility.yul\":31078:31079   */\n      dup3\n        /* \"#utility.yul\":31075:31076   */\n      dup3\n        /* \"#utility.yul\":31071:31080   */\n      add\n        /* \"#utility.yul\":31064:31080   */\n      swap1\n      pop\n        /* \"#utility.yul\":31099:31102   */\n      dup1\n        /* \"#utility.yul\":31096:31097   */\n      dup3\n        /* \"#utility.yul\":31093:31103   */\n      gt\n        /* \"#utility.yul\":31090:31126   */\n      iszero\n      tag_769\n      jumpi\n        /* \"#utility.yul\":31106:31124   */\n      tag_770\n      tag_464\n      jump\t// in\n    tag_770:\n        /* \"#utility.yul\":31090:31126   */\n    tag_769:\n        /* \"#utility.yul\":30942:31133   */\n      swap3\n      swap2\n      pop\n      pop\n      jump\t// out\n        /* \"#utility.yul\":31139:31319   */\n    tag_328:\n        /* \"#utility.yul\":31187:31264   */\n      0x4e487b7100000000000000000000000000000000000000000000000000000000\n        /* \"#utility.yul\":31184:31185   */\n      0x00\n        /* \"#utility.yul\":31177:31265   */\n      mstore\n        /* \"#utility.yul\":31284:31288   */\n      0x12\n        /* \"#utility.yul\":31281:31282   */\n      0x04\n        /* \"#utility.yul\":31274:31289   */\n      mstore\n        /* \"#utility.yul\":31308:31312   */\n      0x24\n        /* \"#utility.yul\":31305:31306   */\n      0x00\n        /* \"#utility.yul\":31298:31313   */\n      revert\n        /* \"#utility.yul\":31325:31519   */\n    tag_344:\n        /* \"#utility.yul\":31365:31369   */\n      0x00\n        /* \"#utility.yul\":31385:31405   */\n      tag_773\n        /* \"#utility.yul\":31403:31404   */\n      dup3\n        /* \"#utility.yul\":31385:31405   */\n      tag_399\n      jump\t// in\n    tag_773:\n        /* \"#utility.yul\":31380:31405   */\n      swap2\n      pop\n        /* \"#utility.yul\":31419:31439   */\n      tag_774\n        /* \"#utility.yul\":31437:31438   */\n      dup4\n        /* \"#utility.yul\":31419:31439   */\n      tag_399\n      jump\t// in\n    tag_774:\n        /* \"#utility.yul\":31414:31439   */\n      swap3\n      pop\n        /* \"#utility.yul\":31463:31464   */\n      dup3\n        /* \"#utility.yul\":31460:31461   */\n      dup3\n        /* \"#utility.yul\":31456:31465   */\n      sub\n        /* \"#utility.yul\":31448:31465   */\n      swap1\n      pop\n        /* \"#utility.yul\":31487:31488   */\n      dup2\n        /* \"#utility.yul\":31481:31485   */\n      dup2\n        /* \"#utility.yul\":31478:31489   */\n      gt\n        /* \"#utility.yul\":31475:31512   */\n      iszero\n      tag_775\n      jumpi\n        /* \"#utility.yul\":31492:31510   */\n      tag_776\n      tag_464\n      jump\t// in\n    tag_776:\n        /* \"#utility.yul\":31475:31512   */\n    tag_775:\n        /* \"#utility.yul\":31325:31519   */\n      swap3\n      swap2\n      pop\n      pop\n      jump\t// out\n        /* \"#utility.yul\":31525:31623   */\n    tag_465:\n        /* \"#utility.yul\":31576:31582   */\n      0x00\n        /* \"#utility.yul\":31610:31615   */\n      dup2\n        /* \"#utility.yul\":31604:31616   */\n      mload\n        /* \"#utility.yul\":31594:31616   */\n      swap1\n      pop\n        /* \"#utility.yul\":31525:31623   */\n      swap2\n      swap1\n      pop\n      jump\t// out\n        /* \"#utility.yul\":31629:31797   */\n    tag_466:\n        /* \"#utility.yul\":31712:31723   */\n      0x00\n        /* \"#utility.yul\":31746:31752   */\n      dup3\n        /* \"#utility.yul\":31741:31744   */\n      dup3\n        /* \"#utility.yul\":31734:31753   */\n      mstore\n        /* \"#utility.yul\":31786:31790   */\n      0x20\n        /* \"#utility.yul\":31781:31784   */\n      dup3\n        /* \"#utility.yul\":31777:31791   */\n      add\n        /* \"#utility.yul\":31762:31791   */\n      swap1\n      pop\n        /* \"#utility.yul\":31629:31797   */\n      swap3\n      swap2\n      pop\n      pop\n      jump\t// out\n        /* \"#utility.yul\":31803:32176   */\n    tag_467:\n        /* \"#utility.yul\":31889:31892   */\n      0x00\n        /* \"#utility.yul\":31917:31955   */\n      tag_780\n        /* \"#utility.yul\":31949:31954   */\n      dup3\n        /* \"#utility.yul\":31917:31955   */\n      tag_465\n      jump\t// in\n    tag_780:\n        /* \"#utility.yul\":31971:32041   */\n      tag_781\n        /* \"#utility.yul\":32034:32040   */\n      dup2\n        /* \"#utility.yul\":32029:32032   */\n      dup6\n        /* \"#utility.yul\":31971:32041   */\n      tag_466\n      jump\t// in\n    tag_781:\n        /* \"#utility.yul\":31964:32041   */\n      swap4\n      pop\n        /* \"#utility.yul\":32050:32115   */\n      tag_782\n        /* \"#utility.yul\":32108:32114   */\n      dup2\n        /* \"#utility.yul\":32103:32106   */\n      dup6\n        /* \"#utility.yul\":32096:32100   */\n      0x20\n        /* \"#utility.yul\":32089:32094   */\n      dup7\n        /* \"#utility.yul\":32085:32101   */\n      add\n        /* \"#utility.yul\":32050:32115   */\n      tag_396\n      jump\t// in\n    tag_782:\n        /* \"#utility.yul\":32140:32169   */\n      tag_783\n        /* \"#utility.yul\":32162:32168   */\n      dup2\n        /* \"#utility.yul\":32140:32169   */\n      tag_397\n      jump\t// in\n    tag_783:\n        /* \"#utility.yul\":32135:32138   */\n      dup5\n        /* \"#utility.yul\":32131:32170   */\n      add\n        /* \"#utility.yul\":32124:32170   */\n      swap2\n      pop\n        /* \"#utility.yul\":31893:32176   */\n      pop\n        /* \"#utility.yul\":31803:32176   */\n      swap3\n      swap2\n      pop\n      pop\n      jump\t// out\n        /* \"#utility.yul\":32182:32822   */\n    tag_351:\n        /* \"#utility.yul\":32377:32381   */\n      0x00\n        /* \"#utility.yul\":32415:32418   */\n      0x80\n        /* \"#utility.yul\":32404:32413   */\n      dup3\n        /* \"#utility.yul\":32400:32419   */\n      add\n        /* \"#utility.yul\":32392:32419   */\n      swap1\n      pop\n        /* \"#utility.yul\":32429:32500   */\n      tag_785\n        /* \"#utility.yul\":32497:32498   */\n      0x00\n        /* \"#utility.yul\":32486:32495   */\n      dup4\n        /* \"#utility.yul\":32482:32499   */\n      add\n        /* \"#utility.yul\":32473:32479   */\n      dup8\n        /* \"#utility.yul\":32429:32500   */\n      tag_404\n      jump\t// in\n    tag_785:\n        /* \"#utility.yul\":32510:32582   */\n      tag_786\n        /* \"#utility.yul\":32578:32580   */\n      0x20\n        /* \"#utility.yul\":32567:32576   */\n      dup4\n        /* \"#utility.yul\":32563:32581   */\n      add\n        /* \"#utility.yul\":32554:32560   */\n      dup7\n        /* \"#utility.yul\":32510:32582   */\n      tag_404\n      jump\t// in\n    tag_786:\n        /* \"#utility.yul\":32592:32664   */\n      tag_787\n        /* \"#utility.yul\":32660:32662   */\n      0x40\n        /* \"#utility.yul\":32649:32658   */\n      dup4\n        /* \"#utility.yul\":32645:32663   */\n      add\n        /* \"#utility.yul\":32636:32642   */\n      dup6\n        /* \"#utility.yul\":32592:32664   */\n      tag_407\n      jump\t// in\n    tag_787:\n        /* \"#utility.yul\":32711:32720   */\n      dup2\n        /* \"#utility.yul\":32705:32709   */\n      dup2\n        /* \"#utility.yul\":32701:32721   */\n      sub\n        /* \"#utility.yul\":32696:32698   */\n      0x60\n        /* \"#utility.yul\":32685:32694   */\n      dup4\n        /* \"#utility.yul\":32681:32699   */\n      add\n        /* \"#utility.yul\":32674:32722   */\n      mstore\n        /* \"#utility.yul\":32739:32815   */\n      tag_788\n        /* \"#utility.yul\":32810:32814   */\n      dup2\n        /* \"#utility.yul\":32801:32807   */\n      dup5\n        /* \"#utility.yul\":32739:32815   */\n      tag_467\n      jump\t// in\n    tag_788:\n        /* \"#utility.yul\":32731:32815   */\n      swap1\n      pop\n        /* \"#utility.yul\":32182:32822   */\n      swap6\n      swap5\n      pop\n      pop\n      pop\n      pop\n      pop\n      jump\t// out\n        /* \"#utility.yul\":32828:32969   */\n    tag_468:\n        /* \"#utility.yul\":32884:32889   */\n      0x00\n        /* \"#utility.yul\":32915:32921   */\n      dup2\n        /* \"#utility.yul\":32909:32922   */\n      mload\n        /* \"#utility.yul\":32900:32922   */\n      swap1\n      pop\n        /* \"#utility.yul\":32931:32963   */\n      tag_790\n        /* \"#utility.yul\":32957:32962   */\n      dup2\n        /* \"#utility.yul\":32931:32963   */\n      tag_390\n      jump\t// in\n    tag_790:\n        /* \"#utility.yul\":32828:32969   */\n      swap3\n      swap2\n      pop\n      pop\n      jump\t// out\n        /* \"#utility.yul\":32975:33324   */\n    tag_355:\n        /* \"#utility.yul\":33044:33050   */\n      0x00\n        /* \"#utility.yul\":33093:33095   */\n      0x20\n        /* \"#utility.yul\":33081:33090   */\n      dup3\n        /* \"#utility.yul\":33072:33079   */\n      dup5\n        /* \"#utility.yul\":33068:33091   */\n      sub\n        /* \"#utility.yul\":33064:33096   */\n      slt\n        /* \"#utility.yul\":33061:33180   */\n      iszero\n      tag_792\n      jumpi\n        /* \"#utility.yul\":33099:33178   */\n      tag_793\n      tag_387\n      jump\t// in\n    tag_793:\n        /* \"#utility.yul\":33061:33180   */\n    tag_792:\n        /* \"#utility.yul\":33219:33220   */\n      0x00\n        /* \"#utility.yul\":33244:33307   */\n      tag_794\n        /* \"#utility.yul\":33299:33306   */\n      dup5\n        /* \"#utility.yul\":33290:33296   */\n      dup3\n        /* \"#utility.yul\":33279:33288   */\n      dup6\n        /* \"#utility.yul\":33275:33297   */\n      add\n        /* \"#utility.yul\":33244:33307   */\n      tag_468\n      jump\t// in\n    tag_794:\n        /* \"#utility.yul\":33234:33307   */\n      swap2\n      pop\n        /* \"#utility.yul\":33190:33317   */\n      pop\n        /* \"#utility.yul\":32975:33324   */\n      swap3\n      swap2\n      pop\n      pop\n      jump\t// out\n\n    auxdata: 0xa26469706673582212208402e88a3dcc3cf65984e5a42a05d5ae71e5dd2c5ee349ad0bf63b82a732825864736f6c63430008140033\n}\n",
				"bytecode": {
					"linkReferences": {},
					"object": "608060405234801562000010575f80fd5b506040518060400160405280601a81526020017f687474703a2f2f6170692e736f756c736f63696574792e67672f000000000000815250620000676200005b6200014060201b60201c565b6200014760201b60201c565b80600190816200007891906200046c565b503373ffffffffffffffffffffffffffffffffffffffff167fddb33c9627985605622b2c4e8b308152b557aeae8ba59e2f05038c9d8ed6ae84426040518060400160405280600681526020017f484f4e53425400000000000000000000000000000000000000000000000000008152506040518060400160405280600681526020017f484f4e534254000000000000000000000000000000000000000000000000000081525085604051620001319493929190620005eb565b60405180910390a2506200064b565b5f33905090565b5f805f9054906101000a900473ffffffffffffffffffffffffffffffffffffffff169050815f806101000a81548173ffffffffffffffffffffffffffffffffffffffff021916908373ffffffffffffffffffffffffffffffffffffffff1602179055508173ffffffffffffffffffffffffffffffffffffffff168173ffffffffffffffffffffffffffffffffffffffff167f8be0079c531659141344cd1fd0a4f28419497f9722a3daafe3b4186f6b6457e060405160405180910390a35050565b5f81519050919050565b7f4e487b71000000000000000000000000000000000000000000000000000000005f52604160045260245ffd5b7f4e487b71000000000000000000000000000000000000000000000000000000005f52602260045260245ffd5b5f60028204905060018216806200028457607f821691505b6020821081036200029a57620002996200023f565b5b50919050565b5f819050815f5260205f209050919050565b5f6020601f8301049050919050565b5f82821b905092915050565b5f60088302620002fe7fffffffffffffffffffffffffffffffffffffffffffffffffffffffffffffffff82620002c1565b6200030a8683620002c1565b95508019841693508086168417925050509392505050565b5f819050919050565b5f819050919050565b5f620003546200034e620003488462000322565b6200032b565b62000322565b9050919050565b5f819050919050565b6200036f8362000334565b620003876200037e826200035b565b848454620002cd565b825550505050565b5f90565b6200039d6200038f565b620003aa81848462000364565b505050565b5b81811015620003d157620003c55f8262000393565b600181019050620003b0565b5050565b601f8211156200042057620003ea81620002a0565b620003f584620002b2565b8101602085101562000405578190505b6200041d6200041485620002b2565b830182620003af565b50505b505050565b5f82821c905092915050565b5f620004425f198460080262000425565b1980831691505092915050565b5f6200045c838362000431565b9150826002028217905092915050565b620004778262000208565b67ffffffffffffffff81111562000493576200049262000212565b5b6200049f82546200026c565b620004ac828285620003d5565b5f60209050601f831160018114620004e2575f8415620004cd578287015190505b620004d985826200044f565b86555062000548565b601f198416620004f286620002a0565b5f5b828110156200051b57848901518255600182019150602085019450602081019050620004f4565b868310156200053b578489015162000537601f89168262000431565b8355505b6001600288020188555050505b505050505050565b6200055b8162000322565b82525050565b5f82825260208201905092915050565b5f5b838110156200059057808201518184015260208101905062000573565b5f8484015250505050565b5f601f19601f8301169050919050565b5f620005b78262000208565b620005c3818562000561565b9350620005d581856020860162000571565b620005e0816200059b565b840191505092915050565b5f608082019050620006005f83018762000550565b8181036020830152620006148186620005ab565b905081810360408301526200062a8185620005ab565b90508181036060830152620006408184620005ab565b905095945050505050565b612d4180620006595f395ff3fe608060405234801561000f575f80fd5b50600436106101cd575f3560e01c806376aed2e111610102578063be37e907116100a0578063e1604b701161006f578063e1604b7014610587578063e985e9c5146105a5578063f2fde38b146105d5578063f3ba5946146105f1576101cd565b8063be37e907146104c7578063c87b56dd146104f7578063ce35de9514610527578063e0df5b6f14610557576101cd565b806395d89b41116100dc57806395d89b41146104555780639b25285214610473578063a22cb4651461048f578063b88d4fde146104ab576101cd565b806376aed2e1146103eb5780638c10081f1461041b5780638da5cb5b14610437576101cd565b80632f745c591161016f57806351c18e0c1161014957806351c18e0c146103515780636352211e1461038157806370a08231146103b1578063715018a6146103e1576101cd565b80632f745c59146102d557806340c10f191461030557806342842e0e14610335576101cd565b8063095ea7b3116101ab578063095ea7b31461024f57806318160ddd1461026b5780631c02bc311461028957806323b872dd146102b9576101cd565b806301ffc9a7146101d157806306fdde0314610201578063081812fc1461021f575b5f80fd5b6101eb60048036038101906101e69190611c95565b610621565b6040516101f89190611cda565b60405180910390f35b61020961069a565b6040516102169190611d7d565b60405180910390f35b61023960048036038101906102349190611dd0565b6106d7565b6040516102469190611e3a565b60405180910390f35b61026960048036038101906102649190611e7d565b610713565b005b61027361074e565b6040516102809190611eca565b60405180910390f35b6102a3600480360381019061029e9190611f0d565b610757565b6040516102b09190611cda565b60405180910390f35b6102d360048036038101906102ce9190611f38565b610808565b005b6102ef60048036038101906102ea9190611e7d565b610843565b6040516102fc9190611eca565b60405180910390f35b61031f600480360381019061031a9190611e7d565b610962565b60405161032c9190611eca565b60405180910390f35b61034f600480360381019061034a9190611f38565b61097d565b005b61036b60048036038101906103669190611dd0565b6109b8565b6040516103789190611eca565b60405180910390f35b61039b60048036038101906103969190611dd0565b6109db565b6040516103a89190611e3a565b60405180910390f35b6103cb60048036038101906103c69190611f88565b610a1d565b6040516103d89190611eca565b60405180910390f35b6103e9610a38565b005b61040560048036038101906104009190611dd0565b610a4b565b6040516104129190611eca565b60405180910390f35b61043560048036038101906104309190611fb3565b610a6e565b005b61043f610ac8565b60405161044c9190611e3a565b60405180910390f35b61045d610aef565b60405161046a9190611d7d565b60405180910390f35b61048d60048036038101906104889190611e7d565b610b2c565b005b6104a960048036038101906104a49190611ff1565b610b8f565b005b6104c560048036038101906104c09190612090565b610bca565b005b6104e160048036038101906104dc9190611e7d565b610c05565b6040516104ee9190611eca565b60405180910390f35b610511600480360381019061050c9190611dd0565b610c6d565b60405161051e9190611d7d565b60405180910390f35b610541600480360381019061053c9190611f88565b610ce7565b60405161054e9190611cda565b60405180910390f35b610571600480360381019061056c919061223c565b610cf8565b60405161057e9190611d7d565b60405180910390f35b61058f610df0565b60405161059c9190611eca565b60405180910390f35b6105bf60048036038101906105ba9190612283565b610df9565b6040516105cc9190611cda565b60405180910390f35b6105ef60048036038101906105ea9190611f88565b610e35565b005b61060b60048036038101906106069190611e7d565b610eb7565b6040516106189190611cda565b60405180910390f35b5f7f80ac58cd000000000000000000000000000000000000000000000000000000007bffffffffffffffffffffffffffffffffffffffffffffffffffffffff1916827bffffffffffffffffffffffffffffffffffffffffffffffffffffffff19161480610693575061069282610eca565b5b9050919050565b60606040518060400160405280600681526020017f484f4e5342540000000000000000000000000000000000000000000000000000815250905090565b5f6040517f9fc6e75800000000000000000000000000000000000000000000000000000000815260040161070a9061230b565b60405180910390fd5b6040517f9fc6e75800000000000000000000000000000000000000000000000000000000815260040161074590612373565b60405180910390fd5b5f600354905090565b5f8061076233610f33565b116107a457336040517ffaceffef00000000000000000000000000000000000000000000000000000000815260040161079b9190611e3a565b60405180910390fd5b8160085f3373ffffffffffffffffffffffffffffffffffffffff1673ffffffffffffffffffffffffffffffffffffffff1681526020019081526020015f205f6101000a81548160ff02191690831515021790555061080133610f79565b9050919050565b6040517f9fc6e75800000000000000000000000000000000000000000000000000000000815260040161083a906123db565b60405180910390fd5b5f61084d83610f8a565b5061085783610f33565b8210610898576040517f08c379a000000000000000000000000000000000000000000000000000000000815260040161088f90612443565b60405180910390fd5b5f73ffffffffffffffffffffffffffffffffffffffff168373ffffffffffffffffffffffffffffffffffffffff1603610908575f6040517f74f5e87d0000000000000000000000000000000000000000000000000000000081526004016108ff9190611e3a565b60405180910390fd5b5f60095f8573ffffffffffffffffffffffffffffffffffffffff1673ffffffffffffffffffffffffffffffffffffffff1681526020019081526020015f205f8481526020019081526020015f205490508091505092915050565b5f61096b611025565b61097583836110a3565b905092915050565b6040517f9fc6e7580000000000000000000000000000000000000000000000000000000081526004016109af906124ab565b60405180910390fd5b5f6109c28261113b565b60065f8381526020019081526020015f20549050919050565b5f6109e58261113b565b60045f8381526020019081526020015f205f9054906101000a900473ffffffffffffffffffffffffffffffffffffffff169050919050565b5f610a2782610f8a565b50610a3182610f33565b9050919050565b610a40611025565b610a495f6111c2565b565b5f610a558261113b565b60055f8381526020019081526020015f20549050919050565b5f610a7833610f33565b11610aba57336040517ffaceffef000000000000000000000000000000000000000000000000000000008152600401610ab19190611e3a565b60405180910390fd5b610ac48282611283565b5050565b5f805f9054906101000a900473ffffffffffffffffffffffffffffffffffffffff16905090565b60606040518060400160405280600681526020017f484f4e5342540000000000000000000000000000000000000000000000000000815250905090565b610b34611025565b610b3e82826112ea565b610b815781816040517f9960858d000000000000000000000000000000000000000000000000000000008152600401610b789291906124c9565b60405180910390fd5b610b8b828261134c565b5050565b6040517f9fc6e758000000000000000000000000000000000000000000000000000000008152600401610bc19061253a565b60405180910390fd5b6040517f9fc6e758000000000000000000000000000000000000000000000000000000008152600401610bfc906124ab565b60405180910390fd5b5f610c0e611025565b610c1883836112ea565b610c5b5782826040517f9960858d000000000000000000000000000000000000000000000000000000008152600401610c529291906124c9565b60405180910390fd5b610c6583836113b4565b905092915050565b6060610c788261113b565b5f60018054610c8690612585565b905011610ca15760405180602001604052805f815250610ce0565b6001610cac83611455565b60055f8581526020019081526020015f2054604051602001610cd0939291906126eb565b6040516020818303038152906040525b9050919050565b5f610cf182610f8a565b9050919050565b6060610d02611025565b8160019081610d1191906128b5565b503373ffffffffffffffffffffffffffffffffffffffff167f70e6a9dc20d331ce8e747d7de8444f26f544d9003beb11d8c46e802ab8d36fc983604051610d589190611d7d565b60405180910390a260018054610d6d90612585565b80601f0160208091040260200160405190810160405280929190818152602001828054610d9990612585565b8015610de45780601f10610dbb57610100808354040283529160200191610de4565b820191905f5260205f20905b815481529060010190602001808311610dc757829003601f168201915b50505050509050919050565b5f600254905090565b5f6040517f9fc6e758000000000000000000000000000000000000000000000000000000008152600401610e2c906129ce565b60405180910390fd5b610e3d611025565b5f73ffffffffffffffffffffffffffffffffffffffff168173ffffffffffffffffffffffffffffffffffffffff1603610eab576040517f08c379a0000000000000000000000000000000000000000000000000000000008152600401610ea290612a5c565b60405180910390fd5b610eb4816111c2565b50565b5f610ec283836112ea565b905092915050565b5f7f01ffc9a7000000000000000000000000000000000000000000000000000000007bffffffffffffffffffffffffffffffffffffffffffffffffffffffff1916827bffffffffffffffffffffffffffffffffffffffffffffffffffffffff1916149050919050565b5f60075f8373ffffffffffffffffffffffffffffffffffffffff1673ffffffffffffffffffffffffffffffffffffffff1681526020019081526020015f20549050919050565b5f610f838261151f565b9050919050565b5f6001151560085f8473ffffffffffffffffffffffffffffffffffffffff1673ffffffffffffffffffffffffffffffffffffffff1681526020019081526020015f205f9054906101000a900460ff1615150361101d57816040517f904e928b0000000000000000000000000000000000000000000000000000000081526004016110149190611e3a565b60405180910390fd5b5f9050919050565b61102d611571565b73ffffffffffffffffffffffffffffffffffffffff1661104b610ac8565b73ffffffffffffffffffffffffffffffffffffffff16146110a1576040517f08c379a000000000000000000000000000000000000000000000000000000000815260040161109890612ac4565b60405180910390fd5b565b5f806110af8484611578565b90506110f25f85836040518060400160405280600881526020017f4d696e742053425400000000000000000000000000000000000000000000000081525061189c565b611131576040517f08c379a000000000000000000000000000000000000000000000000000000000815260040161112890612b52565b60405180910390fd5b8091505092915050565b61114481611989565b61118557806040517f24476a3f00000000000000000000000000000000000000000000000000000000815260040161117c9190611eca565b60405180910390fd5b6111be60045f8381526020019081526020015f205f9054906101000a900473ffffffffffffffffffffffffffffffffffffffff16610f8a565b5050565b5f805f9054906101000a900473ffffffffffffffffffffffffffffffffffffffff169050815f806101000a81548173ffffffffffffffffffffffffffffffffffffffff021916908373ffffffffffffffffffffffffffffffffffffffff1602179055508173ffffffffffffffffffffffffffffffffffffffff168173ffffffffffffffffffffffffffffffffffffffff167f8be0079c531659141344cd1fd0a4f28419497f9722a3daafe3b4186f6b6457e060405160405180910390a35050565b80600a5f3373ffffffffffffffffffffffffffffffffffffffff1673ffffffffffffffffffffffffffffffffffffffff1681526020019081526020015f205f8481526020019081526020015f205f6101000a81548160ff0219169083151502179055505050565b5f600a5f8473ffffffffffffffffffffffffffffffffffffffff1673ffffffffffffffffffffffffffffffffffffffff1681526020019081526020015f205f8381526020019081526020015f205f9054906101000a900460ff16905092915050565b61135682826119c9565b5f60065f8381526020019081526020015f2081905550808273ffffffffffffffffffffffffffffffffffffffff167f154fa90f2d3692df165afacdcd7755b2e9d98a892a80cc1dda63f3a9cc1e64a460405160405180910390a35050565b5f6113bf83836119c9565b600160065f8481526020019081526020015f205f8282546113e09190612b9d565b925050819055505f60065f8481526020019081526020015f20549050808473ffffffffffffffffffffffffffffffffffffffff167f48ffd7fdb1c1a0561a2d410317f6bb839aab64898de6fc73ee703a9c0dc0a36c856040516114439190611eca565b60405180910390a38091505092915050565b60605f600161146384611a45565b0190505f8167ffffffffffffffff81111561148157611480612118565b5b6040519080825280601f01601f1916602001820160405280156114b35781602001600182028036833780820191505090505b5090505f82602001820190505b600115611514578080600190039150507f3031323334353637383961626364656600000000000000000000000000000000600a86061a8153600a858161150957611508612bd0565b5b0494505f85036114c0575b819350505050919050565b5f60085f8373ffffffffffffffffffffffffffffffffffffffff1673ffffffffffffffffffffffffffffffffffffffff1681526020019081526020015f205f9054906101000a900460ff169050919050565b5f33905090565b5f8060016003546115899190612b9d565b90505f73ffffffffffffffffffffffffffffffffffffffff168473ffffffffffffffffffffffffffffffffffffffff16036115fb575f6040517f74f5e87d0000000000000000000000000000000000000000000000000000000081526004016115f29190611e3a565b60405180910390fd5b61160481611989565b1561164657806040517ff342bdc200000000000000000000000000000000000000000000000000000000815260040161163d9190611eca565b60405180910390fd5b61164f84611b96565b61166d57600160025f8282546116659190612b9d565b925050819055505b600160075f8673ffffffffffffffffffffffffffffffffffffffff1673ffffffffffffffffffffffffffffffffffffffff1681526020019081526020015f205f8282540192505081905550600160035f82825401925050819055508360045f8381526020019081526020015f205f6101000a81548173ffffffffffffffffffffffffffffffffffffffff021916908373ffffffffffffffffffffffffffffffffffffffff1602179055508260055f8381526020019081526020015f2081905550600160065f8381526020019081526020015f20819055506001600a5f8673ffffffffffffffffffffffffffffffffffffffff1673ffffffffffffffffffffffffffffffffffffffff1681526020019081526020015f205f8381526020019081526020015f205f6101000a81548160ff0219169083151502179055508060095f8673ffffffffffffffffffffffffffffffffffffffff1673ffffffffffffffffffffffffffffffffffffffff1681526020019081526020015f205f600160075f8973ffffffffffffffffffffffffffffffffffffffff1673ffffffffffffffffffffffffffffffffffffffff1681526020019081526020015f20546118319190612bfd565b81526020019081526020015f208190555082818573ffffffffffffffffffffffffffffffffffffffff167f2f00e3cdd69a77be7ed215ec7b2a36784dd158f921fca79ac29deffa353fe6ee5f60405161188a9190611e3a565b60405180910390a48091505092915050565b5f6118a684611bdf565b6118b35760019050611981565b5f8473ffffffffffffffffffffffffffffffffffffffff1663150b7a02338887876040518563ffffffff1660e01b81526004016118f39493929190612c82565b6020604051808303815f875af115801561190f573d5f803e3d5ffd5b505050506040513d601f19601f820116820180604052508101906119339190612ce0565b905063150b7a0260e01b7bffffffffffffffffffffffffffffffffffffffffffffffffffffffff1916817bffffffffffffffffffffffffffffffffffffffffffffffffffffffff1916149150505b949350505050565b5f8073ffffffffffffffffffffffffffffffffffffffff166119aa83611bf6565b73ffffffffffffffffffffffffffffffffffffffff1614159050919050565b8173ffffffffffffffffffffffffffffffffffffffff166119e982611bf6565b73ffffffffffffffffffffffffffffffffffffffff1614611a4157816040517f50159299000000000000000000000000000000000000000000000000000000008152600401611a389190611e3a565b60405180910390fd5b5050565b5f805f90507a184f03e93ff9f4daa797ed6e38ed64bf6a1f0100000000000000008310611aa1577a184f03e93ff9f4daa797ed6e38ed64bf6a1f0100000000000000008381611a9757611a96612bd0565b5b0492506040810190505b6d04ee2d6d415b85acef81000000008310611ade576d04ee2d6d415b85acef81000000008381611ad457611ad3612bd0565b5b0492506020810190505b662386f26fc100008310611b0d57662386f26fc100008381611b0357611b02612bd0565b5b0492506010810190505b6305f5e1008310611b36576305f5e1008381611b2c57611b2b612bd0565b5b0492506008810190505b6127108310611b5b576127108381611b5157611b50612bd0565b5b0492506004810190505b60648310611b7e5760648381611b7457611b73612bd0565b5b0492506002810190505b600a8310611b8d576001810190505b80915050919050565b5f8060075f8473ffffffffffffffffffffffffffffffffffffffff1673ffffffffffffffffffffffffffffffffffffffff1681526020019081526020015f205414159050919050565b5f80823b90505f8163ffffffff1611915050919050565b5f60045f8381526020019081526020015f205f9054906101000a900473ffffffffffffffffffffffffffffffffffffffff169050919050565b5f604051905090565b5f80fd5b5f80fd5b5f7fffffffff0000000000000000000000000000000000000000000000000000000082169050919050565b611c7481611c40565b8114611c7e575f80fd5b50565b5f81359050611c8f81611c6b565b92915050565b5f60208284031215611caa57611ca9611c38565b5b5f611cb784828501611c81565b91505092915050565b5f8115159050919050565b611cd481611cc0565b82525050565b5f602082019050611ced5f830184611ccb565b92915050565b5f81519050919050565b5f82825260208201905092915050565b5f5b83811015611d2a578082015181840152602081019050611d0f565b5f8484015250505050565b5f601f19601f8301169050919050565b5f611d4f82611cf3565b611d598185611cfd565b9350611d69818560208601611d0d565b611d7281611d35565b840191505092915050565b5f6020820190508181035f830152611d958184611d45565b905092915050565b5f819050919050565b611daf81611d9d565b8114611db9575f80fd5b50565b5f81359050611dca81611da6565b92915050565b5f60208284031215611de557611de4611c38565b5b5f611df284828501611dbc565b91505092915050565b5f73ffffffffffffffffffffffffffffffffffffffff82169050919050565b5f611e2482611dfb565b9050919050565b611e3481611e1a565b82525050565b5f602082019050611e4d5f830184611e2b565b92915050565b611e5c81611e1a565b8114611e66575f80fd5b50565b5f81359050611e7781611e53565b92915050565b5f8060408385031215611e9357611e92611c38565b5b5f611ea085828601611e69565b9250506020611eb185828601611dbc565b9150509250929050565b611ec481611d9d565b82525050565b5f602082019050611edd5f830184611ebb565b92915050565b611eec81611cc0565b8114611ef6575f80fd5b50565b5f81359050611f0781611ee3565b92915050565b5f60208284031215611f2257611f21611c38565b5b5f611f2f84828501611ef9565b91505092915050565b5f805f60608486031215611f4f57611f4e611c38565b5b5f611f5c86828701611e69565b9350506020611f6d86828701611e69565b9250506040611f7e86828701611dbc565b9150509250925092565b5f60208284031215611f9d57611f9c611c38565b5b5f611faa84828501611e69565b91505092915050565b5f8060408385031215611fc957611fc8611c38565b5b5f611fd685828601611dbc565b9250506020611fe785828601611ef9565b9150509250929050565b5f806040838503121561200757612006611c38565b5b5f61201485828601611e69565b925050602061202585828601611ef9565b9150509250929050565b5f80fd5b5f80fd5b5f80fd5b5f8083601f8401126120505761204f61202f565b5b8235905067ffffffffffffffff81111561206d5761206c612033565b5b60208301915083600182028301111561208957612088612037565b5b9250929050565b5f805f805f608086880312156120a9576120a8611c38565b5b5f6120b688828901611e69565b95505060206120c788828901611e69565b94505060406120d888828901611dbc565b935050606086013567ffffffffffffffff8111156120f9576120f8611c3c565b5b6121058882890161203b565b92509250509295509295909350565b5f80fd5b7f4e487b71000000000000000000000000000000000000000000000000000000005f52604160045260245ffd5b61214e82611d35565b810181811067ffffffffffffffff8211171561216d5761216c612118565b5b80604052505050565b5f61217f611c2f565b905061218b8282612145565b919050565b5f67ffffffffffffffff8211156121aa576121a9612118565b5b6121b382611d35565b9050602081019050919050565b828183375f83830152505050565b5f6121e06121db84612190565b612176565b9050828152602081018484840111156121fc576121fb612114565b5b6122078482856121c0565b509392505050565b5f82601f8301126122235761222261202f565b5b81356122338482602086016121ce565b91505092915050565b5f6020828403121561225157612250611c38565b5b5f82013567ffffffffffffffff81111561226e5761226d611c3c565b5b61227a8482850161220f565b91505092915050565b5f806040838503121561229957612298611c38565b5b5f6122a685828601611e69565b92505060206122b785828601611e69565b9150509250929050565b7f676574417070726f7665640000000000000000000000000000000000000000005f82015250565b5f6122f5600b83611cfd565b9150612300826122c1565b602082019050919050565b5f6020820190508181035f830152612322816122e9565b9050919050565b7f617070726f7665000000000000000000000000000000000000000000000000005f82015250565b5f61235d600783611cfd565b915061236882612329565b602082019050919050565b5f6020820190508181035f83015261238a81612351565b9050919050565b7f7472616e7366657246726f6d00000000000000000000000000000000000000005f82015250565b5f6123c5600c83611cfd565b91506123d082612391565b602082019050919050565b5f6020820190508181035f8301526123f2816123b9565b9050919050565b7f4f7574206f6620496e64657800000000000000000000000000000000000000005f82015250565b5f61242d600c83611cfd565b9150612438826123f9565b602082019050919050565b5f6020820190508181035f83015261245a81612421565b9050919050565b7f736166655472616e7366657246726f6d000000000000000000000000000000005f82015250565b5f612495601083611cfd565b91506124a082612461565b602082019050919050565b5f6020820190508181035f8301526124c281612489565b9050919050565b5f6040820190506124dc5f830185611e2b565b6124e96020830184611ebb565b9392505050565b7f736574417070726f76616c466f72416c6c0000000000000000000000000000005f82015250565b5f612524601183611cfd565b915061252f826124f0565b602082019050919050565b5f6020820190508181035f83015261255181612518565b9050919050565b7f4e487b71000000000000000000000000000000000000000000000000000000005f52602260045260245ffd5b5f600282049050600182168061259c57607f821691505b6020821081036125af576125ae612558565b5b50919050565b5f81905092915050565b5f819050815f5260205f209050919050565b5f81546125dd81612585565b6125e781866125b5565b9450600182165f8114612601576001811461261657612648565b60ff1983168652811515820286019350612648565b61261f856125bf565b5f5b8381101561264057815481890152600182019150602081019050612621565b838801955050505b50505092915050565b5f61265b82611cf3565b61266581856125b5565b9350612675818560208601611d0d565b80840191505092915050565b7f3f746f6b656e547970653d0000000000000000000000000000000000000000005f82015250565b5f6126b5600b836125b5565b91506126c082612681565b600b82019050919050565b5f819050919050565b6126e56126e082611d9d565b6126cb565b82525050565b5f6126f682866125d1565b91506127028285612651565b915061270d826126a9565b915061271982846126d4565b602082019150819050949350505050565b5f6020601f8301049050919050565b5f82821b905092915050565b5f600883026127747fffffffffffffffffffffffffffffffffffffffffffffffffffffffffffffffff82612739565b61277e8683612739565b95508019841693508086168417925050509392505050565b5f819050919050565b5f6127b96127b46127af84611d9d565b612796565b611d9d565b9050919050565b5f819050919050565b6127d28361279f565b6127e66127de826127c0565b848454612745565b825550505050565b5f90565b6127fa6127ee565b6128058184846127c9565b505050565b5b818110156128285761281d5f826127f2565b60018101905061280b565b5050565b601f82111561286d5761283e816125bf565b6128478461272a565b81016020851015612856578190505b61286a6128628561272a565b83018261280a565b50505b505050565b5f82821c905092915050565b5f61288d5f1984600802612872565b1980831691505092915050565b5f6128a5838361287e565b9150826002028217905092915050565b6128be82611cf3565b67ffffffffffffffff8111156128d7576128d6612118565b5b6128e18254612585565b6128ec82828561282c565b5f60209050601f83116001811461291d575f841561290b578287015190505b612915858261289a565b86555061297c565b601f19841661292b866125bf565b5f5b828110156129525784890151825560018201915060208501945060208101905061292d565b8683101561296f578489015161296b601f89168261287e565b8355505b6001600288020188555050505b505050505050565b7f6973417070726f766564466f72416c6c000000000000000000000000000000005f82015250565b5f6129b8601083611cfd565b91506129c382612984565b602082019050919050565b5f6020820190508181035f8301526129e5816129ac565b9050919050565b7f4f776e61626c653a206e6577206f776e657220697320746865207a65726f20615f8201527f6464726573730000000000000000000000000000000000000000000000000000602082015250565b5f612a46602683611cfd565b9150612a51826129ec565b604082019050919050565b5f6020820190508181035f830152612a7381612a3a565b9050919050565b7f4f776e61626c653a2063616c6c6572206973206e6f7420746865206f776e65725f82015250565b5f612aae602083611cfd565b9150612ab982612a7a565b602082019050919050565b5f6020820190508181035f830152612adb81612aa2565b9050919050565b7f4552433732313a207472616e7366657220746f206e6f6e2045524337323152655f8201527f63656976657220696d706c656d656e7465720000000000000000000000000000602082015250565b5f612b3c603283611cfd565b9150612b4782612ae2565b604082019050919050565b5f6020820190508181035f830152612b6981612b30565b9050919050565b7f4e487b71000000000000000000000000000000000000000000000000000000005f52601160045260245ffd5b5f612ba782611d9d565b9150612bb283611d9d565b9250828201905080821115612bca57612bc9612b70565b5b92915050565b7f4e487b71000000000000000000000000000000000000000000000000000000005f52601260045260245ffd5b5f612c0782611d9d565b9150612c1283611d9d565b9250828203905081811115612c2a57612c29612b70565b5b92915050565b5f81519050919050565b5f82825260208201905092915050565b5f612c5482612c30565b612c5e8185612c3a565b9350612c6e818560208601611d0d565b612c7781611d35565b840191505092915050565b5f608082019050612c955f830187611e2b565b612ca26020830186611e2b565b612caf6040830185611ebb565b8181036060830152612cc18184612c4a565b905095945050505050565b5f81519050612cda81611c6b565b92915050565b5f60208284031215612cf557612cf4611c38565b5b5f612d0284828501612ccc565b9150509291505056fea26469706673582212208402e88a3dcc3cf65984e5a42a05d5ae71e5dd2c5ee349ad0bf63b82a732825864736f6c63430008140033",
					"opcodes": "PUSH1 0x80 PUSH1 0x40 MSTORE CALLVALUE DUP1 ISZERO PUSH3 0x10 JUMPI PUSH0 DUP1 REVERT JUMPDEST POP PUSH1 0x40 MLOAD DUP1 PUSH1 0x40 ADD PUSH1 0x40 MSTORE DUP1 PUSH1 0x1A DUP2 MSTORE PUSH1 0x20 ADD PUSH32 0x687474703A2F2F6170692E736F756C736F63696574792E67672F000000000000 DUP2 MSTORE POP PUSH3 0x67 PUSH3 0x5B PUSH3 0x140 PUSH1 0x20 SHL PUSH1 0x20 SHR JUMP JUMPDEST PUSH3 0x147 PUSH1 0x20 SHL PUSH1 0x20 SHR JUMP JUMPDEST DUP1 PUSH1 0x1 SWAP1 DUP2 PUSH3 0x78 SWAP2 SWAP1 PUSH3 0x46C JUMP JUMPDEST POP CALLER PUSH20 0xFFFFFFFFFFFFFFFFFFFFFFFFFFFFFFFFFFFFFFFF AND PUSH32 0xDDB33C9627985605622B2C4E8B308152B557AEAE8BA59E2F05038C9D8ED6AE84 TIMESTAMP PUSH1 0x40 MLOAD DUP1 PUSH1 0x40 ADD PUSH1 0x40 MSTORE DUP1 PUSH1 0x6 DUP2 MSTORE PUSH1 0x20 ADD PUSH32 0x484F4E5342540000000000000000000000000000000000000000000000000000 DUP2 MSTORE POP PUSH1 0x40 MLOAD DUP1 PUSH1 0x40 ADD PUSH1 0x40 MSTORE DUP1 PUSH1 0x6 DUP2 MSTORE PUSH1 0x20 ADD PUSH32 0x484F4E5342540000000000000000000000000000000000000000000000000000 DUP2 MSTORE POP DUP6 PUSH1 0x40 MLOAD PUSH3 0x131 SWAP5 SWAP4 SWAP3 SWAP2 SWAP1 PUSH3 0x5EB JUMP JUMPDEST PUSH1 0x40 MLOAD DUP1 SWAP2 SUB SWAP1 LOG2 POP PUSH3 0x64B JUMP JUMPDEST PUSH0 CALLER SWAP1 POP SWAP1 JUMP JUMPDEST PUSH0 DUP1 PUSH0 SWAP1 SLOAD SWAP1 PUSH2 0x100 EXP SWAP1 DIV PUSH20 0xFFFFFFFFFFFFFFFFFFFFFFFFFFFFFFFFFFFFFFFF AND SWAP1 POP DUP2 PUSH0 DUP1 PUSH2 0x100 EXP DUP2 SLOAD DUP2 PUSH20 0xFFFFFFFFFFFFFFFFFFFFFFFFFFFFFFFFFFFFFFFF MUL NOT AND SWAP1 DUP4 PUSH20 0xFFFFFFFFFFFFFFFFFFFFFFFFFFFFFFFFFFFFFFFF AND MUL OR SWAP1 SSTORE POP DUP2 PUSH20 0xFFFFFFFFFFFFFFFFFFFFFFFFFFFFFFFFFFFFFFFF AND DUP2 PUSH20 0xFFFFFFFFFFFFFFFFFFFFFFFFFFFFFFFFFFFFFFFF AND PUSH32 0x8BE0079C531659141344CD1FD0A4F28419497F9722A3DAAFE3B4186F6B6457E0 PUSH1 0x40 MLOAD PUSH1 0x40 MLOAD DUP1 SWAP2 SUB SWAP1 LOG3 POP POP JUMP JUMPDEST PUSH0 DUP2 MLOAD SWAP1 POP SWAP2 SWAP1 POP JUMP JUMPDEST PUSH32 0x4E487B7100000000000000000000000000000000000000000000000000000000 PUSH0 MSTORE PUSH1 0x41 PUSH1 0x4 MSTORE PUSH1 0x24 PUSH0 REVERT JUMPDEST PUSH32 0x4E487B7100000000000000000000000000000000000000000000000000000000 PUSH0 MSTORE PUSH1 0x22 PUSH1 0x4 MSTORE PUSH1 0x24 PUSH0 REVERT JUMPDEST PUSH0 PUSH1 0x2 DUP3 DIV SWAP1 POP PUSH1 0x1 DUP3 AND DUP1 PUSH3 0x284 JUMPI PUSH1 0x7F DUP3 AND SWAP2 POP JUMPDEST PUSH1 0x20 DUP3 LT DUP2 SUB PUSH3 0x29A JUMPI PUSH3 0x299 PUSH3 0x23F JUMP JUMPDEST JUMPDEST POP SWAP2 SWAP1 POP JUMP JUMPDEST PUSH0 DUP2 SWAP1 POP DUP2 PUSH0 MSTORE PUSH1 0x20 PUSH0 KECCAK256 SWAP1 POP SWAP2 SWAP1 POP JUMP JUMPDEST PUSH0 PUSH1 0x20 PUSH1 0x1F DUP4 ADD DIV SWAP1 POP SWAP2 SWAP1 POP JUMP JUMPDEST PUSH0 DUP3 DUP3 SHL SWAP1 POP SWAP3 SWAP2 POP POP JUMP JUMPDEST PUSH0 PUSH1 0x8 DUP4 MUL PUSH3 0x2FE PUSH32 0xFFFFFFFFFFFFFFFFFFFFFFFFFFFFFFFFFFFFFFFFFFFFFFFFFFFFFFFFFFFFFFFF DUP3 PUSH3 0x2C1 JUMP JUMPDEST PUSH3 0x30A DUP7 DUP4 PUSH3 0x2C1 JUMP JUMPDEST SWAP6 POP DUP1 NOT DUP5 AND SWAP4 POP DUP1 DUP7 AND DUP5 OR SWAP3 POP POP POP SWAP4 SWAP3 POP POP POP JUMP JUMPDEST PUSH0 DUP2 SWAP1 POP SWAP2 SWAP1 POP JUMP JUMPDEST PUSH0 DUP2 SWAP1 POP SWAP2 SWAP1 POP JUMP JUMPDEST PUSH0 PUSH3 0x354 PUSH3 0x34E PUSH3 0x348 DUP5 PUSH3 0x322 JUMP JUMPDEST PUSH3 0x32B JUMP JUMPDEST PUSH3 0x322 JUMP JUMPDEST SWAP1 POP SWAP2 SWAP1 POP JUMP JUMPDEST PUSH0 DUP2 SWAP1 POP SWAP2 SWAP1 POP JUMP JUMPDEST PUSH3 0x36F DUP4 PUSH3 0x334 JUMP JUMPDEST PUSH3 0x387 PUSH3 0x37E DUP3 PUSH3 0x35B JUMP JUMPDEST DUP5 DUP5 SLOAD PUSH3 0x2CD JUMP JUMPDEST DUP3 SSTORE POP POP POP POP JUMP JUMPDEST PUSH0 SWAP1 JUMP JUMPDEST PUSH3 0x39D PUSH3 0x38F JUMP JUMPDEST PUSH3 0x3AA DUP2 DUP5 DUP5 PUSH3 0x364 JUMP JUMPDEST POP POP POP JUMP JUMPDEST JUMPDEST DUP2 DUP2 LT ISZERO PUSH3 0x3D1 JUMPI PUSH3 0x3C5 PUSH0 DUP3 PUSH3 0x393 JUMP JUMPDEST PUSH1 0x1 DUP2 ADD SWAP1 POP PUSH3 0x3B0 JUMP JUMPDEST POP POP JUMP JUMPDEST PUSH1 0x1F DUP3 GT ISZERO PUSH3 0x420 JUMPI PUSH3 0x3EA DUP2 PUSH3 0x2A0 JUMP JUMPDEST PUSH3 0x3F5 DUP5 PUSH3 0x2B2 JUMP JUMPDEST DUP2 ADD PUSH1 0x20 DUP6 LT ISZERO PUSH3 0x405 JUMPI DUP2 SWAP1 POP JUMPDEST PUSH3 0x41D PUSH3 0x414 DUP6 PUSH3 0x2B2 JUMP JUMPDEST DUP4 ADD DUP3 PUSH3 0x3AF JUMP JUMPDEST POP POP JUMPDEST POP POP POP JUMP JUMPDEST PUSH0 DUP3 DUP3 SHR SWAP1 POP SWAP3 SWAP2 POP POP JUMP JUMPDEST PUSH0 PUSH3 0x442 PUSH0 NOT DUP5 PUSH1 0x8 MUL PUSH3 0x425 JUMP JUMPDEST NOT DUP1 DUP4 AND SWAP2 POP POP SWAP3 SWAP2 POP POP JUMP JUMPDEST PUSH0 PUSH3 0x45C DUP4 DUP4 PUSH3 0x431 JUMP JUMPDEST SWAP2 POP DUP3 PUSH1 0x2 MUL DUP3 OR SWAP1 POP SWAP3 SWAP2 POP POP JUMP JUMPDEST PUSH3 0x477 DUP3 PUSH3 0x208 JUMP JUMPDEST PUSH8 0xFFFFFFFFFFFFFFFF DUP2 GT ISZERO PUSH3 0x493 JUMPI PUSH3 0x492 PUSH3 0x212 JUMP JUMPDEST JUMPDEST PUSH3 0x49F DUP3 SLOAD PUSH3 0x26C JUMP JUMPDEST PUSH3 0x4AC DUP3 DUP3 DUP6 PUSH3 0x3D5 JUMP JUMPDEST PUSH0 PUSH1 0x20 SWAP1 POP PUSH1 0x1F DUP4 GT PUSH1 0x1 DUP2 EQ PUSH3 0x4E2 JUMPI PUSH0 DUP5 ISZERO PUSH3 0x4CD JUMPI DUP3 DUP8 ADD MLOAD SWAP1 POP JUMPDEST PUSH3 0x4D9 DUP6 DUP3 PUSH3 0x44F JUMP JUMPDEST DUP7 SSTORE POP PUSH3 0x548 JUMP JUMPDEST PUSH1 0x1F NOT DUP5 AND PUSH3 0x4F2 DUP7 PUSH3 0x2A0 JUMP JUMPDEST PUSH0 JUMPDEST DUP3 DUP2 LT ISZERO PUSH3 0x51B JUMPI DUP5 DUP10 ADD MLOAD DUP3 SSTORE PUSH1 0x1 DUP3 ADD SWAP2 POP PUSH1 0x20 DUP6 ADD SWAP5 POP PUSH1 0x20 DUP2 ADD SWAP1 POP PUSH3 0x4F4 JUMP JUMPDEST DUP7 DUP4 LT ISZERO PUSH3 0x53B JUMPI DUP5 DUP10 ADD MLOAD PUSH3 0x537 PUSH1 0x1F DUP10 AND DUP3 PUSH3 0x431 JUMP JUMPDEST DUP4 SSTORE POP JUMPDEST PUSH1 0x1 PUSH1 0x2 DUP9 MUL ADD DUP9 SSTORE POP POP POP JUMPDEST POP POP POP POP POP POP JUMP JUMPDEST PUSH3 0x55B DUP2 PUSH3 0x322 JUMP JUMPDEST DUP3 MSTORE POP POP JUMP JUMPDEST PUSH0 DUP3 DUP3 MSTORE PUSH1 0x20 DUP3 ADD SWAP1 POP SWAP3 SWAP2 POP POP JUMP JUMPDEST PUSH0 JUMPDEST DUP4 DUP2 LT ISZERO PUSH3 0x590 JUMPI DUP1 DUP3 ADD MLOAD DUP2 DUP5 ADD MSTORE PUSH1 0x20 DUP2 ADD SWAP1 POP PUSH3 0x573 JUMP JUMPDEST PUSH0 DUP5 DUP5 ADD MSTORE POP POP POP POP JUMP JUMPDEST PUSH0 PUSH1 0x1F NOT PUSH1 0x1F DUP4 ADD AND SWAP1 POP SWAP2 SWAP1 POP JUMP JUMPDEST PUSH0 PUSH3 0x5B7 DUP3 PUSH3 0x208 JUMP JUMPDEST PUSH3 0x5C3 DUP2 DUP6 PUSH3 0x561 JUMP JUMPDEST SWAP4 POP PUSH3 0x5D5 DUP2 DUP6 PUSH1 0x20 DUP7 ADD PUSH3 0x571 JUMP JUMPDEST PUSH3 0x5E0 DUP2 PUSH3 0x59B JUMP JUMPDEST DUP5 ADD SWAP2 POP POP SWAP3 SWAP2 POP POP JUMP JUMPDEST PUSH0 PUSH1 0x80 DUP3 ADD SWAP1 POP PUSH3 0x600 PUSH0 DUP4 ADD DUP8 PUSH3 0x550 JUMP JUMPDEST DUP2 DUP2 SUB PUSH1 0x20 DUP4 ADD MSTORE PUSH3 0x614 DUP2 DUP7 PUSH3 0x5AB JUMP JUMPDEST SWAP1 POP DUP2 DUP2 SUB PUSH1 0x40 DUP4 ADD MSTORE PUSH3 0x62A DUP2 DUP6 PUSH3 0x5AB JUMP JUMPDEST SWAP1 POP DUP2 DUP2 SUB PUSH1 0x60 DUP4 ADD MSTORE PUSH3 0x640 DUP2 DUP5 PUSH3 0x5AB JUMP JUMPDEST SWAP1 POP SWAP6 SWAP5 POP POP POP POP POP JUMP JUMPDEST PUSH2 0x2D41 DUP1 PUSH3 0x659 PUSH0 CODECOPY PUSH0 RETURN INVALID PUSH1 0x80 PUSH1 0x40 MSTORE CALLVALUE DUP1 ISZERO PUSH2 0xF JUMPI PUSH0 DUP1 REVERT JUMPDEST POP PUSH1 0x4 CALLDATASIZE LT PUSH2 0x1CD JUMPI PUSH0 CALLDATALOAD PUSH1 0xE0 SHR DUP1 PUSH4 0x76AED2E1 GT PUSH2 0x102 JUMPI DUP1 PUSH4 0xBE37E907 GT PUSH2 0xA0 JUMPI DUP1 PUSH4 0xE1604B70 GT PUSH2 0x6F JUMPI DUP1 PUSH4 0xE1604B70 EQ PUSH2 0x587 JUMPI DUP1 PUSH4 0xE985E9C5 EQ PUSH2 0x5A5 JUMPI DUP1 PUSH4 0xF2FDE38B EQ PUSH2 0x5D5 JUMPI DUP1 PUSH4 0xF3BA5946 EQ PUSH2 0x5F1 JUMPI PUSH2 0x1CD JUMP JUMPDEST DUP1 PUSH4 0xBE37E907 EQ PUSH2 0x4C7 JUMPI DUP1 PUSH4 0xC87B56DD EQ PUSH2 0x4F7 JUMPI DUP1 PUSH4 0xCE35DE95 EQ PUSH2 0x527 JUMPI DUP1 PUSH4 0xE0DF5B6F EQ PUSH2 0x557 JUMPI PUSH2 0x1CD JUMP JUMPDEST DUP1 PUSH4 0x95D89B41 GT PUSH2 0xDC JUMPI DUP1 PUSH4 0x95D89B41 EQ PUSH2 0x455 JUMPI DUP1 PUSH4 0x9B252852 EQ PUSH2 0x473 JUMPI DUP1 PUSH4 0xA22CB465 EQ PUSH2 0x48F JUMPI DUP1 PUSH4 0xB88D4FDE EQ PUSH2 0x4AB JUMPI PUSH2 0x1CD JUMP JUMPDEST DUP1 PUSH4 0x76AED2E1 EQ PUSH2 0x3EB JUMPI DUP1 PUSH4 0x8C10081F EQ PUSH2 0x41B JUMPI DUP1 PUSH4 0x8DA5CB5B EQ PUSH2 0x437 JUMPI PUSH2 0x1CD JUMP JUMPDEST DUP1 PUSH4 0x2F745C59 GT PUSH2 0x16F JUMPI DUP1 PUSH4 0x51C18E0C GT PUSH2 0x149 JUMPI DUP1 PUSH4 0x51C18E0C EQ PUSH2 0x351 JUMPI DUP1 PUSH4 0x6352211E EQ PUSH2 0x381 JUMPI DUP1 PUSH4 0x70A08231 EQ PUSH2 0x3B1 JUMPI DUP1 PUSH4 0x715018A6 EQ PUSH2 0x3E1 JUMPI PUSH2 0x1CD JUMP JUMPDEST DUP1 PUSH4 0x2F745C59 EQ PUSH2 0x2D5 JUMPI DUP1 PUSH4 0x40C10F19 EQ PUSH2 0x305 JUMPI DUP1 PUSH4 0x42842E0E EQ PUSH2 0x335 JUMPI PUSH2 0x1CD JUMP JUMPDEST DUP1 PUSH4 0x95EA7B3 GT PUSH2 0x1AB JUMPI DUP1 PUSH4 0x95EA7B3 EQ PUSH2 0x24F JUMPI DUP1 PUSH4 0x18160DDD EQ PUSH2 0x26B JUMPI DUP1 PUSH4 0x1C02BC31 EQ PUSH2 0x289 JUMPI DUP1 PUSH4 0x23B872DD EQ PUSH2 0x2B9 JUMPI PUSH2 0x1CD JUMP JUMPDEST DUP1 PUSH4 0x1FFC9A7 EQ PUSH2 0x1D1 JUMPI DUP1 PUSH4 0x6FDDE03 EQ PUSH2 0x201 JUMPI DUP1 PUSH4 0x81812FC EQ PUSH2 0x21F JUMPI JUMPDEST PUSH0 DUP1 REVERT JUMPDEST PUSH2 0x1EB PUSH1 0x4 DUP1 CALLDATASIZE SUB DUP2 ADD SWAP1 PUSH2 0x1E6 SWAP2 SWAP1 PUSH2 0x1C95 JUMP JUMPDEST PUSH2 0x621 JUMP JUMPDEST PUSH1 0x40 MLOAD PUSH2 0x1F8 SWAP2 SWAP1 PUSH2 0x1CDA JUMP JUMPDEST PUSH1 0x40 MLOAD DUP1 SWAP2 SUB SWAP1 RETURN JUMPDEST PUSH2 0x209 PUSH2 0x69A JUMP JUMPDEST PUSH1 0x40 MLOAD PUSH2 0x216 SWAP2 SWAP1 PUSH2 0x1D7D JUMP JUMPDEST PUSH1 0x40 MLOAD DUP1 SWAP2 SUB SWAP1 RETURN JUMPDEST PUSH2 0x239 PUSH1 0x4 DUP1 CALLDATASIZE SUB DUP2 ADD SWAP1 PUSH2 0x234 SWAP2 SWAP1 PUSH2 0x1DD0 JUMP JUMPDEST PUSH2 0x6D7 JUMP JUMPDEST PUSH1 0x40 MLOAD PUSH2 0x246 SWAP2 SWAP1 PUSH2 0x1E3A JUMP JUMPDEST PUSH1 0x40 MLOAD DUP1 SWAP2 SUB SWAP1 RETURN JUMPDEST PUSH2 0x269 PUSH1 0x4 DUP1 CALLDATASIZE SUB DUP2 ADD SWAP1 PUSH2 0x264 SWAP2 SWAP1 PUSH2 0x1E7D JUMP JUMPDEST PUSH2 0x713 JUMP JUMPDEST STOP JUMPDEST PUSH2 0x273 PUSH2 0x74E JUMP JUMPDEST PUSH1 0x40 MLOAD PUSH2 0x280 SWAP2 SWAP1 PUSH2 0x1ECA JUMP JUMPDEST PUSH1 0x40 MLOAD DUP1 SWAP2 SUB SWAP1 RETURN JUMPDEST PUSH2 0x2A3 PUSH1 0x4 DUP1 CALLDATASIZE SUB DUP2 ADD SWAP1 PUSH2 0x29E SWAP2 SWAP1 PUSH2 0x1F0D JUMP JUMPDEST PUSH2 0x757 JUMP JUMPDEST PUSH1 0x40 MLOAD PUSH2 0x2B0 SWAP2 SWAP1 PUSH2 0x1CDA JUMP JUMPDEST PUSH1 0x40 MLOAD DUP1 SWAP2 SUB SWAP1 RETURN JUMPDEST PUSH2 0x2D3 PUSH1 0x4 DUP1 CALLDATASIZE SUB DUP2 ADD SWAP1 PUSH2 0x2CE SWAP2 SWAP1 PUSH2 0x1F38 JUMP JUMPDEST PUSH2 0x808 JUMP JUMPDEST STOP JUMPDEST PUSH2 0x2EF PUSH1 0x4 DUP1 CALLDATASIZE SUB DUP2 ADD SWAP1 PUSH2 0x2EA SWAP2 SWAP1 PUSH2 0x1E7D JUMP JUMPDEST PUSH2 0x843 JUMP JUMPDEST PUSH1 0x40 MLOAD PUSH2 0x2FC SWAP2 SWAP1 PUSH2 0x1ECA JUMP JUMPDEST PUSH1 0x40 MLOAD DUP1 SWAP2 SUB SWAP1 RETURN JUMPDEST PUSH2 0x31F PUSH1 0x4 DUP1 CALLDATASIZE SUB DUP2 ADD SWAP1 PUSH2 0x31A SWAP2 SWAP1 PUSH2 0x1E7D JUMP JUMPDEST PUSH2 0x962 JUMP JUMPDEST PUSH1 0x40 MLOAD PUSH2 0x32C SWAP2 SWAP1 PUSH2 0x1ECA JUMP JUMPDEST PUSH1 0x40 MLOAD DUP1 SWAP2 SUB SWAP1 RETURN JUMPDEST PUSH2 0x34F PUSH1 0x4 DUP1 CALLDATASIZE SUB DUP2 ADD SWAP1 PUSH2 0x34A SWAP2 SWAP1 PUSH2 0x1F38 JUMP JUMPDEST PUSH2 0x97D JUMP JUMPDEST STOP JUMPDEST PUSH2 0x36B PUSH1 0x4 DUP1 CALLDATASIZE SUB DUP2 ADD SWAP1 PUSH2 0x366 SWAP2 SWAP1 PUSH2 0x1DD0 JUMP JUMPDEST PUSH2 0x9B8 JUMP JUMPDEST PUSH1 0x40 MLOAD PUSH2 0x378 SWAP2 SWAP1 PUSH2 0x1ECA JUMP JUMPDEST PUSH1 0x40 MLOAD DUP1 SWAP2 SUB SWAP1 RETURN JUMPDEST PUSH2 0x39B PUSH1 0x4 DUP1 CALLDATASIZE SUB DUP2 ADD SWAP1 PUSH2 0x396 SWAP2 SWAP1 PUSH2 0x1DD0 JUMP JUMPDEST PUSH2 0x9DB JUMP JUMPDEST PUSH1 0x40 MLOAD PUSH2 0x3A8 SWAP2 SWAP1 PUSH2 0x1E3A JUMP JUMPDEST PUSH1 0x40 MLOAD DUP1 SWAP2 SUB SWAP1 RETURN JUMPDEST PUSH2 0x3CB PUSH1 0x4 DUP1 CALLDATASIZE SUB DUP2 ADD SWAP1 PUSH2 0x3C6 SWAP2 SWAP1 PUSH2 0x1F88 JUMP JUMPDEST PUSH2 0xA1D JUMP JUMPDEST PUSH1 0x40 MLOAD PUSH2 0x3D8 SWAP2 SWAP1 PUSH2 0x1ECA JUMP JUMPDEST PUSH1 0x40 MLOAD DUP1 SWAP2 SUB SWAP1 RETURN JUMPDEST PUSH2 0x3E9 PUSH2 0xA38 JUMP JUMPDEST STOP JUMPDEST PUSH2 0x405 PUSH1 0x4 DUP1 CALLDATASIZE SUB DUP2 ADD SWAP1 PUSH2 0x400 SWAP2 SWAP1 PUSH2 0x1DD0 JUMP JUMPDEST PUSH2 0xA4B JUMP JUMPDEST PUSH1 0x40 MLOAD PUSH2 0x412 SWAP2 SWAP1 PUSH2 0x1ECA JUMP JUMPDEST PUSH1 0x40 MLOAD DUP1 SWAP2 SUB SWAP1 RETURN JUMPDEST PUSH2 0x435 PUSH1 0x4 DUP1 CALLDATASIZE SUB DUP2 ADD SWAP1 PUSH2 0x430 SWAP2 SWAP1 PUSH2 0x1FB3 JUMP JUMPDEST PUSH2 0xA6E JUMP JUMPDEST STOP JUMPDEST PUSH2 0x43F PUSH2 0xAC8 JUMP JUMPDEST PUSH1 0x40 MLOAD PUSH2 0x44C SWAP2 SWAP1 PUSH2 0x1E3A JUMP JUMPDEST PUSH1 0x40 MLOAD DUP1 SWAP2 SUB SWAP1 RETURN JUMPDEST PUSH2 0x45D PUSH2 0xAEF JUMP JUMPDEST PUSH1 0x40 MLOAD PUSH2 0x46A SWAP2 SWAP1 PUSH2 0x1D7D JUMP JUMPDEST PUSH1 0x40 MLOAD DUP1 SWAP2 SUB SWAP1 RETURN JUMPDEST PUSH2 0x48D PUSH1 0x4 DUP1 CALLDATASIZE SUB DUP2 ADD SWAP1 PUSH2 0x488 SWAP2 SWAP1 PUSH2 0x1E7D JUMP JUMPDEST PUSH2 0xB2C JUMP JUMPDEST STOP JUMPDEST PUSH2 0x4A9 PUSH1 0x4 DUP1 CALLDATASIZE SUB DUP2 ADD SWAP1 PUSH2 0x4A4 SWAP2 SWAP1 PUSH2 0x1FF1 JUMP JUMPDEST PUSH2 0xB8F JUMP JUMPDEST STOP JUMPDEST PUSH2 0x4C5 PUSH1 0x4 DUP1 CALLDATASIZE SUB DUP2 ADD SWAP1 PUSH2 0x4C0 SWAP2 SWAP1 PUSH2 0x2090 JUMP JUMPDEST PUSH2 0xBCA JUMP JUMPDEST STOP JUMPDEST PUSH2 0x4E1 PUSH1 0x4 DUP1 CALLDATASIZE SUB DUP2 ADD SWAP1 PUSH2 0x4DC SWAP2 SWAP1 PUSH2 0x1E7D JUMP JUMPDEST PUSH2 0xC05 JUMP JUMPDEST PUSH1 0x40 MLOAD PUSH2 0x4EE SWAP2 SWAP1 PUSH2 0x1ECA JUMP JUMPDEST PUSH1 0x40 MLOAD DUP1 SWAP2 SUB SWAP1 RETURN JUMPDEST PUSH2 0x511 PUSH1 0x4 DUP1 CALLDATASIZE SUB DUP2 ADD SWAP1 PUSH2 0x50C SWAP2 SWAP1 PUSH2 0x1DD0 JUMP JUMPDEST PUSH2 0xC6D JUMP JUMPDEST PUSH1 0x40 MLOAD PUSH2 0x51E SWAP2 SWAP1 PUSH2 0x1D7D JUMP JUMPDEST PUSH1 0x40 MLOAD DUP1 SWAP2 SUB SWAP1 RETURN JUMPDEST PUSH2 0x541 PUSH1 0x4 DUP1 CALLDATASIZE SUB DUP2 ADD SWAP1 PUSH2 0x53C SWAP2 SWAP1 PUSH2 0x1F88 JUMP JUMPDEST PUSH2 0xCE7 JUMP JUMPDEST PUSH1 0x40 MLOAD PUSH2 0x54E SWAP2 SWAP1 PUSH2 0x1CDA JUMP JUMPDEST PUSH1 0x40 MLOAD DUP1 SWAP2 SUB SWAP1 RETURN JUMPDEST PUSH2 0x571 PUSH1 0x4 DUP1 CALLDATASIZE SUB DUP2 ADD SWAP1 PUSH2 0x56C SWAP2 SWAP1 PUSH2 0x223C JUMP JUMPDEST PUSH2 0xCF8 JUMP JUMPDEST PUSH1 0x40 MLOAD PUSH2 0x57E SWAP2 SWAP1 PUSH2 0x1D7D JUMP JUMPDEST PUSH1 0x40 MLOAD DUP1 SWAP2 SUB SWAP1 RETURN JUMPDEST PUSH2 0x58F PUSH2 0xDF0 JUMP JUMPDEST PUSH1 0x40 MLOAD PUSH2 0x59C SWAP2 SWAP1 PUSH2 0x1ECA JUMP JUMPDEST PUSH1 0x40 MLOAD DUP1 SWAP2 SUB SWAP1 RETURN JUMPDEST PUSH2 0x5BF PUSH1 0x4 DUP1 CALLDATASIZE SUB DUP2 ADD SWAP1 PUSH2 0x5BA SWAP2 SWAP1 PUSH2 0x2283 JUMP JUMPDEST PUSH2 0xDF9 JUMP JUMPDEST PUSH1 0x40 MLOAD PUSH2 0x5CC SWAP2 SWAP1 PUSH2 0x1CDA JUMP JUMPDEST PUSH1 0x40 MLOAD DUP1 SWAP2 SUB SWAP1 RETURN JUMPDEST PUSH2 0x5EF PUSH1 0x4 DUP1 CALLDATASIZE SUB DUP2 ADD SWAP1 PUSH2 0x5EA SWAP2 SWAP1 PUSH2 0x1F88 JUMP JUMPDEST PUSH2 0xE35 JUMP JUMPDEST STOP JUMPDEST PUSH2 0x60B PUSH1 0x4 DUP1 CALLDATASIZE SUB DUP2 ADD SWAP1 PUSH2 0x606 SWAP2 SWAP1 PUSH2 0x1E7D JUMP JUMPDEST PUSH2 0xEB7 JUMP JUMPDEST PUSH1 0x40 MLOAD PUSH2 0x618 SWAP2 SWAP1 PUSH2 0x1CDA JUMP JUMPDEST PUSH1 0x40 MLOAD DUP1 SWAP2 SUB SWAP1 RETURN JUMPDEST PUSH0 PUSH32 0x80AC58CD00000000000000000000000000000000000000000000000000000000 PUSH28 0xFFFFFFFFFFFFFFFFFFFFFFFFFFFFFFFFFFFFFFFFFFFFFFFFFFFFFFFF NOT AND DUP3 PUSH28 0xFFFFFFFFFFFFFFFFFFFFFFFFFFFFFFFFFFFFFFFFFFFFFFFFFFFFFFFF NOT AND EQ DUP1 PUSH2 0x693 JUMPI POP PUSH2 0x692 DUP3 PUSH2 0xECA JUMP JUMPDEST JUMPDEST SWAP1 POP SWAP2 SWAP1 POP JUMP JUMPDEST PUSH1 0x60 PUSH1 0x40 MLOAD DUP1 PUSH1 0x40 ADD PUSH1 0x40 MSTORE DUP1 PUSH1 0x6 DUP2 MSTORE PUSH1 0x20 ADD PUSH32 0x484F4E5342540000000000000000000000000000000000000000000000000000 DUP2 MSTORE POP SWAP1 POP SWAP1 JUMP JUMPDEST PUSH0 PUSH1 0x40 MLOAD PUSH32 0x9FC6E75800000000000000000000000000000000000000000000000000000000 DUP2 MSTORE PUSH1 0x4 ADD PUSH2 0x70A SWAP1 PUSH2 0x230B JUMP JUMPDEST PUSH1 0x40 MLOAD DUP1 SWAP2 SUB SWAP1 REVERT JUMPDEST PUSH1 0x40 MLOAD PUSH32 0x9FC6E75800000000000000000000000000000000000000000000000000000000 DUP2 MSTORE PUSH1 0x4 ADD PUSH2 0x745 SWAP1 PUSH2 0x2373 JUMP JUMPDEST PUSH1 0x40 MLOAD DUP1 SWAP2 SUB SWAP1 REVERT JUMPDEST PUSH0 PUSH1 0x3 SLOAD SWAP1 POP SWAP1 JUMP JUMPDEST PUSH0 DUP1 PUSH2 0x762 CALLER PUSH2 0xF33 JUMP JUMPDEST GT PUSH2 0x7A4 JUMPI CALLER PUSH1 0x40 MLOAD PUSH32 0xFACEFFEF00000000000000000000000000000000000000000000000000000000 DUP2 MSTORE PUSH1 0x4 ADD PUSH2 0x79B SWAP2 SWAP1 PUSH2 0x1E3A JUMP JUMPDEST PUSH1 0x40 MLOAD DUP1 SWAP2 SUB SWAP1 REVERT JUMPDEST DUP2 PUSH1 0x8 PUSH0 CALLER PUSH20 0xFFFFFFFFFFFFFFFFFFFFFFFFFFFFFFFFFFFFFFFF AND PUSH20 0xFFFFFFFFFFFFFFFFFFFFFFFFFFFFFFFFFFFFFFFF AND DUP2 MSTORE PUSH1 0x20 ADD SWAP1 DUP2 MSTORE PUSH1 0x20 ADD PUSH0 KECCAK256 PUSH0 PUSH2 0x100 EXP DUP2 SLOAD DUP2 PUSH1 0xFF MUL NOT AND SWAP1 DUP4 ISZERO ISZERO MUL OR SWAP1 SSTORE POP PUSH2 0x801 CALLER PUSH2 0xF79 JUMP JUMPDEST SWAP1 POP SWAP2 SWAP1 POP JUMP JUMPDEST PUSH1 0x40 MLOAD PUSH32 0x9FC6E75800000000000000000000000000000000000000000000000000000000 DUP2 MSTORE PUSH1 0x4 ADD PUSH2 0x83A SWAP1 PUSH2 0x23DB JUMP JUMPDEST PUSH1 0x40 MLOAD DUP1 SWAP2 SUB SWAP1 REVERT JUMPDEST PUSH0 PUSH2 0x84D DUP4 PUSH2 0xF8A JUMP JUMPDEST POP PUSH2 0x857 DUP4 PUSH2 0xF33 JUMP JUMPDEST DUP3 LT PUSH2 0x898 JUMPI PUSH1 0x40 MLOAD PUSH32 0x8C379A000000000000000000000000000000000000000000000000000000000 DUP2 MSTORE PUSH1 0x4 ADD PUSH2 0x88F SWAP1 PUSH2 0x2443 JUMP JUMPDEST PUSH1 0x40 MLOAD DUP1 SWAP2 SUB SWAP1 REVERT JUMPDEST PUSH0 PUSH20 0xFFFFFFFFFFFFFFFFFFFFFFFFFFFFFFFFFFFFFFFF AND DUP4 PUSH20 0xFFFFFFFFFFFFFFFFFFFFFFFFFFFFFFFFFFFFFFFF AND SUB PUSH2 0x908 JUMPI PUSH0 PUSH1 0x40 MLOAD PUSH32 0x74F5E87D00000000000000000000000000000000000000000000000000000000 DUP2 MSTORE PUSH1 0x4 ADD PUSH2 0x8FF SWAP2 SWAP1 PUSH2 0x1E3A JUMP JUMPDEST PUSH1 0x40 MLOAD DUP1 SWAP2 SUB SWAP1 REVERT JUMPDEST PUSH0 PUSH1 0x9 PUSH0 DUP6 PUSH20 0xFFFFFFFFFFFFFFFFFFFFFFFFFFFFFFFFFFFFFFFF AND PUSH20 0xFFFFFFFFFFFFFFFFFFFFFFFFFFFFFFFFFFFFFFFF AND DUP2 MSTORE PUSH1 0x20 ADD SWAP1 DUP2 MSTORE PUSH1 0x20 ADD PUSH0 KECCAK256 PUSH0 DUP5 DUP2 MSTORE PUSH1 0x20 ADD SWAP1 DUP2 MSTORE PUSH1 0x20 ADD PUSH0 KECCAK256 SLOAD SWAP1 POP DUP1 SWAP2 POP POP SWAP3 SWAP2 POP POP JUMP JUMPDEST PUSH0 PUSH2 0x96B PUSH2 0x1025 JUMP JUMPDEST PUSH2 0x975 DUP4 DUP4 PUSH2 0x10A3 JUMP JUMPDEST SWAP1 POP SWAP3 SWAP2 POP POP JUMP JUMPDEST PUSH1 0x40 MLOAD PUSH32 0x9FC6E75800000000000000000000000000000000000000000000000000000000 DUP2 MSTORE PUSH1 0x4 ADD PUSH2 0x9AF SWAP1 PUSH2 0x24AB JUMP JUMPDEST PUSH1 0x40 MLOAD DUP1 SWAP2 SUB SWAP1 REVERT JUMPDEST PUSH0 PUSH2 0x9C2 DUP3 PUSH2 0x113B JUMP JUMPDEST PUSH1 0x6 PUSH0 DUP4 DUP2 MSTORE PUSH1 0x20 ADD SWAP1 DUP2 MSTORE PUSH1 0x20 ADD PUSH0 KECCAK256 SLOAD SWAP1 POP SWAP2 SWAP1 POP JUMP JUMPDEST PUSH0 PUSH2 0x9E5 DUP3 PUSH2 0x113B JUMP JUMPDEST PUSH1 0x4 PUSH0 DUP4 DUP2 MSTORE PUSH1 0x20 ADD SWAP1 DUP2 MSTORE PUSH1 0x20 ADD PUSH0 KECCAK256 PUSH0 SWAP1 SLOAD SWAP1 PUSH2 0x100 EXP SWAP1 DIV PUSH20 0xFFFFFFFFFFFFFFFFFFFFFFFFFFFFFFFFFFFFFFFF AND SWAP1 POP SWAP2 SWAP1 POP JUMP JUMPDEST PUSH0 PUSH2 0xA27 DUP3 PUSH2 0xF8A JUMP JUMPDEST POP PUSH2 0xA31 DUP3 PUSH2 0xF33 JUMP JUMPDEST SWAP1 POP SWAP2 SWAP1 POP JUMP JUMPDEST PUSH2 0xA40 PUSH2 0x1025 JUMP JUMPDEST PUSH2 0xA49 PUSH0 PUSH2 0x11C2 JUMP JUMPDEST JUMP JUMPDEST PUSH0 PUSH2 0xA55 DUP3 PUSH2 0x113B JUMP JUMPDEST PUSH1 0x5 PUSH0 DUP4 DUP2 MSTORE PUSH1 0x20 ADD SWAP1 DUP2 MSTORE PUSH1 0x20 ADD PUSH0 KECCAK256 SLOAD SWAP1 POP SWAP2 SWAP1 POP JUMP JUMPDEST PUSH0 PUSH2 0xA78 CALLER PUSH2 0xF33 JUMP JUMPDEST GT PUSH2 0xABA JUMPI CALLER PUSH1 0x40 MLOAD PUSH32 0xFACEFFEF00000000000000000000000000000000000000000000000000000000 DUP2 MSTORE PUSH1 0x4 ADD PUSH2 0xAB1 SWAP2 SWAP1 PUSH2 0x1E3A JUMP JUMPDEST PUSH1 0x40 MLOAD DUP1 SWAP2 SUB SWAP1 REVERT JUMPDEST PUSH2 0xAC4 DUP3 DUP3 PUSH2 0x1283 JUMP JUMPDEST POP POP JUMP JUMPDEST PUSH0 DUP1 PUSH0 SWAP1 SLOAD SWAP1 PUSH2 0x100 EXP SWAP1 DIV PUSH20 0xFFFFFFFFFFFFFFFFFFFFFFFFFFFFFFFFFFFFFFFF AND SWAP1 POP SWAP1 JUMP JUMPDEST PUSH1 0x60 PUSH1 0x40 MLOAD DUP1 PUSH1 0x40 ADD PUSH1 0x40 MSTORE DUP1 PUSH1 0x6 DUP2 MSTORE PUSH1 0x20 ADD PUSH32 0x484F4E5342540000000000000000000000000000000000000000000000000000 DUP2 MSTORE POP SWAP1 POP SWAP1 JUMP JUMPDEST PUSH2 0xB34 PUSH2 0x1025 JUMP JUMPDEST PUSH2 0xB3E DUP3 DUP3 PUSH2 0x12EA JUMP JUMPDEST PUSH2 0xB81 JUMPI DUP2 DUP2 PUSH1 0x40 MLOAD PUSH32 0x9960858D00000000000000000000000000000000000000000000000000000000 DUP2 MSTORE PUSH1 0x4 ADD PUSH2 0xB78 SWAP3 SWAP2 SWAP1 PUSH2 0x24C9 JUMP JUMPDEST PUSH1 0x40 MLOAD DUP1 SWAP2 SUB SWAP1 REVERT JUMPDEST PUSH2 0xB8B DUP3 DUP3 PUSH2 0x134C JUMP JUMPDEST POP POP JUMP JUMPDEST PUSH1 0x40 MLOAD PUSH32 0x9FC6E75800000000000000000000000000000000000000000000000000000000 DUP2 MSTORE PUSH1 0x4 ADD PUSH2 0xBC1 SWAP1 PUSH2 0x253A JUMP JUMPDEST PUSH1 0x40 MLOAD DUP1 SWAP2 SUB SWAP1 REVERT JUMPDEST PUSH1 0x40 MLOAD PUSH32 0x9FC6E75800000000000000000000000000000000000000000000000000000000 DUP2 MSTORE PUSH1 0x4 ADD PUSH2 0xBFC SWAP1 PUSH2 0x24AB JUMP JUMPDEST PUSH1 0x40 MLOAD DUP1 SWAP2 SUB SWAP1 REVERT JUMPDEST PUSH0 PUSH2 0xC0E PUSH2 0x1025 JUMP JUMPDEST PUSH2 0xC18 DUP4 DUP4 PUSH2 0x12EA JUMP JUMPDEST PUSH2 0xC5B JUMPI DUP3 DUP3 PUSH1 0x40 MLOAD PUSH32 0x9960858D00000000000000000000000000000000000000000000000000000000 DUP2 MSTORE PUSH1 0x4 ADD PUSH2 0xC52 SWAP3 SWAP2 SWAP1 PUSH2 0x24C9 JUMP JUMPDEST PUSH1 0x40 MLOAD DUP1 SWAP2 SUB SWAP1 REVERT JUMPDEST PUSH2 0xC65 DUP4 DUP4 PUSH2 0x13B4 JUMP JUMPDEST SWAP1 POP SWAP3 SWAP2 POP POP JUMP JUMPDEST PUSH1 0x60 PUSH2 0xC78 DUP3 PUSH2 0x113B JUMP JUMPDEST PUSH0 PUSH1 0x1 DUP1 SLOAD PUSH2 0xC86 SWAP1 PUSH2 0x2585 JUMP JUMPDEST SWAP1 POP GT PUSH2 0xCA1 JUMPI PUSH1 0x40 MLOAD DUP1 PUSH1 0x20 ADD PUSH1 0x40 MSTORE DUP1 PUSH0 DUP2 MSTORE POP PUSH2 0xCE0 JUMP JUMPDEST PUSH1 0x1 PUSH2 0xCAC DUP4 PUSH2 0x1455 JUMP JUMPDEST PUSH1 0x5 PUSH0 DUP6 DUP2 MSTORE PUSH1 0x20 ADD SWAP1 DUP2 MSTORE PUSH1 0x20 ADD PUSH0 KECCAK256 SLOAD PUSH1 0x40 MLOAD PUSH1 0x20 ADD PUSH2 0xCD0 SWAP4 SWAP3 SWAP2 SWAP1 PUSH2 0x26EB JUMP JUMPDEST PUSH1 0x40 MLOAD PUSH1 0x20 DUP2 DUP4 SUB SUB DUP2 MSTORE SWAP1 PUSH1 0x40 MSTORE JUMPDEST SWAP1 POP SWAP2 SWAP1 POP JUMP JUMPDEST PUSH0 PUSH2 0xCF1 DUP3 PUSH2 0xF8A JUMP JUMPDEST SWAP1 POP SWAP2 SWAP1 POP JUMP JUMPDEST PUSH1 0x60 PUSH2 0xD02 PUSH2 0x1025 JUMP JUMPDEST DUP2 PUSH1 0x1 SWAP1 DUP2 PUSH2 0xD11 SWAP2 SWAP1 PUSH2 0x28B5 JUMP JUMPDEST POP CALLER PUSH20 0xFFFFFFFFFFFFFFFFFFFFFFFFFFFFFFFFFFFFFFFF AND PUSH32 0x70E6A9DC20D331CE8E747D7DE8444F26F544D9003BEB11D8C46E802AB8D36FC9 DUP4 PUSH1 0x40 MLOAD PUSH2 0xD58 SWAP2 SWAP1 PUSH2 0x1D7D JUMP JUMPDEST PUSH1 0x40 MLOAD DUP1 SWAP2 SUB SWAP1 LOG2 PUSH1 0x1 DUP1 SLOAD PUSH2 0xD6D SWAP1 PUSH2 0x2585 JUMP JUMPDEST DUP1 PUSH1 0x1F ADD PUSH1 0x20 DUP1 SWAP2 DIV MUL PUSH1 0x20 ADD PUSH1 0x40 MLOAD SWAP1 DUP2 ADD PUSH1 0x40 MSTORE DUP1 SWAP3 SWAP2 SWAP1 DUP2 DUP2 MSTORE PUSH1 0x20 ADD DUP3 DUP1 SLOAD PUSH2 0xD99 SWAP1 PUSH2 0x2585 JUMP JUMPDEST DUP1 ISZERO PUSH2 0xDE4 JUMPI DUP1 PUSH1 0x1F LT PUSH2 0xDBB JUMPI PUSH2 0x100 DUP1 DUP4 SLOAD DIV MUL DUP4 MSTORE SWAP2 PUSH1 0x20 ADD SWAP2 PUSH2 0xDE4 JUMP JUMPDEST DUP3 ADD SWAP2 SWAP1 PUSH0 MSTORE PUSH1 0x20 PUSH0 KECCAK256 SWAP1 JUMPDEST DUP2 SLOAD DUP2 MSTORE SWAP1 PUSH1 0x1 ADD SWAP1 PUSH1 0x20 ADD DUP1 DUP4 GT PUSH2 0xDC7 JUMPI DUP3 SWAP1 SUB PUSH1 0x1F AND DUP3 ADD SWAP2 JUMPDEST POP POP POP POP POP SWAP1 POP SWAP2 SWAP1 POP JUMP JUMPDEST PUSH0 PUSH1 0x2 SLOAD SWAP1 POP SWAP1 JUMP JUMPDEST PUSH0 PUSH1 0x40 MLOAD PUSH32 0x9FC6E75800000000000000000000000000000000000000000000000000000000 DUP2 MSTORE PUSH1 0x4 ADD PUSH2 0xE2C SWAP1 PUSH2 0x29CE JUMP JUMPDEST PUSH1 0x40 MLOAD DUP1 SWAP2 SUB SWAP1 REVERT JUMPDEST PUSH2 0xE3D PUSH2 0x1025 JUMP JUMPDEST PUSH0 PUSH20 0xFFFFFFFFFFFFFFFFFFFFFFFFFFFFFFFFFFFFFFFF AND DUP2 PUSH20 0xFFFFFFFFFFFFFFFFFFFFFFFFFFFFFFFFFFFFFFFF AND SUB PUSH2 0xEAB JUMPI PUSH1 0x40 MLOAD PUSH32 0x8C379A000000000000000000000000000000000000000000000000000000000 DUP2 MSTORE PUSH1 0x4 ADD PUSH2 0xEA2 SWAP1 PUSH2 0x2A5C JUMP JUMPDEST PUSH1 0x40 MLOAD DUP1 SWAP2 SUB SWAP1 REVERT JUMPDEST PUSH2 0xEB4 DUP2 PUSH2 0x11C2 JUMP JUMPDEST POP JUMP JUMPDEST PUSH0 PUSH2 0xEC2 DUP4 DUP4 PUSH2 0x12EA JUMP JUMPDEST SWAP1 POP SWAP3 SWAP2 POP POP JUMP JUMPDEST PUSH0 PUSH32 0x1FFC9A700000000000000000000000000000000000000000000000000000000 PUSH28 0xFFFFFFFFFFFFFFFFFFFFFFFFFFFFFFFFFFFFFFFFFFFFFFFFFFFFFFFF NOT AND DUP3 PUSH28 0xFFFFFFFFFFFFFFFFFFFFFFFFFFFFFFFFFFFFFFFFFFFFFFFFFFFFFFFF NOT AND EQ SWAP1 POP SWAP2 SWAP1 POP JUMP JUMPDEST PUSH0 PUSH1 0x7 PUSH0 DUP4 PUSH20 0xFFFFFFFFFFFFFFFFFFFFFFFFFFFFFFFFFFFFFFFF AND PUSH20 0xFFFFFFFFFFFFFFFFFFFFFFFFFFFFFFFFFFFFFFFF AND DUP2 MSTORE PUSH1 0x20 ADD SWAP1 DUP2 MSTORE PUSH1 0x20 ADD PUSH0 KECCAK256 SLOAD SWAP1 POP SWAP2 SWAP1 POP JUMP JUMPDEST PUSH0 PUSH2 0xF83 DUP3 PUSH2 0x151F JUMP JUMPDEST SWAP1 POP SWAP2 SWAP1 POP JUMP JUMPDEST PUSH0 PUSH1 0x1 ISZERO ISZERO PUSH1 0x8 PUSH0 DUP5 PUSH20 0xFFFFFFFFFFFFFFFFFFFFFFFFFFFFFFFFFFFFFFFF AND PUSH20 0xFFFFFFFFFFFFFFFFFFFFFFFFFFFFFFFFFFFFFFFF AND DUP2 MSTORE PUSH1 0x20 ADD SWAP1 DUP2 MSTORE PUSH1 0x20 ADD PUSH0 KECCAK256 PUSH0 SWAP1 SLOAD SWAP1 PUSH2 0x100 EXP SWAP1 DIV PUSH1 0xFF AND ISZERO ISZERO SUB PUSH2 0x101D JUMPI DUP2 PUSH1 0x40 MLOAD PUSH32 0x904E928B00000000000000000000000000000000000000000000000000000000 DUP2 MSTORE PUSH1 0x4 ADD PUSH2 0x1014 SWAP2 SWAP1 PUSH2 0x1E3A JUMP JUMPDEST PUSH1 0x40 MLOAD DUP1 SWAP2 SUB SWAP1 REVERT JUMPDEST PUSH0 SWAP1 POP SWAP2 SWAP1 POP JUMP JUMPDEST PUSH2 0x102D PUSH2 0x1571 JUMP JUMPDEST PUSH20 0xFFFFFFFFFFFFFFFFFFFFFFFFFFFFFFFFFFFFFFFF AND PUSH2 0x104B PUSH2 0xAC8 JUMP JUMPDEST PUSH20 0xFFFFFFFFFFFFFFFFFFFFFFFFFFFFFFFFFFFFFFFF AND EQ PUSH2 0x10A1 JUMPI PUSH1 0x40 MLOAD PUSH32 0x8C379A000000000000000000000000000000000000000000000000000000000 DUP2 MSTORE PUSH1 0x4 ADD PUSH2 0x1098 SWAP1 PUSH2 0x2AC4 JUMP JUMPDEST PUSH1 0x40 MLOAD DUP1 SWAP2 SUB SWAP1 REVERT JUMPDEST JUMP JUMPDEST PUSH0 DUP1 PUSH2 0x10AF DUP5 DUP5 PUSH2 0x1578 JUMP JUMPDEST SWAP1 POP PUSH2 0x10F2 PUSH0 DUP6 DUP4 PUSH1 0x40 MLOAD DUP1 PUSH1 0x40 ADD PUSH1 0x40 MSTORE DUP1 PUSH1 0x8 DUP2 MSTORE PUSH1 0x20 ADD PUSH32 0x4D696E7420534254000000000000000000000000000000000000000000000000 DUP2 MSTORE POP PUSH2 0x189C JUMP JUMPDEST PUSH2 0x1131 JUMPI PUSH1 0x40 MLOAD PUSH32 0x8C379A000000000000000000000000000000000000000000000000000000000 DUP2 MSTORE PUSH1 0x4 ADD PUSH2 0x1128 SWAP1 PUSH2 0x2B52 JUMP JUMPDEST PUSH1 0x40 MLOAD DUP1 SWAP2 SUB SWAP1 REVERT JUMPDEST DUP1 SWAP2 POP POP SWAP3 SWAP2 POP POP JUMP JUMPDEST PUSH2 0x1144 DUP2 PUSH2 0x1989 JUMP JUMPDEST PUSH2 0x1185 JUMPI DUP1 PUSH1 0x40 MLOAD PUSH32 0x24476A3F00000000000000000000000000000000000000000000000000000000 DUP2 MSTORE PUSH1 0x4 ADD PUSH2 0x117C SWAP2 SWAP1 PUSH2 0x1ECA JUMP JUMPDEST PUSH1 0x40 MLOAD DUP1 SWAP2 SUB SWAP1 REVERT JUMPDEST PUSH2 0x11BE PUSH1 0x4 PUSH0 DUP4 DUP2 MSTORE PUSH1 0x20 ADD SWAP1 DUP2 MSTORE PUSH1 0x20 ADD PUSH0 KECCAK256 PUSH0 SWAP1 SLOAD SWAP1 PUSH2 0x100 EXP SWAP1 DIV PUSH20 0xFFFFFFFFFFFFFFFFFFFFFFFFFFFFFFFFFFFFFFFF AND PUSH2 0xF8A JUMP JUMPDEST POP POP JUMP JUMPDEST PUSH0 DUP1 PUSH0 SWAP1 SLOAD SWAP1 PUSH2 0x100 EXP SWAP1 DIV PUSH20 0xFFFFFFFFFFFFFFFFFFFFFFFFFFFFFFFFFFFFFFFF AND SWAP1 POP DUP2 PUSH0 DUP1 PUSH2 0x100 EXP DUP2 SLOAD DUP2 PUSH20 0xFFFFFFFFFFFFFFFFFFFFFFFFFFFFFFFFFFFFFFFF MUL NOT AND SWAP1 DUP4 PUSH20 0xFFFFFFFFFFFFFFFFFFFFFFFFFFFFFFFFFFFFFFFF AND MUL OR SWAP1 SSTORE POP DUP2 PUSH20 0xFFFFFFFFFFFFFFFFFFFFFFFFFFFFFFFFFFFFFFFF AND DUP2 PUSH20 0xFFFFFFFFFFFFFFFFFFFFFFFFFFFFFFFFFFFFFFFF AND PUSH32 0x8BE0079C531659141344CD1FD0A4F28419497F9722A3DAAFE3B4186F6B6457E0 PUSH1 0x40 MLOAD PUSH1 0x40 MLOAD DUP1 SWAP2 SUB SWAP1 LOG3 POP POP JUMP JUMPDEST DUP1 PUSH1 0xA PUSH0 CALLER PUSH20 0xFFFFFFFFFFFFFFFFFFFFFFFFFFFFFFFFFFFFFFFF AND PUSH20 0xFFFFFFFFFFFFFFFFFFFFFFFFFFFFFFFFFFFFFFFF AND DUP2 MSTORE PUSH1 0x20 ADD SWAP1 DUP2 MSTORE PUSH1 0x20 ADD PUSH0 KECCAK256 PUSH0 DUP5 DUP2 MSTORE PUSH1 0x20 ADD SWAP1 DUP2 MSTORE PUSH1 0x20 ADD PUSH0 KECCAK256 PUSH0 PUSH2 0x100 EXP DUP2 SLOAD DUP2 PUSH1 0xFF MUL NOT AND SWAP1 DUP4 ISZERO ISZERO MUL OR SWAP1 SSTORE POP POP POP JUMP JUMPDEST PUSH0 PUSH1 0xA PUSH0 DUP5 PUSH20 0xFFFFFFFFFFFFFFFFFFFFFFFFFFFFFFFFFFFFFFFF AND PUSH20 0xFFFFFFFFFFFFFFFFFFFFFFFFFFFFFFFFFFFFFFFF AND DUP2 MSTORE PUSH1 0x20 ADD SWAP1 DUP2 MSTORE PUSH1 0x20 ADD PUSH0 KECCAK256 PUSH0 DUP4 DUP2 MSTORE PUSH1 0x20 ADD SWAP1 DUP2 MSTORE PUSH1 0x20 ADD PUSH0 KECCAK256 PUSH0 SWAP1 SLOAD SWAP1 PUSH2 0x100 EXP SWAP1 DIV PUSH1 0xFF AND SWAP1 POP SWAP3 SWAP2 POP POP JUMP JUMPDEST PUSH2 0x1356 DUP3 DUP3 PUSH2 0x19C9 JUMP JUMPDEST PUSH0 PUSH1 0x6 PUSH0 DUP4 DUP2 MSTORE PUSH1 0x20 ADD SWAP1 DUP2 MSTORE PUSH1 0x20 ADD PUSH0 KECCAK256 DUP2 SWAP1 SSTORE POP DUP1 DUP3 PUSH20 0xFFFFFFFFFFFFFFFFFFFFFFFFFFFFFFFFFFFFFFFF AND PUSH32 0x154FA90F2D3692DF165AFACDCD7755B2E9D98A892A80CC1DDA63F3A9CC1E64A4 PUSH1 0x40 MLOAD PUSH1 0x40 MLOAD DUP1 SWAP2 SUB SWAP1 LOG3 POP POP JUMP JUMPDEST PUSH0 PUSH2 0x13BF DUP4 DUP4 PUSH2 0x19C9 JUMP JUMPDEST PUSH1 0x1 PUSH1 0x6 PUSH0 DUP5 DUP2 MSTORE PUSH1 0x20 ADD SWAP1 DUP2 MSTORE PUSH1 0x20 ADD PUSH0 KECCAK256 PUSH0 DUP3 DUP3 SLOAD PUSH2 0x13E0 SWAP2 SWAP1 PUSH2 0x2B9D JUMP JUMPDEST SWAP3 POP POP DUP2 SWAP1 SSTORE POP PUSH0 PUSH1 0x6 PUSH0 DUP5 DUP2 MSTORE PUSH1 0x20 ADD SWAP1 DUP2 MSTORE PUSH1 0x20 ADD PUSH0 KECCAK256 SLOAD SWAP1 POP DUP1 DUP5 PUSH20 0xFFFFFFFFFFFFFFFFFFFFFFFFFFFFFFFFFFFFFFFF AND PUSH32 0x48FFD7FDB1C1A0561A2D410317F6BB839AAB64898DE6FC73EE703A9C0DC0A36C DUP6 PUSH1 0x40 MLOAD PUSH2 0x1443 SWAP2 SWAP1 PUSH2 0x1ECA JUMP JUMPDEST PUSH1 0x40 MLOAD DUP1 SWAP2 SUB SWAP1 LOG3 DUP1 SWAP2 POP POP SWAP3 SWAP2 POP POP JUMP JUMPDEST PUSH1 0x60 PUSH0 PUSH1 0x1 PUSH2 0x1463 DUP5 PUSH2 0x1A45 JUMP JUMPDEST ADD SWAP1 POP PUSH0 DUP2 PUSH8 0xFFFFFFFFFFFFFFFF DUP2 GT ISZERO PUSH2 0x1481 JUMPI PUSH2 0x1480 PUSH2 0x2118 JUMP JUMPDEST JUMPDEST PUSH1 0x40 MLOAD SWAP1 DUP1 DUP3 MSTORE DUP1 PUSH1 0x1F ADD PUSH1 0x1F NOT AND PUSH1 0x20 ADD DUP3 ADD PUSH1 0x40 MSTORE DUP1 ISZERO PUSH2 0x14B3 JUMPI DUP2 PUSH1 0x20 ADD PUSH1 0x1 DUP3 MUL DUP1 CALLDATASIZE DUP4 CALLDATACOPY DUP1 DUP3 ADD SWAP2 POP POP SWAP1 POP JUMPDEST POP SWAP1 POP PUSH0 DUP3 PUSH1 0x20 ADD DUP3 ADD SWAP1 POP JUMPDEST PUSH1 0x1 ISZERO PUSH2 0x1514 JUMPI DUP1 DUP1 PUSH1 0x1 SWAP1 SUB SWAP2 POP POP PUSH32 0x3031323334353637383961626364656600000000000000000000000000000000 PUSH1 0xA DUP7 MOD BYTE DUP2 MSTORE8 PUSH1 0xA DUP6 DUP2 PUSH2 0x1509 JUMPI PUSH2 0x1508 PUSH2 0x2BD0 JUMP JUMPDEST JUMPDEST DIV SWAP5 POP PUSH0 DUP6 SUB PUSH2 0x14C0 JUMPI JUMPDEST DUP2 SWAP4 POP POP POP POP SWAP2 SWAP1 POP JUMP JUMPDEST PUSH0 PUSH1 0x8 PUSH0 DUP4 PUSH20 0xFFFFFFFFFFFFFFFFFFFFFFFFFFFFFFFFFFFFFFFF AND PUSH20 0xFFFFFFFFFFFFFFFFFFFFFFFFFFFFFFFFFFFFFFFF AND DUP2 MSTORE PUSH1 0x20 ADD SWAP1 DUP2 MSTORE PUSH1 0x20 ADD PUSH0 KECCAK256 PUSH0 SWAP1 SLOAD SWAP1 PUSH2 0x100 EXP SWAP1 DIV PUSH1 0xFF AND SWAP1 POP SWAP2 SWAP1 POP JUMP JUMPDEST PUSH0 CALLER SWAP1 POP SWAP1 JUMP JUMPDEST PUSH0 DUP1 PUSH1 0x1 PUSH1 0x3 SLOAD PUSH2 0x1589 SWAP2 SWAP1 PUSH2 0x2B9D JUMP JUMPDEST SWAP1 POP PUSH0 PUSH20 0xFFFFFFFFFFFFFFFFFFFFFFFFFFFFFFFFFFFFFFFF AND DUP5 PUSH20 0xFFFFFFFFFFFFFFFFFFFFFFFFFFFFFFFFFFFFFFFF AND SUB PUSH2 0x15FB JUMPI PUSH0 PUSH1 0x40 MLOAD PUSH32 0x74F5E87D00000000000000000000000000000000000000000000000000000000 DUP2 MSTORE PUSH1 0x4 ADD PUSH2 0x15F2 SWAP2 SWAP1 PUSH2 0x1E3A JUMP JUMPDEST PUSH1 0x40 MLOAD DUP1 SWAP2 SUB SWAP1 REVERT JUMPDEST PUSH2 0x1604 DUP2 PUSH2 0x1989 JUMP JUMPDEST ISZERO PUSH2 0x1646 JUMPI DUP1 PUSH1 0x40 MLOAD PUSH32 0xF342BDC200000000000000000000000000000000000000000000000000000000 DUP2 MSTORE PUSH1 0x4 ADD PUSH2 0x163D SWAP2 SWAP1 PUSH2 0x1ECA JUMP JUMPDEST PUSH1 0x40 MLOAD DUP1 SWAP2 SUB SWAP1 REVERT JUMPDEST PUSH2 0x164F DUP5 PUSH2 0x1B96 JUMP JUMPDEST PUSH2 0x166D JUMPI PUSH1 0x1 PUSH1 0x2 PUSH0 DUP3 DUP3 SLOAD PUSH2 0x1665 SWAP2 SWAP1 PUSH2 0x2B9D JUMP JUMPDEST SWAP3 POP POP DUP2 SWAP1 SSTORE POP JUMPDEST PUSH1 0x1 PUSH1 0x7 PUSH0 DUP7 PUSH20 0xFFFFFFFFFFFFFFFFFFFFFFFFFFFFFFFFFFFFFFFF AND PUSH20 0xFFFFFFFFFFFFFFFFFFFFFFFFFFFFFFFFFFFFFFFF AND DUP2 MSTORE PUSH1 0x20 ADD SWAP1 DUP2 MSTORE PUSH1 0x20 ADD PUSH0 KECCAK256 PUSH0 DUP3 DUP3 SLOAD ADD SWAP3 POP POP DUP2 SWAP1 SSTORE POP PUSH1 0x1 PUSH1 0x3 PUSH0 DUP3 DUP3 SLOAD ADD SWAP3 POP POP DUP2 SWAP1 SSTORE POP DUP4 PUSH1 0x4 PUSH0 DUP4 DUP2 MSTORE PUSH1 0x20 ADD SWAP1 DUP2 MSTORE PUSH1 0x20 ADD PUSH0 KECCAK256 PUSH0 PUSH2 0x100 EXP DUP2 SLOAD DUP2 PUSH20 0xFFFFFFFFFFFFFFFFFFFFFFFFFFFFFFFFFFFFFFFF MUL NOT AND SWAP1 DUP4 PUSH20 0xFFFFFFFFFFFFFFFFFFFFFFFFFFFFFFFFFFFFFFFF AND MUL OR SWAP1 SSTORE POP DUP3 PUSH1 0x5 PUSH0 DUP4 DUP2 MSTORE PUSH1 0x20 ADD SWAP1 DUP2 MSTORE PUSH1 0x20 ADD PUSH0 KECCAK256 DUP2 SWAP1 SSTORE POP PUSH1 0x1 PUSH1 0x6 PUSH0 DUP4 DUP2 MSTORE PUSH1 0x20 ADD SWAP1 DUP2 MSTORE PUSH1 0x20 ADD PUSH0 KECCAK256 DUP2 SWAP1 SSTORE POP PUSH1 0x1 PUSH1 0xA PUSH0 DUP7 PUSH20 0xFFFFFFFFFFFFFFFFFFFFFFFFFFFFFFFFFFFFFFFF AND PUSH20 0xFFFFFFFFFFFFFFFFFFFFFFFFFFFFFFFFFFFFFFFF AND DUP2 MSTORE PUSH1 0x20 ADD SWAP1 DUP2 MSTORE PUSH1 0x20 ADD PUSH0 KECCAK256 PUSH0 DUP4 DUP2 MSTORE PUSH1 0x20 ADD SWAP1 DUP2 MSTORE PUSH1 0x20 ADD PUSH0 KECCAK256 PUSH0 PUSH2 0x100 EXP DUP2 SLOAD DUP2 PUSH1 0xFF MUL NOT AND SWAP1 DUP4 ISZERO ISZERO MUL OR SWAP1 SSTORE POP DUP1 PUSH1 0x9 PUSH0 DUP7 PUSH20 0xFFFFFFFFFFFFFFFFFFFFFFFFFFFFFFFFFFFFFFFF AND PUSH20 0xFFFFFFFFFFFFFFFFFFFFFFFFFFFFFFFFFFFFFFFF AND DUP2 MSTORE PUSH1 0x20 ADD SWAP1 DUP2 MSTORE PUSH1 0x20 ADD PUSH0 KECCAK256 PUSH0 PUSH1 0x1 PUSH1 0x7 PUSH0 DUP10 PUSH20 0xFFFFFFFFFFFFFFFFFFFFFFFFFFFFFFFFFFFFFFFF AND PUSH20 0xFFFFFFFFFFFFFFFFFFFFFFFFFFFFFFFFFFFFFFFF AND DUP2 MSTORE PUSH1 0x20 ADD SWAP1 DUP2 MSTORE PUSH1 0x20 ADD PUSH0 KECCAK256 SLOAD PUSH2 0x1831 SWAP2 SWAP1 PUSH2 0x2BFD JUMP JUMPDEST DUP2 MSTORE PUSH1 0x20 ADD SWAP1 DUP2 MSTORE PUSH1 0x20 ADD PUSH0 KECCAK256 DUP2 SWAP1 SSTORE POP DUP3 DUP2 DUP6 PUSH20 0xFFFFFFFFFFFFFFFFFFFFFFFFFFFFFFFFFFFFFFFF AND PUSH32 0x2F00E3CDD69A77BE7ED215EC7B2A36784DD158F921FCA79AC29DEFFA353FE6EE PUSH0 PUSH1 0x40 MLOAD PUSH2 0x188A SWAP2 SWAP1 PUSH2 0x1E3A JUMP JUMPDEST PUSH1 0x40 MLOAD DUP1 SWAP2 SUB SWAP1 LOG4 DUP1 SWAP2 POP POP SWAP3 SWAP2 POP POP JUMP JUMPDEST PUSH0 PUSH2 0x18A6 DUP5 PUSH2 0x1BDF JUMP JUMPDEST PUSH2 0x18B3 JUMPI PUSH1 0x1 SWAP1 POP PUSH2 0x1981 JUMP JUMPDEST PUSH0 DUP5 PUSH20 0xFFFFFFFFFFFFFFFFFFFFFFFFFFFFFFFFFFFFFFFF AND PUSH4 0x150B7A02 CALLER DUP9 DUP8 DUP8 PUSH1 0x40 MLOAD DUP6 PUSH4 0xFFFFFFFF AND PUSH1 0xE0 SHL DUP2 MSTORE PUSH1 0x4 ADD PUSH2 0x18F3 SWAP5 SWAP4 SWAP3 SWAP2 SWAP1 PUSH2 0x2C82 JUMP JUMPDEST PUSH1 0x20 PUSH1 0x40 MLOAD DUP1 DUP4 SUB DUP2 PUSH0 DUP8 GAS CALL ISZERO DUP1 ISZERO PUSH2 0x190F JUMPI RETURNDATASIZE PUSH0 DUP1 RETURNDATACOPY RETURNDATASIZE PUSH0 REVERT JUMPDEST POP POP POP POP PUSH1 0x40 MLOAD RETURNDATASIZE PUSH1 0x1F NOT PUSH1 0x1F DUP3 ADD AND DUP3 ADD DUP1 PUSH1 0x40 MSTORE POP DUP2 ADD SWAP1 PUSH2 0x1933 SWAP2 SWAP1 PUSH2 0x2CE0 JUMP JUMPDEST SWAP1 POP PUSH4 0x150B7A02 PUSH1 0xE0 SHL PUSH28 0xFFFFFFFFFFFFFFFFFFFFFFFFFFFFFFFFFFFFFFFFFFFFFFFFFFFFFFFF NOT AND DUP2 PUSH28 0xFFFFFFFFFFFFFFFFFFFFFFFFFFFFFFFFFFFFFFFFFFFFFFFFFFFFFFFF NOT AND EQ SWAP2 POP POP JUMPDEST SWAP5 SWAP4 POP POP POP POP JUMP JUMPDEST PUSH0 DUP1 PUSH20 0xFFFFFFFFFFFFFFFFFFFFFFFFFFFFFFFFFFFFFFFF AND PUSH2 0x19AA DUP4 PUSH2 0x1BF6 JUMP JUMPDEST PUSH20 0xFFFFFFFFFFFFFFFFFFFFFFFFFFFFFFFFFFFFFFFF AND EQ ISZERO SWAP1 POP SWAP2 SWAP1 POP JUMP JUMPDEST DUP2 PUSH20 0xFFFFFFFFFFFFFFFFFFFFFFFFFFFFFFFFFFFFFFFF AND PUSH2 0x19E9 DUP3 PUSH2 0x1BF6 JUMP JUMPDEST PUSH20 0xFFFFFFFFFFFFFFFFFFFFFFFFFFFFFFFFFFFFFFFF AND EQ PUSH2 0x1A41 JUMPI DUP2 PUSH1 0x40 MLOAD PUSH32 0x5015929900000000000000000000000000000000000000000000000000000000 DUP2 MSTORE PUSH1 0x4 ADD PUSH2 0x1A38 SWAP2 SWAP1 PUSH2 0x1E3A JUMP JUMPDEST PUSH1 0x40 MLOAD DUP1 SWAP2 SUB SWAP1 REVERT JUMPDEST POP POP JUMP JUMPDEST PUSH0 DUP1 PUSH0 SWAP1 POP PUSH27 0x184F03E93FF9F4DAA797ED6E38ED64BF6A1F010000000000000000 DUP4 LT PUSH2 0x1AA1 JUMPI PUSH27 0x184F03E93FF9F4DAA797ED6E38ED64BF6A1F010000000000000000 DUP4 DUP2 PUSH2 0x1A97 JUMPI PUSH2 0x1A96 PUSH2 0x2BD0 JUMP JUMPDEST JUMPDEST DIV SWAP3 POP PUSH1 0x40 DUP2 ADD SWAP1 POP JUMPDEST PUSH14 0x4EE2D6D415B85ACEF8100000000 DUP4 LT PUSH2 0x1ADE JUMPI PUSH14 0x4EE2D6D415B85ACEF8100000000 DUP4 DUP2 PUSH2 0x1AD4 JUMPI PUSH2 0x1AD3 PUSH2 0x2BD0 JUMP JUMPDEST JUMPDEST DIV SWAP3 POP PUSH1 0x20 DUP2 ADD SWAP1 POP JUMPDEST PUSH7 0x2386F26FC10000 DUP4 LT PUSH2 0x1B0D JUMPI PUSH7 0x2386F26FC10000 DUP4 DUP2 PUSH2 0x1B03 JUMPI PUSH2 0x1B02 PUSH2 0x2BD0 JUMP JUMPDEST JUMPDEST DIV SWAP3 POP PUSH1 0x10 DUP2 ADD SWAP1 POP JUMPDEST PUSH4 0x5F5E100 DUP4 LT PUSH2 0x1B36 JUMPI PUSH4 0x5F5E100 DUP4 DUP2 PUSH2 0x1B2C JUMPI PUSH2 0x1B2B PUSH2 0x2BD0 JUMP JUMPDEST JUMPDEST DIV SWAP3 POP PUSH1 0x8 DUP2 ADD SWAP1 POP JUMPDEST PUSH2 0x2710 DUP4 LT PUSH2 0x1B5B JUMPI PUSH2 0x2710 DUP4 DUP2 PUSH2 0x1B51 JUMPI PUSH2 0x1B50 PUSH2 0x2BD0 JUMP JUMPDEST JUMPDEST DIV SWAP3 POP PUSH1 0x4 DUP2 ADD SWAP1 POP JUMPDEST PUSH1 0x64 DUP4 LT PUSH2 0x1B7E JUMPI PUSH1 0x64 DUP4 DUP2 PUSH2 0x1B74 JUMPI PUSH2 0x1B73 PUSH2 0x2BD0 JUMP JUMPDEST JUMPDEST DIV SWAP3 POP PUSH1 0x2 DUP2 ADD SWAP1 POP JUMPDEST PUSH1 0xA DUP4 LT PUSH2 0x1B8D JUMPI PUSH1 0x1 DUP2 ADD SWAP1 POP JUMPDEST DUP1 SWAP2 POP POP SWAP2 SWAP1 POP JUMP JUMPDEST PUSH0 DUP1 PUSH1 0x7 PUSH0 DUP5 PUSH20 0xFFFFFFFFFFFFFFFFFFFFFFFFFFFFFFFFFFFFFFFF AND PUSH20 0xFFFFFFFFFFFFFFFFFFFFFFFFFFFFFFFFFFFFFFFF AND DUP2 MSTORE PUSH1 0x20 ADD SWAP1 DUP2 MSTORE PUSH1 0x20 ADD PUSH0 KECCAK256 SLOAD EQ ISZERO SWAP1 POP SWAP2 SWAP1 POP JUMP JUMPDEST PUSH0 DUP1 DUP3 EXTCODESIZE SWAP1 POP PUSH0 DUP2 PUSH4 0xFFFFFFFF AND GT SWAP2 POP POP SWAP2 SWAP1 POP JUMP JUMPDEST PUSH0 PUSH1 0x4 PUSH0 DUP4 DUP2 MSTORE PUSH1 0x20 ADD SWAP1 DUP2 MSTORE PUSH1 0x20 ADD PUSH0 KECCAK256 PUSH0 SWAP1 SLOAD SWAP1 PUSH2 0x100 EXP SWAP1 DIV PUSH20 0xFFFFFFFFFFFFFFFFFFFFFFFFFFFFFFFFFFFFFFFF AND SWAP1 POP SWAP2 SWAP1 POP JUMP JUMPDEST PUSH0 PUSH1 0x40 MLOAD SWAP1 POP SWAP1 JUMP JUMPDEST PUSH0 DUP1 REVERT JUMPDEST PUSH0 DUP1 REVERT JUMPDEST PUSH0 PUSH32 0xFFFFFFFF00000000000000000000000000000000000000000000000000000000 DUP3 AND SWAP1 POP SWAP2 SWAP1 POP JUMP JUMPDEST PUSH2 0x1C74 DUP2 PUSH2 0x1C40 JUMP JUMPDEST DUP2 EQ PUSH2 0x1C7E JUMPI PUSH0 DUP1 REVERT JUMPDEST POP JUMP JUMPDEST PUSH0 DUP2 CALLDATALOAD SWAP1 POP PUSH2 0x1C8F DUP2 PUSH2 0x1C6B JUMP JUMPDEST SWAP3 SWAP2 POP POP JUMP JUMPDEST PUSH0 PUSH1 0x20 DUP3 DUP5 SUB SLT ISZERO PUSH2 0x1CAA JUMPI PUSH2 0x1CA9 PUSH2 0x1C38 JUMP JUMPDEST JUMPDEST PUSH0 PUSH2 0x1CB7 DUP5 DUP3 DUP6 ADD PUSH2 0x1C81 JUMP JUMPDEST SWAP2 POP POP SWAP3 SWAP2 POP POP JUMP JUMPDEST PUSH0 DUP2 ISZERO ISZERO SWAP1 POP SWAP2 SWAP1 POP JUMP JUMPDEST PUSH2 0x1CD4 DUP2 PUSH2 0x1CC0 JUMP JUMPDEST DUP3 MSTORE POP POP JUMP JUMPDEST PUSH0 PUSH1 0x20 DUP3 ADD SWAP1 POP PUSH2 0x1CED PUSH0 DUP4 ADD DUP5 PUSH2 0x1CCB JUMP JUMPDEST SWAP3 SWAP2 POP POP JUMP JUMPDEST PUSH0 DUP2 MLOAD SWAP1 POP SWAP2 SWAP1 POP JUMP JUMPDEST PUSH0 DUP3 DUP3 MSTORE PUSH1 0x20 DUP3 ADD SWAP1 POP SWAP3 SWAP2 POP POP JUMP JUMPDEST PUSH0 JUMPDEST DUP4 DUP2 LT ISZERO PUSH2 0x1D2A JUMPI DUP1 DUP3 ADD MLOAD DUP2 DUP5 ADD MSTORE PUSH1 0x20 DUP2 ADD SWAP1 POP PUSH2 0x1D0F JUMP JUMPDEST PUSH0 DUP5 DUP5 ADD MSTORE POP POP POP POP JUMP JUMPDEST PUSH0 PUSH1 0x1F NOT PUSH1 0x1F DUP4 ADD AND SWAP1 POP SWAP2 SWAP1 POP JUMP JUMPDEST PUSH0 PUSH2 0x1D4F DUP3 PUSH2 0x1CF3 JUMP JUMPDEST PUSH2 0x1D59 DUP2 DUP6 PUSH2 0x1CFD JUMP JUMPDEST SWAP4 POP PUSH2 0x1D69 DUP2 DUP6 PUSH1 0x20 DUP7 ADD PUSH2 0x1D0D JUMP JUMPDEST PUSH2 0x1D72 DUP2 PUSH2 0x1D35 JUMP JUMPDEST DUP5 ADD SWAP2 POP POP SWAP3 SWAP2 POP POP JUMP JUMPDEST PUSH0 PUSH1 0x20 DUP3 ADD SWAP1 POP DUP2 DUP2 SUB PUSH0 DUP4 ADD MSTORE PUSH2 0x1D95 DUP2 DUP5 PUSH2 0x1D45 JUMP JUMPDEST SWAP1 POP SWAP3 SWAP2 POP POP JUMP JUMPDEST PUSH0 DUP2 SWAP1 POP SWAP2 SWAP1 POP JUMP JUMPDEST PUSH2 0x1DAF DUP2 PUSH2 0x1D9D JUMP JUMPDEST DUP2 EQ PUSH2 0x1DB9 JUMPI PUSH0 DUP1 REVERT JUMPDEST POP JUMP JUMPDEST PUSH0 DUP2 CALLDATALOAD SWAP1 POP PUSH2 0x1DCA DUP2 PUSH2 0x1DA6 JUMP JUMPDEST SWAP3 SWAP2 POP POP JUMP JUMPDEST PUSH0 PUSH1 0x20 DUP3 DUP5 SUB SLT ISZERO PUSH2 0x1DE5 JUMPI PUSH2 0x1DE4 PUSH2 0x1C38 JUMP JUMPDEST JUMPDEST PUSH0 PUSH2 0x1DF2 DUP5 DUP3 DUP6 ADD PUSH2 0x1DBC JUMP JUMPDEST SWAP2 POP POP SWAP3 SWAP2 POP POP JUMP JUMPDEST PUSH0 PUSH20 0xFFFFFFFFFFFFFFFFFFFFFFFFFFFFFFFFFFFFFFFF DUP3 AND SWAP1 POP SWAP2 SWAP1 POP JUMP JUMPDEST PUSH0 PUSH2 0x1E24 DUP3 PUSH2 0x1DFB JUMP JUMPDEST SWAP1 POP SWAP2 SWAP1 POP JUMP JUMPDEST PUSH2 0x1E34 DUP2 PUSH2 0x1E1A JUMP JUMPDEST DUP3 MSTORE POP POP JUMP JUMPDEST PUSH0 PUSH1 0x20 DUP3 ADD SWAP1 POP PUSH2 0x1E4D PUSH0 DUP4 ADD DUP5 PUSH2 0x1E2B JUMP JUMPDEST SWAP3 SWAP2 POP POP JUMP JUMPDEST PUSH2 0x1E5C DUP2 PUSH2 0x1E1A JUMP JUMPDEST DUP2 EQ PUSH2 0x1E66 JUMPI PUSH0 DUP1 REVERT JUMPDEST POP JUMP JUMPDEST PUSH0 DUP2 CALLDATALOAD SWAP1 POP PUSH2 0x1E77 DUP2 PUSH2 0x1E53 JUMP JUMPDEST SWAP3 SWAP2 POP POP JUMP JUMPDEST PUSH0 DUP1 PUSH1 0x40 DUP4 DUP6 SUB SLT ISZERO PUSH2 0x1E93 JUMPI PUSH2 0x1E92 PUSH2 0x1C38 JUMP JUMPDEST JUMPDEST PUSH0 PUSH2 0x1EA0 DUP6 DUP3 DUP7 ADD PUSH2 0x1E69 JUMP JUMPDEST SWAP3 POP POP PUSH1 0x20 PUSH2 0x1EB1 DUP6 DUP3 DUP7 ADD PUSH2 0x1DBC JUMP JUMPDEST SWAP2 POP POP SWAP3 POP SWAP3 SWAP1 POP JUMP JUMPDEST PUSH2 0x1EC4 DUP2 PUSH2 0x1D9D JUMP JUMPDEST DUP3 MSTORE POP POP JUMP JUMPDEST PUSH0 PUSH1 0x20 DUP3 ADD SWAP1 POP PUSH2 0x1EDD PUSH0 DUP4 ADD DUP5 PUSH2 0x1EBB JUMP JUMPDEST SWAP3 SWAP2 POP POP JUMP JUMPDEST PUSH2 0x1EEC DUP2 PUSH2 0x1CC0 JUMP JUMPDEST DUP2 EQ PUSH2 0x1EF6 JUMPI PUSH0 DUP1 REVERT JUMPDEST POP JUMP JUMPDEST PUSH0 DUP2 CALLDATALOAD SWAP1 POP PUSH2 0x1F07 DUP2 PUSH2 0x1EE3 JUMP JUMPDEST SWAP3 SWAP2 POP POP JUMP JUMPDEST PUSH0 PUSH1 0x20 DUP3 DUP5 SUB SLT ISZERO PUSH2 0x1F22 JUMPI PUSH2 0x1F21 PUSH2 0x1C38 JUMP JUMPDEST JUMPDEST PUSH0 PUSH2 0x1F2F DUP5 DUP3 DUP6 ADD PUSH2 0x1EF9 JUMP JUMPDEST SWAP2 POP POP SWAP3 SWAP2 POP POP JUMP JUMPDEST PUSH0 DUP1 PUSH0 PUSH1 0x60 DUP5 DUP7 SUB SLT ISZERO PUSH2 0x1F4F JUMPI PUSH2 0x1F4E PUSH2 0x1C38 JUMP JUMPDEST JUMPDEST PUSH0 PUSH2 0x1F5C DUP7 DUP3 DUP8 ADD PUSH2 0x1E69 JUMP JUMPDEST SWAP4 POP POP PUSH1 0x20 PUSH2 0x1F6D DUP7 DUP3 DUP8 ADD PUSH2 0x1E69 JUMP JUMPDEST SWAP3 POP POP PUSH1 0x40 PUSH2 0x1F7E DUP7 DUP3 DUP8 ADD PUSH2 0x1DBC JUMP JUMPDEST SWAP2 POP POP SWAP3 POP SWAP3 POP SWAP3 JUMP JUMPDEST PUSH0 PUSH1 0x20 DUP3 DUP5 SUB SLT ISZERO PUSH2 0x1F9D JUMPI PUSH2 0x1F9C PUSH2 0x1C38 JUMP JUMPDEST JUMPDEST PUSH0 PUSH2 0x1FAA DUP5 DUP3 DUP6 ADD PUSH2 0x1E69 JUMP JUMPDEST SWAP2 POP POP SWAP3 SWAP2 POP POP JUMP JUMPDEST PUSH0 DUP1 PUSH1 0x40 DUP4 DUP6 SUB SLT ISZERO PUSH2 0x1FC9 JUMPI PUSH2 0x1FC8 PUSH2 0x1C38 JUMP JUMPDEST JUMPDEST PUSH0 PUSH2 0x1FD6 DUP6 DUP3 DUP7 ADD PUSH2 0x1DBC JUMP JUMPDEST SWAP3 POP POP PUSH1 0x20 PUSH2 0x1FE7 DUP6 DUP3 DUP7 ADD PUSH2 0x1EF9 JUMP JUMPDEST SWAP2 POP POP SWAP3 POP SWAP3 SWAP1 POP JUMP JUMPDEST PUSH0 DUP1 PUSH1 0x40 DUP4 DUP6 SUB SLT ISZERO PUSH2 0x2007 JUMPI PUSH2 0x2006 PUSH2 0x1C38 JUMP JUMPDEST JUMPDEST PUSH0 PUSH2 0x2014 DUP6 DUP3 DUP7 ADD PUSH2 0x1E69 JUMP JUMPDEST SWAP3 POP POP PUSH1 0x20 PUSH2 0x2025 DUP6 DUP3 DUP7 ADD PUSH2 0x1EF9 JUMP JUMPDEST SWAP2 POP POP SWAP3 POP SWAP3 SWAP1 POP JUMP JUMPDEST PUSH0 DUP1 REVERT JUMPDEST PUSH0 DUP1 REVERT JUMPDEST PUSH0 DUP1 REVERT JUMPDEST PUSH0 DUP1 DUP4 PUSH1 0x1F DUP5 ADD SLT PUSH2 0x2050 JUMPI PUSH2 0x204F PUSH2 0x202F JUMP JUMPDEST JUMPDEST DUP3 CALLDATALOAD SWAP1 POP PUSH8 0xFFFFFFFFFFFFFFFF DUP2 GT ISZERO PUSH2 0x206D JUMPI PUSH2 0x206C PUSH2 0x2033 JUMP JUMPDEST JUMPDEST PUSH1 0x20 DUP4 ADD SWAP2 POP DUP4 PUSH1 0x1 DUP3 MUL DUP4 ADD GT ISZERO PUSH2 0x2089 JUMPI PUSH2 0x2088 PUSH2 0x2037 JUMP JUMPDEST JUMPDEST SWAP3 POP SWAP3 SWAP1 POP JUMP JUMPDEST PUSH0 DUP1 PUSH0 DUP1 PUSH0 PUSH1 0x80 DUP7 DUP9 SUB SLT ISZERO PUSH2 0x20A9 JUMPI PUSH2 0x20A8 PUSH2 0x1C38 JUMP JUMPDEST JUMPDEST PUSH0 PUSH2 0x20B6 DUP9 DUP3 DUP10 ADD PUSH2 0x1E69 JUMP JUMPDEST SWAP6 POP POP PUSH1 0x20 PUSH2 0x20C7 DUP9 DUP3 DUP10 ADD PUSH2 0x1E69 JUMP JUMPDEST SWAP5 POP POP PUSH1 0x40 PUSH2 0x20D8 DUP9 DUP3 DUP10 ADD PUSH2 0x1DBC JUMP JUMPDEST SWAP4 POP POP PUSH1 0x60 DUP7 ADD CALLDATALOAD PUSH8 0xFFFFFFFFFFFFFFFF DUP2 GT ISZERO PUSH2 0x20F9 JUMPI PUSH2 0x20F8 PUSH2 0x1C3C JUMP JUMPDEST JUMPDEST PUSH2 0x2105 DUP9 DUP3 DUP10 ADD PUSH2 0x203B JUMP JUMPDEST SWAP3 POP SWAP3 POP POP SWAP3 SWAP6 POP SWAP3 SWAP6 SWAP1 SWAP4 POP JUMP JUMPDEST PUSH0 DUP1 REVERT JUMPDEST PUSH32 0x4E487B7100000000000000000000000000000000000000000000000000000000 PUSH0 MSTORE PUSH1 0x41 PUSH1 0x4 MSTORE PUSH1 0x24 PUSH0 REVERT JUMPDEST PUSH2 0x214E DUP3 PUSH2 0x1D35 JUMP JUMPDEST DUP2 ADD DUP2 DUP2 LT PUSH8 0xFFFFFFFFFFFFFFFF DUP3 GT OR ISZERO PUSH2 0x216D JUMPI PUSH2 0x216C PUSH2 0x2118 JUMP JUMPDEST JUMPDEST DUP1 PUSH1 0x40 MSTORE POP POP POP JUMP JUMPDEST PUSH0 PUSH2 0x217F PUSH2 0x1C2F JUMP JUMPDEST SWAP1 POP PUSH2 0x218B DUP3 DUP3 PUSH2 0x2145 JUMP JUMPDEST SWAP2 SWAP1 POP JUMP JUMPDEST PUSH0 PUSH8 0xFFFFFFFFFFFFFFFF DUP3 GT ISZERO PUSH2 0x21AA JUMPI PUSH2 0x21A9 PUSH2 0x2118 JUMP JUMPDEST JUMPDEST PUSH2 0x21B3 DUP3 PUSH2 0x1D35 JUMP JUMPDEST SWAP1 POP PUSH1 0x20 DUP2 ADD SWAP1 POP SWAP2 SWAP1 POP JUMP JUMPDEST DUP3 DUP2 DUP4 CALLDATACOPY PUSH0 DUP4 DUP4 ADD MSTORE POP POP POP JUMP JUMPDEST PUSH0 PUSH2 0x21E0 PUSH2 0x21DB DUP5 PUSH2 0x2190 JUMP JUMPDEST PUSH2 0x2176 JUMP JUMPDEST SWAP1 POP DUP3 DUP2 MSTORE PUSH1 0x20 DUP2 ADD DUP5 DUP5 DUP5 ADD GT ISZERO PUSH2 0x21FC JUMPI PUSH2 0x21FB PUSH2 0x2114 JUMP JUMPDEST JUMPDEST PUSH2 0x2207 DUP5 DUP3 DUP6 PUSH2 0x21C0 JUMP JUMPDEST POP SWAP4 SWAP3 POP POP POP JUMP JUMPDEST PUSH0 DUP3 PUSH1 0x1F DUP4 ADD SLT PUSH2 0x2223 JUMPI PUSH2 0x2222 PUSH2 0x202F JUMP JUMPDEST JUMPDEST DUP2 CALLDATALOAD PUSH2 0x2233 DUP5 DUP3 PUSH1 0x20 DUP7 ADD PUSH2 0x21CE JUMP JUMPDEST SWAP2 POP POP SWAP3 SWAP2 POP POP JUMP JUMPDEST PUSH0 PUSH1 0x20 DUP3 DUP5 SUB SLT ISZERO PUSH2 0x2251 JUMPI PUSH2 0x2250 PUSH2 0x1C38 JUMP JUMPDEST JUMPDEST PUSH0 DUP3 ADD CALLDATALOAD PUSH8 0xFFFFFFFFFFFFFFFF DUP2 GT ISZERO PUSH2 0x226E JUMPI PUSH2 0x226D PUSH2 0x1C3C JUMP JUMPDEST JUMPDEST PUSH2 0x227A DUP5 DUP3 DUP6 ADD PUSH2 0x220F JUMP JUMPDEST SWAP2 POP POP SWAP3 SWAP2 POP POP JUMP JUMPDEST PUSH0 DUP1 PUSH1 0x40 DUP4 DUP6 SUB SLT ISZERO PUSH2 0x2299 JUMPI PUSH2 0x2298 PUSH2 0x1C38 JUMP JUMPDEST JUMPDEST PUSH0 PUSH2 0x22A6 DUP6 DUP3 DUP7 ADD PUSH2 0x1E69 JUMP JUMPDEST SWAP3 POP POP PUSH1 0x20 PUSH2 0x22B7 DUP6 DUP3 DUP7 ADD PUSH2 0x1E69 JUMP JUMPDEST SWAP2 POP POP SWAP3 POP SWAP3 SWAP1 POP JUMP JUMPDEST PUSH32 0x676574417070726F766564000000000000000000000000000000000000000000 PUSH0 DUP3 ADD MSTORE POP JUMP JUMPDEST PUSH0 PUSH2 0x22F5 PUSH1 0xB DUP4 PUSH2 0x1CFD JUMP JUMPDEST SWAP2 POP PUSH2 0x2300 DUP3 PUSH2 0x22C1 JUMP JUMPDEST PUSH1 0x20 DUP3 ADD SWAP1 POP SWAP2 SWAP1 POP JUMP JUMPDEST PUSH0 PUSH1 0x20 DUP3 ADD SWAP1 POP DUP2 DUP2 SUB PUSH0 DUP4 ADD MSTORE PUSH2 0x2322 DUP2 PUSH2 0x22E9 JUMP JUMPDEST SWAP1 POP SWAP2 SWAP1 POP JUMP JUMPDEST PUSH32 0x617070726F766500000000000000000000000000000000000000000000000000 PUSH0 DUP3 ADD MSTORE POP JUMP JUMPDEST PUSH0 PUSH2 0x235D PUSH1 0x7 DUP4 PUSH2 0x1CFD JUMP JUMPDEST SWAP2 POP PUSH2 0x2368 DUP3 PUSH2 0x2329 JUMP JUMPDEST PUSH1 0x20 DUP3 ADD SWAP1 POP SWAP2 SWAP1 POP JUMP JUMPDEST PUSH0 PUSH1 0x20 DUP3 ADD SWAP1 POP DUP2 DUP2 SUB PUSH0 DUP4 ADD MSTORE PUSH2 0x238A DUP2 PUSH2 0x2351 JUMP JUMPDEST SWAP1 POP SWAP2 SWAP1 POP JUMP JUMPDEST PUSH32 0x7472616E7366657246726F6D0000000000000000000000000000000000000000 PUSH0 DUP3 ADD MSTORE POP JUMP JUMPDEST PUSH0 PUSH2 0x23C5 PUSH1 0xC DUP4 PUSH2 0x1CFD JUMP JUMPDEST SWAP2 POP PUSH2 0x23D0 DUP3 PUSH2 0x2391 JUMP JUMPDEST PUSH1 0x20 DUP3 ADD SWAP1 POP SWAP2 SWAP1 POP JUMP JUMPDEST PUSH0 PUSH1 0x20 DUP3 ADD SWAP1 POP DUP2 DUP2 SUB PUSH0 DUP4 ADD MSTORE PUSH2 0x23F2 DUP2 PUSH2 0x23B9 JUMP JUMPDEST SWAP1 POP SWAP2 SWAP1 POP JUMP JUMPDEST PUSH32 0x4F7574206F6620496E6465780000000000000000000000000000000000000000 PUSH0 DUP3 ADD MSTORE POP JUMP JUMPDEST PUSH0 PUSH2 0x242D PUSH1 0xC DUP4 PUSH2 0x1CFD JUMP JUMPDEST SWAP2 POP PUSH2 0x2438 DUP3 PUSH2 0x23F9 JUMP JUMPDEST PUSH1 0x20 DUP3 ADD SWAP1 POP SWAP2 SWAP1 POP JUMP JUMPDEST PUSH0 PUSH1 0x20 DUP3 ADD SWAP1 POP DUP2 DUP2 SUB PUSH0 DUP4 ADD MSTORE PUSH2 0x245A DUP2 PUSH2 0x2421 JUMP JUMPDEST SWAP1 POP SWAP2 SWAP1 POP JUMP JUMPDEST PUSH32 0x736166655472616E7366657246726F6D00000000000000000000000000000000 PUSH0 DUP3 ADD MSTORE POP JUMP JUMPDEST PUSH0 PUSH2 0x2495 PUSH1 0x10 DUP4 PUSH2 0x1CFD JUMP JUMPDEST SWAP2 POP PUSH2 0x24A0 DUP3 PUSH2 0x2461 JUMP JUMPDEST PUSH1 0x20 DUP3 ADD SWAP1 POP SWAP2 SWAP1 POP JUMP JUMPDEST PUSH0 PUSH1 0x20 DUP3 ADD SWAP1 POP DUP2 DUP2 SUB PUSH0 DUP4 ADD MSTORE PUSH2 0x24C2 DUP2 PUSH2 0x2489 JUMP JUMPDEST SWAP1 POP SWAP2 SWAP1 POP JUMP JUMPDEST PUSH0 PUSH1 0x40 DUP3 ADD SWAP1 POP PUSH2 0x24DC PUSH0 DUP4 ADD DUP6 PUSH2 0x1E2B JUMP JUMPDEST PUSH2 0x24E9 PUSH1 0x20 DUP4 ADD DUP5 PUSH2 0x1EBB JUMP JUMPDEST SWAP4 SWAP3 POP POP POP JUMP JUMPDEST PUSH32 0x736574417070726F76616C466F72416C6C000000000000000000000000000000 PUSH0 DUP3 ADD MSTORE POP JUMP JUMPDEST PUSH0 PUSH2 0x2524 PUSH1 0x11 DUP4 PUSH2 0x1CFD JUMP JUMPDEST SWAP2 POP PUSH2 0x252F DUP3 PUSH2 0x24F0 JUMP JUMPDEST PUSH1 0x20 DUP3 ADD SWAP1 POP SWAP2 SWAP1 POP JUMP JUMPDEST PUSH0 PUSH1 0x20 DUP3 ADD SWAP1 POP DUP2 DUP2 SUB PUSH0 DUP4 ADD MSTORE PUSH2 0x2551 DUP2 PUSH2 0x2518 JUMP JUMPDEST SWAP1 POP SWAP2 SWAP1 POP JUMP JUMPDEST PUSH32 0x4E487B7100000000000000000000000000000000000000000000000000000000 PUSH0 MSTORE PUSH1 0x22 PUSH1 0x4 MSTORE PUSH1 0x24 PUSH0 REVERT JUMPDEST PUSH0 PUSH1 0x2 DUP3 DIV SWAP1 POP PUSH1 0x1 DUP3 AND DUP1 PUSH2 0x259C JUMPI PUSH1 0x7F DUP3 AND SWAP2 POP JUMPDEST PUSH1 0x20 DUP3 LT DUP2 SUB PUSH2 0x25AF JUMPI PUSH2 0x25AE PUSH2 0x2558 JUMP JUMPDEST JUMPDEST POP SWAP2 SWAP1 POP JUMP JUMPDEST PUSH0 DUP2 SWAP1 POP SWAP3 SWAP2 POP POP JUMP JUMPDEST PUSH0 DUP2 SWAP1 POP DUP2 PUSH0 MSTORE PUSH1 0x20 PUSH0 KECCAK256 SWAP1 POP SWAP2 SWAP1 POP JUMP JUMPDEST PUSH0 DUP2 SLOAD PUSH2 0x25DD DUP2 PUSH2 0x2585 JUMP JUMPDEST PUSH2 0x25E7 DUP2 DUP7 PUSH2 0x25B5 JUMP JUMPDEST SWAP5 POP PUSH1 0x1 DUP3 AND PUSH0 DUP2 EQ PUSH2 0x2601 JUMPI PUSH1 0x1 DUP2 EQ PUSH2 0x2616 JUMPI PUSH2 0x2648 JUMP JUMPDEST PUSH1 0xFF NOT DUP4 AND DUP7 MSTORE DUP2 ISZERO ISZERO DUP3 MUL DUP7 ADD SWAP4 POP PUSH2 0x2648 JUMP JUMPDEST PUSH2 0x261F DUP6 PUSH2 0x25BF JUMP JUMPDEST PUSH0 JUMPDEST DUP4 DUP2 LT ISZERO PUSH2 0x2640 JUMPI DUP2 SLOAD DUP2 DUP10 ADD MSTORE PUSH1 0x1 DUP3 ADD SWAP2 POP PUSH1 0x20 DUP2 ADD SWAP1 POP PUSH2 0x2621 JUMP JUMPDEST DUP4 DUP9 ADD SWAP6 POP POP POP JUMPDEST POP POP POP SWAP3 SWAP2 POP POP JUMP JUMPDEST PUSH0 PUSH2 0x265B DUP3 PUSH2 0x1CF3 JUMP JUMPDEST PUSH2 0x2665 DUP2 DUP6 PUSH2 0x25B5 JUMP JUMPDEST SWAP4 POP PUSH2 0x2675 DUP2 DUP6 PUSH1 0x20 DUP7 ADD PUSH2 0x1D0D JUMP JUMPDEST DUP1 DUP5 ADD SWAP2 POP POP SWAP3 SWAP2 POP POP JUMP JUMPDEST PUSH32 0x3F746F6B656E547970653D000000000000000000000000000000000000000000 PUSH0 DUP3 ADD MSTORE POP JUMP JUMPDEST PUSH0 PUSH2 0x26B5 PUSH1 0xB DUP4 PUSH2 0x25B5 JUMP JUMPDEST SWAP2 POP PUSH2 0x26C0 DUP3 PUSH2 0x2681 JUMP JUMPDEST PUSH1 0xB DUP3 ADD SWAP1 POP SWAP2 SWAP1 POP JUMP JUMPDEST PUSH0 DUP2 SWAP1 POP SWAP2 SWAP1 POP JUMP JUMPDEST PUSH2 0x26E5 PUSH2 0x26E0 DUP3 PUSH2 0x1D9D JUMP JUMPDEST PUSH2 0x26CB JUMP JUMPDEST DUP3 MSTORE POP POP JUMP JUMPDEST PUSH0 PUSH2 0x26F6 DUP3 DUP7 PUSH2 0x25D1 JUMP JUMPDEST SWAP2 POP PUSH2 0x2702 DUP3 DUP6 PUSH2 0x2651 JUMP JUMPDEST SWAP2 POP PUSH2 0x270D DUP3 PUSH2 0x26A9 JUMP JUMPDEST SWAP2 POP PUSH2 0x2719 DUP3 DUP5 PUSH2 0x26D4 JUMP JUMPDEST PUSH1 0x20 DUP3 ADD SWAP2 POP DUP2 SWAP1 POP SWAP5 SWAP4 POP POP POP POP JUMP JUMPDEST PUSH0 PUSH1 0x20 PUSH1 0x1F DUP4 ADD DIV SWAP1 POP SWAP2 SWAP1 POP JUMP JUMPDEST PUSH0 DUP3 DUP3 SHL SWAP1 POP SWAP3 SWAP2 POP POP JUMP JUMPDEST PUSH0 PUSH1 0x8 DUP4 MUL PUSH2 0x2774 PUSH32 0xFFFFFFFFFFFFFFFFFFFFFFFFFFFFFFFFFFFFFFFFFFFFFFFFFFFFFFFFFFFFFFFF DUP3 PUSH2 0x2739 JUMP JUMPDEST PUSH2 0x277E DUP7 DUP4 PUSH2 0x2739 JUMP JUMPDEST SWAP6 POP DUP1 NOT DUP5 AND SWAP4 POP DUP1 DUP7 AND DUP5 OR SWAP3 POP POP POP SWAP4 SWAP3 POP POP POP JUMP JUMPDEST PUSH0 DUP2 SWAP1 POP SWAP2 SWAP1 POP JUMP JUMPDEST PUSH0 PUSH2 0x27B9 PUSH2 0x27B4 PUSH2 0x27AF DUP5 PUSH2 0x1D9D JUMP JUMPDEST PUSH2 0x2796 JUMP JUMPDEST PUSH2 0x1D9D JUMP JUMPDEST SWAP1 POP SWAP2 SWAP1 POP JUMP JUMPDEST PUSH0 DUP2 SWAP1 POP SWAP2 SWAP1 POP JUMP JUMPDEST PUSH2 0x27D2 DUP4 PUSH2 0x279F JUMP JUMPDEST PUSH2 0x27E6 PUSH2 0x27DE DUP3 PUSH2 0x27C0 JUMP JUMPDEST DUP5 DUP5 SLOAD PUSH2 0x2745 JUMP JUMPDEST DUP3 SSTORE POP POP POP POP JUMP JUMPDEST PUSH0 SWAP1 JUMP JUMPDEST PUSH2 0x27FA PUSH2 0x27EE JUMP JUMPDEST PUSH2 0x2805 DUP2 DUP5 DUP5 PUSH2 0x27C9 JUMP JUMPDEST POP POP POP JUMP JUMPDEST JUMPDEST DUP2 DUP2 LT ISZERO PUSH2 0x2828 JUMPI PUSH2 0x281D PUSH0 DUP3 PUSH2 0x27F2 JUMP JUMPDEST PUSH1 0x1 DUP2 ADD SWAP1 POP PUSH2 0x280B JUMP JUMPDEST POP POP JUMP JUMPDEST PUSH1 0x1F DUP3 GT ISZERO PUSH2 0x286D JUMPI PUSH2 0x283E DUP2 PUSH2 0x25BF JUMP JUMPDEST PUSH2 0x2847 DUP5 PUSH2 0x272A JUMP JUMPDEST DUP2 ADD PUSH1 0x20 DUP6 LT ISZERO PUSH2 0x2856 JUMPI DUP2 SWAP1 POP JUMPDEST PUSH2 0x286A PUSH2 0x2862 DUP6 PUSH2 0x272A JUMP JUMPDEST DUP4 ADD DUP3 PUSH2 0x280A JUMP JUMPDEST POP POP JUMPDEST POP POP POP JUMP JUMPDEST PUSH0 DUP3 DUP3 SHR SWAP1 POP SWAP3 SWAP2 POP POP JUMP JUMPDEST PUSH0 PUSH2 0x288D PUSH0 NOT DUP5 PUSH1 0x8 MUL PUSH2 0x2872 JUMP JUMPDEST NOT DUP1 DUP4 AND SWAP2 POP POP SWAP3 SWAP2 POP POP JUMP JUMPDEST PUSH0 PUSH2 0x28A5 DUP4 DUP4 PUSH2 0x287E JUMP JUMPDEST SWAP2 POP DUP3 PUSH1 0x2 MUL DUP3 OR SWAP1 POP SWAP3 SWAP2 POP POP JUMP JUMPDEST PUSH2 0x28BE DUP3 PUSH2 0x1CF3 JUMP JUMPDEST PUSH8 0xFFFFFFFFFFFFFFFF DUP2 GT ISZERO PUSH2 0x28D7 JUMPI PUSH2 0x28D6 PUSH2 0x2118 JUMP JUMPDEST JUMPDEST PUSH2 0x28E1 DUP3 SLOAD PUSH2 0x2585 JUMP JUMPDEST PUSH2 0x28EC DUP3 DUP3 DUP6 PUSH2 0x282C JUMP JUMPDEST PUSH0 PUSH1 0x20 SWAP1 POP PUSH1 0x1F DUP4 GT PUSH1 0x1 DUP2 EQ PUSH2 0x291D JUMPI PUSH0 DUP5 ISZERO PUSH2 0x290B JUMPI DUP3 DUP8 ADD MLOAD SWAP1 POP JUMPDEST PUSH2 0x2915 DUP6 DUP3 PUSH2 0x289A JUMP JUMPDEST DUP7 SSTORE POP PUSH2 0x297C JUMP JUMPDEST PUSH1 0x1F NOT DUP5 AND PUSH2 0x292B DUP7 PUSH2 0x25BF JUMP JUMPDEST PUSH0 JUMPDEST DUP3 DUP2 LT ISZERO PUSH2 0x2952 JUMPI DUP5 DUP10 ADD MLOAD DUP3 SSTORE PUSH1 0x1 DUP3 ADD SWAP2 POP PUSH1 0x20 DUP6 ADD SWAP5 POP PUSH1 0x20 DUP2 ADD SWAP1 POP PUSH2 0x292D JUMP JUMPDEST DUP7 DUP4 LT ISZERO PUSH2 0x296F JUMPI DUP5 DUP10 ADD MLOAD PUSH2 0x296B PUSH1 0x1F DUP10 AND DUP3 PUSH2 0x287E JUMP JUMPDEST DUP4 SSTORE POP JUMPDEST PUSH1 0x1 PUSH1 0x2 DUP9 MUL ADD DUP9 SSTORE POP POP POP JUMPDEST POP POP POP POP POP POP JUMP JUMPDEST PUSH32 0x6973417070726F766564466F72416C6C00000000000000000000000000000000 PUSH0 DUP3 ADD MSTORE POP JUMP JUMPDEST PUSH0 PUSH2 0x29B8 PUSH1 0x10 DUP4 PUSH2 0x1CFD JUMP JUMPDEST SWAP2 POP PUSH2 0x29C3 DUP3 PUSH2 0x2984 JUMP JUMPDEST PUSH1 0x20 DUP3 ADD SWAP1 POP SWAP2 SWAP1 POP JUMP JUMPDEST PUSH0 PUSH1 0x20 DUP3 ADD SWAP1 POP DUP2 DUP2 SUB PUSH0 DUP4 ADD MSTORE PUSH2 0x29E5 DUP2 PUSH2 0x29AC JUMP JUMPDEST SWAP1 POP SWAP2 SWAP1 POP JUMP JUMPDEST PUSH32 0x4F776E61626C653A206E6577206F776E657220697320746865207A65726F2061 PUSH0 DUP3 ADD MSTORE PUSH32 0x6464726573730000000000000000000000000000000000000000000000000000 PUSH1 0x20 DUP3 ADD MSTORE POP JUMP JUMPDEST PUSH0 PUSH2 0x2A46 PUSH1 0x26 DUP4 PUSH2 0x1CFD JUMP JUMPDEST SWAP2 POP PUSH2 0x2A51 DUP3 PUSH2 0x29EC JUMP JUMPDEST PUSH1 0x40 DUP3 ADD SWAP1 POP SWAP2 SWAP1 POP JUMP JUMPDEST PUSH0 PUSH1 0x20 DUP3 ADD SWAP1 POP DUP2 DUP2 SUB PUSH0 DUP4 ADD MSTORE PUSH2 0x2A73 DUP2 PUSH2 0x2A3A JUMP JUMPDEST SWAP1 POP SWAP2 SWAP1 POP JUMP JUMPDEST PUSH32 0x4F776E61626C653A2063616C6C6572206973206E6F7420746865206F776E6572 PUSH0 DUP3 ADD MSTORE POP JUMP JUMPDEST PUSH0 PUSH2 0x2AAE PUSH1 0x20 DUP4 PUSH2 0x1CFD JUMP JUMPDEST SWAP2 POP PUSH2 0x2AB9 DUP3 PUSH2 0x2A7A JUMP JUMPDEST PUSH1 0x20 DUP3 ADD SWAP1 POP SWAP2 SWAP1 POP JUMP JUMPDEST PUSH0 PUSH1 0x20 DUP3 ADD SWAP1 POP DUP2 DUP2 SUB PUSH0 DUP4 ADD MSTORE PUSH2 0x2ADB DUP2 PUSH2 0x2AA2 JUMP JUMPDEST SWAP1 POP SWAP2 SWAP1 POP JUMP JUMPDEST PUSH32 0x4552433732313A207472616E7366657220746F206E6F6E204552433732315265 PUSH0 DUP3 ADD MSTORE PUSH32 0x63656976657220696D706C656D656E7465720000000000000000000000000000 PUSH1 0x20 DUP3 ADD MSTORE POP JUMP JUMPDEST PUSH0 PUSH2 0x2B3C PUSH1 0x32 DUP4 PUSH2 0x1CFD JUMP JUMPDEST SWAP2 POP PUSH2 0x2B47 DUP3 PUSH2 0x2AE2 JUMP JUMPDEST PUSH1 0x40 DUP3 ADD SWAP1 POP SWAP2 SWAP1 POP JUMP JUMPDEST PUSH0 PUSH1 0x20 DUP3 ADD SWAP1 POP DUP2 DUP2 SUB PUSH0 DUP4 ADD MSTORE PUSH2 0x2B69 DUP2 PUSH2 0x2B30 JUMP JUMPDEST SWAP1 POP SWAP2 SWAP1 POP JUMP JUMPDEST PUSH32 0x4E487B7100000000000000000000000000000000000000000000000000000000 PUSH0 MSTORE PUSH1 0x11 PUSH1 0x4 MSTORE PUSH1 0x24 PUSH0 REVERT JUMPDEST PUSH0 PUSH2 0x2BA7 DUP3 PUSH2 0x1D9D JUMP JUMPDEST SWAP2 POP PUSH2 0x2BB2 DUP4 PUSH2 0x1D9D JUMP JUMPDEST SWAP3 POP DUP3 DUP3 ADD SWAP1 POP DUP1 DUP3 GT ISZERO PUSH2 0x2BCA JUMPI PUSH2 0x2BC9 PUSH2 0x2B70 JUMP JUMPDEST JUMPDEST SWAP3 SWAP2 POP POP JUMP JUMPDEST PUSH32 0x4E487B7100000000000000000000000000000000000000000000000000000000 PUSH0 MSTORE PUSH1 0x12 PUSH1 0x4 MSTORE PUSH1 0x24 PUSH0 REVERT JUMPDEST PUSH0 PUSH2 0x2C07 DUP3 PUSH2 0x1D9D JUMP JUMPDEST SWAP2 POP PUSH2 0x2C12 DUP4 PUSH2 0x1D9D JUMP JUMPDEST SWAP3 POP DUP3 DUP3 SUB SWAP1 POP DUP2 DUP2 GT ISZERO PUSH2 0x2C2A JUMPI PUSH2 0x2C29 PUSH2 0x2B70 JUMP JUMPDEST JUMPDEST SWAP3 SWAP2 POP POP JUMP JUMPDEST PUSH0 DUP2 MLOAD SWAP1 POP SWAP2 SWAP1 POP JUMP JUMPDEST PUSH0 DUP3 DUP3 MSTORE PUSH1 0x20 DUP3 ADD SWAP1 POP SWAP3 SWAP2 POP POP JUMP JUMPDEST PUSH0 PUSH2 0x2C54 DUP3 PUSH2 0x2C30 JUMP JUMPDEST PUSH2 0x2C5E DUP2 DUP6 PUSH2 0x2C3A JUMP JUMPDEST SWAP4 POP PUSH2 0x2C6E DUP2 DUP6 PUSH1 0x20 DUP7 ADD PUSH2 0x1D0D JUMP JUMPDEST PUSH2 0x2C77 DUP2 PUSH2 0x1D35 JUMP JUMPDEST DUP5 ADD SWAP2 POP POP SWAP3 SWAP2 POP POP JUMP JUMPDEST PUSH0 PUSH1 0x80 DUP3 ADD SWAP1 POP PUSH2 0x2C95 PUSH0 DUP4 ADD DUP8 PUSH2 0x1E2B JUMP JUMPDEST PUSH2 0x2CA2 PUSH1 0x20 DUP4 ADD DUP7 PUSH2 0x1E2B JUMP JUMPDEST PUSH2 0x2CAF PUSH1 0x40 DUP4 ADD DUP6 PUSH2 0x1EBB JUMP JUMPDEST DUP2 DUP2 SUB PUSH1 0x60 DUP4 ADD MSTORE PUSH2 0x2CC1 DUP2 DUP5 PUSH2 0x2C4A JUMP JUMPDEST SWAP1 POP SWAP6 SWAP5 POP POP POP POP POP JUMP JUMPDEST PUSH0 DUP2 MLOAD SWAP1 POP PUSH2 0x2CDA DUP2 PUSH2 0x1C6B JUMP JUMPDEST SWAP3 SWAP2 POP POP JUMP JUMPDEST PUSH0 PUSH1 0x20 DUP3 DUP5 SUB SLT ISZERO PUSH2 0x2CF5 JUMPI PUSH2 0x2CF4 PUSH2 0x1C38 JUMP JUMPDEST JUMPDEST PUSH0 PUSH2 0x2D02 DUP5 DUP3 DUP6 ADD PUSH2 0x2CCC JUMP JUMPDEST SWAP2 POP POP SWAP3 SWAP2 POP POP JUMP INVALID LOG2 PUSH5 0x6970667358 0x22 SLT KECCAK256 DUP5 MUL 0xE8 DUP11 RETURNDATASIZE 0xCC EXTCODECOPY 0xF6 MSIZE DUP5 0xE5 LOG4 0x2A SDIV 0xD5 0xAE PUSH18 0xE5DD2C5EE349AD0BF63B82A732825864736F PUSH13 0x63430008140033000000000000 "
				},
				"gasEstimates": {
					"creation": {
						"codeDepositCost": "2317000",
						"executionCost": "infinite",
						"totalCost": "infinite"
					},
					"external": {
						"approve(address,uint256)": "947",
						"balanceOf(address)": "infinite",
						"getApprovalGrowth(address,uint256)": "3274",
						"getApproved(uint256)": "777",
						"getGrowth(uint256)": "infinite",
						"getTokenType(uint256)": "infinite",
						"growUp(address,uint256)": "infinite",
						"isApprovedForAll(address,address)": "infinite",
						"isProtected(address)": "infinite",
						"mint(address,uint256)": "infinite",
						"name()": "infinite",
						"owner()": "2605",
						"ownerOf(uint256)": "infinite",
						"renounceOwnership()": "30501",
						"reset(address,uint256)": "infinite",
						"safeTransferFrom(address,address,uint256)": "infinite",
						"safeTransferFrom(address,address,uint256,bytes)": "infinite",
						"setApprovalForAll(address,bool)": "996",
						"setApprovalGrowth(uint256,bool)": "27360",
						"setProtected(bool)": "infinite",
						"setTokenURI(string)": "infinite",
						"supportsInterface(bytes4)": "764",
						"symbol()": "infinite",
						"tokenOfOwnerByIndex(address,uint256)": "infinite",
						"tokenURI(uint256)": "infinite",
						"totalSupply()": "2500",
						"totalUser()": "2476",
						"transferFrom(address,address,uint256)": "infinite",
						"transferOwnership(address)": "30819"
					}
				},
				"methodIdentifiers": {
					"approve(address,uint256)": "095ea7b3",
					"balanceOf(address)": "70a08231",
					"getApprovalGrowth(address,uint256)": "f3ba5946",
					"getApproved(uint256)": "081812fc",
					"getGrowth(uint256)": "51c18e0c",
					"getTokenType(uint256)": "76aed2e1",
					"growUp(address,uint256)": "be37e907",
					"isApprovedForAll(address,address)": "e985e9c5",
					"isProtected(address)": "ce35de95",
					"mint(address,uint256)": "40c10f19",
					"name()": "06fdde03",
					"owner()": "8da5cb5b",
					"ownerOf(uint256)": "6352211e",
					"renounceOwnership()": "715018a6",
					"reset(address,uint256)": "9b252852",
					"safeTransferFrom(address,address,uint256)": "42842e0e",
					"safeTransferFrom(address,address,uint256,bytes)": "b88d4fde",
					"setApprovalForAll(address,bool)": "a22cb465",
					"setApprovalGrowth(uint256,bool)": "8c10081f",
					"setProtected(bool)": "1c02bc31",
					"setTokenURI(string)": "e0df5b6f",
					"supportsInterface(bytes4)": "01ffc9a7",
					"symbol()": "95d89b41",
					"tokenOfOwnerByIndex(address,uint256)": "2f745c59",
					"tokenURI(uint256)": "c87b56dd",
					"totalSupply()": "18160ddd",
					"totalUser()": "e1604b70",
					"transferFrom(address,address,uint256)": "23b872dd",
					"transferOwnership(address)": "f2fde38b"
				}
			},
			"storageLayout": {
				"storage": [
					{
						"astId": 7,
						"contract": "sbt-contract/src/MySoulSocietySBT.sol:MySoulContract",
						"label": "_owner",
						"offset": 0,
						"slot": "0",
						"type": "t_address"
					},
					{
						"astId": 1555,
						"contract": "sbt-contract/src/MySoulSocietySBT.sol:MySoulContract",
						"label": "_uri",
						"offset": 0,
						"slot": "1",
						"type": "t_string_storage"
					},
					{
						"astId": 1557,
						"contract": "sbt-contract/src/MySoulSocietySBT.sol:MySoulContract",
						"label": "_totalUser",
						"offset": 0,
						"slot": "2",
						"type": "t_uint256"
					},
					{
						"astId": 1559,
						"contract": "sbt-contract/src/MySoulSocietySBT.sol:MySoulContract",
						"label": "_totalCount",
						"offset": 0,
						"slot": "3",
						"type": "t_uint256"
					},
					{
						"astId": 1563,
						"contract": "sbt-contract/src/MySoulSocietySBT.sol:MySoulContract",
						"label": "_owners",
						"offset": 0,
						"slot": "4",
						"type": "t_mapping(t_uint256,t_address)"
					},
					{
						"astId": 1567,
						"contract": "sbt-contract/src/MySoulSocietySBT.sol:MySoulContract",
						"label": "_tokenTypes",
						"offset": 0,
						"slot": "5",
						"type": "t_mapping(t_uint256,t_uint256)"
					},
					{
						"astId": 1571,
						"contract": "sbt-contract/src/MySoulSocietySBT.sol:MySoulContract",
						"label": "_tokenGrowths",
						"offset": 0,
						"slot": "6",
						"type": "t_mapping(t_uint256,t_uint256)"
					},
					{
						"astId": 1575,
						"contract": "sbt-contract/src/MySoulSocietySBT.sol:MySoulContract",
						"label": "_balances",
						"offset": 0,
						"slot": "7",
						"type": "t_mapping(t_address,t_uint256)"
					},
					{
						"astId": 1579,
						"contract": "sbt-contract/src/MySoulSocietySBT.sol:MySoulContract",
						"label": "_userProtects",
						"offset": 0,
						"slot": "8",
						"type": "t_mapping(t_address,t_bool)"
					},
					{
						"astId": 1585,
						"contract": "sbt-contract/src/MySoulSocietySBT.sol:MySoulContract",
						"label": "_ownedTokens",
						"offset": 0,
						"slot": "9",
						"type": "t_mapping(t_address,t_mapping(t_uint256,t_uint256))"
					},
					{
						"astId": 1591,
						"contract": "sbt-contract/src/MySoulSocietySBT.sol:MySoulContract",
						"label": "_approvalUpdateGrowth",
						"offset": 0,
						"slot": "10",
						"type": "t_mapping(t_address,t_mapping(t_uint256,t_bool))"
					}
				],
				"types": {
					"t_address": {
						"encoding": "inplace",
						"label": "address",
						"numberOfBytes": "20"
					},
					"t_bool": {
						"encoding": "inplace",
						"label": "bool",
						"numberOfBytes": "1"
					},
					"t_mapping(t_address,t_bool)": {
						"encoding": "mapping",
						"key": "t_address",
						"label": "mapping(address => bool)",
						"numberOfBytes": "32",
						"value": "t_bool"
					},
					"t_mapping(t_address,t_mapping(t_uint256,t_bool))": {
						"encoding": "mapping",
						"key": "t_address",
						"label": "mapping(address => mapping(uint256 => bool))",
						"numberOfBytes": "32",
						"value": "t_mapping(t_uint256,t_bool)"
					},
					"t_mapping(t_address,t_mapping(t_uint256,t_uint256))": {
						"encoding": "mapping",
						"key": "t_address",
						"label": "mapping(address => mapping(uint256 => uint256))",
						"numberOfBytes": "32",
						"value": "t_mapping(t_uint256,t_uint256)"
					},
					"t_mapping(t_address,t_uint256)": {
						"encoding": "mapping",
						"key": "t_address",
						"label": "mapping(address => uint256)",
						"numberOfBytes": "32",
						"value": "t_uint256"
					},
					"t_mapping(t_uint256,t_address)": {
						"encoding": "mapping",
						"key": "t_uint256",
						"label": "mapping(uint256 => address)",
						"numberOfBytes": "32",
						"value": "t_address"
					},
					"t_mapping(t_uint256,t_bool)": {
						"encoding": "mapping",
						"key": "t_uint256",
						"label": "mapping(uint256 => bool)",
						"numberOfBytes": "32",
						"value": "t_bool"
					},
					"t_mapping(t_uint256,t_uint256)": {
						"encoding": "mapping",
						"key": "t_uint256",
						"label": "mapping(uint256 => uint256)",
						"numberOfBytes": "32",
						"value": "t_uint256"
					},
					"t_string_storage": {
						"encoding": "bytes",
						"label": "string",
						"numberOfBytes": "32"
					},
					"t_uint256": {
						"encoding": "inplace",
						"label": "uint256",
						"numberOfBytes": "32"
					}
				}
			},
			"userdoc": {
				"kind": "user",
				"methods": {
					"safeTransferFrom(address,address,uint256,bytes)": {
						"notice": "Does not provide a transfer feature."
					}
				},
				"version": 1
			}
		}
	}
}